{
  "contracts/PrivacyERC20.sol": {
    "PrivacyERC20": {
      "abi": [
        {
          "inputs": [
            {
              "internalType": "address",
              "name": "underlyingToken_",
              "type": "address"
            },
            {
              "internalType": "bytes",
              "name": "pers_",
              "type": "bytes"
            }
          ],
          "stateMutability": "nonpayable",
          "type": "constructor"
        },
        {
          "inputs": [],
          "name": "ECDSAInvalidSignature",
          "type": "error"
        },
        {
          "inputs": [
            {
              "internalType": "uint256",
              "name": "length",
              "type": "uint256"
            }
          ],
          "name": "ECDSAInvalidSignatureLength",
          "type": "error"
        },
        {
          "inputs": [
            {
              "internalType": "bytes32",
              "name": "s",
              "type": "bytes32"
            }
          ],
          "name": "ECDSAInvalidSignatureS",
          "type": "error"
        },
        {
          "inputs": [],
          "name": "EIPError",
          "type": "error"
        },
        {
          "inputs": [
            {
              "internalType": "address",
              "name": "spender",
              "type": "address"
            },
            {
              "internalType": "uint256",
              "name": "allowance",
              "type": "uint256"
            },
            {
              "internalType": "uint256",
              "name": "needed",
              "type": "uint256"
            }
          ],
          "name": "ERC20InsufficientAllowance",
          "type": "error"
        },
        {
          "inputs": [
            {
              "internalType": "address",
              "name": "sender",
              "type": "address"
            },
            {
              "internalType": "uint256",
              "name": "balance",
              "type": "uint256"
            },
            {
              "internalType": "uint256",
              "name": "needed",
              "type": "uint256"
            }
          ],
          "name": "ERC20InsufficientBalance",
          "type": "error"
        },
        {
          "inputs": [
            {
              "internalType": "address",
              "name": "approver",
              "type": "address"
            }
          ],
          "name": "ERC20InvalidApprover",
          "type": "error"
        },
        {
          "inputs": [
            {
              "internalType": "address",
              "name": "receiver",
              "type": "address"
            }
          ],
          "name": "ERC20InvalidReceiver",
          "type": "error"
        },
        {
          "inputs": [
            {
              "internalType": "address",
              "name": "sender",
              "type": "address"
            }
          ],
          "name": "ERC20InvalidSender",
          "type": "error"
        },
        {
          "inputs": [
            {
              "internalType": "address",
              "name": "spender",
              "type": "address"
            }
          ],
          "name": "ERC20InvalidSpender",
          "type": "error"
        },
        {
          "inputs": [],
          "name": "EmptyIdentitySalt",
          "type": "error"
        },
        {
          "inputs": [],
          "name": "ExpiredDeadline",
          "type": "error"
        },
        {
          "inputs": [],
          "name": "InsufficientBalance",
          "type": "error"
        },
        {
          "inputs": [],
          "name": "InvalidNonce",
          "type": "error"
        },
        {
          "inputs": [],
          "name": "InvalidPermitAmount",
          "type": "error"
        },
        {
          "inputs": [],
          "name": "InvalidPermitLabel",
          "type": "error"
        },
        {
          "inputs": [],
          "name": "InvalidSignature",
          "type": "error"
        },
        {
          "inputs": [],
          "name": "NotContractAddress",
          "type": "error"
        },
        {
          "inputs": [],
          "name": "ReentrancyGuardReentrantCall",
          "type": "error"
        },
        {
          "inputs": [],
          "name": "SignatureUsed",
          "type": "error"
        },
        {
          "inputs": [],
          "name": "ZeroAddress",
          "type": "error"
        },
        {
          "inputs": [],
          "name": "ZeroAmount",
          "type": "error"
        },
        {
          "anonymous": false,
          "inputs": [
            {
              "indexed": true,
              "internalType": "address",
              "name": "owner",
              "type": "address"
            },
            {
              "indexed": true,
              "internalType": "address",
              "name": "spender",
              "type": "address"
            },
            {
              "indexed": false,
              "internalType": "uint256",
              "name": "value",
              "type": "uint256"
            }
          ],
          "name": "Approval",
          "type": "event"
        },
        {
          "anonymous": false,
          "inputs": [
            {
              "indexed": true,
              "internalType": "address",
              "name": "from",
              "type": "address"
            },
            {
              "indexed": true,
              "internalType": "address",
              "name": "to",
              "type": "address"
            },
            {
              "indexed": false,
              "internalType": "uint256",
              "name": "value",
              "type": "uint256"
            }
          ],
          "name": "Transfer",
          "type": "event"
        },
        {
          "inputs": [],
          "name": "DOMAIN_SEPARATOR",
          "outputs": [
            {
              "internalType": "bytes32",
              "name": "",
              "type": "bytes32"
            }
          ],
          "stateMutability": "view",
          "type": "function"
        },
        {
          "inputs": [],
          "name": "EIP_PERMIT_TYPEHASH",
          "outputs": [
            {
              "internalType": "bytes32",
              "name": "",
              "type": "bytes32"
            }
          ],
          "stateMutability": "view",
          "type": "function"
        },
        {
          "inputs": [
            {
              "internalType": "address",
              "name": "owner",
              "type": "address"
            },
            {
              "internalType": "address",
              "name": "spender",
              "type": "address"
            }
          ],
          "name": "allowance",
          "outputs": [
            {
              "internalType": "uint256",
              "name": "",
              "type": "uint256"
            }
          ],
          "stateMutability": "view",
          "type": "function"
        },
        {
          "inputs": [
            {
              "components": [
                {
                  "internalType": "enum PrivacyEIP712.PermitLabel",
                  "name": "label",
                  "type": "uint8"
                },
                {
                  "internalType": "address",
                  "name": "owner",
                  "type": "address"
                },
                {
                  "internalType": "address",
                  "name": "spender",
                  "type": "address"
                },
                {
                  "internalType": "uint256",
                  "name": "amount",
                  "type": "uint256"
                },
                {
                  "internalType": "uint256",
                  "name": "deadline",
                  "type": "uint256"
                },
                {
                  "internalType": "uint256",
                  "name": "nonce",
                  "type": "uint256"
                },
                {
                  "components": [
                    {
                      "internalType": "bytes32",
                      "name": "r",
                      "type": "bytes32"
                    },
                    {
                      "internalType": "bytes32",
                      "name": "s",
                      "type": "bytes32"
                    },
                    {
                      "internalType": "uint256",
                      "name": "v",
                      "type": "uint256"
                    }
                  ],
                  "internalType": "struct SignatureRSV",
                  "name": "signature",
                  "type": "tuple"
                }
              ],
              "internalType": "struct PrivacyEIP712.EIP712Permit",
              "name": "permit",
              "type": "tuple"
            }
          ],
          "name": "allowanceWithPermit",
          "outputs": [
            {
              "internalType": "uint256",
              "name": "",
              "type": "uint256"
            }
          ],
          "stateMutability": "view",
          "type": "function"
        },
        {
          "inputs": [
            {
              "internalType": "address",
              "name": "spender",
              "type": "address"
            },
            {
              "internalType": "uint256",
              "name": "value",
              "type": "uint256"
            }
          ],
          "name": "approve",
          "outputs": [
            {
              "internalType": "bool",
              "name": "",
              "type": "bool"
            }
          ],
          "stateMutability": "nonpayable",
          "type": "function"
        },
        {
          "inputs": [
            {
              "components": [
                {
                  "internalType": "enum PrivacyEIP712.PermitLabel",
                  "name": "label",
                  "type": "uint8"
                },
                {
                  "internalType": "address",
                  "name": "owner",
                  "type": "address"
                },
                {
                  "internalType": "address",
                  "name": "spender",
                  "type": "address"
                },
                {
                  "internalType": "uint256",
                  "name": "amount",
                  "type": "uint256"
                },
                {
                  "internalType": "uint256",
                  "name": "deadline",
                  "type": "uint256"
                },
                {
                  "internalType": "uint256",
                  "name": "nonce",
                  "type": "uint256"
                },
                {
                  "components": [
                    {
                      "internalType": "bytes32",
                      "name": "r",
                      "type": "bytes32"
                    },
                    {
                      "internalType": "bytes32",
                      "name": "s",
                      "type": "bytes32"
                    },
                    {
                      "internalType": "uint256",
                      "name": "v",
                      "type": "uint256"
                    }
                  ],
                  "internalType": "struct SignatureRSV",
                  "name": "signature",
                  "type": "tuple"
                }
              ],
              "internalType": "struct PrivacyEIP712.EIP712Permit",
              "name": "permit",
              "type": "tuple"
            }
          ],
          "name": "approveWithPermit",
          "outputs": [],
          "stateMutability": "nonpayable",
          "type": "function"
        },
        {
          "inputs": [
            {
              "internalType": "address",
              "name": "account",
              "type": "address"
            }
          ],
          "name": "balanceOf",
          "outputs": [
            {
              "internalType": "uint256",
              "name": "",
              "type": "uint256"
            }
          ],
          "stateMutability": "view",
          "type": "function"
        },
        {
          "inputs": [
            {
              "components": [
                {
                  "internalType": "enum PrivacyEIP712.PermitLabel",
                  "name": "label",
                  "type": "uint8"
                },
                {
                  "internalType": "address",
                  "name": "owner",
                  "type": "address"
                },
                {
                  "internalType": "address",
                  "name": "spender",
                  "type": "address"
                },
                {
                  "internalType": "uint256",
                  "name": "amount",
                  "type": "uint256"
                },
                {
                  "internalType": "uint256",
                  "name": "deadline",
                  "type": "uint256"
                },
                {
                  "internalType": "uint256",
                  "name": "nonce",
                  "type": "uint256"
                },
                {
                  "components": [
                    {
                      "internalType": "bytes32",
                      "name": "r",
                      "type": "bytes32"
                    },
                    {
                      "internalType": "bytes32",
                      "name": "s",
                      "type": "bytes32"
                    },
                    {
                      "internalType": "uint256",
                      "name": "v",
                      "type": "uint256"
                    }
                  ],
                  "internalType": "struct SignatureRSV",
                  "name": "signature",
                  "type": "tuple"
                }
              ],
              "internalType": "struct PrivacyEIP712.EIP712Permit",
              "name": "permit",
              "type": "tuple"
            }
          ],
          "name": "balanceOfWithPermit",
          "outputs": [
            {
              "internalType": "uint256",
              "name": "",
              "type": "uint256"
            }
          ],
          "stateMutability": "view",
          "type": "function"
        },
        {
          "inputs": [],
          "name": "decimals",
          "outputs": [
            {
              "internalType": "uint8",
              "name": "",
              "type": "uint8"
            }
          ],
          "stateMutability": "view",
          "type": "function"
        },
        {
          "inputs": [
            {
              "components": [
                {
                  "internalType": "enum PrivacyEIP712.PermitLabel",
                  "name": "label",
                  "type": "uint8"
                },
                {
                  "internalType": "address",
                  "name": "owner",
                  "type": "address"
                },
                {
                  "internalType": "address",
                  "name": "spender",
                  "type": "address"
                },
                {
                  "internalType": "uint256",
                  "name": "amount",
                  "type": "uint256"
                },
                {
                  "internalType": "uint256",
                  "name": "deadline",
                  "type": "uint256"
                },
                {
                  "internalType": "uint256",
                  "name": "nonce",
                  "type": "uint256"
                },
                {
                  "components": [
                    {
                      "internalType": "bytes32",
                      "name": "r",
                      "type": "bytes32"
                    },
                    {
                      "internalType": "bytes32",
                      "name": "s",
                      "type": "bytes32"
                    },
                    {
                      "internalType": "uint256",
                      "name": "v",
                      "type": "uint256"
                    }
                  ],
                  "internalType": "struct SignatureRSV",
                  "name": "signature",
                  "type": "tuple"
                }
              ],
              "internalType": "struct PrivacyEIP712.EIP712Permit",
              "name": "permit",
              "type": "tuple"
            }
          ],
          "name": "getMyVirtualAddress",
          "outputs": [
            {
              "internalType": "address",
              "name": "",
              "type": "address"
            }
          ],
          "stateMutability": "view",
          "type": "function"
        },
        {
          "inputs": [],
          "name": "increaseNonce",
          "outputs": [],
          "stateMutability": "nonpayable",
          "type": "function"
        },
        {
          "inputs": [
            {
              "components": [
                {
                  "internalType": "bytes32",
                  "name": "r",
                  "type": "bytes32"
                },
                {
                  "internalType": "bytes32",
                  "name": "s",
                  "type": "bytes32"
                },
                {
                  "internalType": "uint256",
                  "name": "v",
                  "type": "uint256"
                }
              ],
              "internalType": "struct SignatureRSV",
              "name": "signature",
              "type": "tuple"
            }
          ],
          "name": "isSignatureUsed",
          "outputs": [
            {
              "internalType": "bool",
              "name": "",
              "type": "bool"
            }
          ],
          "stateMutability": "view",
          "type": "function"
        },
        {
          "inputs": [],
          "name": "name",
          "outputs": [
            {
              "internalType": "string",
              "name": "",
              "type": "string"
            }
          ],
          "stateMutability": "view",
          "type": "function"
        },
        {
          "inputs": [
            {
              "internalType": "address",
              "name": "owner",
              "type": "address"
            }
          ],
          "name": "nonces",
          "outputs": [
            {
              "internalType": "uint256",
              "name": "",
              "type": "uint256"
            }
          ],
          "stateMutability": "view",
          "type": "function"
        },
        {
          "inputs": [],
          "name": "symbol",
          "outputs": [
            {
              "internalType": "string",
              "name": "",
              "type": "string"
            }
          ],
          "stateMutability": "view",
          "type": "function"
        },
        {
          "inputs": [],
          "name": "totalSupply",
          "outputs": [
            {
              "internalType": "uint256",
              "name": "",
              "type": "uint256"
            }
          ],
          "stateMutability": "view",
          "type": "function"
        },
        {
          "inputs": [
            {
              "internalType": "address",
              "name": "to",
              "type": "address"
            },
            {
              "internalType": "uint256",
              "name": "value",
              "type": "uint256"
            }
          ],
          "name": "transfer",
          "outputs": [
            {
              "internalType": "bool",
              "name": "",
              "type": "bool"
            }
          ],
          "stateMutability": "nonpayable",
          "type": "function"
        },
        {
          "inputs": [
            {
              "internalType": "address",
              "name": "from",
              "type": "address"
            },
            {
              "internalType": "address",
              "name": "to",
              "type": "address"
            },
            {
              "internalType": "uint256",
              "name": "value",
              "type": "uint256"
            }
          ],
          "name": "transferFrom",
          "outputs": [
            {
              "internalType": "bool",
              "name": "",
              "type": "bool"
            }
          ],
          "stateMutability": "nonpayable",
          "type": "function"
        },
        {
          "inputs": [
            {
              "components": [
                {
                  "internalType": "enum PrivacyEIP712.PermitLabel",
                  "name": "label",
                  "type": "uint8"
                },
                {
                  "internalType": "address",
                  "name": "owner",
                  "type": "address"
                },
                {
                  "internalType": "address",
                  "name": "spender",
                  "type": "address"
                },
                {
                  "internalType": "uint256",
                  "name": "amount",
                  "type": "uint256"
                },
                {
                  "internalType": "uint256",
                  "name": "deadline",
                  "type": "uint256"
                },
                {
                  "internalType": "uint256",
                  "name": "nonce",
                  "type": "uint256"
                },
                {
                  "components": [
                    {
                      "internalType": "bytes32",
                      "name": "r",
                      "type": "bytes32"
                    },
                    {
                      "internalType": "bytes32",
                      "name": "s",
                      "type": "bytes32"
                    },
                    {
                      "internalType": "uint256",
                      "name": "v",
                      "type": "uint256"
                    }
                  ],
                  "internalType": "struct SignatureRSV",
                  "name": "signature",
                  "type": "tuple"
                }
              ],
              "internalType": "struct PrivacyEIP712.EIP712Permit",
              "name": "permit",
              "type": "tuple"
            }
          ],
          "name": "transferWithPermit",
          "outputs": [],
          "stateMutability": "nonpayable",
          "type": "function"
        },
        {
          "inputs": [],
          "name": "underlyingToken",
          "outputs": [
            {
              "internalType": "contract IERC20Metadata",
              "name": "",
              "type": "address"
            }
          ],
          "stateMutability": "view",
          "type": "function"
        },
        {
          "inputs": [
            {
              "internalType": "uint256",
              "name": "amount",
              "type": "uint256"
            }
          ],
          "name": "unwrap",
          "outputs": [],
          "stateMutability": "nonpayable",
          "type": "function"
        },
        {
          "inputs": [
            {
              "internalType": "uint256",
              "name": "amount",
              "type": "uint256"
            }
          ],
          "name": "wrap",
          "outputs": [],
          "stateMutability": "nonpayable",
          "type": "function"
        }
      ],
      "evm": {
        "bytecode": {
          "linkReferences": {},
          "object": "60c0604090808252346200027a576200216c80380380916200002282856200027f565b8339810182828203126200027a5781516001600160a01b03811692908390036200027a576020818101516001600160401b03928382116200027a570183601f820112156200027a5780516200007781620002a3565b9462000086885196876200027f565b8186528382840101116200027a57620000a591838087019101620002bf565b84519360608501858110848211176200026457865260288552818501947f5072697661637920455243323020546f6b656e2077697468205669727475616c865267204164647265737360c01b8782015286519587870187811086821117620002645788526001875283870191603160f81b835260009660018855600154156200024b575b50519020955190208651928301957f8b73c3c69bb8fe3d512ecc4cf759cc79239f7b179b0ffacaa9a75d522b39400f87528784015260608301524660808301523060a083015260a0825260c08201948286108487111762000237578587528251902060805260a05260e00190811183821017620002235783528152620001ba90620001b49062000308565b620002e4565b60045551611d749081620003f882396080518181816105bf0152818161097201528181610bfa01528181610d33015261179f015260a0518181816101be015281816102dc0152818161076a01528181610d7d01528181610e2501528181610f5c01526110380152f35b634e487b7160e01b82526041600452602482fd5b634e487b7160e01b85526041600452602485fd5b620001b46200025a9162000308565b6001553862000129565b634e487b7160e01b600052604160045260246000fd5b600080fd5b601f909101601f19168101906001600160401b038211908210176200026457604052565b6001600160401b0381116200026457601f01601f191660200190565b60005b838110620002d35750506000910152565b8181015183820152602001620002c2565b602081519101519060208110620002f9575090565b6000199060200360031b1b1690565b6000809160405162000358608082602081019460208652604080830152620003408151809281606086015260208686019101620002bf565b601f801991011681010360608101845201826200027f565b51907301000000000000000000000000000000000000015afa3d15620003ee573d906200038582620002a3565b916200039560405193846200027f565b82523d6000602084013e5b15620003a95790565b60405162461bcd60e51b815260206004820152601360248201527f72616e646f6d42797465733a206661696c6564000000000000000000000000006044820152606490fd5b606090620003a056fe608060408181526004918236101561001657600080fd5b60009060e08235811c918263036e0708146110e65750816306fdde0314611011578163095ea7b314610fd657816318160ddd14610f2d57816323b872dd14610e545781632495a59914610e10578163313ce56714610d565781633644e51514610d1b57816370a0823114610cf5578163759714d114610acc5781637ecebe0014610a9457816393355f4214610a4257816395cceba21461082a57816395d89b4114610743578163a9059cbb14610701578163ae60b7871461047757508063c53a029214610431578063cf5855ae146103c0578063dd62ed3e14610361578063de0e9a3e1461026f578063ea598cb0146101705763f2a69c911461011857600080fd5b3461016d575061012736611230565b916101318361167e565b1561015f575060209182015161015890610153906001600160a01b03166113dd565b61151e565b9051908152f35b90516303bfcdeb60e21b8152fd5b80fd5b50913461026b57602036600319011261026b5780359061018e611887565b811561025d5782516323b872dd60e01b8152339181019190915230602482015260448101829052602081606481877f00000000000000000000000000000000000000000000000000000000000000006001600160a01b03165af180156102505761021a9350610221575b50610214610205336113dd565b9161020f8361151e565b6113d0565b906119c4565b6001815580f35b6102429060203d602011610249575b61023a818361120e565b8101906113b8565b50386101f8565b503d610230565b50505051903d90823e3d90fd5b8251631f2a200560e01b8152fd5b8280fd5b5091903461026b57602036600319011261026b57813561028d611887565b80156103535761029c336113dd565b6102a58161151e565b8281106103435790610214836102ba93611395565b815163a9059cbb60e01b815233938101939093526024830152602082604481867f00000000000000000000000000000000000000000000000000000000000000006001600160a01b03165af190811561033a575061031b575b506001815580f35b6103339060203d6020116102495761023a818361120e565b5038610313565b513d84823e3d90fd5b50505051631e9acf1760e31b8152fd5b5051631f2a200560e01b8152fd5b5090346103bc57806003193601126103bc578060209261037f611156565b61039961039361038d611171565b9261146a565b9161146a565b6001600160a01b0391821683526006865283832091168252845220549051908152f35b5080fd5b50913461026b576103d036611230565b906103da8261167e565b156104235750602092829160018060a01b03806104098186610400828b880151166113dd565b9501511661146a565b921683526006865283832091168252845220549051908152f35b82516303bfcdeb60e21b8152fd5b5091903461026b578260031936011261026b57338352600360205282208054909160001982146104645750600101905580f35b634e487b7160e01b845260119052602483fd5b83858492346106fd5761048936611230565b90610492611887565b60c08201918251926104a3846118aa565b506080820194855142116106ef5782516104bc81611867565b6104c581611867565b6001036106e15760a08301918251946020978886019460018060a01b0397888751168d5260038b528b8d2054036106d15787959493928b928b92895161050a81611867565b61051381611867565b156106b1575b60038a5161052681611867565b61052f81611867565b14610677575b9088949392918a519161054783611867565b868a51169b8681019d8e5116906060019c8d519251935194885197880198600080516020611d1f8339815191528a5261057f82611867565b8801526060870152608086015260a085015260c08401528183015281526105a5816111b9565b519020818551169251908b518b81019161190160f01b83527f000000000000000000000000000000000000000000000000000000000000000060228301526042820152604281526105f5816111d6565b519020908b81015160ff16908b81519101519161061193611c03565b61061a91611c93565b160361066957509260029594926106458361063d61064d956106529851166113dd565b93511661146a565b905191611914565b6118df565b8452528120600160ff198254161790556001815580f35b87516303bfcdeb60e21b8152fd5b92509250929394955060608701516106a157878b880151166106a15787959493928b928b92610535565b8a5163291ded6160e01b81528590fd5b92509250929394955060608701516106a15787959493928b928b92610519565b8a51633ab3447f60e11b81528590fd5b8651635105556960e01b8152fd5b865163f87d927160e01b8152fd5b8380fd5b8284346103bc57806003193601126103bc5760209061073c610721611156565b61072a336113dd565b6107366024359261146a565b90611914565b5160018152f35b8285853461026b578260031936011261026b5780516395d89b4160e01b81529183908390817f00000000000000000000000000000000000000000000000000000000000000006001600160a01b03165afa91821561082057836107f794936107fb575b50506107e560288251846107c482965180926020808601910161110e565b8101672e5072697661637960c01b602082015203600881018552018361120e565b51918291602083526020830190611131565b0390f35b6108189293503d8091833e610810818361120e565b8101906112fd565b9083806107a6565b81513d85823e3d90fd5b83858492346106fd5761083c36611230565b90610845611887565b60c0820191825192610856846118aa565b506080820194855142116106ef57825161086f81611867565b61087881611867565b6002036106e15760a08301918251946020978886019460018060a01b0397888751168d5260038b528b8d2054036106d15787959493928b928b9289516108bd81611867565b6108c681611867565b15610a22575b60038a516108d981611867565b6108e281611867565b146109f8575b9088949392918a51916108fa83611867565b868a51169b8681019d8e5116906060019c8d519251935194885197880198600080516020611d1f8339815191528a5261093282611867565b8801526060870152608086015260a085015260c0840152818301528152610958816111b9565b519020818551169251908b518b81019161190160f01b83527f000000000000000000000000000000000000000000000000000000000000000060228301526042820152604281526109a8816111d6565b519020908b81015160ff16908b8151910151916109c493611c03565b6109cd91611c93565b160361066957509260029594926109f08361063d61064d956106529851166113dd565b90519161147c565b92509250929394955060608701516106a157878b880151166106a15787959493928b928b926108e8565b92509250929394955060608701516106a15787959493928b928b926108cc565b5050913461026b57606036600319011261026b5781602093610a8260ff93835190610a6c82611187565b35815260243587820152604435848201526118df565b81526002855220541690519015158152f35b8284346103bc5760203660031901126103bc5760209181906001600160a01b03610abc611156565b1681526003845220549051908152f35b939050346103bc57610add36611230565b90608082019182514211610ce6578051610af681611867565b610aff81611867565b600303610cd75760a0810195865193602097888401958860018060a01b039889895116815260038c52205403610cc757869288928a928651610b4081611867565b610b4981611867565b15610cad575b60038751610b5c81611867565b610b6581611867565b14610c79575b91610c479391610c509593885191610b8283611867565b888c511689878c0151169060608c01519251935194885197880198600080516020611d1f8339815191528a52610bb782611867565b8801526060870152608086015260a085015260c0840152818301528152610bdd816111b9565b51902060c0848851169501519089518b81019161190160f01b83527f00000000000000000000000000000000000000000000000000000000000000006022830152604282015260428152610c30816111d6565b5190209060ff8a820151168b825192015192611c03565b90929192611c93565b1603610c6b575081610c639151166113dd565b915191168152f35b83516303bfcdeb60e21b8152fd5b9250925092506060840151610c9d57868885015116610c9d57869288928a92610b6b565b875163291ded6160e01b81528590fd5b9250925092506060840151610c9d57869288928a92610b4f565b8751633ab3447f60e11b81528590fd5b508351635105556960e01b8152fd5b50835163f87d927160e01b8152fd5b8284346103bc5760203660031901126103bc57602090610158610d16611156565b61135f565b8284346103bc57816003193601126103bc57602090517f00000000000000000000000000000000000000000000000000000000000000008152f35b50503461016d578060031936011261016d57815163313ce56760e01b8152926020908490817f00000000000000000000000000000000000000000000000000000000000000006001600160a01b03165afa928315610e04578193610dc2575b60208460ff855191168152f35b9092506020813d602011610dfc575b81610dde6020938361120e565b8101031261026b57519160ff8316830361016d575060ff6020610db5565b3d9150610dd1565b509051903d90823e3d90fd5b8284346103bc57816003193601126103bc57517f00000000000000000000000000000000000000000000000000000000000000006001600160a01b03168152602090f35b5050913461026b57606036600319011261026b57610e70611156565b92610e79611171565b6044359284610e99610e93610e8d336113dd565b9861146a565b9361146a565b6001600160a01b03848116865260066020908152838720918a16875252932054906000198210610ed2575b60208661073c878787611914565b848210610ef9575090610ef06020968561073c96959403908361147c565b90919238610ec4565b8551637dc7a0d960e11b81526001600160a01b03881691810191825260208201929092526040810185905281906060010390fd5b8285853461026b578260031936011261026b5780516370a0823160e01b815230928101929092526020826024817f00000000000000000000000000000000000000000000000000000000000000006001600160a01b03165afa918215610820578392610f9e575b6020838351908152f35b9091506020813d602011610fce575b81610fba6020938361120e565b8101031261026b5760209250519083610f94565b3d9150610fad565b8284346103bc57806003193601126103bc5760209061073c610ff6611156565b610fff336113dd565b61100b6024359261146a565b9061147c565b8285853461026b578260031936011261026b5780516306fdde0360e01b81529183908390817f00000000000000000000000000000000000000000000000000000000000000006001600160a01b03165afa91821561082057836107f794936110c9575b50506107e5603482518094670283934bb30b1bc960c51b60208301526110a481518092602060288601910161110e565b81016b081dda5d1a08155cd95c925960a21b602882015203601481018552018361120e565b6110de9293503d8091833e610810818361120e565b908380611074565b8390346103bc57816003193601126103bc5780600080516020611d1f83398151915260209252f35b60005b8381106111215750506000910152565b8181015183820152602001611111565b9060209161114a8151809281855285808601910161110e565b601f01601f1916010190565b600435906001600160a01b038216820361116c57565b600080fd5b602435906001600160a01b038216820361116c57565b6060810190811067ffffffffffffffff8211176111a357604052565b634e487b7160e01b600052604160045260246000fd5b610100810190811067ffffffffffffffff8211176111a357604052565b6080810190811067ffffffffffffffff8211176111a357604052565b6020810190811067ffffffffffffffff8211176111a357604052565b90601f8019910116810190811067ffffffffffffffff8211176111a357604052565b61012060031982011261116c576040519060e0820182811067ffffffffffffffff8211176111a357604052600435600481101561116c5782526001600160a01b0390602435828116810361116c576020840152604435918216820361116c57606091604084015260643582840152608435608084015260a43560a084015260c319011261116c576040516112c381611187565b60c435815260e435602082015261010435604082015260c082015290565b67ffffffffffffffff81116111a357601f01601f191660200190565b60208183031261116c5780519067ffffffffffffffff821161116c570181601f8201121561116c578051611330816112e1565b9261133e604051948561120e565b8184526020828401011161116c5761135c916020808501910161110e565b90565b803b15801590611383575b6113775761135c9061151e565b61015361135c916113dd565b506001600160a01b038116331461136a565b919082039182116113a257565b634e487b7160e01b600052601160045260246000fd5b9081602091031261116c5751801515810361116c5790565b919082018092116113a257565b6001600160a01b03908082161561145857600154908115611446576040519060208201926d5669727475616c4164647265737360901b8452602e8301526bffffffffffffffffffffffff199060601b16604e8201526042815261143f816111d6565b5190201690565b604051637145e31160e01b8152600490fd5b60405163d92e233d60e01b8152600490fd5b803b6114735790565b61135c906113dd565b6001600160a01b039081169182156114cb57169081156114b2576000526006602052604060002090600052602052604060002055565b604051634a1406b160e11b815260006004820152602490fd5b60405163e602df0560e01b815260006004820152602490fd5b90600182811c92168015611514575b60208310146114fe57565b634e487b7160e01b600052602260045260246000fd5b91607f16916114f3565b60009060018060a01b0316815260209060058252604081206040519081838254611547816114e4565b938484526001918860018216918260001461165c575050600114611620575b50506115749250038261120e565b80511561161a57818091600454906115b660405191611592836111f2565b8483526115a86040519384928a84019687611ba1565b03601f19810183528261120e565b51906004600160981b015afa906115cb611bd3565b91156115e357828280518101031261016d5750015190565b60405162461bcd60e51b815260048101849052600f60248201526e191958dc9e5c1d0e8819985a5b1959608a1b6044820152606490fd5b50905090565b87925086528186209086915b85831061164457505061157493508201013880611566565b8054838801850152869450889390920191810161162c565b925093505061157494915060ff191682840152151560051b8201013880611566565b608081018051421161185557815161169581611867565b61169e81611867565b6118435760a08201805190602084019060018060a01b03938483511660005260036020526040938460002054036118325790849186516116dd81611867565b6116e681611867565b1561181e575b600387516116f981611867565b61170281611867565b146117ef575b60c06117ea9593610c47959360ff938a80519261172484611867565b84885116926060868b8501511693015190519151928a51946020860196600080516020611d1f833981519152885261175b81611867565b8c8701526060860152608085015260a08401528583015260e082015260e08152611784816111b9565b519020935116970151918351602081019161190160f01b83527f000000000000000000000000000000000000000000000000000000000000000060228301526042820152604281526117d5816111d6565b51902092820151166020825192015192611c03565b161490565b909150606086015161180d5784848701511661180d57908491611708565b835163291ded6160e01b8152600490fd5b909150606086015161180d579084916116ec565b8351633ab3447f60e11b8152600490fd5b604051635105556960e01b8152600490fd5b60405163f87d927160e01b8152600490fd5b6004111561187157565b634e487b7160e01b600052602160045260246000fd5b600260005414611898576002600055565b604051633ee5aeb560e01b8152600490fd5b6118b3906118df565b600052600260205260ff604060002054166118cd57600090565b604051638baa579f60e01b8152600490fd5b805190604060208201519101516040519160208301938452604083015260608201526060815261190e816111d6565b51902090565b92916001600160a01b03808516156119ab57821615611992576119368461151e565b93818510611960579061195e939461020f61021493610214846119588861151e565b94611395565b565b60405163391434e360e21b81526001600160a01b03919091166004820152602481018590526044810191909152606490fd5b60405163ec442f0560e01b815260006004820152602490fd5b604051634b637e8f60e11b815260006004820152602490fd5b9190916040805191602094858401528483528183019067ffffffffffffffff92848310848411176111a357828152600454946119ff846111f2565b600080968192828752611a1a85519788928d84019485611ba1565b0395611a2e601f199788810183528261120e565b51906003600160981b015afa91611a43611bd3565b9215611b6b576001600160a01b031685526005875284208151909490938411611b5757611a7085546114e4565b601f8111611b14575b508692601f8511600114611ab45750839495965092611aa9575b50508160011b916000199060031b1c1916179055565b015190503880611a93565b8493929193169685845280842093905b888210611afc57505083600195969710611ae3575b505050811b019055565b015160001960f88460031b161c19169055388080611ad9565b80600185968294968601518155019501930190611ac4565b858252878220601f860160051c810191898710611b4d575b601f0160051c01905b818110611b425750611a79565b828155600101611b35565b9091508190611b2c565b634e487b7160e01b81526041600452602490fd5b815162461bcd60e51b815260048101899052600f60248201526e195b98dc9e5c1d0e8819985a5b1959608a1b6044820152606490fd5b91611bc59061135c9492600085526020850152608060408501526080840190611131565b916060818403910152611131565b3d15611bfe573d90611be4826112e1565b91611bf2604051938461120e565b82523d6000602084013e565b606090565b91907f7fffffffffffffffffffffffffffffff5d576e7357a4501ddfe92f46681b20a08411611c8757926020929160ff608095604051948552168484015260408301526060820152600092839182805260015afa15611c7b5780516001600160a01b03811615611c7257918190565b50809160019190565b604051903d90823e3d90fd5b50505060009160039190565b611c9c81611867565b80611ca5575050565b611cae81611867565b60018103611cc85760405163f645eedf60e01b8152600490fd5b611cd181611867565b60028103611cf25760405163fce698f760e01b815260048101839052602490fd5b80611cfe600392611867565b14611d065750565b602490604051906335e2f38360e21b82526004820152fdfe2b6664e8054717873954d7ca7348079fe06e7caf155f60944c3a4b3dcf2fabb3a2646970667358221220b0eafdf87b2538b40e2f730c8ec86c61a8492ffc301672f7b2b5f1a51fdf595f64736f6c63430008180033",
          "opcodes": "PUSH1 0xC0 PUSH1 0x40 SWAP1 DUP1 DUP3 MSTORE CALLVALUE PUSH3 0x27A JUMPI PUSH3 0x216C DUP1 CODESIZE SUB DUP1 SWAP2 PUSH3 0x22 DUP3 DUP6 PUSH3 0x27F JUMP JUMPDEST DUP4 CODECOPY DUP2 ADD DUP3 DUP3 DUP3 SUB SLT PUSH3 0x27A JUMPI DUP2 MLOAD PUSH1 0x1 PUSH1 0x1 PUSH1 0xA0 SHL SUB DUP2 AND SWAP3 SWAP1 DUP4 SWAP1 SUB PUSH3 0x27A JUMPI PUSH1 0x20 DUP2 DUP2 ADD MLOAD PUSH1 0x1 PUSH1 0x1 PUSH1 0x40 SHL SUB SWAP3 DUP4 DUP3 GT PUSH3 0x27A JUMPI ADD DUP4 PUSH1 0x1F DUP3 ADD SLT ISZERO PUSH3 0x27A JUMPI DUP1 MLOAD PUSH3 0x77 DUP2 PUSH3 0x2A3 JUMP JUMPDEST SWAP5 PUSH3 0x86 DUP9 MLOAD SWAP7 DUP8 PUSH3 0x27F JUMP JUMPDEST DUP2 DUP7 MSTORE DUP4 DUP3 DUP5 ADD ADD GT PUSH3 0x27A JUMPI PUSH3 0xA5 SWAP2 DUP4 DUP1 DUP8 ADD SWAP2 ADD PUSH3 0x2BF JUMP JUMPDEST DUP5 MLOAD SWAP4 PUSH1 0x60 DUP6 ADD DUP6 DUP2 LT DUP5 DUP3 GT OR PUSH3 0x264 JUMPI DUP7 MSTORE PUSH1 0x28 DUP6 MSTORE DUP2 DUP6 ADD SWAP5 PUSH32 0x5072697661637920455243323020546F6B656E2077697468205669727475616C DUP7 MSTORE PUSH8 0x2041646472657373 PUSH1 0xC0 SHL DUP8 DUP3 ADD MSTORE DUP7 MLOAD SWAP6 DUP8 DUP8 ADD DUP8 DUP2 LT DUP7 DUP3 GT OR PUSH3 0x264 JUMPI DUP9 MSTORE PUSH1 0x1 DUP8 MSTORE DUP4 DUP8 ADD SWAP2 PUSH1 0x31 PUSH1 0xF8 SHL DUP4 MSTORE PUSH1 0x0 SWAP7 PUSH1 0x1 DUP9 SSTORE PUSH1 0x1 SLOAD ISZERO PUSH3 0x24B JUMPI JUMPDEST POP MLOAD SWAP1 KECCAK256 SWAP6 MLOAD SWAP1 KECCAK256 DUP7 MLOAD SWAP3 DUP4 ADD SWAP6 PUSH32 0x8B73C3C69BB8FE3D512ECC4CF759CC79239F7B179B0FFACAA9A75D522B39400F DUP8 MSTORE DUP8 DUP5 ADD MSTORE PUSH1 0x60 DUP4 ADD MSTORE CHAINID PUSH1 0x80 DUP4 ADD MSTORE ADDRESS PUSH1 0xA0 DUP4 ADD MSTORE PUSH1 0xA0 DUP3 MSTORE PUSH1 0xC0 DUP3 ADD SWAP5 DUP3 DUP7 LT DUP5 DUP8 GT OR PUSH3 0x237 JUMPI DUP6 DUP8 MSTORE DUP3 MLOAD SWAP1 KECCAK256 PUSH1 0x80 MSTORE PUSH1 0xA0 MSTORE PUSH1 0xE0 ADD SWAP1 DUP2 GT DUP4 DUP3 LT OR PUSH3 0x223 JUMPI DUP4 MSTORE DUP2 MSTORE PUSH3 0x1BA SWAP1 PUSH3 0x1B4 SWAP1 PUSH3 0x308 JUMP JUMPDEST PUSH3 0x2E4 JUMP JUMPDEST PUSH1 0x4 SSTORE MLOAD PUSH2 0x1D74 SWAP1 DUP2 PUSH3 0x3F8 DUP3 CODECOPY PUSH1 0x80 MLOAD DUP2 DUP2 DUP2 PUSH2 0x5BF ADD MSTORE DUP2 DUP2 PUSH2 0x972 ADD MSTORE DUP2 DUP2 PUSH2 0xBFA ADD MSTORE DUP2 DUP2 PUSH2 0xD33 ADD MSTORE PUSH2 0x179F ADD MSTORE PUSH1 0xA0 MLOAD DUP2 DUP2 DUP2 PUSH2 0x1BE ADD MSTORE DUP2 DUP2 PUSH2 0x2DC ADD MSTORE DUP2 DUP2 PUSH2 0x76A ADD MSTORE DUP2 DUP2 PUSH2 0xD7D ADD MSTORE DUP2 DUP2 PUSH2 0xE25 ADD MSTORE DUP2 DUP2 PUSH2 0xF5C ADD MSTORE PUSH2 0x1038 ADD MSTORE RETURN JUMPDEST PUSH4 0x4E487B71 PUSH1 0xE0 SHL DUP3 MSTORE PUSH1 0x41 PUSH1 0x4 MSTORE PUSH1 0x24 DUP3 REVERT JUMPDEST PUSH4 0x4E487B71 PUSH1 0xE0 SHL DUP6 MSTORE PUSH1 0x41 PUSH1 0x4 MSTORE PUSH1 0x24 DUP6 REVERT JUMPDEST PUSH3 0x1B4 PUSH3 0x25A SWAP2 PUSH3 0x308 JUMP JUMPDEST PUSH1 0x1 SSTORE CODESIZE PUSH3 0x129 JUMP JUMPDEST PUSH4 0x4E487B71 PUSH1 0xE0 SHL PUSH1 0x0 MSTORE PUSH1 0x41 PUSH1 0x4 MSTORE PUSH1 0x24 PUSH1 0x0 REVERT JUMPDEST PUSH1 0x0 DUP1 REVERT JUMPDEST PUSH1 0x1F SWAP1 SWAP2 ADD PUSH1 0x1F NOT AND DUP2 ADD SWAP1 PUSH1 0x1 PUSH1 0x1 PUSH1 0x40 SHL SUB DUP3 GT SWAP1 DUP3 LT OR PUSH3 0x264 JUMPI PUSH1 0x40 MSTORE JUMP JUMPDEST PUSH1 0x1 PUSH1 0x1 PUSH1 0x40 SHL SUB DUP2 GT PUSH3 0x264 JUMPI PUSH1 0x1F ADD PUSH1 0x1F NOT AND PUSH1 0x20 ADD SWAP1 JUMP JUMPDEST PUSH1 0x0 JUMPDEST DUP4 DUP2 LT PUSH3 0x2D3 JUMPI POP POP PUSH1 0x0 SWAP2 ADD MSTORE JUMP JUMPDEST DUP2 DUP2 ADD MLOAD DUP4 DUP3 ADD MSTORE PUSH1 0x20 ADD PUSH3 0x2C2 JUMP JUMPDEST PUSH1 0x20 DUP2 MLOAD SWAP2 ADD MLOAD SWAP1 PUSH1 0x20 DUP2 LT PUSH3 0x2F9 JUMPI POP SWAP1 JUMP JUMPDEST PUSH1 0x0 NOT SWAP1 PUSH1 0x20 SUB PUSH1 0x3 SHL SHL AND SWAP1 JUMP JUMPDEST PUSH1 0x0 DUP1 SWAP2 PUSH1 0x40 MLOAD PUSH3 0x358 PUSH1 0x80 DUP3 PUSH1 0x20 DUP2 ADD SWAP5 PUSH1 0x20 DUP7 MSTORE PUSH1 0x40 DUP1 DUP4 ADD MSTORE PUSH3 0x340 DUP2 MLOAD DUP1 SWAP3 DUP2 PUSH1 0x60 DUP7 ADD MSTORE PUSH1 0x20 DUP7 DUP7 ADD SWAP2 ADD PUSH3 0x2BF JUMP JUMPDEST PUSH1 0x1F DUP1 NOT SWAP2 ADD AND DUP2 ADD SUB PUSH1 0x60 DUP2 ADD DUP5 MSTORE ADD DUP3 PUSH3 0x27F JUMP JUMPDEST MLOAD SWAP1 PUSH20 0x100000000000000000000000000000000000001 GAS STATICCALL RETURNDATASIZE ISZERO PUSH3 0x3EE JUMPI RETURNDATASIZE SWAP1 PUSH3 0x385 DUP3 PUSH3 0x2A3 JUMP JUMPDEST SWAP2 PUSH3 0x395 PUSH1 0x40 MLOAD SWAP4 DUP5 PUSH3 0x27F JUMP JUMPDEST DUP3 MSTORE RETURNDATASIZE PUSH1 0x0 PUSH1 0x20 DUP5 ADD RETURNDATACOPY JUMPDEST ISZERO PUSH3 0x3A9 JUMPI SWAP1 JUMP JUMPDEST PUSH1 0x40 MLOAD PUSH3 0x461BCD PUSH1 0xE5 SHL DUP2 MSTORE PUSH1 0x20 PUSH1 0x4 DUP3 ADD MSTORE PUSH1 0x13 PUSH1 0x24 DUP3 ADD MSTORE PUSH32 0x72616E646F6D42797465733A206661696C656400000000000000000000000000 PUSH1 0x44 DUP3 ADD MSTORE PUSH1 0x64 SWAP1 REVERT JUMPDEST PUSH1 0x60 SWAP1 PUSH3 0x3A0 JUMP INVALID PUSH1 0x80 PUSH1 0x40 DUP2 DUP2 MSTORE PUSH1 0x4 SWAP2 DUP3 CALLDATASIZE LT ISZERO PUSH2 0x16 JUMPI PUSH1 0x0 DUP1 REVERT JUMPDEST PUSH1 0x0 SWAP1 PUSH1 0xE0 DUP3 CALLDATALOAD DUP2 SHR SWAP2 DUP3 PUSH4 0x36E0708 EQ PUSH2 0x10E6 JUMPI POP DUP2 PUSH4 0x6FDDE03 EQ PUSH2 0x1011 JUMPI DUP2 PUSH4 0x95EA7B3 EQ PUSH2 0xFD6 JUMPI DUP2 PUSH4 0x18160DDD EQ PUSH2 0xF2D JUMPI DUP2 PUSH4 0x23B872DD EQ PUSH2 0xE54 JUMPI DUP2 PUSH4 0x2495A599 EQ PUSH2 0xE10 JUMPI DUP2 PUSH4 0x313CE567 EQ PUSH2 0xD56 JUMPI DUP2 PUSH4 0x3644E515 EQ PUSH2 0xD1B JUMPI DUP2 PUSH4 0x70A08231 EQ PUSH2 0xCF5 JUMPI DUP2 PUSH4 0x759714D1 EQ PUSH2 0xACC JUMPI DUP2 PUSH4 0x7ECEBE00 EQ PUSH2 0xA94 JUMPI DUP2 PUSH4 0x93355F42 EQ PUSH2 0xA42 JUMPI DUP2 PUSH4 0x95CCEBA2 EQ PUSH2 0x82A JUMPI DUP2 PUSH4 0x95D89B41 EQ PUSH2 0x743 JUMPI DUP2 PUSH4 0xA9059CBB EQ PUSH2 0x701 JUMPI DUP2 PUSH4 0xAE60B787 EQ PUSH2 0x477 JUMPI POP DUP1 PUSH4 0xC53A0292 EQ PUSH2 0x431 JUMPI DUP1 PUSH4 0xCF5855AE EQ PUSH2 0x3C0 JUMPI DUP1 PUSH4 0xDD62ED3E EQ PUSH2 0x361 JUMPI DUP1 PUSH4 0xDE0E9A3E EQ PUSH2 0x26F JUMPI DUP1 PUSH4 0xEA598CB0 EQ PUSH2 0x170 JUMPI PUSH4 0xF2A69C91 EQ PUSH2 0x118 JUMPI PUSH1 0x0 DUP1 REVERT JUMPDEST CALLVALUE PUSH2 0x16D JUMPI POP PUSH2 0x127 CALLDATASIZE PUSH2 0x1230 JUMP JUMPDEST SWAP2 PUSH2 0x131 DUP4 PUSH2 0x167E JUMP JUMPDEST ISZERO PUSH2 0x15F JUMPI POP PUSH1 0x20 SWAP2 DUP3 ADD MLOAD PUSH2 0x158 SWAP1 PUSH2 0x153 SWAP1 PUSH1 0x1 PUSH1 0x1 PUSH1 0xA0 SHL SUB AND PUSH2 0x13DD JUMP JUMPDEST PUSH2 0x151E JUMP JUMPDEST SWAP1 MLOAD SWAP1 DUP2 MSTORE RETURN JUMPDEST SWAP1 MLOAD PUSH4 0x3BFCDEB PUSH1 0xE2 SHL DUP2 MSTORE REVERT JUMPDEST DUP1 REVERT JUMPDEST POP SWAP2 CALLVALUE PUSH2 0x26B JUMPI PUSH1 0x20 CALLDATASIZE PUSH1 0x3 NOT ADD SLT PUSH2 0x26B JUMPI DUP1 CALLDATALOAD SWAP1 PUSH2 0x18E PUSH2 0x1887 JUMP JUMPDEST DUP2 ISZERO PUSH2 0x25D JUMPI DUP3 MLOAD PUSH4 0x23B872DD PUSH1 0xE0 SHL DUP2 MSTORE CALLER SWAP2 DUP2 ADD SWAP2 SWAP1 SWAP2 MSTORE ADDRESS PUSH1 0x24 DUP3 ADD MSTORE PUSH1 0x44 DUP2 ADD DUP3 SWAP1 MSTORE PUSH1 0x20 DUP2 PUSH1 0x64 DUP2 DUP8 PUSH32 0x0 PUSH1 0x1 PUSH1 0x1 PUSH1 0xA0 SHL SUB AND GAS CALL DUP1 ISZERO PUSH2 0x250 JUMPI PUSH2 0x21A SWAP4 POP PUSH2 0x221 JUMPI JUMPDEST POP PUSH2 0x214 PUSH2 0x205 CALLER PUSH2 0x13DD JUMP JUMPDEST SWAP2 PUSH2 0x20F DUP4 PUSH2 0x151E JUMP JUMPDEST PUSH2 0x13D0 JUMP JUMPDEST SWAP1 PUSH2 0x19C4 JUMP JUMPDEST PUSH1 0x1 DUP2 SSTORE DUP1 RETURN JUMPDEST PUSH2 0x242 SWAP1 PUSH1 0x20 RETURNDATASIZE PUSH1 0x20 GT PUSH2 0x249 JUMPI JUMPDEST PUSH2 0x23A DUP2 DUP4 PUSH2 0x120E JUMP JUMPDEST DUP2 ADD SWAP1 PUSH2 0x13B8 JUMP JUMPDEST POP CODESIZE PUSH2 0x1F8 JUMP JUMPDEST POP RETURNDATASIZE PUSH2 0x230 JUMP JUMPDEST POP POP POP MLOAD SWAP1 RETURNDATASIZE SWAP1 DUP3 RETURNDATACOPY RETURNDATASIZE SWAP1 REVERT JUMPDEST DUP3 MLOAD PUSH4 0x1F2A2005 PUSH1 0xE0 SHL DUP2 MSTORE REVERT JUMPDEST DUP3 DUP1 REVERT JUMPDEST POP SWAP2 SWAP1 CALLVALUE PUSH2 0x26B JUMPI PUSH1 0x20 CALLDATASIZE PUSH1 0x3 NOT ADD SLT PUSH2 0x26B JUMPI DUP2 CALLDATALOAD PUSH2 0x28D PUSH2 0x1887 JUMP JUMPDEST DUP1 ISZERO PUSH2 0x353 JUMPI PUSH2 0x29C CALLER PUSH2 0x13DD JUMP JUMPDEST PUSH2 0x2A5 DUP2 PUSH2 0x151E JUMP JUMPDEST DUP3 DUP2 LT PUSH2 0x343 JUMPI SWAP1 PUSH2 0x214 DUP4 PUSH2 0x2BA SWAP4 PUSH2 0x1395 JUMP JUMPDEST DUP2 MLOAD PUSH4 0xA9059CBB PUSH1 0xE0 SHL DUP2 MSTORE CALLER SWAP4 DUP2 ADD SWAP4 SWAP1 SWAP4 MSTORE PUSH1 0x24 DUP4 ADD MSTORE PUSH1 0x20 DUP3 PUSH1 0x44 DUP2 DUP7 PUSH32 0x0 PUSH1 0x1 PUSH1 0x1 PUSH1 0xA0 SHL SUB AND GAS CALL SWAP1 DUP2 ISZERO PUSH2 0x33A JUMPI POP PUSH2 0x31B JUMPI JUMPDEST POP PUSH1 0x1 DUP2 SSTORE DUP1 RETURN JUMPDEST PUSH2 0x333 SWAP1 PUSH1 0x20 RETURNDATASIZE PUSH1 0x20 GT PUSH2 0x249 JUMPI PUSH2 0x23A DUP2 DUP4 PUSH2 0x120E JUMP JUMPDEST POP CODESIZE PUSH2 0x313 JUMP JUMPDEST MLOAD RETURNDATASIZE DUP5 DUP3 RETURNDATACOPY RETURNDATASIZE SWAP1 REVERT JUMPDEST POP POP POP MLOAD PUSH4 0x1E9ACF17 PUSH1 0xE3 SHL DUP2 MSTORE REVERT JUMPDEST POP MLOAD PUSH4 0x1F2A2005 PUSH1 0xE0 SHL DUP2 MSTORE REVERT JUMPDEST POP SWAP1 CALLVALUE PUSH2 0x3BC JUMPI DUP1 PUSH1 0x3 NOT CALLDATASIZE ADD SLT PUSH2 0x3BC JUMPI DUP1 PUSH1 0x20 SWAP3 PUSH2 0x37F PUSH2 0x1156 JUMP JUMPDEST PUSH2 0x399 PUSH2 0x393 PUSH2 0x38D PUSH2 0x1171 JUMP JUMPDEST SWAP3 PUSH2 0x146A JUMP JUMPDEST SWAP2 PUSH2 0x146A JUMP JUMPDEST PUSH1 0x1 PUSH1 0x1 PUSH1 0xA0 SHL SUB SWAP2 DUP3 AND DUP4 MSTORE PUSH1 0x6 DUP7 MSTORE DUP4 DUP4 KECCAK256 SWAP2 AND DUP3 MSTORE DUP5 MSTORE KECCAK256 SLOAD SWAP1 MLOAD SWAP1 DUP2 MSTORE RETURN JUMPDEST POP DUP1 REVERT JUMPDEST POP SWAP2 CALLVALUE PUSH2 0x26B JUMPI PUSH2 0x3D0 CALLDATASIZE PUSH2 0x1230 JUMP JUMPDEST SWAP1 PUSH2 0x3DA DUP3 PUSH2 0x167E JUMP JUMPDEST ISZERO PUSH2 0x423 JUMPI POP PUSH1 0x20 SWAP3 DUP3 SWAP2 PUSH1 0x1 DUP1 PUSH1 0xA0 SHL SUB DUP1 PUSH2 0x409 DUP2 DUP7 PUSH2 0x400 DUP3 DUP12 DUP9 ADD MLOAD AND PUSH2 0x13DD JUMP JUMPDEST SWAP6 ADD MLOAD AND PUSH2 0x146A JUMP JUMPDEST SWAP3 AND DUP4 MSTORE PUSH1 0x6 DUP7 MSTORE DUP4 DUP4 KECCAK256 SWAP2 AND DUP3 MSTORE DUP5 MSTORE KECCAK256 SLOAD SWAP1 MLOAD SWAP1 DUP2 MSTORE RETURN JUMPDEST DUP3 MLOAD PUSH4 0x3BFCDEB PUSH1 0xE2 SHL DUP2 MSTORE REVERT JUMPDEST POP SWAP2 SWAP1 CALLVALUE PUSH2 0x26B JUMPI DUP3 PUSH1 0x3 NOT CALLDATASIZE ADD SLT PUSH2 0x26B JUMPI CALLER DUP4 MSTORE PUSH1 0x3 PUSH1 0x20 MSTORE DUP3 KECCAK256 DUP1 SLOAD SWAP1 SWAP2 PUSH1 0x0 NOT DUP3 EQ PUSH2 0x464 JUMPI POP PUSH1 0x1 ADD SWAP1 SSTORE DUP1 RETURN JUMPDEST PUSH4 0x4E487B71 PUSH1 0xE0 SHL DUP5 MSTORE PUSH1 0x11 SWAP1 MSTORE PUSH1 0x24 DUP4 REVERT JUMPDEST DUP4 DUP6 DUP5 SWAP3 CALLVALUE PUSH2 0x6FD JUMPI PUSH2 0x489 CALLDATASIZE PUSH2 0x1230 JUMP JUMPDEST SWAP1 PUSH2 0x492 PUSH2 0x1887 JUMP JUMPDEST PUSH1 0xC0 DUP3 ADD SWAP2 DUP3 MLOAD SWAP3 PUSH2 0x4A3 DUP5 PUSH2 0x18AA JUMP JUMPDEST POP PUSH1 0x80 DUP3 ADD SWAP5 DUP6 MLOAD TIMESTAMP GT PUSH2 0x6EF JUMPI DUP3 MLOAD PUSH2 0x4BC DUP2 PUSH2 0x1867 JUMP JUMPDEST PUSH2 0x4C5 DUP2 PUSH2 0x1867 JUMP JUMPDEST PUSH1 0x1 SUB PUSH2 0x6E1 JUMPI PUSH1 0xA0 DUP4 ADD SWAP2 DUP3 MLOAD SWAP5 PUSH1 0x20 SWAP8 DUP9 DUP7 ADD SWAP5 PUSH1 0x1 DUP1 PUSH1 0xA0 SHL SUB SWAP8 DUP9 DUP8 MLOAD AND DUP14 MSTORE PUSH1 0x3 DUP12 MSTORE DUP12 DUP14 KECCAK256 SLOAD SUB PUSH2 0x6D1 JUMPI DUP8 SWAP6 SWAP5 SWAP4 SWAP3 DUP12 SWAP3 DUP12 SWAP3 DUP10 MLOAD PUSH2 0x50A DUP2 PUSH2 0x1867 JUMP JUMPDEST PUSH2 0x513 DUP2 PUSH2 0x1867 JUMP JUMPDEST ISZERO PUSH2 0x6B1 JUMPI JUMPDEST PUSH1 0x3 DUP11 MLOAD PUSH2 0x526 DUP2 PUSH2 0x1867 JUMP JUMPDEST PUSH2 0x52F DUP2 PUSH2 0x1867 JUMP JUMPDEST EQ PUSH2 0x677 JUMPI JUMPDEST SWAP1 DUP9 SWAP5 SWAP4 SWAP3 SWAP2 DUP11 MLOAD SWAP2 PUSH2 0x547 DUP4 PUSH2 0x1867 JUMP JUMPDEST DUP7 DUP11 MLOAD AND SWAP12 DUP7 DUP2 ADD SWAP14 DUP15 MLOAD AND SWAP1 PUSH1 0x60 ADD SWAP13 DUP14 MLOAD SWAP3 MLOAD SWAP4 MLOAD SWAP5 DUP9 MLOAD SWAP8 DUP9 ADD SWAP9 PUSH1 0x0 DUP1 MLOAD PUSH1 0x20 PUSH2 0x1D1F DUP4 CODECOPY DUP2 MLOAD SWAP2 MSTORE DUP11 MSTORE PUSH2 0x57F DUP3 PUSH2 0x1867 JUMP JUMPDEST DUP9 ADD MSTORE PUSH1 0x60 DUP8 ADD MSTORE PUSH1 0x80 DUP7 ADD MSTORE PUSH1 0xA0 DUP6 ADD MSTORE PUSH1 0xC0 DUP5 ADD MSTORE DUP2 DUP4 ADD MSTORE DUP2 MSTORE PUSH2 0x5A5 DUP2 PUSH2 0x11B9 JUMP JUMPDEST MLOAD SWAP1 KECCAK256 DUP2 DUP6 MLOAD AND SWAP3 MLOAD SWAP1 DUP12 MLOAD DUP12 DUP2 ADD SWAP2 PUSH2 0x1901 PUSH1 0xF0 SHL DUP4 MSTORE PUSH32 0x0 PUSH1 0x22 DUP4 ADD MSTORE PUSH1 0x42 DUP3 ADD MSTORE PUSH1 0x42 DUP2 MSTORE PUSH2 0x5F5 DUP2 PUSH2 0x11D6 JUMP JUMPDEST MLOAD SWAP1 KECCAK256 SWAP1 DUP12 DUP2 ADD MLOAD PUSH1 0xFF AND SWAP1 DUP12 DUP2 MLOAD SWAP2 ADD MLOAD SWAP2 PUSH2 0x611 SWAP4 PUSH2 0x1C03 JUMP JUMPDEST PUSH2 0x61A SWAP2 PUSH2 0x1C93 JUMP JUMPDEST AND SUB PUSH2 0x669 JUMPI POP SWAP3 PUSH1 0x2 SWAP6 SWAP5 SWAP3 PUSH2 0x645 DUP4 PUSH2 0x63D PUSH2 0x64D SWAP6 PUSH2 0x652 SWAP9 MLOAD AND PUSH2 0x13DD JUMP JUMPDEST SWAP4 MLOAD AND PUSH2 0x146A JUMP JUMPDEST SWAP1 MLOAD SWAP2 PUSH2 0x1914 JUMP JUMPDEST PUSH2 0x18DF JUMP JUMPDEST DUP5 MSTORE MSTORE DUP2 KECCAK256 PUSH1 0x1 PUSH1 0xFF NOT DUP3 SLOAD AND OR SWAP1 SSTORE PUSH1 0x1 DUP2 SSTORE DUP1 RETURN JUMPDEST DUP8 MLOAD PUSH4 0x3BFCDEB PUSH1 0xE2 SHL DUP2 MSTORE REVERT JUMPDEST SWAP3 POP SWAP3 POP SWAP3 SWAP4 SWAP5 SWAP6 POP PUSH1 0x60 DUP8 ADD MLOAD PUSH2 0x6A1 JUMPI DUP8 DUP12 DUP9 ADD MLOAD AND PUSH2 0x6A1 JUMPI DUP8 SWAP6 SWAP5 SWAP4 SWAP3 DUP12 SWAP3 DUP12 SWAP3 PUSH2 0x535 JUMP JUMPDEST DUP11 MLOAD PUSH4 0x291DED61 PUSH1 0xE0 SHL DUP2 MSTORE DUP6 SWAP1 REVERT JUMPDEST SWAP3 POP SWAP3 POP SWAP3 SWAP4 SWAP5 SWAP6 POP PUSH1 0x60 DUP8 ADD MLOAD PUSH2 0x6A1 JUMPI DUP8 SWAP6 SWAP5 SWAP4 SWAP3 DUP12 SWAP3 DUP12 SWAP3 PUSH2 0x519 JUMP JUMPDEST DUP11 MLOAD PUSH4 0x3AB3447F PUSH1 0xE1 SHL DUP2 MSTORE DUP6 SWAP1 REVERT JUMPDEST DUP7 MLOAD PUSH4 0x51055569 PUSH1 0xE0 SHL DUP2 MSTORE REVERT JUMPDEST DUP7 MLOAD PUSH4 0xF87D9271 PUSH1 0xE0 SHL DUP2 MSTORE REVERT JUMPDEST DUP4 DUP1 REVERT JUMPDEST DUP3 DUP5 CALLVALUE PUSH2 0x3BC JUMPI DUP1 PUSH1 0x3 NOT CALLDATASIZE ADD SLT PUSH2 0x3BC JUMPI PUSH1 0x20 SWAP1 PUSH2 0x73C PUSH2 0x721 PUSH2 0x1156 JUMP JUMPDEST PUSH2 0x72A CALLER PUSH2 0x13DD JUMP JUMPDEST PUSH2 0x736 PUSH1 0x24 CALLDATALOAD SWAP3 PUSH2 0x146A JUMP JUMPDEST SWAP1 PUSH2 0x1914 JUMP JUMPDEST MLOAD PUSH1 0x1 DUP2 MSTORE RETURN JUMPDEST DUP3 DUP6 DUP6 CALLVALUE PUSH2 0x26B JUMPI DUP3 PUSH1 0x3 NOT CALLDATASIZE ADD SLT PUSH2 0x26B JUMPI DUP1 MLOAD PUSH4 0x95D89B41 PUSH1 0xE0 SHL DUP2 MSTORE SWAP2 DUP4 SWAP1 DUP4 SWAP1 DUP2 PUSH32 0x0 PUSH1 0x1 PUSH1 0x1 PUSH1 0xA0 SHL SUB AND GAS STATICCALL SWAP2 DUP3 ISZERO PUSH2 0x820 JUMPI DUP4 PUSH2 0x7F7 SWAP5 SWAP4 PUSH2 0x7FB JUMPI JUMPDEST POP POP PUSH2 0x7E5 PUSH1 0x28 DUP3 MLOAD DUP5 PUSH2 0x7C4 DUP3 SWAP7 MLOAD DUP1 SWAP3 PUSH1 0x20 DUP1 DUP7 ADD SWAP2 ADD PUSH2 0x110E JUMP JUMPDEST DUP2 ADD PUSH8 0x2E50726976616379 PUSH1 0xC0 SHL PUSH1 0x20 DUP3 ADD MSTORE SUB PUSH1 0x8 DUP2 ADD DUP6 MSTORE ADD DUP4 PUSH2 0x120E JUMP JUMPDEST MLOAD SWAP2 DUP3 SWAP2 PUSH1 0x20 DUP4 MSTORE PUSH1 0x20 DUP4 ADD SWAP1 PUSH2 0x1131 JUMP JUMPDEST SUB SWAP1 RETURN JUMPDEST PUSH2 0x818 SWAP3 SWAP4 POP RETURNDATASIZE DUP1 SWAP2 DUP4 RETURNDATACOPY PUSH2 0x810 DUP2 DUP4 PUSH2 0x120E JUMP JUMPDEST DUP2 ADD SWAP1 PUSH2 0x12FD JUMP JUMPDEST SWAP1 DUP4 DUP1 PUSH2 0x7A6 JUMP JUMPDEST DUP2 MLOAD RETURNDATASIZE DUP6 DUP3 RETURNDATACOPY RETURNDATASIZE SWAP1 REVERT JUMPDEST DUP4 DUP6 DUP5 SWAP3 CALLVALUE PUSH2 0x6FD JUMPI PUSH2 0x83C CALLDATASIZE PUSH2 0x1230 JUMP JUMPDEST SWAP1 PUSH2 0x845 PUSH2 0x1887 JUMP JUMPDEST PUSH1 0xC0 DUP3 ADD SWAP2 DUP3 MLOAD SWAP3 PUSH2 0x856 DUP5 PUSH2 0x18AA JUMP JUMPDEST POP PUSH1 0x80 DUP3 ADD SWAP5 DUP6 MLOAD TIMESTAMP GT PUSH2 0x6EF JUMPI DUP3 MLOAD PUSH2 0x86F DUP2 PUSH2 0x1867 JUMP JUMPDEST PUSH2 0x878 DUP2 PUSH2 0x1867 JUMP JUMPDEST PUSH1 0x2 SUB PUSH2 0x6E1 JUMPI PUSH1 0xA0 DUP4 ADD SWAP2 DUP3 MLOAD SWAP5 PUSH1 0x20 SWAP8 DUP9 DUP7 ADD SWAP5 PUSH1 0x1 DUP1 PUSH1 0xA0 SHL SUB SWAP8 DUP9 DUP8 MLOAD AND DUP14 MSTORE PUSH1 0x3 DUP12 MSTORE DUP12 DUP14 KECCAK256 SLOAD SUB PUSH2 0x6D1 JUMPI DUP8 SWAP6 SWAP5 SWAP4 SWAP3 DUP12 SWAP3 DUP12 SWAP3 DUP10 MLOAD PUSH2 0x8BD DUP2 PUSH2 0x1867 JUMP JUMPDEST PUSH2 0x8C6 DUP2 PUSH2 0x1867 JUMP JUMPDEST ISZERO PUSH2 0xA22 JUMPI JUMPDEST PUSH1 0x3 DUP11 MLOAD PUSH2 0x8D9 DUP2 PUSH2 0x1867 JUMP JUMPDEST PUSH2 0x8E2 DUP2 PUSH2 0x1867 JUMP JUMPDEST EQ PUSH2 0x9F8 JUMPI JUMPDEST SWAP1 DUP9 SWAP5 SWAP4 SWAP3 SWAP2 DUP11 MLOAD SWAP2 PUSH2 0x8FA DUP4 PUSH2 0x1867 JUMP JUMPDEST DUP7 DUP11 MLOAD AND SWAP12 DUP7 DUP2 ADD SWAP14 DUP15 MLOAD AND SWAP1 PUSH1 0x60 ADD SWAP13 DUP14 MLOAD SWAP3 MLOAD SWAP4 MLOAD SWAP5 DUP9 MLOAD SWAP8 DUP9 ADD SWAP9 PUSH1 0x0 DUP1 MLOAD PUSH1 0x20 PUSH2 0x1D1F DUP4 CODECOPY DUP2 MLOAD SWAP2 MSTORE DUP11 MSTORE PUSH2 0x932 DUP3 PUSH2 0x1867 JUMP JUMPDEST DUP9 ADD MSTORE PUSH1 0x60 DUP8 ADD MSTORE PUSH1 0x80 DUP7 ADD MSTORE PUSH1 0xA0 DUP6 ADD MSTORE PUSH1 0xC0 DUP5 ADD MSTORE DUP2 DUP4 ADD MSTORE DUP2 MSTORE PUSH2 0x958 DUP2 PUSH2 0x11B9 JUMP JUMPDEST MLOAD SWAP1 KECCAK256 DUP2 DUP6 MLOAD AND SWAP3 MLOAD SWAP1 DUP12 MLOAD DUP12 DUP2 ADD SWAP2 PUSH2 0x1901 PUSH1 0xF0 SHL DUP4 MSTORE PUSH32 0x0 PUSH1 0x22 DUP4 ADD MSTORE PUSH1 0x42 DUP3 ADD MSTORE PUSH1 0x42 DUP2 MSTORE PUSH2 0x9A8 DUP2 PUSH2 0x11D6 JUMP JUMPDEST MLOAD SWAP1 KECCAK256 SWAP1 DUP12 DUP2 ADD MLOAD PUSH1 0xFF AND SWAP1 DUP12 DUP2 MLOAD SWAP2 ADD MLOAD SWAP2 PUSH2 0x9C4 SWAP4 PUSH2 0x1C03 JUMP JUMPDEST PUSH2 0x9CD SWAP2 PUSH2 0x1C93 JUMP JUMPDEST AND SUB PUSH2 0x669 JUMPI POP SWAP3 PUSH1 0x2 SWAP6 SWAP5 SWAP3 PUSH2 0x9F0 DUP4 PUSH2 0x63D PUSH2 0x64D SWAP6 PUSH2 0x652 SWAP9 MLOAD AND PUSH2 0x13DD JUMP JUMPDEST SWAP1 MLOAD SWAP2 PUSH2 0x147C JUMP JUMPDEST SWAP3 POP SWAP3 POP SWAP3 SWAP4 SWAP5 SWAP6 POP PUSH1 0x60 DUP8 ADD MLOAD PUSH2 0x6A1 JUMPI DUP8 DUP12 DUP9 ADD MLOAD AND PUSH2 0x6A1 JUMPI DUP8 SWAP6 SWAP5 SWAP4 SWAP3 DUP12 SWAP3 DUP12 SWAP3 PUSH2 0x8E8 JUMP JUMPDEST SWAP3 POP SWAP3 POP SWAP3 SWAP4 SWAP5 SWAP6 POP PUSH1 0x60 DUP8 ADD MLOAD PUSH2 0x6A1 JUMPI DUP8 SWAP6 SWAP5 SWAP4 SWAP3 DUP12 SWAP3 DUP12 SWAP3 PUSH2 0x8CC JUMP JUMPDEST POP POP SWAP2 CALLVALUE PUSH2 0x26B JUMPI PUSH1 0x60 CALLDATASIZE PUSH1 0x3 NOT ADD SLT PUSH2 0x26B JUMPI DUP2 PUSH1 0x20 SWAP4 PUSH2 0xA82 PUSH1 0xFF SWAP4 DUP4 MLOAD SWAP1 PUSH2 0xA6C DUP3 PUSH2 0x1187 JUMP JUMPDEST CALLDATALOAD DUP2 MSTORE PUSH1 0x24 CALLDATALOAD DUP8 DUP3 ADD MSTORE PUSH1 0x44 CALLDATALOAD DUP5 DUP3 ADD MSTORE PUSH2 0x18DF JUMP JUMPDEST DUP2 MSTORE PUSH1 0x2 DUP6 MSTORE KECCAK256 SLOAD AND SWAP1 MLOAD SWAP1 ISZERO ISZERO DUP2 MSTORE RETURN JUMPDEST DUP3 DUP5 CALLVALUE PUSH2 0x3BC JUMPI PUSH1 0x20 CALLDATASIZE PUSH1 0x3 NOT ADD SLT PUSH2 0x3BC JUMPI PUSH1 0x20 SWAP2 DUP2 SWAP1 PUSH1 0x1 PUSH1 0x1 PUSH1 0xA0 SHL SUB PUSH2 0xABC PUSH2 0x1156 JUMP JUMPDEST AND DUP2 MSTORE PUSH1 0x3 DUP5 MSTORE KECCAK256 SLOAD SWAP1 MLOAD SWAP1 DUP2 MSTORE RETURN JUMPDEST SWAP4 SWAP1 POP CALLVALUE PUSH2 0x3BC JUMPI PUSH2 0xADD CALLDATASIZE PUSH2 0x1230 JUMP JUMPDEST SWAP1 PUSH1 0x80 DUP3 ADD SWAP2 DUP3 MLOAD TIMESTAMP GT PUSH2 0xCE6 JUMPI DUP1 MLOAD PUSH2 0xAF6 DUP2 PUSH2 0x1867 JUMP JUMPDEST PUSH2 0xAFF DUP2 PUSH2 0x1867 JUMP JUMPDEST PUSH1 0x3 SUB PUSH2 0xCD7 JUMPI PUSH1 0xA0 DUP2 ADD SWAP6 DUP7 MLOAD SWAP4 PUSH1 0x20 SWAP8 DUP9 DUP5 ADD SWAP6 DUP9 PUSH1 0x1 DUP1 PUSH1 0xA0 SHL SUB SWAP9 DUP10 DUP10 MLOAD AND DUP2 MSTORE PUSH1 0x3 DUP13 MSTORE KECCAK256 SLOAD SUB PUSH2 0xCC7 JUMPI DUP7 SWAP3 DUP9 SWAP3 DUP11 SWAP3 DUP7 MLOAD PUSH2 0xB40 DUP2 PUSH2 0x1867 JUMP JUMPDEST PUSH2 0xB49 DUP2 PUSH2 0x1867 JUMP JUMPDEST ISZERO PUSH2 0xCAD JUMPI JUMPDEST PUSH1 0x3 DUP8 MLOAD PUSH2 0xB5C DUP2 PUSH2 0x1867 JUMP JUMPDEST PUSH2 0xB65 DUP2 PUSH2 0x1867 JUMP JUMPDEST EQ PUSH2 0xC79 JUMPI JUMPDEST SWAP2 PUSH2 0xC47 SWAP4 SWAP2 PUSH2 0xC50 SWAP6 SWAP4 DUP9 MLOAD SWAP2 PUSH2 0xB82 DUP4 PUSH2 0x1867 JUMP JUMPDEST DUP9 DUP13 MLOAD AND DUP10 DUP8 DUP13 ADD MLOAD AND SWAP1 PUSH1 0x60 DUP13 ADD MLOAD SWAP3 MLOAD SWAP4 MLOAD SWAP5 DUP9 MLOAD SWAP8 DUP9 ADD SWAP9 PUSH1 0x0 DUP1 MLOAD PUSH1 0x20 PUSH2 0x1D1F DUP4 CODECOPY DUP2 MLOAD SWAP2 MSTORE DUP11 MSTORE PUSH2 0xBB7 DUP3 PUSH2 0x1867 JUMP JUMPDEST DUP9 ADD MSTORE PUSH1 0x60 DUP8 ADD MSTORE PUSH1 0x80 DUP7 ADD MSTORE PUSH1 0xA0 DUP6 ADD MSTORE PUSH1 0xC0 DUP5 ADD MSTORE DUP2 DUP4 ADD MSTORE DUP2 MSTORE PUSH2 0xBDD DUP2 PUSH2 0x11B9 JUMP JUMPDEST MLOAD SWAP1 KECCAK256 PUSH1 0xC0 DUP5 DUP9 MLOAD AND SWAP6 ADD MLOAD SWAP1 DUP10 MLOAD DUP12 DUP2 ADD SWAP2 PUSH2 0x1901 PUSH1 0xF0 SHL DUP4 MSTORE PUSH32 0x0 PUSH1 0x22 DUP4 ADD MSTORE PUSH1 0x42 DUP3 ADD MSTORE PUSH1 0x42 DUP2 MSTORE PUSH2 0xC30 DUP2 PUSH2 0x11D6 JUMP JUMPDEST MLOAD SWAP1 KECCAK256 SWAP1 PUSH1 0xFF DUP11 DUP3 ADD MLOAD AND DUP12 DUP3 MLOAD SWAP3 ADD MLOAD SWAP3 PUSH2 0x1C03 JUMP JUMPDEST SWAP1 SWAP3 SWAP2 SWAP3 PUSH2 0x1C93 JUMP JUMPDEST AND SUB PUSH2 0xC6B JUMPI POP DUP2 PUSH2 0xC63 SWAP2 MLOAD AND PUSH2 0x13DD JUMP JUMPDEST SWAP2 MLOAD SWAP2 AND DUP2 MSTORE RETURN JUMPDEST DUP4 MLOAD PUSH4 0x3BFCDEB PUSH1 0xE2 SHL DUP2 MSTORE REVERT JUMPDEST SWAP3 POP SWAP3 POP SWAP3 POP PUSH1 0x60 DUP5 ADD MLOAD PUSH2 0xC9D JUMPI DUP7 DUP9 DUP6 ADD MLOAD AND PUSH2 0xC9D JUMPI DUP7 SWAP3 DUP9 SWAP3 DUP11 SWAP3 PUSH2 0xB6B JUMP JUMPDEST DUP8 MLOAD PUSH4 0x291DED61 PUSH1 0xE0 SHL DUP2 MSTORE DUP6 SWAP1 REVERT JUMPDEST SWAP3 POP SWAP3 POP SWAP3 POP PUSH1 0x60 DUP5 ADD MLOAD PUSH2 0xC9D JUMPI DUP7 SWAP3 DUP9 SWAP3 DUP11 SWAP3 PUSH2 0xB4F JUMP JUMPDEST DUP8 MLOAD PUSH4 0x3AB3447F PUSH1 0xE1 SHL DUP2 MSTORE DUP6 SWAP1 REVERT JUMPDEST POP DUP4 MLOAD PUSH4 0x51055569 PUSH1 0xE0 SHL DUP2 MSTORE REVERT JUMPDEST POP DUP4 MLOAD PUSH4 0xF87D9271 PUSH1 0xE0 SHL DUP2 MSTORE REVERT JUMPDEST DUP3 DUP5 CALLVALUE PUSH2 0x3BC JUMPI PUSH1 0x20 CALLDATASIZE PUSH1 0x3 NOT ADD SLT PUSH2 0x3BC JUMPI PUSH1 0x20 SWAP1 PUSH2 0x158 PUSH2 0xD16 PUSH2 0x1156 JUMP JUMPDEST PUSH2 0x135F JUMP JUMPDEST DUP3 DUP5 CALLVALUE PUSH2 0x3BC JUMPI DUP2 PUSH1 0x3 NOT CALLDATASIZE ADD SLT PUSH2 0x3BC JUMPI PUSH1 0x20 SWAP1 MLOAD PUSH32 0x0 DUP2 MSTORE RETURN JUMPDEST POP POP CALLVALUE PUSH2 0x16D JUMPI DUP1 PUSH1 0x3 NOT CALLDATASIZE ADD SLT PUSH2 0x16D JUMPI DUP2 MLOAD PUSH4 0x313CE567 PUSH1 0xE0 SHL DUP2 MSTORE SWAP3 PUSH1 0x20 SWAP1 DUP5 SWAP1 DUP2 PUSH32 0x0 PUSH1 0x1 PUSH1 0x1 PUSH1 0xA0 SHL SUB AND GAS STATICCALL SWAP3 DUP4 ISZERO PUSH2 0xE04 JUMPI DUP2 SWAP4 PUSH2 0xDC2 JUMPI JUMPDEST PUSH1 0x20 DUP5 PUSH1 0xFF DUP6 MLOAD SWAP2 AND DUP2 MSTORE RETURN JUMPDEST SWAP1 SWAP3 POP PUSH1 0x20 DUP2 RETURNDATASIZE PUSH1 0x20 GT PUSH2 0xDFC JUMPI JUMPDEST DUP2 PUSH2 0xDDE PUSH1 0x20 SWAP4 DUP4 PUSH2 0x120E JUMP JUMPDEST DUP2 ADD SUB SLT PUSH2 0x26B JUMPI MLOAD SWAP2 PUSH1 0xFF DUP4 AND DUP4 SUB PUSH2 0x16D JUMPI POP PUSH1 0xFF PUSH1 0x20 PUSH2 0xDB5 JUMP JUMPDEST RETURNDATASIZE SWAP2 POP PUSH2 0xDD1 JUMP JUMPDEST POP SWAP1 MLOAD SWAP1 RETURNDATASIZE SWAP1 DUP3 RETURNDATACOPY RETURNDATASIZE SWAP1 REVERT JUMPDEST DUP3 DUP5 CALLVALUE PUSH2 0x3BC JUMPI DUP2 PUSH1 0x3 NOT CALLDATASIZE ADD SLT PUSH2 0x3BC JUMPI MLOAD PUSH32 0x0 PUSH1 0x1 PUSH1 0x1 PUSH1 0xA0 SHL SUB AND DUP2 MSTORE PUSH1 0x20 SWAP1 RETURN JUMPDEST POP POP SWAP2 CALLVALUE PUSH2 0x26B JUMPI PUSH1 0x60 CALLDATASIZE PUSH1 0x3 NOT ADD SLT PUSH2 0x26B JUMPI PUSH2 0xE70 PUSH2 0x1156 JUMP JUMPDEST SWAP3 PUSH2 0xE79 PUSH2 0x1171 JUMP JUMPDEST PUSH1 0x44 CALLDATALOAD SWAP3 DUP5 PUSH2 0xE99 PUSH2 0xE93 PUSH2 0xE8D CALLER PUSH2 0x13DD JUMP JUMPDEST SWAP9 PUSH2 0x146A JUMP JUMPDEST SWAP4 PUSH2 0x146A JUMP JUMPDEST PUSH1 0x1 PUSH1 0x1 PUSH1 0xA0 SHL SUB DUP5 DUP2 AND DUP7 MSTORE PUSH1 0x6 PUSH1 0x20 SWAP1 DUP2 MSTORE DUP4 DUP8 KECCAK256 SWAP2 DUP11 AND DUP8 MSTORE MSTORE SWAP4 KECCAK256 SLOAD SWAP1 PUSH1 0x0 NOT DUP3 LT PUSH2 0xED2 JUMPI JUMPDEST PUSH1 0x20 DUP7 PUSH2 0x73C DUP8 DUP8 DUP8 PUSH2 0x1914 JUMP JUMPDEST DUP5 DUP3 LT PUSH2 0xEF9 JUMPI POP SWAP1 PUSH2 0xEF0 PUSH1 0x20 SWAP7 DUP6 PUSH2 0x73C SWAP7 SWAP6 SWAP5 SUB SWAP1 DUP4 PUSH2 0x147C JUMP JUMPDEST SWAP1 SWAP2 SWAP3 CODESIZE PUSH2 0xEC4 JUMP JUMPDEST DUP6 MLOAD PUSH4 0x7DC7A0D9 PUSH1 0xE1 SHL DUP2 MSTORE PUSH1 0x1 PUSH1 0x1 PUSH1 0xA0 SHL SUB DUP9 AND SWAP2 DUP2 ADD SWAP2 DUP3 MSTORE PUSH1 0x20 DUP3 ADD SWAP3 SWAP1 SWAP3 MSTORE PUSH1 0x40 DUP2 ADD DUP6 SWAP1 MSTORE DUP2 SWAP1 PUSH1 0x60 ADD SUB SWAP1 REVERT JUMPDEST DUP3 DUP6 DUP6 CALLVALUE PUSH2 0x26B JUMPI DUP3 PUSH1 0x3 NOT CALLDATASIZE ADD SLT PUSH2 0x26B JUMPI DUP1 MLOAD PUSH4 0x70A08231 PUSH1 0xE0 SHL DUP2 MSTORE ADDRESS SWAP3 DUP2 ADD SWAP3 SWAP1 SWAP3 MSTORE PUSH1 0x20 DUP3 PUSH1 0x24 DUP2 PUSH32 0x0 PUSH1 0x1 PUSH1 0x1 PUSH1 0xA0 SHL SUB AND GAS STATICCALL SWAP2 DUP3 ISZERO PUSH2 0x820 JUMPI DUP4 SWAP3 PUSH2 0xF9E JUMPI JUMPDEST PUSH1 0x20 DUP4 DUP4 MLOAD SWAP1 DUP2 MSTORE RETURN JUMPDEST SWAP1 SWAP2 POP PUSH1 0x20 DUP2 RETURNDATASIZE PUSH1 0x20 GT PUSH2 0xFCE JUMPI JUMPDEST DUP2 PUSH2 0xFBA PUSH1 0x20 SWAP4 DUP4 PUSH2 0x120E JUMP JUMPDEST DUP2 ADD SUB SLT PUSH2 0x26B JUMPI PUSH1 0x20 SWAP3 POP MLOAD SWAP1 DUP4 PUSH2 0xF94 JUMP JUMPDEST RETURNDATASIZE SWAP2 POP PUSH2 0xFAD JUMP JUMPDEST DUP3 DUP5 CALLVALUE PUSH2 0x3BC JUMPI DUP1 PUSH1 0x3 NOT CALLDATASIZE ADD SLT PUSH2 0x3BC JUMPI PUSH1 0x20 SWAP1 PUSH2 0x73C PUSH2 0xFF6 PUSH2 0x1156 JUMP JUMPDEST PUSH2 0xFFF CALLER PUSH2 0x13DD JUMP JUMPDEST PUSH2 0x100B PUSH1 0x24 CALLDATALOAD SWAP3 PUSH2 0x146A JUMP JUMPDEST SWAP1 PUSH2 0x147C JUMP JUMPDEST DUP3 DUP6 DUP6 CALLVALUE PUSH2 0x26B JUMPI DUP3 PUSH1 0x3 NOT CALLDATASIZE ADD SLT PUSH2 0x26B JUMPI DUP1 MLOAD PUSH4 0x6FDDE03 PUSH1 0xE0 SHL DUP2 MSTORE SWAP2 DUP4 SWAP1 DUP4 SWAP1 DUP2 PUSH32 0x0 PUSH1 0x1 PUSH1 0x1 PUSH1 0xA0 SHL SUB AND GAS STATICCALL SWAP2 DUP3 ISZERO PUSH2 0x820 JUMPI DUP4 PUSH2 0x7F7 SWAP5 SWAP4 PUSH2 0x10C9 JUMPI JUMPDEST POP POP PUSH2 0x7E5 PUSH1 0x34 DUP3 MLOAD DUP1 SWAP5 PUSH8 0x283934BB30B1BC9 PUSH1 0xC5 SHL PUSH1 0x20 DUP4 ADD MSTORE PUSH2 0x10A4 DUP2 MLOAD DUP1 SWAP3 PUSH1 0x20 PUSH1 0x28 DUP7 ADD SWAP2 ADD PUSH2 0x110E JUMP JUMPDEST DUP2 ADD PUSH12 0x81DDA5D1A08155CD95C9259 PUSH1 0xA2 SHL PUSH1 0x28 DUP3 ADD MSTORE SUB PUSH1 0x14 DUP2 ADD DUP6 MSTORE ADD DUP4 PUSH2 0x120E JUMP JUMPDEST PUSH2 0x10DE SWAP3 SWAP4 POP RETURNDATASIZE DUP1 SWAP2 DUP4 RETURNDATACOPY PUSH2 0x810 DUP2 DUP4 PUSH2 0x120E JUMP JUMPDEST SWAP1 DUP4 DUP1 PUSH2 0x1074 JUMP JUMPDEST DUP4 SWAP1 CALLVALUE PUSH2 0x3BC JUMPI DUP2 PUSH1 0x3 NOT CALLDATASIZE ADD SLT PUSH2 0x3BC JUMPI DUP1 PUSH1 0x0 DUP1 MLOAD PUSH1 0x20 PUSH2 0x1D1F DUP4 CODECOPY DUP2 MLOAD SWAP2 MSTORE PUSH1 0x20 SWAP3 MSTORE RETURN JUMPDEST PUSH1 0x0 JUMPDEST DUP4 DUP2 LT PUSH2 0x1121 JUMPI POP POP PUSH1 0x0 SWAP2 ADD MSTORE JUMP JUMPDEST DUP2 DUP2 ADD MLOAD DUP4 DUP3 ADD MSTORE PUSH1 0x20 ADD PUSH2 0x1111 JUMP JUMPDEST SWAP1 PUSH1 0x20 SWAP2 PUSH2 0x114A DUP2 MLOAD DUP1 SWAP3 DUP2 DUP6 MSTORE DUP6 DUP1 DUP7 ADD SWAP2 ADD PUSH2 0x110E JUMP JUMPDEST PUSH1 0x1F ADD PUSH1 0x1F NOT AND ADD ADD SWAP1 JUMP JUMPDEST PUSH1 0x4 CALLDATALOAD SWAP1 PUSH1 0x1 PUSH1 0x1 PUSH1 0xA0 SHL SUB DUP3 AND DUP3 SUB PUSH2 0x116C JUMPI JUMP JUMPDEST PUSH1 0x0 DUP1 REVERT JUMPDEST PUSH1 0x24 CALLDATALOAD SWAP1 PUSH1 0x1 PUSH1 0x1 PUSH1 0xA0 SHL SUB DUP3 AND DUP3 SUB PUSH2 0x116C JUMPI JUMP JUMPDEST PUSH1 0x60 DUP2 ADD SWAP1 DUP2 LT PUSH8 0xFFFFFFFFFFFFFFFF DUP3 GT OR PUSH2 0x11A3 JUMPI PUSH1 0x40 MSTORE JUMP JUMPDEST PUSH4 0x4E487B71 PUSH1 0xE0 SHL PUSH1 0x0 MSTORE PUSH1 0x41 PUSH1 0x4 MSTORE PUSH1 0x24 PUSH1 0x0 REVERT JUMPDEST PUSH2 0x100 DUP2 ADD SWAP1 DUP2 LT PUSH8 0xFFFFFFFFFFFFFFFF DUP3 GT OR PUSH2 0x11A3 JUMPI PUSH1 0x40 MSTORE JUMP JUMPDEST PUSH1 0x80 DUP2 ADD SWAP1 DUP2 LT PUSH8 0xFFFFFFFFFFFFFFFF DUP3 GT OR PUSH2 0x11A3 JUMPI PUSH1 0x40 MSTORE JUMP JUMPDEST PUSH1 0x20 DUP2 ADD SWAP1 DUP2 LT PUSH8 0xFFFFFFFFFFFFFFFF DUP3 GT OR PUSH2 0x11A3 JUMPI PUSH1 0x40 MSTORE JUMP JUMPDEST SWAP1 PUSH1 0x1F DUP1 NOT SWAP2 ADD AND DUP2 ADD SWAP1 DUP2 LT PUSH8 0xFFFFFFFFFFFFFFFF DUP3 GT OR PUSH2 0x11A3 JUMPI PUSH1 0x40 MSTORE JUMP JUMPDEST PUSH2 0x120 PUSH1 0x3 NOT DUP3 ADD SLT PUSH2 0x116C JUMPI PUSH1 0x40 MLOAD SWAP1 PUSH1 0xE0 DUP3 ADD DUP3 DUP2 LT PUSH8 0xFFFFFFFFFFFFFFFF DUP3 GT OR PUSH2 0x11A3 JUMPI PUSH1 0x40 MSTORE PUSH1 0x4 CALLDATALOAD PUSH1 0x4 DUP2 LT ISZERO PUSH2 0x116C JUMPI DUP3 MSTORE PUSH1 0x1 PUSH1 0x1 PUSH1 0xA0 SHL SUB SWAP1 PUSH1 0x24 CALLDATALOAD DUP3 DUP2 AND DUP2 SUB PUSH2 0x116C JUMPI PUSH1 0x20 DUP5 ADD MSTORE PUSH1 0x44 CALLDATALOAD SWAP2 DUP3 AND DUP3 SUB PUSH2 0x116C JUMPI PUSH1 0x60 SWAP2 PUSH1 0x40 DUP5 ADD MSTORE PUSH1 0x64 CALLDATALOAD DUP3 DUP5 ADD MSTORE PUSH1 0x84 CALLDATALOAD PUSH1 0x80 DUP5 ADD MSTORE PUSH1 0xA4 CALLDATALOAD PUSH1 0xA0 DUP5 ADD MSTORE PUSH1 0xC3 NOT ADD SLT PUSH2 0x116C JUMPI PUSH1 0x40 MLOAD PUSH2 0x12C3 DUP2 PUSH2 0x1187 JUMP JUMPDEST PUSH1 0xC4 CALLDATALOAD DUP2 MSTORE PUSH1 0xE4 CALLDATALOAD PUSH1 0x20 DUP3 ADD MSTORE PUSH2 0x104 CALLDATALOAD PUSH1 0x40 DUP3 ADD MSTORE PUSH1 0xC0 DUP3 ADD MSTORE SWAP1 JUMP JUMPDEST PUSH8 0xFFFFFFFFFFFFFFFF DUP2 GT PUSH2 0x11A3 JUMPI PUSH1 0x1F ADD PUSH1 0x1F NOT AND PUSH1 0x20 ADD SWAP1 JUMP JUMPDEST PUSH1 0x20 DUP2 DUP4 SUB SLT PUSH2 0x116C JUMPI DUP1 MLOAD SWAP1 PUSH8 0xFFFFFFFFFFFFFFFF DUP3 GT PUSH2 0x116C JUMPI ADD DUP2 PUSH1 0x1F DUP3 ADD SLT ISZERO PUSH2 0x116C JUMPI DUP1 MLOAD PUSH2 0x1330 DUP2 PUSH2 0x12E1 JUMP JUMPDEST SWAP3 PUSH2 0x133E PUSH1 0x40 MLOAD SWAP5 DUP6 PUSH2 0x120E JUMP JUMPDEST DUP2 DUP5 MSTORE PUSH1 0x20 DUP3 DUP5 ADD ADD GT PUSH2 0x116C JUMPI PUSH2 0x135C SWAP2 PUSH1 0x20 DUP1 DUP6 ADD SWAP2 ADD PUSH2 0x110E JUMP JUMPDEST SWAP1 JUMP JUMPDEST DUP1 EXTCODESIZE ISZERO DUP1 ISZERO SWAP1 PUSH2 0x1383 JUMPI JUMPDEST PUSH2 0x1377 JUMPI PUSH2 0x135C SWAP1 PUSH2 0x151E JUMP JUMPDEST PUSH2 0x153 PUSH2 0x135C SWAP2 PUSH2 0x13DD JUMP JUMPDEST POP PUSH1 0x1 PUSH1 0x1 PUSH1 0xA0 SHL SUB DUP2 AND CALLER EQ PUSH2 0x136A JUMP JUMPDEST SWAP2 SWAP1 DUP3 SUB SWAP2 DUP3 GT PUSH2 0x13A2 JUMPI JUMP JUMPDEST PUSH4 0x4E487B71 PUSH1 0xE0 SHL PUSH1 0x0 MSTORE PUSH1 0x11 PUSH1 0x4 MSTORE PUSH1 0x24 PUSH1 0x0 REVERT JUMPDEST SWAP1 DUP2 PUSH1 0x20 SWAP2 SUB SLT PUSH2 0x116C JUMPI MLOAD DUP1 ISZERO ISZERO DUP2 SUB PUSH2 0x116C JUMPI SWAP1 JUMP JUMPDEST SWAP2 SWAP1 DUP3 ADD DUP1 SWAP3 GT PUSH2 0x13A2 JUMPI JUMP JUMPDEST PUSH1 0x1 PUSH1 0x1 PUSH1 0xA0 SHL SUB SWAP1 DUP1 DUP3 AND ISZERO PUSH2 0x1458 JUMPI PUSH1 0x1 SLOAD SWAP1 DUP2 ISZERO PUSH2 0x1446 JUMPI PUSH1 0x40 MLOAD SWAP1 PUSH1 0x20 DUP3 ADD SWAP3 PUSH14 0x5669727475616C41646472657373 PUSH1 0x90 SHL DUP5 MSTORE PUSH1 0x2E DUP4 ADD MSTORE PUSH12 0xFFFFFFFFFFFFFFFFFFFFFFFF NOT SWAP1 PUSH1 0x60 SHL AND PUSH1 0x4E DUP3 ADD MSTORE PUSH1 0x42 DUP2 MSTORE PUSH2 0x143F DUP2 PUSH2 0x11D6 JUMP JUMPDEST MLOAD SWAP1 KECCAK256 AND SWAP1 JUMP JUMPDEST PUSH1 0x40 MLOAD PUSH4 0x7145E311 PUSH1 0xE0 SHL DUP2 MSTORE PUSH1 0x4 SWAP1 REVERT JUMPDEST PUSH1 0x40 MLOAD PUSH4 0xD92E233D PUSH1 0xE0 SHL DUP2 MSTORE PUSH1 0x4 SWAP1 REVERT JUMPDEST DUP1 EXTCODESIZE PUSH2 0x1473 JUMPI SWAP1 JUMP JUMPDEST PUSH2 0x135C SWAP1 PUSH2 0x13DD JUMP JUMPDEST PUSH1 0x1 PUSH1 0x1 PUSH1 0xA0 SHL SUB SWAP1 DUP2 AND SWAP2 DUP3 ISZERO PUSH2 0x14CB JUMPI AND SWAP1 DUP2 ISZERO PUSH2 0x14B2 JUMPI PUSH1 0x0 MSTORE PUSH1 0x6 PUSH1 0x20 MSTORE PUSH1 0x40 PUSH1 0x0 KECCAK256 SWAP1 PUSH1 0x0 MSTORE PUSH1 0x20 MSTORE PUSH1 0x40 PUSH1 0x0 KECCAK256 SSTORE JUMP JUMPDEST PUSH1 0x40 MLOAD PUSH4 0x4A1406B1 PUSH1 0xE1 SHL DUP2 MSTORE PUSH1 0x0 PUSH1 0x4 DUP3 ADD MSTORE PUSH1 0x24 SWAP1 REVERT JUMPDEST PUSH1 0x40 MLOAD PUSH4 0xE602DF05 PUSH1 0xE0 SHL DUP2 MSTORE PUSH1 0x0 PUSH1 0x4 DUP3 ADD MSTORE PUSH1 0x24 SWAP1 REVERT JUMPDEST SWAP1 PUSH1 0x1 DUP3 DUP2 SHR SWAP3 AND DUP1 ISZERO PUSH2 0x1514 JUMPI JUMPDEST PUSH1 0x20 DUP4 LT EQ PUSH2 0x14FE JUMPI JUMP JUMPDEST PUSH4 0x4E487B71 PUSH1 0xE0 SHL PUSH1 0x0 MSTORE PUSH1 0x22 PUSH1 0x4 MSTORE PUSH1 0x24 PUSH1 0x0 REVERT JUMPDEST SWAP2 PUSH1 0x7F AND SWAP2 PUSH2 0x14F3 JUMP JUMPDEST PUSH1 0x0 SWAP1 PUSH1 0x1 DUP1 PUSH1 0xA0 SHL SUB AND DUP2 MSTORE PUSH1 0x20 SWAP1 PUSH1 0x5 DUP3 MSTORE PUSH1 0x40 DUP2 KECCAK256 PUSH1 0x40 MLOAD SWAP1 DUP2 DUP4 DUP3 SLOAD PUSH2 0x1547 DUP2 PUSH2 0x14E4 JUMP JUMPDEST SWAP4 DUP5 DUP5 MSTORE PUSH1 0x1 SWAP2 DUP9 PUSH1 0x1 DUP3 AND SWAP2 DUP3 PUSH1 0x0 EQ PUSH2 0x165C JUMPI POP POP PUSH1 0x1 EQ PUSH2 0x1620 JUMPI JUMPDEST POP POP PUSH2 0x1574 SWAP3 POP SUB DUP3 PUSH2 0x120E JUMP JUMPDEST DUP1 MLOAD ISZERO PUSH2 0x161A JUMPI DUP2 DUP1 SWAP2 PUSH1 0x4 SLOAD SWAP1 PUSH2 0x15B6 PUSH1 0x40 MLOAD SWAP2 PUSH2 0x1592 DUP4 PUSH2 0x11F2 JUMP JUMPDEST DUP5 DUP4 MSTORE PUSH2 0x15A8 PUSH1 0x40 MLOAD SWAP4 DUP5 SWAP3 DUP11 DUP5 ADD SWAP7 DUP8 PUSH2 0x1BA1 JUMP JUMPDEST SUB PUSH1 0x1F NOT DUP2 ADD DUP4 MSTORE DUP3 PUSH2 0x120E JUMP JUMPDEST MLOAD SWAP1 PUSH1 0x4 PUSH1 0x1 PUSH1 0x98 SHL ADD GAS STATICCALL SWAP1 PUSH2 0x15CB PUSH2 0x1BD3 JUMP JUMPDEST SWAP2 ISZERO PUSH2 0x15E3 JUMPI DUP3 DUP3 DUP1 MLOAD DUP2 ADD SUB SLT PUSH2 0x16D JUMPI POP ADD MLOAD SWAP1 JUMP JUMPDEST PUSH1 0x40 MLOAD PUSH3 0x461BCD PUSH1 0xE5 SHL DUP2 MSTORE PUSH1 0x4 DUP2 ADD DUP5 SWAP1 MSTORE PUSH1 0xF PUSH1 0x24 DUP3 ADD MSTORE PUSH15 0x191958DC9E5C1D0E8819985A5B1959 PUSH1 0x8A SHL PUSH1 0x44 DUP3 ADD MSTORE PUSH1 0x64 SWAP1 REVERT JUMPDEST POP SWAP1 POP SWAP1 JUMP JUMPDEST DUP8 SWAP3 POP DUP7 MSTORE DUP2 DUP7 KECCAK256 SWAP1 DUP7 SWAP2 JUMPDEST DUP6 DUP4 LT PUSH2 0x1644 JUMPI POP POP PUSH2 0x1574 SWAP4 POP DUP3 ADD ADD CODESIZE DUP1 PUSH2 0x1566 JUMP JUMPDEST DUP1 SLOAD DUP4 DUP9 ADD DUP6 ADD MSTORE DUP7 SWAP5 POP DUP9 SWAP4 SWAP1 SWAP3 ADD SWAP2 DUP2 ADD PUSH2 0x162C JUMP JUMPDEST SWAP3 POP SWAP4 POP POP PUSH2 0x1574 SWAP5 SWAP2 POP PUSH1 0xFF NOT AND DUP3 DUP5 ADD MSTORE ISZERO ISZERO PUSH1 0x5 SHL DUP3 ADD ADD CODESIZE DUP1 PUSH2 0x1566 JUMP JUMPDEST PUSH1 0x80 DUP2 ADD DUP1 MLOAD TIMESTAMP GT PUSH2 0x1855 JUMPI DUP2 MLOAD PUSH2 0x1695 DUP2 PUSH2 0x1867 JUMP JUMPDEST PUSH2 0x169E DUP2 PUSH2 0x1867 JUMP JUMPDEST PUSH2 0x1843 JUMPI PUSH1 0xA0 DUP3 ADD DUP1 MLOAD SWAP1 PUSH1 0x20 DUP5 ADD SWAP1 PUSH1 0x1 DUP1 PUSH1 0xA0 SHL SUB SWAP4 DUP5 DUP4 MLOAD AND PUSH1 0x0 MSTORE PUSH1 0x3 PUSH1 0x20 MSTORE PUSH1 0x40 SWAP4 DUP5 PUSH1 0x0 KECCAK256 SLOAD SUB PUSH2 0x1832 JUMPI SWAP1 DUP5 SWAP2 DUP7 MLOAD PUSH2 0x16DD DUP2 PUSH2 0x1867 JUMP JUMPDEST PUSH2 0x16E6 DUP2 PUSH2 0x1867 JUMP JUMPDEST ISZERO PUSH2 0x181E JUMPI JUMPDEST PUSH1 0x3 DUP8 MLOAD PUSH2 0x16F9 DUP2 PUSH2 0x1867 JUMP JUMPDEST PUSH2 0x1702 DUP2 PUSH2 0x1867 JUMP JUMPDEST EQ PUSH2 0x17EF JUMPI JUMPDEST PUSH1 0xC0 PUSH2 0x17EA SWAP6 SWAP4 PUSH2 0xC47 SWAP6 SWAP4 PUSH1 0xFF SWAP4 DUP11 DUP1 MLOAD SWAP3 PUSH2 0x1724 DUP5 PUSH2 0x1867 JUMP JUMPDEST DUP5 DUP9 MLOAD AND SWAP3 PUSH1 0x60 DUP7 DUP12 DUP6 ADD MLOAD AND SWAP4 ADD MLOAD SWAP1 MLOAD SWAP2 MLOAD SWAP3 DUP11 MLOAD SWAP5 PUSH1 0x20 DUP7 ADD SWAP7 PUSH1 0x0 DUP1 MLOAD PUSH1 0x20 PUSH2 0x1D1F DUP4 CODECOPY DUP2 MLOAD SWAP2 MSTORE DUP9 MSTORE PUSH2 0x175B DUP2 PUSH2 0x1867 JUMP JUMPDEST DUP13 DUP8 ADD MSTORE PUSH1 0x60 DUP7 ADD MSTORE PUSH1 0x80 DUP6 ADD MSTORE PUSH1 0xA0 DUP5 ADD MSTORE DUP6 DUP4 ADD MSTORE PUSH1 0xE0 DUP3 ADD MSTORE PUSH1 0xE0 DUP2 MSTORE PUSH2 0x1784 DUP2 PUSH2 0x11B9 JUMP JUMPDEST MLOAD SWAP1 KECCAK256 SWAP4 MLOAD AND SWAP8 ADD MLOAD SWAP2 DUP4 MLOAD PUSH1 0x20 DUP2 ADD SWAP2 PUSH2 0x1901 PUSH1 0xF0 SHL DUP4 MSTORE PUSH32 0x0 PUSH1 0x22 DUP4 ADD MSTORE PUSH1 0x42 DUP3 ADD MSTORE PUSH1 0x42 DUP2 MSTORE PUSH2 0x17D5 DUP2 PUSH2 0x11D6 JUMP JUMPDEST MLOAD SWAP1 KECCAK256 SWAP3 DUP3 ADD MLOAD AND PUSH1 0x20 DUP3 MLOAD SWAP3 ADD MLOAD SWAP3 PUSH2 0x1C03 JUMP JUMPDEST AND EQ SWAP1 JUMP JUMPDEST SWAP1 SWAP2 POP PUSH1 0x60 DUP7 ADD MLOAD PUSH2 0x180D JUMPI DUP5 DUP5 DUP8 ADD MLOAD AND PUSH2 0x180D JUMPI SWAP1 DUP5 SWAP2 PUSH2 0x1708 JUMP JUMPDEST DUP4 MLOAD PUSH4 0x291DED61 PUSH1 0xE0 SHL DUP2 MSTORE PUSH1 0x4 SWAP1 REVERT JUMPDEST SWAP1 SWAP2 POP PUSH1 0x60 DUP7 ADD MLOAD PUSH2 0x180D JUMPI SWAP1 DUP5 SWAP2 PUSH2 0x16EC JUMP JUMPDEST DUP4 MLOAD PUSH4 0x3AB3447F PUSH1 0xE1 SHL DUP2 MSTORE PUSH1 0x4 SWAP1 REVERT JUMPDEST PUSH1 0x40 MLOAD PUSH4 0x51055569 PUSH1 0xE0 SHL DUP2 MSTORE PUSH1 0x4 SWAP1 REVERT JUMPDEST PUSH1 0x40 MLOAD PUSH4 0xF87D9271 PUSH1 0xE0 SHL DUP2 MSTORE PUSH1 0x4 SWAP1 REVERT JUMPDEST PUSH1 0x4 GT ISZERO PUSH2 0x1871 JUMPI JUMP JUMPDEST PUSH4 0x4E487B71 PUSH1 0xE0 SHL PUSH1 0x0 MSTORE PUSH1 0x21 PUSH1 0x4 MSTORE PUSH1 0x24 PUSH1 0x0 REVERT JUMPDEST PUSH1 0x2 PUSH1 0x0 SLOAD EQ PUSH2 0x1898 JUMPI PUSH1 0x2 PUSH1 0x0 SSTORE JUMP JUMPDEST PUSH1 0x40 MLOAD PUSH4 0x3EE5AEB5 PUSH1 0xE0 SHL DUP2 MSTORE PUSH1 0x4 SWAP1 REVERT JUMPDEST PUSH2 0x18B3 SWAP1 PUSH2 0x18DF JUMP JUMPDEST PUSH1 0x0 MSTORE PUSH1 0x2 PUSH1 0x20 MSTORE PUSH1 0xFF PUSH1 0x40 PUSH1 0x0 KECCAK256 SLOAD AND PUSH2 0x18CD JUMPI PUSH1 0x0 SWAP1 JUMP JUMPDEST PUSH1 0x40 MLOAD PUSH4 0x8BAA579F PUSH1 0xE0 SHL DUP2 MSTORE PUSH1 0x4 SWAP1 REVERT JUMPDEST DUP1 MLOAD SWAP1 PUSH1 0x40 PUSH1 0x20 DUP3 ADD MLOAD SWAP2 ADD MLOAD PUSH1 0x40 MLOAD SWAP2 PUSH1 0x20 DUP4 ADD SWAP4 DUP5 MSTORE PUSH1 0x40 DUP4 ADD MSTORE PUSH1 0x60 DUP3 ADD MSTORE PUSH1 0x60 DUP2 MSTORE PUSH2 0x190E DUP2 PUSH2 0x11D6 JUMP JUMPDEST MLOAD SWAP1 KECCAK256 SWAP1 JUMP JUMPDEST SWAP3 SWAP2 PUSH1 0x1 PUSH1 0x1 PUSH1 0xA0 SHL SUB DUP1 DUP6 AND ISZERO PUSH2 0x19AB JUMPI DUP3 AND ISZERO PUSH2 0x1992 JUMPI PUSH2 0x1936 DUP5 PUSH2 0x151E JUMP JUMPDEST SWAP4 DUP2 DUP6 LT PUSH2 0x1960 JUMPI SWAP1 PUSH2 0x195E SWAP4 SWAP5 PUSH2 0x20F PUSH2 0x214 SWAP4 PUSH2 0x214 DUP5 PUSH2 0x1958 DUP9 PUSH2 0x151E JUMP JUMPDEST SWAP5 PUSH2 0x1395 JUMP JUMPDEST JUMP JUMPDEST PUSH1 0x40 MLOAD PUSH4 0x391434E3 PUSH1 0xE2 SHL DUP2 MSTORE PUSH1 0x1 PUSH1 0x1 PUSH1 0xA0 SHL SUB SWAP2 SWAP1 SWAP2 AND PUSH1 0x4 DUP3 ADD MSTORE PUSH1 0x24 DUP2 ADD DUP6 SWAP1 MSTORE PUSH1 0x44 DUP2 ADD SWAP2 SWAP1 SWAP2 MSTORE PUSH1 0x64 SWAP1 REVERT JUMPDEST PUSH1 0x40 MLOAD PUSH4 0xEC442F05 PUSH1 0xE0 SHL DUP2 MSTORE PUSH1 0x0 PUSH1 0x4 DUP3 ADD MSTORE PUSH1 0x24 SWAP1 REVERT JUMPDEST PUSH1 0x40 MLOAD PUSH4 0x4B637E8F PUSH1 0xE1 SHL DUP2 MSTORE PUSH1 0x0 PUSH1 0x4 DUP3 ADD MSTORE PUSH1 0x24 SWAP1 REVERT JUMPDEST SWAP2 SWAP1 SWAP2 PUSH1 0x40 DUP1 MLOAD SWAP2 PUSH1 0x20 SWAP5 DUP6 DUP5 ADD MSTORE DUP5 DUP4 MSTORE DUP2 DUP4 ADD SWAP1 PUSH8 0xFFFFFFFFFFFFFFFF SWAP3 DUP5 DUP4 LT DUP5 DUP5 GT OR PUSH2 0x11A3 JUMPI DUP3 DUP2 MSTORE PUSH1 0x4 SLOAD SWAP5 PUSH2 0x19FF DUP5 PUSH2 0x11F2 JUMP JUMPDEST PUSH1 0x0 DUP1 SWAP7 DUP2 SWAP3 DUP3 DUP8 MSTORE PUSH2 0x1A1A DUP6 MLOAD SWAP8 DUP9 SWAP3 DUP14 DUP5 ADD SWAP5 DUP6 PUSH2 0x1BA1 JUMP JUMPDEST SUB SWAP6 PUSH2 0x1A2E PUSH1 0x1F NOT SWAP8 DUP9 DUP2 ADD DUP4 MSTORE DUP3 PUSH2 0x120E JUMP JUMPDEST MLOAD SWAP1 PUSH1 0x3 PUSH1 0x1 PUSH1 0x98 SHL ADD GAS STATICCALL SWAP2 PUSH2 0x1A43 PUSH2 0x1BD3 JUMP JUMPDEST SWAP3 ISZERO PUSH2 0x1B6B JUMPI PUSH1 0x1 PUSH1 0x1 PUSH1 0xA0 SHL SUB AND DUP6 MSTORE PUSH1 0x5 DUP8 MSTORE DUP5 KECCAK256 DUP2 MLOAD SWAP1 SWAP5 SWAP1 SWAP4 DUP5 GT PUSH2 0x1B57 JUMPI PUSH2 0x1A70 DUP6 SLOAD PUSH2 0x14E4 JUMP JUMPDEST PUSH1 0x1F DUP2 GT PUSH2 0x1B14 JUMPI JUMPDEST POP DUP7 SWAP3 PUSH1 0x1F DUP6 GT PUSH1 0x1 EQ PUSH2 0x1AB4 JUMPI POP DUP4 SWAP5 SWAP6 SWAP7 POP SWAP3 PUSH2 0x1AA9 JUMPI JUMPDEST POP POP DUP2 PUSH1 0x1 SHL SWAP2 PUSH1 0x0 NOT SWAP1 PUSH1 0x3 SHL SHR NOT AND OR SWAP1 SSTORE JUMP JUMPDEST ADD MLOAD SWAP1 POP CODESIZE DUP1 PUSH2 0x1A93 JUMP JUMPDEST DUP5 SWAP4 SWAP3 SWAP2 SWAP4 AND SWAP7 DUP6 DUP5 MSTORE DUP1 DUP5 KECCAK256 SWAP4 SWAP1 JUMPDEST DUP9 DUP3 LT PUSH2 0x1AFC JUMPI POP POP DUP4 PUSH1 0x1 SWAP6 SWAP7 SWAP8 LT PUSH2 0x1AE3 JUMPI JUMPDEST POP POP POP DUP2 SHL ADD SWAP1 SSTORE JUMP JUMPDEST ADD MLOAD PUSH1 0x0 NOT PUSH1 0xF8 DUP5 PUSH1 0x3 SHL AND SHR NOT AND SWAP1 SSTORE CODESIZE DUP1 DUP1 PUSH2 0x1AD9 JUMP JUMPDEST DUP1 PUSH1 0x1 DUP6 SWAP7 DUP3 SWAP5 SWAP7 DUP7 ADD MLOAD DUP2 SSTORE ADD SWAP6 ADD SWAP4 ADD SWAP1 PUSH2 0x1AC4 JUMP JUMPDEST DUP6 DUP3 MSTORE DUP8 DUP3 KECCAK256 PUSH1 0x1F DUP7 ADD PUSH1 0x5 SHR DUP2 ADD SWAP2 DUP10 DUP8 LT PUSH2 0x1B4D JUMPI JUMPDEST PUSH1 0x1F ADD PUSH1 0x5 SHR ADD SWAP1 JUMPDEST DUP2 DUP2 LT PUSH2 0x1B42 JUMPI POP PUSH2 0x1A79 JUMP JUMPDEST DUP3 DUP2 SSTORE PUSH1 0x1 ADD PUSH2 0x1B35 JUMP JUMPDEST SWAP1 SWAP2 POP DUP2 SWAP1 PUSH2 0x1B2C JUMP JUMPDEST PUSH4 0x4E487B71 PUSH1 0xE0 SHL DUP2 MSTORE PUSH1 0x41 PUSH1 0x4 MSTORE PUSH1 0x24 SWAP1 REVERT JUMPDEST DUP2 MLOAD PUSH3 0x461BCD PUSH1 0xE5 SHL DUP2 MSTORE PUSH1 0x4 DUP2 ADD DUP10 SWAP1 MSTORE PUSH1 0xF PUSH1 0x24 DUP3 ADD MSTORE PUSH15 0x195B98DC9E5C1D0E8819985A5B1959 PUSH1 0x8A SHL PUSH1 0x44 DUP3 ADD MSTORE PUSH1 0x64 SWAP1 REVERT JUMPDEST SWAP2 PUSH2 0x1BC5 SWAP1 PUSH2 0x135C SWAP5 SWAP3 PUSH1 0x0 DUP6 MSTORE PUSH1 0x20 DUP6 ADD MSTORE PUSH1 0x80 PUSH1 0x40 DUP6 ADD MSTORE PUSH1 0x80 DUP5 ADD SWAP1 PUSH2 0x1131 JUMP JUMPDEST SWAP2 PUSH1 0x60 DUP2 DUP5 SUB SWAP2 ADD MSTORE PUSH2 0x1131 JUMP JUMPDEST RETURNDATASIZE ISZERO PUSH2 0x1BFE JUMPI RETURNDATASIZE SWAP1 PUSH2 0x1BE4 DUP3 PUSH2 0x12E1 JUMP JUMPDEST SWAP2 PUSH2 0x1BF2 PUSH1 0x40 MLOAD SWAP4 DUP5 PUSH2 0x120E JUMP JUMPDEST DUP3 MSTORE RETURNDATASIZE PUSH1 0x0 PUSH1 0x20 DUP5 ADD RETURNDATACOPY JUMP JUMPDEST PUSH1 0x60 SWAP1 JUMP JUMPDEST SWAP2 SWAP1 PUSH32 0x7FFFFFFFFFFFFFFFFFFFFFFFFFFFFFFF5D576E7357A4501DDFE92F46681B20A0 DUP5 GT PUSH2 0x1C87 JUMPI SWAP3 PUSH1 0x20 SWAP3 SWAP2 PUSH1 0xFF PUSH1 0x80 SWAP6 PUSH1 0x40 MLOAD SWAP5 DUP6 MSTORE AND DUP5 DUP5 ADD MSTORE PUSH1 0x40 DUP4 ADD MSTORE PUSH1 0x60 DUP3 ADD MSTORE PUSH1 0x0 SWAP3 DUP4 SWAP2 DUP3 DUP1 MSTORE PUSH1 0x1 GAS STATICCALL ISZERO PUSH2 0x1C7B JUMPI DUP1 MLOAD PUSH1 0x1 PUSH1 0x1 PUSH1 0xA0 SHL SUB DUP2 AND ISZERO PUSH2 0x1C72 JUMPI SWAP2 DUP2 SWAP1 JUMP JUMPDEST POP DUP1 SWAP2 PUSH1 0x1 SWAP2 SWAP1 JUMP JUMPDEST PUSH1 0x40 MLOAD SWAP1 RETURNDATASIZE SWAP1 DUP3 RETURNDATACOPY RETURNDATASIZE SWAP1 REVERT JUMPDEST POP POP POP PUSH1 0x0 SWAP2 PUSH1 0x3 SWAP2 SWAP1 JUMP JUMPDEST PUSH2 0x1C9C DUP2 PUSH2 0x1867 JUMP JUMPDEST DUP1 PUSH2 0x1CA5 JUMPI POP POP JUMP JUMPDEST PUSH2 0x1CAE DUP2 PUSH2 0x1867 JUMP JUMPDEST PUSH1 0x1 DUP2 SUB PUSH2 0x1CC8 JUMPI PUSH1 0x40 MLOAD PUSH4 0xF645EEDF PUSH1 0xE0 SHL DUP2 MSTORE PUSH1 0x4 SWAP1 REVERT JUMPDEST PUSH2 0x1CD1 DUP2 PUSH2 0x1867 JUMP JUMPDEST PUSH1 0x2 DUP2 SUB PUSH2 0x1CF2 JUMPI PUSH1 0x40 MLOAD PUSH4 0xFCE698F7 PUSH1 0xE0 SHL DUP2 MSTORE PUSH1 0x4 DUP2 ADD DUP4 SWAP1 MSTORE PUSH1 0x24 SWAP1 REVERT JUMPDEST DUP1 PUSH2 0x1CFE PUSH1 0x3 SWAP3 PUSH2 0x1867 JUMP JUMPDEST EQ PUSH2 0x1D06 JUMPI POP JUMP JUMPDEST PUSH1 0x24 SWAP1 PUSH1 0x40 MLOAD SWAP1 PUSH4 0x35E2F383 PUSH1 0xE2 SHL DUP3 MSTORE PUSH1 0x4 DUP3 ADD MSTORE REVERT INVALID 0x2B PUSH7 0x64E80547178739 SLOAD 0xD7 0xCA PUSH20 0x48079FE06E7CAF155F60944C3A4B3DCF2FABB3A2 PUSH5 0x6970667358 0x22 SLT KECCAK256 0xB0 0xEA REVERT 0xF8 PUSH28 0x2538B40E2F730C8EC86C61A8492FFC301672F7B2B5F1A51FDF595F64 PUSH20 0x6F6C634300081800330000000000000000000000 "
        },
        "methodIdentifiers": {
          "DOMAIN_SEPARATOR()": "3644e515",
          "EIP_PERMIT_TYPEHASH()": "036e0708",
          "allowance(address,address)": "dd62ed3e",
          "allowanceWithPermit((uint8,address,address,uint256,uint256,uint256,(bytes32,bytes32,uint256)))": "cf5855ae",
          "approve(address,uint256)": "095ea7b3",
          "approveWithPermit((uint8,address,address,uint256,uint256,uint256,(bytes32,bytes32,uint256)))": "95cceba2",
          "balanceOf(address)": "70a08231",
          "balanceOfWithPermit((uint8,address,address,uint256,uint256,uint256,(bytes32,bytes32,uint256)))": "f2a69c91",
          "decimals()": "313ce567",
          "getMyVirtualAddress((uint8,address,address,uint256,uint256,uint256,(bytes32,bytes32,uint256)))": "759714d1",
          "increaseNonce()": "c53a0292",
          "isSignatureUsed((bytes32,bytes32,uint256))": "93355f42",
          "name()": "06fdde03",
          "nonces(address)": "7ecebe00",
          "symbol()": "95d89b41",
          "totalSupply()": "18160ddd",
          "transfer(address,uint256)": "a9059cbb",
          "transferFrom(address,address,uint256)": "23b872dd",
          "transferWithPermit((uint8,address,address,uint256,uint256,uint256,(bytes32,bytes32,uint256)))": "ae60b787",
          "underlyingToken()": "2495a599",
          "unwrap(uint256)": "de0e9a3e",
          "wrap(uint256)": "ea598cb0"
        }
      },
      "storageLayout": {
        "storage": [
          {
            "astId": 1407,
            "contract": "contracts/PrivacyERC20.sol:PrivacyERC20",
            "label": "_status",
            "offset": 0,
            "slot": "0",
            "type": "t_uint256"
          },
          {
            "astId": 2573,
            "contract": "contracts/PrivacyERC20.sol:PrivacyERC20",
            "label": "_identitySalt",
            "offset": 0,
            "slot": "1",
            "type": "t_bytes32"
          },
          {
            "astId": 2699,
            "contract": "contracts/PrivacyERC20.sol:PrivacyERC20",
            "label": "_usedSignatures",
            "offset": 0,
            "slot": "2",
            "type": "t_mapping(t_bytes32,t_bool)"
          },
          {
            "astId": 2703,
            "contract": "contracts/PrivacyERC20.sol:PrivacyERC20",
            "label": "_nonces",
            "offset": 0,
            "slot": "3",
            "type": "t_mapping(t_address,t_uint256)"
          },
          {
            "astId": 3026,
            "contract": "contracts/PrivacyERC20.sol:PrivacyERC20",
            "label": "_globalNonce",
            "offset": 0,
            "slot": "4",
            "type": "t_bytes32"
          },
          {
            "astId": 3030,
            "contract": "contracts/PrivacyERC20.sol:PrivacyERC20",
            "label": "_encryptedBalances",
            "offset": 0,
            "slot": "5",
            "type": "t_mapping(t_address,t_bytes_storage)"
          },
          {
            "astId": 3036,
            "contract": "contracts/PrivacyERC20.sol:PrivacyERC20",
            "label": "_allowances",
            "offset": 0,
            "slot": "6",
            "type": "t_mapping(t_address,t_mapping(t_address,t_uint256))"
          }
        ],
        "types": {
          "t_address": {
            "encoding": "inplace",
            "label": "address",
            "numberOfBytes": "20"
          },
          "t_bool": {
            "encoding": "inplace",
            "label": "bool",
            "numberOfBytes": "1"
          },
          "t_bytes32": {
            "encoding": "inplace",
            "label": "bytes32",
            "numberOfBytes": "32"
          },
          "t_bytes_storage": {
            "encoding": "bytes",
            "label": "bytes",
            "numberOfBytes": "32"
          },
          "t_mapping(t_address,t_bytes_storage)": {
            "encoding": "mapping",
            "key": "t_address",
            "label": "mapping(address => bytes)",
            "numberOfBytes": "32",
            "value": "t_bytes_storage"
          },
          "t_mapping(t_address,t_mapping(t_address,t_uint256))": {
            "encoding": "mapping",
            "key": "t_address",
            "label": "mapping(address => mapping(address => uint256))",
            "numberOfBytes": "32",
            "value": "t_mapping(t_address,t_uint256)"
          },
          "t_mapping(t_address,t_uint256)": {
            "encoding": "mapping",
            "key": "t_address",
            "label": "mapping(address => uint256)",
            "numberOfBytes": "32",
            "value": "t_uint256"
          },
          "t_mapping(t_bytes32,t_bool)": {
            "encoding": "mapping",
            "key": "t_bytes32",
            "label": "mapping(bytes32 => bool)",
            "numberOfBytes": "32",
            "value": "t_bool"
          },
          "t_uint256": {
            "encoding": "inplace",
            "label": "uint256",
            "numberOfBytes": "32"
          }
        }
      }
    }
  }
}