{
  "contracts/PrivacyWROSE.sol": {
    "PrivacyWROSE": {
      "abi": [
        {
          "inputs": [
            {
              "internalType": "address",
              "name": "underlyingToken_",
              "type": "address"
            },
            {
              "internalType": "bytes",
              "name": "pers_",
              "type": "bytes"
            }
          ],
          "stateMutability": "nonpayable",
          "type": "constructor"
        },
        {
          "inputs": [],
          "name": "ECDSAInvalidSignature",
          "type": "error"
        },
        {
          "inputs": [
            {
              "internalType": "uint256",
              "name": "length",
              "type": "uint256"
            }
          ],
          "name": "ECDSAInvalidSignatureLength",
          "type": "error"
        },
        {
          "inputs": [
            {
              "internalType": "bytes32",
              "name": "s",
              "type": "bytes32"
            }
          ],
          "name": "ECDSAInvalidSignatureS",
          "type": "error"
        },
        {
          "inputs": [],
          "name": "EIPError",
          "type": "error"
        },
        {
          "inputs": [
            {
              "internalType": "address",
              "name": "spender",
              "type": "address"
            },
            {
              "internalType": "uint256",
              "name": "allowance",
              "type": "uint256"
            },
            {
              "internalType": "uint256",
              "name": "needed",
              "type": "uint256"
            }
          ],
          "name": "ERC20InsufficientAllowance",
          "type": "error"
        },
        {
          "inputs": [
            {
              "internalType": "address",
              "name": "sender",
              "type": "address"
            },
            {
              "internalType": "uint256",
              "name": "balance",
              "type": "uint256"
            },
            {
              "internalType": "uint256",
              "name": "needed",
              "type": "uint256"
            }
          ],
          "name": "ERC20InsufficientBalance",
          "type": "error"
        },
        {
          "inputs": [
            {
              "internalType": "address",
              "name": "approver",
              "type": "address"
            }
          ],
          "name": "ERC20InvalidApprover",
          "type": "error"
        },
        {
          "inputs": [
            {
              "internalType": "address",
              "name": "receiver",
              "type": "address"
            }
          ],
          "name": "ERC20InvalidReceiver",
          "type": "error"
        },
        {
          "inputs": [
            {
              "internalType": "address",
              "name": "sender",
              "type": "address"
            }
          ],
          "name": "ERC20InvalidSender",
          "type": "error"
        },
        {
          "inputs": [
            {
              "internalType": "address",
              "name": "spender",
              "type": "address"
            }
          ],
          "name": "ERC20InvalidSpender",
          "type": "error"
        },
        {
          "inputs": [],
          "name": "EmptyIdentitySalt",
          "type": "error"
        },
        {
          "inputs": [],
          "name": "ExpiredDeadline",
          "type": "error"
        },
        {
          "inputs": [],
          "name": "InsufficientBalance",
          "type": "error"
        },
        {
          "inputs": [],
          "name": "InvalidNonce",
          "type": "error"
        },
        {
          "inputs": [],
          "name": "InvalidPermitAmount",
          "type": "error"
        },
        {
          "inputs": [],
          "name": "InvalidPermitLabel",
          "type": "error"
        },
        {
          "inputs": [],
          "name": "InvalidSignature",
          "type": "error"
        },
        {
          "inputs": [],
          "name": "NotContractAddress",
          "type": "error"
        },
        {
          "inputs": [],
          "name": "ReentrancyGuardReentrantCall",
          "type": "error"
        },
        {
          "inputs": [],
          "name": "SignatureUsed",
          "type": "error"
        },
        {
          "inputs": [],
          "name": "TransferFailed",
          "type": "error"
        },
        {
          "inputs": [],
          "name": "ZeroAddress",
          "type": "error"
        },
        {
          "inputs": [],
          "name": "ZeroAmount",
          "type": "error"
        },
        {
          "anonymous": false,
          "inputs": [
            {
              "indexed": true,
              "internalType": "address",
              "name": "owner",
              "type": "address"
            },
            {
              "indexed": true,
              "internalType": "address",
              "name": "spender",
              "type": "address"
            },
            {
              "indexed": false,
              "internalType": "uint256",
              "name": "value",
              "type": "uint256"
            }
          ],
          "name": "Approval",
          "type": "event"
        },
        {
          "anonymous": false,
          "inputs": [
            {
              "indexed": true,
              "internalType": "address",
              "name": "from",
              "type": "address"
            },
            {
              "indexed": true,
              "internalType": "address",
              "name": "to",
              "type": "address"
            },
            {
              "indexed": false,
              "internalType": "uint256",
              "name": "value",
              "type": "uint256"
            }
          ],
          "name": "Transfer",
          "type": "event"
        },
        {
          "inputs": [],
          "name": "DOMAIN_SEPARATOR",
          "outputs": [
            {
              "internalType": "bytes32",
              "name": "",
              "type": "bytes32"
            }
          ],
          "stateMutability": "view",
          "type": "function"
        },
        {
          "inputs": [],
          "name": "EIP_PERMIT_TYPEHASH",
          "outputs": [
            {
              "internalType": "bytes32",
              "name": "",
              "type": "bytes32"
            }
          ],
          "stateMutability": "view",
          "type": "function"
        },
        {
          "inputs": [
            {
              "internalType": "address",
              "name": "owner",
              "type": "address"
            },
            {
              "internalType": "address",
              "name": "spender",
              "type": "address"
            }
          ],
          "name": "allowance",
          "outputs": [
            {
              "internalType": "uint256",
              "name": "",
              "type": "uint256"
            }
          ],
          "stateMutability": "view",
          "type": "function"
        },
        {
          "inputs": [
            {
              "components": [
                {
                  "internalType": "enum PrivacyEIP712.PermitLabel",
                  "name": "label",
                  "type": "uint8"
                },
                {
                  "internalType": "address",
                  "name": "owner",
                  "type": "address"
                },
                {
                  "internalType": "address",
                  "name": "spender",
                  "type": "address"
                },
                {
                  "internalType": "uint256",
                  "name": "amount",
                  "type": "uint256"
                },
                {
                  "internalType": "uint256",
                  "name": "deadline",
                  "type": "uint256"
                },
                {
                  "internalType": "uint256",
                  "name": "nonce",
                  "type": "uint256"
                },
                {
                  "components": [
                    {
                      "internalType": "bytes32",
                      "name": "r",
                      "type": "bytes32"
                    },
                    {
                      "internalType": "bytes32",
                      "name": "s",
                      "type": "bytes32"
                    },
                    {
                      "internalType": "uint256",
                      "name": "v",
                      "type": "uint256"
                    }
                  ],
                  "internalType": "struct SignatureRSV",
                  "name": "signature",
                  "type": "tuple"
                }
              ],
              "internalType": "struct PrivacyEIP712.EIP712Permit",
              "name": "permit",
              "type": "tuple"
            }
          ],
          "name": "allowanceWithPermit",
          "outputs": [
            {
              "internalType": "uint256",
              "name": "",
              "type": "uint256"
            }
          ],
          "stateMutability": "view",
          "type": "function"
        },
        {
          "inputs": [
            {
              "internalType": "address",
              "name": "spender",
              "type": "address"
            },
            {
              "internalType": "uint256",
              "name": "value",
              "type": "uint256"
            }
          ],
          "name": "approve",
          "outputs": [
            {
              "internalType": "bool",
              "name": "",
              "type": "bool"
            }
          ],
          "stateMutability": "nonpayable",
          "type": "function"
        },
        {
          "inputs": [
            {
              "components": [
                {
                  "internalType": "enum PrivacyEIP712.PermitLabel",
                  "name": "label",
                  "type": "uint8"
                },
                {
                  "internalType": "address",
                  "name": "owner",
                  "type": "address"
                },
                {
                  "internalType": "address",
                  "name": "spender",
                  "type": "address"
                },
                {
                  "internalType": "uint256",
                  "name": "amount",
                  "type": "uint256"
                },
                {
                  "internalType": "uint256",
                  "name": "deadline",
                  "type": "uint256"
                },
                {
                  "internalType": "uint256",
                  "name": "nonce",
                  "type": "uint256"
                },
                {
                  "components": [
                    {
                      "internalType": "bytes32",
                      "name": "r",
                      "type": "bytes32"
                    },
                    {
                      "internalType": "bytes32",
                      "name": "s",
                      "type": "bytes32"
                    },
                    {
                      "internalType": "uint256",
                      "name": "v",
                      "type": "uint256"
                    }
                  ],
                  "internalType": "struct SignatureRSV",
                  "name": "signature",
                  "type": "tuple"
                }
              ],
              "internalType": "struct PrivacyEIP712.EIP712Permit",
              "name": "permit",
              "type": "tuple"
            }
          ],
          "name": "approveWithPermit",
          "outputs": [],
          "stateMutability": "nonpayable",
          "type": "function"
        },
        {
          "inputs": [
            {
              "internalType": "address",
              "name": "account",
              "type": "address"
            }
          ],
          "name": "balanceOf",
          "outputs": [
            {
              "internalType": "uint256",
              "name": "",
              "type": "uint256"
            }
          ],
          "stateMutability": "view",
          "type": "function"
        },
        {
          "inputs": [
            {
              "components": [
                {
                  "internalType": "enum PrivacyEIP712.PermitLabel",
                  "name": "label",
                  "type": "uint8"
                },
                {
                  "internalType": "address",
                  "name": "owner",
                  "type": "address"
                },
                {
                  "internalType": "address",
                  "name": "spender",
                  "type": "address"
                },
                {
                  "internalType": "uint256",
                  "name": "amount",
                  "type": "uint256"
                },
                {
                  "internalType": "uint256",
                  "name": "deadline",
                  "type": "uint256"
                },
                {
                  "internalType": "uint256",
                  "name": "nonce",
                  "type": "uint256"
                },
                {
                  "components": [
                    {
                      "internalType": "bytes32",
                      "name": "r",
                      "type": "bytes32"
                    },
                    {
                      "internalType": "bytes32",
                      "name": "s",
                      "type": "bytes32"
                    },
                    {
                      "internalType": "uint256",
                      "name": "v",
                      "type": "uint256"
                    }
                  ],
                  "internalType": "struct SignatureRSV",
                  "name": "signature",
                  "type": "tuple"
                }
              ],
              "internalType": "struct PrivacyEIP712.EIP712Permit",
              "name": "permit",
              "type": "tuple"
            }
          ],
          "name": "balanceOfWithPermit",
          "outputs": [
            {
              "internalType": "uint256",
              "name": "",
              "type": "uint256"
            }
          ],
          "stateMutability": "view",
          "type": "function"
        },
        {
          "inputs": [],
          "name": "decimals",
          "outputs": [
            {
              "internalType": "uint8",
              "name": "",
              "type": "uint8"
            }
          ],
          "stateMutability": "view",
          "type": "function"
        },
        {
          "inputs": [],
          "name": "deposit",
          "outputs": [],
          "stateMutability": "payable",
          "type": "function"
        },
        {
          "inputs": [
            {
              "components": [
                {
                  "internalType": "enum PrivacyEIP712.PermitLabel",
                  "name": "label",
                  "type": "uint8"
                },
                {
                  "internalType": "address",
                  "name": "owner",
                  "type": "address"
                },
                {
                  "internalType": "address",
                  "name": "spender",
                  "type": "address"
                },
                {
                  "internalType": "uint256",
                  "name": "amount",
                  "type": "uint256"
                },
                {
                  "internalType": "uint256",
                  "name": "deadline",
                  "type": "uint256"
                },
                {
                  "internalType": "uint256",
                  "name": "nonce",
                  "type": "uint256"
                },
                {
                  "components": [
                    {
                      "internalType": "bytes32",
                      "name": "r",
                      "type": "bytes32"
                    },
                    {
                      "internalType": "bytes32",
                      "name": "s",
                      "type": "bytes32"
                    },
                    {
                      "internalType": "uint256",
                      "name": "v",
                      "type": "uint256"
                    }
                  ],
                  "internalType": "struct SignatureRSV",
                  "name": "signature",
                  "type": "tuple"
                }
              ],
              "internalType": "struct PrivacyEIP712.EIP712Permit",
              "name": "permit",
              "type": "tuple"
            }
          ],
          "name": "getMyVirtualAddress",
          "outputs": [
            {
              "internalType": "address",
              "name": "",
              "type": "address"
            }
          ],
          "stateMutability": "view",
          "type": "function"
        },
        {
          "inputs": [],
          "name": "increaseNonce",
          "outputs": [],
          "stateMutability": "nonpayable",
          "type": "function"
        },
        {
          "inputs": [
            {
              "components": [
                {
                  "internalType": "bytes32",
                  "name": "r",
                  "type": "bytes32"
                },
                {
                  "internalType": "bytes32",
                  "name": "s",
                  "type": "bytes32"
                },
                {
                  "internalType": "uint256",
                  "name": "v",
                  "type": "uint256"
                }
              ],
              "internalType": "struct SignatureRSV",
              "name": "signature",
              "type": "tuple"
            }
          ],
          "name": "isSignatureUsed",
          "outputs": [
            {
              "internalType": "bool",
              "name": "",
              "type": "bool"
            }
          ],
          "stateMutability": "view",
          "type": "function"
        },
        {
          "inputs": [],
          "name": "name",
          "outputs": [
            {
              "internalType": "string",
              "name": "",
              "type": "string"
            }
          ],
          "stateMutability": "view",
          "type": "function"
        },
        {
          "inputs": [
            {
              "internalType": "address",
              "name": "owner",
              "type": "address"
            }
          ],
          "name": "nonces",
          "outputs": [
            {
              "internalType": "uint256",
              "name": "",
              "type": "uint256"
            }
          ],
          "stateMutability": "view",
          "type": "function"
        },
        {
          "inputs": [],
          "name": "symbol",
          "outputs": [
            {
              "internalType": "string",
              "name": "",
              "type": "string"
            }
          ],
          "stateMutability": "view",
          "type": "function"
        },
        {
          "inputs": [],
          "name": "totalSupply",
          "outputs": [
            {
              "internalType": "uint256",
              "name": "",
              "type": "uint256"
            }
          ],
          "stateMutability": "view",
          "type": "function"
        },
        {
          "inputs": [
            {
              "internalType": "address",
              "name": "to",
              "type": "address"
            },
            {
              "internalType": "uint256",
              "name": "value",
              "type": "uint256"
            }
          ],
          "name": "transfer",
          "outputs": [
            {
              "internalType": "bool",
              "name": "",
              "type": "bool"
            }
          ],
          "stateMutability": "nonpayable",
          "type": "function"
        },
        {
          "inputs": [
            {
              "internalType": "address",
              "name": "from",
              "type": "address"
            },
            {
              "internalType": "address",
              "name": "to",
              "type": "address"
            },
            {
              "internalType": "uint256",
              "name": "value",
              "type": "uint256"
            }
          ],
          "name": "transferFrom",
          "outputs": [
            {
              "internalType": "bool",
              "name": "",
              "type": "bool"
            }
          ],
          "stateMutability": "nonpayable",
          "type": "function"
        },
        {
          "inputs": [
            {
              "components": [
                {
                  "internalType": "enum PrivacyEIP712.PermitLabel",
                  "name": "label",
                  "type": "uint8"
                },
                {
                  "internalType": "address",
                  "name": "owner",
                  "type": "address"
                },
                {
                  "internalType": "address",
                  "name": "spender",
                  "type": "address"
                },
                {
                  "internalType": "uint256",
                  "name": "amount",
                  "type": "uint256"
                },
                {
                  "internalType": "uint256",
                  "name": "deadline",
                  "type": "uint256"
                },
                {
                  "internalType": "uint256",
                  "name": "nonce",
                  "type": "uint256"
                },
                {
                  "components": [
                    {
                      "internalType": "bytes32",
                      "name": "r",
                      "type": "bytes32"
                    },
                    {
                      "internalType": "bytes32",
                      "name": "s",
                      "type": "bytes32"
                    },
                    {
                      "internalType": "uint256",
                      "name": "v",
                      "type": "uint256"
                    }
                  ],
                  "internalType": "struct SignatureRSV",
                  "name": "signature",
                  "type": "tuple"
                }
              ],
              "internalType": "struct PrivacyEIP712.EIP712Permit",
              "name": "permit",
              "type": "tuple"
            }
          ],
          "name": "transferWithPermit",
          "outputs": [],
          "stateMutability": "nonpayable",
          "type": "function"
        },
        {
          "inputs": [],
          "name": "underlyingToken",
          "outputs": [
            {
              "internalType": "contract IERC20Metadata",
              "name": "",
              "type": "address"
            }
          ],
          "stateMutability": "view",
          "type": "function"
        },
        {
          "inputs": [
            {
              "internalType": "uint256",
              "name": "amount",
              "type": "uint256"
            }
          ],
          "name": "unwrap",
          "outputs": [],
          "stateMutability": "nonpayable",
          "type": "function"
        },
        {
          "inputs": [
            {
              "internalType": "uint256",
              "name": "amount",
              "type": "uint256"
            }
          ],
          "name": "withdraw",
          "outputs": [],
          "stateMutability": "nonpayable",
          "type": "function"
        },
        {
          "inputs": [
            {
              "internalType": "uint256",
              "name": "amount",
              "type": "uint256"
            }
          ],
          "name": "wrap",
          "outputs": [],
          "stateMutability": "nonpayable",
          "type": "function"
        },
        {
          "stateMutability": "payable",
          "type": "receive"
        }
      ],
      "evm": {
        "bytecode": {
          "linkReferences": {},
          "object": "60c0604090808252346200028857620023a680380380916200002282856200028d565b833981018282820312620002885781516001600160a01b038116929083900362000288576020818101516001600160401b039283821162000288570183601f82011215620002885780516200007781620002b1565b9462000086885196876200028d565b8186528382840101116200028857620000a591838087019101620002cd565b84519360608501858110848211176200027257865260288552818501947f5072697661637920455243323020546f6b656e2077697468205669727475616c865267204164647265737360c01b8782015286519587870187811086821117620002725788526001875283870191603160f81b8352600096600188556001541562000259575b50519020955190208651928301957f8b73c3c69bb8fe3d512ecc4cf759cc79239f7b179b0ffacaa9a75d522b39400f87528784015260608301524660808301523060a083015260a0825260c08201948286108487111762000245578587528251902060805260a05260e00190811183821017620002315783528152620001ba90620001b49062000316565b620002f2565b60045551611fa09081620004068239608051818181610616015281816109cb01528181610c5601528181610d8d0152611b58015260a0518181816101f00152818161030e015281816107c101528181610dd701528181610ec901528181610fa0015281816110d1015281816111ad0152611d620152f35b634e487b7160e01b82526041600452602482fd5b634e487b7160e01b85526041600452602485fd5b620001b4620002689162000316565b6001553862000129565b634e487b7160e01b600052604160045260246000fd5b600080fd5b601f909101601f19168101906001600160401b038211908210176200027257604052565b6001600160401b0381116200027257601f01601f191660200190565b60005b838110620002e15750506000910152565b8181015183820152602001620002d0565b60208151910151906020811062000307575090565b6000199060200360031b1b1690565b60008091604051620003666080826020810194602086526040808301526200034e8151809281606086015260208686019101620002cd565b601f801991011681010360608101845201826200028d565b51907301000000000000000000000000000000000000015afa3d15620003fc573d906200039382620002b1565b91620003a360405193846200028d565b82523d6000602084013e5b15620003b75790565b60405162461bcd60e51b815260206004820152601360248201527f72616e646f6d42797465733a206661696c6564000000000000000000000000006044820152606490fd5b606090620003ae56fe6080604081815260049182361015610037575b505050361561002057600080fd5b60ff600754161561002d57005b610035611d5a565b005b60009060e08235811c918263036e07081461125b5750816306fdde0314611186578163095ea7b31461114b57816318160ddd146110a257816323b872dd14610fcf5781632495a59914610f8b5781632e1a7d4d14610e6a578163313ce56714610db05781633644e51514610d7557816370a0823114610d4f578163759714d114610b255781637ecebe0014610aed57816393355f4214610a9b57816395cceba21461088157816395d89b411461079a578163a9059cbb14610758578163ae60b787146104cc57508063c53a029214610486578063cf5855ae14610413578063d0e30db0146103f7578063dd62ed3e14610393578063de0e9a3e146102a1578063ea598cb0146101a25763f2a69c9103610012573461019f5750610159366113b9565b9161016383611a37565b15610191575060209182015161018a90610185906001600160a01b0316611596565b6116fa565b9051908152f35b90516303bfcdeb60e21b8152fd5b80fd5b50913461029d57602036600319011261029d578035906101c061169d565b811561028f5782516323b872dd60e01b8152339181019190915230602482015260448101829052602081606481877f00000000000000000000000000000000000000000000000000000000000000006001600160a01b03165af180156102825761024c9350610253575b5061024661023733611596565b91610241836116fa565b611589565b9061185a565b6001815580f35b6102749060203d60201161027b575b61026c8183611397565b810190611571565b503861022a565b503d610262565b50505051903d90823e3d90fd5b8251631f2a200560e01b8152fd5b8280fd5b5091903461029d57602036600319011261029d5781356102bf61169d565b8015610385576102ce33611596565b6102d7816116fa565b8281106103755790610246836102ec936114e8565b815163a9059cbb60e01b815233938101939093526024830152602082604481867f00000000000000000000000000000000000000000000000000000000000000006001600160a01b03165af190811561036c575061034d575b506001815580f35b6103659060203d60201161027b5761026c8183611397565b5038610345565b513d84823e3d90fd5b50505051631e9acf1760e31b8152fd5b5051631f2a200560e01b8152fd5b5090346103f357806003193601126103f3576020916103b06112cb565b826103cb6103c56103bf6112e6565b93611623565b92611623565b6001600160a01b03928316845260068652922091166000908152908352819020549051908152f35b5080fd5b508060031936011261019f5761040b61169d565b61024c611d5a565b503461019f57610422366113b9565b9061042c82611a37565b1561047757602093508260018060a01b03918261045b8184610452828b8a015116611596565b97015116611623565b9416815260068652209116600052825280600020549051908152f35b5050516303bfcdeb60e21b8152fd5b5091903461029d578260031936011261029d57338352600360205282208054909160001982146104b95750600101905580f35b634e487b7160e01b845260119052602483fd5b8385849234610754576104de366113b9565b906104e761169d565b60c08201918251926104f884611c40565b5060808201948551421161074657825161051181611c20565b61051a81611c20565b6001036107385760a08301918251946020978886019460018060a01b03978887511660005260038b528b60002054036107285787959493928b928b92895161056181611c20565b61056a81611c20565b15610708575b60038a5161057d81611c20565b61058681611c20565b146106ce575b9088949392918a519161059e83611c20565b868a51169b8681019d8e5116906060019c8d519251935194885197880198600080516020611f4b8339815191528a526105d682611c20565b8801526060870152608086015260a085015260c08401528183015281526105fc81611342565b519020818551169251908b518b81019161190160f01b83527f0000000000000000000000000000000000000000000000000000000000000000602283015260428201526042815261064c8161135f565b519020908b81015160ff16908b81519101519161066893611e2f565b61067191611ebf565b16036106c0575092600295949261069c836106946106a4956106a9985116611596565b935116611623565b905191611caa565b611c75565b8452528120600160ff198254161790556001815580f35b87516303bfcdeb60e21b8152fd5b92509250929394955060608701516106f857878b880151166106f85787959493928b928b9261058c565b8a5163291ded6160e01b81528590fd5b92509250929394955060608701516106f85787959493928b928b92610570565b8a51633ab3447f60e11b81528590fd5b8651635105556960e01b8152fd5b865163f87d927160e01b8152fd5b8380fd5b8284346103f357806003193601126103f3576020906107936107786112cb565b61078133611596565b61078d60243592611623565b90611caa565b5160018152f35b8285853461029d578260031936011261029d5780516395d89b4160e01b81529183908390817f00000000000000000000000000000000000000000000000000000000000000006001600160a01b03165afa918215610877578361084e9493610852575b505061083c602882518461081b829651809260208086019101611283565b8101672e5072697661637960c01b6020820152036008810185520183611397565b519182916020835260208301906112a6565b0390f35b61086f9293503d8091833e6108678183611397565b810190611486565b9083806107fd565b81513d85823e3d90fd5b838584923461075457610893366113b9565b9061089c61169d565b60c08201918251926108ad84611c40565b506080820194855142116107465782516108c681611c20565b6108cf81611c20565b6002036107385760a08301918251946020978886019460018060a01b03978887511660005260038b528b60002054036107285787959493928b928b92895161091681611c20565b61091f81611c20565b15610a7b575b60038a5161093281611c20565b61093b81611c20565b14610a51575b9088949392918a519161095383611c20565b868a51169b8681019d8e5116906060019c8d519251935194885197880198600080516020611f4b8339815191528a5261098b82611c20565b8801526060870152608086015260a085015260c08401528183015281526109b181611342565b519020818551169251908b518b81019161190160f01b83527f00000000000000000000000000000000000000000000000000000000000000006022830152604282015260428152610a018161135f565b519020908b81015160ff16908b815191015191610a1d93611e2f565b610a2691611ebf565b16036106c05750926002959492610a49836106946106a4956106a9985116611596565b905191611635565b92509250929394955060608701516106f857878b880151166106f85787959493928b928b92610941565b92509250929394955060608701516106f85787959493928b928b92610925565b5050913461029d57606036600319011261029d5781602093610adb60ff93835190610ac582611326565b3581526024358782015260443584820152611c75565b81526002855220541690519015158152f35b8284346103f35760203660031901126103f35760209181906001600160a01b03610b156112cb565b1681526003845220549051908152f35b9190503461019f5750610b37366113b9565b608081019384514211610d41578151610b4f81611c20565b610b5881611c20565b600303610d335760a08201918251936020968783019460018060a01b03968787511660005260038a52886000205403610d2357869288928a928651610b9c81611c20565b610ba581611c20565b15610d09575b60038751610bb881611c20565b610bc181611c20565b14610cd5575b91610ca39391610cac9593885191610bde83611c20565b888c511689878c0151169060608c01519251935194885197880198600080516020611f4b8339815191528a52610c1382611c20565b8801526060870152608086015260a085015260c0840152818301528152610c3981611342565b51902060c0848851169501519089518b81019161190160f01b83527f00000000000000000000000000000000000000000000000000000000000000006022830152604282015260428152610c8c8161135f565b5190209060ff8a820151168b825192015192611e2f565b90929192611ebf565b1603610cc7575081610cbf915116611596565b915191168152f35b83516303bfcdeb60e21b8152fd5b9250925092506060840151610cf957868885015116610cf957869288928a92610bc7565b875163291ded6160e01b81528590fd5b9250925092506060840151610cf957869288928a92610bab565b8751633ab3447f60e11b81528590fd5b8351635105556960e01b8152fd5b835163f87d927160e01b8152fd5b8284346103f35760203660031901126103f35760209061018a610d706112cb565b61153b565b8284346103f357816003193601126103f357602090517f00000000000000000000000000000000000000000000000000000000000000008152f35b50503461019f578060031936011261019f57815163313ce56760e01b8152926020908490817f00000000000000000000000000000000000000000000000000000000000000006001600160a01b03165afa928315610e5e578193610e1c575b60208460ff855191168152f35b9092506020813d602011610e56575b81610e3860209383611397565b8101031261029d57519160ff8316830361019f575060ff6020610e0f565b3d9150610e2b565b509051903d90823e3d90fd5b5050913461029d57602036600319011261029d57803591610e8961169d565b8215610f7e57610e9833611596565b92610ea2846116fa565b93818510610f6f57610ec6906102468360ff199760018960075416176007556114e8565b847f00000000000000000000000000000000000000000000000000000000000000006001600160a01b0316803b156103f35781906024855180948193632e1a7d4d60e01b8352878a8401525af18015610f6557610f52575b508480808093335af1610f2f61150b565b5015610f45575050600754166007556001815580f35b516312171d8360e31b8152fd5b610f5e909591956112fc565b9338610f1e565b83513d88823e3d90fd5b505051631e9acf1760e31b8152fd5b51631f2a200560e01b8152fd5b8284346103f357816003193601126103f357517f00000000000000000000000000000000000000000000000000000000000000006001600160a01b03168152602090f35b5050913461029d57606036600319011261029d57610feb6112cb565b92610ff46112e6565b604435928461100e6103bf61100833611596565b98611623565b6001600160a01b03848116865260066020908152838720918a16875252932054906000198210611047575b602086610793878787611caa565b84821061106e57509061106560209685610793969594039083611635565b90919238611039565b8551637dc7a0d960e11b81526001600160a01b03881691810191825260208201929092526040810185905281906060010390fd5b8285853461029d578260031936011261029d5780516370a0823160e01b815230928101929092526020826024817f00000000000000000000000000000000000000000000000000000000000000006001600160a01b03165afa918215610877578392611113575b6020838351908152f35b9091506020813d602011611143575b8161112f60209383611397565b8101031261029d5760209250519083611109565b3d9150611122565b8284346103f357806003193601126103f35760209061079361116b6112cb565b61117433611596565b61118060243592611623565b90611635565b8285853461029d578260031936011261029d5780516306fdde0360e01b81529183908390817f00000000000000000000000000000000000000000000000000000000000000006001600160a01b03165afa918215610877578361084e949361123e575b505061083c603482518094670283934bb30b1bc960c51b6020830152611219815180926020602886019101611283565b81016b081dda5d1a08155cd95c925960a21b6028820152036014810185520183611397565b6112539293503d8091833e6108678183611397565b9083806111e9565b8390346103f357816003193601126103f35780600080516020611f4b83398151915260209252f35b60005b8381106112965750506000910152565b8181015183820152602001611286565b906020916112bf81518092818552858086019101611283565b601f01601f1916010190565b600435906001600160a01b03821682036112e157565b600080fd5b602435906001600160a01b03821682036112e157565b67ffffffffffffffff811161131057604052565b634e487b7160e01b600052604160045260246000fd5b6060810190811067ffffffffffffffff82111761131057604052565b610100810190811067ffffffffffffffff82111761131057604052565b6080810190811067ffffffffffffffff82111761131057604052565b6020810190811067ffffffffffffffff82111761131057604052565b90601f8019910116810190811067ffffffffffffffff82111761131057604052565b6101206003198201126112e1576040519060e0820182811067ffffffffffffffff8211176113105760405260043560048110156112e15782526001600160a01b039060243582811681036112e157602084015260443591821682036112e157606091604084015260643582840152608435608084015260a43560a084015260c31901126112e15760405161144c81611326565b60c435815260e435602082015261010435604082015260c082015290565b67ffffffffffffffff811161131057601f01601f191660200190565b6020818303126112e15780519067ffffffffffffffff82116112e1570181601f820112156112e15780516114b98161146a565b926114c76040519485611397565b818452602082840101116112e1576114e59160208085019101611283565b90565b919082039182116114f557565b634e487b7160e01b600052601160045260246000fd5b3d15611536573d9061151c8261146a565b9161152a6040519384611397565b82523d6000602084013e565b606090565b803b1580159061155f575b611553576114e5906116fa565b6101856114e591611596565b506001600160a01b0381163314611546565b908160209103126112e1575180151581036112e15790565b919082018092116114f557565b6001600160a01b039080821615611611576001549081156115ff576040519060208201926d5669727475616c4164647265737360901b8452602e8301526bffffffffffffffffffffffff199060601b16604e820152604281526115f88161135f565b5190201690565b604051637145e31160e01b8152600490fd5b60405163d92e233d60e01b8152600490fd5b803b61162c5790565b6114e590611596565b6001600160a01b03908116918215611684571690811561166b576000526006602052604060002090600052602052604060002055565b604051634a1406b160e11b815260006004820152602490fd5b60405163e602df0560e01b815260006004820152602490fd5b6002600054146116ae576002600055565b604051633ee5aeb560e01b8152600490fd5b90600182811c921680156116f0575b60208310146116da57565b634e487b7160e01b600052602260045260246000fd5b91607f16916116cf565b60009060018060a01b0316815260209060058252604081206040519081838254611723816116c0565b93848452600191886001821691826000146118385750506001146117fc575b505061175092500382611397565b8051156117f657818091600454906117926040519161176e8361137b565b8483526117846040519384928a84019687611dfd565b03601f198101835282611397565b51906004600160981b015afa906117a761150b565b91156117bf57828280518101031261019f5750015190565b60405162461bcd60e51b815260048101849052600f60248201526e191958dc9e5c1d0e8819985a5b1959608a1b6044820152606490fd5b50905090565b87925086528186209086915b85831061182057505061175093508201013880611742565b80548388018501528694508893909201918101611808565b925093505061175094915060ff191682840152151560051b8201013880611742565b9190916040805191602094858401528483528183019067ffffffffffffffff928483108484111761131057828152600454946118958461137b565b6000809681928287526118b085519788928d84019485611dfd565b03956118c4601f1997888101835282611397565b51906003600160981b015afa916118d961150b565b9215611a01576001600160a01b0316855260058752842081519094909384116119ed5761190685546116c0565b601f81116119aa575b508692601f851160011461194a575083949596509261193f575b50508160011b916000199060031b1c1916179055565b015190503880611929565b8493929193169685845280842093905b88821061199257505083600195969710611979575b505050811b019055565b015160001960f88460031b161c1916905538808061196f565b8060018596829496860151815501950193019061195a565b858252878220601f860160051c8101918987106119e3575b601f0160051c01905b8181106119d8575061190f565b8281556001016119cb565b90915081906119c2565b634e487b7160e01b81526041600452602490fd5b815162461bcd60e51b815260048101899052600f60248201526e195b98dc9e5c1d0e8819985a5b1959608a1b6044820152606490fd5b6080810180514211611c0e578151611a4e81611c20565b611a5781611c20565b611bfc5760a08201805190602084019060018060a01b0393848351166000526003602052604093846000205403611beb579084918651611a9681611c20565b611a9f81611c20565b15611bd7575b60038751611ab281611c20565b611abb81611c20565b14611ba8575b60c0611ba39593610ca3959360ff938a805192611add84611c20565b84885116926060868b8501511693015190519151928a51946020860196600080516020611f4b8339815191528852611b1481611c20565b8c8701526060860152608085015260a08401528583015260e082015260e08152611b3d81611342565b519020935116970151918351602081019161190160f01b83527f00000000000000000000000000000000000000000000000000000000000000006022830152604282015260428152611b8e8161135f565b51902092820151166020825192015192611e2f565b161490565b9091506060860151611bc657848487015116611bc657908491611ac1565b835163291ded6160e01b8152600490fd5b9091506060860151611bc657908491611aa5565b8351633ab3447f60e11b8152600490fd5b604051635105556960e01b8152600490fd5b60405163f87d927160e01b8152600490fd5b60041115611c2a57565b634e487b7160e01b600052602160045260246000fd5b611c4990611c75565b600052600260205260ff60406000205416611c6357600090565b604051638baa579f60e01b8152600490fd5b8051906040602082015191015160405191602083019384526040830152606082015260608152611ca48161135f565b51902090565b92916001600160a01b0380851615611d4157821615611d2857611ccc846116fa565b93818510611cf65790611cf493946102416102469361024684611cee886116fa565b946114e8565b565b60405163391434e360e21b81526001600160a01b03919091166004820152602481018590526044810191909152606490fd5b60405163ec442f0560e01b815260006004820152602490fd5b604051634b637e8f60e11b815260006004820152602490fd5b3415611deb577f00000000000000000000000000000000000000000000000000000000000000006001600160a01b0316803b156112e157600060049160405192838092630d0e30db60e41b825234905af18015611ddf57611dd0575b50611cf4611dc333611596565b61024634610241836116fa565b611dd9906112fc565b38611db6565b6040513d6000823e3d90fd5b604051631f2a200560e01b8152600490fd5b91611e21906114e594926000855260208501526080604085015260808401906112a6565b9160608184039101526112a6565b91907f7fffffffffffffffffffffffffffffff5d576e7357a4501ddfe92f46681b20a08411611eb357926020929160ff608095604051948552168484015260408301526060820152600092839182805260015afa15611ea75780516001600160a01b03811615611e9e57918190565b50809160019190565b604051903d90823e3d90fd5b50505060009160039190565b611ec881611c20565b80611ed1575050565b611eda81611c20565b60018103611ef45760405163f645eedf60e01b8152600490fd5b611efd81611c20565b60028103611f1e5760405163fce698f760e01b815260048101839052602490fd5b80611f2a600392611c20565b14611f325750565b602490604051906335e2f38360e21b82526004820152fdfe2b6664e8054717873954d7ca7348079fe06e7caf155f60944c3a4b3dcf2fabb3a26469706673582212206390ac917c6bee53ed1381b8287b2ac418cff70d2b9a1e597b012276c1e5b08664736f6c63430008180033",
          "opcodes": "PUSH1 0xC0 PUSH1 0x40 SWAP1 DUP1 DUP3 MSTORE CALLVALUE PUSH3 0x288 JUMPI PUSH3 0x23A6 DUP1 CODESIZE SUB DUP1 SWAP2 PUSH3 0x22 DUP3 DUP6 PUSH3 0x28D JUMP JUMPDEST DUP4 CODECOPY DUP2 ADD DUP3 DUP3 DUP3 SUB SLT PUSH3 0x288 JUMPI DUP2 MLOAD PUSH1 0x1 PUSH1 0x1 PUSH1 0xA0 SHL SUB DUP2 AND SWAP3 SWAP1 DUP4 SWAP1 SUB PUSH3 0x288 JUMPI PUSH1 0x20 DUP2 DUP2 ADD MLOAD PUSH1 0x1 PUSH1 0x1 PUSH1 0x40 SHL SUB SWAP3 DUP4 DUP3 GT PUSH3 0x288 JUMPI ADD DUP4 PUSH1 0x1F DUP3 ADD SLT ISZERO PUSH3 0x288 JUMPI DUP1 MLOAD PUSH3 0x77 DUP2 PUSH3 0x2B1 JUMP JUMPDEST SWAP5 PUSH3 0x86 DUP9 MLOAD SWAP7 DUP8 PUSH3 0x28D JUMP JUMPDEST DUP2 DUP7 MSTORE DUP4 DUP3 DUP5 ADD ADD GT PUSH3 0x288 JUMPI PUSH3 0xA5 SWAP2 DUP4 DUP1 DUP8 ADD SWAP2 ADD PUSH3 0x2CD JUMP JUMPDEST DUP5 MLOAD SWAP4 PUSH1 0x60 DUP6 ADD DUP6 DUP2 LT DUP5 DUP3 GT OR PUSH3 0x272 JUMPI DUP7 MSTORE PUSH1 0x28 DUP6 MSTORE DUP2 DUP6 ADD SWAP5 PUSH32 0x5072697661637920455243323020546F6B656E2077697468205669727475616C DUP7 MSTORE PUSH8 0x2041646472657373 PUSH1 0xC0 SHL DUP8 DUP3 ADD MSTORE DUP7 MLOAD SWAP6 DUP8 DUP8 ADD DUP8 DUP2 LT DUP7 DUP3 GT OR PUSH3 0x272 JUMPI DUP9 MSTORE PUSH1 0x1 DUP8 MSTORE DUP4 DUP8 ADD SWAP2 PUSH1 0x31 PUSH1 0xF8 SHL DUP4 MSTORE PUSH1 0x0 SWAP7 PUSH1 0x1 DUP9 SSTORE PUSH1 0x1 SLOAD ISZERO PUSH3 0x259 JUMPI JUMPDEST POP MLOAD SWAP1 KECCAK256 SWAP6 MLOAD SWAP1 KECCAK256 DUP7 MLOAD SWAP3 DUP4 ADD SWAP6 PUSH32 0x8B73C3C69BB8FE3D512ECC4CF759CC79239F7B179B0FFACAA9A75D522B39400F DUP8 MSTORE DUP8 DUP5 ADD MSTORE PUSH1 0x60 DUP4 ADD MSTORE CHAINID PUSH1 0x80 DUP4 ADD MSTORE ADDRESS PUSH1 0xA0 DUP4 ADD MSTORE PUSH1 0xA0 DUP3 MSTORE PUSH1 0xC0 DUP3 ADD SWAP5 DUP3 DUP7 LT DUP5 DUP8 GT OR PUSH3 0x245 JUMPI DUP6 DUP8 MSTORE DUP3 MLOAD SWAP1 KECCAK256 PUSH1 0x80 MSTORE PUSH1 0xA0 MSTORE PUSH1 0xE0 ADD SWAP1 DUP2 GT DUP4 DUP3 LT OR PUSH3 0x231 JUMPI DUP4 MSTORE DUP2 MSTORE PUSH3 0x1BA SWAP1 PUSH3 0x1B4 SWAP1 PUSH3 0x316 JUMP JUMPDEST PUSH3 0x2F2 JUMP JUMPDEST PUSH1 0x4 SSTORE MLOAD PUSH2 0x1FA0 SWAP1 DUP2 PUSH3 0x406 DUP3 CODECOPY PUSH1 0x80 MLOAD DUP2 DUP2 DUP2 PUSH2 0x616 ADD MSTORE DUP2 DUP2 PUSH2 0x9CB ADD MSTORE DUP2 DUP2 PUSH2 0xC56 ADD MSTORE DUP2 DUP2 PUSH2 0xD8D ADD MSTORE PUSH2 0x1B58 ADD MSTORE PUSH1 0xA0 MLOAD DUP2 DUP2 DUP2 PUSH2 0x1F0 ADD MSTORE DUP2 DUP2 PUSH2 0x30E ADD MSTORE DUP2 DUP2 PUSH2 0x7C1 ADD MSTORE DUP2 DUP2 PUSH2 0xDD7 ADD MSTORE DUP2 DUP2 PUSH2 0xEC9 ADD MSTORE DUP2 DUP2 PUSH2 0xFA0 ADD MSTORE DUP2 DUP2 PUSH2 0x10D1 ADD MSTORE DUP2 DUP2 PUSH2 0x11AD ADD MSTORE PUSH2 0x1D62 ADD MSTORE RETURN JUMPDEST PUSH4 0x4E487B71 PUSH1 0xE0 SHL DUP3 MSTORE PUSH1 0x41 PUSH1 0x4 MSTORE PUSH1 0x24 DUP3 REVERT JUMPDEST PUSH4 0x4E487B71 PUSH1 0xE0 SHL DUP6 MSTORE PUSH1 0x41 PUSH1 0x4 MSTORE PUSH1 0x24 DUP6 REVERT JUMPDEST PUSH3 0x1B4 PUSH3 0x268 SWAP2 PUSH3 0x316 JUMP JUMPDEST PUSH1 0x1 SSTORE CODESIZE PUSH3 0x129 JUMP JUMPDEST PUSH4 0x4E487B71 PUSH1 0xE0 SHL PUSH1 0x0 MSTORE PUSH1 0x41 PUSH1 0x4 MSTORE PUSH1 0x24 PUSH1 0x0 REVERT JUMPDEST PUSH1 0x0 DUP1 REVERT JUMPDEST PUSH1 0x1F SWAP1 SWAP2 ADD PUSH1 0x1F NOT AND DUP2 ADD SWAP1 PUSH1 0x1 PUSH1 0x1 PUSH1 0x40 SHL SUB DUP3 GT SWAP1 DUP3 LT OR PUSH3 0x272 JUMPI PUSH1 0x40 MSTORE JUMP JUMPDEST PUSH1 0x1 PUSH1 0x1 PUSH1 0x40 SHL SUB DUP2 GT PUSH3 0x272 JUMPI PUSH1 0x1F ADD PUSH1 0x1F NOT AND PUSH1 0x20 ADD SWAP1 JUMP JUMPDEST PUSH1 0x0 JUMPDEST DUP4 DUP2 LT PUSH3 0x2E1 JUMPI POP POP PUSH1 0x0 SWAP2 ADD MSTORE JUMP JUMPDEST DUP2 DUP2 ADD MLOAD DUP4 DUP3 ADD MSTORE PUSH1 0x20 ADD PUSH3 0x2D0 JUMP JUMPDEST PUSH1 0x20 DUP2 MLOAD SWAP2 ADD MLOAD SWAP1 PUSH1 0x20 DUP2 LT PUSH3 0x307 JUMPI POP SWAP1 JUMP JUMPDEST PUSH1 0x0 NOT SWAP1 PUSH1 0x20 SUB PUSH1 0x3 SHL SHL AND SWAP1 JUMP JUMPDEST PUSH1 0x0 DUP1 SWAP2 PUSH1 0x40 MLOAD PUSH3 0x366 PUSH1 0x80 DUP3 PUSH1 0x20 DUP2 ADD SWAP5 PUSH1 0x20 DUP7 MSTORE PUSH1 0x40 DUP1 DUP4 ADD MSTORE PUSH3 0x34E DUP2 MLOAD DUP1 SWAP3 DUP2 PUSH1 0x60 DUP7 ADD MSTORE PUSH1 0x20 DUP7 DUP7 ADD SWAP2 ADD PUSH3 0x2CD JUMP JUMPDEST PUSH1 0x1F DUP1 NOT SWAP2 ADD AND DUP2 ADD SUB PUSH1 0x60 DUP2 ADD DUP5 MSTORE ADD DUP3 PUSH3 0x28D JUMP JUMPDEST MLOAD SWAP1 PUSH20 0x100000000000000000000000000000000000001 GAS STATICCALL RETURNDATASIZE ISZERO PUSH3 0x3FC JUMPI RETURNDATASIZE SWAP1 PUSH3 0x393 DUP3 PUSH3 0x2B1 JUMP JUMPDEST SWAP2 PUSH3 0x3A3 PUSH1 0x40 MLOAD SWAP4 DUP5 PUSH3 0x28D JUMP JUMPDEST DUP3 MSTORE RETURNDATASIZE PUSH1 0x0 PUSH1 0x20 DUP5 ADD RETURNDATACOPY JUMPDEST ISZERO PUSH3 0x3B7 JUMPI SWAP1 JUMP JUMPDEST PUSH1 0x40 MLOAD PUSH3 0x461BCD PUSH1 0xE5 SHL DUP2 MSTORE PUSH1 0x20 PUSH1 0x4 DUP3 ADD MSTORE PUSH1 0x13 PUSH1 0x24 DUP3 ADD MSTORE PUSH32 0x72616E646F6D42797465733A206661696C656400000000000000000000000000 PUSH1 0x44 DUP3 ADD MSTORE PUSH1 0x64 SWAP1 REVERT JUMPDEST PUSH1 0x60 SWAP1 PUSH3 0x3AE JUMP INVALID PUSH1 0x80 PUSH1 0x40 DUP2 DUP2 MSTORE PUSH1 0x4 SWAP2 DUP3 CALLDATASIZE LT ISZERO PUSH2 0x37 JUMPI JUMPDEST POP POP POP CALLDATASIZE ISZERO PUSH2 0x20 JUMPI PUSH1 0x0 DUP1 REVERT JUMPDEST PUSH1 0xFF PUSH1 0x7 SLOAD AND ISZERO PUSH2 0x2D JUMPI STOP JUMPDEST PUSH2 0x35 PUSH2 0x1D5A JUMP JUMPDEST STOP JUMPDEST PUSH1 0x0 SWAP1 PUSH1 0xE0 DUP3 CALLDATALOAD DUP2 SHR SWAP2 DUP3 PUSH4 0x36E0708 EQ PUSH2 0x125B JUMPI POP DUP2 PUSH4 0x6FDDE03 EQ PUSH2 0x1186 JUMPI DUP2 PUSH4 0x95EA7B3 EQ PUSH2 0x114B JUMPI DUP2 PUSH4 0x18160DDD EQ PUSH2 0x10A2 JUMPI DUP2 PUSH4 0x23B872DD EQ PUSH2 0xFCF JUMPI DUP2 PUSH4 0x2495A599 EQ PUSH2 0xF8B JUMPI DUP2 PUSH4 0x2E1A7D4D EQ PUSH2 0xE6A JUMPI DUP2 PUSH4 0x313CE567 EQ PUSH2 0xDB0 JUMPI DUP2 PUSH4 0x3644E515 EQ PUSH2 0xD75 JUMPI DUP2 PUSH4 0x70A08231 EQ PUSH2 0xD4F JUMPI DUP2 PUSH4 0x759714D1 EQ PUSH2 0xB25 JUMPI DUP2 PUSH4 0x7ECEBE00 EQ PUSH2 0xAED JUMPI DUP2 PUSH4 0x93355F42 EQ PUSH2 0xA9B JUMPI DUP2 PUSH4 0x95CCEBA2 EQ PUSH2 0x881 JUMPI DUP2 PUSH4 0x95D89B41 EQ PUSH2 0x79A JUMPI DUP2 PUSH4 0xA9059CBB EQ PUSH2 0x758 JUMPI DUP2 PUSH4 0xAE60B787 EQ PUSH2 0x4CC JUMPI POP DUP1 PUSH4 0xC53A0292 EQ PUSH2 0x486 JUMPI DUP1 PUSH4 0xCF5855AE EQ PUSH2 0x413 JUMPI DUP1 PUSH4 0xD0E30DB0 EQ PUSH2 0x3F7 JUMPI DUP1 PUSH4 0xDD62ED3E EQ PUSH2 0x393 JUMPI DUP1 PUSH4 0xDE0E9A3E EQ PUSH2 0x2A1 JUMPI DUP1 PUSH4 0xEA598CB0 EQ PUSH2 0x1A2 JUMPI PUSH4 0xF2A69C91 SUB PUSH2 0x12 JUMPI CALLVALUE PUSH2 0x19F JUMPI POP PUSH2 0x159 CALLDATASIZE PUSH2 0x13B9 JUMP JUMPDEST SWAP2 PUSH2 0x163 DUP4 PUSH2 0x1A37 JUMP JUMPDEST ISZERO PUSH2 0x191 JUMPI POP PUSH1 0x20 SWAP2 DUP3 ADD MLOAD PUSH2 0x18A SWAP1 PUSH2 0x185 SWAP1 PUSH1 0x1 PUSH1 0x1 PUSH1 0xA0 SHL SUB AND PUSH2 0x1596 JUMP JUMPDEST PUSH2 0x16FA JUMP JUMPDEST SWAP1 MLOAD SWAP1 DUP2 MSTORE RETURN JUMPDEST SWAP1 MLOAD PUSH4 0x3BFCDEB PUSH1 0xE2 SHL DUP2 MSTORE REVERT JUMPDEST DUP1 REVERT JUMPDEST POP SWAP2 CALLVALUE PUSH2 0x29D JUMPI PUSH1 0x20 CALLDATASIZE PUSH1 0x3 NOT ADD SLT PUSH2 0x29D JUMPI DUP1 CALLDATALOAD SWAP1 PUSH2 0x1C0 PUSH2 0x169D JUMP JUMPDEST DUP2 ISZERO PUSH2 0x28F JUMPI DUP3 MLOAD PUSH4 0x23B872DD PUSH1 0xE0 SHL DUP2 MSTORE CALLER SWAP2 DUP2 ADD SWAP2 SWAP1 SWAP2 MSTORE ADDRESS PUSH1 0x24 DUP3 ADD MSTORE PUSH1 0x44 DUP2 ADD DUP3 SWAP1 MSTORE PUSH1 0x20 DUP2 PUSH1 0x64 DUP2 DUP8 PUSH32 0x0 PUSH1 0x1 PUSH1 0x1 PUSH1 0xA0 SHL SUB AND GAS CALL DUP1 ISZERO PUSH2 0x282 JUMPI PUSH2 0x24C SWAP4 POP PUSH2 0x253 JUMPI JUMPDEST POP PUSH2 0x246 PUSH2 0x237 CALLER PUSH2 0x1596 JUMP JUMPDEST SWAP2 PUSH2 0x241 DUP4 PUSH2 0x16FA JUMP JUMPDEST PUSH2 0x1589 JUMP JUMPDEST SWAP1 PUSH2 0x185A JUMP JUMPDEST PUSH1 0x1 DUP2 SSTORE DUP1 RETURN JUMPDEST PUSH2 0x274 SWAP1 PUSH1 0x20 RETURNDATASIZE PUSH1 0x20 GT PUSH2 0x27B JUMPI JUMPDEST PUSH2 0x26C DUP2 DUP4 PUSH2 0x1397 JUMP JUMPDEST DUP2 ADD SWAP1 PUSH2 0x1571 JUMP JUMPDEST POP CODESIZE PUSH2 0x22A JUMP JUMPDEST POP RETURNDATASIZE PUSH2 0x262 JUMP JUMPDEST POP POP POP MLOAD SWAP1 RETURNDATASIZE SWAP1 DUP3 RETURNDATACOPY RETURNDATASIZE SWAP1 REVERT JUMPDEST DUP3 MLOAD PUSH4 0x1F2A2005 PUSH1 0xE0 SHL DUP2 MSTORE REVERT JUMPDEST DUP3 DUP1 REVERT JUMPDEST POP SWAP2 SWAP1 CALLVALUE PUSH2 0x29D JUMPI PUSH1 0x20 CALLDATASIZE PUSH1 0x3 NOT ADD SLT PUSH2 0x29D JUMPI DUP2 CALLDATALOAD PUSH2 0x2BF PUSH2 0x169D JUMP JUMPDEST DUP1 ISZERO PUSH2 0x385 JUMPI PUSH2 0x2CE CALLER PUSH2 0x1596 JUMP JUMPDEST PUSH2 0x2D7 DUP2 PUSH2 0x16FA JUMP JUMPDEST DUP3 DUP2 LT PUSH2 0x375 JUMPI SWAP1 PUSH2 0x246 DUP4 PUSH2 0x2EC SWAP4 PUSH2 0x14E8 JUMP JUMPDEST DUP2 MLOAD PUSH4 0xA9059CBB PUSH1 0xE0 SHL DUP2 MSTORE CALLER SWAP4 DUP2 ADD SWAP4 SWAP1 SWAP4 MSTORE PUSH1 0x24 DUP4 ADD MSTORE PUSH1 0x20 DUP3 PUSH1 0x44 DUP2 DUP7 PUSH32 0x0 PUSH1 0x1 PUSH1 0x1 PUSH1 0xA0 SHL SUB AND GAS CALL SWAP1 DUP2 ISZERO PUSH2 0x36C JUMPI POP PUSH2 0x34D JUMPI JUMPDEST POP PUSH1 0x1 DUP2 SSTORE DUP1 RETURN JUMPDEST PUSH2 0x365 SWAP1 PUSH1 0x20 RETURNDATASIZE PUSH1 0x20 GT PUSH2 0x27B JUMPI PUSH2 0x26C DUP2 DUP4 PUSH2 0x1397 JUMP JUMPDEST POP CODESIZE PUSH2 0x345 JUMP JUMPDEST MLOAD RETURNDATASIZE DUP5 DUP3 RETURNDATACOPY RETURNDATASIZE SWAP1 REVERT JUMPDEST POP POP POP MLOAD PUSH4 0x1E9ACF17 PUSH1 0xE3 SHL DUP2 MSTORE REVERT JUMPDEST POP MLOAD PUSH4 0x1F2A2005 PUSH1 0xE0 SHL DUP2 MSTORE REVERT JUMPDEST POP SWAP1 CALLVALUE PUSH2 0x3F3 JUMPI DUP1 PUSH1 0x3 NOT CALLDATASIZE ADD SLT PUSH2 0x3F3 JUMPI PUSH1 0x20 SWAP2 PUSH2 0x3B0 PUSH2 0x12CB JUMP JUMPDEST DUP3 PUSH2 0x3CB PUSH2 0x3C5 PUSH2 0x3BF PUSH2 0x12E6 JUMP JUMPDEST SWAP4 PUSH2 0x1623 JUMP JUMPDEST SWAP3 PUSH2 0x1623 JUMP JUMPDEST PUSH1 0x1 PUSH1 0x1 PUSH1 0xA0 SHL SUB SWAP3 DUP4 AND DUP5 MSTORE PUSH1 0x6 DUP7 MSTORE SWAP3 KECCAK256 SWAP2 AND PUSH1 0x0 SWAP1 DUP2 MSTORE SWAP1 DUP4 MSTORE DUP2 SWAP1 KECCAK256 SLOAD SWAP1 MLOAD SWAP1 DUP2 MSTORE RETURN JUMPDEST POP DUP1 REVERT JUMPDEST POP DUP1 PUSH1 0x3 NOT CALLDATASIZE ADD SLT PUSH2 0x19F JUMPI PUSH2 0x40B PUSH2 0x169D JUMP JUMPDEST PUSH2 0x24C PUSH2 0x1D5A JUMP JUMPDEST POP CALLVALUE PUSH2 0x19F JUMPI PUSH2 0x422 CALLDATASIZE PUSH2 0x13B9 JUMP JUMPDEST SWAP1 PUSH2 0x42C DUP3 PUSH2 0x1A37 JUMP JUMPDEST ISZERO PUSH2 0x477 JUMPI PUSH1 0x20 SWAP4 POP DUP3 PUSH1 0x1 DUP1 PUSH1 0xA0 SHL SUB SWAP2 DUP3 PUSH2 0x45B DUP2 DUP5 PUSH2 0x452 DUP3 DUP12 DUP11 ADD MLOAD AND PUSH2 0x1596 JUMP JUMPDEST SWAP8 ADD MLOAD AND PUSH2 0x1623 JUMP JUMPDEST SWAP5 AND DUP2 MSTORE PUSH1 0x6 DUP7 MSTORE KECCAK256 SWAP2 AND PUSH1 0x0 MSTORE DUP3 MSTORE DUP1 PUSH1 0x0 KECCAK256 SLOAD SWAP1 MLOAD SWAP1 DUP2 MSTORE RETURN JUMPDEST POP POP MLOAD PUSH4 0x3BFCDEB PUSH1 0xE2 SHL DUP2 MSTORE REVERT JUMPDEST POP SWAP2 SWAP1 CALLVALUE PUSH2 0x29D JUMPI DUP3 PUSH1 0x3 NOT CALLDATASIZE ADD SLT PUSH2 0x29D JUMPI CALLER DUP4 MSTORE PUSH1 0x3 PUSH1 0x20 MSTORE DUP3 KECCAK256 DUP1 SLOAD SWAP1 SWAP2 PUSH1 0x0 NOT DUP3 EQ PUSH2 0x4B9 JUMPI POP PUSH1 0x1 ADD SWAP1 SSTORE DUP1 RETURN JUMPDEST PUSH4 0x4E487B71 PUSH1 0xE0 SHL DUP5 MSTORE PUSH1 0x11 SWAP1 MSTORE PUSH1 0x24 DUP4 REVERT JUMPDEST DUP4 DUP6 DUP5 SWAP3 CALLVALUE PUSH2 0x754 JUMPI PUSH2 0x4DE CALLDATASIZE PUSH2 0x13B9 JUMP JUMPDEST SWAP1 PUSH2 0x4E7 PUSH2 0x169D JUMP JUMPDEST PUSH1 0xC0 DUP3 ADD SWAP2 DUP3 MLOAD SWAP3 PUSH2 0x4F8 DUP5 PUSH2 0x1C40 JUMP JUMPDEST POP PUSH1 0x80 DUP3 ADD SWAP5 DUP6 MLOAD TIMESTAMP GT PUSH2 0x746 JUMPI DUP3 MLOAD PUSH2 0x511 DUP2 PUSH2 0x1C20 JUMP JUMPDEST PUSH2 0x51A DUP2 PUSH2 0x1C20 JUMP JUMPDEST PUSH1 0x1 SUB PUSH2 0x738 JUMPI PUSH1 0xA0 DUP4 ADD SWAP2 DUP3 MLOAD SWAP5 PUSH1 0x20 SWAP8 DUP9 DUP7 ADD SWAP5 PUSH1 0x1 DUP1 PUSH1 0xA0 SHL SUB SWAP8 DUP9 DUP8 MLOAD AND PUSH1 0x0 MSTORE PUSH1 0x3 DUP12 MSTORE DUP12 PUSH1 0x0 KECCAK256 SLOAD SUB PUSH2 0x728 JUMPI DUP8 SWAP6 SWAP5 SWAP4 SWAP3 DUP12 SWAP3 DUP12 SWAP3 DUP10 MLOAD PUSH2 0x561 DUP2 PUSH2 0x1C20 JUMP JUMPDEST PUSH2 0x56A DUP2 PUSH2 0x1C20 JUMP JUMPDEST ISZERO PUSH2 0x708 JUMPI JUMPDEST PUSH1 0x3 DUP11 MLOAD PUSH2 0x57D DUP2 PUSH2 0x1C20 JUMP JUMPDEST PUSH2 0x586 DUP2 PUSH2 0x1C20 JUMP JUMPDEST EQ PUSH2 0x6CE JUMPI JUMPDEST SWAP1 DUP9 SWAP5 SWAP4 SWAP3 SWAP2 DUP11 MLOAD SWAP2 PUSH2 0x59E DUP4 PUSH2 0x1C20 JUMP JUMPDEST DUP7 DUP11 MLOAD AND SWAP12 DUP7 DUP2 ADD SWAP14 DUP15 MLOAD AND SWAP1 PUSH1 0x60 ADD SWAP13 DUP14 MLOAD SWAP3 MLOAD SWAP4 MLOAD SWAP5 DUP9 MLOAD SWAP8 DUP9 ADD SWAP9 PUSH1 0x0 DUP1 MLOAD PUSH1 0x20 PUSH2 0x1F4B DUP4 CODECOPY DUP2 MLOAD SWAP2 MSTORE DUP11 MSTORE PUSH2 0x5D6 DUP3 PUSH2 0x1C20 JUMP JUMPDEST DUP9 ADD MSTORE PUSH1 0x60 DUP8 ADD MSTORE PUSH1 0x80 DUP7 ADD MSTORE PUSH1 0xA0 DUP6 ADD MSTORE PUSH1 0xC0 DUP5 ADD MSTORE DUP2 DUP4 ADD MSTORE DUP2 MSTORE PUSH2 0x5FC DUP2 PUSH2 0x1342 JUMP JUMPDEST MLOAD SWAP1 KECCAK256 DUP2 DUP6 MLOAD AND SWAP3 MLOAD SWAP1 DUP12 MLOAD DUP12 DUP2 ADD SWAP2 PUSH2 0x1901 PUSH1 0xF0 SHL DUP4 MSTORE PUSH32 0x0 PUSH1 0x22 DUP4 ADD MSTORE PUSH1 0x42 DUP3 ADD MSTORE PUSH1 0x42 DUP2 MSTORE PUSH2 0x64C DUP2 PUSH2 0x135F JUMP JUMPDEST MLOAD SWAP1 KECCAK256 SWAP1 DUP12 DUP2 ADD MLOAD PUSH1 0xFF AND SWAP1 DUP12 DUP2 MLOAD SWAP2 ADD MLOAD SWAP2 PUSH2 0x668 SWAP4 PUSH2 0x1E2F JUMP JUMPDEST PUSH2 0x671 SWAP2 PUSH2 0x1EBF JUMP JUMPDEST AND SUB PUSH2 0x6C0 JUMPI POP SWAP3 PUSH1 0x2 SWAP6 SWAP5 SWAP3 PUSH2 0x69C DUP4 PUSH2 0x694 PUSH2 0x6A4 SWAP6 PUSH2 0x6A9 SWAP9 MLOAD AND PUSH2 0x1596 JUMP JUMPDEST SWAP4 MLOAD AND PUSH2 0x1623 JUMP JUMPDEST SWAP1 MLOAD SWAP2 PUSH2 0x1CAA JUMP JUMPDEST PUSH2 0x1C75 JUMP JUMPDEST DUP5 MSTORE MSTORE DUP2 KECCAK256 PUSH1 0x1 PUSH1 0xFF NOT DUP3 SLOAD AND OR SWAP1 SSTORE PUSH1 0x1 DUP2 SSTORE DUP1 RETURN JUMPDEST DUP8 MLOAD PUSH4 0x3BFCDEB PUSH1 0xE2 SHL DUP2 MSTORE REVERT JUMPDEST SWAP3 POP SWAP3 POP SWAP3 SWAP4 SWAP5 SWAP6 POP PUSH1 0x60 DUP8 ADD MLOAD PUSH2 0x6F8 JUMPI DUP8 DUP12 DUP9 ADD MLOAD AND PUSH2 0x6F8 JUMPI DUP8 SWAP6 SWAP5 SWAP4 SWAP3 DUP12 SWAP3 DUP12 SWAP3 PUSH2 0x58C JUMP JUMPDEST DUP11 MLOAD PUSH4 0x291DED61 PUSH1 0xE0 SHL DUP2 MSTORE DUP6 SWAP1 REVERT JUMPDEST SWAP3 POP SWAP3 POP SWAP3 SWAP4 SWAP5 SWAP6 POP PUSH1 0x60 DUP8 ADD MLOAD PUSH2 0x6F8 JUMPI DUP8 SWAP6 SWAP5 SWAP4 SWAP3 DUP12 SWAP3 DUP12 SWAP3 PUSH2 0x570 JUMP JUMPDEST DUP11 MLOAD PUSH4 0x3AB3447F PUSH1 0xE1 SHL DUP2 MSTORE DUP6 SWAP1 REVERT JUMPDEST DUP7 MLOAD PUSH4 0x51055569 PUSH1 0xE0 SHL DUP2 MSTORE REVERT JUMPDEST DUP7 MLOAD PUSH4 0xF87D9271 PUSH1 0xE0 SHL DUP2 MSTORE REVERT JUMPDEST DUP4 DUP1 REVERT JUMPDEST DUP3 DUP5 CALLVALUE PUSH2 0x3F3 JUMPI DUP1 PUSH1 0x3 NOT CALLDATASIZE ADD SLT PUSH2 0x3F3 JUMPI PUSH1 0x20 SWAP1 PUSH2 0x793 PUSH2 0x778 PUSH2 0x12CB JUMP JUMPDEST PUSH2 0x781 CALLER PUSH2 0x1596 JUMP JUMPDEST PUSH2 0x78D PUSH1 0x24 CALLDATALOAD SWAP3 PUSH2 0x1623 JUMP JUMPDEST SWAP1 PUSH2 0x1CAA JUMP JUMPDEST MLOAD PUSH1 0x1 DUP2 MSTORE RETURN JUMPDEST DUP3 DUP6 DUP6 CALLVALUE PUSH2 0x29D JUMPI DUP3 PUSH1 0x3 NOT CALLDATASIZE ADD SLT PUSH2 0x29D JUMPI DUP1 MLOAD PUSH4 0x95D89B41 PUSH1 0xE0 SHL DUP2 MSTORE SWAP2 DUP4 SWAP1 DUP4 SWAP1 DUP2 PUSH32 0x0 PUSH1 0x1 PUSH1 0x1 PUSH1 0xA0 SHL SUB AND GAS STATICCALL SWAP2 DUP3 ISZERO PUSH2 0x877 JUMPI DUP4 PUSH2 0x84E SWAP5 SWAP4 PUSH2 0x852 JUMPI JUMPDEST POP POP PUSH2 0x83C PUSH1 0x28 DUP3 MLOAD DUP5 PUSH2 0x81B DUP3 SWAP7 MLOAD DUP1 SWAP3 PUSH1 0x20 DUP1 DUP7 ADD SWAP2 ADD PUSH2 0x1283 JUMP JUMPDEST DUP2 ADD PUSH8 0x2E50726976616379 PUSH1 0xC0 SHL PUSH1 0x20 DUP3 ADD MSTORE SUB PUSH1 0x8 DUP2 ADD DUP6 MSTORE ADD DUP4 PUSH2 0x1397 JUMP JUMPDEST MLOAD SWAP2 DUP3 SWAP2 PUSH1 0x20 DUP4 MSTORE PUSH1 0x20 DUP4 ADD SWAP1 PUSH2 0x12A6 JUMP JUMPDEST SUB SWAP1 RETURN JUMPDEST PUSH2 0x86F SWAP3 SWAP4 POP RETURNDATASIZE DUP1 SWAP2 DUP4 RETURNDATACOPY PUSH2 0x867 DUP2 DUP4 PUSH2 0x1397 JUMP JUMPDEST DUP2 ADD SWAP1 PUSH2 0x1486 JUMP JUMPDEST SWAP1 DUP4 DUP1 PUSH2 0x7FD JUMP JUMPDEST DUP2 MLOAD RETURNDATASIZE DUP6 DUP3 RETURNDATACOPY RETURNDATASIZE SWAP1 REVERT JUMPDEST DUP4 DUP6 DUP5 SWAP3 CALLVALUE PUSH2 0x754 JUMPI PUSH2 0x893 CALLDATASIZE PUSH2 0x13B9 JUMP JUMPDEST SWAP1 PUSH2 0x89C PUSH2 0x169D JUMP JUMPDEST PUSH1 0xC0 DUP3 ADD SWAP2 DUP3 MLOAD SWAP3 PUSH2 0x8AD DUP5 PUSH2 0x1C40 JUMP JUMPDEST POP PUSH1 0x80 DUP3 ADD SWAP5 DUP6 MLOAD TIMESTAMP GT PUSH2 0x746 JUMPI DUP3 MLOAD PUSH2 0x8C6 DUP2 PUSH2 0x1C20 JUMP JUMPDEST PUSH2 0x8CF DUP2 PUSH2 0x1C20 JUMP JUMPDEST PUSH1 0x2 SUB PUSH2 0x738 JUMPI PUSH1 0xA0 DUP4 ADD SWAP2 DUP3 MLOAD SWAP5 PUSH1 0x20 SWAP8 DUP9 DUP7 ADD SWAP5 PUSH1 0x1 DUP1 PUSH1 0xA0 SHL SUB SWAP8 DUP9 DUP8 MLOAD AND PUSH1 0x0 MSTORE PUSH1 0x3 DUP12 MSTORE DUP12 PUSH1 0x0 KECCAK256 SLOAD SUB PUSH2 0x728 JUMPI DUP8 SWAP6 SWAP5 SWAP4 SWAP3 DUP12 SWAP3 DUP12 SWAP3 DUP10 MLOAD PUSH2 0x916 DUP2 PUSH2 0x1C20 JUMP JUMPDEST PUSH2 0x91F DUP2 PUSH2 0x1C20 JUMP JUMPDEST ISZERO PUSH2 0xA7B JUMPI JUMPDEST PUSH1 0x3 DUP11 MLOAD PUSH2 0x932 DUP2 PUSH2 0x1C20 JUMP JUMPDEST PUSH2 0x93B DUP2 PUSH2 0x1C20 JUMP JUMPDEST EQ PUSH2 0xA51 JUMPI JUMPDEST SWAP1 DUP9 SWAP5 SWAP4 SWAP3 SWAP2 DUP11 MLOAD SWAP2 PUSH2 0x953 DUP4 PUSH2 0x1C20 JUMP JUMPDEST DUP7 DUP11 MLOAD AND SWAP12 DUP7 DUP2 ADD SWAP14 DUP15 MLOAD AND SWAP1 PUSH1 0x60 ADD SWAP13 DUP14 MLOAD SWAP3 MLOAD SWAP4 MLOAD SWAP5 DUP9 MLOAD SWAP8 DUP9 ADD SWAP9 PUSH1 0x0 DUP1 MLOAD PUSH1 0x20 PUSH2 0x1F4B DUP4 CODECOPY DUP2 MLOAD SWAP2 MSTORE DUP11 MSTORE PUSH2 0x98B DUP3 PUSH2 0x1C20 JUMP JUMPDEST DUP9 ADD MSTORE PUSH1 0x60 DUP8 ADD MSTORE PUSH1 0x80 DUP7 ADD MSTORE PUSH1 0xA0 DUP6 ADD MSTORE PUSH1 0xC0 DUP5 ADD MSTORE DUP2 DUP4 ADD MSTORE DUP2 MSTORE PUSH2 0x9B1 DUP2 PUSH2 0x1342 JUMP JUMPDEST MLOAD SWAP1 KECCAK256 DUP2 DUP6 MLOAD AND SWAP3 MLOAD SWAP1 DUP12 MLOAD DUP12 DUP2 ADD SWAP2 PUSH2 0x1901 PUSH1 0xF0 SHL DUP4 MSTORE PUSH32 0x0 PUSH1 0x22 DUP4 ADD MSTORE PUSH1 0x42 DUP3 ADD MSTORE PUSH1 0x42 DUP2 MSTORE PUSH2 0xA01 DUP2 PUSH2 0x135F JUMP JUMPDEST MLOAD SWAP1 KECCAK256 SWAP1 DUP12 DUP2 ADD MLOAD PUSH1 0xFF AND SWAP1 DUP12 DUP2 MLOAD SWAP2 ADD MLOAD SWAP2 PUSH2 0xA1D SWAP4 PUSH2 0x1E2F JUMP JUMPDEST PUSH2 0xA26 SWAP2 PUSH2 0x1EBF JUMP JUMPDEST AND SUB PUSH2 0x6C0 JUMPI POP SWAP3 PUSH1 0x2 SWAP6 SWAP5 SWAP3 PUSH2 0xA49 DUP4 PUSH2 0x694 PUSH2 0x6A4 SWAP6 PUSH2 0x6A9 SWAP9 MLOAD AND PUSH2 0x1596 JUMP JUMPDEST SWAP1 MLOAD SWAP2 PUSH2 0x1635 JUMP JUMPDEST SWAP3 POP SWAP3 POP SWAP3 SWAP4 SWAP5 SWAP6 POP PUSH1 0x60 DUP8 ADD MLOAD PUSH2 0x6F8 JUMPI DUP8 DUP12 DUP9 ADD MLOAD AND PUSH2 0x6F8 JUMPI DUP8 SWAP6 SWAP5 SWAP4 SWAP3 DUP12 SWAP3 DUP12 SWAP3 PUSH2 0x941 JUMP JUMPDEST SWAP3 POP SWAP3 POP SWAP3 SWAP4 SWAP5 SWAP6 POP PUSH1 0x60 DUP8 ADD MLOAD PUSH2 0x6F8 JUMPI DUP8 SWAP6 SWAP5 SWAP4 SWAP3 DUP12 SWAP3 DUP12 SWAP3 PUSH2 0x925 JUMP JUMPDEST POP POP SWAP2 CALLVALUE PUSH2 0x29D JUMPI PUSH1 0x60 CALLDATASIZE PUSH1 0x3 NOT ADD SLT PUSH2 0x29D JUMPI DUP2 PUSH1 0x20 SWAP4 PUSH2 0xADB PUSH1 0xFF SWAP4 DUP4 MLOAD SWAP1 PUSH2 0xAC5 DUP3 PUSH2 0x1326 JUMP JUMPDEST CALLDATALOAD DUP2 MSTORE PUSH1 0x24 CALLDATALOAD DUP8 DUP3 ADD MSTORE PUSH1 0x44 CALLDATALOAD DUP5 DUP3 ADD MSTORE PUSH2 0x1C75 JUMP JUMPDEST DUP2 MSTORE PUSH1 0x2 DUP6 MSTORE KECCAK256 SLOAD AND SWAP1 MLOAD SWAP1 ISZERO ISZERO DUP2 MSTORE RETURN JUMPDEST DUP3 DUP5 CALLVALUE PUSH2 0x3F3 JUMPI PUSH1 0x20 CALLDATASIZE PUSH1 0x3 NOT ADD SLT PUSH2 0x3F3 JUMPI PUSH1 0x20 SWAP2 DUP2 SWAP1 PUSH1 0x1 PUSH1 0x1 PUSH1 0xA0 SHL SUB PUSH2 0xB15 PUSH2 0x12CB JUMP JUMPDEST AND DUP2 MSTORE PUSH1 0x3 DUP5 MSTORE KECCAK256 SLOAD SWAP1 MLOAD SWAP1 DUP2 MSTORE RETURN JUMPDEST SWAP2 SWAP1 POP CALLVALUE PUSH2 0x19F JUMPI POP PUSH2 0xB37 CALLDATASIZE PUSH2 0x13B9 JUMP JUMPDEST PUSH1 0x80 DUP2 ADD SWAP4 DUP5 MLOAD TIMESTAMP GT PUSH2 0xD41 JUMPI DUP2 MLOAD PUSH2 0xB4F DUP2 PUSH2 0x1C20 JUMP JUMPDEST PUSH2 0xB58 DUP2 PUSH2 0x1C20 JUMP JUMPDEST PUSH1 0x3 SUB PUSH2 0xD33 JUMPI PUSH1 0xA0 DUP3 ADD SWAP2 DUP3 MLOAD SWAP4 PUSH1 0x20 SWAP7 DUP8 DUP4 ADD SWAP5 PUSH1 0x1 DUP1 PUSH1 0xA0 SHL SUB SWAP7 DUP8 DUP8 MLOAD AND PUSH1 0x0 MSTORE PUSH1 0x3 DUP11 MSTORE DUP9 PUSH1 0x0 KECCAK256 SLOAD SUB PUSH2 0xD23 JUMPI DUP7 SWAP3 DUP9 SWAP3 DUP11 SWAP3 DUP7 MLOAD PUSH2 0xB9C DUP2 PUSH2 0x1C20 JUMP JUMPDEST PUSH2 0xBA5 DUP2 PUSH2 0x1C20 JUMP JUMPDEST ISZERO PUSH2 0xD09 JUMPI JUMPDEST PUSH1 0x3 DUP8 MLOAD PUSH2 0xBB8 DUP2 PUSH2 0x1C20 JUMP JUMPDEST PUSH2 0xBC1 DUP2 PUSH2 0x1C20 JUMP JUMPDEST EQ PUSH2 0xCD5 JUMPI JUMPDEST SWAP2 PUSH2 0xCA3 SWAP4 SWAP2 PUSH2 0xCAC SWAP6 SWAP4 DUP9 MLOAD SWAP2 PUSH2 0xBDE DUP4 PUSH2 0x1C20 JUMP JUMPDEST DUP9 DUP13 MLOAD AND DUP10 DUP8 DUP13 ADD MLOAD AND SWAP1 PUSH1 0x60 DUP13 ADD MLOAD SWAP3 MLOAD SWAP4 MLOAD SWAP5 DUP9 MLOAD SWAP8 DUP9 ADD SWAP9 PUSH1 0x0 DUP1 MLOAD PUSH1 0x20 PUSH2 0x1F4B DUP4 CODECOPY DUP2 MLOAD SWAP2 MSTORE DUP11 MSTORE PUSH2 0xC13 DUP3 PUSH2 0x1C20 JUMP JUMPDEST DUP9 ADD MSTORE PUSH1 0x60 DUP8 ADD MSTORE PUSH1 0x80 DUP7 ADD MSTORE PUSH1 0xA0 DUP6 ADD MSTORE PUSH1 0xC0 DUP5 ADD MSTORE DUP2 DUP4 ADD MSTORE DUP2 MSTORE PUSH2 0xC39 DUP2 PUSH2 0x1342 JUMP JUMPDEST MLOAD SWAP1 KECCAK256 PUSH1 0xC0 DUP5 DUP9 MLOAD AND SWAP6 ADD MLOAD SWAP1 DUP10 MLOAD DUP12 DUP2 ADD SWAP2 PUSH2 0x1901 PUSH1 0xF0 SHL DUP4 MSTORE PUSH32 0x0 PUSH1 0x22 DUP4 ADD MSTORE PUSH1 0x42 DUP3 ADD MSTORE PUSH1 0x42 DUP2 MSTORE PUSH2 0xC8C DUP2 PUSH2 0x135F JUMP JUMPDEST MLOAD SWAP1 KECCAK256 SWAP1 PUSH1 0xFF DUP11 DUP3 ADD MLOAD AND DUP12 DUP3 MLOAD SWAP3 ADD MLOAD SWAP3 PUSH2 0x1E2F JUMP JUMPDEST SWAP1 SWAP3 SWAP2 SWAP3 PUSH2 0x1EBF JUMP JUMPDEST AND SUB PUSH2 0xCC7 JUMPI POP DUP2 PUSH2 0xCBF SWAP2 MLOAD AND PUSH2 0x1596 JUMP JUMPDEST SWAP2 MLOAD SWAP2 AND DUP2 MSTORE RETURN JUMPDEST DUP4 MLOAD PUSH4 0x3BFCDEB PUSH1 0xE2 SHL DUP2 MSTORE REVERT JUMPDEST SWAP3 POP SWAP3 POP SWAP3 POP PUSH1 0x60 DUP5 ADD MLOAD PUSH2 0xCF9 JUMPI DUP7 DUP9 DUP6 ADD MLOAD AND PUSH2 0xCF9 JUMPI DUP7 SWAP3 DUP9 SWAP3 DUP11 SWAP3 PUSH2 0xBC7 JUMP JUMPDEST DUP8 MLOAD PUSH4 0x291DED61 PUSH1 0xE0 SHL DUP2 MSTORE DUP6 SWAP1 REVERT JUMPDEST SWAP3 POP SWAP3 POP SWAP3 POP PUSH1 0x60 DUP5 ADD MLOAD PUSH2 0xCF9 JUMPI DUP7 SWAP3 DUP9 SWAP3 DUP11 SWAP3 PUSH2 0xBAB JUMP JUMPDEST DUP8 MLOAD PUSH4 0x3AB3447F PUSH1 0xE1 SHL DUP2 MSTORE DUP6 SWAP1 REVERT JUMPDEST DUP4 MLOAD PUSH4 0x51055569 PUSH1 0xE0 SHL DUP2 MSTORE REVERT JUMPDEST DUP4 MLOAD PUSH4 0xF87D9271 PUSH1 0xE0 SHL DUP2 MSTORE REVERT JUMPDEST DUP3 DUP5 CALLVALUE PUSH2 0x3F3 JUMPI PUSH1 0x20 CALLDATASIZE PUSH1 0x3 NOT ADD SLT PUSH2 0x3F3 JUMPI PUSH1 0x20 SWAP1 PUSH2 0x18A PUSH2 0xD70 PUSH2 0x12CB JUMP JUMPDEST PUSH2 0x153B JUMP JUMPDEST DUP3 DUP5 CALLVALUE PUSH2 0x3F3 JUMPI DUP2 PUSH1 0x3 NOT CALLDATASIZE ADD SLT PUSH2 0x3F3 JUMPI PUSH1 0x20 SWAP1 MLOAD PUSH32 0x0 DUP2 MSTORE RETURN JUMPDEST POP POP CALLVALUE PUSH2 0x19F JUMPI DUP1 PUSH1 0x3 NOT CALLDATASIZE ADD SLT PUSH2 0x19F JUMPI DUP2 MLOAD PUSH4 0x313CE567 PUSH1 0xE0 SHL DUP2 MSTORE SWAP3 PUSH1 0x20 SWAP1 DUP5 SWAP1 DUP2 PUSH32 0x0 PUSH1 0x1 PUSH1 0x1 PUSH1 0xA0 SHL SUB AND GAS STATICCALL SWAP3 DUP4 ISZERO PUSH2 0xE5E JUMPI DUP2 SWAP4 PUSH2 0xE1C JUMPI JUMPDEST PUSH1 0x20 DUP5 PUSH1 0xFF DUP6 MLOAD SWAP2 AND DUP2 MSTORE RETURN JUMPDEST SWAP1 SWAP3 POP PUSH1 0x20 DUP2 RETURNDATASIZE PUSH1 0x20 GT PUSH2 0xE56 JUMPI JUMPDEST DUP2 PUSH2 0xE38 PUSH1 0x20 SWAP4 DUP4 PUSH2 0x1397 JUMP JUMPDEST DUP2 ADD SUB SLT PUSH2 0x29D JUMPI MLOAD SWAP2 PUSH1 0xFF DUP4 AND DUP4 SUB PUSH2 0x19F JUMPI POP PUSH1 0xFF PUSH1 0x20 PUSH2 0xE0F JUMP JUMPDEST RETURNDATASIZE SWAP2 POP PUSH2 0xE2B JUMP JUMPDEST POP SWAP1 MLOAD SWAP1 RETURNDATASIZE SWAP1 DUP3 RETURNDATACOPY RETURNDATASIZE SWAP1 REVERT JUMPDEST POP POP SWAP2 CALLVALUE PUSH2 0x29D JUMPI PUSH1 0x20 CALLDATASIZE PUSH1 0x3 NOT ADD SLT PUSH2 0x29D JUMPI DUP1 CALLDATALOAD SWAP2 PUSH2 0xE89 PUSH2 0x169D JUMP JUMPDEST DUP3 ISZERO PUSH2 0xF7E JUMPI PUSH2 0xE98 CALLER PUSH2 0x1596 JUMP JUMPDEST SWAP3 PUSH2 0xEA2 DUP5 PUSH2 0x16FA JUMP JUMPDEST SWAP4 DUP2 DUP6 LT PUSH2 0xF6F JUMPI PUSH2 0xEC6 SWAP1 PUSH2 0x246 DUP4 PUSH1 0xFF NOT SWAP8 PUSH1 0x1 DUP10 PUSH1 0x7 SLOAD AND OR PUSH1 0x7 SSTORE PUSH2 0x14E8 JUMP JUMPDEST DUP5 PUSH32 0x0 PUSH1 0x1 PUSH1 0x1 PUSH1 0xA0 SHL SUB AND DUP1 EXTCODESIZE ISZERO PUSH2 0x3F3 JUMPI DUP2 SWAP1 PUSH1 0x24 DUP6 MLOAD DUP1 SWAP5 DUP2 SWAP4 PUSH4 0x2E1A7D4D PUSH1 0xE0 SHL DUP4 MSTORE DUP8 DUP11 DUP5 ADD MSTORE GAS CALL DUP1 ISZERO PUSH2 0xF65 JUMPI PUSH2 0xF52 JUMPI JUMPDEST POP DUP5 DUP1 DUP1 DUP1 SWAP4 CALLER GAS CALL PUSH2 0xF2F PUSH2 0x150B JUMP JUMPDEST POP ISZERO PUSH2 0xF45 JUMPI POP POP PUSH1 0x7 SLOAD AND PUSH1 0x7 SSTORE PUSH1 0x1 DUP2 SSTORE DUP1 RETURN JUMPDEST MLOAD PUSH4 0x12171D83 PUSH1 0xE3 SHL DUP2 MSTORE REVERT JUMPDEST PUSH2 0xF5E SWAP1 SWAP6 SWAP2 SWAP6 PUSH2 0x12FC JUMP JUMPDEST SWAP4 CODESIZE PUSH2 0xF1E JUMP JUMPDEST DUP4 MLOAD RETURNDATASIZE DUP9 DUP3 RETURNDATACOPY RETURNDATASIZE SWAP1 REVERT JUMPDEST POP POP MLOAD PUSH4 0x1E9ACF17 PUSH1 0xE3 SHL DUP2 MSTORE REVERT JUMPDEST MLOAD PUSH4 0x1F2A2005 PUSH1 0xE0 SHL DUP2 MSTORE REVERT JUMPDEST DUP3 DUP5 CALLVALUE PUSH2 0x3F3 JUMPI DUP2 PUSH1 0x3 NOT CALLDATASIZE ADD SLT PUSH2 0x3F3 JUMPI MLOAD PUSH32 0x0 PUSH1 0x1 PUSH1 0x1 PUSH1 0xA0 SHL SUB AND DUP2 MSTORE PUSH1 0x20 SWAP1 RETURN JUMPDEST POP POP SWAP2 CALLVALUE PUSH2 0x29D JUMPI PUSH1 0x60 CALLDATASIZE PUSH1 0x3 NOT ADD SLT PUSH2 0x29D JUMPI PUSH2 0xFEB PUSH2 0x12CB JUMP JUMPDEST SWAP3 PUSH2 0xFF4 PUSH2 0x12E6 JUMP JUMPDEST PUSH1 0x44 CALLDATALOAD SWAP3 DUP5 PUSH2 0x100E PUSH2 0x3BF PUSH2 0x1008 CALLER PUSH2 0x1596 JUMP JUMPDEST SWAP9 PUSH2 0x1623 JUMP JUMPDEST PUSH1 0x1 PUSH1 0x1 PUSH1 0xA0 SHL SUB DUP5 DUP2 AND DUP7 MSTORE PUSH1 0x6 PUSH1 0x20 SWAP1 DUP2 MSTORE DUP4 DUP8 KECCAK256 SWAP2 DUP11 AND DUP8 MSTORE MSTORE SWAP4 KECCAK256 SLOAD SWAP1 PUSH1 0x0 NOT DUP3 LT PUSH2 0x1047 JUMPI JUMPDEST PUSH1 0x20 DUP7 PUSH2 0x793 DUP8 DUP8 DUP8 PUSH2 0x1CAA JUMP JUMPDEST DUP5 DUP3 LT PUSH2 0x106E JUMPI POP SWAP1 PUSH2 0x1065 PUSH1 0x20 SWAP7 DUP6 PUSH2 0x793 SWAP7 SWAP6 SWAP5 SUB SWAP1 DUP4 PUSH2 0x1635 JUMP JUMPDEST SWAP1 SWAP2 SWAP3 CODESIZE PUSH2 0x1039 JUMP JUMPDEST DUP6 MLOAD PUSH4 0x7DC7A0D9 PUSH1 0xE1 SHL DUP2 MSTORE PUSH1 0x1 PUSH1 0x1 PUSH1 0xA0 SHL SUB DUP9 AND SWAP2 DUP2 ADD SWAP2 DUP3 MSTORE PUSH1 0x20 DUP3 ADD SWAP3 SWAP1 SWAP3 MSTORE PUSH1 0x40 DUP2 ADD DUP6 SWAP1 MSTORE DUP2 SWAP1 PUSH1 0x60 ADD SUB SWAP1 REVERT JUMPDEST DUP3 DUP6 DUP6 CALLVALUE PUSH2 0x29D JUMPI DUP3 PUSH1 0x3 NOT CALLDATASIZE ADD SLT PUSH2 0x29D JUMPI DUP1 MLOAD PUSH4 0x70A08231 PUSH1 0xE0 SHL DUP2 MSTORE ADDRESS SWAP3 DUP2 ADD SWAP3 SWAP1 SWAP3 MSTORE PUSH1 0x20 DUP3 PUSH1 0x24 DUP2 PUSH32 0x0 PUSH1 0x1 PUSH1 0x1 PUSH1 0xA0 SHL SUB AND GAS STATICCALL SWAP2 DUP3 ISZERO PUSH2 0x877 JUMPI DUP4 SWAP3 PUSH2 0x1113 JUMPI JUMPDEST PUSH1 0x20 DUP4 DUP4 MLOAD SWAP1 DUP2 MSTORE RETURN JUMPDEST SWAP1 SWAP2 POP PUSH1 0x20 DUP2 RETURNDATASIZE PUSH1 0x20 GT PUSH2 0x1143 JUMPI JUMPDEST DUP2 PUSH2 0x112F PUSH1 0x20 SWAP4 DUP4 PUSH2 0x1397 JUMP JUMPDEST DUP2 ADD SUB SLT PUSH2 0x29D JUMPI PUSH1 0x20 SWAP3 POP MLOAD SWAP1 DUP4 PUSH2 0x1109 JUMP JUMPDEST RETURNDATASIZE SWAP2 POP PUSH2 0x1122 JUMP JUMPDEST DUP3 DUP5 CALLVALUE PUSH2 0x3F3 JUMPI DUP1 PUSH1 0x3 NOT CALLDATASIZE ADD SLT PUSH2 0x3F3 JUMPI PUSH1 0x20 SWAP1 PUSH2 0x793 PUSH2 0x116B PUSH2 0x12CB JUMP JUMPDEST PUSH2 0x1174 CALLER PUSH2 0x1596 JUMP JUMPDEST PUSH2 0x1180 PUSH1 0x24 CALLDATALOAD SWAP3 PUSH2 0x1623 JUMP JUMPDEST SWAP1 PUSH2 0x1635 JUMP JUMPDEST DUP3 DUP6 DUP6 CALLVALUE PUSH2 0x29D JUMPI DUP3 PUSH1 0x3 NOT CALLDATASIZE ADD SLT PUSH2 0x29D JUMPI DUP1 MLOAD PUSH4 0x6FDDE03 PUSH1 0xE0 SHL DUP2 MSTORE SWAP2 DUP4 SWAP1 DUP4 SWAP1 DUP2 PUSH32 0x0 PUSH1 0x1 PUSH1 0x1 PUSH1 0xA0 SHL SUB AND GAS STATICCALL SWAP2 DUP3 ISZERO PUSH2 0x877 JUMPI DUP4 PUSH2 0x84E SWAP5 SWAP4 PUSH2 0x123E JUMPI JUMPDEST POP POP PUSH2 0x83C PUSH1 0x34 DUP3 MLOAD DUP1 SWAP5 PUSH8 0x283934BB30B1BC9 PUSH1 0xC5 SHL PUSH1 0x20 DUP4 ADD MSTORE PUSH2 0x1219 DUP2 MLOAD DUP1 SWAP3 PUSH1 0x20 PUSH1 0x28 DUP7 ADD SWAP2 ADD PUSH2 0x1283 JUMP JUMPDEST DUP2 ADD PUSH12 0x81DDA5D1A08155CD95C9259 PUSH1 0xA2 SHL PUSH1 0x28 DUP3 ADD MSTORE SUB PUSH1 0x14 DUP2 ADD DUP6 MSTORE ADD DUP4 PUSH2 0x1397 JUMP JUMPDEST PUSH2 0x1253 SWAP3 SWAP4 POP RETURNDATASIZE DUP1 SWAP2 DUP4 RETURNDATACOPY PUSH2 0x867 DUP2 DUP4 PUSH2 0x1397 JUMP JUMPDEST SWAP1 DUP4 DUP1 PUSH2 0x11E9 JUMP JUMPDEST DUP4 SWAP1 CALLVALUE PUSH2 0x3F3 JUMPI DUP2 PUSH1 0x3 NOT CALLDATASIZE ADD SLT PUSH2 0x3F3 JUMPI DUP1 PUSH1 0x0 DUP1 MLOAD PUSH1 0x20 PUSH2 0x1F4B DUP4 CODECOPY DUP2 MLOAD SWAP2 MSTORE PUSH1 0x20 SWAP3 MSTORE RETURN JUMPDEST PUSH1 0x0 JUMPDEST DUP4 DUP2 LT PUSH2 0x1296 JUMPI POP POP PUSH1 0x0 SWAP2 ADD MSTORE JUMP JUMPDEST DUP2 DUP2 ADD MLOAD DUP4 DUP3 ADD MSTORE PUSH1 0x20 ADD PUSH2 0x1286 JUMP JUMPDEST SWAP1 PUSH1 0x20 SWAP2 PUSH2 0x12BF DUP2 MLOAD DUP1 SWAP3 DUP2 DUP6 MSTORE DUP6 DUP1 DUP7 ADD SWAP2 ADD PUSH2 0x1283 JUMP JUMPDEST PUSH1 0x1F ADD PUSH1 0x1F NOT AND ADD ADD SWAP1 JUMP JUMPDEST PUSH1 0x4 CALLDATALOAD SWAP1 PUSH1 0x1 PUSH1 0x1 PUSH1 0xA0 SHL SUB DUP3 AND DUP3 SUB PUSH2 0x12E1 JUMPI JUMP JUMPDEST PUSH1 0x0 DUP1 REVERT JUMPDEST PUSH1 0x24 CALLDATALOAD SWAP1 PUSH1 0x1 PUSH1 0x1 PUSH1 0xA0 SHL SUB DUP3 AND DUP3 SUB PUSH2 0x12E1 JUMPI JUMP JUMPDEST PUSH8 0xFFFFFFFFFFFFFFFF DUP2 GT PUSH2 0x1310 JUMPI PUSH1 0x40 MSTORE JUMP JUMPDEST PUSH4 0x4E487B71 PUSH1 0xE0 SHL PUSH1 0x0 MSTORE PUSH1 0x41 PUSH1 0x4 MSTORE PUSH1 0x24 PUSH1 0x0 REVERT JUMPDEST PUSH1 0x60 DUP2 ADD SWAP1 DUP2 LT PUSH8 0xFFFFFFFFFFFFFFFF DUP3 GT OR PUSH2 0x1310 JUMPI PUSH1 0x40 MSTORE JUMP JUMPDEST PUSH2 0x100 DUP2 ADD SWAP1 DUP2 LT PUSH8 0xFFFFFFFFFFFFFFFF DUP3 GT OR PUSH2 0x1310 JUMPI PUSH1 0x40 MSTORE JUMP JUMPDEST PUSH1 0x80 DUP2 ADD SWAP1 DUP2 LT PUSH8 0xFFFFFFFFFFFFFFFF DUP3 GT OR PUSH2 0x1310 JUMPI PUSH1 0x40 MSTORE JUMP JUMPDEST PUSH1 0x20 DUP2 ADD SWAP1 DUP2 LT PUSH8 0xFFFFFFFFFFFFFFFF DUP3 GT OR PUSH2 0x1310 JUMPI PUSH1 0x40 MSTORE JUMP JUMPDEST SWAP1 PUSH1 0x1F DUP1 NOT SWAP2 ADD AND DUP2 ADD SWAP1 DUP2 LT PUSH8 0xFFFFFFFFFFFFFFFF DUP3 GT OR PUSH2 0x1310 JUMPI PUSH1 0x40 MSTORE JUMP JUMPDEST PUSH2 0x120 PUSH1 0x3 NOT DUP3 ADD SLT PUSH2 0x12E1 JUMPI PUSH1 0x40 MLOAD SWAP1 PUSH1 0xE0 DUP3 ADD DUP3 DUP2 LT PUSH8 0xFFFFFFFFFFFFFFFF DUP3 GT OR PUSH2 0x1310 JUMPI PUSH1 0x40 MSTORE PUSH1 0x4 CALLDATALOAD PUSH1 0x4 DUP2 LT ISZERO PUSH2 0x12E1 JUMPI DUP3 MSTORE PUSH1 0x1 PUSH1 0x1 PUSH1 0xA0 SHL SUB SWAP1 PUSH1 0x24 CALLDATALOAD DUP3 DUP2 AND DUP2 SUB PUSH2 0x12E1 JUMPI PUSH1 0x20 DUP5 ADD MSTORE PUSH1 0x44 CALLDATALOAD SWAP2 DUP3 AND DUP3 SUB PUSH2 0x12E1 JUMPI PUSH1 0x60 SWAP2 PUSH1 0x40 DUP5 ADD MSTORE PUSH1 0x64 CALLDATALOAD DUP3 DUP5 ADD MSTORE PUSH1 0x84 CALLDATALOAD PUSH1 0x80 DUP5 ADD MSTORE PUSH1 0xA4 CALLDATALOAD PUSH1 0xA0 DUP5 ADD MSTORE PUSH1 0xC3 NOT ADD SLT PUSH2 0x12E1 JUMPI PUSH1 0x40 MLOAD PUSH2 0x144C DUP2 PUSH2 0x1326 JUMP JUMPDEST PUSH1 0xC4 CALLDATALOAD DUP2 MSTORE PUSH1 0xE4 CALLDATALOAD PUSH1 0x20 DUP3 ADD MSTORE PUSH2 0x104 CALLDATALOAD PUSH1 0x40 DUP3 ADD MSTORE PUSH1 0xC0 DUP3 ADD MSTORE SWAP1 JUMP JUMPDEST PUSH8 0xFFFFFFFFFFFFFFFF DUP2 GT PUSH2 0x1310 JUMPI PUSH1 0x1F ADD PUSH1 0x1F NOT AND PUSH1 0x20 ADD SWAP1 JUMP JUMPDEST PUSH1 0x20 DUP2 DUP4 SUB SLT PUSH2 0x12E1 JUMPI DUP1 MLOAD SWAP1 PUSH8 0xFFFFFFFFFFFFFFFF DUP3 GT PUSH2 0x12E1 JUMPI ADD DUP2 PUSH1 0x1F DUP3 ADD SLT ISZERO PUSH2 0x12E1 JUMPI DUP1 MLOAD PUSH2 0x14B9 DUP2 PUSH2 0x146A JUMP JUMPDEST SWAP3 PUSH2 0x14C7 PUSH1 0x40 MLOAD SWAP5 DUP6 PUSH2 0x1397 JUMP JUMPDEST DUP2 DUP5 MSTORE PUSH1 0x20 DUP3 DUP5 ADD ADD GT PUSH2 0x12E1 JUMPI PUSH2 0x14E5 SWAP2 PUSH1 0x20 DUP1 DUP6 ADD SWAP2 ADD PUSH2 0x1283 JUMP JUMPDEST SWAP1 JUMP JUMPDEST SWAP2 SWAP1 DUP3 SUB SWAP2 DUP3 GT PUSH2 0x14F5 JUMPI JUMP JUMPDEST PUSH4 0x4E487B71 PUSH1 0xE0 SHL PUSH1 0x0 MSTORE PUSH1 0x11 PUSH1 0x4 MSTORE PUSH1 0x24 PUSH1 0x0 REVERT JUMPDEST RETURNDATASIZE ISZERO PUSH2 0x1536 JUMPI RETURNDATASIZE SWAP1 PUSH2 0x151C DUP3 PUSH2 0x146A JUMP JUMPDEST SWAP2 PUSH2 0x152A PUSH1 0x40 MLOAD SWAP4 DUP5 PUSH2 0x1397 JUMP JUMPDEST DUP3 MSTORE RETURNDATASIZE PUSH1 0x0 PUSH1 0x20 DUP5 ADD RETURNDATACOPY JUMP JUMPDEST PUSH1 0x60 SWAP1 JUMP JUMPDEST DUP1 EXTCODESIZE ISZERO DUP1 ISZERO SWAP1 PUSH2 0x155F JUMPI JUMPDEST PUSH2 0x1553 JUMPI PUSH2 0x14E5 SWAP1 PUSH2 0x16FA JUMP JUMPDEST PUSH2 0x185 PUSH2 0x14E5 SWAP2 PUSH2 0x1596 JUMP JUMPDEST POP PUSH1 0x1 PUSH1 0x1 PUSH1 0xA0 SHL SUB DUP2 AND CALLER EQ PUSH2 0x1546 JUMP JUMPDEST SWAP1 DUP2 PUSH1 0x20 SWAP2 SUB SLT PUSH2 0x12E1 JUMPI MLOAD DUP1 ISZERO ISZERO DUP2 SUB PUSH2 0x12E1 JUMPI SWAP1 JUMP JUMPDEST SWAP2 SWAP1 DUP3 ADD DUP1 SWAP3 GT PUSH2 0x14F5 JUMPI JUMP JUMPDEST PUSH1 0x1 PUSH1 0x1 PUSH1 0xA0 SHL SUB SWAP1 DUP1 DUP3 AND ISZERO PUSH2 0x1611 JUMPI PUSH1 0x1 SLOAD SWAP1 DUP2 ISZERO PUSH2 0x15FF JUMPI PUSH1 0x40 MLOAD SWAP1 PUSH1 0x20 DUP3 ADD SWAP3 PUSH14 0x5669727475616C41646472657373 PUSH1 0x90 SHL DUP5 MSTORE PUSH1 0x2E DUP4 ADD MSTORE PUSH12 0xFFFFFFFFFFFFFFFFFFFFFFFF NOT SWAP1 PUSH1 0x60 SHL AND PUSH1 0x4E DUP3 ADD MSTORE PUSH1 0x42 DUP2 MSTORE PUSH2 0x15F8 DUP2 PUSH2 0x135F JUMP JUMPDEST MLOAD SWAP1 KECCAK256 AND SWAP1 JUMP JUMPDEST PUSH1 0x40 MLOAD PUSH4 0x7145E311 PUSH1 0xE0 SHL DUP2 MSTORE PUSH1 0x4 SWAP1 REVERT JUMPDEST PUSH1 0x40 MLOAD PUSH4 0xD92E233D PUSH1 0xE0 SHL DUP2 MSTORE PUSH1 0x4 SWAP1 REVERT JUMPDEST DUP1 EXTCODESIZE PUSH2 0x162C JUMPI SWAP1 JUMP JUMPDEST PUSH2 0x14E5 SWAP1 PUSH2 0x1596 JUMP JUMPDEST PUSH1 0x1 PUSH1 0x1 PUSH1 0xA0 SHL SUB SWAP1 DUP2 AND SWAP2 DUP3 ISZERO PUSH2 0x1684 JUMPI AND SWAP1 DUP2 ISZERO PUSH2 0x166B JUMPI PUSH1 0x0 MSTORE PUSH1 0x6 PUSH1 0x20 MSTORE PUSH1 0x40 PUSH1 0x0 KECCAK256 SWAP1 PUSH1 0x0 MSTORE PUSH1 0x20 MSTORE PUSH1 0x40 PUSH1 0x0 KECCAK256 SSTORE JUMP JUMPDEST PUSH1 0x40 MLOAD PUSH4 0x4A1406B1 PUSH1 0xE1 SHL DUP2 MSTORE PUSH1 0x0 PUSH1 0x4 DUP3 ADD MSTORE PUSH1 0x24 SWAP1 REVERT JUMPDEST PUSH1 0x40 MLOAD PUSH4 0xE602DF05 PUSH1 0xE0 SHL DUP2 MSTORE PUSH1 0x0 PUSH1 0x4 DUP3 ADD MSTORE PUSH1 0x24 SWAP1 REVERT JUMPDEST PUSH1 0x2 PUSH1 0x0 SLOAD EQ PUSH2 0x16AE JUMPI PUSH1 0x2 PUSH1 0x0 SSTORE JUMP JUMPDEST PUSH1 0x40 MLOAD PUSH4 0x3EE5AEB5 PUSH1 0xE0 SHL DUP2 MSTORE PUSH1 0x4 SWAP1 REVERT JUMPDEST SWAP1 PUSH1 0x1 DUP3 DUP2 SHR SWAP3 AND DUP1 ISZERO PUSH2 0x16F0 JUMPI JUMPDEST PUSH1 0x20 DUP4 LT EQ PUSH2 0x16DA JUMPI JUMP JUMPDEST PUSH4 0x4E487B71 PUSH1 0xE0 SHL PUSH1 0x0 MSTORE PUSH1 0x22 PUSH1 0x4 MSTORE PUSH1 0x24 PUSH1 0x0 REVERT JUMPDEST SWAP2 PUSH1 0x7F AND SWAP2 PUSH2 0x16CF JUMP JUMPDEST PUSH1 0x0 SWAP1 PUSH1 0x1 DUP1 PUSH1 0xA0 SHL SUB AND DUP2 MSTORE PUSH1 0x20 SWAP1 PUSH1 0x5 DUP3 MSTORE PUSH1 0x40 DUP2 KECCAK256 PUSH1 0x40 MLOAD SWAP1 DUP2 DUP4 DUP3 SLOAD PUSH2 0x1723 DUP2 PUSH2 0x16C0 JUMP JUMPDEST SWAP4 DUP5 DUP5 MSTORE PUSH1 0x1 SWAP2 DUP9 PUSH1 0x1 DUP3 AND SWAP2 DUP3 PUSH1 0x0 EQ PUSH2 0x1838 JUMPI POP POP PUSH1 0x1 EQ PUSH2 0x17FC JUMPI JUMPDEST POP POP PUSH2 0x1750 SWAP3 POP SUB DUP3 PUSH2 0x1397 JUMP JUMPDEST DUP1 MLOAD ISZERO PUSH2 0x17F6 JUMPI DUP2 DUP1 SWAP2 PUSH1 0x4 SLOAD SWAP1 PUSH2 0x1792 PUSH1 0x40 MLOAD SWAP2 PUSH2 0x176E DUP4 PUSH2 0x137B JUMP JUMPDEST DUP5 DUP4 MSTORE PUSH2 0x1784 PUSH1 0x40 MLOAD SWAP4 DUP5 SWAP3 DUP11 DUP5 ADD SWAP7 DUP8 PUSH2 0x1DFD JUMP JUMPDEST SUB PUSH1 0x1F NOT DUP2 ADD DUP4 MSTORE DUP3 PUSH2 0x1397 JUMP JUMPDEST MLOAD SWAP1 PUSH1 0x4 PUSH1 0x1 PUSH1 0x98 SHL ADD GAS STATICCALL SWAP1 PUSH2 0x17A7 PUSH2 0x150B JUMP JUMPDEST SWAP2 ISZERO PUSH2 0x17BF JUMPI DUP3 DUP3 DUP1 MLOAD DUP2 ADD SUB SLT PUSH2 0x19F JUMPI POP ADD MLOAD SWAP1 JUMP JUMPDEST PUSH1 0x40 MLOAD PUSH3 0x461BCD PUSH1 0xE5 SHL DUP2 MSTORE PUSH1 0x4 DUP2 ADD DUP5 SWAP1 MSTORE PUSH1 0xF PUSH1 0x24 DUP3 ADD MSTORE PUSH15 0x191958DC9E5C1D0E8819985A5B1959 PUSH1 0x8A SHL PUSH1 0x44 DUP3 ADD MSTORE PUSH1 0x64 SWAP1 REVERT JUMPDEST POP SWAP1 POP SWAP1 JUMP JUMPDEST DUP8 SWAP3 POP DUP7 MSTORE DUP2 DUP7 KECCAK256 SWAP1 DUP7 SWAP2 JUMPDEST DUP6 DUP4 LT PUSH2 0x1820 JUMPI POP POP PUSH2 0x1750 SWAP4 POP DUP3 ADD ADD CODESIZE DUP1 PUSH2 0x1742 JUMP JUMPDEST DUP1 SLOAD DUP4 DUP9 ADD DUP6 ADD MSTORE DUP7 SWAP5 POP DUP9 SWAP4 SWAP1 SWAP3 ADD SWAP2 DUP2 ADD PUSH2 0x1808 JUMP JUMPDEST SWAP3 POP SWAP4 POP POP PUSH2 0x1750 SWAP5 SWAP2 POP PUSH1 0xFF NOT AND DUP3 DUP5 ADD MSTORE ISZERO ISZERO PUSH1 0x5 SHL DUP3 ADD ADD CODESIZE DUP1 PUSH2 0x1742 JUMP JUMPDEST SWAP2 SWAP1 SWAP2 PUSH1 0x40 DUP1 MLOAD SWAP2 PUSH1 0x20 SWAP5 DUP6 DUP5 ADD MSTORE DUP5 DUP4 MSTORE DUP2 DUP4 ADD SWAP1 PUSH8 0xFFFFFFFFFFFFFFFF SWAP3 DUP5 DUP4 LT DUP5 DUP5 GT OR PUSH2 0x1310 JUMPI DUP3 DUP2 MSTORE PUSH1 0x4 SLOAD SWAP5 PUSH2 0x1895 DUP5 PUSH2 0x137B JUMP JUMPDEST PUSH1 0x0 DUP1 SWAP7 DUP2 SWAP3 DUP3 DUP8 MSTORE PUSH2 0x18B0 DUP6 MLOAD SWAP8 DUP9 SWAP3 DUP14 DUP5 ADD SWAP5 DUP6 PUSH2 0x1DFD JUMP JUMPDEST SUB SWAP6 PUSH2 0x18C4 PUSH1 0x1F NOT SWAP8 DUP9 DUP2 ADD DUP4 MSTORE DUP3 PUSH2 0x1397 JUMP JUMPDEST MLOAD SWAP1 PUSH1 0x3 PUSH1 0x1 PUSH1 0x98 SHL ADD GAS STATICCALL SWAP2 PUSH2 0x18D9 PUSH2 0x150B JUMP JUMPDEST SWAP3 ISZERO PUSH2 0x1A01 JUMPI PUSH1 0x1 PUSH1 0x1 PUSH1 0xA0 SHL SUB AND DUP6 MSTORE PUSH1 0x5 DUP8 MSTORE DUP5 KECCAK256 DUP2 MLOAD SWAP1 SWAP5 SWAP1 SWAP4 DUP5 GT PUSH2 0x19ED JUMPI PUSH2 0x1906 DUP6 SLOAD PUSH2 0x16C0 JUMP JUMPDEST PUSH1 0x1F DUP2 GT PUSH2 0x19AA JUMPI JUMPDEST POP DUP7 SWAP3 PUSH1 0x1F DUP6 GT PUSH1 0x1 EQ PUSH2 0x194A JUMPI POP DUP4 SWAP5 SWAP6 SWAP7 POP SWAP3 PUSH2 0x193F JUMPI JUMPDEST POP POP DUP2 PUSH1 0x1 SHL SWAP2 PUSH1 0x0 NOT SWAP1 PUSH1 0x3 SHL SHR NOT AND OR SWAP1 SSTORE JUMP JUMPDEST ADD MLOAD SWAP1 POP CODESIZE DUP1 PUSH2 0x1929 JUMP JUMPDEST DUP5 SWAP4 SWAP3 SWAP2 SWAP4 AND SWAP7 DUP6 DUP5 MSTORE DUP1 DUP5 KECCAK256 SWAP4 SWAP1 JUMPDEST DUP9 DUP3 LT PUSH2 0x1992 JUMPI POP POP DUP4 PUSH1 0x1 SWAP6 SWAP7 SWAP8 LT PUSH2 0x1979 JUMPI JUMPDEST POP POP POP DUP2 SHL ADD SWAP1 SSTORE JUMP JUMPDEST ADD MLOAD PUSH1 0x0 NOT PUSH1 0xF8 DUP5 PUSH1 0x3 SHL AND SHR NOT AND SWAP1 SSTORE CODESIZE DUP1 DUP1 PUSH2 0x196F JUMP JUMPDEST DUP1 PUSH1 0x1 DUP6 SWAP7 DUP3 SWAP5 SWAP7 DUP7 ADD MLOAD DUP2 SSTORE ADD SWAP6 ADD SWAP4 ADD SWAP1 PUSH2 0x195A JUMP JUMPDEST DUP6 DUP3 MSTORE DUP8 DUP3 KECCAK256 PUSH1 0x1F DUP7 ADD PUSH1 0x5 SHR DUP2 ADD SWAP2 DUP10 DUP8 LT PUSH2 0x19E3 JUMPI JUMPDEST PUSH1 0x1F ADD PUSH1 0x5 SHR ADD SWAP1 JUMPDEST DUP2 DUP2 LT PUSH2 0x19D8 JUMPI POP PUSH2 0x190F JUMP JUMPDEST DUP3 DUP2 SSTORE PUSH1 0x1 ADD PUSH2 0x19CB JUMP JUMPDEST SWAP1 SWAP2 POP DUP2 SWAP1 PUSH2 0x19C2 JUMP JUMPDEST PUSH4 0x4E487B71 PUSH1 0xE0 SHL DUP2 MSTORE PUSH1 0x41 PUSH1 0x4 MSTORE PUSH1 0x24 SWAP1 REVERT JUMPDEST DUP2 MLOAD PUSH3 0x461BCD PUSH1 0xE5 SHL DUP2 MSTORE PUSH1 0x4 DUP2 ADD DUP10 SWAP1 MSTORE PUSH1 0xF PUSH1 0x24 DUP3 ADD MSTORE PUSH15 0x195B98DC9E5C1D0E8819985A5B1959 PUSH1 0x8A SHL PUSH1 0x44 DUP3 ADD MSTORE PUSH1 0x64 SWAP1 REVERT JUMPDEST PUSH1 0x80 DUP2 ADD DUP1 MLOAD TIMESTAMP GT PUSH2 0x1C0E JUMPI DUP2 MLOAD PUSH2 0x1A4E DUP2 PUSH2 0x1C20 JUMP JUMPDEST PUSH2 0x1A57 DUP2 PUSH2 0x1C20 JUMP JUMPDEST PUSH2 0x1BFC JUMPI PUSH1 0xA0 DUP3 ADD DUP1 MLOAD SWAP1 PUSH1 0x20 DUP5 ADD SWAP1 PUSH1 0x1 DUP1 PUSH1 0xA0 SHL SUB SWAP4 DUP5 DUP4 MLOAD AND PUSH1 0x0 MSTORE PUSH1 0x3 PUSH1 0x20 MSTORE PUSH1 0x40 SWAP4 DUP5 PUSH1 0x0 KECCAK256 SLOAD SUB PUSH2 0x1BEB JUMPI SWAP1 DUP5 SWAP2 DUP7 MLOAD PUSH2 0x1A96 DUP2 PUSH2 0x1C20 JUMP JUMPDEST PUSH2 0x1A9F DUP2 PUSH2 0x1C20 JUMP JUMPDEST ISZERO PUSH2 0x1BD7 JUMPI JUMPDEST PUSH1 0x3 DUP8 MLOAD PUSH2 0x1AB2 DUP2 PUSH2 0x1C20 JUMP JUMPDEST PUSH2 0x1ABB DUP2 PUSH2 0x1C20 JUMP JUMPDEST EQ PUSH2 0x1BA8 JUMPI JUMPDEST PUSH1 0xC0 PUSH2 0x1BA3 SWAP6 SWAP4 PUSH2 0xCA3 SWAP6 SWAP4 PUSH1 0xFF SWAP4 DUP11 DUP1 MLOAD SWAP3 PUSH2 0x1ADD DUP5 PUSH2 0x1C20 JUMP JUMPDEST DUP5 DUP9 MLOAD AND SWAP3 PUSH1 0x60 DUP7 DUP12 DUP6 ADD MLOAD AND SWAP4 ADD MLOAD SWAP1 MLOAD SWAP2 MLOAD SWAP3 DUP11 MLOAD SWAP5 PUSH1 0x20 DUP7 ADD SWAP7 PUSH1 0x0 DUP1 MLOAD PUSH1 0x20 PUSH2 0x1F4B DUP4 CODECOPY DUP2 MLOAD SWAP2 MSTORE DUP9 MSTORE PUSH2 0x1B14 DUP2 PUSH2 0x1C20 JUMP JUMPDEST DUP13 DUP8 ADD MSTORE PUSH1 0x60 DUP7 ADD MSTORE PUSH1 0x80 DUP6 ADD MSTORE PUSH1 0xA0 DUP5 ADD MSTORE DUP6 DUP4 ADD MSTORE PUSH1 0xE0 DUP3 ADD MSTORE PUSH1 0xE0 DUP2 MSTORE PUSH2 0x1B3D DUP2 PUSH2 0x1342 JUMP JUMPDEST MLOAD SWAP1 KECCAK256 SWAP4 MLOAD AND SWAP8 ADD MLOAD SWAP2 DUP4 MLOAD PUSH1 0x20 DUP2 ADD SWAP2 PUSH2 0x1901 PUSH1 0xF0 SHL DUP4 MSTORE PUSH32 0x0 PUSH1 0x22 DUP4 ADD MSTORE PUSH1 0x42 DUP3 ADD MSTORE PUSH1 0x42 DUP2 MSTORE PUSH2 0x1B8E DUP2 PUSH2 0x135F JUMP JUMPDEST MLOAD SWAP1 KECCAK256 SWAP3 DUP3 ADD MLOAD AND PUSH1 0x20 DUP3 MLOAD SWAP3 ADD MLOAD SWAP3 PUSH2 0x1E2F JUMP JUMPDEST AND EQ SWAP1 JUMP JUMPDEST SWAP1 SWAP2 POP PUSH1 0x60 DUP7 ADD MLOAD PUSH2 0x1BC6 JUMPI DUP5 DUP5 DUP8 ADD MLOAD AND PUSH2 0x1BC6 JUMPI SWAP1 DUP5 SWAP2 PUSH2 0x1AC1 JUMP JUMPDEST DUP4 MLOAD PUSH4 0x291DED61 PUSH1 0xE0 SHL DUP2 MSTORE PUSH1 0x4 SWAP1 REVERT JUMPDEST SWAP1 SWAP2 POP PUSH1 0x60 DUP7 ADD MLOAD PUSH2 0x1BC6 JUMPI SWAP1 DUP5 SWAP2 PUSH2 0x1AA5 JUMP JUMPDEST DUP4 MLOAD PUSH4 0x3AB3447F PUSH1 0xE1 SHL DUP2 MSTORE PUSH1 0x4 SWAP1 REVERT JUMPDEST PUSH1 0x40 MLOAD PUSH4 0x51055569 PUSH1 0xE0 SHL DUP2 MSTORE PUSH1 0x4 SWAP1 REVERT JUMPDEST PUSH1 0x40 MLOAD PUSH4 0xF87D9271 PUSH1 0xE0 SHL DUP2 MSTORE PUSH1 0x4 SWAP1 REVERT JUMPDEST PUSH1 0x4 GT ISZERO PUSH2 0x1C2A JUMPI JUMP JUMPDEST PUSH4 0x4E487B71 PUSH1 0xE0 SHL PUSH1 0x0 MSTORE PUSH1 0x21 PUSH1 0x4 MSTORE PUSH1 0x24 PUSH1 0x0 REVERT JUMPDEST PUSH2 0x1C49 SWAP1 PUSH2 0x1C75 JUMP JUMPDEST PUSH1 0x0 MSTORE PUSH1 0x2 PUSH1 0x20 MSTORE PUSH1 0xFF PUSH1 0x40 PUSH1 0x0 KECCAK256 SLOAD AND PUSH2 0x1C63 JUMPI PUSH1 0x0 SWAP1 JUMP JUMPDEST PUSH1 0x40 MLOAD PUSH4 0x8BAA579F PUSH1 0xE0 SHL DUP2 MSTORE PUSH1 0x4 SWAP1 REVERT JUMPDEST DUP1 MLOAD SWAP1 PUSH1 0x40 PUSH1 0x20 DUP3 ADD MLOAD SWAP2 ADD MLOAD PUSH1 0x40 MLOAD SWAP2 PUSH1 0x20 DUP4 ADD SWAP4 DUP5 MSTORE PUSH1 0x40 DUP4 ADD MSTORE PUSH1 0x60 DUP3 ADD MSTORE PUSH1 0x60 DUP2 MSTORE PUSH2 0x1CA4 DUP2 PUSH2 0x135F JUMP JUMPDEST MLOAD SWAP1 KECCAK256 SWAP1 JUMP JUMPDEST SWAP3 SWAP2 PUSH1 0x1 PUSH1 0x1 PUSH1 0xA0 SHL SUB DUP1 DUP6 AND ISZERO PUSH2 0x1D41 JUMPI DUP3 AND ISZERO PUSH2 0x1D28 JUMPI PUSH2 0x1CCC DUP5 PUSH2 0x16FA JUMP JUMPDEST SWAP4 DUP2 DUP6 LT PUSH2 0x1CF6 JUMPI SWAP1 PUSH2 0x1CF4 SWAP4 SWAP5 PUSH2 0x241 PUSH2 0x246 SWAP4 PUSH2 0x246 DUP5 PUSH2 0x1CEE DUP9 PUSH2 0x16FA JUMP JUMPDEST SWAP5 PUSH2 0x14E8 JUMP JUMPDEST JUMP JUMPDEST PUSH1 0x40 MLOAD PUSH4 0x391434E3 PUSH1 0xE2 SHL DUP2 MSTORE PUSH1 0x1 PUSH1 0x1 PUSH1 0xA0 SHL SUB SWAP2 SWAP1 SWAP2 AND PUSH1 0x4 DUP3 ADD MSTORE PUSH1 0x24 DUP2 ADD DUP6 SWAP1 MSTORE PUSH1 0x44 DUP2 ADD SWAP2 SWAP1 SWAP2 MSTORE PUSH1 0x64 SWAP1 REVERT JUMPDEST PUSH1 0x40 MLOAD PUSH4 0xEC442F05 PUSH1 0xE0 SHL DUP2 MSTORE PUSH1 0x0 PUSH1 0x4 DUP3 ADD MSTORE PUSH1 0x24 SWAP1 REVERT JUMPDEST PUSH1 0x40 MLOAD PUSH4 0x4B637E8F PUSH1 0xE1 SHL DUP2 MSTORE PUSH1 0x0 PUSH1 0x4 DUP3 ADD MSTORE PUSH1 0x24 SWAP1 REVERT JUMPDEST CALLVALUE ISZERO PUSH2 0x1DEB JUMPI PUSH32 0x0 PUSH1 0x1 PUSH1 0x1 PUSH1 0xA0 SHL SUB AND DUP1 EXTCODESIZE ISZERO PUSH2 0x12E1 JUMPI PUSH1 0x0 PUSH1 0x4 SWAP2 PUSH1 0x40 MLOAD SWAP3 DUP4 DUP1 SWAP3 PUSH4 0xD0E30DB PUSH1 0xE4 SHL DUP3 MSTORE CALLVALUE SWAP1 GAS CALL DUP1 ISZERO PUSH2 0x1DDF JUMPI PUSH2 0x1DD0 JUMPI JUMPDEST POP PUSH2 0x1CF4 PUSH2 0x1DC3 CALLER PUSH2 0x1596 JUMP JUMPDEST PUSH2 0x246 CALLVALUE PUSH2 0x241 DUP4 PUSH2 0x16FA JUMP JUMPDEST PUSH2 0x1DD9 SWAP1 PUSH2 0x12FC JUMP JUMPDEST CODESIZE PUSH2 0x1DB6 JUMP JUMPDEST PUSH1 0x40 MLOAD RETURNDATASIZE PUSH1 0x0 DUP3 RETURNDATACOPY RETURNDATASIZE SWAP1 REVERT JUMPDEST PUSH1 0x40 MLOAD PUSH4 0x1F2A2005 PUSH1 0xE0 SHL DUP2 MSTORE PUSH1 0x4 SWAP1 REVERT JUMPDEST SWAP2 PUSH2 0x1E21 SWAP1 PUSH2 0x14E5 SWAP5 SWAP3 PUSH1 0x0 DUP6 MSTORE PUSH1 0x20 DUP6 ADD MSTORE PUSH1 0x80 PUSH1 0x40 DUP6 ADD MSTORE PUSH1 0x80 DUP5 ADD SWAP1 PUSH2 0x12A6 JUMP JUMPDEST SWAP2 PUSH1 0x60 DUP2 DUP5 SUB SWAP2 ADD MSTORE PUSH2 0x12A6 JUMP JUMPDEST SWAP2 SWAP1 PUSH32 0x7FFFFFFFFFFFFFFFFFFFFFFFFFFFFFFF5D576E7357A4501DDFE92F46681B20A0 DUP5 GT PUSH2 0x1EB3 JUMPI SWAP3 PUSH1 0x20 SWAP3 SWAP2 PUSH1 0xFF PUSH1 0x80 SWAP6 PUSH1 0x40 MLOAD SWAP5 DUP6 MSTORE AND DUP5 DUP5 ADD MSTORE PUSH1 0x40 DUP4 ADD MSTORE PUSH1 0x60 DUP3 ADD MSTORE PUSH1 0x0 SWAP3 DUP4 SWAP2 DUP3 DUP1 MSTORE PUSH1 0x1 GAS STATICCALL ISZERO PUSH2 0x1EA7 JUMPI DUP1 MLOAD PUSH1 0x1 PUSH1 0x1 PUSH1 0xA0 SHL SUB DUP2 AND ISZERO PUSH2 0x1E9E JUMPI SWAP2 DUP2 SWAP1 JUMP JUMPDEST POP DUP1 SWAP2 PUSH1 0x1 SWAP2 SWAP1 JUMP JUMPDEST PUSH1 0x40 MLOAD SWAP1 RETURNDATASIZE SWAP1 DUP3 RETURNDATACOPY RETURNDATASIZE SWAP1 REVERT JUMPDEST POP POP POP PUSH1 0x0 SWAP2 PUSH1 0x3 SWAP2 SWAP1 JUMP JUMPDEST PUSH2 0x1EC8 DUP2 PUSH2 0x1C20 JUMP JUMPDEST DUP1 PUSH2 0x1ED1 JUMPI POP POP JUMP JUMPDEST PUSH2 0x1EDA DUP2 PUSH2 0x1C20 JUMP JUMPDEST PUSH1 0x1 DUP2 SUB PUSH2 0x1EF4 JUMPI PUSH1 0x40 MLOAD PUSH4 0xF645EEDF PUSH1 0xE0 SHL DUP2 MSTORE PUSH1 0x4 SWAP1 REVERT JUMPDEST PUSH2 0x1EFD DUP2 PUSH2 0x1C20 JUMP JUMPDEST PUSH1 0x2 DUP2 SUB PUSH2 0x1F1E JUMPI PUSH1 0x40 MLOAD PUSH4 0xFCE698F7 PUSH1 0xE0 SHL DUP2 MSTORE PUSH1 0x4 DUP2 ADD DUP4 SWAP1 MSTORE PUSH1 0x24 SWAP1 REVERT JUMPDEST DUP1 PUSH2 0x1F2A PUSH1 0x3 SWAP3 PUSH2 0x1C20 JUMP JUMPDEST EQ PUSH2 0x1F32 JUMPI POP JUMP JUMPDEST PUSH1 0x24 SWAP1 PUSH1 0x40 MLOAD SWAP1 PUSH4 0x35E2F383 PUSH1 0xE2 SHL DUP3 MSTORE PUSH1 0x4 DUP3 ADD MSTORE REVERT INVALID 0x2B PUSH7 0x64E80547178739 SLOAD 0xD7 0xCA PUSH20 0x48079FE06E7CAF155F60944C3A4B3DCF2FABB3A2 PUSH5 0x6970667358 0x22 SLT KECCAK256 PUSH4 0x90AC917C PUSH12 0xEE53ED1381B8287B2AC418CF 0xF7 0xD 0x2B SWAP11 0x1E MSIZE PUSH28 0x12276C1E5B08664736F6C6343000818003300000000000000000000 "
        },
        "methodIdentifiers": {
          "DOMAIN_SEPARATOR()": "3644e515",
          "EIP_PERMIT_TYPEHASH()": "036e0708",
          "allowance(address,address)": "dd62ed3e",
          "allowanceWithPermit((uint8,address,address,uint256,uint256,uint256,(bytes32,bytes32,uint256)))": "cf5855ae",
          "approve(address,uint256)": "095ea7b3",
          "approveWithPermit((uint8,address,address,uint256,uint256,uint256,(bytes32,bytes32,uint256)))": "95cceba2",
          "balanceOf(address)": "70a08231",
          "balanceOfWithPermit((uint8,address,address,uint256,uint256,uint256,(bytes32,bytes32,uint256)))": "f2a69c91",
          "decimals()": "313ce567",
          "deposit()": "d0e30db0",
          "getMyVirtualAddress((uint8,address,address,uint256,uint256,uint256,(bytes32,bytes32,uint256)))": "759714d1",
          "increaseNonce()": "c53a0292",
          "isSignatureUsed((bytes32,bytes32,uint256))": "93355f42",
          "name()": "06fdde03",
          "nonces(address)": "7ecebe00",
          "symbol()": "95d89b41",
          "totalSupply()": "18160ddd",
          "transfer(address,uint256)": "a9059cbb",
          "transferFrom(address,address,uint256)": "23b872dd",
          "transferWithPermit((uint8,address,address,uint256,uint256,uint256,(bytes32,bytes32,uint256)))": "ae60b787",
          "underlyingToken()": "2495a599",
          "unwrap(uint256)": "de0e9a3e",
          "withdraw(uint256)": "2e1a7d4d",
          "wrap(uint256)": "ea598cb0"
        }
      },
      "storageLayout": {
        "storage": [
          {
            "astId": 1407,
            "contract": "contracts/PrivacyWROSE.sol:PrivacyWROSE",
            "label": "_status",
            "offset": 0,
            "slot": "0",
            "type": "t_uint256"
          },
          {
            "astId": 2573,
            "contract": "contracts/PrivacyWROSE.sol:PrivacyWROSE",
            "label": "_identitySalt",
            "offset": 0,
            "slot": "1",
            "type": "t_bytes32"
          },
          {
            "astId": 2699,
            "contract": "contracts/PrivacyWROSE.sol:PrivacyWROSE",
            "label": "_usedSignatures",
            "offset": 0,
            "slot": "2",
            "type": "t_mapping(t_bytes32,t_bool)"
          },
          {
            "astId": 2703,
            "contract": "contracts/PrivacyWROSE.sol:PrivacyWROSE",
            "label": "_nonces",
            "offset": 0,
            "slot": "3",
            "type": "t_mapping(t_address,t_uint256)"
          },
          {
            "astId": 3026,
            "contract": "contracts/PrivacyWROSE.sol:PrivacyWROSE",
            "label": "_globalNonce",
            "offset": 0,
            "slot": "4",
            "type": "t_bytes32"
          },
          {
            "astId": 3030,
            "contract": "contracts/PrivacyWROSE.sol:PrivacyWROSE",
            "label": "_encryptedBalances",
            "offset": 0,
            "slot": "5",
            "type": "t_mapping(t_address,t_bytes_storage)"
          },
          {
            "astId": 3036,
            "contract": "contracts/PrivacyWROSE.sol:PrivacyWROSE",
            "label": "_allowances",
            "offset": 0,
            "slot": "6",
            "type": "t_mapping(t_address,t_mapping(t_address,t_uint256))"
          },
          {
            "astId": 2401,
            "contract": "contracts/PrivacyWROSE.sol:PrivacyWROSE",
            "label": "_withdrawing",
            "offset": 0,
            "slot": "7",
            "type": "t_bool"
          }
        ],
        "types": {
          "t_address": {
            "encoding": "inplace",
            "label": "address",
            "numberOfBytes": "20"
          },
          "t_bool": {
            "encoding": "inplace",
            "label": "bool",
            "numberOfBytes": "1"
          },
          "t_bytes32": {
            "encoding": "inplace",
            "label": "bytes32",
            "numberOfBytes": "32"
          },
          "t_bytes_storage": {
            "encoding": "bytes",
            "label": "bytes",
            "numberOfBytes": "32"
          },
          "t_mapping(t_address,t_bytes_storage)": {
            "encoding": "mapping",
            "key": "t_address",
            "label": "mapping(address => bytes)",
            "numberOfBytes": "32",
            "value": "t_bytes_storage"
          },
          "t_mapping(t_address,t_mapping(t_address,t_uint256))": {
            "encoding": "mapping",
            "key": "t_address",
            "label": "mapping(address => mapping(address => uint256))",
            "numberOfBytes": "32",
            "value": "t_mapping(t_address,t_uint256)"
          },
          "t_mapping(t_address,t_uint256)": {
            "encoding": "mapping",
            "key": "t_address",
            "label": "mapping(address => uint256)",
            "numberOfBytes": "32",
            "value": "t_uint256"
          },
          "t_mapping(t_bytes32,t_bool)": {
            "encoding": "mapping",
            "key": "t_bytes32",
            "label": "mapping(bytes32 => bool)",
            "numberOfBytes": "32",
            "value": "t_bool"
          },
          "t_uint256": {
            "encoding": "inplace",
            "label": "uint256",
            "numberOfBytes": "32"
          }
        }
      }
    }
  }
}