{
  "contracts/old/PrivacyWROSE.sol": {
    "PrivacyWROSE": {
      "abi": [
        {
          "inputs": [
            {
              "internalType": "address",
              "name": "underlyingToken_",
              "type": "address"
            }
          ],
          "stateMutability": "nonpayable",
          "type": "constructor"
        },
        {
          "inputs": [],
          "name": "EIPError",
          "type": "error"
        },
        {
          "inputs": [
            {
              "internalType": "address",
              "name": "spender",
              "type": "address"
            },
            {
              "internalType": "uint256",
              "name": "allowance",
              "type": "uint256"
            },
            {
              "internalType": "uint256",
              "name": "needed",
              "type": "uint256"
            }
          ],
          "name": "ERC20InsufficientAllowance",
          "type": "error"
        },
        {
          "inputs": [
            {
              "internalType": "address",
              "name": "sender",
              "type": "address"
            },
            {
              "internalType": "uint256",
              "name": "balance",
              "type": "uint256"
            },
            {
              "internalType": "uint256",
              "name": "needed",
              "type": "uint256"
            }
          ],
          "name": "ERC20InsufficientBalance",
          "type": "error"
        },
        {
          "inputs": [
            {
              "internalType": "address",
              "name": "approver",
              "type": "address"
            }
          ],
          "name": "ERC20InvalidApprover",
          "type": "error"
        },
        {
          "inputs": [
            {
              "internalType": "address",
              "name": "receiver",
              "type": "address"
            }
          ],
          "name": "ERC20InvalidReceiver",
          "type": "error"
        },
        {
          "inputs": [
            {
              "internalType": "address",
              "name": "sender",
              "type": "address"
            }
          ],
          "name": "ERC20InvalidSender",
          "type": "error"
        },
        {
          "inputs": [
            {
              "internalType": "address",
              "name": "spender",
              "type": "address"
            }
          ],
          "name": "ERC20InvalidSpender",
          "type": "error"
        },
        {
          "inputs": [],
          "name": "ExpiredDeadline",
          "type": "error"
        },
        {
          "inputs": [],
          "name": "InsufficientBalance",
          "type": "error"
        },
        {
          "inputs": [],
          "name": "InvalidNonce",
          "type": "error"
        },
        {
          "inputs": [],
          "name": "InvalidPermitAmount",
          "type": "error"
        },
        {
          "inputs": [],
          "name": "InvalidPermitLabel",
          "type": "error"
        },
        {
          "inputs": [],
          "name": "InvalidSignature",
          "type": "error"
        },
        {
          "inputs": [],
          "name": "ReentrancyGuardReentrantCall",
          "type": "error"
        },
        {
          "inputs": [],
          "name": "SignatureUsed",
          "type": "error"
        },
        {
          "inputs": [],
          "name": "TransferFailed",
          "type": "error"
        },
        {
          "inputs": [],
          "name": "ZeroAmount",
          "type": "error"
        },
        {
          "anonymous": false,
          "inputs": [
            {
              "indexed": true,
              "internalType": "address",
              "name": "owner",
              "type": "address"
            },
            {
              "indexed": true,
              "internalType": "address",
              "name": "spender",
              "type": "address"
            },
            {
              "indexed": false,
              "internalType": "uint256",
              "name": "value",
              "type": "uint256"
            }
          ],
          "name": "Approval",
          "type": "event"
        },
        {
          "anonymous": false,
          "inputs": [
            {
              "indexed": true,
              "internalType": "address",
              "name": "from",
              "type": "address"
            },
            {
              "indexed": true,
              "internalType": "address",
              "name": "to",
              "type": "address"
            },
            {
              "indexed": false,
              "internalType": "uint256",
              "name": "value",
              "type": "uint256"
            }
          ],
          "name": "Transfer",
          "type": "event"
        },
        {
          "inputs": [],
          "name": "DOMAIN_SEPARATOR",
          "outputs": [
            {
              "internalType": "bytes32",
              "name": "",
              "type": "bytes32"
            }
          ],
          "stateMutability": "view",
          "type": "function"
        },
        {
          "inputs": [],
          "name": "EIP_PERMIT_TYPEHASH",
          "outputs": [
            {
              "internalType": "bytes32",
              "name": "",
              "type": "bytes32"
            }
          ],
          "stateMutability": "view",
          "type": "function"
        },
        {
          "inputs": [
            {
              "internalType": "address",
              "name": "owner",
              "type": "address"
            },
            {
              "internalType": "address",
              "name": "spender",
              "type": "address"
            }
          ],
          "name": "allowance",
          "outputs": [
            {
              "internalType": "uint256",
              "name": "",
              "type": "uint256"
            }
          ],
          "stateMutability": "view",
          "type": "function"
        },
        {
          "inputs": [
            {
              "components": [
                {
                  "internalType": "enum PrivacyERC20.PermitLabel",
                  "name": "label",
                  "type": "uint8"
                },
                {
                  "internalType": "address",
                  "name": "owner",
                  "type": "address"
                },
                {
                  "internalType": "address",
                  "name": "spender",
                  "type": "address"
                },
                {
                  "internalType": "uint256",
                  "name": "amount",
                  "type": "uint256"
                },
                {
                  "internalType": "uint256",
                  "name": "deadline",
                  "type": "uint256"
                },
                {
                  "components": [
                    {
                      "internalType": "bytes32",
                      "name": "r",
                      "type": "bytes32"
                    },
                    {
                      "internalType": "bytes32",
                      "name": "s",
                      "type": "bytes32"
                    },
                    {
                      "internalType": "uint256",
                      "name": "v",
                      "type": "uint256"
                    }
                  ],
                  "internalType": "struct SignatureRSV",
                  "name": "signature",
                  "type": "tuple"
                }
              ],
              "internalType": "struct PrivacyERC20.EIP712Permit",
              "name": "permit",
              "type": "tuple"
            }
          ],
          "name": "allowanceWithPermit",
          "outputs": [
            {
              "internalType": "uint256",
              "name": "",
              "type": "uint256"
            }
          ],
          "stateMutability": "view",
          "type": "function"
        },
        {
          "inputs": [
            {
              "internalType": "address",
              "name": "spender",
              "type": "address"
            },
            {
              "internalType": "uint256",
              "name": "value",
              "type": "uint256"
            }
          ],
          "name": "approve",
          "outputs": [
            {
              "internalType": "bool",
              "name": "",
              "type": "bool"
            }
          ],
          "stateMutability": "nonpayable",
          "type": "function"
        },
        {
          "inputs": [
            {
              "components": [
                {
                  "internalType": "enum PrivacyERC20.PermitLabel",
                  "name": "label",
                  "type": "uint8"
                },
                {
                  "internalType": "address",
                  "name": "owner",
                  "type": "address"
                },
                {
                  "internalType": "address",
                  "name": "spender",
                  "type": "address"
                },
                {
                  "internalType": "uint256",
                  "name": "amount",
                  "type": "uint256"
                },
                {
                  "internalType": "uint256",
                  "name": "deadline",
                  "type": "uint256"
                },
                {
                  "components": [
                    {
                      "internalType": "bytes32",
                      "name": "r",
                      "type": "bytes32"
                    },
                    {
                      "internalType": "bytes32",
                      "name": "s",
                      "type": "bytes32"
                    },
                    {
                      "internalType": "uint256",
                      "name": "v",
                      "type": "uint256"
                    }
                  ],
                  "internalType": "struct SignatureRSV",
                  "name": "signature",
                  "type": "tuple"
                }
              ],
              "internalType": "struct PrivacyERC20.EIP712Permit",
              "name": "permit",
              "type": "tuple"
            }
          ],
          "name": "approveWithPermit",
          "outputs": [],
          "stateMutability": "nonpayable",
          "type": "function"
        },
        {
          "inputs": [
            {
              "internalType": "address",
              "name": "account",
              "type": "address"
            }
          ],
          "name": "balanceOf",
          "outputs": [
            {
              "internalType": "uint256",
              "name": "",
              "type": "uint256"
            }
          ],
          "stateMutability": "view",
          "type": "function"
        },
        {
          "inputs": [
            {
              "components": [
                {
                  "internalType": "enum PrivacyERC20.PermitLabel",
                  "name": "label",
                  "type": "uint8"
                },
                {
                  "internalType": "address",
                  "name": "owner",
                  "type": "address"
                },
                {
                  "internalType": "address",
                  "name": "spender",
                  "type": "address"
                },
                {
                  "internalType": "uint256",
                  "name": "amount",
                  "type": "uint256"
                },
                {
                  "internalType": "uint256",
                  "name": "deadline",
                  "type": "uint256"
                },
                {
                  "components": [
                    {
                      "internalType": "bytes32",
                      "name": "r",
                      "type": "bytes32"
                    },
                    {
                      "internalType": "bytes32",
                      "name": "s",
                      "type": "bytes32"
                    },
                    {
                      "internalType": "uint256",
                      "name": "v",
                      "type": "uint256"
                    }
                  ],
                  "internalType": "struct SignatureRSV",
                  "name": "signature",
                  "type": "tuple"
                }
              ],
              "internalType": "struct PrivacyERC20.EIP712Permit",
              "name": "permit",
              "type": "tuple"
            }
          ],
          "name": "balanceOfWithPermit",
          "outputs": [
            {
              "internalType": "uint256",
              "name": "",
              "type": "uint256"
            }
          ],
          "stateMutability": "view",
          "type": "function"
        },
        {
          "inputs": [],
          "name": "decimals",
          "outputs": [
            {
              "internalType": "uint8",
              "name": "",
              "type": "uint8"
            }
          ],
          "stateMutability": "view",
          "type": "function"
        },
        {
          "inputs": [],
          "name": "deposit",
          "outputs": [],
          "stateMutability": "payable",
          "type": "function"
        },
        {
          "inputs": [
            {
              "components": [
                {
                  "internalType": "bytes32",
                  "name": "r",
                  "type": "bytes32"
                },
                {
                  "internalType": "bytes32",
                  "name": "s",
                  "type": "bytes32"
                },
                {
                  "internalType": "uint256",
                  "name": "v",
                  "type": "uint256"
                }
              ],
              "internalType": "struct SignatureRSV",
              "name": "signature",
              "type": "tuple"
            }
          ],
          "name": "isSignatureUsed",
          "outputs": [
            {
              "internalType": "bool",
              "name": "",
              "type": "bool"
            }
          ],
          "stateMutability": "view",
          "type": "function"
        },
        {
          "inputs": [],
          "name": "name",
          "outputs": [
            {
              "internalType": "string",
              "name": "",
              "type": "string"
            }
          ],
          "stateMutability": "view",
          "type": "function"
        },
        {
          "inputs": [],
          "name": "symbol",
          "outputs": [
            {
              "internalType": "string",
              "name": "",
              "type": "string"
            }
          ],
          "stateMutability": "view",
          "type": "function"
        },
        {
          "inputs": [],
          "name": "totalSupply",
          "outputs": [
            {
              "internalType": "uint256",
              "name": "",
              "type": "uint256"
            }
          ],
          "stateMutability": "view",
          "type": "function"
        },
        {
          "inputs": [
            {
              "internalType": "address",
              "name": "to",
              "type": "address"
            },
            {
              "internalType": "uint256",
              "name": "value",
              "type": "uint256"
            }
          ],
          "name": "transfer",
          "outputs": [
            {
              "internalType": "bool",
              "name": "",
              "type": "bool"
            }
          ],
          "stateMutability": "nonpayable",
          "type": "function"
        },
        {
          "inputs": [
            {
              "internalType": "address",
              "name": "from",
              "type": "address"
            },
            {
              "internalType": "address",
              "name": "to",
              "type": "address"
            },
            {
              "internalType": "uint256",
              "name": "value",
              "type": "uint256"
            }
          ],
          "name": "transferFrom",
          "outputs": [
            {
              "internalType": "bool",
              "name": "",
              "type": "bool"
            }
          ],
          "stateMutability": "nonpayable",
          "type": "function"
        },
        {
          "inputs": [
            {
              "components": [
                {
                  "internalType": "enum PrivacyERC20.PermitLabel",
                  "name": "label",
                  "type": "uint8"
                },
                {
                  "internalType": "address",
                  "name": "owner",
                  "type": "address"
                },
                {
                  "internalType": "address",
                  "name": "spender",
                  "type": "address"
                },
                {
                  "internalType": "uint256",
                  "name": "amount",
                  "type": "uint256"
                },
                {
                  "internalType": "uint256",
                  "name": "deadline",
                  "type": "uint256"
                },
                {
                  "components": [
                    {
                      "internalType": "bytes32",
                      "name": "r",
                      "type": "bytes32"
                    },
                    {
                      "internalType": "bytes32",
                      "name": "s",
                      "type": "bytes32"
                    },
                    {
                      "internalType": "uint256",
                      "name": "v",
                      "type": "uint256"
                    }
                  ],
                  "internalType": "struct SignatureRSV",
                  "name": "signature",
                  "type": "tuple"
                }
              ],
              "internalType": "struct PrivacyERC20.EIP712Permit",
              "name": "permit",
              "type": "tuple"
            }
          ],
          "name": "transferWithPermit",
          "outputs": [],
          "stateMutability": "nonpayable",
          "type": "function"
        },
        {
          "inputs": [],
          "name": "underlyingToken",
          "outputs": [
            {
              "internalType": "contract IERC20Metadata",
              "name": "",
              "type": "address"
            }
          ],
          "stateMutability": "view",
          "type": "function"
        },
        {
          "inputs": [
            {
              "internalType": "uint256",
              "name": "amount",
              "type": "uint256"
            }
          ],
          "name": "unwrap",
          "outputs": [],
          "stateMutability": "nonpayable",
          "type": "function"
        },
        {
          "inputs": [
            {
              "internalType": "uint256",
              "name": "amount",
              "type": "uint256"
            }
          ],
          "name": "withdraw",
          "outputs": [],
          "stateMutability": "nonpayable",
          "type": "function"
        },
        {
          "inputs": [
            {
              "internalType": "uint256",
              "name": "amount",
              "type": "uint256"
            }
          ],
          "name": "wrap",
          "outputs": [],
          "stateMutability": "nonpayable",
          "type": "function"
        },
        {
          "stateMutability": "payable",
          "type": "receive"
        }
      ],
      "evm": {
        "bytecode": {
          "linkReferences": {},
          "object": "60c0604081815234620002e8578162001c878038038091620000228285620002ed565b8339602093849181010312620002e857516001600160a01b0381169290839003620002e85760016000908155608093845282516001600160401b03939192919080830185811182821017620002d45782528381528382518785820193868552858084015280519081606085015287855b838110620002b95750505091620000c882828587601f9996819884010152881998899101168101036060810184520182620002ed565b51907301000000000000000000000000000000000000015afa3d15620002af573d8681116200029b576200010685855194601f8401160184620002ed565b82523d858584013e5b1562000257578281519101519083811062000245575b506001558051918201927f8b73c3c69bb8fe3d512ecc4cf759cc79239f7b179b0ffacaa9a75d522b39400f84527f5d3a83afdfc530254db404cb73287930e8de23e166ed44a525a6650d548207eb828401527fc89efdaa54c0f20c7adf612882df0950f5a951637e0307cdcb4c672f298b8bc6606084015246868401523060a084015260a0835260c08301948386109086111762000231575083905251902060a05261195f91826200032883395181818161038b0152818161050c01528181610652015281816109c601528181610aab01528181610b8701528181610c9101528181610d5b015261180a015260a051818181610224015281816108a00152818161097c01526117300152f35b634e487b7160e01b81526041600452602490fd5b60001990840360031b1b163862000125565b815162461bcd60e51b815260048101849052601360248201527f72616e646f6d42797465733a206661696c6564000000000000000000000000006044820152606490fd5b634e487b7160e01b86526041600452602486fd5b606091506200010f565b8083018201518187018e01528a96508c945089910162000092565b634e487b7160e01b85526041600452602485fd5b600080fd5b601f909101601f19168101906001600160401b038211908210176200031157604052565b634e487b7160e01b600052604160045260246000fdfe60806040818152600480361015610036575b505050361561001f57600080fd5b60ff600554161561002c57005b610034611800565b005b600092833560e01c908163036e070814610df35750806306fdde0314610d35578063095ea7b314610d0b57806318160ddd14610c6357806323b872dd14610bb65780632495a59914610b725780632e1a7d4d14610a59578063313ce5671461099f5780633644e5151461096457806370a082311461093e5780637986b37d146107a157806393355f4214610753578063940cf1121461070c57806395d89b411461062c578063a9059cbb146105fb578063d0e30db0146105d8578063dd62ed3e146105a3578063de0e9a3e146104a4578063e35ac9fb14610443578063ea598cb01461033d5763eb06f9920361001157346103395761013436610f50565b61013c611276565b60a0810161014a8151611610565b9081865260209284845260ff8688205416610329576101698251611645565b5060808101918251421161031957815160038110156102da5760010361030957815160038110156102da57156102ef575b81519060038210156102da578583019086600060808b60018060a01b039687875116828a019a60608a8d51169b019a8b519151928551948986019660008051602061190a833981519152885286015260608501528584015260a083015260c082015260c0815261020981610eda565b5190208c8787511695519181518681019161190160f01b83527f0000000000000000000000000000000000000000000000000000000000000000602283015260428201526042815261025a81610ef6565b5190209160ff82820151169186825192015192815194855287850152830152606082015282805260015afa156102cf578260005116036102bf5751925191516102a8939092821691166111c0565b8452528120600160ff198254161790556001815580f35b87516303bfcdeb60e21b81528790fd5b88513d6000823e3d90fd5b602187634e487b7160e01b6000525260246000fd5b60608201511561019a57865163291ded6160e01b81528690fd5b8651635105556960e01b81528690fd5b865163f87d927160e01b81528690fd5b8551638baa579f60e01b81528590fd5b8280fd5b5090346103395760203660031901126103395781359161035b611276565b82156104355781516323b872dd60e01b8152339181019190915230602482015260448101839052602081606481877f00000000000000000000000000000000000000000000000000000000000000006001600160a01b03165af1801561042b576103fc575b506103dc6103d6836103d1336112d3565b61114b565b33611433565b51908152816000805160206118ea83398151915260203393a36001815580f35b61041d9060203d602011610424575b6104158183610f2e565b810190611133565b50386103c0565b503d61040b565b82513d86823e3d90fd5b9051631f2a200560e01b8152fd5b5091346104a15761045336610f50565b9061045d8261167a565b156104925760209350828060018060a01b03928387860151168152600387522092015116600052825280600020549051908152f35b5050516303bfcdeb60e21b8152fd5b80fd5b5091903461059f57602036600319011261059f578235906104c3611276565b8115610590576104d2336112d3565b82811061058057936104e86103d6848697611076565b815163a9059cbb60e01b8152339181019190915260248101839052602081604481877f00000000000000000000000000000000000000000000000000000000000000006001600160a01b03165af1801561042b57610561575b50519081526000805160206118ea83398151915260203392a36001815580f35b6105799060203d602011610424576104158183610f2e565b5038610541565b8151631e9acf1760e31b81528590fd5b51631f2a200560e01b81528390fd5b5080fd5b50503461059f578060031936011261059f576020906105d16105c3610e63565b6105cb610e7e565b906110e8565b9051908152f35b83806003193601126104a1576105ec611276565b6105f4611800565b6001815580f35b50503461059f578060031936011261059f5760209061062561061b610e63565b60243590336111c0565b5160018152f35b50903461033957826003193601126103395780516395d89b4160e01b81529183908390817f00000000000000000000000000000000000000000000000000000000000000006001600160a01b03165afa91821561070257836106d994936106dd575b50506106c760228251846106ac829651809260208086019101610e1b565b81016102e560f41b6020820152036002810185520183610f2e565b51918291602083526020830190610e3e565b0390f35b6106fa9293503d8091833e6106f28183610f2e565b810190611014565b90388061068e565b81513d85823e3d90fd5b5091346104a1575061071d36610f50565b916107278361167a565b1561074557506020918201516105d1906001600160a01b03166112d3565b90516303bfcdeb60e21b8152fd5b5034610339576060366003190112610339578160209360ff92610791835161077a81610ebe565b823581526024358882015260443585820152611610565b8252855220541690519015158152f35b5034610339576107b036610f50565b6107b8611276565b60a081016107c68151611610565b9081865260209284845260ff8688205416610329576107e58251611645565b5060808101918251421161031957815160038110156102da5760020361030957815160038110156102da5715610924575b81519060038210156102da578583019086600060808b60018060a01b039687875116828a019a60608a8d51169b019a8b519151928551948986019660008051602061190a833981519152885286015260608501528584015260a083015260c082015260c0815261088581610eda565b5190208c8787511695519181518681019161190160f01b83527f000000000000000000000000000000000000000000000000000000000000000060228301526042820152604281526108d681610ef6565b5190209160ff82820151169186825192015192815194855287850152830152606082015282805260015afa156102cf578260005116036102bf5751925191516102a893909282169116611158565b60608201511561081657865163291ded6160e01b81528690fd5b50503461059f57602036600319011261059f576020906105d161095f610e63565b6110c9565b50503461059f578160031936011261059f57602090517f00000000000000000000000000000000000000000000000000000000000000008152f35b5091346104a157806003193601126104a157815163313ce56760e01b8152926020908490817f00000000000000000000000000000000000000000000000000000000000000006001600160a01b03165afa928315610a4d578193610a0b575b60208460ff855191168152f35b9092506020813d602011610a45575b81610a2760209383610f2e565b8101031261033957519160ff831683036104a1575060ff60206109fe565b3d9150610a1a565b509051903d90823e3d90fd5b5091903461059f57602036600319011261059f57823590610a78611276565b811561059057610a87336112d3565b82811061058057610aa96103d68460ff19936001856005541617600555611076565b7f00000000000000000000000000000000000000000000000000000000000000006001600160a01b0316803b15610b6e578480916024855180948193632e1a7d4d60e01b8352898c8401525af18015610b6457610b51575b508380808086335af1610b12611099565b5015610b415783945060055416600555519081526000805160206118ea83398151915260203392a36001815580f35b81516312171d8360e31b81528590fd5b610b5d90949194610e94565b9238610b01565b83513d87823e3d90fd5b8480fd5b50503461059f578160031936011261059f57517f00000000000000000000000000000000000000000000000000000000000000006001600160a01b03168152602090f35b5091346104a15760603660031901126104a157610bd1610e63565b610bd9610e7e565b90836044359360018060a01b038316815260036020528181203382526020522054946000198610610c13575b6020856106258686866111c0565b838610610c385750908291610c3061062594602097033383611158565b909192610c05565b8451637dc7a0d960e11b81523391810191825260208201879052604082018590529081906060010390fd5b50903461033957826003193601126103395780516370a0823160e01b815230928101929092526020826024817f00000000000000000000000000000000000000000000000000000000000000006001600160a01b03165afa918215610702578392610cd3575b6020838351908152f35b9091506020813d602011610d03575b81610cef60209383610f2e565b810103126103395760209250519038610cc9565b3d9150610ce2565b50503461059f578060031936011261059f57602090610625610d2b610e63565b6024359033611158565b50903461033957826003193601126103395780516306fdde0360e01b81529183908390817f00000000000000000000000000000000000000000000000000000000000000006001600160a01b03165afa91821561070257836106d99493610dd6575b50506106c7602882518094670283934bb30b1bc960c51b6020830152610dc68151809260208686019101610e1b565b8101036008810185520183610f2e565b610deb9293503d8091833e6106f28183610f2e565b903880610d97565b84903461059f578160031936011261059f578060008051602061190a83398151915260209252f35b60005b838110610e2e5750506000910152565b8181015183820152602001610e1e565b90602091610e5781518092818552858086019101610e1b565b601f01601f1916010190565b600435906001600160a01b0382168203610e7957565b600080fd5b602435906001600160a01b0382168203610e7957565b67ffffffffffffffff8111610ea857604052565b634e487b7160e01b600052604160045260246000fd5b6060810190811067ffffffffffffffff821117610ea857604052565b60e0810190811067ffffffffffffffff821117610ea857604052565b6080810190811067ffffffffffffffff821117610ea857604052565b6020810190811067ffffffffffffffff821117610ea857604052565b90601f8019910116810190811067ffffffffffffffff821117610ea857604052565b610100600319820112610e79576040519060c0820182811067ffffffffffffffff821117610ea8576040526004356003811015610e795782526001600160a01b03906024358281168103610e795760208401526044359182168203610e7957606091604084015260643582840152608435608084015260a3190112610e7957604051610fdb81610ebe565b60a435815260c435602082015260e435604082015260a082015290565b67ffffffffffffffff8111610ea857601f01601f191660200190565b602081830312610e795780519067ffffffffffffffff8211610e79570181601f82011215610e7957805161104781610ff8565b926110556040519485610f2e565b81845260208284010111610e79576110739160208085019101610e1b565b90565b9190820391821161108357565b634e487b7160e01b600052601160045260246000fd5b3d156110c4573d906110aa82610ff8565b916110b86040519384610f2e565b82523d6000602084013e565b606090565b336001600160a01b038216036110e257611073906112d3565b50600090565b6001600160a01b039081163381141580611127575b61111f5760005260036020526040600020911660005260205260406000205490565b505050600090565b503382841614156110fd565b90816020910312610e7957518015158103610e795790565b9190820180921161108357565b6001600160a01b039081169182156111a7571690811561118e576000526003602052604060002090600052602052604060002055565b604051634a1406b160e11b815260006004820152602490fd5b60405163e602df0560e01b815260006004820152602490fd5b92916001600160a01b038085161561125d57821615611244576111e2846112d3565b93818510611212579061121093946103d161120a9361120a84611204886112d3565b94611076565b90611433565b565b60405163391434e360e21b81526001600160a01b03919091166004820152602481018590526044810191909152606490fd5b60405163ec442f0560e01b815260006004820152602490fd5b604051634b637e8f60e11b815260006004820152602490fd5b600260005414611287576002600055565b604051633ee5aeb560e01b8152600490fd5b90600182811c921680156112c9575b60208310146112b357565b634e487b7160e01b600052602260045260246000fd5b91607f16916112a8565b60009060018060a01b03168152602090600282526040812060405190818382546112fc81611299565b93848452600191886001821691826000146114115750506001146113d5575b505061132992500382610f2e565b8051156113cf578180916001549061136b6040519161134783610f12565b84835261135d6040519384928a840196876118b7565b03601f198101835282610f2e565b51906004600160981b015afa90611380611099565b91156113985782828051810103126104a15750015190565b60405162461bcd60e51b815260048101849052600f60248201526e191958dc9e5c1d0e8819985a5b1959608a1b6044820152606490fd5b50905090565b87925086528186209086915b8583106113f95750506113299350820101388061131b565b805483880185015286945088939092019181016113e1565b925093505061132994915060ff191682840152151560051b820101388061131b565b604090815190602093848301528382528282019067ffffffffffffffff9280831084841117610ea85782855260019485549161146e85610f12565b60008093819282885261148985519889928d840194856118b7565b039661149d601f1998898101835282610f2e565b51906003600160981b015afa926114b2611099565b93156115da576001600160a01b0316825260028752812082519096909485116115c6576114df8754611299565b601f8111611580575b508093601f861160011461152257505091839491849394611517575b50501b916000199060031b1c1916179055565b015192503880611504565b8783528183209493928692918316915b88838310611566575050501061154d575b505050811b019055565b015160001960f88460031b161c19169055388080611543565b858701518855909601959485019487935090810190611532565b878352818320601f870160051c8101918388106115bc575b601f0160051c019087905b8281106115b15750506114e8565b8481550187906115a3565b9091508190611598565b634e487b7160e01b82526041600452602482fd5b815162461bcd60e51b815260048101899052600f60248201526e195b98dc9e5c1d0e8819985a5b1959608a1b6044820152606490fd5b805190604060208201519101516040519160208301938452604083015260608201526060815261163f81610ef6565b51902090565b61164e90611610565b600052600460205260ff6040600020541661166857600090565b604051638baa579f60e01b8152600490fd5b60808101805142116117ee57815160038110156117aa576117dc57815160038110156117aa57156117c0575b81519060038210156117aa5760206000608082860160a0600180821b03809781845116604098838a8d0151169060608d01519051918b51938b85019560008051602061190a83398151915287528d8601526060850152888401528583015260c082015260c0815261171681610eda565b5190209251169701519085518581019161190160f01b83527f0000000000000000000000000000000000000000000000000000000000000000602283015260428201526042815261176681610ef6565b5190209060ff8682015116908581519101519187519384528684015286830152606082015282805260015afa156117a05750600051161490565b513d6000823e3d90fd5b634e487b7160e01b600052602160045260246000fd5b6060820151156116a65760405163291ded6160e01b8152600490fd5b604051635105556960e01b8152600490fd5b60405163f87d927160e01b8152600490fd5b600034156118a5577f00000000000000000000000000000000000000000000000000000000000000006001600160a01b0316803b1561059f578160049160405192838092630d0e30db60e41b825234905af1801561189a5761188b575b5061186e6103d6346103d1336112d3565b604051903482526000805160206118ea83398151915260203393a3565b61189490610e94565b3861185d565b6040513d84823e3d90fd5b604051631f2a200560e01b8152600490fd5b916118db906110739492600085526020850152608060408501526080840190610e3e565b916060818403910152610e3e56feddf252ad1be2c89b69c2b068fc378daa952ba7f163c4a11628f55a4df523b3efdf30529b599cef851a2b7e4fc96b13d343aea28107d97873f3e0bc909d1e22c6a26469706673582212208919d571e536646352d3c04f444d56021e88f85fc0806b3a899ae08df94aa2b464736f6c63430008180033",
          "opcodes": "PUSH1 0xC0 PUSH1 0x40 DUP2 DUP2 MSTORE CALLVALUE PUSH3 0x2E8 JUMPI DUP2 PUSH3 0x1C87 DUP1 CODESIZE SUB DUP1 SWAP2 PUSH3 0x22 DUP3 DUP6 PUSH3 0x2ED JUMP JUMPDEST DUP4 CODECOPY PUSH1 0x20 SWAP4 DUP5 SWAP2 DUP2 ADD SUB SLT PUSH3 0x2E8 JUMPI MLOAD PUSH1 0x1 PUSH1 0x1 PUSH1 0xA0 SHL SUB DUP2 AND SWAP3 SWAP1 DUP4 SWAP1 SUB PUSH3 0x2E8 JUMPI PUSH1 0x1 PUSH1 0x0 SWAP1 DUP2 SSTORE PUSH1 0x80 SWAP4 DUP5 MSTORE DUP3 MLOAD PUSH1 0x1 PUSH1 0x1 PUSH1 0x40 SHL SUB SWAP4 SWAP2 SWAP3 SWAP2 SWAP1 DUP1 DUP4 ADD DUP6 DUP2 GT DUP3 DUP3 LT OR PUSH3 0x2D4 JUMPI DUP3 MSTORE DUP4 DUP2 MSTORE DUP4 DUP3 MLOAD DUP8 DUP6 DUP3 ADD SWAP4 DUP7 DUP6 MSTORE DUP6 DUP1 DUP5 ADD MSTORE DUP1 MLOAD SWAP1 DUP2 PUSH1 0x60 DUP6 ADD MSTORE DUP8 DUP6 JUMPDEST DUP4 DUP2 LT PUSH3 0x2B9 JUMPI POP POP POP SWAP2 PUSH3 0xC8 DUP3 DUP3 DUP6 DUP8 PUSH1 0x1F SWAP10 SWAP7 DUP2 SWAP9 DUP5 ADD ADD MSTORE DUP9 NOT SWAP9 DUP10 SWAP2 ADD AND DUP2 ADD SUB PUSH1 0x60 DUP2 ADD DUP5 MSTORE ADD DUP3 PUSH3 0x2ED JUMP JUMPDEST MLOAD SWAP1 PUSH20 0x100000000000000000000000000000000000001 GAS STATICCALL RETURNDATASIZE ISZERO PUSH3 0x2AF JUMPI RETURNDATASIZE DUP7 DUP2 GT PUSH3 0x29B JUMPI PUSH3 0x106 DUP6 DUP6 MLOAD SWAP5 PUSH1 0x1F DUP5 ADD AND ADD DUP5 PUSH3 0x2ED JUMP JUMPDEST DUP3 MSTORE RETURNDATASIZE DUP6 DUP6 DUP5 ADD RETURNDATACOPY JUMPDEST ISZERO PUSH3 0x257 JUMPI DUP3 DUP2 MLOAD SWAP2 ADD MLOAD SWAP1 DUP4 DUP2 LT PUSH3 0x245 JUMPI JUMPDEST POP PUSH1 0x1 SSTORE DUP1 MLOAD SWAP2 DUP3 ADD SWAP3 PUSH32 0x8B73C3C69BB8FE3D512ECC4CF759CC79239F7B179B0FFACAA9A75D522B39400F DUP5 MSTORE PUSH32 0x5D3A83AFDFC530254DB404CB73287930E8DE23E166ED44A525A6650D548207EB DUP3 DUP5 ADD MSTORE PUSH32 0xC89EFDAA54C0F20C7ADF612882DF0950F5A951637E0307CDCB4C672F298B8BC6 PUSH1 0x60 DUP5 ADD MSTORE CHAINID DUP7 DUP5 ADD MSTORE ADDRESS PUSH1 0xA0 DUP5 ADD MSTORE PUSH1 0xA0 DUP4 MSTORE PUSH1 0xC0 DUP4 ADD SWAP5 DUP4 DUP7 LT SWAP1 DUP7 GT OR PUSH3 0x231 JUMPI POP DUP4 SWAP1 MSTORE MLOAD SWAP1 KECCAK256 PUSH1 0xA0 MSTORE PUSH2 0x195F SWAP2 DUP3 PUSH3 0x328 DUP4 CODECOPY MLOAD DUP2 DUP2 DUP2 PUSH2 0x38B ADD MSTORE DUP2 DUP2 PUSH2 0x50C ADD MSTORE DUP2 DUP2 PUSH2 0x652 ADD MSTORE DUP2 DUP2 PUSH2 0x9C6 ADD MSTORE DUP2 DUP2 PUSH2 0xAAB ADD MSTORE DUP2 DUP2 PUSH2 0xB87 ADD MSTORE DUP2 DUP2 PUSH2 0xC91 ADD MSTORE DUP2 DUP2 PUSH2 0xD5B ADD MSTORE PUSH2 0x180A ADD MSTORE PUSH1 0xA0 MLOAD DUP2 DUP2 DUP2 PUSH2 0x224 ADD MSTORE DUP2 DUP2 PUSH2 0x8A0 ADD MSTORE DUP2 DUP2 PUSH2 0x97C ADD MSTORE PUSH2 0x1730 ADD MSTORE RETURN JUMPDEST PUSH4 0x4E487B71 PUSH1 0xE0 SHL DUP2 MSTORE PUSH1 0x41 PUSH1 0x4 MSTORE PUSH1 0x24 SWAP1 REVERT JUMPDEST PUSH1 0x0 NOT SWAP1 DUP5 SUB PUSH1 0x3 SHL SHL AND CODESIZE PUSH3 0x125 JUMP JUMPDEST DUP2 MLOAD PUSH3 0x461BCD PUSH1 0xE5 SHL DUP2 MSTORE PUSH1 0x4 DUP2 ADD DUP5 SWAP1 MSTORE PUSH1 0x13 PUSH1 0x24 DUP3 ADD MSTORE PUSH32 0x72616E646F6D42797465733A206661696C656400000000000000000000000000 PUSH1 0x44 DUP3 ADD MSTORE PUSH1 0x64 SWAP1 REVERT JUMPDEST PUSH4 0x4E487B71 PUSH1 0xE0 SHL DUP7 MSTORE PUSH1 0x41 PUSH1 0x4 MSTORE PUSH1 0x24 DUP7 REVERT JUMPDEST PUSH1 0x60 SWAP2 POP PUSH3 0x10F JUMP JUMPDEST DUP1 DUP4 ADD DUP3 ADD MLOAD DUP2 DUP8 ADD DUP15 ADD MSTORE DUP11 SWAP7 POP DUP13 SWAP5 POP DUP10 SWAP2 ADD PUSH3 0x92 JUMP JUMPDEST PUSH4 0x4E487B71 PUSH1 0xE0 SHL DUP6 MSTORE PUSH1 0x41 PUSH1 0x4 MSTORE PUSH1 0x24 DUP6 REVERT JUMPDEST PUSH1 0x0 DUP1 REVERT JUMPDEST PUSH1 0x1F SWAP1 SWAP2 ADD PUSH1 0x1F NOT AND DUP2 ADD SWAP1 PUSH1 0x1 PUSH1 0x1 PUSH1 0x40 SHL SUB DUP3 GT SWAP1 DUP3 LT OR PUSH3 0x311 JUMPI PUSH1 0x40 MSTORE JUMP JUMPDEST PUSH4 0x4E487B71 PUSH1 0xE0 SHL PUSH1 0x0 MSTORE PUSH1 0x41 PUSH1 0x4 MSTORE PUSH1 0x24 PUSH1 0x0 REVERT INVALID PUSH1 0x80 PUSH1 0x40 DUP2 DUP2 MSTORE PUSH1 0x4 DUP1 CALLDATASIZE LT ISZERO PUSH2 0x36 JUMPI JUMPDEST POP POP POP CALLDATASIZE ISZERO PUSH2 0x1F JUMPI PUSH1 0x0 DUP1 REVERT JUMPDEST PUSH1 0xFF PUSH1 0x5 SLOAD AND ISZERO PUSH2 0x2C JUMPI STOP JUMPDEST PUSH2 0x34 PUSH2 0x1800 JUMP JUMPDEST STOP JUMPDEST PUSH1 0x0 SWAP3 DUP4 CALLDATALOAD PUSH1 0xE0 SHR SWAP1 DUP2 PUSH4 0x36E0708 EQ PUSH2 0xDF3 JUMPI POP DUP1 PUSH4 0x6FDDE03 EQ PUSH2 0xD35 JUMPI DUP1 PUSH4 0x95EA7B3 EQ PUSH2 0xD0B JUMPI DUP1 PUSH4 0x18160DDD EQ PUSH2 0xC63 JUMPI DUP1 PUSH4 0x23B872DD EQ PUSH2 0xBB6 JUMPI DUP1 PUSH4 0x2495A599 EQ PUSH2 0xB72 JUMPI DUP1 PUSH4 0x2E1A7D4D EQ PUSH2 0xA59 JUMPI DUP1 PUSH4 0x313CE567 EQ PUSH2 0x99F JUMPI DUP1 PUSH4 0x3644E515 EQ PUSH2 0x964 JUMPI DUP1 PUSH4 0x70A08231 EQ PUSH2 0x93E JUMPI DUP1 PUSH4 0x7986B37D EQ PUSH2 0x7A1 JUMPI DUP1 PUSH4 0x93355F42 EQ PUSH2 0x753 JUMPI DUP1 PUSH4 0x940CF112 EQ PUSH2 0x70C JUMPI DUP1 PUSH4 0x95D89B41 EQ PUSH2 0x62C JUMPI DUP1 PUSH4 0xA9059CBB EQ PUSH2 0x5FB JUMPI DUP1 PUSH4 0xD0E30DB0 EQ PUSH2 0x5D8 JUMPI DUP1 PUSH4 0xDD62ED3E EQ PUSH2 0x5A3 JUMPI DUP1 PUSH4 0xDE0E9A3E EQ PUSH2 0x4A4 JUMPI DUP1 PUSH4 0xE35AC9FB EQ PUSH2 0x443 JUMPI DUP1 PUSH4 0xEA598CB0 EQ PUSH2 0x33D JUMPI PUSH4 0xEB06F992 SUB PUSH2 0x11 JUMPI CALLVALUE PUSH2 0x339 JUMPI PUSH2 0x134 CALLDATASIZE PUSH2 0xF50 JUMP JUMPDEST PUSH2 0x13C PUSH2 0x1276 JUMP JUMPDEST PUSH1 0xA0 DUP2 ADD PUSH2 0x14A DUP2 MLOAD PUSH2 0x1610 JUMP JUMPDEST SWAP1 DUP2 DUP7 MSTORE PUSH1 0x20 SWAP3 DUP5 DUP5 MSTORE PUSH1 0xFF DUP7 DUP9 KECCAK256 SLOAD AND PUSH2 0x329 JUMPI PUSH2 0x169 DUP3 MLOAD PUSH2 0x1645 JUMP JUMPDEST POP PUSH1 0x80 DUP2 ADD SWAP2 DUP3 MLOAD TIMESTAMP GT PUSH2 0x319 JUMPI DUP2 MLOAD PUSH1 0x3 DUP2 LT ISZERO PUSH2 0x2DA JUMPI PUSH1 0x1 SUB PUSH2 0x309 JUMPI DUP2 MLOAD PUSH1 0x3 DUP2 LT ISZERO PUSH2 0x2DA JUMPI ISZERO PUSH2 0x2EF JUMPI JUMPDEST DUP2 MLOAD SWAP1 PUSH1 0x3 DUP3 LT ISZERO PUSH2 0x2DA JUMPI DUP6 DUP4 ADD SWAP1 DUP7 PUSH1 0x0 PUSH1 0x80 DUP12 PUSH1 0x1 DUP1 PUSH1 0xA0 SHL SUB SWAP7 DUP8 DUP8 MLOAD AND DUP3 DUP11 ADD SWAP11 PUSH1 0x60 DUP11 DUP14 MLOAD AND SWAP12 ADD SWAP11 DUP12 MLOAD SWAP2 MLOAD SWAP3 DUP6 MLOAD SWAP5 DUP10 DUP7 ADD SWAP7 PUSH1 0x0 DUP1 MLOAD PUSH1 0x20 PUSH2 0x190A DUP4 CODECOPY DUP2 MLOAD SWAP2 MSTORE DUP9 MSTORE DUP7 ADD MSTORE PUSH1 0x60 DUP6 ADD MSTORE DUP6 DUP5 ADD MSTORE PUSH1 0xA0 DUP4 ADD MSTORE PUSH1 0xC0 DUP3 ADD MSTORE PUSH1 0xC0 DUP2 MSTORE PUSH2 0x209 DUP2 PUSH2 0xEDA JUMP JUMPDEST MLOAD SWAP1 KECCAK256 DUP13 DUP8 DUP8 MLOAD AND SWAP6 MLOAD SWAP2 DUP2 MLOAD DUP7 DUP2 ADD SWAP2 PUSH2 0x1901 PUSH1 0xF0 SHL DUP4 MSTORE PUSH32 0x0 PUSH1 0x22 DUP4 ADD MSTORE PUSH1 0x42 DUP3 ADD MSTORE PUSH1 0x42 DUP2 MSTORE PUSH2 0x25A DUP2 PUSH2 0xEF6 JUMP JUMPDEST MLOAD SWAP1 KECCAK256 SWAP2 PUSH1 0xFF DUP3 DUP3 ADD MLOAD AND SWAP2 DUP7 DUP3 MLOAD SWAP3 ADD MLOAD SWAP3 DUP2 MLOAD SWAP5 DUP6 MSTORE DUP8 DUP6 ADD MSTORE DUP4 ADD MSTORE PUSH1 0x60 DUP3 ADD MSTORE DUP3 DUP1 MSTORE PUSH1 0x1 GAS STATICCALL ISZERO PUSH2 0x2CF JUMPI DUP3 PUSH1 0x0 MLOAD AND SUB PUSH2 0x2BF JUMPI MLOAD SWAP3 MLOAD SWAP2 MLOAD PUSH2 0x2A8 SWAP4 SWAP1 SWAP3 DUP3 AND SWAP2 AND PUSH2 0x11C0 JUMP JUMPDEST DUP5 MSTORE MSTORE DUP2 KECCAK256 PUSH1 0x1 PUSH1 0xFF NOT DUP3 SLOAD AND OR SWAP1 SSTORE PUSH1 0x1 DUP2 SSTORE DUP1 RETURN JUMPDEST DUP8 MLOAD PUSH4 0x3BFCDEB PUSH1 0xE2 SHL DUP2 MSTORE DUP8 SWAP1 REVERT JUMPDEST DUP9 MLOAD RETURNDATASIZE PUSH1 0x0 DUP3 RETURNDATACOPY RETURNDATASIZE SWAP1 REVERT JUMPDEST PUSH1 0x21 DUP8 PUSH4 0x4E487B71 PUSH1 0xE0 SHL PUSH1 0x0 MSTORE MSTORE PUSH1 0x24 PUSH1 0x0 REVERT JUMPDEST PUSH1 0x60 DUP3 ADD MLOAD ISZERO PUSH2 0x19A JUMPI DUP7 MLOAD PUSH4 0x291DED61 PUSH1 0xE0 SHL DUP2 MSTORE DUP7 SWAP1 REVERT JUMPDEST DUP7 MLOAD PUSH4 0x51055569 PUSH1 0xE0 SHL DUP2 MSTORE DUP7 SWAP1 REVERT JUMPDEST DUP7 MLOAD PUSH4 0xF87D9271 PUSH1 0xE0 SHL DUP2 MSTORE DUP7 SWAP1 REVERT JUMPDEST DUP6 MLOAD PUSH4 0x8BAA579F PUSH1 0xE0 SHL DUP2 MSTORE DUP6 SWAP1 REVERT JUMPDEST DUP3 DUP1 REVERT JUMPDEST POP SWAP1 CALLVALUE PUSH2 0x339 JUMPI PUSH1 0x20 CALLDATASIZE PUSH1 0x3 NOT ADD SLT PUSH2 0x339 JUMPI DUP2 CALLDATALOAD SWAP2 PUSH2 0x35B PUSH2 0x1276 JUMP JUMPDEST DUP3 ISZERO PUSH2 0x435 JUMPI DUP2 MLOAD PUSH4 0x23B872DD PUSH1 0xE0 SHL DUP2 MSTORE CALLER SWAP2 DUP2 ADD SWAP2 SWAP1 SWAP2 MSTORE ADDRESS PUSH1 0x24 DUP3 ADD MSTORE PUSH1 0x44 DUP2 ADD DUP4 SWAP1 MSTORE PUSH1 0x20 DUP2 PUSH1 0x64 DUP2 DUP8 PUSH32 0x0 PUSH1 0x1 PUSH1 0x1 PUSH1 0xA0 SHL SUB AND GAS CALL DUP1 ISZERO PUSH2 0x42B JUMPI PUSH2 0x3FC JUMPI JUMPDEST POP PUSH2 0x3DC PUSH2 0x3D6 DUP4 PUSH2 0x3D1 CALLER PUSH2 0x12D3 JUMP JUMPDEST PUSH2 0x114B JUMP JUMPDEST CALLER PUSH2 0x1433 JUMP JUMPDEST MLOAD SWAP1 DUP2 MSTORE DUP2 PUSH1 0x0 DUP1 MLOAD PUSH1 0x20 PUSH2 0x18EA DUP4 CODECOPY DUP2 MLOAD SWAP2 MSTORE PUSH1 0x20 CALLER SWAP4 LOG3 PUSH1 0x1 DUP2 SSTORE DUP1 RETURN JUMPDEST PUSH2 0x41D SWAP1 PUSH1 0x20 RETURNDATASIZE PUSH1 0x20 GT PUSH2 0x424 JUMPI JUMPDEST PUSH2 0x415 DUP2 DUP4 PUSH2 0xF2E JUMP JUMPDEST DUP2 ADD SWAP1 PUSH2 0x1133 JUMP JUMPDEST POP CODESIZE PUSH2 0x3C0 JUMP JUMPDEST POP RETURNDATASIZE PUSH2 0x40B JUMP JUMPDEST DUP3 MLOAD RETURNDATASIZE DUP7 DUP3 RETURNDATACOPY RETURNDATASIZE SWAP1 REVERT JUMPDEST SWAP1 MLOAD PUSH4 0x1F2A2005 PUSH1 0xE0 SHL DUP2 MSTORE REVERT JUMPDEST POP SWAP2 CALLVALUE PUSH2 0x4A1 JUMPI PUSH2 0x453 CALLDATASIZE PUSH2 0xF50 JUMP JUMPDEST SWAP1 PUSH2 0x45D DUP3 PUSH2 0x167A JUMP JUMPDEST ISZERO PUSH2 0x492 JUMPI PUSH1 0x20 SWAP4 POP DUP3 DUP1 PUSH1 0x1 DUP1 PUSH1 0xA0 SHL SUB SWAP3 DUP4 DUP8 DUP7 ADD MLOAD AND DUP2 MSTORE PUSH1 0x3 DUP8 MSTORE KECCAK256 SWAP3 ADD MLOAD AND PUSH1 0x0 MSTORE DUP3 MSTORE DUP1 PUSH1 0x0 KECCAK256 SLOAD SWAP1 MLOAD SWAP1 DUP2 MSTORE RETURN JUMPDEST POP POP MLOAD PUSH4 0x3BFCDEB PUSH1 0xE2 SHL DUP2 MSTORE REVERT JUMPDEST DUP1 REVERT JUMPDEST POP SWAP2 SWAP1 CALLVALUE PUSH2 0x59F JUMPI PUSH1 0x20 CALLDATASIZE PUSH1 0x3 NOT ADD SLT PUSH2 0x59F JUMPI DUP3 CALLDATALOAD SWAP1 PUSH2 0x4C3 PUSH2 0x1276 JUMP JUMPDEST DUP2 ISZERO PUSH2 0x590 JUMPI PUSH2 0x4D2 CALLER PUSH2 0x12D3 JUMP JUMPDEST DUP3 DUP2 LT PUSH2 0x580 JUMPI SWAP4 PUSH2 0x4E8 PUSH2 0x3D6 DUP5 DUP7 SWAP8 PUSH2 0x1076 JUMP JUMPDEST DUP2 MLOAD PUSH4 0xA9059CBB PUSH1 0xE0 SHL DUP2 MSTORE CALLER SWAP2 DUP2 ADD SWAP2 SWAP1 SWAP2 MSTORE PUSH1 0x24 DUP2 ADD DUP4 SWAP1 MSTORE PUSH1 0x20 DUP2 PUSH1 0x44 DUP2 DUP8 PUSH32 0x0 PUSH1 0x1 PUSH1 0x1 PUSH1 0xA0 SHL SUB AND GAS CALL DUP1 ISZERO PUSH2 0x42B JUMPI PUSH2 0x561 JUMPI JUMPDEST POP MLOAD SWAP1 DUP2 MSTORE PUSH1 0x0 DUP1 MLOAD PUSH1 0x20 PUSH2 0x18EA DUP4 CODECOPY DUP2 MLOAD SWAP2 MSTORE PUSH1 0x20 CALLER SWAP3 LOG3 PUSH1 0x1 DUP2 SSTORE DUP1 RETURN JUMPDEST PUSH2 0x579 SWAP1 PUSH1 0x20 RETURNDATASIZE PUSH1 0x20 GT PUSH2 0x424 JUMPI PUSH2 0x415 DUP2 DUP4 PUSH2 0xF2E JUMP JUMPDEST POP CODESIZE PUSH2 0x541 JUMP JUMPDEST DUP2 MLOAD PUSH4 0x1E9ACF17 PUSH1 0xE3 SHL DUP2 MSTORE DUP6 SWAP1 REVERT JUMPDEST MLOAD PUSH4 0x1F2A2005 PUSH1 0xE0 SHL DUP2 MSTORE DUP4 SWAP1 REVERT JUMPDEST POP DUP1 REVERT JUMPDEST POP POP CALLVALUE PUSH2 0x59F JUMPI DUP1 PUSH1 0x3 NOT CALLDATASIZE ADD SLT PUSH2 0x59F JUMPI PUSH1 0x20 SWAP1 PUSH2 0x5D1 PUSH2 0x5C3 PUSH2 0xE63 JUMP JUMPDEST PUSH2 0x5CB PUSH2 0xE7E JUMP JUMPDEST SWAP1 PUSH2 0x10E8 JUMP JUMPDEST SWAP1 MLOAD SWAP1 DUP2 MSTORE RETURN JUMPDEST DUP4 DUP1 PUSH1 0x3 NOT CALLDATASIZE ADD SLT PUSH2 0x4A1 JUMPI PUSH2 0x5EC PUSH2 0x1276 JUMP JUMPDEST PUSH2 0x5F4 PUSH2 0x1800 JUMP JUMPDEST PUSH1 0x1 DUP2 SSTORE DUP1 RETURN JUMPDEST POP POP CALLVALUE PUSH2 0x59F JUMPI DUP1 PUSH1 0x3 NOT CALLDATASIZE ADD SLT PUSH2 0x59F JUMPI PUSH1 0x20 SWAP1 PUSH2 0x625 PUSH2 0x61B PUSH2 0xE63 JUMP JUMPDEST PUSH1 0x24 CALLDATALOAD SWAP1 CALLER PUSH2 0x11C0 JUMP JUMPDEST MLOAD PUSH1 0x1 DUP2 MSTORE RETURN JUMPDEST POP SWAP1 CALLVALUE PUSH2 0x339 JUMPI DUP3 PUSH1 0x3 NOT CALLDATASIZE ADD SLT PUSH2 0x339 JUMPI DUP1 MLOAD PUSH4 0x95D89B41 PUSH1 0xE0 SHL DUP2 MSTORE SWAP2 DUP4 SWAP1 DUP4 SWAP1 DUP2 PUSH32 0x0 PUSH1 0x1 PUSH1 0x1 PUSH1 0xA0 SHL SUB AND GAS STATICCALL SWAP2 DUP3 ISZERO PUSH2 0x702 JUMPI DUP4 PUSH2 0x6D9 SWAP5 SWAP4 PUSH2 0x6DD JUMPI JUMPDEST POP POP PUSH2 0x6C7 PUSH1 0x22 DUP3 MLOAD DUP5 PUSH2 0x6AC DUP3 SWAP7 MLOAD DUP1 SWAP3 PUSH1 0x20 DUP1 DUP7 ADD SWAP2 ADD PUSH2 0xE1B JUMP JUMPDEST DUP2 ADD PUSH2 0x2E5 PUSH1 0xF4 SHL PUSH1 0x20 DUP3 ADD MSTORE SUB PUSH1 0x2 DUP2 ADD DUP6 MSTORE ADD DUP4 PUSH2 0xF2E JUMP JUMPDEST MLOAD SWAP2 DUP3 SWAP2 PUSH1 0x20 DUP4 MSTORE PUSH1 0x20 DUP4 ADD SWAP1 PUSH2 0xE3E JUMP JUMPDEST SUB SWAP1 RETURN JUMPDEST PUSH2 0x6FA SWAP3 SWAP4 POP RETURNDATASIZE DUP1 SWAP2 DUP4 RETURNDATACOPY PUSH2 0x6F2 DUP2 DUP4 PUSH2 0xF2E JUMP JUMPDEST DUP2 ADD SWAP1 PUSH2 0x1014 JUMP JUMPDEST SWAP1 CODESIZE DUP1 PUSH2 0x68E JUMP JUMPDEST DUP2 MLOAD RETURNDATASIZE DUP6 DUP3 RETURNDATACOPY RETURNDATASIZE SWAP1 REVERT JUMPDEST POP SWAP2 CALLVALUE PUSH2 0x4A1 JUMPI POP PUSH2 0x71D CALLDATASIZE PUSH2 0xF50 JUMP JUMPDEST SWAP2 PUSH2 0x727 DUP4 PUSH2 0x167A JUMP JUMPDEST ISZERO PUSH2 0x745 JUMPI POP PUSH1 0x20 SWAP2 DUP3 ADD MLOAD PUSH2 0x5D1 SWAP1 PUSH1 0x1 PUSH1 0x1 PUSH1 0xA0 SHL SUB AND PUSH2 0x12D3 JUMP JUMPDEST SWAP1 MLOAD PUSH4 0x3BFCDEB PUSH1 0xE2 SHL DUP2 MSTORE REVERT JUMPDEST POP CALLVALUE PUSH2 0x339 JUMPI PUSH1 0x60 CALLDATASIZE PUSH1 0x3 NOT ADD SLT PUSH2 0x339 JUMPI DUP2 PUSH1 0x20 SWAP4 PUSH1 0xFF SWAP3 PUSH2 0x791 DUP4 MLOAD PUSH2 0x77A DUP2 PUSH2 0xEBE JUMP JUMPDEST DUP3 CALLDATALOAD DUP2 MSTORE PUSH1 0x24 CALLDATALOAD DUP9 DUP3 ADD MSTORE PUSH1 0x44 CALLDATALOAD DUP6 DUP3 ADD MSTORE PUSH2 0x1610 JUMP JUMPDEST DUP3 MSTORE DUP6 MSTORE KECCAK256 SLOAD AND SWAP1 MLOAD SWAP1 ISZERO ISZERO DUP2 MSTORE RETURN JUMPDEST POP CALLVALUE PUSH2 0x339 JUMPI PUSH2 0x7B0 CALLDATASIZE PUSH2 0xF50 JUMP JUMPDEST PUSH2 0x7B8 PUSH2 0x1276 JUMP JUMPDEST PUSH1 0xA0 DUP2 ADD PUSH2 0x7C6 DUP2 MLOAD PUSH2 0x1610 JUMP JUMPDEST SWAP1 DUP2 DUP7 MSTORE PUSH1 0x20 SWAP3 DUP5 DUP5 MSTORE PUSH1 0xFF DUP7 DUP9 KECCAK256 SLOAD AND PUSH2 0x329 JUMPI PUSH2 0x7E5 DUP3 MLOAD PUSH2 0x1645 JUMP JUMPDEST POP PUSH1 0x80 DUP2 ADD SWAP2 DUP3 MLOAD TIMESTAMP GT PUSH2 0x319 JUMPI DUP2 MLOAD PUSH1 0x3 DUP2 LT ISZERO PUSH2 0x2DA JUMPI PUSH1 0x2 SUB PUSH2 0x309 JUMPI DUP2 MLOAD PUSH1 0x3 DUP2 LT ISZERO PUSH2 0x2DA JUMPI ISZERO PUSH2 0x924 JUMPI JUMPDEST DUP2 MLOAD SWAP1 PUSH1 0x3 DUP3 LT ISZERO PUSH2 0x2DA JUMPI DUP6 DUP4 ADD SWAP1 DUP7 PUSH1 0x0 PUSH1 0x80 DUP12 PUSH1 0x1 DUP1 PUSH1 0xA0 SHL SUB SWAP7 DUP8 DUP8 MLOAD AND DUP3 DUP11 ADD SWAP11 PUSH1 0x60 DUP11 DUP14 MLOAD AND SWAP12 ADD SWAP11 DUP12 MLOAD SWAP2 MLOAD SWAP3 DUP6 MLOAD SWAP5 DUP10 DUP7 ADD SWAP7 PUSH1 0x0 DUP1 MLOAD PUSH1 0x20 PUSH2 0x190A DUP4 CODECOPY DUP2 MLOAD SWAP2 MSTORE DUP9 MSTORE DUP7 ADD MSTORE PUSH1 0x60 DUP6 ADD MSTORE DUP6 DUP5 ADD MSTORE PUSH1 0xA0 DUP4 ADD MSTORE PUSH1 0xC0 DUP3 ADD MSTORE PUSH1 0xC0 DUP2 MSTORE PUSH2 0x885 DUP2 PUSH2 0xEDA JUMP JUMPDEST MLOAD SWAP1 KECCAK256 DUP13 DUP8 DUP8 MLOAD AND SWAP6 MLOAD SWAP2 DUP2 MLOAD DUP7 DUP2 ADD SWAP2 PUSH2 0x1901 PUSH1 0xF0 SHL DUP4 MSTORE PUSH32 0x0 PUSH1 0x22 DUP4 ADD MSTORE PUSH1 0x42 DUP3 ADD MSTORE PUSH1 0x42 DUP2 MSTORE PUSH2 0x8D6 DUP2 PUSH2 0xEF6 JUMP JUMPDEST MLOAD SWAP1 KECCAK256 SWAP2 PUSH1 0xFF DUP3 DUP3 ADD MLOAD AND SWAP2 DUP7 DUP3 MLOAD SWAP3 ADD MLOAD SWAP3 DUP2 MLOAD SWAP5 DUP6 MSTORE DUP8 DUP6 ADD MSTORE DUP4 ADD MSTORE PUSH1 0x60 DUP3 ADD MSTORE DUP3 DUP1 MSTORE PUSH1 0x1 GAS STATICCALL ISZERO PUSH2 0x2CF JUMPI DUP3 PUSH1 0x0 MLOAD AND SUB PUSH2 0x2BF JUMPI MLOAD SWAP3 MLOAD SWAP2 MLOAD PUSH2 0x2A8 SWAP4 SWAP1 SWAP3 DUP3 AND SWAP2 AND PUSH2 0x1158 JUMP JUMPDEST PUSH1 0x60 DUP3 ADD MLOAD ISZERO PUSH2 0x816 JUMPI DUP7 MLOAD PUSH4 0x291DED61 PUSH1 0xE0 SHL DUP2 MSTORE DUP7 SWAP1 REVERT JUMPDEST POP POP CALLVALUE PUSH2 0x59F JUMPI PUSH1 0x20 CALLDATASIZE PUSH1 0x3 NOT ADD SLT PUSH2 0x59F JUMPI PUSH1 0x20 SWAP1 PUSH2 0x5D1 PUSH2 0x95F PUSH2 0xE63 JUMP JUMPDEST PUSH2 0x10C9 JUMP JUMPDEST POP POP CALLVALUE PUSH2 0x59F JUMPI DUP2 PUSH1 0x3 NOT CALLDATASIZE ADD SLT PUSH2 0x59F JUMPI PUSH1 0x20 SWAP1 MLOAD PUSH32 0x0 DUP2 MSTORE RETURN JUMPDEST POP SWAP2 CALLVALUE PUSH2 0x4A1 JUMPI DUP1 PUSH1 0x3 NOT CALLDATASIZE ADD SLT PUSH2 0x4A1 JUMPI DUP2 MLOAD PUSH4 0x313CE567 PUSH1 0xE0 SHL DUP2 MSTORE SWAP3 PUSH1 0x20 SWAP1 DUP5 SWAP1 DUP2 PUSH32 0x0 PUSH1 0x1 PUSH1 0x1 PUSH1 0xA0 SHL SUB AND GAS STATICCALL SWAP3 DUP4 ISZERO PUSH2 0xA4D JUMPI DUP2 SWAP4 PUSH2 0xA0B JUMPI JUMPDEST PUSH1 0x20 DUP5 PUSH1 0xFF DUP6 MLOAD SWAP2 AND DUP2 MSTORE RETURN JUMPDEST SWAP1 SWAP3 POP PUSH1 0x20 DUP2 RETURNDATASIZE PUSH1 0x20 GT PUSH2 0xA45 JUMPI JUMPDEST DUP2 PUSH2 0xA27 PUSH1 0x20 SWAP4 DUP4 PUSH2 0xF2E JUMP JUMPDEST DUP2 ADD SUB SLT PUSH2 0x339 JUMPI MLOAD SWAP2 PUSH1 0xFF DUP4 AND DUP4 SUB PUSH2 0x4A1 JUMPI POP PUSH1 0xFF PUSH1 0x20 PUSH2 0x9FE JUMP JUMPDEST RETURNDATASIZE SWAP2 POP PUSH2 0xA1A JUMP JUMPDEST POP SWAP1 MLOAD SWAP1 RETURNDATASIZE SWAP1 DUP3 RETURNDATACOPY RETURNDATASIZE SWAP1 REVERT JUMPDEST POP SWAP2 SWAP1 CALLVALUE PUSH2 0x59F JUMPI PUSH1 0x20 CALLDATASIZE PUSH1 0x3 NOT ADD SLT PUSH2 0x59F JUMPI DUP3 CALLDATALOAD SWAP1 PUSH2 0xA78 PUSH2 0x1276 JUMP JUMPDEST DUP2 ISZERO PUSH2 0x590 JUMPI PUSH2 0xA87 CALLER PUSH2 0x12D3 JUMP JUMPDEST DUP3 DUP2 LT PUSH2 0x580 JUMPI PUSH2 0xAA9 PUSH2 0x3D6 DUP5 PUSH1 0xFF NOT SWAP4 PUSH1 0x1 DUP6 PUSH1 0x5 SLOAD AND OR PUSH1 0x5 SSTORE PUSH2 0x1076 JUMP JUMPDEST PUSH32 0x0 PUSH1 0x1 PUSH1 0x1 PUSH1 0xA0 SHL SUB AND DUP1 EXTCODESIZE ISZERO PUSH2 0xB6E JUMPI DUP5 DUP1 SWAP2 PUSH1 0x24 DUP6 MLOAD DUP1 SWAP5 DUP2 SWAP4 PUSH4 0x2E1A7D4D PUSH1 0xE0 SHL DUP4 MSTORE DUP10 DUP13 DUP5 ADD MSTORE GAS CALL DUP1 ISZERO PUSH2 0xB64 JUMPI PUSH2 0xB51 JUMPI JUMPDEST POP DUP4 DUP1 DUP1 DUP1 DUP7 CALLER GAS CALL PUSH2 0xB12 PUSH2 0x1099 JUMP JUMPDEST POP ISZERO PUSH2 0xB41 JUMPI DUP4 SWAP5 POP PUSH1 0x5 SLOAD AND PUSH1 0x5 SSTORE MLOAD SWAP1 DUP2 MSTORE PUSH1 0x0 DUP1 MLOAD PUSH1 0x20 PUSH2 0x18EA DUP4 CODECOPY DUP2 MLOAD SWAP2 MSTORE PUSH1 0x20 CALLER SWAP3 LOG3 PUSH1 0x1 DUP2 SSTORE DUP1 RETURN JUMPDEST DUP2 MLOAD PUSH4 0x12171D83 PUSH1 0xE3 SHL DUP2 MSTORE DUP6 SWAP1 REVERT JUMPDEST PUSH2 0xB5D SWAP1 SWAP5 SWAP2 SWAP5 PUSH2 0xE94 JUMP JUMPDEST SWAP3 CODESIZE PUSH2 0xB01 JUMP JUMPDEST DUP4 MLOAD RETURNDATASIZE DUP8 DUP3 RETURNDATACOPY RETURNDATASIZE SWAP1 REVERT JUMPDEST DUP5 DUP1 REVERT JUMPDEST POP POP CALLVALUE PUSH2 0x59F JUMPI DUP2 PUSH1 0x3 NOT CALLDATASIZE ADD SLT PUSH2 0x59F JUMPI MLOAD PUSH32 0x0 PUSH1 0x1 PUSH1 0x1 PUSH1 0xA0 SHL SUB AND DUP2 MSTORE PUSH1 0x20 SWAP1 RETURN JUMPDEST POP SWAP2 CALLVALUE PUSH2 0x4A1 JUMPI PUSH1 0x60 CALLDATASIZE PUSH1 0x3 NOT ADD SLT PUSH2 0x4A1 JUMPI PUSH2 0xBD1 PUSH2 0xE63 JUMP JUMPDEST PUSH2 0xBD9 PUSH2 0xE7E JUMP JUMPDEST SWAP1 DUP4 PUSH1 0x44 CALLDATALOAD SWAP4 PUSH1 0x1 DUP1 PUSH1 0xA0 SHL SUB DUP4 AND DUP2 MSTORE PUSH1 0x3 PUSH1 0x20 MSTORE DUP2 DUP2 KECCAK256 CALLER DUP3 MSTORE PUSH1 0x20 MSTORE KECCAK256 SLOAD SWAP5 PUSH1 0x0 NOT DUP7 LT PUSH2 0xC13 JUMPI JUMPDEST PUSH1 0x20 DUP6 PUSH2 0x625 DUP7 DUP7 DUP7 PUSH2 0x11C0 JUMP JUMPDEST DUP4 DUP7 LT PUSH2 0xC38 JUMPI POP SWAP1 DUP3 SWAP2 PUSH2 0xC30 PUSH2 0x625 SWAP5 PUSH1 0x20 SWAP8 SUB CALLER DUP4 PUSH2 0x1158 JUMP JUMPDEST SWAP1 SWAP2 SWAP3 PUSH2 0xC05 JUMP JUMPDEST DUP5 MLOAD PUSH4 0x7DC7A0D9 PUSH1 0xE1 SHL DUP2 MSTORE CALLER SWAP2 DUP2 ADD SWAP2 DUP3 MSTORE PUSH1 0x20 DUP3 ADD DUP8 SWAP1 MSTORE PUSH1 0x40 DUP3 ADD DUP6 SWAP1 MSTORE SWAP1 DUP2 SWAP1 PUSH1 0x60 ADD SUB SWAP1 REVERT JUMPDEST POP SWAP1 CALLVALUE PUSH2 0x339 JUMPI DUP3 PUSH1 0x3 NOT CALLDATASIZE ADD SLT PUSH2 0x339 JUMPI DUP1 MLOAD PUSH4 0x70A08231 PUSH1 0xE0 SHL DUP2 MSTORE ADDRESS SWAP3 DUP2 ADD SWAP3 SWAP1 SWAP3 MSTORE PUSH1 0x20 DUP3 PUSH1 0x24 DUP2 PUSH32 0x0 PUSH1 0x1 PUSH1 0x1 PUSH1 0xA0 SHL SUB AND GAS STATICCALL SWAP2 DUP3 ISZERO PUSH2 0x702 JUMPI DUP4 SWAP3 PUSH2 0xCD3 JUMPI JUMPDEST PUSH1 0x20 DUP4 DUP4 MLOAD SWAP1 DUP2 MSTORE RETURN JUMPDEST SWAP1 SWAP2 POP PUSH1 0x20 DUP2 RETURNDATASIZE PUSH1 0x20 GT PUSH2 0xD03 JUMPI JUMPDEST DUP2 PUSH2 0xCEF PUSH1 0x20 SWAP4 DUP4 PUSH2 0xF2E JUMP JUMPDEST DUP2 ADD SUB SLT PUSH2 0x339 JUMPI PUSH1 0x20 SWAP3 POP MLOAD SWAP1 CODESIZE PUSH2 0xCC9 JUMP JUMPDEST RETURNDATASIZE SWAP2 POP PUSH2 0xCE2 JUMP JUMPDEST POP POP CALLVALUE PUSH2 0x59F JUMPI DUP1 PUSH1 0x3 NOT CALLDATASIZE ADD SLT PUSH2 0x59F JUMPI PUSH1 0x20 SWAP1 PUSH2 0x625 PUSH2 0xD2B PUSH2 0xE63 JUMP JUMPDEST PUSH1 0x24 CALLDATALOAD SWAP1 CALLER PUSH2 0x1158 JUMP JUMPDEST POP SWAP1 CALLVALUE PUSH2 0x339 JUMPI DUP3 PUSH1 0x3 NOT CALLDATASIZE ADD SLT PUSH2 0x339 JUMPI DUP1 MLOAD PUSH4 0x6FDDE03 PUSH1 0xE0 SHL DUP2 MSTORE SWAP2 DUP4 SWAP1 DUP4 SWAP1 DUP2 PUSH32 0x0 PUSH1 0x1 PUSH1 0x1 PUSH1 0xA0 SHL SUB AND GAS STATICCALL SWAP2 DUP3 ISZERO PUSH2 0x702 JUMPI DUP4 PUSH2 0x6D9 SWAP5 SWAP4 PUSH2 0xDD6 JUMPI JUMPDEST POP POP PUSH2 0x6C7 PUSH1 0x28 DUP3 MLOAD DUP1 SWAP5 PUSH8 0x283934BB30B1BC9 PUSH1 0xC5 SHL PUSH1 0x20 DUP4 ADD MSTORE PUSH2 0xDC6 DUP2 MLOAD DUP1 SWAP3 PUSH1 0x20 DUP7 DUP7 ADD SWAP2 ADD PUSH2 0xE1B JUMP JUMPDEST DUP2 ADD SUB PUSH1 0x8 DUP2 ADD DUP6 MSTORE ADD DUP4 PUSH2 0xF2E JUMP JUMPDEST PUSH2 0xDEB SWAP3 SWAP4 POP RETURNDATASIZE DUP1 SWAP2 DUP4 RETURNDATACOPY PUSH2 0x6F2 DUP2 DUP4 PUSH2 0xF2E JUMP JUMPDEST SWAP1 CODESIZE DUP1 PUSH2 0xD97 JUMP JUMPDEST DUP5 SWAP1 CALLVALUE PUSH2 0x59F JUMPI DUP2 PUSH1 0x3 NOT CALLDATASIZE ADD SLT PUSH2 0x59F JUMPI DUP1 PUSH1 0x0 DUP1 MLOAD PUSH1 0x20 PUSH2 0x190A DUP4 CODECOPY DUP2 MLOAD SWAP2 MSTORE PUSH1 0x20 SWAP3 MSTORE RETURN JUMPDEST PUSH1 0x0 JUMPDEST DUP4 DUP2 LT PUSH2 0xE2E JUMPI POP POP PUSH1 0x0 SWAP2 ADD MSTORE JUMP JUMPDEST DUP2 DUP2 ADD MLOAD DUP4 DUP3 ADD MSTORE PUSH1 0x20 ADD PUSH2 0xE1E JUMP JUMPDEST SWAP1 PUSH1 0x20 SWAP2 PUSH2 0xE57 DUP2 MLOAD DUP1 SWAP3 DUP2 DUP6 MSTORE DUP6 DUP1 DUP7 ADD SWAP2 ADD PUSH2 0xE1B JUMP JUMPDEST PUSH1 0x1F ADD PUSH1 0x1F NOT AND ADD ADD SWAP1 JUMP JUMPDEST PUSH1 0x4 CALLDATALOAD SWAP1 PUSH1 0x1 PUSH1 0x1 PUSH1 0xA0 SHL SUB DUP3 AND DUP3 SUB PUSH2 0xE79 JUMPI JUMP JUMPDEST PUSH1 0x0 DUP1 REVERT JUMPDEST PUSH1 0x24 CALLDATALOAD SWAP1 PUSH1 0x1 PUSH1 0x1 PUSH1 0xA0 SHL SUB DUP3 AND DUP3 SUB PUSH2 0xE79 JUMPI JUMP JUMPDEST PUSH8 0xFFFFFFFFFFFFFFFF DUP2 GT PUSH2 0xEA8 JUMPI PUSH1 0x40 MSTORE JUMP JUMPDEST PUSH4 0x4E487B71 PUSH1 0xE0 SHL PUSH1 0x0 MSTORE PUSH1 0x41 PUSH1 0x4 MSTORE PUSH1 0x24 PUSH1 0x0 REVERT JUMPDEST PUSH1 0x60 DUP2 ADD SWAP1 DUP2 LT PUSH8 0xFFFFFFFFFFFFFFFF DUP3 GT OR PUSH2 0xEA8 JUMPI PUSH1 0x40 MSTORE JUMP JUMPDEST PUSH1 0xE0 DUP2 ADD SWAP1 DUP2 LT PUSH8 0xFFFFFFFFFFFFFFFF DUP3 GT OR PUSH2 0xEA8 JUMPI PUSH1 0x40 MSTORE JUMP JUMPDEST PUSH1 0x80 DUP2 ADD SWAP1 DUP2 LT PUSH8 0xFFFFFFFFFFFFFFFF DUP3 GT OR PUSH2 0xEA8 JUMPI PUSH1 0x40 MSTORE JUMP JUMPDEST PUSH1 0x20 DUP2 ADD SWAP1 DUP2 LT PUSH8 0xFFFFFFFFFFFFFFFF DUP3 GT OR PUSH2 0xEA8 JUMPI PUSH1 0x40 MSTORE JUMP JUMPDEST SWAP1 PUSH1 0x1F DUP1 NOT SWAP2 ADD AND DUP2 ADD SWAP1 DUP2 LT PUSH8 0xFFFFFFFFFFFFFFFF DUP3 GT OR PUSH2 0xEA8 JUMPI PUSH1 0x40 MSTORE JUMP JUMPDEST PUSH2 0x100 PUSH1 0x3 NOT DUP3 ADD SLT PUSH2 0xE79 JUMPI PUSH1 0x40 MLOAD SWAP1 PUSH1 0xC0 DUP3 ADD DUP3 DUP2 LT PUSH8 0xFFFFFFFFFFFFFFFF DUP3 GT OR PUSH2 0xEA8 JUMPI PUSH1 0x40 MSTORE PUSH1 0x4 CALLDATALOAD PUSH1 0x3 DUP2 LT ISZERO PUSH2 0xE79 JUMPI DUP3 MSTORE PUSH1 0x1 PUSH1 0x1 PUSH1 0xA0 SHL SUB SWAP1 PUSH1 0x24 CALLDATALOAD DUP3 DUP2 AND DUP2 SUB PUSH2 0xE79 JUMPI PUSH1 0x20 DUP5 ADD MSTORE PUSH1 0x44 CALLDATALOAD SWAP2 DUP3 AND DUP3 SUB PUSH2 0xE79 JUMPI PUSH1 0x60 SWAP2 PUSH1 0x40 DUP5 ADD MSTORE PUSH1 0x64 CALLDATALOAD DUP3 DUP5 ADD MSTORE PUSH1 0x84 CALLDATALOAD PUSH1 0x80 DUP5 ADD MSTORE PUSH1 0xA3 NOT ADD SLT PUSH2 0xE79 JUMPI PUSH1 0x40 MLOAD PUSH2 0xFDB DUP2 PUSH2 0xEBE JUMP JUMPDEST PUSH1 0xA4 CALLDATALOAD DUP2 MSTORE PUSH1 0xC4 CALLDATALOAD PUSH1 0x20 DUP3 ADD MSTORE PUSH1 0xE4 CALLDATALOAD PUSH1 0x40 DUP3 ADD MSTORE PUSH1 0xA0 DUP3 ADD MSTORE SWAP1 JUMP JUMPDEST PUSH8 0xFFFFFFFFFFFFFFFF DUP2 GT PUSH2 0xEA8 JUMPI PUSH1 0x1F ADD PUSH1 0x1F NOT AND PUSH1 0x20 ADD SWAP1 JUMP JUMPDEST PUSH1 0x20 DUP2 DUP4 SUB SLT PUSH2 0xE79 JUMPI DUP1 MLOAD SWAP1 PUSH8 0xFFFFFFFFFFFFFFFF DUP3 GT PUSH2 0xE79 JUMPI ADD DUP2 PUSH1 0x1F DUP3 ADD SLT ISZERO PUSH2 0xE79 JUMPI DUP1 MLOAD PUSH2 0x1047 DUP2 PUSH2 0xFF8 JUMP JUMPDEST SWAP3 PUSH2 0x1055 PUSH1 0x40 MLOAD SWAP5 DUP6 PUSH2 0xF2E JUMP JUMPDEST DUP2 DUP5 MSTORE PUSH1 0x20 DUP3 DUP5 ADD ADD GT PUSH2 0xE79 JUMPI PUSH2 0x1073 SWAP2 PUSH1 0x20 DUP1 DUP6 ADD SWAP2 ADD PUSH2 0xE1B JUMP JUMPDEST SWAP1 JUMP JUMPDEST SWAP2 SWAP1 DUP3 SUB SWAP2 DUP3 GT PUSH2 0x1083 JUMPI JUMP JUMPDEST PUSH4 0x4E487B71 PUSH1 0xE0 SHL PUSH1 0x0 MSTORE PUSH1 0x11 PUSH1 0x4 MSTORE PUSH1 0x24 PUSH1 0x0 REVERT JUMPDEST RETURNDATASIZE ISZERO PUSH2 0x10C4 JUMPI RETURNDATASIZE SWAP1 PUSH2 0x10AA DUP3 PUSH2 0xFF8 JUMP JUMPDEST SWAP2 PUSH2 0x10B8 PUSH1 0x40 MLOAD SWAP4 DUP5 PUSH2 0xF2E JUMP JUMPDEST DUP3 MSTORE RETURNDATASIZE PUSH1 0x0 PUSH1 0x20 DUP5 ADD RETURNDATACOPY JUMP JUMPDEST PUSH1 0x60 SWAP1 JUMP JUMPDEST CALLER PUSH1 0x1 PUSH1 0x1 PUSH1 0xA0 SHL SUB DUP3 AND SUB PUSH2 0x10E2 JUMPI PUSH2 0x1073 SWAP1 PUSH2 0x12D3 JUMP JUMPDEST POP PUSH1 0x0 SWAP1 JUMP JUMPDEST PUSH1 0x1 PUSH1 0x1 PUSH1 0xA0 SHL SUB SWAP1 DUP2 AND CALLER DUP2 EQ ISZERO DUP1 PUSH2 0x1127 JUMPI JUMPDEST PUSH2 0x111F JUMPI PUSH1 0x0 MSTORE PUSH1 0x3 PUSH1 0x20 MSTORE PUSH1 0x40 PUSH1 0x0 KECCAK256 SWAP2 AND PUSH1 0x0 MSTORE PUSH1 0x20 MSTORE PUSH1 0x40 PUSH1 0x0 KECCAK256 SLOAD SWAP1 JUMP JUMPDEST POP POP POP PUSH1 0x0 SWAP1 JUMP JUMPDEST POP CALLER DUP3 DUP5 AND EQ ISZERO PUSH2 0x10FD JUMP JUMPDEST SWAP1 DUP2 PUSH1 0x20 SWAP2 SUB SLT PUSH2 0xE79 JUMPI MLOAD DUP1 ISZERO ISZERO DUP2 SUB PUSH2 0xE79 JUMPI SWAP1 JUMP JUMPDEST SWAP2 SWAP1 DUP3 ADD DUP1 SWAP3 GT PUSH2 0x1083 JUMPI JUMP JUMPDEST PUSH1 0x1 PUSH1 0x1 PUSH1 0xA0 SHL SUB SWAP1 DUP2 AND SWAP2 DUP3 ISZERO PUSH2 0x11A7 JUMPI AND SWAP1 DUP2 ISZERO PUSH2 0x118E JUMPI PUSH1 0x0 MSTORE PUSH1 0x3 PUSH1 0x20 MSTORE PUSH1 0x40 PUSH1 0x0 KECCAK256 SWAP1 PUSH1 0x0 MSTORE PUSH1 0x20 MSTORE PUSH1 0x40 PUSH1 0x0 KECCAK256 SSTORE JUMP JUMPDEST PUSH1 0x40 MLOAD PUSH4 0x4A1406B1 PUSH1 0xE1 SHL DUP2 MSTORE PUSH1 0x0 PUSH1 0x4 DUP3 ADD MSTORE PUSH1 0x24 SWAP1 REVERT JUMPDEST PUSH1 0x40 MLOAD PUSH4 0xE602DF05 PUSH1 0xE0 SHL DUP2 MSTORE PUSH1 0x0 PUSH1 0x4 DUP3 ADD MSTORE PUSH1 0x24 SWAP1 REVERT JUMPDEST SWAP3 SWAP2 PUSH1 0x1 PUSH1 0x1 PUSH1 0xA0 SHL SUB DUP1 DUP6 AND ISZERO PUSH2 0x125D JUMPI DUP3 AND ISZERO PUSH2 0x1244 JUMPI PUSH2 0x11E2 DUP5 PUSH2 0x12D3 JUMP JUMPDEST SWAP4 DUP2 DUP6 LT PUSH2 0x1212 JUMPI SWAP1 PUSH2 0x1210 SWAP4 SWAP5 PUSH2 0x3D1 PUSH2 0x120A SWAP4 PUSH2 0x120A DUP5 PUSH2 0x1204 DUP9 PUSH2 0x12D3 JUMP JUMPDEST SWAP5 PUSH2 0x1076 JUMP JUMPDEST SWAP1 PUSH2 0x1433 JUMP JUMPDEST JUMP JUMPDEST PUSH1 0x40 MLOAD PUSH4 0x391434E3 PUSH1 0xE2 SHL DUP2 MSTORE PUSH1 0x1 PUSH1 0x1 PUSH1 0xA0 SHL SUB SWAP2 SWAP1 SWAP2 AND PUSH1 0x4 DUP3 ADD MSTORE PUSH1 0x24 DUP2 ADD DUP6 SWAP1 MSTORE PUSH1 0x44 DUP2 ADD SWAP2 SWAP1 SWAP2 MSTORE PUSH1 0x64 SWAP1 REVERT JUMPDEST PUSH1 0x40 MLOAD PUSH4 0xEC442F05 PUSH1 0xE0 SHL DUP2 MSTORE PUSH1 0x0 PUSH1 0x4 DUP3 ADD MSTORE PUSH1 0x24 SWAP1 REVERT JUMPDEST PUSH1 0x40 MLOAD PUSH4 0x4B637E8F PUSH1 0xE1 SHL DUP2 MSTORE PUSH1 0x0 PUSH1 0x4 DUP3 ADD MSTORE PUSH1 0x24 SWAP1 REVERT JUMPDEST PUSH1 0x2 PUSH1 0x0 SLOAD EQ PUSH2 0x1287 JUMPI PUSH1 0x2 PUSH1 0x0 SSTORE JUMP JUMPDEST PUSH1 0x40 MLOAD PUSH4 0x3EE5AEB5 PUSH1 0xE0 SHL DUP2 MSTORE PUSH1 0x4 SWAP1 REVERT JUMPDEST SWAP1 PUSH1 0x1 DUP3 DUP2 SHR SWAP3 AND DUP1 ISZERO PUSH2 0x12C9 JUMPI JUMPDEST PUSH1 0x20 DUP4 LT EQ PUSH2 0x12B3 JUMPI JUMP JUMPDEST PUSH4 0x4E487B71 PUSH1 0xE0 SHL PUSH1 0x0 MSTORE PUSH1 0x22 PUSH1 0x4 MSTORE PUSH1 0x24 PUSH1 0x0 REVERT JUMPDEST SWAP2 PUSH1 0x7F AND SWAP2 PUSH2 0x12A8 JUMP JUMPDEST PUSH1 0x0 SWAP1 PUSH1 0x1 DUP1 PUSH1 0xA0 SHL SUB AND DUP2 MSTORE PUSH1 0x20 SWAP1 PUSH1 0x2 DUP3 MSTORE PUSH1 0x40 DUP2 KECCAK256 PUSH1 0x40 MLOAD SWAP1 DUP2 DUP4 DUP3 SLOAD PUSH2 0x12FC DUP2 PUSH2 0x1299 JUMP JUMPDEST SWAP4 DUP5 DUP5 MSTORE PUSH1 0x1 SWAP2 DUP9 PUSH1 0x1 DUP3 AND SWAP2 DUP3 PUSH1 0x0 EQ PUSH2 0x1411 JUMPI POP POP PUSH1 0x1 EQ PUSH2 0x13D5 JUMPI JUMPDEST POP POP PUSH2 0x1329 SWAP3 POP SUB DUP3 PUSH2 0xF2E JUMP JUMPDEST DUP1 MLOAD ISZERO PUSH2 0x13CF JUMPI DUP2 DUP1 SWAP2 PUSH1 0x1 SLOAD SWAP1 PUSH2 0x136B PUSH1 0x40 MLOAD SWAP2 PUSH2 0x1347 DUP4 PUSH2 0xF12 JUMP JUMPDEST DUP5 DUP4 MSTORE PUSH2 0x135D PUSH1 0x40 MLOAD SWAP4 DUP5 SWAP3 DUP11 DUP5 ADD SWAP7 DUP8 PUSH2 0x18B7 JUMP JUMPDEST SUB PUSH1 0x1F NOT DUP2 ADD DUP4 MSTORE DUP3 PUSH2 0xF2E JUMP JUMPDEST MLOAD SWAP1 PUSH1 0x4 PUSH1 0x1 PUSH1 0x98 SHL ADD GAS STATICCALL SWAP1 PUSH2 0x1380 PUSH2 0x1099 JUMP JUMPDEST SWAP2 ISZERO PUSH2 0x1398 JUMPI DUP3 DUP3 DUP1 MLOAD DUP2 ADD SUB SLT PUSH2 0x4A1 JUMPI POP ADD MLOAD SWAP1 JUMP JUMPDEST PUSH1 0x40 MLOAD PUSH3 0x461BCD PUSH1 0xE5 SHL DUP2 MSTORE PUSH1 0x4 DUP2 ADD DUP5 SWAP1 MSTORE PUSH1 0xF PUSH1 0x24 DUP3 ADD MSTORE PUSH15 0x191958DC9E5C1D0E8819985A5B1959 PUSH1 0x8A SHL PUSH1 0x44 DUP3 ADD MSTORE PUSH1 0x64 SWAP1 REVERT JUMPDEST POP SWAP1 POP SWAP1 JUMP JUMPDEST DUP8 SWAP3 POP DUP7 MSTORE DUP2 DUP7 KECCAK256 SWAP1 DUP7 SWAP2 JUMPDEST DUP6 DUP4 LT PUSH2 0x13F9 JUMPI POP POP PUSH2 0x1329 SWAP4 POP DUP3 ADD ADD CODESIZE DUP1 PUSH2 0x131B JUMP JUMPDEST DUP1 SLOAD DUP4 DUP9 ADD DUP6 ADD MSTORE DUP7 SWAP5 POP DUP9 SWAP4 SWAP1 SWAP3 ADD SWAP2 DUP2 ADD PUSH2 0x13E1 JUMP JUMPDEST SWAP3 POP SWAP4 POP POP PUSH2 0x1329 SWAP5 SWAP2 POP PUSH1 0xFF NOT AND DUP3 DUP5 ADD MSTORE ISZERO ISZERO PUSH1 0x5 SHL DUP3 ADD ADD CODESIZE DUP1 PUSH2 0x131B JUMP JUMPDEST PUSH1 0x40 SWAP1 DUP2 MLOAD SWAP1 PUSH1 0x20 SWAP4 DUP5 DUP4 ADD MSTORE DUP4 DUP3 MSTORE DUP3 DUP3 ADD SWAP1 PUSH8 0xFFFFFFFFFFFFFFFF SWAP3 DUP1 DUP4 LT DUP5 DUP5 GT OR PUSH2 0xEA8 JUMPI DUP3 DUP6 MSTORE PUSH1 0x1 SWAP5 DUP6 SLOAD SWAP2 PUSH2 0x146E DUP6 PUSH2 0xF12 JUMP JUMPDEST PUSH1 0x0 DUP1 SWAP4 DUP2 SWAP3 DUP3 DUP9 MSTORE PUSH2 0x1489 DUP6 MLOAD SWAP9 DUP10 SWAP3 DUP14 DUP5 ADD SWAP5 DUP6 PUSH2 0x18B7 JUMP JUMPDEST SUB SWAP7 PUSH2 0x149D PUSH1 0x1F NOT SWAP9 DUP10 DUP2 ADD DUP4 MSTORE DUP3 PUSH2 0xF2E JUMP JUMPDEST MLOAD SWAP1 PUSH1 0x3 PUSH1 0x1 PUSH1 0x98 SHL ADD GAS STATICCALL SWAP3 PUSH2 0x14B2 PUSH2 0x1099 JUMP JUMPDEST SWAP4 ISZERO PUSH2 0x15DA JUMPI PUSH1 0x1 PUSH1 0x1 PUSH1 0xA0 SHL SUB AND DUP3 MSTORE PUSH1 0x2 DUP8 MSTORE DUP2 KECCAK256 DUP3 MLOAD SWAP1 SWAP7 SWAP1 SWAP5 DUP6 GT PUSH2 0x15C6 JUMPI PUSH2 0x14DF DUP8 SLOAD PUSH2 0x1299 JUMP JUMPDEST PUSH1 0x1F DUP2 GT PUSH2 0x1580 JUMPI JUMPDEST POP DUP1 SWAP4 PUSH1 0x1F DUP7 GT PUSH1 0x1 EQ PUSH2 0x1522 JUMPI POP POP SWAP2 DUP4 SWAP5 SWAP2 DUP5 SWAP4 SWAP5 PUSH2 0x1517 JUMPI JUMPDEST POP POP SHL SWAP2 PUSH1 0x0 NOT SWAP1 PUSH1 0x3 SHL SHR NOT AND OR SWAP1 SSTORE JUMP JUMPDEST ADD MLOAD SWAP3 POP CODESIZE DUP1 PUSH2 0x1504 JUMP JUMPDEST DUP8 DUP4 MSTORE DUP2 DUP4 KECCAK256 SWAP5 SWAP4 SWAP3 DUP7 SWAP3 SWAP2 DUP4 AND SWAP2 JUMPDEST DUP9 DUP4 DUP4 LT PUSH2 0x1566 JUMPI POP POP POP LT PUSH2 0x154D JUMPI JUMPDEST POP POP POP DUP2 SHL ADD SWAP1 SSTORE JUMP JUMPDEST ADD MLOAD PUSH1 0x0 NOT PUSH1 0xF8 DUP5 PUSH1 0x3 SHL AND SHR NOT AND SWAP1 SSTORE CODESIZE DUP1 DUP1 PUSH2 0x1543 JUMP JUMPDEST DUP6 DUP8 ADD MLOAD DUP9 SSTORE SWAP1 SWAP7 ADD SWAP6 SWAP5 DUP6 ADD SWAP5 DUP8 SWAP4 POP SWAP1 DUP2 ADD SWAP1 PUSH2 0x1532 JUMP JUMPDEST DUP8 DUP4 MSTORE DUP2 DUP4 KECCAK256 PUSH1 0x1F DUP8 ADD PUSH1 0x5 SHR DUP2 ADD SWAP2 DUP4 DUP9 LT PUSH2 0x15BC JUMPI JUMPDEST PUSH1 0x1F ADD PUSH1 0x5 SHR ADD SWAP1 DUP8 SWAP1 JUMPDEST DUP3 DUP2 LT PUSH2 0x15B1 JUMPI POP POP PUSH2 0x14E8 JUMP JUMPDEST DUP5 DUP2 SSTORE ADD DUP8 SWAP1 PUSH2 0x15A3 JUMP JUMPDEST SWAP1 SWAP2 POP DUP2 SWAP1 PUSH2 0x1598 JUMP JUMPDEST PUSH4 0x4E487B71 PUSH1 0xE0 SHL DUP3 MSTORE PUSH1 0x41 PUSH1 0x4 MSTORE PUSH1 0x24 DUP3 REVERT JUMPDEST DUP2 MLOAD PUSH3 0x461BCD PUSH1 0xE5 SHL DUP2 MSTORE PUSH1 0x4 DUP2 ADD DUP10 SWAP1 MSTORE PUSH1 0xF PUSH1 0x24 DUP3 ADD MSTORE PUSH15 0x195B98DC9E5C1D0E8819985A5B1959 PUSH1 0x8A SHL PUSH1 0x44 DUP3 ADD MSTORE PUSH1 0x64 SWAP1 REVERT JUMPDEST DUP1 MLOAD SWAP1 PUSH1 0x40 PUSH1 0x20 DUP3 ADD MLOAD SWAP2 ADD MLOAD PUSH1 0x40 MLOAD SWAP2 PUSH1 0x20 DUP4 ADD SWAP4 DUP5 MSTORE PUSH1 0x40 DUP4 ADD MSTORE PUSH1 0x60 DUP3 ADD MSTORE PUSH1 0x60 DUP2 MSTORE PUSH2 0x163F DUP2 PUSH2 0xEF6 JUMP JUMPDEST MLOAD SWAP1 KECCAK256 SWAP1 JUMP JUMPDEST PUSH2 0x164E SWAP1 PUSH2 0x1610 JUMP JUMPDEST PUSH1 0x0 MSTORE PUSH1 0x4 PUSH1 0x20 MSTORE PUSH1 0xFF PUSH1 0x40 PUSH1 0x0 KECCAK256 SLOAD AND PUSH2 0x1668 JUMPI PUSH1 0x0 SWAP1 JUMP JUMPDEST PUSH1 0x40 MLOAD PUSH4 0x8BAA579F PUSH1 0xE0 SHL DUP2 MSTORE PUSH1 0x4 SWAP1 REVERT JUMPDEST PUSH1 0x80 DUP2 ADD DUP1 MLOAD TIMESTAMP GT PUSH2 0x17EE JUMPI DUP2 MLOAD PUSH1 0x3 DUP2 LT ISZERO PUSH2 0x17AA JUMPI PUSH2 0x17DC JUMPI DUP2 MLOAD PUSH1 0x3 DUP2 LT ISZERO PUSH2 0x17AA JUMPI ISZERO PUSH2 0x17C0 JUMPI JUMPDEST DUP2 MLOAD SWAP1 PUSH1 0x3 DUP3 LT ISZERO PUSH2 0x17AA JUMPI PUSH1 0x20 PUSH1 0x0 PUSH1 0x80 DUP3 DUP7 ADD PUSH1 0xA0 PUSH1 0x1 DUP1 DUP3 SHL SUB DUP1 SWAP8 DUP2 DUP5 MLOAD AND PUSH1 0x40 SWAP9 DUP4 DUP11 DUP14 ADD MLOAD AND SWAP1 PUSH1 0x60 DUP14 ADD MLOAD SWAP1 MLOAD SWAP2 DUP12 MLOAD SWAP4 DUP12 DUP6 ADD SWAP6 PUSH1 0x0 DUP1 MLOAD PUSH1 0x20 PUSH2 0x190A DUP4 CODECOPY DUP2 MLOAD SWAP2 MSTORE DUP8 MSTORE DUP14 DUP7 ADD MSTORE PUSH1 0x60 DUP6 ADD MSTORE DUP9 DUP5 ADD MSTORE DUP6 DUP4 ADD MSTORE PUSH1 0xC0 DUP3 ADD MSTORE PUSH1 0xC0 DUP2 MSTORE PUSH2 0x1716 DUP2 PUSH2 0xEDA JUMP JUMPDEST MLOAD SWAP1 KECCAK256 SWAP3 MLOAD AND SWAP8 ADD MLOAD SWAP1 DUP6 MLOAD DUP6 DUP2 ADD SWAP2 PUSH2 0x1901 PUSH1 0xF0 SHL DUP4 MSTORE PUSH32 0x0 PUSH1 0x22 DUP4 ADD MSTORE PUSH1 0x42 DUP3 ADD MSTORE PUSH1 0x42 DUP2 MSTORE PUSH2 0x1766 DUP2 PUSH2 0xEF6 JUMP JUMPDEST MLOAD SWAP1 KECCAK256 SWAP1 PUSH1 0xFF DUP7 DUP3 ADD MLOAD AND SWAP1 DUP6 DUP2 MLOAD SWAP2 ADD MLOAD SWAP2 DUP8 MLOAD SWAP4 DUP5 MSTORE DUP7 DUP5 ADD MSTORE DUP7 DUP4 ADD MSTORE PUSH1 0x60 DUP3 ADD MSTORE DUP3 DUP1 MSTORE PUSH1 0x1 GAS STATICCALL ISZERO PUSH2 0x17A0 JUMPI POP PUSH1 0x0 MLOAD AND EQ SWAP1 JUMP JUMPDEST MLOAD RETURNDATASIZE PUSH1 0x0 DUP3 RETURNDATACOPY RETURNDATASIZE SWAP1 REVERT JUMPDEST PUSH4 0x4E487B71 PUSH1 0xE0 SHL PUSH1 0x0 MSTORE PUSH1 0x21 PUSH1 0x4 MSTORE PUSH1 0x24 PUSH1 0x0 REVERT JUMPDEST PUSH1 0x60 DUP3 ADD MLOAD ISZERO PUSH2 0x16A6 JUMPI PUSH1 0x40 MLOAD PUSH4 0x291DED61 PUSH1 0xE0 SHL DUP2 MSTORE PUSH1 0x4 SWAP1 REVERT JUMPDEST PUSH1 0x40 MLOAD PUSH4 0x51055569 PUSH1 0xE0 SHL DUP2 MSTORE PUSH1 0x4 SWAP1 REVERT JUMPDEST PUSH1 0x40 MLOAD PUSH4 0xF87D9271 PUSH1 0xE0 SHL DUP2 MSTORE PUSH1 0x4 SWAP1 REVERT JUMPDEST PUSH1 0x0 CALLVALUE ISZERO PUSH2 0x18A5 JUMPI PUSH32 0x0 PUSH1 0x1 PUSH1 0x1 PUSH1 0xA0 SHL SUB AND DUP1 EXTCODESIZE ISZERO PUSH2 0x59F JUMPI DUP2 PUSH1 0x4 SWAP2 PUSH1 0x40 MLOAD SWAP3 DUP4 DUP1 SWAP3 PUSH4 0xD0E30DB PUSH1 0xE4 SHL DUP3 MSTORE CALLVALUE SWAP1 GAS CALL DUP1 ISZERO PUSH2 0x189A JUMPI PUSH2 0x188B JUMPI JUMPDEST POP PUSH2 0x186E PUSH2 0x3D6 CALLVALUE PUSH2 0x3D1 CALLER PUSH2 0x12D3 JUMP JUMPDEST PUSH1 0x40 MLOAD SWAP1 CALLVALUE DUP3 MSTORE PUSH1 0x0 DUP1 MLOAD PUSH1 0x20 PUSH2 0x18EA DUP4 CODECOPY DUP2 MLOAD SWAP2 MSTORE PUSH1 0x20 CALLER SWAP4 LOG3 JUMP JUMPDEST PUSH2 0x1894 SWAP1 PUSH2 0xE94 JUMP JUMPDEST CODESIZE PUSH2 0x185D JUMP JUMPDEST PUSH1 0x40 MLOAD RETURNDATASIZE DUP5 DUP3 RETURNDATACOPY RETURNDATASIZE SWAP1 REVERT JUMPDEST PUSH1 0x40 MLOAD PUSH4 0x1F2A2005 PUSH1 0xE0 SHL DUP2 MSTORE PUSH1 0x4 SWAP1 REVERT JUMPDEST SWAP2 PUSH2 0x18DB SWAP1 PUSH2 0x1073 SWAP5 SWAP3 PUSH1 0x0 DUP6 MSTORE PUSH1 0x20 DUP6 ADD MSTORE PUSH1 0x80 PUSH1 0x40 DUP6 ADD MSTORE PUSH1 0x80 DUP5 ADD SWAP1 PUSH2 0xE3E JUMP JUMPDEST SWAP2 PUSH1 0x60 DUP2 DUP5 SUB SWAP2 ADD MSTORE PUSH2 0xE3E JUMP INVALID 0xDD CALLCODE MSTORE 0xAD SHL 0xE2 0xC8 SWAP12 PUSH10 0xC2B068FC378DAA952BA7 CALL PUSH4 0xC4A11628 CREATE2 GAS 0x4D CREATE2 0x23 0xB3 0xEF 0xDF ADDRESS MSTORE SWAP12 MSIZE SWAP13 0xEF DUP6 BYTE 0x2B PUSH31 0x4FC96B13D343AEA28107D97873F3E0BC909D1E22C6A2646970667358221220 DUP10 NOT 0xD5 PUSH18 0xE536646352D3C04F444D56021E88F85FC080 PUSH12 0x3A899AE08DF94AA2B464736F PUSH13 0x63430008180033000000000000 "
        },
        "methodIdentifiers": {
          "DOMAIN_SEPARATOR()": "3644e515",
          "EIP_PERMIT_TYPEHASH()": "036e0708",
          "allowance(address,address)": "dd62ed3e",
          "allowanceWithPermit((uint8,address,address,uint256,uint256,(bytes32,bytes32,uint256)))": "e35ac9fb",
          "approve(address,uint256)": "095ea7b3",
          "approveWithPermit((uint8,address,address,uint256,uint256,(bytes32,bytes32,uint256)))": "7986b37d",
          "balanceOf(address)": "70a08231",
          "balanceOfWithPermit((uint8,address,address,uint256,uint256,(bytes32,bytes32,uint256)))": "940cf112",
          "decimals()": "313ce567",
          "deposit()": "d0e30db0",
          "isSignatureUsed((bytes32,bytes32,uint256))": "93355f42",
          "name()": "06fdde03",
          "symbol()": "95d89b41",
          "totalSupply()": "18160ddd",
          "transfer(address,uint256)": "a9059cbb",
          "transferFrom(address,address,uint256)": "23b872dd",
          "transferWithPermit((uint8,address,address,uint256,uint256,(bytes32,bytes32,uint256)))": "eb06f992",
          "underlyingToken()": "2495a599",
          "unwrap(uint256)": "de0e9a3e",
          "withdraw(uint256)": "2e1a7d4d",
          "wrap(uint256)": "ea598cb0"
        }
      },
      "storageLayout": {
        "storage": [
          {
            "astId": 1407,
            "contract": "contracts/old/PrivacyWROSE.sol:PrivacyWROSE",
            "label": "_status",
            "offset": 0,
            "slot": "0",
            "type": "t_uint256"
          },
          {
            "astId": 3429,
            "contract": "contracts/old/PrivacyWROSE.sol:PrivacyWROSE",
            "label": "_globalNonce",
            "offset": 0,
            "slot": "1",
            "type": "t_bytes32"
          },
          {
            "astId": 3433,
            "contract": "contracts/old/PrivacyWROSE.sol:PrivacyWROSE",
            "label": "_encryptedBalances",
            "offset": 0,
            "slot": "2",
            "type": "t_mapping(t_address,t_bytes_storage)"
          },
          {
            "astId": 3439,
            "contract": "contracts/old/PrivacyWROSE.sol:PrivacyWROSE",
            "label": "_allowances",
            "offset": 0,
            "slot": "3",
            "type": "t_mapping(t_address,t_mapping(t_address,t_uint256))"
          },
          {
            "astId": 3458,
            "contract": "contracts/old/PrivacyWROSE.sol:PrivacyWROSE",
            "label": "_usedSignatures",
            "offset": 0,
            "slot": "4",
            "type": "t_mapping(t_bytes32,t_bool)"
          },
          {
            "astId": 4421,
            "contract": "contracts/old/PrivacyWROSE.sol:PrivacyWROSE",
            "label": "_withdrawing",
            "offset": 0,
            "slot": "5",
            "type": "t_bool"
          }
        ],
        "types": {
          "t_address": {
            "encoding": "inplace",
            "label": "address",
            "numberOfBytes": "20"
          },
          "t_bool": {
            "encoding": "inplace",
            "label": "bool",
            "numberOfBytes": "1"
          },
          "t_bytes32": {
            "encoding": "inplace",
            "label": "bytes32",
            "numberOfBytes": "32"
          },
          "t_bytes_storage": {
            "encoding": "bytes",
            "label": "bytes",
            "numberOfBytes": "32"
          },
          "t_mapping(t_address,t_bytes_storage)": {
            "encoding": "mapping",
            "key": "t_address",
            "label": "mapping(address => bytes)",
            "numberOfBytes": "32",
            "value": "t_bytes_storage"
          },
          "t_mapping(t_address,t_mapping(t_address,t_uint256))": {
            "encoding": "mapping",
            "key": "t_address",
            "label": "mapping(address => mapping(address => uint256))",
            "numberOfBytes": "32",
            "value": "t_mapping(t_address,t_uint256)"
          },
          "t_mapping(t_address,t_uint256)": {
            "encoding": "mapping",
            "key": "t_address",
            "label": "mapping(address => uint256)",
            "numberOfBytes": "32",
            "value": "t_uint256"
          },
          "t_mapping(t_bytes32,t_bool)": {
            "encoding": "mapping",
            "key": "t_bytes32",
            "label": "mapping(bytes32 => bool)",
            "numberOfBytes": "32",
            "value": "t_bool"
          },
          "t_uint256": {
            "encoding": "inplace",
            "label": "uint256",
            "numberOfBytes": "32"
          }
        }
      }
    }
  }
}