{
  "contracts/old/PrivacyERC20.sol": {
    "PrivacyERC20": {
      "abi": [
        {
          "inputs": [
            {
              "internalType": "address",
              "name": "underlyingToken_",
              "type": "address"
            }
          ],
          "stateMutability": "nonpayable",
          "type": "constructor"
        },
        {
          "inputs": [],
          "name": "EIPError",
          "type": "error"
        },
        {
          "inputs": [
            {
              "internalType": "address",
              "name": "spender",
              "type": "address"
            },
            {
              "internalType": "uint256",
              "name": "allowance",
              "type": "uint256"
            },
            {
              "internalType": "uint256",
              "name": "needed",
              "type": "uint256"
            }
          ],
          "name": "ERC20InsufficientAllowance",
          "type": "error"
        },
        {
          "inputs": [
            {
              "internalType": "address",
              "name": "sender",
              "type": "address"
            },
            {
              "internalType": "uint256",
              "name": "balance",
              "type": "uint256"
            },
            {
              "internalType": "uint256",
              "name": "needed",
              "type": "uint256"
            }
          ],
          "name": "ERC20InsufficientBalance",
          "type": "error"
        },
        {
          "inputs": [
            {
              "internalType": "address",
              "name": "approver",
              "type": "address"
            }
          ],
          "name": "ERC20InvalidApprover",
          "type": "error"
        },
        {
          "inputs": [
            {
              "internalType": "address",
              "name": "receiver",
              "type": "address"
            }
          ],
          "name": "ERC20InvalidReceiver",
          "type": "error"
        },
        {
          "inputs": [
            {
              "internalType": "address",
              "name": "sender",
              "type": "address"
            }
          ],
          "name": "ERC20InvalidSender",
          "type": "error"
        },
        {
          "inputs": [
            {
              "internalType": "address",
              "name": "spender",
              "type": "address"
            }
          ],
          "name": "ERC20InvalidSpender",
          "type": "error"
        },
        {
          "inputs": [],
          "name": "ExpiredDeadline",
          "type": "error"
        },
        {
          "inputs": [],
          "name": "InsufficientBalance",
          "type": "error"
        },
        {
          "inputs": [],
          "name": "InvalidNonce",
          "type": "error"
        },
        {
          "inputs": [],
          "name": "InvalidPermitAmount",
          "type": "error"
        },
        {
          "inputs": [],
          "name": "InvalidPermitLabel",
          "type": "error"
        },
        {
          "inputs": [],
          "name": "InvalidSignature",
          "type": "error"
        },
        {
          "inputs": [],
          "name": "ReentrancyGuardReentrantCall",
          "type": "error"
        },
        {
          "inputs": [],
          "name": "SignatureUsed",
          "type": "error"
        },
        {
          "inputs": [],
          "name": "ZeroAmount",
          "type": "error"
        },
        {
          "anonymous": false,
          "inputs": [
            {
              "indexed": true,
              "internalType": "address",
              "name": "owner",
              "type": "address"
            },
            {
              "indexed": true,
              "internalType": "address",
              "name": "spender",
              "type": "address"
            },
            {
              "indexed": false,
              "internalType": "uint256",
              "name": "value",
              "type": "uint256"
            }
          ],
          "name": "Approval",
          "type": "event"
        },
        {
          "anonymous": false,
          "inputs": [
            {
              "indexed": true,
              "internalType": "address",
              "name": "from",
              "type": "address"
            },
            {
              "indexed": true,
              "internalType": "address",
              "name": "to",
              "type": "address"
            },
            {
              "indexed": false,
              "internalType": "uint256",
              "name": "value",
              "type": "uint256"
            }
          ],
          "name": "Transfer",
          "type": "event"
        },
        {
          "inputs": [],
          "name": "DOMAIN_SEPARATOR",
          "outputs": [
            {
              "internalType": "bytes32",
              "name": "",
              "type": "bytes32"
            }
          ],
          "stateMutability": "view",
          "type": "function"
        },
        {
          "inputs": [],
          "name": "EIP_PERMIT_TYPEHASH",
          "outputs": [
            {
              "internalType": "bytes32",
              "name": "",
              "type": "bytes32"
            }
          ],
          "stateMutability": "view",
          "type": "function"
        },
        {
          "inputs": [
            {
              "internalType": "address",
              "name": "owner",
              "type": "address"
            },
            {
              "internalType": "address",
              "name": "spender",
              "type": "address"
            }
          ],
          "name": "allowance",
          "outputs": [
            {
              "internalType": "uint256",
              "name": "",
              "type": "uint256"
            }
          ],
          "stateMutability": "view",
          "type": "function"
        },
        {
          "inputs": [
            {
              "components": [
                {
                  "internalType": "enum PrivacyERC20.PermitLabel",
                  "name": "label",
                  "type": "uint8"
                },
                {
                  "internalType": "address",
                  "name": "owner",
                  "type": "address"
                },
                {
                  "internalType": "address",
                  "name": "spender",
                  "type": "address"
                },
                {
                  "internalType": "uint256",
                  "name": "amount",
                  "type": "uint256"
                },
                {
                  "internalType": "uint256",
                  "name": "deadline",
                  "type": "uint256"
                },
                {
                  "components": [
                    {
                      "internalType": "bytes32",
                      "name": "r",
                      "type": "bytes32"
                    },
                    {
                      "internalType": "bytes32",
                      "name": "s",
                      "type": "bytes32"
                    },
                    {
                      "internalType": "uint256",
                      "name": "v",
                      "type": "uint256"
                    }
                  ],
                  "internalType": "struct SignatureRSV",
                  "name": "signature",
                  "type": "tuple"
                }
              ],
              "internalType": "struct PrivacyERC20.EIP712Permit",
              "name": "permit",
              "type": "tuple"
            }
          ],
          "name": "allowanceWithPermit",
          "outputs": [
            {
              "internalType": "uint256",
              "name": "",
              "type": "uint256"
            }
          ],
          "stateMutability": "view",
          "type": "function"
        },
        {
          "inputs": [
            {
              "internalType": "address",
              "name": "spender",
              "type": "address"
            },
            {
              "internalType": "uint256",
              "name": "value",
              "type": "uint256"
            }
          ],
          "name": "approve",
          "outputs": [
            {
              "internalType": "bool",
              "name": "",
              "type": "bool"
            }
          ],
          "stateMutability": "nonpayable",
          "type": "function"
        },
        {
          "inputs": [
            {
              "components": [
                {
                  "internalType": "enum PrivacyERC20.PermitLabel",
                  "name": "label",
                  "type": "uint8"
                },
                {
                  "internalType": "address",
                  "name": "owner",
                  "type": "address"
                },
                {
                  "internalType": "address",
                  "name": "spender",
                  "type": "address"
                },
                {
                  "internalType": "uint256",
                  "name": "amount",
                  "type": "uint256"
                },
                {
                  "internalType": "uint256",
                  "name": "deadline",
                  "type": "uint256"
                },
                {
                  "components": [
                    {
                      "internalType": "bytes32",
                      "name": "r",
                      "type": "bytes32"
                    },
                    {
                      "internalType": "bytes32",
                      "name": "s",
                      "type": "bytes32"
                    },
                    {
                      "internalType": "uint256",
                      "name": "v",
                      "type": "uint256"
                    }
                  ],
                  "internalType": "struct SignatureRSV",
                  "name": "signature",
                  "type": "tuple"
                }
              ],
              "internalType": "struct PrivacyERC20.EIP712Permit",
              "name": "permit",
              "type": "tuple"
            }
          ],
          "name": "approveWithPermit",
          "outputs": [],
          "stateMutability": "nonpayable",
          "type": "function"
        },
        {
          "inputs": [
            {
              "internalType": "address",
              "name": "account",
              "type": "address"
            }
          ],
          "name": "balanceOf",
          "outputs": [
            {
              "internalType": "uint256",
              "name": "",
              "type": "uint256"
            }
          ],
          "stateMutability": "view",
          "type": "function"
        },
        {
          "inputs": [
            {
              "components": [
                {
                  "internalType": "enum PrivacyERC20.PermitLabel",
                  "name": "label",
                  "type": "uint8"
                },
                {
                  "internalType": "address",
                  "name": "owner",
                  "type": "address"
                },
                {
                  "internalType": "address",
                  "name": "spender",
                  "type": "address"
                },
                {
                  "internalType": "uint256",
                  "name": "amount",
                  "type": "uint256"
                },
                {
                  "internalType": "uint256",
                  "name": "deadline",
                  "type": "uint256"
                },
                {
                  "components": [
                    {
                      "internalType": "bytes32",
                      "name": "r",
                      "type": "bytes32"
                    },
                    {
                      "internalType": "bytes32",
                      "name": "s",
                      "type": "bytes32"
                    },
                    {
                      "internalType": "uint256",
                      "name": "v",
                      "type": "uint256"
                    }
                  ],
                  "internalType": "struct SignatureRSV",
                  "name": "signature",
                  "type": "tuple"
                }
              ],
              "internalType": "struct PrivacyERC20.EIP712Permit",
              "name": "permit",
              "type": "tuple"
            }
          ],
          "name": "balanceOfWithPermit",
          "outputs": [
            {
              "internalType": "uint256",
              "name": "",
              "type": "uint256"
            }
          ],
          "stateMutability": "view",
          "type": "function"
        },
        {
          "inputs": [],
          "name": "decimals",
          "outputs": [
            {
              "internalType": "uint8",
              "name": "",
              "type": "uint8"
            }
          ],
          "stateMutability": "view",
          "type": "function"
        },
        {
          "inputs": [
            {
              "components": [
                {
                  "internalType": "bytes32",
                  "name": "r",
                  "type": "bytes32"
                },
                {
                  "internalType": "bytes32",
                  "name": "s",
                  "type": "bytes32"
                },
                {
                  "internalType": "uint256",
                  "name": "v",
                  "type": "uint256"
                }
              ],
              "internalType": "struct SignatureRSV",
              "name": "signature",
              "type": "tuple"
            }
          ],
          "name": "isSignatureUsed",
          "outputs": [
            {
              "internalType": "bool",
              "name": "",
              "type": "bool"
            }
          ],
          "stateMutability": "view",
          "type": "function"
        },
        {
          "inputs": [],
          "name": "name",
          "outputs": [
            {
              "internalType": "string",
              "name": "",
              "type": "string"
            }
          ],
          "stateMutability": "view",
          "type": "function"
        },
        {
          "inputs": [],
          "name": "symbol",
          "outputs": [
            {
              "internalType": "string",
              "name": "",
              "type": "string"
            }
          ],
          "stateMutability": "view",
          "type": "function"
        },
        {
          "inputs": [],
          "name": "totalSupply",
          "outputs": [
            {
              "internalType": "uint256",
              "name": "",
              "type": "uint256"
            }
          ],
          "stateMutability": "view",
          "type": "function"
        },
        {
          "inputs": [
            {
              "internalType": "address",
              "name": "to",
              "type": "address"
            },
            {
              "internalType": "uint256",
              "name": "value",
              "type": "uint256"
            }
          ],
          "name": "transfer",
          "outputs": [
            {
              "internalType": "bool",
              "name": "",
              "type": "bool"
            }
          ],
          "stateMutability": "nonpayable",
          "type": "function"
        },
        {
          "inputs": [
            {
              "internalType": "address",
              "name": "from",
              "type": "address"
            },
            {
              "internalType": "address",
              "name": "to",
              "type": "address"
            },
            {
              "internalType": "uint256",
              "name": "value",
              "type": "uint256"
            }
          ],
          "name": "transferFrom",
          "outputs": [
            {
              "internalType": "bool",
              "name": "",
              "type": "bool"
            }
          ],
          "stateMutability": "nonpayable",
          "type": "function"
        },
        {
          "inputs": [
            {
              "components": [
                {
                  "internalType": "enum PrivacyERC20.PermitLabel",
                  "name": "label",
                  "type": "uint8"
                },
                {
                  "internalType": "address",
                  "name": "owner",
                  "type": "address"
                },
                {
                  "internalType": "address",
                  "name": "spender",
                  "type": "address"
                },
                {
                  "internalType": "uint256",
                  "name": "amount",
                  "type": "uint256"
                },
                {
                  "internalType": "uint256",
                  "name": "deadline",
                  "type": "uint256"
                },
                {
                  "components": [
                    {
                      "internalType": "bytes32",
                      "name": "r",
                      "type": "bytes32"
                    },
                    {
                      "internalType": "bytes32",
                      "name": "s",
                      "type": "bytes32"
                    },
                    {
                      "internalType": "uint256",
                      "name": "v",
                      "type": "uint256"
                    }
                  ],
                  "internalType": "struct SignatureRSV",
                  "name": "signature",
                  "type": "tuple"
                }
              ],
              "internalType": "struct PrivacyERC20.EIP712Permit",
              "name": "permit",
              "type": "tuple"
            }
          ],
          "name": "transferWithPermit",
          "outputs": [],
          "stateMutability": "nonpayable",
          "type": "function"
        },
        {
          "inputs": [],
          "name": "underlyingToken",
          "outputs": [
            {
              "internalType": "contract IERC20Metadata",
              "name": "",
              "type": "address"
            }
          ],
          "stateMutability": "view",
          "type": "function"
        },
        {
          "inputs": [
            {
              "internalType": "uint256",
              "name": "amount",
              "type": "uint256"
            }
          ],
          "name": "unwrap",
          "outputs": [],
          "stateMutability": "nonpayable",
          "type": "function"
        },
        {
          "inputs": [
            {
              "internalType": "uint256",
              "name": "amount",
              "type": "uint256"
            }
          ],
          "name": "wrap",
          "outputs": [],
          "stateMutability": "nonpayable",
          "type": "function"
        }
      ],
      "evm": {
        "bytecode": {
          "linkReferences": {},
          "object": "60c0604081815234620002da578162001a3c8038038091620000228285620002df565b8339602093849181010312620002da57516001600160a01b0381169290839003620002da5760016000908155608093845282516001600160401b03939192919080830185811182821017620002c65782528381528382518785820193868552858084015280519081606085015287855b838110620002ab5750505091620000c882828587601f9996819884010152881998899101168101036060810184520182620002df565b51907301000000000000000000000000000000000000015afa3d15620002a1573d8681116200028d576200010685855194601f8401160184620002df565b82523d858584013e5b1562000249578281519101519083811062000237575b506001558051918201927f8b73c3c69bb8fe3d512ecc4cf759cc79239f7b179b0ffacaa9a75d522b39400f84527f5d3a83afdfc530254db404cb73287930e8de23e166ed44a525a6650d548207eb828401527fc89efdaa54c0f20c7adf612882df0950f5a951637e0307cdcb4c672f298b8bc6606084015246868401523060a084015260a0835260c08301948386109086111762000223575083905251902060a05261172291826200031a833951818181610354015281816104e3015281816106180152818161098d01528181610a3501528181610b3f0152610c09015260a0518181816101f1015281816108680152818161094301526113bd0152f35b634e487b7160e01b81526041600452602490fd5b60001990840360031b1b163862000125565b815162461bcd60e51b815260048101849052601360248201527f72616e646f6d42797465733a206661696c6564000000000000000000000000006044820152606490fd5b634e487b7160e01b86526041600452602486fd5b606091506200010f565b8083018201518187018e01528a96508c945089910162000092565b634e487b7160e01b85526041600452602485fd5b600080fd5b601f909101601f19168101906001600160401b038211908210176200030357604052565b634e487b7160e01b600052604160045260246000fdfe6080604081815260048036101561001557600080fd5b600092833560e01c908163036e070814610ca15750806306fdde0314610be3578063095ea7b314610bb957806318160ddd14610b1157806323b872dd14610a645780632495a59914610a20578063313ce567146109665780633644e5151461092b57806370a08231146109055780637986b37d1461076a57806393355f421461071c578063940cf112146106d257806395d89b41146105f2578063a9059cbb146105c1578063dd62ed3e1461058c578063de0e9a3e1461047b578063e35ac9fb1461041e578063ea598cb0146103065763eb06f992146100f457600080fd5b346103025761010236610dea565b61010a61127a565b60a08101610118815161129d565b9081865260209284845260ff86882054166102f25761013782516112d2565b506080810191825142116102e257815160038110156102a5576001036102d257815160038110156102a557156102b8575b81519060038210156102a55785830190868a60808b60018060a01b039687875116828a019a60608a8d51169b019a8b51915192855194898601966000805160206116cd833981519152885286015260608501528584015260a083015260c082015260c081526101d681610d74565b5190208c8787511695519181518681019161190160f01b83527f0000000000000000000000000000000000000000000000000000000000000000602283015260428201526042815261022781610d90565b5190209160ff82820151169186825192015192815194855287850152830152606082015282805260015afa1561029b57828a51160361028b5751925191516102749390928216911661102a565b8452528120600160ff198254161790556001815580f35b87516303bfcdeb60e21b81528790fd5b88513d8b823e3d90fd5b634e487b7160e01b895260218752602489fd5b60608201511561016857865163291ded6160e01b81528690fd5b8651635105556960e01b81528690fd5b865163f87d927160e01b81528690fd5b8551638baa579f60e01b81528590fd5b8280fd5b5090346103025760203660031901126103025781359161032461127a565b82156104105781516323b872dd60e01b8152339181019190915230602482015260448101839052602081606481877f00000000000000000000000000000000000000000000000000000000000000006001600160a01b03165af18015610406576103d7575b506103a561039f8361039a3361111a565b610fb5565b3361148d565b51908152817fddf252ad1be2c89b69c2b068fc378daa952ba7f163c4a11628f55a4df523b3ef60203393a36001815580f35b6103f89060203d6020116103ff575b6103f08183610dc8565b810190610f9d565b5038610389565b503d6103e6565b82513d86823e3d90fd5b9051631f2a200560e01b8152fd5b50346103025761042d36610dea565b9061043782611307565b1561046d57506020818101516001600160a01b039081168552600382528385209284015116845290815291819020549051908152f35b82516303bfcdeb60e21b8152fd5b509190346105885760203660031901126105885782359061049a61127a565b8115610579576104a93361111a565b82811061056957936104bf61039f848697610f7a565b815163a9059cbb60e01b8152339181019190915260248101839052602081604481877f00000000000000000000000000000000000000000000000000000000000000006001600160a01b03165af180156104065761054a575b50519081527fddf252ad1be2c89b69c2b068fc378daa952ba7f163c4a11628f55a4df523b3ef60203392a36001815580f35b6105629060203d6020116103ff576103f08183610dc8565b5038610518565b8151631e9acf1760e31b81528590fd5b51631f2a200560e01b81528390fd5b5080fd5b5050346105885780600319360112610588576020906105ba6105ac610d11565b6105b4610d2c565b90610f2f565b9051908152f35b5050346105885780600319360112610588576020906105eb6105e1610d11565b602435903361102a565b5160018152f35b50903461030257826003193601126103025780516395d89b4160e01b81529183908390817f00000000000000000000000000000000000000000000000000000000000000006001600160a01b03165afa9182156106c8578361069f94936106a3575b505061068d6022825184610672829651809260208086019101610cc9565b81016102e560f41b6020820152036002810185520183610dc8565b51918291602083526020830190610cec565b0390f35b6106c09293503d8091833e6106b88183610dc8565b810190610eae565b903880610654565b81513d85823e3d90fd5b50913461071957506106e336610dea565b916106ed83611307565b1561070b57506020918201516105ba906001600160a01b031661111a565b90516303bfcdeb60e21b8152fd5b80fd5b5034610302576060366003190112610302578160209360ff9261075a835161074381610d42565b82358152602435888201526044358582015261129d565b8252855220541690519015158152f35b50346103025761077936610dea565b61078161127a565b60a0810161078f815161129d565b9081865260209284845260ff86882054166102f2576107ae82516112d2565b506080810191825142116102e257815160038110156102a5576002036102d257815160038110156102a557156108eb575b81519060038210156102a55785830190868a60808b60018060a01b039687875116828a019a60608a8d51169b019a8b51915192855194898601966000805160206116cd833981519152885286015260608501528584015260a083015260c082015260c0815261084d81610d74565b5190208c8787511695519181518681019161190160f01b83527f0000000000000000000000000000000000000000000000000000000000000000602283015260428201526042815261089e81610d90565b5190209160ff82820151169186825192015192815194855287850152830152606082015282805260015afa1561029b57828a51160361028b57519251915161027493909282169116610fc2565b6060820151156107df57865163291ded6160e01b81528690fd5b505034610588576020366003190112610588576020906105ba610926610d11565b610f10565b505034610588578160031936011261058857602090517f00000000000000000000000000000000000000000000000000000000000000008152f35b509134610719578060031936011261071957815163313ce56760e01b8152926020908490817f00000000000000000000000000000000000000000000000000000000000000006001600160a01b03165afa928315610a145781936109d2575b60208460ff855191168152f35b9092506020813d602011610a0c575b816109ee60209383610dc8565b8101031261030257519160ff83168303610719575060ff60206109c5565b3d91506109e1565b509051903d90823e3d90fd5b505034610588578160031936011261058857517f00000000000000000000000000000000000000000000000000000000000000006001600160a01b03168152602090f35b50913461071957606036600319011261071957610a7f610d11565b610a87610d2c565b90836044359360018060a01b038316815260036020528181203382526020522054946000198610610ac1575b6020856105eb86868661102a565b838610610ae65750908291610ade6105eb94602097033383610fc2565b909192610ab3565b8451637dc7a0d960e11b81523391810191825260208201879052604082018590529081906060010390fd5b50903461030257826003193601126103025780516370a0823160e01b815230928101929092526020826024817f00000000000000000000000000000000000000000000000000000000000000006001600160a01b03165afa9182156106c8578392610b81575b6020838351908152f35b9091506020813d602011610bb1575b81610b9d60209383610dc8565b810103126103025760209250519038610b77565b3d9150610b90565b5050346105885780600319360112610588576020906105eb610bd9610d11565b6024359033610fc2565b50903461030257826003193601126103025780516306fdde0360e01b81529183908390817f00000000000000000000000000000000000000000000000000000000000000006001600160a01b03165afa9182156106c8578361069f9493610c84575b505061068d602882518094670283934bb30b1bc960c51b6020830152610c748151809260208686019101610cc9565b8101036008810185520183610dc8565b610c999293503d8091833e6106b88183610dc8565b903880610c45565b849034610588578160031936011261058857806000805160206116cd83398151915260209252f35b60005b838110610cdc5750506000910152565b8181015183820152602001610ccc565b90602091610d0581518092818552858086019101610cc9565b601f01601f1916010190565b600435906001600160a01b0382168203610d2757565b600080fd5b602435906001600160a01b0382168203610d2757565b6060810190811067ffffffffffffffff821117610d5e57604052565b634e487b7160e01b600052604160045260246000fd5b60e0810190811067ffffffffffffffff821117610d5e57604052565b6080810190811067ffffffffffffffff821117610d5e57604052565b6020810190811067ffffffffffffffff821117610d5e57604052565b90601f8019910116810190811067ffffffffffffffff821117610d5e57604052565b610100600319820112610d27576040519060c0820182811067ffffffffffffffff821117610d5e576040526004356003811015610d275782526001600160a01b03906024358281168103610d275760208401526044359182168203610d2757606091604084015260643582840152608435608084015260a3190112610d2757604051610e7581610d42565b60a435815260c435602082015260e435604082015260a082015290565b67ffffffffffffffff8111610d5e57601f01601f191660200190565b602081830312610d275780519067ffffffffffffffff8211610d27570181601f82011215610d27578051610ee181610e92565b92610eef6040519485610dc8565b81845260208284010111610d2757610f0d9160208085019101610cc9565b90565b336001600160a01b03821603610f2957610f0d9061111a565b50600090565b6001600160a01b039081163381141580610f6e575b610f665760005260036020526040600020911660005260205260406000205490565b505050600090565b50338284161415610f44565b91908203918211610f8757565b634e487b7160e01b600052601160045260246000fd5b90816020910312610d2757518015158103610d275790565b91908201809211610f8757565b6001600160a01b039081169182156110115716908115610ff8576000526003602052604060002090600052602052604060002055565b604051634a1406b160e11b815260006004820152602490fd5b60405163e602df0560e01b815260006004820152602490fd5b92916001600160a01b03808516156110c7578216156110ae5761104c8461111a565b9381851061107c579061107a939461039a611074936110748461106e8861111a565b94610f7a565b9061148d565b565b60405163391434e360e21b81526001600160a01b03919091166004820152602481018590526044810191909152606490fd5b60405163ec442f0560e01b815260006004820152602490fd5b604051634b637e8f60e11b815260006004820152602490fd5b90600182811c92168015611110575b60208310146110fa57565b634e487b7160e01b600052602260045260246000fd5b91607f16916110ef565b60009060018060a01b0316815260209060028252604081206040519081838254611143816110e0565b938484526001918860018216918260001461125857505060011461121c575b505061117092500382610dc8565b80511561121657818091600154906111b26040519161118e83610dac565b8483526111a46040519384928a8401968761166a565b03601f198101835282610dc8565b51906004600160981b015afa906111c761169c565b91156111df5782828051810103126107195750015190565b60405162461bcd60e51b815260048101849052600f60248201526e191958dc9e5c1d0e8819985a5b1959608a1b6044820152606490fd5b50905090565b87925086528186209086915b85831061124057505061117093508201013880611162565b80548388018501528694508893909201918101611228565b925093505061117094915060ff191682840152151560051b8201013880611162565b60026000541461128b576002600055565b604051633ee5aeb560e01b8152600490fd5b80519060406020820151910151604051916020830193845260408301526060820152606081526112cc81610d90565b51902090565b6112db9061129d565b600052600460205260ff604060002054166112f557600090565b604051638baa579f60e01b8152600490fd5b608081018051421161147b5781516003811015611437576114695781516003811015611437571561144d575b81519060038210156114375760206000608082860160a0600180821b03809781845116604098838a8d0151169060608d01519051918b51938b8501956000805160206116cd83398151915287528d8601526060850152888401528583015260c082015260c081526113a381610d74565b5190209251169701519085518581019161190160f01b83527f000000000000000000000000000000000000000000000000000000000000000060228301526042820152604281526113f381610d90565b5190209060ff8682015116908581519101519187519384528684015286830152606082015282805260015afa1561142d5750600051161490565b513d6000823e3d90fd5b634e487b7160e01b600052602160045260246000fd5b6060820151156113335760405163291ded6160e01b8152600490fd5b604051635105556960e01b8152600490fd5b60405163f87d927160e01b8152600490fd5b604090815190602093848301528382528282019067ffffffffffffffff9280831084841117610d5e578285526001948554916114c885610dac565b6000809381928288526114e385519889928d8401948561166a565b03966114f7601f1998898101835282610dc8565b51906003600160981b015afa9261150c61169c565b9315611634576001600160a01b0316825260028752812082519096909485116116205761153987546110e0565b601f81116115da575b508093601f861160011461157c57505091839491849394611571575b50501b916000199060031b1c1916179055565b01519250388061155e565b8783528183209493928692918316915b888383106115c057505050106115a7575b505050811b019055565b015160001960f88460031b161c1916905538808061159d565b85870151885590960195948501948793509081019061158c565b878352818320601f870160051c810191838810611616575b601f0160051c019087905b82811061160b575050611542565b8481550187906115fd565b90915081906115f2565b634e487b7160e01b82526041600452602482fd5b815162461bcd60e51b815260048101899052600f60248201526e195b98dc9e5c1d0e8819985a5b1959608a1b6044820152606490fd5b9161168e90610f0d9492600085526020850152608060408501526080840190610cec565b916060818403910152610cec565b3d156116c7573d906116ad82610e92565b916116bb6040519384610dc8565b82523d6000602084013e565b60609056fedf30529b599cef851a2b7e4fc96b13d343aea28107d97873f3e0bc909d1e22c6a2646970667358221220a73c56df0f3e8a930caa79ec00b033b3ee55f2d802aafbb6f11e68f6e352ef9664736f6c63430008180033",
          "opcodes": "PUSH1 0xC0 PUSH1 0x40 DUP2 DUP2 MSTORE CALLVALUE PUSH3 0x2DA JUMPI DUP2 PUSH3 0x1A3C DUP1 CODESIZE SUB DUP1 SWAP2 PUSH3 0x22 DUP3 DUP6 PUSH3 0x2DF JUMP JUMPDEST DUP4 CODECOPY PUSH1 0x20 SWAP4 DUP5 SWAP2 DUP2 ADD SUB SLT PUSH3 0x2DA JUMPI MLOAD PUSH1 0x1 PUSH1 0x1 PUSH1 0xA0 SHL SUB DUP2 AND SWAP3 SWAP1 DUP4 SWAP1 SUB PUSH3 0x2DA JUMPI PUSH1 0x1 PUSH1 0x0 SWAP1 DUP2 SSTORE PUSH1 0x80 SWAP4 DUP5 MSTORE DUP3 MLOAD PUSH1 0x1 PUSH1 0x1 PUSH1 0x40 SHL SUB SWAP4 SWAP2 SWAP3 SWAP2 SWAP1 DUP1 DUP4 ADD DUP6 DUP2 GT DUP3 DUP3 LT OR PUSH3 0x2C6 JUMPI DUP3 MSTORE DUP4 DUP2 MSTORE DUP4 DUP3 MLOAD DUP8 DUP6 DUP3 ADD SWAP4 DUP7 DUP6 MSTORE DUP6 DUP1 DUP5 ADD MSTORE DUP1 MLOAD SWAP1 DUP2 PUSH1 0x60 DUP6 ADD MSTORE DUP8 DUP6 JUMPDEST DUP4 DUP2 LT PUSH3 0x2AB JUMPI POP POP POP SWAP2 PUSH3 0xC8 DUP3 DUP3 DUP6 DUP8 PUSH1 0x1F SWAP10 SWAP7 DUP2 SWAP9 DUP5 ADD ADD MSTORE DUP9 NOT SWAP9 DUP10 SWAP2 ADD AND DUP2 ADD SUB PUSH1 0x60 DUP2 ADD DUP5 MSTORE ADD DUP3 PUSH3 0x2DF JUMP JUMPDEST MLOAD SWAP1 PUSH20 0x100000000000000000000000000000000000001 GAS STATICCALL RETURNDATASIZE ISZERO PUSH3 0x2A1 JUMPI RETURNDATASIZE DUP7 DUP2 GT PUSH3 0x28D JUMPI PUSH3 0x106 DUP6 DUP6 MLOAD SWAP5 PUSH1 0x1F DUP5 ADD AND ADD DUP5 PUSH3 0x2DF JUMP JUMPDEST DUP3 MSTORE RETURNDATASIZE DUP6 DUP6 DUP5 ADD RETURNDATACOPY JUMPDEST ISZERO PUSH3 0x249 JUMPI DUP3 DUP2 MLOAD SWAP2 ADD MLOAD SWAP1 DUP4 DUP2 LT PUSH3 0x237 JUMPI JUMPDEST POP PUSH1 0x1 SSTORE DUP1 MLOAD SWAP2 DUP3 ADD SWAP3 PUSH32 0x8B73C3C69BB8FE3D512ECC4CF759CC79239F7B179B0FFACAA9A75D522B39400F DUP5 MSTORE PUSH32 0x5D3A83AFDFC530254DB404CB73287930E8DE23E166ED44A525A6650D548207EB DUP3 DUP5 ADD MSTORE PUSH32 0xC89EFDAA54C0F20C7ADF612882DF0950F5A951637E0307CDCB4C672F298B8BC6 PUSH1 0x60 DUP5 ADD MSTORE CHAINID DUP7 DUP5 ADD MSTORE ADDRESS PUSH1 0xA0 DUP5 ADD MSTORE PUSH1 0xA0 DUP4 MSTORE PUSH1 0xC0 DUP4 ADD SWAP5 DUP4 DUP7 LT SWAP1 DUP7 GT OR PUSH3 0x223 JUMPI POP DUP4 SWAP1 MSTORE MLOAD SWAP1 KECCAK256 PUSH1 0xA0 MSTORE PUSH2 0x1722 SWAP2 DUP3 PUSH3 0x31A DUP4 CODECOPY MLOAD DUP2 DUP2 DUP2 PUSH2 0x354 ADD MSTORE DUP2 DUP2 PUSH2 0x4E3 ADD MSTORE DUP2 DUP2 PUSH2 0x618 ADD MSTORE DUP2 DUP2 PUSH2 0x98D ADD MSTORE DUP2 DUP2 PUSH2 0xA35 ADD MSTORE DUP2 DUP2 PUSH2 0xB3F ADD MSTORE PUSH2 0xC09 ADD MSTORE PUSH1 0xA0 MLOAD DUP2 DUP2 DUP2 PUSH2 0x1F1 ADD MSTORE DUP2 DUP2 PUSH2 0x868 ADD MSTORE DUP2 DUP2 PUSH2 0x943 ADD MSTORE PUSH2 0x13BD ADD MSTORE RETURN JUMPDEST PUSH4 0x4E487B71 PUSH1 0xE0 SHL DUP2 MSTORE PUSH1 0x41 PUSH1 0x4 MSTORE PUSH1 0x24 SWAP1 REVERT JUMPDEST PUSH1 0x0 NOT SWAP1 DUP5 SUB PUSH1 0x3 SHL SHL AND CODESIZE PUSH3 0x125 JUMP JUMPDEST DUP2 MLOAD PUSH3 0x461BCD PUSH1 0xE5 SHL DUP2 MSTORE PUSH1 0x4 DUP2 ADD DUP5 SWAP1 MSTORE PUSH1 0x13 PUSH1 0x24 DUP3 ADD MSTORE PUSH32 0x72616E646F6D42797465733A206661696C656400000000000000000000000000 PUSH1 0x44 DUP3 ADD MSTORE PUSH1 0x64 SWAP1 REVERT JUMPDEST PUSH4 0x4E487B71 PUSH1 0xE0 SHL DUP7 MSTORE PUSH1 0x41 PUSH1 0x4 MSTORE PUSH1 0x24 DUP7 REVERT JUMPDEST PUSH1 0x60 SWAP2 POP PUSH3 0x10F JUMP JUMPDEST DUP1 DUP4 ADD DUP3 ADD MLOAD DUP2 DUP8 ADD DUP15 ADD MSTORE DUP11 SWAP7 POP DUP13 SWAP5 POP DUP10 SWAP2 ADD PUSH3 0x92 JUMP JUMPDEST PUSH4 0x4E487B71 PUSH1 0xE0 SHL DUP6 MSTORE PUSH1 0x41 PUSH1 0x4 MSTORE PUSH1 0x24 DUP6 REVERT JUMPDEST PUSH1 0x0 DUP1 REVERT JUMPDEST PUSH1 0x1F SWAP1 SWAP2 ADD PUSH1 0x1F NOT AND DUP2 ADD SWAP1 PUSH1 0x1 PUSH1 0x1 PUSH1 0x40 SHL SUB DUP3 GT SWAP1 DUP3 LT OR PUSH3 0x303 JUMPI PUSH1 0x40 MSTORE JUMP JUMPDEST PUSH4 0x4E487B71 PUSH1 0xE0 SHL PUSH1 0x0 MSTORE PUSH1 0x41 PUSH1 0x4 MSTORE PUSH1 0x24 PUSH1 0x0 REVERT INVALID PUSH1 0x80 PUSH1 0x40 DUP2 DUP2 MSTORE PUSH1 0x4 DUP1 CALLDATASIZE LT ISZERO PUSH2 0x15 JUMPI PUSH1 0x0 DUP1 REVERT JUMPDEST PUSH1 0x0 SWAP3 DUP4 CALLDATALOAD PUSH1 0xE0 SHR SWAP1 DUP2 PUSH4 0x36E0708 EQ PUSH2 0xCA1 JUMPI POP DUP1 PUSH4 0x6FDDE03 EQ PUSH2 0xBE3 JUMPI DUP1 PUSH4 0x95EA7B3 EQ PUSH2 0xBB9 JUMPI DUP1 PUSH4 0x18160DDD EQ PUSH2 0xB11 JUMPI DUP1 PUSH4 0x23B872DD EQ PUSH2 0xA64 JUMPI DUP1 PUSH4 0x2495A599 EQ PUSH2 0xA20 JUMPI DUP1 PUSH4 0x313CE567 EQ PUSH2 0x966 JUMPI DUP1 PUSH4 0x3644E515 EQ PUSH2 0x92B JUMPI DUP1 PUSH4 0x70A08231 EQ PUSH2 0x905 JUMPI DUP1 PUSH4 0x7986B37D EQ PUSH2 0x76A JUMPI DUP1 PUSH4 0x93355F42 EQ PUSH2 0x71C JUMPI DUP1 PUSH4 0x940CF112 EQ PUSH2 0x6D2 JUMPI DUP1 PUSH4 0x95D89B41 EQ PUSH2 0x5F2 JUMPI DUP1 PUSH4 0xA9059CBB EQ PUSH2 0x5C1 JUMPI DUP1 PUSH4 0xDD62ED3E EQ PUSH2 0x58C JUMPI DUP1 PUSH4 0xDE0E9A3E EQ PUSH2 0x47B JUMPI DUP1 PUSH4 0xE35AC9FB EQ PUSH2 0x41E JUMPI DUP1 PUSH4 0xEA598CB0 EQ PUSH2 0x306 JUMPI PUSH4 0xEB06F992 EQ PUSH2 0xF4 JUMPI PUSH1 0x0 DUP1 REVERT JUMPDEST CALLVALUE PUSH2 0x302 JUMPI PUSH2 0x102 CALLDATASIZE PUSH2 0xDEA JUMP JUMPDEST PUSH2 0x10A PUSH2 0x127A JUMP JUMPDEST PUSH1 0xA0 DUP2 ADD PUSH2 0x118 DUP2 MLOAD PUSH2 0x129D JUMP JUMPDEST SWAP1 DUP2 DUP7 MSTORE PUSH1 0x20 SWAP3 DUP5 DUP5 MSTORE PUSH1 0xFF DUP7 DUP9 KECCAK256 SLOAD AND PUSH2 0x2F2 JUMPI PUSH2 0x137 DUP3 MLOAD PUSH2 0x12D2 JUMP JUMPDEST POP PUSH1 0x80 DUP2 ADD SWAP2 DUP3 MLOAD TIMESTAMP GT PUSH2 0x2E2 JUMPI DUP2 MLOAD PUSH1 0x3 DUP2 LT ISZERO PUSH2 0x2A5 JUMPI PUSH1 0x1 SUB PUSH2 0x2D2 JUMPI DUP2 MLOAD PUSH1 0x3 DUP2 LT ISZERO PUSH2 0x2A5 JUMPI ISZERO PUSH2 0x2B8 JUMPI JUMPDEST DUP2 MLOAD SWAP1 PUSH1 0x3 DUP3 LT ISZERO PUSH2 0x2A5 JUMPI DUP6 DUP4 ADD SWAP1 DUP7 DUP11 PUSH1 0x80 DUP12 PUSH1 0x1 DUP1 PUSH1 0xA0 SHL SUB SWAP7 DUP8 DUP8 MLOAD AND DUP3 DUP11 ADD SWAP11 PUSH1 0x60 DUP11 DUP14 MLOAD AND SWAP12 ADD SWAP11 DUP12 MLOAD SWAP2 MLOAD SWAP3 DUP6 MLOAD SWAP5 DUP10 DUP7 ADD SWAP7 PUSH1 0x0 DUP1 MLOAD PUSH1 0x20 PUSH2 0x16CD DUP4 CODECOPY DUP2 MLOAD SWAP2 MSTORE DUP9 MSTORE DUP7 ADD MSTORE PUSH1 0x60 DUP6 ADD MSTORE DUP6 DUP5 ADD MSTORE PUSH1 0xA0 DUP4 ADD MSTORE PUSH1 0xC0 DUP3 ADD MSTORE PUSH1 0xC0 DUP2 MSTORE PUSH2 0x1D6 DUP2 PUSH2 0xD74 JUMP JUMPDEST MLOAD SWAP1 KECCAK256 DUP13 DUP8 DUP8 MLOAD AND SWAP6 MLOAD SWAP2 DUP2 MLOAD DUP7 DUP2 ADD SWAP2 PUSH2 0x1901 PUSH1 0xF0 SHL DUP4 MSTORE PUSH32 0x0 PUSH1 0x22 DUP4 ADD MSTORE PUSH1 0x42 DUP3 ADD MSTORE PUSH1 0x42 DUP2 MSTORE PUSH2 0x227 DUP2 PUSH2 0xD90 JUMP JUMPDEST MLOAD SWAP1 KECCAK256 SWAP2 PUSH1 0xFF DUP3 DUP3 ADD MLOAD AND SWAP2 DUP7 DUP3 MLOAD SWAP3 ADD MLOAD SWAP3 DUP2 MLOAD SWAP5 DUP6 MSTORE DUP8 DUP6 ADD MSTORE DUP4 ADD MSTORE PUSH1 0x60 DUP3 ADD MSTORE DUP3 DUP1 MSTORE PUSH1 0x1 GAS STATICCALL ISZERO PUSH2 0x29B JUMPI DUP3 DUP11 MLOAD AND SUB PUSH2 0x28B JUMPI MLOAD SWAP3 MLOAD SWAP2 MLOAD PUSH2 0x274 SWAP4 SWAP1 SWAP3 DUP3 AND SWAP2 AND PUSH2 0x102A JUMP JUMPDEST DUP5 MSTORE MSTORE DUP2 KECCAK256 PUSH1 0x1 PUSH1 0xFF NOT DUP3 SLOAD AND OR SWAP1 SSTORE PUSH1 0x1 DUP2 SSTORE DUP1 RETURN JUMPDEST DUP8 MLOAD PUSH4 0x3BFCDEB PUSH1 0xE2 SHL DUP2 MSTORE DUP8 SWAP1 REVERT JUMPDEST DUP9 MLOAD RETURNDATASIZE DUP12 DUP3 RETURNDATACOPY RETURNDATASIZE SWAP1 REVERT JUMPDEST PUSH4 0x4E487B71 PUSH1 0xE0 SHL DUP10 MSTORE PUSH1 0x21 DUP8 MSTORE PUSH1 0x24 DUP10 REVERT JUMPDEST PUSH1 0x60 DUP3 ADD MLOAD ISZERO PUSH2 0x168 JUMPI DUP7 MLOAD PUSH4 0x291DED61 PUSH1 0xE0 SHL DUP2 MSTORE DUP7 SWAP1 REVERT JUMPDEST DUP7 MLOAD PUSH4 0x51055569 PUSH1 0xE0 SHL DUP2 MSTORE DUP7 SWAP1 REVERT JUMPDEST DUP7 MLOAD PUSH4 0xF87D9271 PUSH1 0xE0 SHL DUP2 MSTORE DUP7 SWAP1 REVERT JUMPDEST DUP6 MLOAD PUSH4 0x8BAA579F PUSH1 0xE0 SHL DUP2 MSTORE DUP6 SWAP1 REVERT JUMPDEST DUP3 DUP1 REVERT JUMPDEST POP SWAP1 CALLVALUE PUSH2 0x302 JUMPI PUSH1 0x20 CALLDATASIZE PUSH1 0x3 NOT ADD SLT PUSH2 0x302 JUMPI DUP2 CALLDATALOAD SWAP2 PUSH2 0x324 PUSH2 0x127A JUMP JUMPDEST DUP3 ISZERO PUSH2 0x410 JUMPI DUP2 MLOAD PUSH4 0x23B872DD PUSH1 0xE0 SHL DUP2 MSTORE CALLER SWAP2 DUP2 ADD SWAP2 SWAP1 SWAP2 MSTORE ADDRESS PUSH1 0x24 DUP3 ADD MSTORE PUSH1 0x44 DUP2 ADD DUP4 SWAP1 MSTORE PUSH1 0x20 DUP2 PUSH1 0x64 DUP2 DUP8 PUSH32 0x0 PUSH1 0x1 PUSH1 0x1 PUSH1 0xA0 SHL SUB AND GAS CALL DUP1 ISZERO PUSH2 0x406 JUMPI PUSH2 0x3D7 JUMPI JUMPDEST POP PUSH2 0x3A5 PUSH2 0x39F DUP4 PUSH2 0x39A CALLER PUSH2 0x111A JUMP JUMPDEST PUSH2 0xFB5 JUMP JUMPDEST CALLER PUSH2 0x148D JUMP JUMPDEST MLOAD SWAP1 DUP2 MSTORE DUP2 PUSH32 0xDDF252AD1BE2C89B69C2B068FC378DAA952BA7F163C4A11628F55A4DF523B3EF PUSH1 0x20 CALLER SWAP4 LOG3 PUSH1 0x1 DUP2 SSTORE DUP1 RETURN JUMPDEST PUSH2 0x3F8 SWAP1 PUSH1 0x20 RETURNDATASIZE PUSH1 0x20 GT PUSH2 0x3FF JUMPI JUMPDEST PUSH2 0x3F0 DUP2 DUP4 PUSH2 0xDC8 JUMP JUMPDEST DUP2 ADD SWAP1 PUSH2 0xF9D JUMP JUMPDEST POP CODESIZE PUSH2 0x389 JUMP JUMPDEST POP RETURNDATASIZE PUSH2 0x3E6 JUMP JUMPDEST DUP3 MLOAD RETURNDATASIZE DUP7 DUP3 RETURNDATACOPY RETURNDATASIZE SWAP1 REVERT JUMPDEST SWAP1 MLOAD PUSH4 0x1F2A2005 PUSH1 0xE0 SHL DUP2 MSTORE REVERT JUMPDEST POP CALLVALUE PUSH2 0x302 JUMPI PUSH2 0x42D CALLDATASIZE PUSH2 0xDEA JUMP JUMPDEST SWAP1 PUSH2 0x437 DUP3 PUSH2 0x1307 JUMP JUMPDEST ISZERO PUSH2 0x46D JUMPI POP PUSH1 0x20 DUP2 DUP2 ADD MLOAD PUSH1 0x1 PUSH1 0x1 PUSH1 0xA0 SHL SUB SWAP1 DUP2 AND DUP6 MSTORE PUSH1 0x3 DUP3 MSTORE DUP4 DUP6 KECCAK256 SWAP3 DUP5 ADD MLOAD AND DUP5 MSTORE SWAP1 DUP2 MSTORE SWAP2 DUP2 SWAP1 KECCAK256 SLOAD SWAP1 MLOAD SWAP1 DUP2 MSTORE RETURN JUMPDEST DUP3 MLOAD PUSH4 0x3BFCDEB PUSH1 0xE2 SHL DUP2 MSTORE REVERT JUMPDEST POP SWAP2 SWAP1 CALLVALUE PUSH2 0x588 JUMPI PUSH1 0x20 CALLDATASIZE PUSH1 0x3 NOT ADD SLT PUSH2 0x588 JUMPI DUP3 CALLDATALOAD SWAP1 PUSH2 0x49A PUSH2 0x127A JUMP JUMPDEST DUP2 ISZERO PUSH2 0x579 JUMPI PUSH2 0x4A9 CALLER PUSH2 0x111A JUMP JUMPDEST DUP3 DUP2 LT PUSH2 0x569 JUMPI SWAP4 PUSH2 0x4BF PUSH2 0x39F DUP5 DUP7 SWAP8 PUSH2 0xF7A JUMP JUMPDEST DUP2 MLOAD PUSH4 0xA9059CBB PUSH1 0xE0 SHL DUP2 MSTORE CALLER SWAP2 DUP2 ADD SWAP2 SWAP1 SWAP2 MSTORE PUSH1 0x24 DUP2 ADD DUP4 SWAP1 MSTORE PUSH1 0x20 DUP2 PUSH1 0x44 DUP2 DUP8 PUSH32 0x0 PUSH1 0x1 PUSH1 0x1 PUSH1 0xA0 SHL SUB AND GAS CALL DUP1 ISZERO PUSH2 0x406 JUMPI PUSH2 0x54A JUMPI JUMPDEST POP MLOAD SWAP1 DUP2 MSTORE PUSH32 0xDDF252AD1BE2C89B69C2B068FC378DAA952BA7F163C4A11628F55A4DF523B3EF PUSH1 0x20 CALLER SWAP3 LOG3 PUSH1 0x1 DUP2 SSTORE DUP1 RETURN JUMPDEST PUSH2 0x562 SWAP1 PUSH1 0x20 RETURNDATASIZE PUSH1 0x20 GT PUSH2 0x3FF JUMPI PUSH2 0x3F0 DUP2 DUP4 PUSH2 0xDC8 JUMP JUMPDEST POP CODESIZE PUSH2 0x518 JUMP JUMPDEST DUP2 MLOAD PUSH4 0x1E9ACF17 PUSH1 0xE3 SHL DUP2 MSTORE DUP6 SWAP1 REVERT JUMPDEST MLOAD PUSH4 0x1F2A2005 PUSH1 0xE0 SHL DUP2 MSTORE DUP4 SWAP1 REVERT JUMPDEST POP DUP1 REVERT JUMPDEST POP POP CALLVALUE PUSH2 0x588 JUMPI DUP1 PUSH1 0x3 NOT CALLDATASIZE ADD SLT PUSH2 0x588 JUMPI PUSH1 0x20 SWAP1 PUSH2 0x5BA PUSH2 0x5AC PUSH2 0xD11 JUMP JUMPDEST PUSH2 0x5B4 PUSH2 0xD2C JUMP JUMPDEST SWAP1 PUSH2 0xF2F JUMP JUMPDEST SWAP1 MLOAD SWAP1 DUP2 MSTORE RETURN JUMPDEST POP POP CALLVALUE PUSH2 0x588 JUMPI DUP1 PUSH1 0x3 NOT CALLDATASIZE ADD SLT PUSH2 0x588 JUMPI PUSH1 0x20 SWAP1 PUSH2 0x5EB PUSH2 0x5E1 PUSH2 0xD11 JUMP JUMPDEST PUSH1 0x24 CALLDATALOAD SWAP1 CALLER PUSH2 0x102A JUMP JUMPDEST MLOAD PUSH1 0x1 DUP2 MSTORE RETURN JUMPDEST POP SWAP1 CALLVALUE PUSH2 0x302 JUMPI DUP3 PUSH1 0x3 NOT CALLDATASIZE ADD SLT PUSH2 0x302 JUMPI DUP1 MLOAD PUSH4 0x95D89B41 PUSH1 0xE0 SHL DUP2 MSTORE SWAP2 DUP4 SWAP1 DUP4 SWAP1 DUP2 PUSH32 0x0 PUSH1 0x1 PUSH1 0x1 PUSH1 0xA0 SHL SUB AND GAS STATICCALL SWAP2 DUP3 ISZERO PUSH2 0x6C8 JUMPI DUP4 PUSH2 0x69F SWAP5 SWAP4 PUSH2 0x6A3 JUMPI JUMPDEST POP POP PUSH2 0x68D PUSH1 0x22 DUP3 MLOAD DUP5 PUSH2 0x672 DUP3 SWAP7 MLOAD DUP1 SWAP3 PUSH1 0x20 DUP1 DUP7 ADD SWAP2 ADD PUSH2 0xCC9 JUMP JUMPDEST DUP2 ADD PUSH2 0x2E5 PUSH1 0xF4 SHL PUSH1 0x20 DUP3 ADD MSTORE SUB PUSH1 0x2 DUP2 ADD DUP6 MSTORE ADD DUP4 PUSH2 0xDC8 JUMP JUMPDEST MLOAD SWAP2 DUP3 SWAP2 PUSH1 0x20 DUP4 MSTORE PUSH1 0x20 DUP4 ADD SWAP1 PUSH2 0xCEC JUMP JUMPDEST SUB SWAP1 RETURN JUMPDEST PUSH2 0x6C0 SWAP3 SWAP4 POP RETURNDATASIZE DUP1 SWAP2 DUP4 RETURNDATACOPY PUSH2 0x6B8 DUP2 DUP4 PUSH2 0xDC8 JUMP JUMPDEST DUP2 ADD SWAP1 PUSH2 0xEAE JUMP JUMPDEST SWAP1 CODESIZE DUP1 PUSH2 0x654 JUMP JUMPDEST DUP2 MLOAD RETURNDATASIZE DUP6 DUP3 RETURNDATACOPY RETURNDATASIZE SWAP1 REVERT JUMPDEST POP SWAP2 CALLVALUE PUSH2 0x719 JUMPI POP PUSH2 0x6E3 CALLDATASIZE PUSH2 0xDEA JUMP JUMPDEST SWAP2 PUSH2 0x6ED DUP4 PUSH2 0x1307 JUMP JUMPDEST ISZERO PUSH2 0x70B JUMPI POP PUSH1 0x20 SWAP2 DUP3 ADD MLOAD PUSH2 0x5BA SWAP1 PUSH1 0x1 PUSH1 0x1 PUSH1 0xA0 SHL SUB AND PUSH2 0x111A JUMP JUMPDEST SWAP1 MLOAD PUSH4 0x3BFCDEB PUSH1 0xE2 SHL DUP2 MSTORE REVERT JUMPDEST DUP1 REVERT JUMPDEST POP CALLVALUE PUSH2 0x302 JUMPI PUSH1 0x60 CALLDATASIZE PUSH1 0x3 NOT ADD SLT PUSH2 0x302 JUMPI DUP2 PUSH1 0x20 SWAP4 PUSH1 0xFF SWAP3 PUSH2 0x75A DUP4 MLOAD PUSH2 0x743 DUP2 PUSH2 0xD42 JUMP JUMPDEST DUP3 CALLDATALOAD DUP2 MSTORE PUSH1 0x24 CALLDATALOAD DUP9 DUP3 ADD MSTORE PUSH1 0x44 CALLDATALOAD DUP6 DUP3 ADD MSTORE PUSH2 0x129D JUMP JUMPDEST DUP3 MSTORE DUP6 MSTORE KECCAK256 SLOAD AND SWAP1 MLOAD SWAP1 ISZERO ISZERO DUP2 MSTORE RETURN JUMPDEST POP CALLVALUE PUSH2 0x302 JUMPI PUSH2 0x779 CALLDATASIZE PUSH2 0xDEA JUMP JUMPDEST PUSH2 0x781 PUSH2 0x127A JUMP JUMPDEST PUSH1 0xA0 DUP2 ADD PUSH2 0x78F DUP2 MLOAD PUSH2 0x129D JUMP JUMPDEST SWAP1 DUP2 DUP7 MSTORE PUSH1 0x20 SWAP3 DUP5 DUP5 MSTORE PUSH1 0xFF DUP7 DUP9 KECCAK256 SLOAD AND PUSH2 0x2F2 JUMPI PUSH2 0x7AE DUP3 MLOAD PUSH2 0x12D2 JUMP JUMPDEST POP PUSH1 0x80 DUP2 ADD SWAP2 DUP3 MLOAD TIMESTAMP GT PUSH2 0x2E2 JUMPI DUP2 MLOAD PUSH1 0x3 DUP2 LT ISZERO PUSH2 0x2A5 JUMPI PUSH1 0x2 SUB PUSH2 0x2D2 JUMPI DUP2 MLOAD PUSH1 0x3 DUP2 LT ISZERO PUSH2 0x2A5 JUMPI ISZERO PUSH2 0x8EB JUMPI JUMPDEST DUP2 MLOAD SWAP1 PUSH1 0x3 DUP3 LT ISZERO PUSH2 0x2A5 JUMPI DUP6 DUP4 ADD SWAP1 DUP7 DUP11 PUSH1 0x80 DUP12 PUSH1 0x1 DUP1 PUSH1 0xA0 SHL SUB SWAP7 DUP8 DUP8 MLOAD AND DUP3 DUP11 ADD SWAP11 PUSH1 0x60 DUP11 DUP14 MLOAD AND SWAP12 ADD SWAP11 DUP12 MLOAD SWAP2 MLOAD SWAP3 DUP6 MLOAD SWAP5 DUP10 DUP7 ADD SWAP7 PUSH1 0x0 DUP1 MLOAD PUSH1 0x20 PUSH2 0x16CD DUP4 CODECOPY DUP2 MLOAD SWAP2 MSTORE DUP9 MSTORE DUP7 ADD MSTORE PUSH1 0x60 DUP6 ADD MSTORE DUP6 DUP5 ADD MSTORE PUSH1 0xA0 DUP4 ADD MSTORE PUSH1 0xC0 DUP3 ADD MSTORE PUSH1 0xC0 DUP2 MSTORE PUSH2 0x84D DUP2 PUSH2 0xD74 JUMP JUMPDEST MLOAD SWAP1 KECCAK256 DUP13 DUP8 DUP8 MLOAD AND SWAP6 MLOAD SWAP2 DUP2 MLOAD DUP7 DUP2 ADD SWAP2 PUSH2 0x1901 PUSH1 0xF0 SHL DUP4 MSTORE PUSH32 0x0 PUSH1 0x22 DUP4 ADD MSTORE PUSH1 0x42 DUP3 ADD MSTORE PUSH1 0x42 DUP2 MSTORE PUSH2 0x89E DUP2 PUSH2 0xD90 JUMP JUMPDEST MLOAD SWAP1 KECCAK256 SWAP2 PUSH1 0xFF DUP3 DUP3 ADD MLOAD AND SWAP2 DUP7 DUP3 MLOAD SWAP3 ADD MLOAD SWAP3 DUP2 MLOAD SWAP5 DUP6 MSTORE DUP8 DUP6 ADD MSTORE DUP4 ADD MSTORE PUSH1 0x60 DUP3 ADD MSTORE DUP3 DUP1 MSTORE PUSH1 0x1 GAS STATICCALL ISZERO PUSH2 0x29B JUMPI DUP3 DUP11 MLOAD AND SUB PUSH2 0x28B JUMPI MLOAD SWAP3 MLOAD SWAP2 MLOAD PUSH2 0x274 SWAP4 SWAP1 SWAP3 DUP3 AND SWAP2 AND PUSH2 0xFC2 JUMP JUMPDEST PUSH1 0x60 DUP3 ADD MLOAD ISZERO PUSH2 0x7DF JUMPI DUP7 MLOAD PUSH4 0x291DED61 PUSH1 0xE0 SHL DUP2 MSTORE DUP7 SWAP1 REVERT JUMPDEST POP POP CALLVALUE PUSH2 0x588 JUMPI PUSH1 0x20 CALLDATASIZE PUSH1 0x3 NOT ADD SLT PUSH2 0x588 JUMPI PUSH1 0x20 SWAP1 PUSH2 0x5BA PUSH2 0x926 PUSH2 0xD11 JUMP JUMPDEST PUSH2 0xF10 JUMP JUMPDEST POP POP CALLVALUE PUSH2 0x588 JUMPI DUP2 PUSH1 0x3 NOT CALLDATASIZE ADD SLT PUSH2 0x588 JUMPI PUSH1 0x20 SWAP1 MLOAD PUSH32 0x0 DUP2 MSTORE RETURN JUMPDEST POP SWAP2 CALLVALUE PUSH2 0x719 JUMPI DUP1 PUSH1 0x3 NOT CALLDATASIZE ADD SLT PUSH2 0x719 JUMPI DUP2 MLOAD PUSH4 0x313CE567 PUSH1 0xE0 SHL DUP2 MSTORE SWAP3 PUSH1 0x20 SWAP1 DUP5 SWAP1 DUP2 PUSH32 0x0 PUSH1 0x1 PUSH1 0x1 PUSH1 0xA0 SHL SUB AND GAS STATICCALL SWAP3 DUP4 ISZERO PUSH2 0xA14 JUMPI DUP2 SWAP4 PUSH2 0x9D2 JUMPI JUMPDEST PUSH1 0x20 DUP5 PUSH1 0xFF DUP6 MLOAD SWAP2 AND DUP2 MSTORE RETURN JUMPDEST SWAP1 SWAP3 POP PUSH1 0x20 DUP2 RETURNDATASIZE PUSH1 0x20 GT PUSH2 0xA0C JUMPI JUMPDEST DUP2 PUSH2 0x9EE PUSH1 0x20 SWAP4 DUP4 PUSH2 0xDC8 JUMP JUMPDEST DUP2 ADD SUB SLT PUSH2 0x302 JUMPI MLOAD SWAP2 PUSH1 0xFF DUP4 AND DUP4 SUB PUSH2 0x719 JUMPI POP PUSH1 0xFF PUSH1 0x20 PUSH2 0x9C5 JUMP JUMPDEST RETURNDATASIZE SWAP2 POP PUSH2 0x9E1 JUMP JUMPDEST POP SWAP1 MLOAD SWAP1 RETURNDATASIZE SWAP1 DUP3 RETURNDATACOPY RETURNDATASIZE SWAP1 REVERT JUMPDEST POP POP CALLVALUE PUSH2 0x588 JUMPI DUP2 PUSH1 0x3 NOT CALLDATASIZE ADD SLT PUSH2 0x588 JUMPI MLOAD PUSH32 0x0 PUSH1 0x1 PUSH1 0x1 PUSH1 0xA0 SHL SUB AND DUP2 MSTORE PUSH1 0x20 SWAP1 RETURN JUMPDEST POP SWAP2 CALLVALUE PUSH2 0x719 JUMPI PUSH1 0x60 CALLDATASIZE PUSH1 0x3 NOT ADD SLT PUSH2 0x719 JUMPI PUSH2 0xA7F PUSH2 0xD11 JUMP JUMPDEST PUSH2 0xA87 PUSH2 0xD2C JUMP JUMPDEST SWAP1 DUP4 PUSH1 0x44 CALLDATALOAD SWAP4 PUSH1 0x1 DUP1 PUSH1 0xA0 SHL SUB DUP4 AND DUP2 MSTORE PUSH1 0x3 PUSH1 0x20 MSTORE DUP2 DUP2 KECCAK256 CALLER DUP3 MSTORE PUSH1 0x20 MSTORE KECCAK256 SLOAD SWAP5 PUSH1 0x0 NOT DUP7 LT PUSH2 0xAC1 JUMPI JUMPDEST PUSH1 0x20 DUP6 PUSH2 0x5EB DUP7 DUP7 DUP7 PUSH2 0x102A JUMP JUMPDEST DUP4 DUP7 LT PUSH2 0xAE6 JUMPI POP SWAP1 DUP3 SWAP2 PUSH2 0xADE PUSH2 0x5EB SWAP5 PUSH1 0x20 SWAP8 SUB CALLER DUP4 PUSH2 0xFC2 JUMP JUMPDEST SWAP1 SWAP2 SWAP3 PUSH2 0xAB3 JUMP JUMPDEST DUP5 MLOAD PUSH4 0x7DC7A0D9 PUSH1 0xE1 SHL DUP2 MSTORE CALLER SWAP2 DUP2 ADD SWAP2 DUP3 MSTORE PUSH1 0x20 DUP3 ADD DUP8 SWAP1 MSTORE PUSH1 0x40 DUP3 ADD DUP6 SWAP1 MSTORE SWAP1 DUP2 SWAP1 PUSH1 0x60 ADD SUB SWAP1 REVERT JUMPDEST POP SWAP1 CALLVALUE PUSH2 0x302 JUMPI DUP3 PUSH1 0x3 NOT CALLDATASIZE ADD SLT PUSH2 0x302 JUMPI DUP1 MLOAD PUSH4 0x70A08231 PUSH1 0xE0 SHL DUP2 MSTORE ADDRESS SWAP3 DUP2 ADD SWAP3 SWAP1 SWAP3 MSTORE PUSH1 0x20 DUP3 PUSH1 0x24 DUP2 PUSH32 0x0 PUSH1 0x1 PUSH1 0x1 PUSH1 0xA0 SHL SUB AND GAS STATICCALL SWAP2 DUP3 ISZERO PUSH2 0x6C8 JUMPI DUP4 SWAP3 PUSH2 0xB81 JUMPI JUMPDEST PUSH1 0x20 DUP4 DUP4 MLOAD SWAP1 DUP2 MSTORE RETURN JUMPDEST SWAP1 SWAP2 POP PUSH1 0x20 DUP2 RETURNDATASIZE PUSH1 0x20 GT PUSH2 0xBB1 JUMPI JUMPDEST DUP2 PUSH2 0xB9D PUSH1 0x20 SWAP4 DUP4 PUSH2 0xDC8 JUMP JUMPDEST DUP2 ADD SUB SLT PUSH2 0x302 JUMPI PUSH1 0x20 SWAP3 POP MLOAD SWAP1 CODESIZE PUSH2 0xB77 JUMP JUMPDEST RETURNDATASIZE SWAP2 POP PUSH2 0xB90 JUMP JUMPDEST POP POP CALLVALUE PUSH2 0x588 JUMPI DUP1 PUSH1 0x3 NOT CALLDATASIZE ADD SLT PUSH2 0x588 JUMPI PUSH1 0x20 SWAP1 PUSH2 0x5EB PUSH2 0xBD9 PUSH2 0xD11 JUMP JUMPDEST PUSH1 0x24 CALLDATALOAD SWAP1 CALLER PUSH2 0xFC2 JUMP JUMPDEST POP SWAP1 CALLVALUE PUSH2 0x302 JUMPI DUP3 PUSH1 0x3 NOT CALLDATASIZE ADD SLT PUSH2 0x302 JUMPI DUP1 MLOAD PUSH4 0x6FDDE03 PUSH1 0xE0 SHL DUP2 MSTORE SWAP2 DUP4 SWAP1 DUP4 SWAP1 DUP2 PUSH32 0x0 PUSH1 0x1 PUSH1 0x1 PUSH1 0xA0 SHL SUB AND GAS STATICCALL SWAP2 DUP3 ISZERO PUSH2 0x6C8 JUMPI DUP4 PUSH2 0x69F SWAP5 SWAP4 PUSH2 0xC84 JUMPI JUMPDEST POP POP PUSH2 0x68D PUSH1 0x28 DUP3 MLOAD DUP1 SWAP5 PUSH8 0x283934BB30B1BC9 PUSH1 0xC5 SHL PUSH1 0x20 DUP4 ADD MSTORE PUSH2 0xC74 DUP2 MLOAD DUP1 SWAP3 PUSH1 0x20 DUP7 DUP7 ADD SWAP2 ADD PUSH2 0xCC9 JUMP JUMPDEST DUP2 ADD SUB PUSH1 0x8 DUP2 ADD DUP6 MSTORE ADD DUP4 PUSH2 0xDC8 JUMP JUMPDEST PUSH2 0xC99 SWAP3 SWAP4 POP RETURNDATASIZE DUP1 SWAP2 DUP4 RETURNDATACOPY PUSH2 0x6B8 DUP2 DUP4 PUSH2 0xDC8 JUMP JUMPDEST SWAP1 CODESIZE DUP1 PUSH2 0xC45 JUMP JUMPDEST DUP5 SWAP1 CALLVALUE PUSH2 0x588 JUMPI DUP2 PUSH1 0x3 NOT CALLDATASIZE ADD SLT PUSH2 0x588 JUMPI DUP1 PUSH1 0x0 DUP1 MLOAD PUSH1 0x20 PUSH2 0x16CD DUP4 CODECOPY DUP2 MLOAD SWAP2 MSTORE PUSH1 0x20 SWAP3 MSTORE RETURN JUMPDEST PUSH1 0x0 JUMPDEST DUP4 DUP2 LT PUSH2 0xCDC JUMPI POP POP PUSH1 0x0 SWAP2 ADD MSTORE JUMP JUMPDEST DUP2 DUP2 ADD MLOAD DUP4 DUP3 ADD MSTORE PUSH1 0x20 ADD PUSH2 0xCCC JUMP JUMPDEST SWAP1 PUSH1 0x20 SWAP2 PUSH2 0xD05 DUP2 MLOAD DUP1 SWAP3 DUP2 DUP6 MSTORE DUP6 DUP1 DUP7 ADD SWAP2 ADD PUSH2 0xCC9 JUMP JUMPDEST PUSH1 0x1F ADD PUSH1 0x1F NOT AND ADD ADD SWAP1 JUMP JUMPDEST PUSH1 0x4 CALLDATALOAD SWAP1 PUSH1 0x1 PUSH1 0x1 PUSH1 0xA0 SHL SUB DUP3 AND DUP3 SUB PUSH2 0xD27 JUMPI JUMP JUMPDEST PUSH1 0x0 DUP1 REVERT JUMPDEST PUSH1 0x24 CALLDATALOAD SWAP1 PUSH1 0x1 PUSH1 0x1 PUSH1 0xA0 SHL SUB DUP3 AND DUP3 SUB PUSH2 0xD27 JUMPI JUMP JUMPDEST PUSH1 0x60 DUP2 ADD SWAP1 DUP2 LT PUSH8 0xFFFFFFFFFFFFFFFF DUP3 GT OR PUSH2 0xD5E JUMPI PUSH1 0x40 MSTORE JUMP JUMPDEST PUSH4 0x4E487B71 PUSH1 0xE0 SHL PUSH1 0x0 MSTORE PUSH1 0x41 PUSH1 0x4 MSTORE PUSH1 0x24 PUSH1 0x0 REVERT JUMPDEST PUSH1 0xE0 DUP2 ADD SWAP1 DUP2 LT PUSH8 0xFFFFFFFFFFFFFFFF DUP3 GT OR PUSH2 0xD5E JUMPI PUSH1 0x40 MSTORE JUMP JUMPDEST PUSH1 0x80 DUP2 ADD SWAP1 DUP2 LT PUSH8 0xFFFFFFFFFFFFFFFF DUP3 GT OR PUSH2 0xD5E JUMPI PUSH1 0x40 MSTORE JUMP JUMPDEST PUSH1 0x20 DUP2 ADD SWAP1 DUP2 LT PUSH8 0xFFFFFFFFFFFFFFFF DUP3 GT OR PUSH2 0xD5E JUMPI PUSH1 0x40 MSTORE JUMP JUMPDEST SWAP1 PUSH1 0x1F DUP1 NOT SWAP2 ADD AND DUP2 ADD SWAP1 DUP2 LT PUSH8 0xFFFFFFFFFFFFFFFF DUP3 GT OR PUSH2 0xD5E JUMPI PUSH1 0x40 MSTORE JUMP JUMPDEST PUSH2 0x100 PUSH1 0x3 NOT DUP3 ADD SLT PUSH2 0xD27 JUMPI PUSH1 0x40 MLOAD SWAP1 PUSH1 0xC0 DUP3 ADD DUP3 DUP2 LT PUSH8 0xFFFFFFFFFFFFFFFF DUP3 GT OR PUSH2 0xD5E JUMPI PUSH1 0x40 MSTORE PUSH1 0x4 CALLDATALOAD PUSH1 0x3 DUP2 LT ISZERO PUSH2 0xD27 JUMPI DUP3 MSTORE PUSH1 0x1 PUSH1 0x1 PUSH1 0xA0 SHL SUB SWAP1 PUSH1 0x24 CALLDATALOAD DUP3 DUP2 AND DUP2 SUB PUSH2 0xD27 JUMPI PUSH1 0x20 DUP5 ADD MSTORE PUSH1 0x44 CALLDATALOAD SWAP2 DUP3 AND DUP3 SUB PUSH2 0xD27 JUMPI PUSH1 0x60 SWAP2 PUSH1 0x40 DUP5 ADD MSTORE PUSH1 0x64 CALLDATALOAD DUP3 DUP5 ADD MSTORE PUSH1 0x84 CALLDATALOAD PUSH1 0x80 DUP5 ADD MSTORE PUSH1 0xA3 NOT ADD SLT PUSH2 0xD27 JUMPI PUSH1 0x40 MLOAD PUSH2 0xE75 DUP2 PUSH2 0xD42 JUMP JUMPDEST PUSH1 0xA4 CALLDATALOAD DUP2 MSTORE PUSH1 0xC4 CALLDATALOAD PUSH1 0x20 DUP3 ADD MSTORE PUSH1 0xE4 CALLDATALOAD PUSH1 0x40 DUP3 ADD MSTORE PUSH1 0xA0 DUP3 ADD MSTORE SWAP1 JUMP JUMPDEST PUSH8 0xFFFFFFFFFFFFFFFF DUP2 GT PUSH2 0xD5E JUMPI PUSH1 0x1F ADD PUSH1 0x1F NOT AND PUSH1 0x20 ADD SWAP1 JUMP JUMPDEST PUSH1 0x20 DUP2 DUP4 SUB SLT PUSH2 0xD27 JUMPI DUP1 MLOAD SWAP1 PUSH8 0xFFFFFFFFFFFFFFFF DUP3 GT PUSH2 0xD27 JUMPI ADD DUP2 PUSH1 0x1F DUP3 ADD SLT ISZERO PUSH2 0xD27 JUMPI DUP1 MLOAD PUSH2 0xEE1 DUP2 PUSH2 0xE92 JUMP JUMPDEST SWAP3 PUSH2 0xEEF PUSH1 0x40 MLOAD SWAP5 DUP6 PUSH2 0xDC8 JUMP JUMPDEST DUP2 DUP5 MSTORE PUSH1 0x20 DUP3 DUP5 ADD ADD GT PUSH2 0xD27 JUMPI PUSH2 0xF0D SWAP2 PUSH1 0x20 DUP1 DUP6 ADD SWAP2 ADD PUSH2 0xCC9 JUMP JUMPDEST SWAP1 JUMP JUMPDEST CALLER PUSH1 0x1 PUSH1 0x1 PUSH1 0xA0 SHL SUB DUP3 AND SUB PUSH2 0xF29 JUMPI PUSH2 0xF0D SWAP1 PUSH2 0x111A JUMP JUMPDEST POP PUSH1 0x0 SWAP1 JUMP JUMPDEST PUSH1 0x1 PUSH1 0x1 PUSH1 0xA0 SHL SUB SWAP1 DUP2 AND CALLER DUP2 EQ ISZERO DUP1 PUSH2 0xF6E JUMPI JUMPDEST PUSH2 0xF66 JUMPI PUSH1 0x0 MSTORE PUSH1 0x3 PUSH1 0x20 MSTORE PUSH1 0x40 PUSH1 0x0 KECCAK256 SWAP2 AND PUSH1 0x0 MSTORE PUSH1 0x20 MSTORE PUSH1 0x40 PUSH1 0x0 KECCAK256 SLOAD SWAP1 JUMP JUMPDEST POP POP POP PUSH1 0x0 SWAP1 JUMP JUMPDEST POP CALLER DUP3 DUP5 AND EQ ISZERO PUSH2 0xF44 JUMP JUMPDEST SWAP2 SWAP1 DUP3 SUB SWAP2 DUP3 GT PUSH2 0xF87 JUMPI JUMP JUMPDEST PUSH4 0x4E487B71 PUSH1 0xE0 SHL PUSH1 0x0 MSTORE PUSH1 0x11 PUSH1 0x4 MSTORE PUSH1 0x24 PUSH1 0x0 REVERT JUMPDEST SWAP1 DUP2 PUSH1 0x20 SWAP2 SUB SLT PUSH2 0xD27 JUMPI MLOAD DUP1 ISZERO ISZERO DUP2 SUB PUSH2 0xD27 JUMPI SWAP1 JUMP JUMPDEST SWAP2 SWAP1 DUP3 ADD DUP1 SWAP3 GT PUSH2 0xF87 JUMPI JUMP JUMPDEST PUSH1 0x1 PUSH1 0x1 PUSH1 0xA0 SHL SUB SWAP1 DUP2 AND SWAP2 DUP3 ISZERO PUSH2 0x1011 JUMPI AND SWAP1 DUP2 ISZERO PUSH2 0xFF8 JUMPI PUSH1 0x0 MSTORE PUSH1 0x3 PUSH1 0x20 MSTORE PUSH1 0x40 PUSH1 0x0 KECCAK256 SWAP1 PUSH1 0x0 MSTORE PUSH1 0x20 MSTORE PUSH1 0x40 PUSH1 0x0 KECCAK256 SSTORE JUMP JUMPDEST PUSH1 0x40 MLOAD PUSH4 0x4A1406B1 PUSH1 0xE1 SHL DUP2 MSTORE PUSH1 0x0 PUSH1 0x4 DUP3 ADD MSTORE PUSH1 0x24 SWAP1 REVERT JUMPDEST PUSH1 0x40 MLOAD PUSH4 0xE602DF05 PUSH1 0xE0 SHL DUP2 MSTORE PUSH1 0x0 PUSH1 0x4 DUP3 ADD MSTORE PUSH1 0x24 SWAP1 REVERT JUMPDEST SWAP3 SWAP2 PUSH1 0x1 PUSH1 0x1 PUSH1 0xA0 SHL SUB DUP1 DUP6 AND ISZERO PUSH2 0x10C7 JUMPI DUP3 AND ISZERO PUSH2 0x10AE JUMPI PUSH2 0x104C DUP5 PUSH2 0x111A JUMP JUMPDEST SWAP4 DUP2 DUP6 LT PUSH2 0x107C JUMPI SWAP1 PUSH2 0x107A SWAP4 SWAP5 PUSH2 0x39A PUSH2 0x1074 SWAP4 PUSH2 0x1074 DUP5 PUSH2 0x106E DUP9 PUSH2 0x111A JUMP JUMPDEST SWAP5 PUSH2 0xF7A JUMP JUMPDEST SWAP1 PUSH2 0x148D JUMP JUMPDEST JUMP JUMPDEST PUSH1 0x40 MLOAD PUSH4 0x391434E3 PUSH1 0xE2 SHL DUP2 MSTORE PUSH1 0x1 PUSH1 0x1 PUSH1 0xA0 SHL SUB SWAP2 SWAP1 SWAP2 AND PUSH1 0x4 DUP3 ADD MSTORE PUSH1 0x24 DUP2 ADD DUP6 SWAP1 MSTORE PUSH1 0x44 DUP2 ADD SWAP2 SWAP1 SWAP2 MSTORE PUSH1 0x64 SWAP1 REVERT JUMPDEST PUSH1 0x40 MLOAD PUSH4 0xEC442F05 PUSH1 0xE0 SHL DUP2 MSTORE PUSH1 0x0 PUSH1 0x4 DUP3 ADD MSTORE PUSH1 0x24 SWAP1 REVERT JUMPDEST PUSH1 0x40 MLOAD PUSH4 0x4B637E8F PUSH1 0xE1 SHL DUP2 MSTORE PUSH1 0x0 PUSH1 0x4 DUP3 ADD MSTORE PUSH1 0x24 SWAP1 REVERT JUMPDEST SWAP1 PUSH1 0x1 DUP3 DUP2 SHR SWAP3 AND DUP1 ISZERO PUSH2 0x1110 JUMPI JUMPDEST PUSH1 0x20 DUP4 LT EQ PUSH2 0x10FA JUMPI JUMP JUMPDEST PUSH4 0x4E487B71 PUSH1 0xE0 SHL PUSH1 0x0 MSTORE PUSH1 0x22 PUSH1 0x4 MSTORE PUSH1 0x24 PUSH1 0x0 REVERT JUMPDEST SWAP2 PUSH1 0x7F AND SWAP2 PUSH2 0x10EF JUMP JUMPDEST PUSH1 0x0 SWAP1 PUSH1 0x1 DUP1 PUSH1 0xA0 SHL SUB AND DUP2 MSTORE PUSH1 0x20 SWAP1 PUSH1 0x2 DUP3 MSTORE PUSH1 0x40 DUP2 KECCAK256 PUSH1 0x40 MLOAD SWAP1 DUP2 DUP4 DUP3 SLOAD PUSH2 0x1143 DUP2 PUSH2 0x10E0 JUMP JUMPDEST SWAP4 DUP5 DUP5 MSTORE PUSH1 0x1 SWAP2 DUP9 PUSH1 0x1 DUP3 AND SWAP2 DUP3 PUSH1 0x0 EQ PUSH2 0x1258 JUMPI POP POP PUSH1 0x1 EQ PUSH2 0x121C JUMPI JUMPDEST POP POP PUSH2 0x1170 SWAP3 POP SUB DUP3 PUSH2 0xDC8 JUMP JUMPDEST DUP1 MLOAD ISZERO PUSH2 0x1216 JUMPI DUP2 DUP1 SWAP2 PUSH1 0x1 SLOAD SWAP1 PUSH2 0x11B2 PUSH1 0x40 MLOAD SWAP2 PUSH2 0x118E DUP4 PUSH2 0xDAC JUMP JUMPDEST DUP5 DUP4 MSTORE PUSH2 0x11A4 PUSH1 0x40 MLOAD SWAP4 DUP5 SWAP3 DUP11 DUP5 ADD SWAP7 DUP8 PUSH2 0x166A JUMP JUMPDEST SUB PUSH1 0x1F NOT DUP2 ADD DUP4 MSTORE DUP3 PUSH2 0xDC8 JUMP JUMPDEST MLOAD SWAP1 PUSH1 0x4 PUSH1 0x1 PUSH1 0x98 SHL ADD GAS STATICCALL SWAP1 PUSH2 0x11C7 PUSH2 0x169C JUMP JUMPDEST SWAP2 ISZERO PUSH2 0x11DF JUMPI DUP3 DUP3 DUP1 MLOAD DUP2 ADD SUB SLT PUSH2 0x719 JUMPI POP ADD MLOAD SWAP1 JUMP JUMPDEST PUSH1 0x40 MLOAD PUSH3 0x461BCD PUSH1 0xE5 SHL DUP2 MSTORE PUSH1 0x4 DUP2 ADD DUP5 SWAP1 MSTORE PUSH1 0xF PUSH1 0x24 DUP3 ADD MSTORE PUSH15 0x191958DC9E5C1D0E8819985A5B1959 PUSH1 0x8A SHL PUSH1 0x44 DUP3 ADD MSTORE PUSH1 0x64 SWAP1 REVERT JUMPDEST POP SWAP1 POP SWAP1 JUMP JUMPDEST DUP8 SWAP3 POP DUP7 MSTORE DUP2 DUP7 KECCAK256 SWAP1 DUP7 SWAP2 JUMPDEST DUP6 DUP4 LT PUSH2 0x1240 JUMPI POP POP PUSH2 0x1170 SWAP4 POP DUP3 ADD ADD CODESIZE DUP1 PUSH2 0x1162 JUMP JUMPDEST DUP1 SLOAD DUP4 DUP9 ADD DUP6 ADD MSTORE DUP7 SWAP5 POP DUP9 SWAP4 SWAP1 SWAP3 ADD SWAP2 DUP2 ADD PUSH2 0x1228 JUMP JUMPDEST SWAP3 POP SWAP4 POP POP PUSH2 0x1170 SWAP5 SWAP2 POP PUSH1 0xFF NOT AND DUP3 DUP5 ADD MSTORE ISZERO ISZERO PUSH1 0x5 SHL DUP3 ADD ADD CODESIZE DUP1 PUSH2 0x1162 JUMP JUMPDEST PUSH1 0x2 PUSH1 0x0 SLOAD EQ PUSH2 0x128B JUMPI PUSH1 0x2 PUSH1 0x0 SSTORE JUMP JUMPDEST PUSH1 0x40 MLOAD PUSH4 0x3EE5AEB5 PUSH1 0xE0 SHL DUP2 MSTORE PUSH1 0x4 SWAP1 REVERT JUMPDEST DUP1 MLOAD SWAP1 PUSH1 0x40 PUSH1 0x20 DUP3 ADD MLOAD SWAP2 ADD MLOAD PUSH1 0x40 MLOAD SWAP2 PUSH1 0x20 DUP4 ADD SWAP4 DUP5 MSTORE PUSH1 0x40 DUP4 ADD MSTORE PUSH1 0x60 DUP3 ADD MSTORE PUSH1 0x60 DUP2 MSTORE PUSH2 0x12CC DUP2 PUSH2 0xD90 JUMP JUMPDEST MLOAD SWAP1 KECCAK256 SWAP1 JUMP JUMPDEST PUSH2 0x12DB SWAP1 PUSH2 0x129D JUMP JUMPDEST PUSH1 0x0 MSTORE PUSH1 0x4 PUSH1 0x20 MSTORE PUSH1 0xFF PUSH1 0x40 PUSH1 0x0 KECCAK256 SLOAD AND PUSH2 0x12F5 JUMPI PUSH1 0x0 SWAP1 JUMP JUMPDEST PUSH1 0x40 MLOAD PUSH4 0x8BAA579F PUSH1 0xE0 SHL DUP2 MSTORE PUSH1 0x4 SWAP1 REVERT JUMPDEST PUSH1 0x80 DUP2 ADD DUP1 MLOAD TIMESTAMP GT PUSH2 0x147B JUMPI DUP2 MLOAD PUSH1 0x3 DUP2 LT ISZERO PUSH2 0x1437 JUMPI PUSH2 0x1469 JUMPI DUP2 MLOAD PUSH1 0x3 DUP2 LT ISZERO PUSH2 0x1437 JUMPI ISZERO PUSH2 0x144D JUMPI JUMPDEST DUP2 MLOAD SWAP1 PUSH1 0x3 DUP3 LT ISZERO PUSH2 0x1437 JUMPI PUSH1 0x20 PUSH1 0x0 PUSH1 0x80 DUP3 DUP7 ADD PUSH1 0xA0 PUSH1 0x1 DUP1 DUP3 SHL SUB DUP1 SWAP8 DUP2 DUP5 MLOAD AND PUSH1 0x40 SWAP9 DUP4 DUP11 DUP14 ADD MLOAD AND SWAP1 PUSH1 0x60 DUP14 ADD MLOAD SWAP1 MLOAD SWAP2 DUP12 MLOAD SWAP4 DUP12 DUP6 ADD SWAP6 PUSH1 0x0 DUP1 MLOAD PUSH1 0x20 PUSH2 0x16CD DUP4 CODECOPY DUP2 MLOAD SWAP2 MSTORE DUP8 MSTORE DUP14 DUP7 ADD MSTORE PUSH1 0x60 DUP6 ADD MSTORE DUP9 DUP5 ADD MSTORE DUP6 DUP4 ADD MSTORE PUSH1 0xC0 DUP3 ADD MSTORE PUSH1 0xC0 DUP2 MSTORE PUSH2 0x13A3 DUP2 PUSH2 0xD74 JUMP JUMPDEST MLOAD SWAP1 KECCAK256 SWAP3 MLOAD AND SWAP8 ADD MLOAD SWAP1 DUP6 MLOAD DUP6 DUP2 ADD SWAP2 PUSH2 0x1901 PUSH1 0xF0 SHL DUP4 MSTORE PUSH32 0x0 PUSH1 0x22 DUP4 ADD MSTORE PUSH1 0x42 DUP3 ADD MSTORE PUSH1 0x42 DUP2 MSTORE PUSH2 0x13F3 DUP2 PUSH2 0xD90 JUMP JUMPDEST MLOAD SWAP1 KECCAK256 SWAP1 PUSH1 0xFF DUP7 DUP3 ADD MLOAD AND SWAP1 DUP6 DUP2 MLOAD SWAP2 ADD MLOAD SWAP2 DUP8 MLOAD SWAP4 DUP5 MSTORE DUP7 DUP5 ADD MSTORE DUP7 DUP4 ADD MSTORE PUSH1 0x60 DUP3 ADD MSTORE DUP3 DUP1 MSTORE PUSH1 0x1 GAS STATICCALL ISZERO PUSH2 0x142D JUMPI POP PUSH1 0x0 MLOAD AND EQ SWAP1 JUMP JUMPDEST MLOAD RETURNDATASIZE PUSH1 0x0 DUP3 RETURNDATACOPY RETURNDATASIZE SWAP1 REVERT JUMPDEST PUSH4 0x4E487B71 PUSH1 0xE0 SHL PUSH1 0x0 MSTORE PUSH1 0x21 PUSH1 0x4 MSTORE PUSH1 0x24 PUSH1 0x0 REVERT JUMPDEST PUSH1 0x60 DUP3 ADD MLOAD ISZERO PUSH2 0x1333 JUMPI PUSH1 0x40 MLOAD PUSH4 0x291DED61 PUSH1 0xE0 SHL DUP2 MSTORE PUSH1 0x4 SWAP1 REVERT JUMPDEST PUSH1 0x40 MLOAD PUSH4 0x51055569 PUSH1 0xE0 SHL DUP2 MSTORE PUSH1 0x4 SWAP1 REVERT JUMPDEST PUSH1 0x40 MLOAD PUSH4 0xF87D9271 PUSH1 0xE0 SHL DUP2 MSTORE PUSH1 0x4 SWAP1 REVERT JUMPDEST PUSH1 0x40 SWAP1 DUP2 MLOAD SWAP1 PUSH1 0x20 SWAP4 DUP5 DUP4 ADD MSTORE DUP4 DUP3 MSTORE DUP3 DUP3 ADD SWAP1 PUSH8 0xFFFFFFFFFFFFFFFF SWAP3 DUP1 DUP4 LT DUP5 DUP5 GT OR PUSH2 0xD5E JUMPI DUP3 DUP6 MSTORE PUSH1 0x1 SWAP5 DUP6 SLOAD SWAP2 PUSH2 0x14C8 DUP6 PUSH2 0xDAC JUMP JUMPDEST PUSH1 0x0 DUP1 SWAP4 DUP2 SWAP3 DUP3 DUP9 MSTORE PUSH2 0x14E3 DUP6 MLOAD SWAP9 DUP10 SWAP3 DUP14 DUP5 ADD SWAP5 DUP6 PUSH2 0x166A JUMP JUMPDEST SUB SWAP7 PUSH2 0x14F7 PUSH1 0x1F NOT SWAP9 DUP10 DUP2 ADD DUP4 MSTORE DUP3 PUSH2 0xDC8 JUMP JUMPDEST MLOAD SWAP1 PUSH1 0x3 PUSH1 0x1 PUSH1 0x98 SHL ADD GAS STATICCALL SWAP3 PUSH2 0x150C PUSH2 0x169C JUMP JUMPDEST SWAP4 ISZERO PUSH2 0x1634 JUMPI PUSH1 0x1 PUSH1 0x1 PUSH1 0xA0 SHL SUB AND DUP3 MSTORE PUSH1 0x2 DUP8 MSTORE DUP2 KECCAK256 DUP3 MLOAD SWAP1 SWAP7 SWAP1 SWAP5 DUP6 GT PUSH2 0x1620 JUMPI PUSH2 0x1539 DUP8 SLOAD PUSH2 0x10E0 JUMP JUMPDEST PUSH1 0x1F DUP2 GT PUSH2 0x15DA JUMPI JUMPDEST POP DUP1 SWAP4 PUSH1 0x1F DUP7 GT PUSH1 0x1 EQ PUSH2 0x157C JUMPI POP POP SWAP2 DUP4 SWAP5 SWAP2 DUP5 SWAP4 SWAP5 PUSH2 0x1571 JUMPI JUMPDEST POP POP SHL SWAP2 PUSH1 0x0 NOT SWAP1 PUSH1 0x3 SHL SHR NOT AND OR SWAP1 SSTORE JUMP JUMPDEST ADD MLOAD SWAP3 POP CODESIZE DUP1 PUSH2 0x155E JUMP JUMPDEST DUP8 DUP4 MSTORE DUP2 DUP4 KECCAK256 SWAP5 SWAP4 SWAP3 DUP7 SWAP3 SWAP2 DUP4 AND SWAP2 JUMPDEST DUP9 DUP4 DUP4 LT PUSH2 0x15C0 JUMPI POP POP POP LT PUSH2 0x15A7 JUMPI JUMPDEST POP POP POP DUP2 SHL ADD SWAP1 SSTORE JUMP JUMPDEST ADD MLOAD PUSH1 0x0 NOT PUSH1 0xF8 DUP5 PUSH1 0x3 SHL AND SHR NOT AND SWAP1 SSTORE CODESIZE DUP1 DUP1 PUSH2 0x159D JUMP JUMPDEST DUP6 DUP8 ADD MLOAD DUP9 SSTORE SWAP1 SWAP7 ADD SWAP6 SWAP5 DUP6 ADD SWAP5 DUP8 SWAP4 POP SWAP1 DUP2 ADD SWAP1 PUSH2 0x158C JUMP JUMPDEST DUP8 DUP4 MSTORE DUP2 DUP4 KECCAK256 PUSH1 0x1F DUP8 ADD PUSH1 0x5 SHR DUP2 ADD SWAP2 DUP4 DUP9 LT PUSH2 0x1616 JUMPI JUMPDEST PUSH1 0x1F ADD PUSH1 0x5 SHR ADD SWAP1 DUP8 SWAP1 JUMPDEST DUP3 DUP2 LT PUSH2 0x160B JUMPI POP POP PUSH2 0x1542 JUMP JUMPDEST DUP5 DUP2 SSTORE ADD DUP8 SWAP1 PUSH2 0x15FD JUMP JUMPDEST SWAP1 SWAP2 POP DUP2 SWAP1 PUSH2 0x15F2 JUMP JUMPDEST PUSH4 0x4E487B71 PUSH1 0xE0 SHL DUP3 MSTORE PUSH1 0x41 PUSH1 0x4 MSTORE PUSH1 0x24 DUP3 REVERT JUMPDEST DUP2 MLOAD PUSH3 0x461BCD PUSH1 0xE5 SHL DUP2 MSTORE PUSH1 0x4 DUP2 ADD DUP10 SWAP1 MSTORE PUSH1 0xF PUSH1 0x24 DUP3 ADD MSTORE PUSH15 0x195B98DC9E5C1D0E8819985A5B1959 PUSH1 0x8A SHL PUSH1 0x44 DUP3 ADD MSTORE PUSH1 0x64 SWAP1 REVERT JUMPDEST SWAP2 PUSH2 0x168E SWAP1 PUSH2 0xF0D SWAP5 SWAP3 PUSH1 0x0 DUP6 MSTORE PUSH1 0x20 DUP6 ADD MSTORE PUSH1 0x80 PUSH1 0x40 DUP6 ADD MSTORE PUSH1 0x80 DUP5 ADD SWAP1 PUSH2 0xCEC JUMP JUMPDEST SWAP2 PUSH1 0x60 DUP2 DUP5 SUB SWAP2 ADD MSTORE PUSH2 0xCEC JUMP JUMPDEST RETURNDATASIZE ISZERO PUSH2 0x16C7 JUMPI RETURNDATASIZE SWAP1 PUSH2 0x16AD DUP3 PUSH2 0xE92 JUMP JUMPDEST SWAP2 PUSH2 0x16BB PUSH1 0x40 MLOAD SWAP4 DUP5 PUSH2 0xDC8 JUMP JUMPDEST DUP3 MSTORE RETURNDATASIZE PUSH1 0x0 PUSH1 0x20 DUP5 ADD RETURNDATACOPY JUMP JUMPDEST PUSH1 0x60 SWAP1 JUMP INVALID 0xDF ADDRESS MSTORE SWAP12 MSIZE SWAP13 0xEF DUP6 BYTE 0x2B PUSH31 0x4FC96B13D343AEA28107D97873F3E0BC909D1E22C6A2646970667358221220 0xA7 EXTCODECOPY JUMP 0xDF 0xF RETURNDATACOPY DUP11 SWAP4 0xC 0xAA PUSH26 0xEC00B033B3EE55F2D802AAFBB6F11E68F6E352EF9664736F6C63 NUMBER STOP ADDMOD XOR STOP CALLER "
        },
        "methodIdentifiers": {
          "DOMAIN_SEPARATOR()": "3644e515",
          "EIP_PERMIT_TYPEHASH()": "036e0708",
          "allowance(address,address)": "dd62ed3e",
          "allowanceWithPermit((uint8,address,address,uint256,uint256,(bytes32,bytes32,uint256)))": "e35ac9fb",
          "approve(address,uint256)": "095ea7b3",
          "approveWithPermit((uint8,address,address,uint256,uint256,(bytes32,bytes32,uint256)))": "7986b37d",
          "balanceOf(address)": "70a08231",
          "balanceOfWithPermit((uint8,address,address,uint256,uint256,(bytes32,bytes32,uint256)))": "940cf112",
          "decimals()": "313ce567",
          "isSignatureUsed((bytes32,bytes32,uint256))": "93355f42",
          "name()": "06fdde03",
          "symbol()": "95d89b41",
          "totalSupply()": "18160ddd",
          "transfer(address,uint256)": "a9059cbb",
          "transferFrom(address,address,uint256)": "23b872dd",
          "transferWithPermit((uint8,address,address,uint256,uint256,(bytes32,bytes32,uint256)))": "eb06f992",
          "underlyingToken()": "2495a599",
          "unwrap(uint256)": "de0e9a3e",
          "wrap(uint256)": "ea598cb0"
        }
      },
      "storageLayout": {
        "storage": [
          {
            "astId": 1407,
            "contract": "contracts/old/PrivacyERC20.sol:PrivacyERC20",
            "label": "_status",
            "offset": 0,
            "slot": "0",
            "type": "t_uint256"
          },
          {
            "astId": 3429,
            "contract": "contracts/old/PrivacyERC20.sol:PrivacyERC20",
            "label": "_globalNonce",
            "offset": 0,
            "slot": "1",
            "type": "t_bytes32"
          },
          {
            "astId": 3433,
            "contract": "contracts/old/PrivacyERC20.sol:PrivacyERC20",
            "label": "_encryptedBalances",
            "offset": 0,
            "slot": "2",
            "type": "t_mapping(t_address,t_bytes_storage)"
          },
          {
            "astId": 3439,
            "contract": "contracts/old/PrivacyERC20.sol:PrivacyERC20",
            "label": "_allowances",
            "offset": 0,
            "slot": "3",
            "type": "t_mapping(t_address,t_mapping(t_address,t_uint256))"
          },
          {
            "astId": 3458,
            "contract": "contracts/old/PrivacyERC20.sol:PrivacyERC20",
            "label": "_usedSignatures",
            "offset": 0,
            "slot": "4",
            "type": "t_mapping(t_bytes32,t_bool)"
          }
        ],
        "types": {
          "t_address": {
            "encoding": "inplace",
            "label": "address",
            "numberOfBytes": "20"
          },
          "t_bool": {
            "encoding": "inplace",
            "label": "bool",
            "numberOfBytes": "1"
          },
          "t_bytes32": {
            "encoding": "inplace",
            "label": "bytes32",
            "numberOfBytes": "32"
          },
          "t_bytes_storage": {
            "encoding": "bytes",
            "label": "bytes",
            "numberOfBytes": "32"
          },
          "t_mapping(t_address,t_bytes_storage)": {
            "encoding": "mapping",
            "key": "t_address",
            "label": "mapping(address => bytes)",
            "numberOfBytes": "32",
            "value": "t_bytes_storage"
          },
          "t_mapping(t_address,t_mapping(t_address,t_uint256))": {
            "encoding": "mapping",
            "key": "t_address",
            "label": "mapping(address => mapping(address => uint256))",
            "numberOfBytes": "32",
            "value": "t_mapping(t_address,t_uint256)"
          },
          "t_mapping(t_address,t_uint256)": {
            "encoding": "mapping",
            "key": "t_address",
            "label": "mapping(address => uint256)",
            "numberOfBytes": "32",
            "value": "t_uint256"
          },
          "t_mapping(t_bytes32,t_bool)": {
            "encoding": "mapping",
            "key": "t_bytes32",
            "label": "mapping(bytes32 => bool)",
            "numberOfBytes": "32",
            "value": "t_bool"
          },
          "t_uint256": {
            "encoding": "inplace",
            "label": "uint256",
            "numberOfBytes": "32"
          }
        }
      }
    }
  }
}