{
  "contracts/PrivacyERC20.sol": {
    "PrivacyERC20": {
      "abi": [
        {
          "inputs": [
            {
              "internalType": "address",
              "name": "underlyingToken_",
              "type": "address"
            },
            {
              "internalType": "bytes",
              "name": "pers_",
              "type": "bytes"
            }
          ],
          "stateMutability": "nonpayable",
          "type": "constructor"
        },
        {
          "inputs": [],
          "name": "EIPError",
          "type": "error"
        },
        {
          "inputs": [
            {
              "internalType": "address",
              "name": "spender",
              "type": "address"
            },
            {
              "internalType": "uint256",
              "name": "allowance",
              "type": "uint256"
            },
            {
              "internalType": "uint256",
              "name": "needed",
              "type": "uint256"
            }
          ],
          "name": "ERC20InsufficientAllowance",
          "type": "error"
        },
        {
          "inputs": [
            {
              "internalType": "address",
              "name": "sender",
              "type": "address"
            },
            {
              "internalType": "uint256",
              "name": "balance",
              "type": "uint256"
            },
            {
              "internalType": "uint256",
              "name": "needed",
              "type": "uint256"
            }
          ],
          "name": "ERC20InsufficientBalance",
          "type": "error"
        },
        {
          "inputs": [
            {
              "internalType": "address",
              "name": "approver",
              "type": "address"
            }
          ],
          "name": "ERC20InvalidApprover",
          "type": "error"
        },
        {
          "inputs": [
            {
              "internalType": "address",
              "name": "receiver",
              "type": "address"
            }
          ],
          "name": "ERC20InvalidReceiver",
          "type": "error"
        },
        {
          "inputs": [
            {
              "internalType": "address",
              "name": "sender",
              "type": "address"
            }
          ],
          "name": "ERC20InvalidSender",
          "type": "error"
        },
        {
          "inputs": [
            {
              "internalType": "address",
              "name": "spender",
              "type": "address"
            }
          ],
          "name": "ERC20InvalidSpender",
          "type": "error"
        },
        {
          "inputs": [],
          "name": "EmptyIdentitySalt",
          "type": "error"
        },
        {
          "inputs": [],
          "name": "ExpiredDeadline",
          "type": "error"
        },
        {
          "inputs": [],
          "name": "InsufficientBalance",
          "type": "error"
        },
        {
          "inputs": [],
          "name": "InvalidPermitAmount",
          "type": "error"
        },
        {
          "inputs": [],
          "name": "InvalidPermitLabel",
          "type": "error"
        },
        {
          "inputs": [],
          "name": "InvalidSignature",
          "type": "error"
        },
        {
          "inputs": [],
          "name": "NotContractAddress",
          "type": "error"
        },
        {
          "inputs": [],
          "name": "ReentrancyGuardReentrantCall",
          "type": "error"
        },
        {
          "inputs": [],
          "name": "SignatureUsed",
          "type": "error"
        },
        {
          "inputs": [],
          "name": "ZeroAddress",
          "type": "error"
        },
        {
          "inputs": [],
          "name": "ZeroAmount",
          "type": "error"
        },
        {
          "anonymous": false,
          "inputs": [
            {
              "indexed": true,
              "internalType": "address",
              "name": "owner",
              "type": "address"
            },
            {
              "indexed": true,
              "internalType": "address",
              "name": "spender",
              "type": "address"
            },
            {
              "indexed": false,
              "internalType": "uint256",
              "name": "value",
              "type": "uint256"
            }
          ],
          "name": "Approval",
          "type": "event"
        },
        {
          "anonymous": false,
          "inputs": [
            {
              "indexed": true,
              "internalType": "address",
              "name": "from",
              "type": "address"
            },
            {
              "indexed": true,
              "internalType": "address",
              "name": "to",
              "type": "address"
            },
            {
              "indexed": false,
              "internalType": "uint256",
              "name": "value",
              "type": "uint256"
            }
          ],
          "name": "Transfer",
          "type": "event"
        },
        {
          "inputs": [],
          "name": "DOMAIN_SEPARATOR",
          "outputs": [
            {
              "internalType": "bytes32",
              "name": "",
              "type": "bytes32"
            }
          ],
          "stateMutability": "view",
          "type": "function"
        },
        {
          "inputs": [],
          "name": "EIP_PERMIT_TYPEHASH",
          "outputs": [
            {
              "internalType": "bytes32",
              "name": "",
              "type": "bytes32"
            }
          ],
          "stateMutability": "view",
          "type": "function"
        },
        {
          "inputs": [
            {
              "internalType": "address",
              "name": "owner",
              "type": "address"
            },
            {
              "internalType": "address",
              "name": "spender",
              "type": "address"
            }
          ],
          "name": "allowance",
          "outputs": [
            {
              "internalType": "uint256",
              "name": "",
              "type": "uint256"
            }
          ],
          "stateMutability": "view",
          "type": "function"
        },
        {
          "inputs": [
            {
              "components": [
                {
                  "internalType": "enum PrivacyEIP712.PermitLabel",
                  "name": "label",
                  "type": "uint8"
                },
                {
                  "internalType": "address",
                  "name": "owner",
                  "type": "address"
                },
                {
                  "internalType": "address",
                  "name": "spender",
                  "type": "address"
                },
                {
                  "internalType": "uint256",
                  "name": "amount",
                  "type": "uint256"
                },
                {
                  "internalType": "uint256",
                  "name": "deadline",
                  "type": "uint256"
                },
                {
                  "components": [
                    {
                      "internalType": "bytes32",
                      "name": "r",
                      "type": "bytes32"
                    },
                    {
                      "internalType": "bytes32",
                      "name": "s",
                      "type": "bytes32"
                    },
                    {
                      "internalType": "uint256",
                      "name": "v",
                      "type": "uint256"
                    }
                  ],
                  "internalType": "struct SignatureRSV",
                  "name": "signature",
                  "type": "tuple"
                }
              ],
              "internalType": "struct PrivacyEIP712.EIP712Permit",
              "name": "permit",
              "type": "tuple"
            }
          ],
          "name": "allowanceWithPermit",
          "outputs": [
            {
              "internalType": "uint256",
              "name": "",
              "type": "uint256"
            }
          ],
          "stateMutability": "view",
          "type": "function"
        },
        {
          "inputs": [
            {
              "internalType": "address",
              "name": "spender",
              "type": "address"
            },
            {
              "internalType": "uint256",
              "name": "value",
              "type": "uint256"
            }
          ],
          "name": "approve",
          "outputs": [
            {
              "internalType": "bool",
              "name": "",
              "type": "bool"
            }
          ],
          "stateMutability": "nonpayable",
          "type": "function"
        },
        {
          "inputs": [
            {
              "components": [
                {
                  "internalType": "enum PrivacyEIP712.PermitLabel",
                  "name": "label",
                  "type": "uint8"
                },
                {
                  "internalType": "address",
                  "name": "owner",
                  "type": "address"
                },
                {
                  "internalType": "address",
                  "name": "spender",
                  "type": "address"
                },
                {
                  "internalType": "uint256",
                  "name": "amount",
                  "type": "uint256"
                },
                {
                  "internalType": "uint256",
                  "name": "deadline",
                  "type": "uint256"
                },
                {
                  "components": [
                    {
                      "internalType": "bytes32",
                      "name": "r",
                      "type": "bytes32"
                    },
                    {
                      "internalType": "bytes32",
                      "name": "s",
                      "type": "bytes32"
                    },
                    {
                      "internalType": "uint256",
                      "name": "v",
                      "type": "uint256"
                    }
                  ],
                  "internalType": "struct SignatureRSV",
                  "name": "signature",
                  "type": "tuple"
                }
              ],
              "internalType": "struct PrivacyEIP712.EIP712Permit",
              "name": "permit",
              "type": "tuple"
            }
          ],
          "name": "approveWithPermit",
          "outputs": [],
          "stateMutability": "nonpayable",
          "type": "function"
        },
        {
          "inputs": [
            {
              "internalType": "address",
              "name": "account",
              "type": "address"
            }
          ],
          "name": "balanceOf",
          "outputs": [
            {
              "internalType": "uint256",
              "name": "",
              "type": "uint256"
            }
          ],
          "stateMutability": "view",
          "type": "function"
        },
        {
          "inputs": [
            {
              "components": [
                {
                  "internalType": "enum PrivacyEIP712.PermitLabel",
                  "name": "label",
                  "type": "uint8"
                },
                {
                  "internalType": "address",
                  "name": "owner",
                  "type": "address"
                },
                {
                  "internalType": "address",
                  "name": "spender",
                  "type": "address"
                },
                {
                  "internalType": "uint256",
                  "name": "amount",
                  "type": "uint256"
                },
                {
                  "internalType": "uint256",
                  "name": "deadline",
                  "type": "uint256"
                },
                {
                  "components": [
                    {
                      "internalType": "bytes32",
                      "name": "r",
                      "type": "bytes32"
                    },
                    {
                      "internalType": "bytes32",
                      "name": "s",
                      "type": "bytes32"
                    },
                    {
                      "internalType": "uint256",
                      "name": "v",
                      "type": "uint256"
                    }
                  ],
                  "internalType": "struct SignatureRSV",
                  "name": "signature",
                  "type": "tuple"
                }
              ],
              "internalType": "struct PrivacyEIP712.EIP712Permit",
              "name": "permit",
              "type": "tuple"
            }
          ],
          "name": "balanceOfWithPermit",
          "outputs": [
            {
              "internalType": "uint256",
              "name": "",
              "type": "uint256"
            }
          ],
          "stateMutability": "view",
          "type": "function"
        },
        {
          "inputs": [],
          "name": "decimals",
          "outputs": [
            {
              "internalType": "uint8",
              "name": "",
              "type": "uint8"
            }
          ],
          "stateMutability": "view",
          "type": "function"
        },
        {
          "inputs": [
            {
              "components": [
                {
                  "internalType": "enum PrivacyEIP712.PermitLabel",
                  "name": "label",
                  "type": "uint8"
                },
                {
                  "internalType": "address",
                  "name": "owner",
                  "type": "address"
                },
                {
                  "internalType": "address",
                  "name": "spender",
                  "type": "address"
                },
                {
                  "internalType": "uint256",
                  "name": "amount",
                  "type": "uint256"
                },
                {
                  "internalType": "uint256",
                  "name": "deadline",
                  "type": "uint256"
                },
                {
                  "components": [
                    {
                      "internalType": "bytes32",
                      "name": "r",
                      "type": "bytes32"
                    },
                    {
                      "internalType": "bytes32",
                      "name": "s",
                      "type": "bytes32"
                    },
                    {
                      "internalType": "uint256",
                      "name": "v",
                      "type": "uint256"
                    }
                  ],
                  "internalType": "struct SignatureRSV",
                  "name": "signature",
                  "type": "tuple"
                }
              ],
              "internalType": "struct PrivacyEIP712.EIP712Permit",
              "name": "permit",
              "type": "tuple"
            }
          ],
          "name": "getMyVirtualAddress",
          "outputs": [
            {
              "internalType": "address",
              "name": "",
              "type": "address"
            }
          ],
          "stateMutability": "view",
          "type": "function"
        },
        {
          "inputs": [
            {
              "components": [
                {
                  "internalType": "bytes32",
                  "name": "r",
                  "type": "bytes32"
                },
                {
                  "internalType": "bytes32",
                  "name": "s",
                  "type": "bytes32"
                },
                {
                  "internalType": "uint256",
                  "name": "v",
                  "type": "uint256"
                }
              ],
              "internalType": "struct SignatureRSV",
              "name": "signature",
              "type": "tuple"
            }
          ],
          "name": "isSignatureUsed",
          "outputs": [
            {
              "internalType": "bool",
              "name": "",
              "type": "bool"
            }
          ],
          "stateMutability": "view",
          "type": "function"
        },
        {
          "inputs": [],
          "name": "name",
          "outputs": [
            {
              "internalType": "string",
              "name": "",
              "type": "string"
            }
          ],
          "stateMutability": "view",
          "type": "function"
        },
        {
          "inputs": [],
          "name": "symbol",
          "outputs": [
            {
              "internalType": "string",
              "name": "",
              "type": "string"
            }
          ],
          "stateMutability": "view",
          "type": "function"
        },
        {
          "inputs": [],
          "name": "totalSupply",
          "outputs": [
            {
              "internalType": "uint256",
              "name": "",
              "type": "uint256"
            }
          ],
          "stateMutability": "view",
          "type": "function"
        },
        {
          "inputs": [
            {
              "internalType": "address",
              "name": "to",
              "type": "address"
            },
            {
              "internalType": "uint256",
              "name": "value",
              "type": "uint256"
            }
          ],
          "name": "transfer",
          "outputs": [
            {
              "internalType": "bool",
              "name": "",
              "type": "bool"
            }
          ],
          "stateMutability": "nonpayable",
          "type": "function"
        },
        {
          "inputs": [
            {
              "internalType": "address",
              "name": "from",
              "type": "address"
            },
            {
              "internalType": "address",
              "name": "to",
              "type": "address"
            },
            {
              "internalType": "uint256",
              "name": "value",
              "type": "uint256"
            }
          ],
          "name": "transferFrom",
          "outputs": [
            {
              "internalType": "bool",
              "name": "",
              "type": "bool"
            }
          ],
          "stateMutability": "nonpayable",
          "type": "function"
        },
        {
          "inputs": [
            {
              "components": [
                {
                  "internalType": "enum PrivacyEIP712.PermitLabel",
                  "name": "label",
                  "type": "uint8"
                },
                {
                  "internalType": "address",
                  "name": "owner",
                  "type": "address"
                },
                {
                  "internalType": "address",
                  "name": "spender",
                  "type": "address"
                },
                {
                  "internalType": "uint256",
                  "name": "amount",
                  "type": "uint256"
                },
                {
                  "internalType": "uint256",
                  "name": "deadline",
                  "type": "uint256"
                },
                {
                  "components": [
                    {
                      "internalType": "bytes32",
                      "name": "r",
                      "type": "bytes32"
                    },
                    {
                      "internalType": "bytes32",
                      "name": "s",
                      "type": "bytes32"
                    },
                    {
                      "internalType": "uint256",
                      "name": "v",
                      "type": "uint256"
                    }
                  ],
                  "internalType": "struct SignatureRSV",
                  "name": "signature",
                  "type": "tuple"
                }
              ],
              "internalType": "struct PrivacyEIP712.EIP712Permit",
              "name": "permit",
              "type": "tuple"
            }
          ],
          "name": "transferWithPermit",
          "outputs": [],
          "stateMutability": "nonpayable",
          "type": "function"
        },
        {
          "inputs": [],
          "name": "underlyingToken",
          "outputs": [
            {
              "internalType": "contract IERC20Metadata",
              "name": "",
              "type": "address"
            }
          ],
          "stateMutability": "view",
          "type": "function"
        },
        {
          "inputs": [
            {
              "internalType": "uint256",
              "name": "amount",
              "type": "uint256"
            }
          ],
          "name": "unwrap",
          "outputs": [],
          "stateMutability": "nonpayable",
          "type": "function"
        },
        {
          "inputs": [
            {
              "internalType": "uint256",
              "name": "amount",
              "type": "uint256"
            }
          ],
          "name": "wrap",
          "outputs": [],
          "stateMutability": "nonpayable",
          "type": "function"
        }
      ],
      "evm": {
        "bytecode": {
          "linkReferences": {},
          "object": "60c0604090808252346200027a5762001ef280380380916200002282856200027f565b8339810182828203126200027a5781516001600160a01b03811692908390036200027a576020818101516001600160401b03928382116200027a570183601f820112156200027a5780516200007781620002a3565b9462000086885196876200027f565b8186528382840101116200027a57620000a591838087019101620002bf565b84519360608501858110848211176200026457865260288552818501947f5072697661637920455243323020546f6b656e2077697468205669727475616c865267204164647265737360c01b8782015286519587870187811086821117620002645788526001875283870191603160f81b835260009660018855600154156200024b575b50519020955190208651928301957f8b73c3c69bb8fe3d512ecc4cf759cc79239f7b179b0ffacaa9a75d522b39400f87528784015260608301524660808301523060a083015260a0825260c08201948286108487111762000237578587528251902060805260a05260e00190811183821017620002235783528152620001ba90620001b49062000308565b620002e4565b60035551611afa9081620003f882396080518181816101f2015281816108bf01528181610a9701528181610bbd0152611481015260a05181818161038c015281816105150152818161066101528181610c0701528181610caf01528181610de30152610ebe0152f35b634e487b7160e01b82526041600452602482fd5b634e487b7160e01b85526041600452602485fd5b620001b46200025a9162000308565b6001553862000129565b634e487b7160e01b600052604160045260246000fd5b600080fd5b601f909101601f19168101906001600160401b038211908210176200026457604052565b6001600160401b0381116200026457601f01601f191660200190565b60005b838110620002d35750506000910152565b8181015183820152602001620002c2565b602081519101519060208110620002f9575090565b6000199060200360031b1b1690565b6000809160405162000358608082602081019460208652604080830152620003408151809281606086015260208686019101620002bf565b601f801991011681010360608101845201826200027f565b51907301000000000000000000000000000000000000015afa3d15620003ee573d906200038582620002a3565b916200039560405193846200027f565b82523d6000602084013e5b15620003a95790565b60405162461bcd60e51b815260206004820152601360248201527f72616e646f6d42797465733a206661696c6564000000000000000000000000006044820152606490fd5b606090620003a056fe6080604081815260048036101561001557600080fd5b600092833560e01c908163036e070814610f6c5750806306fdde0314610e98578063095ea7b314610e5d57806318160ddd14610db557806323b872dd14610cde5780632495a59914610c9a578063313ce56714610be05780633644e51514610ba557806351f4bae9146109be57806370a08231146109985780637986b37d146107cb57806393355f421461077b578063940cf1121461072157806395d89b411461063b578063a9059cbb146105f9578063dd62ed3e1461059a578063de0e9a3e146104a9578063e35ac9fb14610439578063ea598cb01461033f5763eb06f992146100ff57600080fd5b3461033b5761010d366110b5565b610115611728565b60a081018051916101258361174b565b50608081018051421161032b578151858110156102c25760010361031b578151858110156102c25715610301575b8151858110156102c2576003146102d5575b815192858410156102c25760209586840191878a60808b60018060a01b03998a9889895116906060848d019d8e51169c019b8c5191519285519489860196600080516020611aa5833981519152885286015260608501528584015260a083015260c082015260c081526101d78161103f565b5190208c8888511695519181518681019161190160f01b83527f000000000000000000000000000000000000000000000000000000000000000060228301526042820152604281526102288161105b565b5190209160ff82820151169186825192015192815194855287850152830152606082015282805260015afa156102b857838a5116036102aa57509260029594926102868361027e61028e95610293985116611259565b93511661133d565b9051916117b5565b611780565b8452528120600160ff198254161790556001815580f35b87516303bfcdeb60e21b8152fd5b88513d8b823e3d90fd5b634e487b7160e01b885260218652602488fd5b60608201516102f157818601516001600160a01b031615610165575b855163291ded6160e01b81528590fd5b60608201511561015357855163291ded6160e01b81528590fd5b8551635105556960e01b81528590fd5b855163f87d927160e01b81528590fd5b8280fd5b503461033b57602036600319011261033b5780359061035c611728565b811561042b5782516323b872dd60e01b8152339181019190915230602482015260448101829052602081606481877f00000000000000000000000000000000000000000000000000000000000000006001600160a01b03165af1801561041e576103e893506103ef575b506103e26103d333611259565b916103dd836115c8565b61124c565b90611865565b6001815580f35b6104109060203d602011610417575b6104088183611093565b810190611234565b50386103c6565b503d6103fe565b50505051903d90823e3d90fd5b8251631f2a200560e01b8152fd5b503461033b57610448366110b5565b90610452826113b7565b1561049b5750602092829160018060a01b03806104818186610478828b88015116611259565b9501511661133d565b921683526005865283832091168252845220549051908152f35b82516303bfcdeb60e21b8152fd5b50903461033b57602036600319011261033b5781356104c6611728565b801561058c576104d533611259565b6104de816115c8565b82811061057c57906103e2836104f393611211565b815163a9059cbb60e01b815233938101939093526024830152602082604481867f00000000000000000000000000000000000000000000000000000000000000006001600160a01b03165af19081156105735750610554575b506001815580f35b61056c9060203d602011610417576104088183611093565b503861054c565b513d84823e3d90fd5b50505051631e9acf1760e31b8152fd5b5051631f2a200560e01b8152fd5b5050346105f557806003193601126105f557806020926105b8610fdc565b6105d26105cc6105c6610ff7565b9261133d565b9161133d565b6001600160a01b0391821683526005865283832091168252845220549051908152f35b5080fd5b5050346105f557806003193601126105f557602090610634610619610fdc565b61062233611259565b61062e6024359261133d565b906117b5565b5160018152f35b50903461033b578260031936011261033b5780516395d89b4160e01b81529183908390817f00000000000000000000000000000000000000000000000000000000000000006001600160a01b03165afa91821561071757836106ee94936106f2575b50506106dc60288251846106bb829651809260208086019101610f94565b8101672e5072697661637960c01b6020820152036008810185520183611093565b51918291602083526020830190610fb7565b0390f35b61070f9293503d8091833e6107078183611093565b810190611179565b90388061069d565b81513d85823e3d90fd5b5091346107785750610732366110b5565b9161073c836113b7565b1561076a57506020918201516107639061075e906001600160a01b0316611259565b6115c8565b9051908152f35b90516303bfcdeb60e21b8152fd5b80fd5b503461033b57606036600319011261033b57816020936107b960ff938351906107a38261100d565b3581526024358782015260443584820152611780565b81526002855220541690519015158152f35b503461033b576107da366110b5565b6107e2611728565b60a081018051916107f28361174b565b50608081018051421161032b578151858110156102c25760020361031b578151858110156102c2571561097e575b8151858110156102c257600314610953575b815192858410156102c25760209586840191878a60808b60018060a01b03998a9889895116906060848d019d8e51169c019b8c5191519285519489860196600080516020611aa5833981519152885286015260608501528584015260a083015260c082015260c081526108a48161103f565b5190208c8888511695519181518681019161190160f01b83527f000000000000000000000000000000000000000000000000000000000000000060228301526042820152604281526108f58161105b565b5190209160ff82820151169186825192015192815194855287850152830152606082015282805260015afa156102b857838a5116036102aa575092600295949261094b8361027e61028e95610293985116611259565b90519161134f565b60608201516102f157818601516001600160a01b03161561083257855163291ded6160e01b81528590fd5b60608201511561082057855163291ded6160e01b81528590fd5b5050346105f55760203660031901126105f5576020906107636109b9610fdc565b6111db565b503461033b576109cd366110b5565b608081019182514211610b9757815181811015610b3457600303610b8957815181811015610b345715610b71575b815181811015610b3457600314610b47575b81519181831015610b345760209586816080888386019760018060a01b03998a8a5116908b848a01511660608a015191519285519489860196600080516020611aa5833981519152885286015260608501528584015260a083015260c082015260c08152610a7a8161103f565b51902060a089895116960151908a518581019161190160f01b83527f00000000000000000000000000000000000000000000000000000000000000006022830152604282015260428152610acd8161105b565b5190209060ff8b8201511690858151910151918c51938452868401528b830152606082015282805260015afa15610b295751841603610b1b575081610b13915116611259565b915191168152f35b83516303bfcdeb60e21b8152fd5b8551903d90823e3d90fd5b634e487b7160e01b865260218252602486fd5b6060820151610b6357818401516001600160a01b031615610a0d575b835163291ded6160e01b8152fd5b6060820151156109fb57835163291ded6160e01b8152fd5b8351635105556960e01b8152fd5b835163f87d927160e01b8152fd5b5050346105f557816003193601126105f557602090517f00000000000000000000000000000000000000000000000000000000000000008152f35b509134610778578060031936011261077857815163313ce56760e01b8152926020908490817f00000000000000000000000000000000000000000000000000000000000000006001600160a01b03165afa928315610c8e578193610c4c575b60208460ff855191168152f35b9092506020813d602011610c86575b81610c6860209383611093565b8101031261033b57519160ff83168303610778575060ff6020610c3f565b3d9150610c5b565b509051903d90823e3d90fd5b5050346105f557816003193601126105f557517f00000000000000000000000000000000000000000000000000000000000000006001600160a01b03168152602090f35b503461033b57606036600319011261033b57610cf8610fdc565b92610d01610ff7565b6044359284610d21610d1b610d1533611259565b9861133d565b9361133d565b6001600160a01b03848116865260056020908152838720918a16875252932054906000198210610d5a575b6020866106348787876117b5565b848210610d81575090610d786020968561063496959403908361134f565b90919238610d4c565b8551637dc7a0d960e11b81526001600160a01b03881691810191825260208201929092526040810185905281906060010390fd5b50903461033b578260031936011261033b5780516370a0823160e01b815230928101929092526020826024817f00000000000000000000000000000000000000000000000000000000000000006001600160a01b03165afa918215610717578392610e25575b6020838351908152f35b9091506020813d602011610e55575b81610e4160209383611093565b8101031261033b5760209250519038610e1b565b3d9150610e34565b5050346105f557806003193601126105f557602090610634610e7d610fdc565b610e8633611259565b610e926024359261133d565b9061134f565b50903461033b578260031936011261033b5780516306fdde0360e01b81529183908390817f00000000000000000000000000000000000000000000000000000000000000006001600160a01b03165afa91821561071757836106ee9493610f4f575b50506106dc603482518094670283934bb30b1bc960c51b6020830152610f2a815180926020602886019101610f94565b81016b081dda5d1a08155cd95c925960a21b6028820152036014810185520183611093565b610f649293503d8091833e6107078183611093565b903880610efa565b8490346105f557816003193601126105f55780600080516020611aa583398151915260209252f35b60005b838110610fa75750506000910152565b8181015183820152602001610f97565b90602091610fd081518092818552858086019101610f94565b601f01601f1916010190565b600435906001600160a01b0382168203610ff257565b600080fd5b602435906001600160a01b0382168203610ff257565b6060810190811067ffffffffffffffff82111761102957604052565b634e487b7160e01b600052604160045260246000fd5b60e0810190811067ffffffffffffffff82111761102957604052565b6080810190811067ffffffffffffffff82111761102957604052565b6020810190811067ffffffffffffffff82111761102957604052565b90601f8019910116810190811067ffffffffffffffff82111761102957604052565b610100600319820112610ff2576040519060c0820182811067ffffffffffffffff821117611029576040526004356004811015610ff25782526001600160a01b03906024358281168103610ff25760208401526044359182168203610ff257606091604084015260643582840152608435608084015260a3190112610ff2576040516111408161100d565b60a435815260c435602082015260e435604082015260a082015290565b67ffffffffffffffff811161102957601f01601f191660200190565b602081830312610ff25780519067ffffffffffffffff8211610ff2570181601f82011215610ff25780516111ac8161115d565b926111ba6040519485611093565b81845260208284010111610ff2576111d89160208085019101610f94565b90565b803b158015906111ff575b6111f3576111d8906115c8565b61075e6111d891611259565b506001600160a01b03811633146111e6565b9190820391821161121e57565b634e487b7160e01b600052601160045260246000fd5b90816020910312610ff257518015158103610ff25790565b9190820180921161121e57565b6001600160a01b03908116801561132b57600154801561131957600091829160405190602082019283526040820152604081526112958161100d565b51906002600160981b015afa6112a9611a42565b90156112d4576020815191015190602081106112c457501690565b6000199060200360031b1b161690565b60405162461bcd60e51b815260206004820152601a60248201527f64657269766553796d6d65747269634b65793a206661696c65640000000000006044820152606490fd5b604051637145e31160e01b8152600490fd5b60405163d92e233d60e01b8152600490fd5b803b6113465790565b6111d890611259565b6001600160a01b0390811691821561139e5716908115611385576000526005602052604060002090600052602052604060002055565b604051634a1406b160e11b815260006004820152602490fd5b60405163e602df0560e01b815260006004820152602490fd5b608081018051421161157c578151906004918281101561153d5761156c5782518281101561153d5715611552575b82518281101561153d57600314611510575b825191808310156114fb575060206000608082860160a0600180821b03809781845116604098838a8d0151169060608d01519051918b51938b850195600080516020611aa583398151915287528d8601526060850152888401528583015260c082015260c081526114678161103f565b5190209251169701519085518581019161190160f01b83527f000000000000000000000000000000000000000000000000000000000000000060228301526042820152604281526114b78161105b565b5190209060ff8682015116908581519101519187519384528684015286830152606082015282805260015afa156114f15750600051161490565b513d6000823e3d90fd5b602190634e487b7160e01b6000525260246000fd5b606083015161152d5760408301516001600160a01b0316156113f7575b5060405163291ded6160e01b8152fd5b602183634e487b7160e01b6000525260246000fd5b6060830151156113e5575060405163291ded6160e01b8152fd5b50604051635105556960e01b8152fd5b60405163f87d927160e01b8152600490fd5b90600182811c921680156115be575b60208310146115a857565b634e487b7160e01b600052602260045260246000fd5b91607f169161159d565b60009060018060a01b03168152602090600482526040812060405190818382546115f18161158e565b93848452600191886001821691826000146117065750506001146116ca575b505061161e92500382611093565b8051156116c457818091600354906116606040519161163c83611077565b8483526116526040519384928a84019687611a72565b03601f198101835282611093565b51906004600160981b015afa90611675611a42565b911561168d5782828051810103126107785750015190565b60405162461bcd60e51b815260048101849052600f60248201526e191958dc9e5c1d0e8819985a5b1959608a1b6044820152606490fd5b50905090565b87925086528186209086915b8583106116ee57505061161e93508201013880611610565b805483880185015286945088939092019181016116d6565b925093505061161e94915060ff191682840152151560051b8201013880611610565b600260005414611739576002600055565b604051633ee5aeb560e01b8152600490fd5b61175490611780565b600052600260205260ff6040600020541661176e57600090565b604051638baa579f60e01b8152600490fd5b80519060406020820151910151604051916020830193845260408301526060820152606081526117af8161105b565b51902090565b92916001600160a01b038085161561184c57821615611833576117d7846115c8565b9381851061180157906117ff93946103dd6103e2936103e2846117f9886115c8565b94611211565b565b60405163391434e360e21b81526001600160a01b03919091166004820152602481018590526044810191909152606490fd5b60405163ec442f0560e01b815260006004820152602490fd5b604051634b637e8f60e11b815260006004820152602490fd5b9190916040805191602094858401528483528183019067ffffffffffffffff928483108484111761102957828152600354946118a084611077565b6000809681928287526118bb85519788928d84019485611a72565b03956118cf601f1997888101835282611093565b51906003600160981b015afa916118e4611a42565b9215611a0c576001600160a01b0316855260048752842081519094909384116119f857611911855461158e565b601f81116119b5575b508692601f8511600114611955575083949596509261194a575b50508160011b916000199060031b1c1916179055565b015190503880611934565b8493929193169685845280842093905b88821061199d57505083600195969710611984575b505050811b019055565b015160001960f88460031b161c1916905538808061197a565b80600185968294968601518155019501930190611965565b858252878220601f860160051c8101918987106119ee575b601f0160051c01905b8181106119e3575061191a565b8281556001016119d6565b90915081906119cd565b634e487b7160e01b81526041600452602490fd5b815162461bcd60e51b815260048101899052600f60248201526e195b98dc9e5c1d0e8819985a5b1959608a1b6044820152606490fd5b3d15611a6d573d90611a538261115d565b91611a616040519384611093565b82523d6000602084013e565b606090565b91611a96906111d89492600085526020850152608060408501526080840190610fb7565b916060818403910152610fb756fedf30529b599cef851a2b7e4fc96b13d343aea28107d97873f3e0bc909d1e22c6a26469706673582212202d4664bdaeb4550c16c30798b1d59c125e35acfca493293e6855beb33fe48a1e64736f6c63430008180033",
          "opcodes": "PUSH1 0xC0 PUSH1 0x40 SWAP1 DUP1 DUP3 MSTORE CALLVALUE PUSH3 0x27A JUMPI PUSH3 0x1EF2 DUP1 CODESIZE SUB DUP1 SWAP2 PUSH3 0x22 DUP3 DUP6 PUSH3 0x27F JUMP JUMPDEST DUP4 CODECOPY DUP2 ADD DUP3 DUP3 DUP3 SUB SLT PUSH3 0x27A JUMPI DUP2 MLOAD PUSH1 0x1 PUSH1 0x1 PUSH1 0xA0 SHL SUB DUP2 AND SWAP3 SWAP1 DUP4 SWAP1 SUB PUSH3 0x27A JUMPI PUSH1 0x20 DUP2 DUP2 ADD MLOAD PUSH1 0x1 PUSH1 0x1 PUSH1 0x40 SHL SUB SWAP3 DUP4 DUP3 GT PUSH3 0x27A JUMPI ADD DUP4 PUSH1 0x1F DUP3 ADD SLT ISZERO PUSH3 0x27A JUMPI DUP1 MLOAD PUSH3 0x77 DUP2 PUSH3 0x2A3 JUMP JUMPDEST SWAP5 PUSH3 0x86 DUP9 MLOAD SWAP7 DUP8 PUSH3 0x27F JUMP JUMPDEST DUP2 DUP7 MSTORE DUP4 DUP3 DUP5 ADD ADD GT PUSH3 0x27A JUMPI PUSH3 0xA5 SWAP2 DUP4 DUP1 DUP8 ADD SWAP2 ADD PUSH3 0x2BF JUMP JUMPDEST DUP5 MLOAD SWAP4 PUSH1 0x60 DUP6 ADD DUP6 DUP2 LT DUP5 DUP3 GT OR PUSH3 0x264 JUMPI DUP7 MSTORE PUSH1 0x28 DUP6 MSTORE DUP2 DUP6 ADD SWAP5 PUSH32 0x5072697661637920455243323020546F6B656E2077697468205669727475616C DUP7 MSTORE PUSH8 0x2041646472657373 PUSH1 0xC0 SHL DUP8 DUP3 ADD MSTORE DUP7 MLOAD SWAP6 DUP8 DUP8 ADD DUP8 DUP2 LT DUP7 DUP3 GT OR PUSH3 0x264 JUMPI DUP9 MSTORE PUSH1 0x1 DUP8 MSTORE DUP4 DUP8 ADD SWAP2 PUSH1 0x31 PUSH1 0xF8 SHL DUP4 MSTORE PUSH1 0x0 SWAP7 PUSH1 0x1 DUP9 SSTORE PUSH1 0x1 SLOAD ISZERO PUSH3 0x24B JUMPI JUMPDEST POP MLOAD SWAP1 KECCAK256 SWAP6 MLOAD SWAP1 KECCAK256 DUP7 MLOAD SWAP3 DUP4 ADD SWAP6 PUSH32 0x8B73C3C69BB8FE3D512ECC4CF759CC79239F7B179B0FFACAA9A75D522B39400F DUP8 MSTORE DUP8 DUP5 ADD MSTORE PUSH1 0x60 DUP4 ADD MSTORE CHAINID PUSH1 0x80 DUP4 ADD MSTORE ADDRESS PUSH1 0xA0 DUP4 ADD MSTORE PUSH1 0xA0 DUP3 MSTORE PUSH1 0xC0 DUP3 ADD SWAP5 DUP3 DUP7 LT DUP5 DUP8 GT OR PUSH3 0x237 JUMPI DUP6 DUP8 MSTORE DUP3 MLOAD SWAP1 KECCAK256 PUSH1 0x80 MSTORE PUSH1 0xA0 MSTORE PUSH1 0xE0 ADD SWAP1 DUP2 GT DUP4 DUP3 LT OR PUSH3 0x223 JUMPI DUP4 MSTORE DUP2 MSTORE PUSH3 0x1BA SWAP1 PUSH3 0x1B4 SWAP1 PUSH3 0x308 JUMP JUMPDEST PUSH3 0x2E4 JUMP JUMPDEST PUSH1 0x3 SSTORE MLOAD PUSH2 0x1AFA SWAP1 DUP2 PUSH3 0x3F8 DUP3 CODECOPY PUSH1 0x80 MLOAD DUP2 DUP2 DUP2 PUSH2 0x1F2 ADD MSTORE DUP2 DUP2 PUSH2 0x8BF ADD MSTORE DUP2 DUP2 PUSH2 0xA97 ADD MSTORE DUP2 DUP2 PUSH2 0xBBD ADD MSTORE PUSH2 0x1481 ADD MSTORE PUSH1 0xA0 MLOAD DUP2 DUP2 DUP2 PUSH2 0x38C ADD MSTORE DUP2 DUP2 PUSH2 0x515 ADD MSTORE DUP2 DUP2 PUSH2 0x661 ADD MSTORE DUP2 DUP2 PUSH2 0xC07 ADD MSTORE DUP2 DUP2 PUSH2 0xCAF ADD MSTORE DUP2 DUP2 PUSH2 0xDE3 ADD MSTORE PUSH2 0xEBE ADD MSTORE RETURN JUMPDEST PUSH4 0x4E487B71 PUSH1 0xE0 SHL DUP3 MSTORE PUSH1 0x41 PUSH1 0x4 MSTORE PUSH1 0x24 DUP3 REVERT JUMPDEST PUSH4 0x4E487B71 PUSH1 0xE0 SHL DUP6 MSTORE PUSH1 0x41 PUSH1 0x4 MSTORE PUSH1 0x24 DUP6 REVERT JUMPDEST PUSH3 0x1B4 PUSH3 0x25A SWAP2 PUSH3 0x308 JUMP JUMPDEST PUSH1 0x1 SSTORE CODESIZE PUSH3 0x129 JUMP JUMPDEST PUSH4 0x4E487B71 PUSH1 0xE0 SHL PUSH1 0x0 MSTORE PUSH1 0x41 PUSH1 0x4 MSTORE PUSH1 0x24 PUSH1 0x0 REVERT JUMPDEST PUSH1 0x0 DUP1 REVERT JUMPDEST PUSH1 0x1F SWAP1 SWAP2 ADD PUSH1 0x1F NOT AND DUP2 ADD SWAP1 PUSH1 0x1 PUSH1 0x1 PUSH1 0x40 SHL SUB DUP3 GT SWAP1 DUP3 LT OR PUSH3 0x264 JUMPI PUSH1 0x40 MSTORE JUMP JUMPDEST PUSH1 0x1 PUSH1 0x1 PUSH1 0x40 SHL SUB DUP2 GT PUSH3 0x264 JUMPI PUSH1 0x1F ADD PUSH1 0x1F NOT AND PUSH1 0x20 ADD SWAP1 JUMP JUMPDEST PUSH1 0x0 JUMPDEST DUP4 DUP2 LT PUSH3 0x2D3 JUMPI POP POP PUSH1 0x0 SWAP2 ADD MSTORE JUMP JUMPDEST DUP2 DUP2 ADD MLOAD DUP4 DUP3 ADD MSTORE PUSH1 0x20 ADD PUSH3 0x2C2 JUMP JUMPDEST PUSH1 0x20 DUP2 MLOAD SWAP2 ADD MLOAD SWAP1 PUSH1 0x20 DUP2 LT PUSH3 0x2F9 JUMPI POP SWAP1 JUMP JUMPDEST PUSH1 0x0 NOT SWAP1 PUSH1 0x20 SUB PUSH1 0x3 SHL SHL AND SWAP1 JUMP JUMPDEST PUSH1 0x0 DUP1 SWAP2 PUSH1 0x40 MLOAD PUSH3 0x358 PUSH1 0x80 DUP3 PUSH1 0x20 DUP2 ADD SWAP5 PUSH1 0x20 DUP7 MSTORE PUSH1 0x40 DUP1 DUP4 ADD MSTORE PUSH3 0x340 DUP2 MLOAD DUP1 SWAP3 DUP2 PUSH1 0x60 DUP7 ADD MSTORE PUSH1 0x20 DUP7 DUP7 ADD SWAP2 ADD PUSH3 0x2BF JUMP JUMPDEST PUSH1 0x1F DUP1 NOT SWAP2 ADD AND DUP2 ADD SUB PUSH1 0x60 DUP2 ADD DUP5 MSTORE ADD DUP3 PUSH3 0x27F JUMP JUMPDEST MLOAD SWAP1 PUSH20 0x100000000000000000000000000000000000001 GAS STATICCALL RETURNDATASIZE ISZERO PUSH3 0x3EE JUMPI RETURNDATASIZE SWAP1 PUSH3 0x385 DUP3 PUSH3 0x2A3 JUMP JUMPDEST SWAP2 PUSH3 0x395 PUSH1 0x40 MLOAD SWAP4 DUP5 PUSH3 0x27F JUMP JUMPDEST DUP3 MSTORE RETURNDATASIZE PUSH1 0x0 PUSH1 0x20 DUP5 ADD RETURNDATACOPY JUMPDEST ISZERO PUSH3 0x3A9 JUMPI SWAP1 JUMP JUMPDEST PUSH1 0x40 MLOAD PUSH3 0x461BCD PUSH1 0xE5 SHL DUP2 MSTORE PUSH1 0x20 PUSH1 0x4 DUP3 ADD MSTORE PUSH1 0x13 PUSH1 0x24 DUP3 ADD MSTORE PUSH32 0x72616E646F6D42797465733A206661696C656400000000000000000000000000 PUSH1 0x44 DUP3 ADD MSTORE PUSH1 0x64 SWAP1 REVERT JUMPDEST PUSH1 0x60 SWAP1 PUSH3 0x3A0 JUMP INVALID PUSH1 0x80 PUSH1 0x40 DUP2 DUP2 MSTORE PUSH1 0x4 DUP1 CALLDATASIZE LT ISZERO PUSH2 0x15 JUMPI PUSH1 0x0 DUP1 REVERT JUMPDEST PUSH1 0x0 SWAP3 DUP4 CALLDATALOAD PUSH1 0xE0 SHR SWAP1 DUP2 PUSH4 0x36E0708 EQ PUSH2 0xF6C JUMPI POP DUP1 PUSH4 0x6FDDE03 EQ PUSH2 0xE98 JUMPI DUP1 PUSH4 0x95EA7B3 EQ PUSH2 0xE5D JUMPI DUP1 PUSH4 0x18160DDD EQ PUSH2 0xDB5 JUMPI DUP1 PUSH4 0x23B872DD EQ PUSH2 0xCDE JUMPI DUP1 PUSH4 0x2495A599 EQ PUSH2 0xC9A JUMPI DUP1 PUSH4 0x313CE567 EQ PUSH2 0xBE0 JUMPI DUP1 PUSH4 0x3644E515 EQ PUSH2 0xBA5 JUMPI DUP1 PUSH4 0x51F4BAE9 EQ PUSH2 0x9BE JUMPI DUP1 PUSH4 0x70A08231 EQ PUSH2 0x998 JUMPI DUP1 PUSH4 0x7986B37D EQ PUSH2 0x7CB JUMPI DUP1 PUSH4 0x93355F42 EQ PUSH2 0x77B JUMPI DUP1 PUSH4 0x940CF112 EQ PUSH2 0x721 JUMPI DUP1 PUSH4 0x95D89B41 EQ PUSH2 0x63B JUMPI DUP1 PUSH4 0xA9059CBB EQ PUSH2 0x5F9 JUMPI DUP1 PUSH4 0xDD62ED3E EQ PUSH2 0x59A JUMPI DUP1 PUSH4 0xDE0E9A3E EQ PUSH2 0x4A9 JUMPI DUP1 PUSH4 0xE35AC9FB EQ PUSH2 0x439 JUMPI DUP1 PUSH4 0xEA598CB0 EQ PUSH2 0x33F JUMPI PUSH4 0xEB06F992 EQ PUSH2 0xFF JUMPI PUSH1 0x0 DUP1 REVERT JUMPDEST CALLVALUE PUSH2 0x33B JUMPI PUSH2 0x10D CALLDATASIZE PUSH2 0x10B5 JUMP JUMPDEST PUSH2 0x115 PUSH2 0x1728 JUMP JUMPDEST PUSH1 0xA0 DUP2 ADD DUP1 MLOAD SWAP2 PUSH2 0x125 DUP4 PUSH2 0x174B JUMP JUMPDEST POP PUSH1 0x80 DUP2 ADD DUP1 MLOAD TIMESTAMP GT PUSH2 0x32B JUMPI DUP2 MLOAD DUP6 DUP2 LT ISZERO PUSH2 0x2C2 JUMPI PUSH1 0x1 SUB PUSH2 0x31B JUMPI DUP2 MLOAD DUP6 DUP2 LT ISZERO PUSH2 0x2C2 JUMPI ISZERO PUSH2 0x301 JUMPI JUMPDEST DUP2 MLOAD DUP6 DUP2 LT ISZERO PUSH2 0x2C2 JUMPI PUSH1 0x3 EQ PUSH2 0x2D5 JUMPI JUMPDEST DUP2 MLOAD SWAP3 DUP6 DUP5 LT ISZERO PUSH2 0x2C2 JUMPI PUSH1 0x20 SWAP6 DUP7 DUP5 ADD SWAP2 DUP8 DUP11 PUSH1 0x80 DUP12 PUSH1 0x1 DUP1 PUSH1 0xA0 SHL SUB SWAP10 DUP11 SWAP9 DUP10 DUP10 MLOAD AND SWAP1 PUSH1 0x60 DUP5 DUP14 ADD SWAP14 DUP15 MLOAD AND SWAP13 ADD SWAP12 DUP13 MLOAD SWAP2 MLOAD SWAP3 DUP6 MLOAD SWAP5 DUP10 DUP7 ADD SWAP7 PUSH1 0x0 DUP1 MLOAD PUSH1 0x20 PUSH2 0x1AA5 DUP4 CODECOPY DUP2 MLOAD SWAP2 MSTORE DUP9 MSTORE DUP7 ADD MSTORE PUSH1 0x60 DUP6 ADD MSTORE DUP6 DUP5 ADD MSTORE PUSH1 0xA0 DUP4 ADD MSTORE PUSH1 0xC0 DUP3 ADD MSTORE PUSH1 0xC0 DUP2 MSTORE PUSH2 0x1D7 DUP2 PUSH2 0x103F JUMP JUMPDEST MLOAD SWAP1 KECCAK256 DUP13 DUP9 DUP9 MLOAD AND SWAP6 MLOAD SWAP2 DUP2 MLOAD DUP7 DUP2 ADD SWAP2 PUSH2 0x1901 PUSH1 0xF0 SHL DUP4 MSTORE PUSH32 0x0 PUSH1 0x22 DUP4 ADD MSTORE PUSH1 0x42 DUP3 ADD MSTORE PUSH1 0x42 DUP2 MSTORE PUSH2 0x228 DUP2 PUSH2 0x105B JUMP JUMPDEST MLOAD SWAP1 KECCAK256 SWAP2 PUSH1 0xFF DUP3 DUP3 ADD MLOAD AND SWAP2 DUP7 DUP3 MLOAD SWAP3 ADD MLOAD SWAP3 DUP2 MLOAD SWAP5 DUP6 MSTORE DUP8 DUP6 ADD MSTORE DUP4 ADD MSTORE PUSH1 0x60 DUP3 ADD MSTORE DUP3 DUP1 MSTORE PUSH1 0x1 GAS STATICCALL ISZERO PUSH2 0x2B8 JUMPI DUP4 DUP11 MLOAD AND SUB PUSH2 0x2AA JUMPI POP SWAP3 PUSH1 0x2 SWAP6 SWAP5 SWAP3 PUSH2 0x286 DUP4 PUSH2 0x27E PUSH2 0x28E SWAP6 PUSH2 0x293 SWAP9 MLOAD AND PUSH2 0x1259 JUMP JUMPDEST SWAP4 MLOAD AND PUSH2 0x133D JUMP JUMPDEST SWAP1 MLOAD SWAP2 PUSH2 0x17B5 JUMP JUMPDEST PUSH2 0x1780 JUMP JUMPDEST DUP5 MSTORE MSTORE DUP2 KECCAK256 PUSH1 0x1 PUSH1 0xFF NOT DUP3 SLOAD AND OR SWAP1 SSTORE PUSH1 0x1 DUP2 SSTORE DUP1 RETURN JUMPDEST DUP8 MLOAD PUSH4 0x3BFCDEB PUSH1 0xE2 SHL DUP2 MSTORE REVERT JUMPDEST DUP9 MLOAD RETURNDATASIZE DUP12 DUP3 RETURNDATACOPY RETURNDATASIZE SWAP1 REVERT JUMPDEST PUSH4 0x4E487B71 PUSH1 0xE0 SHL DUP9 MSTORE PUSH1 0x21 DUP7 MSTORE PUSH1 0x24 DUP9 REVERT JUMPDEST PUSH1 0x60 DUP3 ADD MLOAD PUSH2 0x2F1 JUMPI DUP2 DUP7 ADD MLOAD PUSH1 0x1 PUSH1 0x1 PUSH1 0xA0 SHL SUB AND ISZERO PUSH2 0x165 JUMPI JUMPDEST DUP6 MLOAD PUSH4 0x291DED61 PUSH1 0xE0 SHL DUP2 MSTORE DUP6 SWAP1 REVERT JUMPDEST PUSH1 0x60 DUP3 ADD MLOAD ISZERO PUSH2 0x153 JUMPI DUP6 MLOAD PUSH4 0x291DED61 PUSH1 0xE0 SHL DUP2 MSTORE DUP6 SWAP1 REVERT JUMPDEST DUP6 MLOAD PUSH4 0x51055569 PUSH1 0xE0 SHL DUP2 MSTORE DUP6 SWAP1 REVERT JUMPDEST DUP6 MLOAD PUSH4 0xF87D9271 PUSH1 0xE0 SHL DUP2 MSTORE DUP6 SWAP1 REVERT JUMPDEST DUP3 DUP1 REVERT JUMPDEST POP CALLVALUE PUSH2 0x33B JUMPI PUSH1 0x20 CALLDATASIZE PUSH1 0x3 NOT ADD SLT PUSH2 0x33B JUMPI DUP1 CALLDATALOAD SWAP1 PUSH2 0x35C PUSH2 0x1728 JUMP JUMPDEST DUP2 ISZERO PUSH2 0x42B JUMPI DUP3 MLOAD PUSH4 0x23B872DD PUSH1 0xE0 SHL DUP2 MSTORE CALLER SWAP2 DUP2 ADD SWAP2 SWAP1 SWAP2 MSTORE ADDRESS PUSH1 0x24 DUP3 ADD MSTORE PUSH1 0x44 DUP2 ADD DUP3 SWAP1 MSTORE PUSH1 0x20 DUP2 PUSH1 0x64 DUP2 DUP8 PUSH32 0x0 PUSH1 0x1 PUSH1 0x1 PUSH1 0xA0 SHL SUB AND GAS CALL DUP1 ISZERO PUSH2 0x41E JUMPI PUSH2 0x3E8 SWAP4 POP PUSH2 0x3EF JUMPI JUMPDEST POP PUSH2 0x3E2 PUSH2 0x3D3 CALLER PUSH2 0x1259 JUMP JUMPDEST SWAP2 PUSH2 0x3DD DUP4 PUSH2 0x15C8 JUMP JUMPDEST PUSH2 0x124C JUMP JUMPDEST SWAP1 PUSH2 0x1865 JUMP JUMPDEST PUSH1 0x1 DUP2 SSTORE DUP1 RETURN JUMPDEST PUSH2 0x410 SWAP1 PUSH1 0x20 RETURNDATASIZE PUSH1 0x20 GT PUSH2 0x417 JUMPI JUMPDEST PUSH2 0x408 DUP2 DUP4 PUSH2 0x1093 JUMP JUMPDEST DUP2 ADD SWAP1 PUSH2 0x1234 JUMP JUMPDEST POP CODESIZE PUSH2 0x3C6 JUMP JUMPDEST POP RETURNDATASIZE PUSH2 0x3FE JUMP JUMPDEST POP POP POP MLOAD SWAP1 RETURNDATASIZE SWAP1 DUP3 RETURNDATACOPY RETURNDATASIZE SWAP1 REVERT JUMPDEST DUP3 MLOAD PUSH4 0x1F2A2005 PUSH1 0xE0 SHL DUP2 MSTORE REVERT JUMPDEST POP CALLVALUE PUSH2 0x33B JUMPI PUSH2 0x448 CALLDATASIZE PUSH2 0x10B5 JUMP JUMPDEST SWAP1 PUSH2 0x452 DUP3 PUSH2 0x13B7 JUMP JUMPDEST ISZERO PUSH2 0x49B JUMPI POP PUSH1 0x20 SWAP3 DUP3 SWAP2 PUSH1 0x1 DUP1 PUSH1 0xA0 SHL SUB DUP1 PUSH2 0x481 DUP2 DUP7 PUSH2 0x478 DUP3 DUP12 DUP9 ADD MLOAD AND PUSH2 0x1259 JUMP JUMPDEST SWAP6 ADD MLOAD AND PUSH2 0x133D JUMP JUMPDEST SWAP3 AND DUP4 MSTORE PUSH1 0x5 DUP7 MSTORE DUP4 DUP4 KECCAK256 SWAP2 AND DUP3 MSTORE DUP5 MSTORE KECCAK256 SLOAD SWAP1 MLOAD SWAP1 DUP2 MSTORE RETURN JUMPDEST DUP3 MLOAD PUSH4 0x3BFCDEB PUSH1 0xE2 SHL DUP2 MSTORE REVERT JUMPDEST POP SWAP1 CALLVALUE PUSH2 0x33B JUMPI PUSH1 0x20 CALLDATASIZE PUSH1 0x3 NOT ADD SLT PUSH2 0x33B JUMPI DUP2 CALLDATALOAD PUSH2 0x4C6 PUSH2 0x1728 JUMP JUMPDEST DUP1 ISZERO PUSH2 0x58C JUMPI PUSH2 0x4D5 CALLER PUSH2 0x1259 JUMP JUMPDEST PUSH2 0x4DE DUP2 PUSH2 0x15C8 JUMP JUMPDEST DUP3 DUP2 LT PUSH2 0x57C JUMPI SWAP1 PUSH2 0x3E2 DUP4 PUSH2 0x4F3 SWAP4 PUSH2 0x1211 JUMP JUMPDEST DUP2 MLOAD PUSH4 0xA9059CBB PUSH1 0xE0 SHL DUP2 MSTORE CALLER SWAP4 DUP2 ADD SWAP4 SWAP1 SWAP4 MSTORE PUSH1 0x24 DUP4 ADD MSTORE PUSH1 0x20 DUP3 PUSH1 0x44 DUP2 DUP7 PUSH32 0x0 PUSH1 0x1 PUSH1 0x1 PUSH1 0xA0 SHL SUB AND GAS CALL SWAP1 DUP2 ISZERO PUSH2 0x573 JUMPI POP PUSH2 0x554 JUMPI JUMPDEST POP PUSH1 0x1 DUP2 SSTORE DUP1 RETURN JUMPDEST PUSH2 0x56C SWAP1 PUSH1 0x20 RETURNDATASIZE PUSH1 0x20 GT PUSH2 0x417 JUMPI PUSH2 0x408 DUP2 DUP4 PUSH2 0x1093 JUMP JUMPDEST POP CODESIZE PUSH2 0x54C JUMP JUMPDEST MLOAD RETURNDATASIZE DUP5 DUP3 RETURNDATACOPY RETURNDATASIZE SWAP1 REVERT JUMPDEST POP POP POP MLOAD PUSH4 0x1E9ACF17 PUSH1 0xE3 SHL DUP2 MSTORE REVERT JUMPDEST POP MLOAD PUSH4 0x1F2A2005 PUSH1 0xE0 SHL DUP2 MSTORE REVERT JUMPDEST POP POP CALLVALUE PUSH2 0x5F5 JUMPI DUP1 PUSH1 0x3 NOT CALLDATASIZE ADD SLT PUSH2 0x5F5 JUMPI DUP1 PUSH1 0x20 SWAP3 PUSH2 0x5B8 PUSH2 0xFDC JUMP JUMPDEST PUSH2 0x5D2 PUSH2 0x5CC PUSH2 0x5C6 PUSH2 0xFF7 JUMP JUMPDEST SWAP3 PUSH2 0x133D JUMP JUMPDEST SWAP2 PUSH2 0x133D JUMP JUMPDEST PUSH1 0x1 PUSH1 0x1 PUSH1 0xA0 SHL SUB SWAP2 DUP3 AND DUP4 MSTORE PUSH1 0x5 DUP7 MSTORE DUP4 DUP4 KECCAK256 SWAP2 AND DUP3 MSTORE DUP5 MSTORE KECCAK256 SLOAD SWAP1 MLOAD SWAP1 DUP2 MSTORE RETURN JUMPDEST POP DUP1 REVERT JUMPDEST POP POP CALLVALUE PUSH2 0x5F5 JUMPI DUP1 PUSH1 0x3 NOT CALLDATASIZE ADD SLT PUSH2 0x5F5 JUMPI PUSH1 0x20 SWAP1 PUSH2 0x634 PUSH2 0x619 PUSH2 0xFDC JUMP JUMPDEST PUSH2 0x622 CALLER PUSH2 0x1259 JUMP JUMPDEST PUSH2 0x62E PUSH1 0x24 CALLDATALOAD SWAP3 PUSH2 0x133D JUMP JUMPDEST SWAP1 PUSH2 0x17B5 JUMP JUMPDEST MLOAD PUSH1 0x1 DUP2 MSTORE RETURN JUMPDEST POP SWAP1 CALLVALUE PUSH2 0x33B JUMPI DUP3 PUSH1 0x3 NOT CALLDATASIZE ADD SLT PUSH2 0x33B JUMPI DUP1 MLOAD PUSH4 0x95D89B41 PUSH1 0xE0 SHL DUP2 MSTORE SWAP2 DUP4 SWAP1 DUP4 SWAP1 DUP2 PUSH32 0x0 PUSH1 0x1 PUSH1 0x1 PUSH1 0xA0 SHL SUB AND GAS STATICCALL SWAP2 DUP3 ISZERO PUSH2 0x717 JUMPI DUP4 PUSH2 0x6EE SWAP5 SWAP4 PUSH2 0x6F2 JUMPI JUMPDEST POP POP PUSH2 0x6DC PUSH1 0x28 DUP3 MLOAD DUP5 PUSH2 0x6BB DUP3 SWAP7 MLOAD DUP1 SWAP3 PUSH1 0x20 DUP1 DUP7 ADD SWAP2 ADD PUSH2 0xF94 JUMP JUMPDEST DUP2 ADD PUSH8 0x2E50726976616379 PUSH1 0xC0 SHL PUSH1 0x20 DUP3 ADD MSTORE SUB PUSH1 0x8 DUP2 ADD DUP6 MSTORE ADD DUP4 PUSH2 0x1093 JUMP JUMPDEST MLOAD SWAP2 DUP3 SWAP2 PUSH1 0x20 DUP4 MSTORE PUSH1 0x20 DUP4 ADD SWAP1 PUSH2 0xFB7 JUMP JUMPDEST SUB SWAP1 RETURN JUMPDEST PUSH2 0x70F SWAP3 SWAP4 POP RETURNDATASIZE DUP1 SWAP2 DUP4 RETURNDATACOPY PUSH2 0x707 DUP2 DUP4 PUSH2 0x1093 JUMP JUMPDEST DUP2 ADD SWAP1 PUSH2 0x1179 JUMP JUMPDEST SWAP1 CODESIZE DUP1 PUSH2 0x69D JUMP JUMPDEST DUP2 MLOAD RETURNDATASIZE DUP6 DUP3 RETURNDATACOPY RETURNDATASIZE SWAP1 REVERT JUMPDEST POP SWAP2 CALLVALUE PUSH2 0x778 JUMPI POP PUSH2 0x732 CALLDATASIZE PUSH2 0x10B5 JUMP JUMPDEST SWAP2 PUSH2 0x73C DUP4 PUSH2 0x13B7 JUMP JUMPDEST ISZERO PUSH2 0x76A JUMPI POP PUSH1 0x20 SWAP2 DUP3 ADD MLOAD PUSH2 0x763 SWAP1 PUSH2 0x75E SWAP1 PUSH1 0x1 PUSH1 0x1 PUSH1 0xA0 SHL SUB AND PUSH2 0x1259 JUMP JUMPDEST PUSH2 0x15C8 JUMP JUMPDEST SWAP1 MLOAD SWAP1 DUP2 MSTORE RETURN JUMPDEST SWAP1 MLOAD PUSH4 0x3BFCDEB PUSH1 0xE2 SHL DUP2 MSTORE REVERT JUMPDEST DUP1 REVERT JUMPDEST POP CALLVALUE PUSH2 0x33B JUMPI PUSH1 0x60 CALLDATASIZE PUSH1 0x3 NOT ADD SLT PUSH2 0x33B JUMPI DUP2 PUSH1 0x20 SWAP4 PUSH2 0x7B9 PUSH1 0xFF SWAP4 DUP4 MLOAD SWAP1 PUSH2 0x7A3 DUP3 PUSH2 0x100D JUMP JUMPDEST CALLDATALOAD DUP2 MSTORE PUSH1 0x24 CALLDATALOAD DUP8 DUP3 ADD MSTORE PUSH1 0x44 CALLDATALOAD DUP5 DUP3 ADD MSTORE PUSH2 0x1780 JUMP JUMPDEST DUP2 MSTORE PUSH1 0x2 DUP6 MSTORE KECCAK256 SLOAD AND SWAP1 MLOAD SWAP1 ISZERO ISZERO DUP2 MSTORE RETURN JUMPDEST POP CALLVALUE PUSH2 0x33B JUMPI PUSH2 0x7DA CALLDATASIZE PUSH2 0x10B5 JUMP JUMPDEST PUSH2 0x7E2 PUSH2 0x1728 JUMP JUMPDEST PUSH1 0xA0 DUP2 ADD DUP1 MLOAD SWAP2 PUSH2 0x7F2 DUP4 PUSH2 0x174B JUMP JUMPDEST POP PUSH1 0x80 DUP2 ADD DUP1 MLOAD TIMESTAMP GT PUSH2 0x32B JUMPI DUP2 MLOAD DUP6 DUP2 LT ISZERO PUSH2 0x2C2 JUMPI PUSH1 0x2 SUB PUSH2 0x31B JUMPI DUP2 MLOAD DUP6 DUP2 LT ISZERO PUSH2 0x2C2 JUMPI ISZERO PUSH2 0x97E JUMPI JUMPDEST DUP2 MLOAD DUP6 DUP2 LT ISZERO PUSH2 0x2C2 JUMPI PUSH1 0x3 EQ PUSH2 0x953 JUMPI JUMPDEST DUP2 MLOAD SWAP3 DUP6 DUP5 LT ISZERO PUSH2 0x2C2 JUMPI PUSH1 0x20 SWAP6 DUP7 DUP5 ADD SWAP2 DUP8 DUP11 PUSH1 0x80 DUP12 PUSH1 0x1 DUP1 PUSH1 0xA0 SHL SUB SWAP10 DUP11 SWAP9 DUP10 DUP10 MLOAD AND SWAP1 PUSH1 0x60 DUP5 DUP14 ADD SWAP14 DUP15 MLOAD AND SWAP13 ADD SWAP12 DUP13 MLOAD SWAP2 MLOAD SWAP3 DUP6 MLOAD SWAP5 DUP10 DUP7 ADD SWAP7 PUSH1 0x0 DUP1 MLOAD PUSH1 0x20 PUSH2 0x1AA5 DUP4 CODECOPY DUP2 MLOAD SWAP2 MSTORE DUP9 MSTORE DUP7 ADD MSTORE PUSH1 0x60 DUP6 ADD MSTORE DUP6 DUP5 ADD MSTORE PUSH1 0xA0 DUP4 ADD MSTORE PUSH1 0xC0 DUP3 ADD MSTORE PUSH1 0xC0 DUP2 MSTORE PUSH2 0x8A4 DUP2 PUSH2 0x103F JUMP JUMPDEST MLOAD SWAP1 KECCAK256 DUP13 DUP9 DUP9 MLOAD AND SWAP6 MLOAD SWAP2 DUP2 MLOAD DUP7 DUP2 ADD SWAP2 PUSH2 0x1901 PUSH1 0xF0 SHL DUP4 MSTORE PUSH32 0x0 PUSH1 0x22 DUP4 ADD MSTORE PUSH1 0x42 DUP3 ADD MSTORE PUSH1 0x42 DUP2 MSTORE PUSH2 0x8F5 DUP2 PUSH2 0x105B JUMP JUMPDEST MLOAD SWAP1 KECCAK256 SWAP2 PUSH1 0xFF DUP3 DUP3 ADD MLOAD AND SWAP2 DUP7 DUP3 MLOAD SWAP3 ADD MLOAD SWAP3 DUP2 MLOAD SWAP5 DUP6 MSTORE DUP8 DUP6 ADD MSTORE DUP4 ADD MSTORE PUSH1 0x60 DUP3 ADD MSTORE DUP3 DUP1 MSTORE PUSH1 0x1 GAS STATICCALL ISZERO PUSH2 0x2B8 JUMPI DUP4 DUP11 MLOAD AND SUB PUSH2 0x2AA JUMPI POP SWAP3 PUSH1 0x2 SWAP6 SWAP5 SWAP3 PUSH2 0x94B DUP4 PUSH2 0x27E PUSH2 0x28E SWAP6 PUSH2 0x293 SWAP9 MLOAD AND PUSH2 0x1259 JUMP JUMPDEST SWAP1 MLOAD SWAP2 PUSH2 0x134F JUMP JUMPDEST PUSH1 0x60 DUP3 ADD MLOAD PUSH2 0x2F1 JUMPI DUP2 DUP7 ADD MLOAD PUSH1 0x1 PUSH1 0x1 PUSH1 0xA0 SHL SUB AND ISZERO PUSH2 0x832 JUMPI DUP6 MLOAD PUSH4 0x291DED61 PUSH1 0xE0 SHL DUP2 MSTORE DUP6 SWAP1 REVERT JUMPDEST PUSH1 0x60 DUP3 ADD MLOAD ISZERO PUSH2 0x820 JUMPI DUP6 MLOAD PUSH4 0x291DED61 PUSH1 0xE0 SHL DUP2 MSTORE DUP6 SWAP1 REVERT JUMPDEST POP POP CALLVALUE PUSH2 0x5F5 JUMPI PUSH1 0x20 CALLDATASIZE PUSH1 0x3 NOT ADD SLT PUSH2 0x5F5 JUMPI PUSH1 0x20 SWAP1 PUSH2 0x763 PUSH2 0x9B9 PUSH2 0xFDC JUMP JUMPDEST PUSH2 0x11DB JUMP JUMPDEST POP CALLVALUE PUSH2 0x33B JUMPI PUSH2 0x9CD CALLDATASIZE PUSH2 0x10B5 JUMP JUMPDEST PUSH1 0x80 DUP2 ADD SWAP2 DUP3 MLOAD TIMESTAMP GT PUSH2 0xB97 JUMPI DUP2 MLOAD DUP2 DUP2 LT ISZERO PUSH2 0xB34 JUMPI PUSH1 0x3 SUB PUSH2 0xB89 JUMPI DUP2 MLOAD DUP2 DUP2 LT ISZERO PUSH2 0xB34 JUMPI ISZERO PUSH2 0xB71 JUMPI JUMPDEST DUP2 MLOAD DUP2 DUP2 LT ISZERO PUSH2 0xB34 JUMPI PUSH1 0x3 EQ PUSH2 0xB47 JUMPI JUMPDEST DUP2 MLOAD SWAP2 DUP2 DUP4 LT ISZERO PUSH2 0xB34 JUMPI PUSH1 0x20 SWAP6 DUP7 DUP2 PUSH1 0x80 DUP9 DUP4 DUP7 ADD SWAP8 PUSH1 0x1 DUP1 PUSH1 0xA0 SHL SUB SWAP10 DUP11 DUP11 MLOAD AND SWAP1 DUP12 DUP5 DUP11 ADD MLOAD AND PUSH1 0x60 DUP11 ADD MLOAD SWAP2 MLOAD SWAP3 DUP6 MLOAD SWAP5 DUP10 DUP7 ADD SWAP7 PUSH1 0x0 DUP1 MLOAD PUSH1 0x20 PUSH2 0x1AA5 DUP4 CODECOPY DUP2 MLOAD SWAP2 MSTORE DUP9 MSTORE DUP7 ADD MSTORE PUSH1 0x60 DUP6 ADD MSTORE DUP6 DUP5 ADD MSTORE PUSH1 0xA0 DUP4 ADD MSTORE PUSH1 0xC0 DUP3 ADD MSTORE PUSH1 0xC0 DUP2 MSTORE PUSH2 0xA7A DUP2 PUSH2 0x103F JUMP JUMPDEST MLOAD SWAP1 KECCAK256 PUSH1 0xA0 DUP10 DUP10 MLOAD AND SWAP7 ADD MLOAD SWAP1 DUP11 MLOAD DUP6 DUP2 ADD SWAP2 PUSH2 0x1901 PUSH1 0xF0 SHL DUP4 MSTORE PUSH32 0x0 PUSH1 0x22 DUP4 ADD MSTORE PUSH1 0x42 DUP3 ADD MSTORE PUSH1 0x42 DUP2 MSTORE PUSH2 0xACD DUP2 PUSH2 0x105B JUMP JUMPDEST MLOAD SWAP1 KECCAK256 SWAP1 PUSH1 0xFF DUP12 DUP3 ADD MLOAD AND SWAP1 DUP6 DUP2 MLOAD SWAP2 ADD MLOAD SWAP2 DUP13 MLOAD SWAP4 DUP5 MSTORE DUP7 DUP5 ADD MSTORE DUP12 DUP4 ADD MSTORE PUSH1 0x60 DUP3 ADD MSTORE DUP3 DUP1 MSTORE PUSH1 0x1 GAS STATICCALL ISZERO PUSH2 0xB29 JUMPI MLOAD DUP5 AND SUB PUSH2 0xB1B JUMPI POP DUP2 PUSH2 0xB13 SWAP2 MLOAD AND PUSH2 0x1259 JUMP JUMPDEST SWAP2 MLOAD SWAP2 AND DUP2 MSTORE RETURN JUMPDEST DUP4 MLOAD PUSH4 0x3BFCDEB PUSH1 0xE2 SHL DUP2 MSTORE REVERT JUMPDEST DUP6 MLOAD SWAP1 RETURNDATASIZE SWAP1 DUP3 RETURNDATACOPY RETURNDATASIZE SWAP1 REVERT JUMPDEST PUSH4 0x4E487B71 PUSH1 0xE0 SHL DUP7 MSTORE PUSH1 0x21 DUP3 MSTORE PUSH1 0x24 DUP7 REVERT JUMPDEST PUSH1 0x60 DUP3 ADD MLOAD PUSH2 0xB63 JUMPI DUP2 DUP5 ADD MLOAD PUSH1 0x1 PUSH1 0x1 PUSH1 0xA0 SHL SUB AND ISZERO PUSH2 0xA0D JUMPI JUMPDEST DUP4 MLOAD PUSH4 0x291DED61 PUSH1 0xE0 SHL DUP2 MSTORE REVERT JUMPDEST PUSH1 0x60 DUP3 ADD MLOAD ISZERO PUSH2 0x9FB JUMPI DUP4 MLOAD PUSH4 0x291DED61 PUSH1 0xE0 SHL DUP2 MSTORE REVERT JUMPDEST DUP4 MLOAD PUSH4 0x51055569 PUSH1 0xE0 SHL DUP2 MSTORE REVERT JUMPDEST DUP4 MLOAD PUSH4 0xF87D9271 PUSH1 0xE0 SHL DUP2 MSTORE REVERT JUMPDEST POP POP CALLVALUE PUSH2 0x5F5 JUMPI DUP2 PUSH1 0x3 NOT CALLDATASIZE ADD SLT PUSH2 0x5F5 JUMPI PUSH1 0x20 SWAP1 MLOAD PUSH32 0x0 DUP2 MSTORE RETURN JUMPDEST POP SWAP2 CALLVALUE PUSH2 0x778 JUMPI DUP1 PUSH1 0x3 NOT CALLDATASIZE ADD SLT PUSH2 0x778 JUMPI DUP2 MLOAD PUSH4 0x313CE567 PUSH1 0xE0 SHL DUP2 MSTORE SWAP3 PUSH1 0x20 SWAP1 DUP5 SWAP1 DUP2 PUSH32 0x0 PUSH1 0x1 PUSH1 0x1 PUSH1 0xA0 SHL SUB AND GAS STATICCALL SWAP3 DUP4 ISZERO PUSH2 0xC8E JUMPI DUP2 SWAP4 PUSH2 0xC4C JUMPI JUMPDEST PUSH1 0x20 DUP5 PUSH1 0xFF DUP6 MLOAD SWAP2 AND DUP2 MSTORE RETURN JUMPDEST SWAP1 SWAP3 POP PUSH1 0x20 DUP2 RETURNDATASIZE PUSH1 0x20 GT PUSH2 0xC86 JUMPI JUMPDEST DUP2 PUSH2 0xC68 PUSH1 0x20 SWAP4 DUP4 PUSH2 0x1093 JUMP JUMPDEST DUP2 ADD SUB SLT PUSH2 0x33B JUMPI MLOAD SWAP2 PUSH1 0xFF DUP4 AND DUP4 SUB PUSH2 0x778 JUMPI POP PUSH1 0xFF PUSH1 0x20 PUSH2 0xC3F JUMP JUMPDEST RETURNDATASIZE SWAP2 POP PUSH2 0xC5B JUMP JUMPDEST POP SWAP1 MLOAD SWAP1 RETURNDATASIZE SWAP1 DUP3 RETURNDATACOPY RETURNDATASIZE SWAP1 REVERT JUMPDEST POP POP CALLVALUE PUSH2 0x5F5 JUMPI DUP2 PUSH1 0x3 NOT CALLDATASIZE ADD SLT PUSH2 0x5F5 JUMPI MLOAD PUSH32 0x0 PUSH1 0x1 PUSH1 0x1 PUSH1 0xA0 SHL SUB AND DUP2 MSTORE PUSH1 0x20 SWAP1 RETURN JUMPDEST POP CALLVALUE PUSH2 0x33B JUMPI PUSH1 0x60 CALLDATASIZE PUSH1 0x3 NOT ADD SLT PUSH2 0x33B JUMPI PUSH2 0xCF8 PUSH2 0xFDC JUMP JUMPDEST SWAP3 PUSH2 0xD01 PUSH2 0xFF7 JUMP JUMPDEST PUSH1 0x44 CALLDATALOAD SWAP3 DUP5 PUSH2 0xD21 PUSH2 0xD1B PUSH2 0xD15 CALLER PUSH2 0x1259 JUMP JUMPDEST SWAP9 PUSH2 0x133D JUMP JUMPDEST SWAP4 PUSH2 0x133D JUMP JUMPDEST PUSH1 0x1 PUSH1 0x1 PUSH1 0xA0 SHL SUB DUP5 DUP2 AND DUP7 MSTORE PUSH1 0x5 PUSH1 0x20 SWAP1 DUP2 MSTORE DUP4 DUP8 KECCAK256 SWAP2 DUP11 AND DUP8 MSTORE MSTORE SWAP4 KECCAK256 SLOAD SWAP1 PUSH1 0x0 NOT DUP3 LT PUSH2 0xD5A JUMPI JUMPDEST PUSH1 0x20 DUP7 PUSH2 0x634 DUP8 DUP8 DUP8 PUSH2 0x17B5 JUMP JUMPDEST DUP5 DUP3 LT PUSH2 0xD81 JUMPI POP SWAP1 PUSH2 0xD78 PUSH1 0x20 SWAP7 DUP6 PUSH2 0x634 SWAP7 SWAP6 SWAP5 SUB SWAP1 DUP4 PUSH2 0x134F JUMP JUMPDEST SWAP1 SWAP2 SWAP3 CODESIZE PUSH2 0xD4C JUMP JUMPDEST DUP6 MLOAD PUSH4 0x7DC7A0D9 PUSH1 0xE1 SHL DUP2 MSTORE PUSH1 0x1 PUSH1 0x1 PUSH1 0xA0 SHL SUB DUP9 AND SWAP2 DUP2 ADD SWAP2 DUP3 MSTORE PUSH1 0x20 DUP3 ADD SWAP3 SWAP1 SWAP3 MSTORE PUSH1 0x40 DUP2 ADD DUP6 SWAP1 MSTORE DUP2 SWAP1 PUSH1 0x60 ADD SUB SWAP1 REVERT JUMPDEST POP SWAP1 CALLVALUE PUSH2 0x33B JUMPI DUP3 PUSH1 0x3 NOT CALLDATASIZE ADD SLT PUSH2 0x33B JUMPI DUP1 MLOAD PUSH4 0x70A08231 PUSH1 0xE0 SHL DUP2 MSTORE ADDRESS SWAP3 DUP2 ADD SWAP3 SWAP1 SWAP3 MSTORE PUSH1 0x20 DUP3 PUSH1 0x24 DUP2 PUSH32 0x0 PUSH1 0x1 PUSH1 0x1 PUSH1 0xA0 SHL SUB AND GAS STATICCALL SWAP2 DUP3 ISZERO PUSH2 0x717 JUMPI DUP4 SWAP3 PUSH2 0xE25 JUMPI JUMPDEST PUSH1 0x20 DUP4 DUP4 MLOAD SWAP1 DUP2 MSTORE RETURN JUMPDEST SWAP1 SWAP2 POP PUSH1 0x20 DUP2 RETURNDATASIZE PUSH1 0x20 GT PUSH2 0xE55 JUMPI JUMPDEST DUP2 PUSH2 0xE41 PUSH1 0x20 SWAP4 DUP4 PUSH2 0x1093 JUMP JUMPDEST DUP2 ADD SUB SLT PUSH2 0x33B JUMPI PUSH1 0x20 SWAP3 POP MLOAD SWAP1 CODESIZE PUSH2 0xE1B JUMP JUMPDEST RETURNDATASIZE SWAP2 POP PUSH2 0xE34 JUMP JUMPDEST POP POP CALLVALUE PUSH2 0x5F5 JUMPI DUP1 PUSH1 0x3 NOT CALLDATASIZE ADD SLT PUSH2 0x5F5 JUMPI PUSH1 0x20 SWAP1 PUSH2 0x634 PUSH2 0xE7D PUSH2 0xFDC JUMP JUMPDEST PUSH2 0xE86 CALLER PUSH2 0x1259 JUMP JUMPDEST PUSH2 0xE92 PUSH1 0x24 CALLDATALOAD SWAP3 PUSH2 0x133D JUMP JUMPDEST SWAP1 PUSH2 0x134F JUMP JUMPDEST POP SWAP1 CALLVALUE PUSH2 0x33B JUMPI DUP3 PUSH1 0x3 NOT CALLDATASIZE ADD SLT PUSH2 0x33B JUMPI DUP1 MLOAD PUSH4 0x6FDDE03 PUSH1 0xE0 SHL DUP2 MSTORE SWAP2 DUP4 SWAP1 DUP4 SWAP1 DUP2 PUSH32 0x0 PUSH1 0x1 PUSH1 0x1 PUSH1 0xA0 SHL SUB AND GAS STATICCALL SWAP2 DUP3 ISZERO PUSH2 0x717 JUMPI DUP4 PUSH2 0x6EE SWAP5 SWAP4 PUSH2 0xF4F JUMPI JUMPDEST POP POP PUSH2 0x6DC PUSH1 0x34 DUP3 MLOAD DUP1 SWAP5 PUSH8 0x283934BB30B1BC9 PUSH1 0xC5 SHL PUSH1 0x20 DUP4 ADD MSTORE PUSH2 0xF2A DUP2 MLOAD DUP1 SWAP3 PUSH1 0x20 PUSH1 0x28 DUP7 ADD SWAP2 ADD PUSH2 0xF94 JUMP JUMPDEST DUP2 ADD PUSH12 0x81DDA5D1A08155CD95C9259 PUSH1 0xA2 SHL PUSH1 0x28 DUP3 ADD MSTORE SUB PUSH1 0x14 DUP2 ADD DUP6 MSTORE ADD DUP4 PUSH2 0x1093 JUMP JUMPDEST PUSH2 0xF64 SWAP3 SWAP4 POP RETURNDATASIZE DUP1 SWAP2 DUP4 RETURNDATACOPY PUSH2 0x707 DUP2 DUP4 PUSH2 0x1093 JUMP JUMPDEST SWAP1 CODESIZE DUP1 PUSH2 0xEFA JUMP JUMPDEST DUP5 SWAP1 CALLVALUE PUSH2 0x5F5 JUMPI DUP2 PUSH1 0x3 NOT CALLDATASIZE ADD SLT PUSH2 0x5F5 JUMPI DUP1 PUSH1 0x0 DUP1 MLOAD PUSH1 0x20 PUSH2 0x1AA5 DUP4 CODECOPY DUP2 MLOAD SWAP2 MSTORE PUSH1 0x20 SWAP3 MSTORE RETURN JUMPDEST PUSH1 0x0 JUMPDEST DUP4 DUP2 LT PUSH2 0xFA7 JUMPI POP POP PUSH1 0x0 SWAP2 ADD MSTORE JUMP JUMPDEST DUP2 DUP2 ADD MLOAD DUP4 DUP3 ADD MSTORE PUSH1 0x20 ADD PUSH2 0xF97 JUMP JUMPDEST SWAP1 PUSH1 0x20 SWAP2 PUSH2 0xFD0 DUP2 MLOAD DUP1 SWAP3 DUP2 DUP6 MSTORE DUP6 DUP1 DUP7 ADD SWAP2 ADD PUSH2 0xF94 JUMP JUMPDEST PUSH1 0x1F ADD PUSH1 0x1F NOT AND ADD ADD SWAP1 JUMP JUMPDEST PUSH1 0x4 CALLDATALOAD SWAP1 PUSH1 0x1 PUSH1 0x1 PUSH1 0xA0 SHL SUB DUP3 AND DUP3 SUB PUSH2 0xFF2 JUMPI JUMP JUMPDEST PUSH1 0x0 DUP1 REVERT JUMPDEST PUSH1 0x24 CALLDATALOAD SWAP1 PUSH1 0x1 PUSH1 0x1 PUSH1 0xA0 SHL SUB DUP3 AND DUP3 SUB PUSH2 0xFF2 JUMPI JUMP JUMPDEST PUSH1 0x60 DUP2 ADD SWAP1 DUP2 LT PUSH8 0xFFFFFFFFFFFFFFFF DUP3 GT OR PUSH2 0x1029 JUMPI PUSH1 0x40 MSTORE JUMP JUMPDEST PUSH4 0x4E487B71 PUSH1 0xE0 SHL PUSH1 0x0 MSTORE PUSH1 0x41 PUSH1 0x4 MSTORE PUSH1 0x24 PUSH1 0x0 REVERT JUMPDEST PUSH1 0xE0 DUP2 ADD SWAP1 DUP2 LT PUSH8 0xFFFFFFFFFFFFFFFF DUP3 GT OR PUSH2 0x1029 JUMPI PUSH1 0x40 MSTORE JUMP JUMPDEST PUSH1 0x80 DUP2 ADD SWAP1 DUP2 LT PUSH8 0xFFFFFFFFFFFFFFFF DUP3 GT OR PUSH2 0x1029 JUMPI PUSH1 0x40 MSTORE JUMP JUMPDEST PUSH1 0x20 DUP2 ADD SWAP1 DUP2 LT PUSH8 0xFFFFFFFFFFFFFFFF DUP3 GT OR PUSH2 0x1029 JUMPI PUSH1 0x40 MSTORE JUMP JUMPDEST SWAP1 PUSH1 0x1F DUP1 NOT SWAP2 ADD AND DUP2 ADD SWAP1 DUP2 LT PUSH8 0xFFFFFFFFFFFFFFFF DUP3 GT OR PUSH2 0x1029 JUMPI PUSH1 0x40 MSTORE JUMP JUMPDEST PUSH2 0x100 PUSH1 0x3 NOT DUP3 ADD SLT PUSH2 0xFF2 JUMPI PUSH1 0x40 MLOAD SWAP1 PUSH1 0xC0 DUP3 ADD DUP3 DUP2 LT PUSH8 0xFFFFFFFFFFFFFFFF DUP3 GT OR PUSH2 0x1029 JUMPI PUSH1 0x40 MSTORE PUSH1 0x4 CALLDATALOAD PUSH1 0x4 DUP2 LT ISZERO PUSH2 0xFF2 JUMPI DUP3 MSTORE PUSH1 0x1 PUSH1 0x1 PUSH1 0xA0 SHL SUB SWAP1 PUSH1 0x24 CALLDATALOAD DUP3 DUP2 AND DUP2 SUB PUSH2 0xFF2 JUMPI PUSH1 0x20 DUP5 ADD MSTORE PUSH1 0x44 CALLDATALOAD SWAP2 DUP3 AND DUP3 SUB PUSH2 0xFF2 JUMPI PUSH1 0x60 SWAP2 PUSH1 0x40 DUP5 ADD MSTORE PUSH1 0x64 CALLDATALOAD DUP3 DUP5 ADD MSTORE PUSH1 0x84 CALLDATALOAD PUSH1 0x80 DUP5 ADD MSTORE PUSH1 0xA3 NOT ADD SLT PUSH2 0xFF2 JUMPI PUSH1 0x40 MLOAD PUSH2 0x1140 DUP2 PUSH2 0x100D JUMP JUMPDEST PUSH1 0xA4 CALLDATALOAD DUP2 MSTORE PUSH1 0xC4 CALLDATALOAD PUSH1 0x20 DUP3 ADD MSTORE PUSH1 0xE4 CALLDATALOAD PUSH1 0x40 DUP3 ADD MSTORE PUSH1 0xA0 DUP3 ADD MSTORE SWAP1 JUMP JUMPDEST PUSH8 0xFFFFFFFFFFFFFFFF DUP2 GT PUSH2 0x1029 JUMPI PUSH1 0x1F ADD PUSH1 0x1F NOT AND PUSH1 0x20 ADD SWAP1 JUMP JUMPDEST PUSH1 0x20 DUP2 DUP4 SUB SLT PUSH2 0xFF2 JUMPI DUP1 MLOAD SWAP1 PUSH8 0xFFFFFFFFFFFFFFFF DUP3 GT PUSH2 0xFF2 JUMPI ADD DUP2 PUSH1 0x1F DUP3 ADD SLT ISZERO PUSH2 0xFF2 JUMPI DUP1 MLOAD PUSH2 0x11AC DUP2 PUSH2 0x115D JUMP JUMPDEST SWAP3 PUSH2 0x11BA PUSH1 0x40 MLOAD SWAP5 DUP6 PUSH2 0x1093 JUMP JUMPDEST DUP2 DUP5 MSTORE PUSH1 0x20 DUP3 DUP5 ADD ADD GT PUSH2 0xFF2 JUMPI PUSH2 0x11D8 SWAP2 PUSH1 0x20 DUP1 DUP6 ADD SWAP2 ADD PUSH2 0xF94 JUMP JUMPDEST SWAP1 JUMP JUMPDEST DUP1 EXTCODESIZE ISZERO DUP1 ISZERO SWAP1 PUSH2 0x11FF JUMPI JUMPDEST PUSH2 0x11F3 JUMPI PUSH2 0x11D8 SWAP1 PUSH2 0x15C8 JUMP JUMPDEST PUSH2 0x75E PUSH2 0x11D8 SWAP2 PUSH2 0x1259 JUMP JUMPDEST POP PUSH1 0x1 PUSH1 0x1 PUSH1 0xA0 SHL SUB DUP2 AND CALLER EQ PUSH2 0x11E6 JUMP JUMPDEST SWAP2 SWAP1 DUP3 SUB SWAP2 DUP3 GT PUSH2 0x121E JUMPI JUMP JUMPDEST PUSH4 0x4E487B71 PUSH1 0xE0 SHL PUSH1 0x0 MSTORE PUSH1 0x11 PUSH1 0x4 MSTORE PUSH1 0x24 PUSH1 0x0 REVERT JUMPDEST SWAP1 DUP2 PUSH1 0x20 SWAP2 SUB SLT PUSH2 0xFF2 JUMPI MLOAD DUP1 ISZERO ISZERO DUP2 SUB PUSH2 0xFF2 JUMPI SWAP1 JUMP JUMPDEST SWAP2 SWAP1 DUP3 ADD DUP1 SWAP3 GT PUSH2 0x121E JUMPI JUMP JUMPDEST PUSH1 0x1 PUSH1 0x1 PUSH1 0xA0 SHL SUB SWAP1 DUP2 AND DUP1 ISZERO PUSH2 0x132B JUMPI PUSH1 0x1 SLOAD DUP1 ISZERO PUSH2 0x1319 JUMPI PUSH1 0x0 SWAP2 DUP3 SWAP2 PUSH1 0x40 MLOAD SWAP1 PUSH1 0x20 DUP3 ADD SWAP3 DUP4 MSTORE PUSH1 0x40 DUP3 ADD MSTORE PUSH1 0x40 DUP2 MSTORE PUSH2 0x1295 DUP2 PUSH2 0x100D JUMP JUMPDEST MLOAD SWAP1 PUSH1 0x2 PUSH1 0x1 PUSH1 0x98 SHL ADD GAS STATICCALL PUSH2 0x12A9 PUSH2 0x1A42 JUMP JUMPDEST SWAP1 ISZERO PUSH2 0x12D4 JUMPI PUSH1 0x20 DUP2 MLOAD SWAP2 ADD MLOAD SWAP1 PUSH1 0x20 DUP2 LT PUSH2 0x12C4 JUMPI POP AND SWAP1 JUMP JUMPDEST PUSH1 0x0 NOT SWAP1 PUSH1 0x20 SUB PUSH1 0x3 SHL SHL AND AND SWAP1 JUMP JUMPDEST PUSH1 0x40 MLOAD PUSH3 0x461BCD PUSH1 0xE5 SHL DUP2 MSTORE PUSH1 0x20 PUSH1 0x4 DUP3 ADD MSTORE PUSH1 0x1A PUSH1 0x24 DUP3 ADD MSTORE PUSH32 0x64657269766553796D6D65747269634B65793A206661696C6564000000000000 PUSH1 0x44 DUP3 ADD MSTORE PUSH1 0x64 SWAP1 REVERT JUMPDEST PUSH1 0x40 MLOAD PUSH4 0x7145E311 PUSH1 0xE0 SHL DUP2 MSTORE PUSH1 0x4 SWAP1 REVERT JUMPDEST PUSH1 0x40 MLOAD PUSH4 0xD92E233D PUSH1 0xE0 SHL DUP2 MSTORE PUSH1 0x4 SWAP1 REVERT JUMPDEST DUP1 EXTCODESIZE PUSH2 0x1346 JUMPI SWAP1 JUMP JUMPDEST PUSH2 0x11D8 SWAP1 PUSH2 0x1259 JUMP JUMPDEST PUSH1 0x1 PUSH1 0x1 PUSH1 0xA0 SHL SUB SWAP1 DUP2 AND SWAP2 DUP3 ISZERO PUSH2 0x139E JUMPI AND SWAP1 DUP2 ISZERO PUSH2 0x1385 JUMPI PUSH1 0x0 MSTORE PUSH1 0x5 PUSH1 0x20 MSTORE PUSH1 0x40 PUSH1 0x0 KECCAK256 SWAP1 PUSH1 0x0 MSTORE PUSH1 0x20 MSTORE PUSH1 0x40 PUSH1 0x0 KECCAK256 SSTORE JUMP JUMPDEST PUSH1 0x40 MLOAD PUSH4 0x4A1406B1 PUSH1 0xE1 SHL DUP2 MSTORE PUSH1 0x0 PUSH1 0x4 DUP3 ADD MSTORE PUSH1 0x24 SWAP1 REVERT JUMPDEST PUSH1 0x40 MLOAD PUSH4 0xE602DF05 PUSH1 0xE0 SHL DUP2 MSTORE PUSH1 0x0 PUSH1 0x4 DUP3 ADD MSTORE PUSH1 0x24 SWAP1 REVERT JUMPDEST PUSH1 0x80 DUP2 ADD DUP1 MLOAD TIMESTAMP GT PUSH2 0x157C JUMPI DUP2 MLOAD SWAP1 PUSH1 0x4 SWAP2 DUP3 DUP2 LT ISZERO PUSH2 0x153D JUMPI PUSH2 0x156C JUMPI DUP3 MLOAD DUP3 DUP2 LT ISZERO PUSH2 0x153D JUMPI ISZERO PUSH2 0x1552 JUMPI JUMPDEST DUP3 MLOAD DUP3 DUP2 LT ISZERO PUSH2 0x153D JUMPI PUSH1 0x3 EQ PUSH2 0x1510 JUMPI JUMPDEST DUP3 MLOAD SWAP2 DUP1 DUP4 LT ISZERO PUSH2 0x14FB JUMPI POP PUSH1 0x20 PUSH1 0x0 PUSH1 0x80 DUP3 DUP7 ADD PUSH1 0xA0 PUSH1 0x1 DUP1 DUP3 SHL SUB DUP1 SWAP8 DUP2 DUP5 MLOAD AND PUSH1 0x40 SWAP9 DUP4 DUP11 DUP14 ADD MLOAD AND SWAP1 PUSH1 0x60 DUP14 ADD MLOAD SWAP1 MLOAD SWAP2 DUP12 MLOAD SWAP4 DUP12 DUP6 ADD SWAP6 PUSH1 0x0 DUP1 MLOAD PUSH1 0x20 PUSH2 0x1AA5 DUP4 CODECOPY DUP2 MLOAD SWAP2 MSTORE DUP8 MSTORE DUP14 DUP7 ADD MSTORE PUSH1 0x60 DUP6 ADD MSTORE DUP9 DUP5 ADD MSTORE DUP6 DUP4 ADD MSTORE PUSH1 0xC0 DUP3 ADD MSTORE PUSH1 0xC0 DUP2 MSTORE PUSH2 0x1467 DUP2 PUSH2 0x103F JUMP JUMPDEST MLOAD SWAP1 KECCAK256 SWAP3 MLOAD AND SWAP8 ADD MLOAD SWAP1 DUP6 MLOAD DUP6 DUP2 ADD SWAP2 PUSH2 0x1901 PUSH1 0xF0 SHL DUP4 MSTORE PUSH32 0x0 PUSH1 0x22 DUP4 ADD MSTORE PUSH1 0x42 DUP3 ADD MSTORE PUSH1 0x42 DUP2 MSTORE PUSH2 0x14B7 DUP2 PUSH2 0x105B JUMP JUMPDEST MLOAD SWAP1 KECCAK256 SWAP1 PUSH1 0xFF DUP7 DUP3 ADD MLOAD AND SWAP1 DUP6 DUP2 MLOAD SWAP2 ADD MLOAD SWAP2 DUP8 MLOAD SWAP4 DUP5 MSTORE DUP7 DUP5 ADD MSTORE DUP7 DUP4 ADD MSTORE PUSH1 0x60 DUP3 ADD MSTORE DUP3 DUP1 MSTORE PUSH1 0x1 GAS STATICCALL ISZERO PUSH2 0x14F1 JUMPI POP PUSH1 0x0 MLOAD AND EQ SWAP1 JUMP JUMPDEST MLOAD RETURNDATASIZE PUSH1 0x0 DUP3 RETURNDATACOPY RETURNDATASIZE SWAP1 REVERT JUMPDEST PUSH1 0x21 SWAP1 PUSH4 0x4E487B71 PUSH1 0xE0 SHL PUSH1 0x0 MSTORE MSTORE PUSH1 0x24 PUSH1 0x0 REVERT JUMPDEST PUSH1 0x60 DUP4 ADD MLOAD PUSH2 0x152D JUMPI PUSH1 0x40 DUP4 ADD MLOAD PUSH1 0x1 PUSH1 0x1 PUSH1 0xA0 SHL SUB AND ISZERO PUSH2 0x13F7 JUMPI JUMPDEST POP PUSH1 0x40 MLOAD PUSH4 0x291DED61 PUSH1 0xE0 SHL DUP2 MSTORE REVERT JUMPDEST PUSH1 0x21 DUP4 PUSH4 0x4E487B71 PUSH1 0xE0 SHL PUSH1 0x0 MSTORE MSTORE PUSH1 0x24 PUSH1 0x0 REVERT JUMPDEST PUSH1 0x60 DUP4 ADD MLOAD ISZERO PUSH2 0x13E5 JUMPI POP PUSH1 0x40 MLOAD PUSH4 0x291DED61 PUSH1 0xE0 SHL DUP2 MSTORE REVERT JUMPDEST POP PUSH1 0x40 MLOAD PUSH4 0x51055569 PUSH1 0xE0 SHL DUP2 MSTORE REVERT JUMPDEST PUSH1 0x40 MLOAD PUSH4 0xF87D9271 PUSH1 0xE0 SHL DUP2 MSTORE PUSH1 0x4 SWAP1 REVERT JUMPDEST SWAP1 PUSH1 0x1 DUP3 DUP2 SHR SWAP3 AND DUP1 ISZERO PUSH2 0x15BE JUMPI JUMPDEST PUSH1 0x20 DUP4 LT EQ PUSH2 0x15A8 JUMPI JUMP JUMPDEST PUSH4 0x4E487B71 PUSH1 0xE0 SHL PUSH1 0x0 MSTORE PUSH1 0x22 PUSH1 0x4 MSTORE PUSH1 0x24 PUSH1 0x0 REVERT JUMPDEST SWAP2 PUSH1 0x7F AND SWAP2 PUSH2 0x159D JUMP JUMPDEST PUSH1 0x0 SWAP1 PUSH1 0x1 DUP1 PUSH1 0xA0 SHL SUB AND DUP2 MSTORE PUSH1 0x20 SWAP1 PUSH1 0x4 DUP3 MSTORE PUSH1 0x40 DUP2 KECCAK256 PUSH1 0x40 MLOAD SWAP1 DUP2 DUP4 DUP3 SLOAD PUSH2 0x15F1 DUP2 PUSH2 0x158E JUMP JUMPDEST SWAP4 DUP5 DUP5 MSTORE PUSH1 0x1 SWAP2 DUP9 PUSH1 0x1 DUP3 AND SWAP2 DUP3 PUSH1 0x0 EQ PUSH2 0x1706 JUMPI POP POP PUSH1 0x1 EQ PUSH2 0x16CA JUMPI JUMPDEST POP POP PUSH2 0x161E SWAP3 POP SUB DUP3 PUSH2 0x1093 JUMP JUMPDEST DUP1 MLOAD ISZERO PUSH2 0x16C4 JUMPI DUP2 DUP1 SWAP2 PUSH1 0x3 SLOAD SWAP1 PUSH2 0x1660 PUSH1 0x40 MLOAD SWAP2 PUSH2 0x163C DUP4 PUSH2 0x1077 JUMP JUMPDEST DUP5 DUP4 MSTORE PUSH2 0x1652 PUSH1 0x40 MLOAD SWAP4 DUP5 SWAP3 DUP11 DUP5 ADD SWAP7 DUP8 PUSH2 0x1A72 JUMP JUMPDEST SUB PUSH1 0x1F NOT DUP2 ADD DUP4 MSTORE DUP3 PUSH2 0x1093 JUMP JUMPDEST MLOAD SWAP1 PUSH1 0x4 PUSH1 0x1 PUSH1 0x98 SHL ADD GAS STATICCALL SWAP1 PUSH2 0x1675 PUSH2 0x1A42 JUMP JUMPDEST SWAP2 ISZERO PUSH2 0x168D JUMPI DUP3 DUP3 DUP1 MLOAD DUP2 ADD SUB SLT PUSH2 0x778 JUMPI POP ADD MLOAD SWAP1 JUMP JUMPDEST PUSH1 0x40 MLOAD PUSH3 0x461BCD PUSH1 0xE5 SHL DUP2 MSTORE PUSH1 0x4 DUP2 ADD DUP5 SWAP1 MSTORE PUSH1 0xF PUSH1 0x24 DUP3 ADD MSTORE PUSH15 0x191958DC9E5C1D0E8819985A5B1959 PUSH1 0x8A SHL PUSH1 0x44 DUP3 ADD MSTORE PUSH1 0x64 SWAP1 REVERT JUMPDEST POP SWAP1 POP SWAP1 JUMP JUMPDEST DUP8 SWAP3 POP DUP7 MSTORE DUP2 DUP7 KECCAK256 SWAP1 DUP7 SWAP2 JUMPDEST DUP6 DUP4 LT PUSH2 0x16EE JUMPI POP POP PUSH2 0x161E SWAP4 POP DUP3 ADD ADD CODESIZE DUP1 PUSH2 0x1610 JUMP JUMPDEST DUP1 SLOAD DUP4 DUP9 ADD DUP6 ADD MSTORE DUP7 SWAP5 POP DUP9 SWAP4 SWAP1 SWAP3 ADD SWAP2 DUP2 ADD PUSH2 0x16D6 JUMP JUMPDEST SWAP3 POP SWAP4 POP POP PUSH2 0x161E SWAP5 SWAP2 POP PUSH1 0xFF NOT AND DUP3 DUP5 ADD MSTORE ISZERO ISZERO PUSH1 0x5 SHL DUP3 ADD ADD CODESIZE DUP1 PUSH2 0x1610 JUMP JUMPDEST PUSH1 0x2 PUSH1 0x0 SLOAD EQ PUSH2 0x1739 JUMPI PUSH1 0x2 PUSH1 0x0 SSTORE JUMP JUMPDEST PUSH1 0x40 MLOAD PUSH4 0x3EE5AEB5 PUSH1 0xE0 SHL DUP2 MSTORE PUSH1 0x4 SWAP1 REVERT JUMPDEST PUSH2 0x1754 SWAP1 PUSH2 0x1780 JUMP JUMPDEST PUSH1 0x0 MSTORE PUSH1 0x2 PUSH1 0x20 MSTORE PUSH1 0xFF PUSH1 0x40 PUSH1 0x0 KECCAK256 SLOAD AND PUSH2 0x176E JUMPI PUSH1 0x0 SWAP1 JUMP JUMPDEST PUSH1 0x40 MLOAD PUSH4 0x8BAA579F PUSH1 0xE0 SHL DUP2 MSTORE PUSH1 0x4 SWAP1 REVERT JUMPDEST DUP1 MLOAD SWAP1 PUSH1 0x40 PUSH1 0x20 DUP3 ADD MLOAD SWAP2 ADD MLOAD PUSH1 0x40 MLOAD SWAP2 PUSH1 0x20 DUP4 ADD SWAP4 DUP5 MSTORE PUSH1 0x40 DUP4 ADD MSTORE PUSH1 0x60 DUP3 ADD MSTORE PUSH1 0x60 DUP2 MSTORE PUSH2 0x17AF DUP2 PUSH2 0x105B JUMP JUMPDEST MLOAD SWAP1 KECCAK256 SWAP1 JUMP JUMPDEST SWAP3 SWAP2 PUSH1 0x1 PUSH1 0x1 PUSH1 0xA0 SHL SUB DUP1 DUP6 AND ISZERO PUSH2 0x184C JUMPI DUP3 AND ISZERO PUSH2 0x1833 JUMPI PUSH2 0x17D7 DUP5 PUSH2 0x15C8 JUMP JUMPDEST SWAP4 DUP2 DUP6 LT PUSH2 0x1801 JUMPI SWAP1 PUSH2 0x17FF SWAP4 SWAP5 PUSH2 0x3DD PUSH2 0x3E2 SWAP4 PUSH2 0x3E2 DUP5 PUSH2 0x17F9 DUP9 PUSH2 0x15C8 JUMP JUMPDEST SWAP5 PUSH2 0x1211 JUMP JUMPDEST JUMP JUMPDEST PUSH1 0x40 MLOAD PUSH4 0x391434E3 PUSH1 0xE2 SHL DUP2 MSTORE PUSH1 0x1 PUSH1 0x1 PUSH1 0xA0 SHL SUB SWAP2 SWAP1 SWAP2 AND PUSH1 0x4 DUP3 ADD MSTORE PUSH1 0x24 DUP2 ADD DUP6 SWAP1 MSTORE PUSH1 0x44 DUP2 ADD SWAP2 SWAP1 SWAP2 MSTORE PUSH1 0x64 SWAP1 REVERT JUMPDEST PUSH1 0x40 MLOAD PUSH4 0xEC442F05 PUSH1 0xE0 SHL DUP2 MSTORE PUSH1 0x0 PUSH1 0x4 DUP3 ADD MSTORE PUSH1 0x24 SWAP1 REVERT JUMPDEST PUSH1 0x40 MLOAD PUSH4 0x4B637E8F PUSH1 0xE1 SHL DUP2 MSTORE PUSH1 0x0 PUSH1 0x4 DUP3 ADD MSTORE PUSH1 0x24 SWAP1 REVERT JUMPDEST SWAP2 SWAP1 SWAP2 PUSH1 0x40 DUP1 MLOAD SWAP2 PUSH1 0x20 SWAP5 DUP6 DUP5 ADD MSTORE DUP5 DUP4 MSTORE DUP2 DUP4 ADD SWAP1 PUSH8 0xFFFFFFFFFFFFFFFF SWAP3 DUP5 DUP4 LT DUP5 DUP5 GT OR PUSH2 0x1029 JUMPI DUP3 DUP2 MSTORE PUSH1 0x3 SLOAD SWAP5 PUSH2 0x18A0 DUP5 PUSH2 0x1077 JUMP JUMPDEST PUSH1 0x0 DUP1 SWAP7 DUP2 SWAP3 DUP3 DUP8 MSTORE PUSH2 0x18BB DUP6 MLOAD SWAP8 DUP9 SWAP3 DUP14 DUP5 ADD SWAP5 DUP6 PUSH2 0x1A72 JUMP JUMPDEST SUB SWAP6 PUSH2 0x18CF PUSH1 0x1F NOT SWAP8 DUP9 DUP2 ADD DUP4 MSTORE DUP3 PUSH2 0x1093 JUMP JUMPDEST MLOAD SWAP1 PUSH1 0x3 PUSH1 0x1 PUSH1 0x98 SHL ADD GAS STATICCALL SWAP2 PUSH2 0x18E4 PUSH2 0x1A42 JUMP JUMPDEST SWAP3 ISZERO PUSH2 0x1A0C JUMPI PUSH1 0x1 PUSH1 0x1 PUSH1 0xA0 SHL SUB AND DUP6 MSTORE PUSH1 0x4 DUP8 MSTORE DUP5 KECCAK256 DUP2 MLOAD SWAP1 SWAP5 SWAP1 SWAP4 DUP5 GT PUSH2 0x19F8 JUMPI PUSH2 0x1911 DUP6 SLOAD PUSH2 0x158E JUMP JUMPDEST PUSH1 0x1F DUP2 GT PUSH2 0x19B5 JUMPI JUMPDEST POP DUP7 SWAP3 PUSH1 0x1F DUP6 GT PUSH1 0x1 EQ PUSH2 0x1955 JUMPI POP DUP4 SWAP5 SWAP6 SWAP7 POP SWAP3 PUSH2 0x194A JUMPI JUMPDEST POP POP DUP2 PUSH1 0x1 SHL SWAP2 PUSH1 0x0 NOT SWAP1 PUSH1 0x3 SHL SHR NOT AND OR SWAP1 SSTORE JUMP JUMPDEST ADD MLOAD SWAP1 POP CODESIZE DUP1 PUSH2 0x1934 JUMP JUMPDEST DUP5 SWAP4 SWAP3 SWAP2 SWAP4 AND SWAP7 DUP6 DUP5 MSTORE DUP1 DUP5 KECCAK256 SWAP4 SWAP1 JUMPDEST DUP9 DUP3 LT PUSH2 0x199D JUMPI POP POP DUP4 PUSH1 0x1 SWAP6 SWAP7 SWAP8 LT PUSH2 0x1984 JUMPI JUMPDEST POP POP POP DUP2 SHL ADD SWAP1 SSTORE JUMP JUMPDEST ADD MLOAD PUSH1 0x0 NOT PUSH1 0xF8 DUP5 PUSH1 0x3 SHL AND SHR NOT AND SWAP1 SSTORE CODESIZE DUP1 DUP1 PUSH2 0x197A JUMP JUMPDEST DUP1 PUSH1 0x1 DUP6 SWAP7 DUP3 SWAP5 SWAP7 DUP7 ADD MLOAD DUP2 SSTORE ADD SWAP6 ADD SWAP4 ADD SWAP1 PUSH2 0x1965 JUMP JUMPDEST DUP6 DUP3 MSTORE DUP8 DUP3 KECCAK256 PUSH1 0x1F DUP7 ADD PUSH1 0x5 SHR DUP2 ADD SWAP2 DUP10 DUP8 LT PUSH2 0x19EE JUMPI JUMPDEST PUSH1 0x1F ADD PUSH1 0x5 SHR ADD SWAP1 JUMPDEST DUP2 DUP2 LT PUSH2 0x19E3 JUMPI POP PUSH2 0x191A JUMP JUMPDEST DUP3 DUP2 SSTORE PUSH1 0x1 ADD PUSH2 0x19D6 JUMP JUMPDEST SWAP1 SWAP2 POP DUP2 SWAP1 PUSH2 0x19CD JUMP JUMPDEST PUSH4 0x4E487B71 PUSH1 0xE0 SHL DUP2 MSTORE PUSH1 0x41 PUSH1 0x4 MSTORE PUSH1 0x24 SWAP1 REVERT JUMPDEST DUP2 MLOAD PUSH3 0x461BCD PUSH1 0xE5 SHL DUP2 MSTORE PUSH1 0x4 DUP2 ADD DUP10 SWAP1 MSTORE PUSH1 0xF PUSH1 0x24 DUP3 ADD MSTORE PUSH15 0x195B98DC9E5C1D0E8819985A5B1959 PUSH1 0x8A SHL PUSH1 0x44 DUP3 ADD MSTORE PUSH1 0x64 SWAP1 REVERT JUMPDEST RETURNDATASIZE ISZERO PUSH2 0x1A6D JUMPI RETURNDATASIZE SWAP1 PUSH2 0x1A53 DUP3 PUSH2 0x115D JUMP JUMPDEST SWAP2 PUSH2 0x1A61 PUSH1 0x40 MLOAD SWAP4 DUP5 PUSH2 0x1093 JUMP JUMPDEST DUP3 MSTORE RETURNDATASIZE PUSH1 0x0 PUSH1 0x20 DUP5 ADD RETURNDATACOPY JUMP JUMPDEST PUSH1 0x60 SWAP1 JUMP JUMPDEST SWAP2 PUSH2 0x1A96 SWAP1 PUSH2 0x11D8 SWAP5 SWAP3 PUSH1 0x0 DUP6 MSTORE PUSH1 0x20 DUP6 ADD MSTORE PUSH1 0x80 PUSH1 0x40 DUP6 ADD MSTORE PUSH1 0x80 DUP5 ADD SWAP1 PUSH2 0xFB7 JUMP JUMPDEST SWAP2 PUSH1 0x60 DUP2 DUP5 SUB SWAP2 ADD MSTORE PUSH2 0xFB7 JUMP INVALID 0xDF ADDRESS MSTORE SWAP12 MSIZE SWAP13 0xEF DUP6 BYTE 0x2B PUSH31 0x4FC96B13D343AEA28107D97873F3E0BC909D1E22C6A2646970667358221220 0x2D CHAINID PUSH5 0xBDAEB4550C AND 0xC3 SMOD SWAP9 0xB1 0xD5 SWAP13 SLT MCOPY CALLDATALOAD 0xAC 0xFC LOG4 SWAP4 0x29 RETURNDATACOPY PUSH9 0x55BEB33FE48A1E6473 PUSH16 0x6C634300081800330000000000000000 "
        },
        "methodIdentifiers": {
          "DOMAIN_SEPARATOR()": "3644e515",
          "EIP_PERMIT_TYPEHASH()": "036e0708",
          "allowance(address,address)": "dd62ed3e",
          "allowanceWithPermit((uint8,address,address,uint256,uint256,(bytes32,bytes32,uint256)))": "e35ac9fb",
          "approve(address,uint256)": "095ea7b3",
          "approveWithPermit((uint8,address,address,uint256,uint256,(bytes32,bytes32,uint256)))": "7986b37d",
          "balanceOf(address)": "70a08231",
          "balanceOfWithPermit((uint8,address,address,uint256,uint256,(bytes32,bytes32,uint256)))": "940cf112",
          "decimals()": "313ce567",
          "getMyVirtualAddress((uint8,address,address,uint256,uint256,(bytes32,bytes32,uint256)))": "51f4bae9",
          "isSignatureUsed((bytes32,bytes32,uint256))": "93355f42",
          "name()": "06fdde03",
          "symbol()": "95d89b41",
          "totalSupply()": "18160ddd",
          "transfer(address,uint256)": "a9059cbb",
          "transferFrom(address,address,uint256)": "23b872dd",
          "transferWithPermit((uint8,address,address,uint256,uint256,(bytes32,bytes32,uint256)))": "eb06f992",
          "underlyingToken()": "2495a599",
          "unwrap(uint256)": "de0e9a3e",
          "wrap(uint256)": "ea598cb0"
        }
      },
      "storageLayout": {
        "storage": [
          {
            "astId": 1437,
            "contract": "contracts/PrivacyERC20.sol:PrivacyERC20",
            "label": "_status",
            "offset": 0,
            "slot": "0",
            "type": "t_uint256"
          },
          {
            "astId": 2262,
            "contract": "contracts/PrivacyERC20.sol:PrivacyERC20",
            "label": "_identitySalt",
            "offset": 0,
            "slot": "1",
            "type": "t_bytes32"
          },
          {
            "astId": 2402,
            "contract": "contracts/PrivacyERC20.sol:PrivacyERC20",
            "label": "_usedSignatures",
            "offset": 0,
            "slot": "2",
            "type": "t_mapping(t_bytes32,t_bool)"
          },
          {
            "astId": 2670,
            "contract": "contracts/PrivacyERC20.sol:PrivacyERC20",
            "label": "_globalNonce",
            "offset": 0,
            "slot": "3",
            "type": "t_bytes32"
          },
          {
            "astId": 2674,
            "contract": "contracts/PrivacyERC20.sol:PrivacyERC20",
            "label": "_encryptedBalances",
            "offset": 0,
            "slot": "4",
            "type": "t_mapping(t_address,t_bytes_storage)"
          },
          {
            "astId": 2680,
            "contract": "contracts/PrivacyERC20.sol:PrivacyERC20",
            "label": "_allowances",
            "offset": 0,
            "slot": "5",
            "type": "t_mapping(t_address,t_mapping(t_address,t_uint256))"
          }
        ],
        "types": {
          "t_address": {
            "encoding": "inplace",
            "label": "address",
            "numberOfBytes": "20"
          },
          "t_bool": {
            "encoding": "inplace",
            "label": "bool",
            "numberOfBytes": "1"
          },
          "t_bytes32": {
            "encoding": "inplace",
            "label": "bytes32",
            "numberOfBytes": "32"
          },
          "t_bytes_storage": {
            "encoding": "bytes",
            "label": "bytes",
            "numberOfBytes": "32"
          },
          "t_mapping(t_address,t_bytes_storage)": {
            "encoding": "mapping",
            "key": "t_address",
            "label": "mapping(address => bytes)",
            "numberOfBytes": "32",
            "value": "t_bytes_storage"
          },
          "t_mapping(t_address,t_mapping(t_address,t_uint256))": {
            "encoding": "mapping",
            "key": "t_address",
            "label": "mapping(address => mapping(address => uint256))",
            "numberOfBytes": "32",
            "value": "t_mapping(t_address,t_uint256)"
          },
          "t_mapping(t_address,t_uint256)": {
            "encoding": "mapping",
            "key": "t_address",
            "label": "mapping(address => uint256)",
            "numberOfBytes": "32",
            "value": "t_uint256"
          },
          "t_mapping(t_bytes32,t_bool)": {
            "encoding": "mapping",
            "key": "t_bytes32",
            "label": "mapping(bytes32 => bool)",
            "numberOfBytes": "32",
            "value": "t_bool"
          },
          "t_uint256": {
            "encoding": "inplace",
            "label": "uint256",
            "numberOfBytes": "32"
          }
        }
      }
    }
  }
}