{
  "contracts/PrivacyWROSE.sol": {
    "PrivacyWROSE": {
      "abi": [
        {
          "inputs": [
            {
              "internalType": "address",
              "name": "underlyingToken_",
              "type": "address"
            },
            {
              "internalType": "bytes",
              "name": "pers_",
              "type": "bytes"
            }
          ],
          "stateMutability": "nonpayable",
          "type": "constructor"
        },
        {
          "inputs": [],
          "name": "EIPError",
          "type": "error"
        },
        {
          "inputs": [
            {
              "internalType": "address",
              "name": "spender",
              "type": "address"
            },
            {
              "internalType": "uint256",
              "name": "allowance",
              "type": "uint256"
            },
            {
              "internalType": "uint256",
              "name": "needed",
              "type": "uint256"
            }
          ],
          "name": "ERC20InsufficientAllowance",
          "type": "error"
        },
        {
          "inputs": [
            {
              "internalType": "address",
              "name": "sender",
              "type": "address"
            },
            {
              "internalType": "uint256",
              "name": "balance",
              "type": "uint256"
            },
            {
              "internalType": "uint256",
              "name": "needed",
              "type": "uint256"
            }
          ],
          "name": "ERC20InsufficientBalance",
          "type": "error"
        },
        {
          "inputs": [
            {
              "internalType": "address",
              "name": "approver",
              "type": "address"
            }
          ],
          "name": "ERC20InvalidApprover",
          "type": "error"
        },
        {
          "inputs": [
            {
              "internalType": "address",
              "name": "receiver",
              "type": "address"
            }
          ],
          "name": "ERC20InvalidReceiver",
          "type": "error"
        },
        {
          "inputs": [
            {
              "internalType": "address",
              "name": "sender",
              "type": "address"
            }
          ],
          "name": "ERC20InvalidSender",
          "type": "error"
        },
        {
          "inputs": [
            {
              "internalType": "address",
              "name": "spender",
              "type": "address"
            }
          ],
          "name": "ERC20InvalidSpender",
          "type": "error"
        },
        {
          "inputs": [],
          "name": "EmptyIdentitySalt",
          "type": "error"
        },
        {
          "inputs": [],
          "name": "ExpiredDeadline",
          "type": "error"
        },
        {
          "inputs": [],
          "name": "InsufficientBalance",
          "type": "error"
        },
        {
          "inputs": [],
          "name": "InvalidPermitAmount",
          "type": "error"
        },
        {
          "inputs": [],
          "name": "InvalidPermitLabel",
          "type": "error"
        },
        {
          "inputs": [],
          "name": "InvalidSignature",
          "type": "error"
        },
        {
          "inputs": [],
          "name": "NotContractAddress",
          "type": "error"
        },
        {
          "inputs": [],
          "name": "ReentrancyGuardReentrantCall",
          "type": "error"
        },
        {
          "inputs": [],
          "name": "SignatureUsed",
          "type": "error"
        },
        {
          "inputs": [],
          "name": "ZeroAddress",
          "type": "error"
        },
        {
          "inputs": [],
          "name": "ZeroAmount",
          "type": "error"
        },
        {
          "anonymous": false,
          "inputs": [
            {
              "indexed": true,
              "internalType": "address",
              "name": "owner",
              "type": "address"
            },
            {
              "indexed": true,
              "internalType": "address",
              "name": "spender",
              "type": "address"
            },
            {
              "indexed": false,
              "internalType": "uint256",
              "name": "value",
              "type": "uint256"
            }
          ],
          "name": "Approval",
          "type": "event"
        },
        {
          "anonymous": false,
          "inputs": [
            {
              "indexed": true,
              "internalType": "address",
              "name": "from",
              "type": "address"
            },
            {
              "indexed": true,
              "internalType": "address",
              "name": "to",
              "type": "address"
            },
            {
              "indexed": false,
              "internalType": "uint256",
              "name": "value",
              "type": "uint256"
            }
          ],
          "name": "Transfer",
          "type": "event"
        },
        {
          "inputs": [],
          "name": "DOMAIN_SEPARATOR",
          "outputs": [
            {
              "internalType": "bytes32",
              "name": "",
              "type": "bytes32"
            }
          ],
          "stateMutability": "view",
          "type": "function"
        },
        {
          "inputs": [],
          "name": "EIP_PERMIT_TYPEHASH",
          "outputs": [
            {
              "internalType": "bytes32",
              "name": "",
              "type": "bytes32"
            }
          ],
          "stateMutability": "view",
          "type": "function"
        },
        {
          "inputs": [
            {
              "internalType": "address",
              "name": "owner",
              "type": "address"
            },
            {
              "internalType": "address",
              "name": "spender",
              "type": "address"
            }
          ],
          "name": "allowance",
          "outputs": [
            {
              "internalType": "uint256",
              "name": "",
              "type": "uint256"
            }
          ],
          "stateMutability": "view",
          "type": "function"
        },
        {
          "inputs": [
            {
              "components": [
                {
                  "internalType": "enum PrivacyEIP712.PermitLabel",
                  "name": "label",
                  "type": "uint8"
                },
                {
                  "internalType": "address",
                  "name": "owner",
                  "type": "address"
                },
                {
                  "internalType": "address",
                  "name": "spender",
                  "type": "address"
                },
                {
                  "internalType": "uint256",
                  "name": "amount",
                  "type": "uint256"
                },
                {
                  "internalType": "uint256",
                  "name": "deadline",
                  "type": "uint256"
                },
                {
                  "components": [
                    {
                      "internalType": "bytes32",
                      "name": "r",
                      "type": "bytes32"
                    },
                    {
                      "internalType": "bytes32",
                      "name": "s",
                      "type": "bytes32"
                    },
                    {
                      "internalType": "uint256",
                      "name": "v",
                      "type": "uint256"
                    }
                  ],
                  "internalType": "struct SignatureRSV",
                  "name": "signature",
                  "type": "tuple"
                }
              ],
              "internalType": "struct PrivacyEIP712.EIP712Permit",
              "name": "permit",
              "type": "tuple"
            }
          ],
          "name": "allowanceWithPermit",
          "outputs": [
            {
              "internalType": "uint256",
              "name": "",
              "type": "uint256"
            }
          ],
          "stateMutability": "view",
          "type": "function"
        },
        {
          "inputs": [
            {
              "internalType": "address",
              "name": "spender",
              "type": "address"
            },
            {
              "internalType": "uint256",
              "name": "value",
              "type": "uint256"
            }
          ],
          "name": "approve",
          "outputs": [
            {
              "internalType": "bool",
              "name": "",
              "type": "bool"
            }
          ],
          "stateMutability": "nonpayable",
          "type": "function"
        },
        {
          "inputs": [
            {
              "components": [
                {
                  "internalType": "enum PrivacyEIP712.PermitLabel",
                  "name": "label",
                  "type": "uint8"
                },
                {
                  "internalType": "address",
                  "name": "owner",
                  "type": "address"
                },
                {
                  "internalType": "address",
                  "name": "spender",
                  "type": "address"
                },
                {
                  "internalType": "uint256",
                  "name": "amount",
                  "type": "uint256"
                },
                {
                  "internalType": "uint256",
                  "name": "deadline",
                  "type": "uint256"
                },
                {
                  "components": [
                    {
                      "internalType": "bytes32",
                      "name": "r",
                      "type": "bytes32"
                    },
                    {
                      "internalType": "bytes32",
                      "name": "s",
                      "type": "bytes32"
                    },
                    {
                      "internalType": "uint256",
                      "name": "v",
                      "type": "uint256"
                    }
                  ],
                  "internalType": "struct SignatureRSV",
                  "name": "signature",
                  "type": "tuple"
                }
              ],
              "internalType": "struct PrivacyEIP712.EIP712Permit",
              "name": "permit",
              "type": "tuple"
            }
          ],
          "name": "approveWithPermit",
          "outputs": [],
          "stateMutability": "nonpayable",
          "type": "function"
        },
        {
          "inputs": [
            {
              "internalType": "address",
              "name": "account",
              "type": "address"
            }
          ],
          "name": "balanceOf",
          "outputs": [
            {
              "internalType": "uint256",
              "name": "",
              "type": "uint256"
            }
          ],
          "stateMutability": "view",
          "type": "function"
        },
        {
          "inputs": [
            {
              "components": [
                {
                  "internalType": "enum PrivacyEIP712.PermitLabel",
                  "name": "label",
                  "type": "uint8"
                },
                {
                  "internalType": "address",
                  "name": "owner",
                  "type": "address"
                },
                {
                  "internalType": "address",
                  "name": "spender",
                  "type": "address"
                },
                {
                  "internalType": "uint256",
                  "name": "amount",
                  "type": "uint256"
                },
                {
                  "internalType": "uint256",
                  "name": "deadline",
                  "type": "uint256"
                },
                {
                  "components": [
                    {
                      "internalType": "bytes32",
                      "name": "r",
                      "type": "bytes32"
                    },
                    {
                      "internalType": "bytes32",
                      "name": "s",
                      "type": "bytes32"
                    },
                    {
                      "internalType": "uint256",
                      "name": "v",
                      "type": "uint256"
                    }
                  ],
                  "internalType": "struct SignatureRSV",
                  "name": "signature",
                  "type": "tuple"
                }
              ],
              "internalType": "struct PrivacyEIP712.EIP712Permit",
              "name": "permit",
              "type": "tuple"
            }
          ],
          "name": "balanceOfWithPermit",
          "outputs": [
            {
              "internalType": "uint256",
              "name": "",
              "type": "uint256"
            }
          ],
          "stateMutability": "view",
          "type": "function"
        },
        {
          "inputs": [],
          "name": "decimals",
          "outputs": [
            {
              "internalType": "uint8",
              "name": "",
              "type": "uint8"
            }
          ],
          "stateMutability": "view",
          "type": "function"
        },
        {
          "inputs": [],
          "name": "deposit",
          "outputs": [],
          "stateMutability": "payable",
          "type": "function"
        },
        {
          "inputs": [
            {
              "components": [
                {
                  "internalType": "enum PrivacyEIP712.PermitLabel",
                  "name": "label",
                  "type": "uint8"
                },
                {
                  "internalType": "address",
                  "name": "owner",
                  "type": "address"
                },
                {
                  "internalType": "address",
                  "name": "spender",
                  "type": "address"
                },
                {
                  "internalType": "uint256",
                  "name": "amount",
                  "type": "uint256"
                },
                {
                  "internalType": "uint256",
                  "name": "deadline",
                  "type": "uint256"
                },
                {
                  "components": [
                    {
                      "internalType": "bytes32",
                      "name": "r",
                      "type": "bytes32"
                    },
                    {
                      "internalType": "bytes32",
                      "name": "s",
                      "type": "bytes32"
                    },
                    {
                      "internalType": "uint256",
                      "name": "v",
                      "type": "uint256"
                    }
                  ],
                  "internalType": "struct SignatureRSV",
                  "name": "signature",
                  "type": "tuple"
                }
              ],
              "internalType": "struct PrivacyEIP712.EIP712Permit",
              "name": "permit",
              "type": "tuple"
            }
          ],
          "name": "getMyVirtualAddress",
          "outputs": [
            {
              "internalType": "address",
              "name": "",
              "type": "address"
            }
          ],
          "stateMutability": "view",
          "type": "function"
        },
        {
          "inputs": [
            {
              "components": [
                {
                  "internalType": "bytes32",
                  "name": "r",
                  "type": "bytes32"
                },
                {
                  "internalType": "bytes32",
                  "name": "s",
                  "type": "bytes32"
                },
                {
                  "internalType": "uint256",
                  "name": "v",
                  "type": "uint256"
                }
              ],
              "internalType": "struct SignatureRSV",
              "name": "signature",
              "type": "tuple"
            }
          ],
          "name": "isSignatureUsed",
          "outputs": [
            {
              "internalType": "bool",
              "name": "",
              "type": "bool"
            }
          ],
          "stateMutability": "view",
          "type": "function"
        },
        {
          "inputs": [],
          "name": "name",
          "outputs": [
            {
              "internalType": "string",
              "name": "",
              "type": "string"
            }
          ],
          "stateMutability": "view",
          "type": "function"
        },
        {
          "inputs": [],
          "name": "symbol",
          "outputs": [
            {
              "internalType": "string",
              "name": "",
              "type": "string"
            }
          ],
          "stateMutability": "view",
          "type": "function"
        },
        {
          "inputs": [],
          "name": "totalSupply",
          "outputs": [
            {
              "internalType": "uint256",
              "name": "",
              "type": "uint256"
            }
          ],
          "stateMutability": "view",
          "type": "function"
        },
        {
          "inputs": [
            {
              "internalType": "address",
              "name": "to",
              "type": "address"
            },
            {
              "internalType": "uint256",
              "name": "value",
              "type": "uint256"
            }
          ],
          "name": "transfer",
          "outputs": [
            {
              "internalType": "bool",
              "name": "",
              "type": "bool"
            }
          ],
          "stateMutability": "nonpayable",
          "type": "function"
        },
        {
          "inputs": [
            {
              "internalType": "address",
              "name": "from",
              "type": "address"
            },
            {
              "internalType": "address",
              "name": "to",
              "type": "address"
            },
            {
              "internalType": "uint256",
              "name": "value",
              "type": "uint256"
            }
          ],
          "name": "transferFrom",
          "outputs": [
            {
              "internalType": "bool",
              "name": "",
              "type": "bool"
            }
          ],
          "stateMutability": "nonpayable",
          "type": "function"
        },
        {
          "inputs": [
            {
              "components": [
                {
                  "internalType": "enum PrivacyEIP712.PermitLabel",
                  "name": "label",
                  "type": "uint8"
                },
                {
                  "internalType": "address",
                  "name": "owner",
                  "type": "address"
                },
                {
                  "internalType": "address",
                  "name": "spender",
                  "type": "address"
                },
                {
                  "internalType": "uint256",
                  "name": "amount",
                  "type": "uint256"
                },
                {
                  "internalType": "uint256",
                  "name": "deadline",
                  "type": "uint256"
                },
                {
                  "components": [
                    {
                      "internalType": "bytes32",
                      "name": "r",
                      "type": "bytes32"
                    },
                    {
                      "internalType": "bytes32",
                      "name": "s",
                      "type": "bytes32"
                    },
                    {
                      "internalType": "uint256",
                      "name": "v",
                      "type": "uint256"
                    }
                  ],
                  "internalType": "struct SignatureRSV",
                  "name": "signature",
                  "type": "tuple"
                }
              ],
              "internalType": "struct PrivacyEIP712.EIP712Permit",
              "name": "permit",
              "type": "tuple"
            }
          ],
          "name": "transferWithPermit",
          "outputs": [],
          "stateMutability": "nonpayable",
          "type": "function"
        },
        {
          "inputs": [],
          "name": "underlyingToken",
          "outputs": [
            {
              "internalType": "contract IERC20Metadata",
              "name": "",
              "type": "address"
            }
          ],
          "stateMutability": "view",
          "type": "function"
        },
        {
          "inputs": [
            {
              "internalType": "uint256",
              "name": "amount",
              "type": "uint256"
            }
          ],
          "name": "unwrap",
          "outputs": [],
          "stateMutability": "nonpayable",
          "type": "function"
        },
        {
          "inputs": [
            {
              "internalType": "uint256",
              "name": "amount",
              "type": "uint256"
            }
          ],
          "name": "withdraw",
          "outputs": [],
          "stateMutability": "nonpayable",
          "type": "function"
        },
        {
          "inputs": [
            {
              "internalType": "uint256",
              "name": "amount",
              "type": "uint256"
            }
          ],
          "name": "wrap",
          "outputs": [],
          "stateMutability": "nonpayable",
          "type": "function"
        },
        {
          "stateMutability": "payable",
          "type": "receive"
        }
      ],
      "evm": {
        "bytecode": {
          "linkReferences": {},
          "object": "60c06040908082523462000288576200211f80380380916200002282856200028d565b833981018282820312620002885781516001600160a01b038116929083900362000288576020818101516001600160401b039283821162000288570183601f82011215620002885780516200007781620002b1565b9462000086885196876200028d565b8186528382840101116200028857620000a591838087019101620002cd565b84519360608501858110848211176200027257865260288552818501947f5072697661637920455243323020546f6b656e2077697468205669727475616c865267204164647265737360c01b8782015286519587870187811086821117620002725788526001875283870191603160f81b8352600096600188556001541562000259575b50519020955190208651928301957f8b73c3c69bb8fe3d512ecc4cf759cc79239f7b179b0ffacaa9a75d522b39400f87528784015260608301524660808301523060a083015260a0825260c08201948286108487111762000245578587528251902060805260a05260e00190811183821017620002315783528152620001ba90620001b49062000316565b620002f2565b60035551611d1990816200040682396080518181816102250152818161091c01528181610af901528181610c3801526119ac015260a0518181816103c301528181610553015281816106c001528181610c8201528181610d7101528181610e3201528181610f600152818161103b0152611bc60152f35b634e487b7160e01b82526041600452602482fd5b634e487b7160e01b85526041600452602485fd5b620001b4620002689162000316565b6001553862000129565b634e487b7160e01b600052604160045260246000fd5b600080fd5b601f909101601f19168101906001600160401b038211908210176200027257604052565b6001600160401b0381116200027257601f01601f191660200190565b60005b838110620002e15750506000910152565b8181015183820152602001620002d0565b60208151910151906020811062000307575090565b6000199060200360031b1b1690565b60008091604051620003666080826020810194602086526040808301526200034e8151809281606086015260208686019101620002cd565b601f801991011681010360608101845201826200028d565b51907301000000000000000000000000000000000000015afa3d15620003fc573d906200039382620002b1565b91620003a360405193846200028d565b82523d6000602084013e5b15620003b75790565b60405162461bcd60e51b815260206004820152601360248201527f72616e646f6d42797465733a206661696c6564000000000000000000000000006044820152606490fd5b606090620003ae56fe60806040818152600480361015610036575b505050361561001f57600080fd5b60ff600654161561002c57005b610034611bbe565b005b600092833560e01c908163036e0708146110e95750806306fdde0314611015578063095ea7b314610fda57806318160ddd14610f3257806323b872dd14610e615780632495a59914610e1d5780632e1a7d4d14610d15578063313ce56714610c5b5780633644e51514610c2057806351f4bae914610a1c57806370a08231146109f65780637986b37d1461082757806393355f42146107d7578063940cf1121461078057806395d89b411461069a578063a9059cbb14610658578063d0e30db01461063c578063dd62ed3e146105d8578063de0e9a3e146104e7578063e35ac9fb14610470578063ea598cb0146103765763eb06f9920361001157346103725761013f36611246565b610147611548565b60a0810180519161015783611aa4565b506080810180514211610362578151858110156102f757600103610352578151858110156102f75715610338575b8151858110156102f75760031461030c575b815192858410156102f7576020958684019187600060808b60018060a01b03998a9889895116906060848d019d8e51169c019b8c5191519285519489860196600080516020611cc4833981519152885286015260608501528584015260a083015260c082015260c0815261020a816111d0565b5190208c8888511695519181518681019161190160f01b83527f0000000000000000000000000000000000000000000000000000000000000000602283015260428201526042815261025b816111ec565b5190209160ff82820151169186825192015192815194855287850152830152606082015282805260015afa156102ec578360005116036102de57509260029594926102ba836102b26102c2956102c79851166113ea565b9351166114ce565b905191611b0e565b611ad9565b8452528120600160ff198254161790556001815580f35b87516303bfcdeb60e21b8152fd5b88513d6000823e3d90fd5b602186634e487b7160e01b6000525260246000fd5b606082015161032857818601516001600160a01b031615610197575b855163291ded6160e01b81528590fd5b60608201511561018557855163291ded6160e01b81528590fd5b8551635105556960e01b81528590fd5b855163f87d927160e01b81528590fd5b8280fd5b503461037257602036600319011261037257803590610393611548565b81156104625782516323b872dd60e01b8152339181019190915230602482015260448101829052602081606481877f00000000000000000000000000000000000000000000000000000000000000006001600160a01b03165af180156104555761041f9350610426575b5061041961040a336113ea565b91610414836115a5565b6113dd565b90611705565b6001815580f35b6104479060203d60201161044e575b61043f8183611224565b8101906113c5565b50386103fd565b503d610435565b50505051903d90823e3d90fd5b8251631f2a200560e01b8152fd5b5091346104e45761048036611246565b9061048a826118e2565b156104d557602093508260018060a01b0391826104b981846104b0828b8a0151166113ea565b970151166114ce565b9416815260058652209116600052825280600020549051908152f35b5050516303bfcdeb60e21b8152fd5b80fd5b509034610372576020366003190112610372578135610504611548565b80156105ca57610513336113ea565b61051c816115a5565b8281106105ba5790610419836105319361136c565b815163a9059cbb60e01b815233938101939093526024830152602082604481867f00000000000000000000000000000000000000000000000000000000000000006001600160a01b03165af19081156105b15750610592575b506001815580f35b6105aa9060203d60201161044e5761043f8183611224565b503861058a565b513d84823e3d90fd5b50505051631e9acf1760e31b8152fd5b5051631f2a200560e01b8152fd5b5050346106385780600319360112610638576020916105f5611159565b8261061061060a610604611174565b936114ce565b926114ce565b6001600160a01b03928316845260058652922091166000908152908352819020549051908152f35b5080fd5b83806003193601126104e457610650611548565b61041f611bbe565b505034610638578060031936011261063857602090610693610678611159565b610681336113ea565b61068d602435926114ce565b90611b0e565b5160018152f35b50903461037257826003193601126103725780516395d89b4160e01b81529183908390817f00000000000000000000000000000000000000000000000000000000000000006001600160a01b03165afa918215610776578361074d9493610751575b505061073b602882518461071a829651809260208086019101611111565b8101672e5072697661637960c01b6020820152036008810185520183611224565b51918291602083526020830190611134565b0390f35b61076e9293503d8091833e6107668183611224565b81019061130a565b9038806106fc565b81513d85823e3d90fd5b5091346104e4575061079136611246565b9161079b836118e2565b156107c957506020918201516107c2906107bd906001600160a01b03166113ea565b6115a5565b9051908152f35b90516303bfcdeb60e21b8152fd5b5034610372576060366003190112610372578160209361081560ff938351906107ff826111b4565b3581526024358782015260443584820152611ad9565b81526002855220541690519015158152f35b50346103725761083636611246565b61083e611548565b60a0810180519161084e83611aa4565b506080810180514211610362578151858110156102f757600203610352578151858110156102f757156109dc575b8151858110156102f7576003146109b1575b815192858410156102f7576020958684019187600060808b60018060a01b03998a9889895116906060848d019d8e51169c019b8c5191519285519489860196600080516020611cc4833981519152885286015260608501528584015260a083015260c082015260c08152610901816111d0565b5190208c8888511695519181518681019161190160f01b83527f00000000000000000000000000000000000000000000000000000000000000006022830152604282015260428152610952816111ec565b5190209160ff82820151169186825192015192815194855287850152830152606082015282805260015afa156102ec578360005116036102de57509260029594926109a9836102b26102c2956102c79851166113ea565b9051916114e0565b606082015161032857818601516001600160a01b03161561088e57855163291ded6160e01b81528590fd5b60608201511561087c57855163291ded6160e01b81528590fd5b505034610638576020366003190112610638576020906107c2610a17611159565b61138f565b5091346104e45750610a2d36611246565b91608083019081514211610c1257835181811015610bd757600303610c0457835181811015610bd75715610bec575b835181811015610bd757600314610bad575b83519080821015610b98576020948560006080878385019660018060a01b039889895116908a8489015116606089015191519285519489860196600080516020611cc4833981519152885286015260608501528584015260a083015260c082015260c08152610adc816111d0565b51902060a0888851169501519089518581019161190160f01b83527f00000000000000000000000000000000000000000000000000000000000000006022830152604282015260428152610b2f816111ec565b5190209060ff8a8201511690858151910151918b51938452868401528a830152606082015282805260015afa15610b8d57836000511603610b7f575081610b779151166113ea565b915191168152f35b83516303bfcdeb60e21b8152fd5b84513d6000823e3d90fd5b602190634e487b7160e01b6000525260246000fd5b6060840151610bc957838301516001600160a01b031615610a6e575b825163291ded6160e01b8152fd5b602182634e487b7160e01b6000525260246000fd5b606084015115610a5c57825163291ded6160e01b8152fd5b8251635105556960e01b8152fd5b825163f87d927160e01b8152fd5b505034610638578160031936011261063857602090517f00000000000000000000000000000000000000000000000000000000000000008152f35b5091346104e457806003193601126104e457815163313ce56760e01b8152926020908490817f00000000000000000000000000000000000000000000000000000000000000006001600160a01b03165afa928315610d09578193610cc7575b60208460ff855191168152f35b9092506020813d602011610d01575b81610ce360209383611224565b8101031261037257519160ff831683036104e4575060ff6020610cba565b3d9150610cd6565b509051903d90823e3d90fd5b509034610372576020366003190112610372578135610d32611548565b80156105ca57610d41336113ea565b92610d4b846115a5565b93828510610e0e57610d6f906104198460ff1997600189600654161760065561136c565b7f00000000000000000000000000000000000000000000000000000000000000006001600160a01b0316908590823b1561063857602484918387519586948593632e1a7d4d60e01b85528401525af18015610e0457610df1575b5083808080933382f115610de65750600654166006556001815580f35b51913d9150823e3d90fd5b610dfd9094919461118a565b9238610dc9565b83513d87823e3d90fd5b508251631e9acf1760e31b8152fd5b505034610638578160031936011261063857517f00000000000000000000000000000000000000000000000000000000000000006001600160a01b03168152602090f35b503461037257606036600319011261037257610e7b611159565b92610e84611174565b6044359284610e9e610604610e98336113ea565b986114ce565b6001600160a01b03848116865260056020908152838720918a16875252932054906000198210610ed7575b602086610693878787611b0e565b848210610efe575090610ef5602096856106939695940390836114e0565b90919238610ec9565b8551637dc7a0d960e11b81526001600160a01b03881691810191825260208201929092526040810185905281906060010390fd5b50903461037257826003193601126103725780516370a0823160e01b815230928101929092526020826024817f00000000000000000000000000000000000000000000000000000000000000006001600160a01b03165afa918215610776578392610fa2575b6020838351908152f35b9091506020813d602011610fd2575b81610fbe60209383611224565b810103126103725760209250519038610f98565b3d9150610fb1565b505034610638578060031936011261063857602090610693610ffa611159565b611003336113ea565b61100f602435926114ce565b906114e0565b50903461037257826003193601126103725780516306fdde0360e01b81529183908390817f00000000000000000000000000000000000000000000000000000000000000006001600160a01b03165afa918215610776578361074d94936110cc575b505061073b603482518094670283934bb30b1bc960c51b60208301526110a7815180926020602886019101611111565b81016b081dda5d1a08155cd95c925960a21b6028820152036014810185520183611224565b6110e19293503d8091833e6107668183611224565b903880611077565b84903461063857816003193601126106385780600080516020611cc483398151915260209252f35b60005b8381106111245750506000910152565b8181015183820152602001611114565b9060209161114d81518092818552858086019101611111565b601f01601f1916010190565b600435906001600160a01b038216820361116f57565b600080fd5b602435906001600160a01b038216820361116f57565b67ffffffffffffffff811161119e57604052565b634e487b7160e01b600052604160045260246000fd5b6060810190811067ffffffffffffffff82111761119e57604052565b60e0810190811067ffffffffffffffff82111761119e57604052565b6080810190811067ffffffffffffffff82111761119e57604052565b6020810190811067ffffffffffffffff82111761119e57604052565b90601f8019910116810190811067ffffffffffffffff82111761119e57604052565b61010060031982011261116f576040519060c0820182811067ffffffffffffffff82111761119e57604052600435600481101561116f5782526001600160a01b0390602435828116810361116f576020840152604435918216820361116f57606091604084015260643582840152608435608084015260a319011261116f576040516112d1816111b4565b60a435815260c435602082015260e435604082015260a082015290565b67ffffffffffffffff811161119e57601f01601f191660200190565b60208183031261116f5780519067ffffffffffffffff821161116f570181601f8201121561116f57805161133d816112ee565b9261134b6040519485611224565b8184526020828401011161116f576113699160208085019101611111565b90565b9190820391821161137957565b634e487b7160e01b600052601160045260246000fd5b803b158015906113b3575b6113a757611369906115a5565b6107bd611369916113ea565b506001600160a01b038116331461139a565b9081602091031261116f5751801515810361116f5790565b9190820180921161137957565b6001600160a01b0390811680156114bc5760015480156114aa5760009182916040519060208201928352604082015260408152611426816111b4565b51906002600160981b015afa61143a611c61565b90156114655760208151910151906020811061145557501690565b6000199060200360031b1b161690565b60405162461bcd60e51b815260206004820152601a60248201527f64657269766553796d6d65747269634b65793a206661696c65640000000000006044820152606490fd5b604051637145e31160e01b8152600490fd5b60405163d92e233d60e01b8152600490fd5b803b6114d75790565b611369906113ea565b6001600160a01b0390811691821561152f5716908115611516576000526005602052604060002090600052602052604060002055565b604051634a1406b160e11b815260006004820152602490fd5b60405163e602df0560e01b815260006004820152602490fd5b600260005414611559576002600055565b604051633ee5aeb560e01b8152600490fd5b90600182811c9216801561159b575b602083101461158557565b634e487b7160e01b600052602260045260246000fd5b91607f169161157a565b60009060018060a01b03168152602090600482526040812060405190818382546115ce8161156b565b93848452600191886001821691826000146116e35750506001146116a7575b50506115fb92500382611224565b8051156116a1578180916003549061163d6040519161161983611208565b84835261162f6040519384928a84019687611c91565b03601f198101835282611224565b51906004600160981b015afa90611652611c61565b911561166a5782828051810103126104e45750015190565b60405162461bcd60e51b815260048101849052600f60248201526e191958dc9e5c1d0e8819985a5b1959608a1b6044820152606490fd5b50905090565b87925086528186209086915b8583106116cb5750506115fb935082010138806115ed565b805483880185015286945088939092019181016116b3565b92509350506115fb94915060ff191682840152151560051b82010138806115ed565b9190916040805191602094858401528483528183019067ffffffffffffffff928483108484111761119e578281526003549461174084611208565b60008096819282875261175b85519788928d84019485611c91565b039561176f601f1997888101835282611224565b51906003600160981b015afa91611784611c61565b92156118ac576001600160a01b031685526004875284208151909490938411611898576117b1855461156b565b601f8111611855575b508692601f85116001146117f557508394959650926117ea575b50508160011b916000199060031b1c1916179055565b0151905038806117d4565b8493929193169685845280842093905b88821061183d57505083600195969710611824575b505050811b019055565b015160001960f88460031b161c1916905538808061181a565b80600185968294968601518155019501930190611805565b858252878220601f860160051c81019189871061188e575b601f0160051c01905b81811061188357506117ba565b828155600101611876565b909150819061186d565b634e487b7160e01b81526041600452602490fd5b815162461bcd60e51b815260048101899052600f60248201526e195b98dc9e5c1d0e8819985a5b1959608a1b6044820152606490fd5b6080810180514211611a925781519060049182811015611a5357611a8257825182811015611a535715611a68575b825182811015611a5357600314611a26575b82519180831015610b98575060206000608082860160a0600180821b03809781845116604098838a8d0151169060608d01519051918b51938b850195600080516020611cc483398151915287528d8601526060850152888401528583015260c082015260c08152611992816111d0565b5190209251169701519085518581019161190160f01b83527f000000000000000000000000000000000000000000000000000000000000000060228301526042820152604281526119e2816111ec565b5190209060ff8682015116908581519101519187519384528684015286830152606082015282805260015afa15611a1c5750600051161490565b513d6000823e3d90fd5b6060830151611a435760408301516001600160a01b031615611922575b5060405163291ded6160e01b8152fd5b602183634e487b7160e01b6000525260246000fd5b606083015115611910575060405163291ded6160e01b8152fd5b50604051635105556960e01b8152fd5b60405163f87d927160e01b8152600490fd5b611aad90611ad9565b600052600260205260ff60406000205416611ac757600090565b604051638baa579f60e01b8152600490fd5b8051906040602082015191015160405191602083019384526040830152606082015260608152611b08816111ec565b51902090565b92916001600160a01b0380851615611ba557821615611b8c57611b30846115a5565b93818510611b5a5790611b5893946104146104199361041984611b52886115a5565b9461136c565b565b60405163391434e360e21b81526001600160a01b03919091166004820152602481018590526044810191909152606490fd5b60405163ec442f0560e01b815260006004820152602490fd5b604051634b637e8f60e11b815260006004820152602490fd5b3415611c4f577f00000000000000000000000000000000000000000000000000000000000000006001600160a01b0316803b1561116f57600060049160405192838092630d0e30db60e41b825234905af18015611c4357611c34575b50611b58611c27336113ea565b61041934610414836115a5565b611c3d9061118a565b38611c1a565b6040513d6000823e3d90fd5b604051631f2a200560e01b8152600490fd5b3d15611c8c573d90611c72826112ee565b91611c806040519384611224565b82523d6000602084013e565b606090565b91611cb5906113699492600085526020850152608060408501526080840190611134565b91606081840391015261113456fedf30529b599cef851a2b7e4fc96b13d343aea28107d97873f3e0bc909d1e22c6a26469706673582212206e7ae67c5d6d405cdd4949beb5914020f7c41b71c0486ec87dfe491e3d65f75964736f6c63430008180033",
          "opcodes": "PUSH1 0xC0 PUSH1 0x40 SWAP1 DUP1 DUP3 MSTORE CALLVALUE PUSH3 0x288 JUMPI PUSH3 0x211F DUP1 CODESIZE SUB DUP1 SWAP2 PUSH3 0x22 DUP3 DUP6 PUSH3 0x28D JUMP JUMPDEST DUP4 CODECOPY DUP2 ADD DUP3 DUP3 DUP3 SUB SLT PUSH3 0x288 JUMPI DUP2 MLOAD PUSH1 0x1 PUSH1 0x1 PUSH1 0xA0 SHL SUB DUP2 AND SWAP3 SWAP1 DUP4 SWAP1 SUB PUSH3 0x288 JUMPI PUSH1 0x20 DUP2 DUP2 ADD MLOAD PUSH1 0x1 PUSH1 0x1 PUSH1 0x40 SHL SUB SWAP3 DUP4 DUP3 GT PUSH3 0x288 JUMPI ADD DUP4 PUSH1 0x1F DUP3 ADD SLT ISZERO PUSH3 0x288 JUMPI DUP1 MLOAD PUSH3 0x77 DUP2 PUSH3 0x2B1 JUMP JUMPDEST SWAP5 PUSH3 0x86 DUP9 MLOAD SWAP7 DUP8 PUSH3 0x28D JUMP JUMPDEST DUP2 DUP7 MSTORE DUP4 DUP3 DUP5 ADD ADD GT PUSH3 0x288 JUMPI PUSH3 0xA5 SWAP2 DUP4 DUP1 DUP8 ADD SWAP2 ADD PUSH3 0x2CD JUMP JUMPDEST DUP5 MLOAD SWAP4 PUSH1 0x60 DUP6 ADD DUP6 DUP2 LT DUP5 DUP3 GT OR PUSH3 0x272 JUMPI DUP7 MSTORE PUSH1 0x28 DUP6 MSTORE DUP2 DUP6 ADD SWAP5 PUSH32 0x5072697661637920455243323020546F6B656E2077697468205669727475616C DUP7 MSTORE PUSH8 0x2041646472657373 PUSH1 0xC0 SHL DUP8 DUP3 ADD MSTORE DUP7 MLOAD SWAP6 DUP8 DUP8 ADD DUP8 DUP2 LT DUP7 DUP3 GT OR PUSH3 0x272 JUMPI DUP9 MSTORE PUSH1 0x1 DUP8 MSTORE DUP4 DUP8 ADD SWAP2 PUSH1 0x31 PUSH1 0xF8 SHL DUP4 MSTORE PUSH1 0x0 SWAP7 PUSH1 0x1 DUP9 SSTORE PUSH1 0x1 SLOAD ISZERO PUSH3 0x259 JUMPI JUMPDEST POP MLOAD SWAP1 KECCAK256 SWAP6 MLOAD SWAP1 KECCAK256 DUP7 MLOAD SWAP3 DUP4 ADD SWAP6 PUSH32 0x8B73C3C69BB8FE3D512ECC4CF759CC79239F7B179B0FFACAA9A75D522B39400F DUP8 MSTORE DUP8 DUP5 ADD MSTORE PUSH1 0x60 DUP4 ADD MSTORE CHAINID PUSH1 0x80 DUP4 ADD MSTORE ADDRESS PUSH1 0xA0 DUP4 ADD MSTORE PUSH1 0xA0 DUP3 MSTORE PUSH1 0xC0 DUP3 ADD SWAP5 DUP3 DUP7 LT DUP5 DUP8 GT OR PUSH3 0x245 JUMPI DUP6 DUP8 MSTORE DUP3 MLOAD SWAP1 KECCAK256 PUSH1 0x80 MSTORE PUSH1 0xA0 MSTORE PUSH1 0xE0 ADD SWAP1 DUP2 GT DUP4 DUP3 LT OR PUSH3 0x231 JUMPI DUP4 MSTORE DUP2 MSTORE PUSH3 0x1BA SWAP1 PUSH3 0x1B4 SWAP1 PUSH3 0x316 JUMP JUMPDEST PUSH3 0x2F2 JUMP JUMPDEST PUSH1 0x3 SSTORE MLOAD PUSH2 0x1D19 SWAP1 DUP2 PUSH3 0x406 DUP3 CODECOPY PUSH1 0x80 MLOAD DUP2 DUP2 DUP2 PUSH2 0x225 ADD MSTORE DUP2 DUP2 PUSH2 0x91C ADD MSTORE DUP2 DUP2 PUSH2 0xAF9 ADD MSTORE DUP2 DUP2 PUSH2 0xC38 ADD MSTORE PUSH2 0x19AC ADD MSTORE PUSH1 0xA0 MLOAD DUP2 DUP2 DUP2 PUSH2 0x3C3 ADD MSTORE DUP2 DUP2 PUSH2 0x553 ADD MSTORE DUP2 DUP2 PUSH2 0x6C0 ADD MSTORE DUP2 DUP2 PUSH2 0xC82 ADD MSTORE DUP2 DUP2 PUSH2 0xD71 ADD MSTORE DUP2 DUP2 PUSH2 0xE32 ADD MSTORE DUP2 DUP2 PUSH2 0xF60 ADD MSTORE DUP2 DUP2 PUSH2 0x103B ADD MSTORE PUSH2 0x1BC6 ADD MSTORE RETURN JUMPDEST PUSH4 0x4E487B71 PUSH1 0xE0 SHL DUP3 MSTORE PUSH1 0x41 PUSH1 0x4 MSTORE PUSH1 0x24 DUP3 REVERT JUMPDEST PUSH4 0x4E487B71 PUSH1 0xE0 SHL DUP6 MSTORE PUSH1 0x41 PUSH1 0x4 MSTORE PUSH1 0x24 DUP6 REVERT JUMPDEST PUSH3 0x1B4 PUSH3 0x268 SWAP2 PUSH3 0x316 JUMP JUMPDEST PUSH1 0x1 SSTORE CODESIZE PUSH3 0x129 JUMP JUMPDEST PUSH4 0x4E487B71 PUSH1 0xE0 SHL PUSH1 0x0 MSTORE PUSH1 0x41 PUSH1 0x4 MSTORE PUSH1 0x24 PUSH1 0x0 REVERT JUMPDEST PUSH1 0x0 DUP1 REVERT JUMPDEST PUSH1 0x1F SWAP1 SWAP2 ADD PUSH1 0x1F NOT AND DUP2 ADD SWAP1 PUSH1 0x1 PUSH1 0x1 PUSH1 0x40 SHL SUB DUP3 GT SWAP1 DUP3 LT OR PUSH3 0x272 JUMPI PUSH1 0x40 MSTORE JUMP JUMPDEST PUSH1 0x1 PUSH1 0x1 PUSH1 0x40 SHL SUB DUP2 GT PUSH3 0x272 JUMPI PUSH1 0x1F ADD PUSH1 0x1F NOT AND PUSH1 0x20 ADD SWAP1 JUMP JUMPDEST PUSH1 0x0 JUMPDEST DUP4 DUP2 LT PUSH3 0x2E1 JUMPI POP POP PUSH1 0x0 SWAP2 ADD MSTORE JUMP JUMPDEST DUP2 DUP2 ADD MLOAD DUP4 DUP3 ADD MSTORE PUSH1 0x20 ADD PUSH3 0x2D0 JUMP JUMPDEST PUSH1 0x20 DUP2 MLOAD SWAP2 ADD MLOAD SWAP1 PUSH1 0x20 DUP2 LT PUSH3 0x307 JUMPI POP SWAP1 JUMP JUMPDEST PUSH1 0x0 NOT SWAP1 PUSH1 0x20 SUB PUSH1 0x3 SHL SHL AND SWAP1 JUMP JUMPDEST PUSH1 0x0 DUP1 SWAP2 PUSH1 0x40 MLOAD PUSH3 0x366 PUSH1 0x80 DUP3 PUSH1 0x20 DUP2 ADD SWAP5 PUSH1 0x20 DUP7 MSTORE PUSH1 0x40 DUP1 DUP4 ADD MSTORE PUSH3 0x34E DUP2 MLOAD DUP1 SWAP3 DUP2 PUSH1 0x60 DUP7 ADD MSTORE PUSH1 0x20 DUP7 DUP7 ADD SWAP2 ADD PUSH3 0x2CD JUMP JUMPDEST PUSH1 0x1F DUP1 NOT SWAP2 ADD AND DUP2 ADD SUB PUSH1 0x60 DUP2 ADD DUP5 MSTORE ADD DUP3 PUSH3 0x28D JUMP JUMPDEST MLOAD SWAP1 PUSH20 0x100000000000000000000000000000000000001 GAS STATICCALL RETURNDATASIZE ISZERO PUSH3 0x3FC JUMPI RETURNDATASIZE SWAP1 PUSH3 0x393 DUP3 PUSH3 0x2B1 JUMP JUMPDEST SWAP2 PUSH3 0x3A3 PUSH1 0x40 MLOAD SWAP4 DUP5 PUSH3 0x28D JUMP JUMPDEST DUP3 MSTORE RETURNDATASIZE PUSH1 0x0 PUSH1 0x20 DUP5 ADD RETURNDATACOPY JUMPDEST ISZERO PUSH3 0x3B7 JUMPI SWAP1 JUMP JUMPDEST PUSH1 0x40 MLOAD PUSH3 0x461BCD PUSH1 0xE5 SHL DUP2 MSTORE PUSH1 0x20 PUSH1 0x4 DUP3 ADD MSTORE PUSH1 0x13 PUSH1 0x24 DUP3 ADD MSTORE PUSH32 0x72616E646F6D42797465733A206661696C656400000000000000000000000000 PUSH1 0x44 DUP3 ADD MSTORE PUSH1 0x64 SWAP1 REVERT JUMPDEST PUSH1 0x60 SWAP1 PUSH3 0x3AE JUMP INVALID PUSH1 0x80 PUSH1 0x40 DUP2 DUP2 MSTORE PUSH1 0x4 DUP1 CALLDATASIZE LT ISZERO PUSH2 0x36 JUMPI JUMPDEST POP POP POP CALLDATASIZE ISZERO PUSH2 0x1F JUMPI PUSH1 0x0 DUP1 REVERT JUMPDEST PUSH1 0xFF PUSH1 0x6 SLOAD AND ISZERO PUSH2 0x2C JUMPI STOP JUMPDEST PUSH2 0x34 PUSH2 0x1BBE JUMP JUMPDEST STOP JUMPDEST PUSH1 0x0 SWAP3 DUP4 CALLDATALOAD PUSH1 0xE0 SHR SWAP1 DUP2 PUSH4 0x36E0708 EQ PUSH2 0x10E9 JUMPI POP DUP1 PUSH4 0x6FDDE03 EQ PUSH2 0x1015 JUMPI DUP1 PUSH4 0x95EA7B3 EQ PUSH2 0xFDA JUMPI DUP1 PUSH4 0x18160DDD EQ PUSH2 0xF32 JUMPI DUP1 PUSH4 0x23B872DD EQ PUSH2 0xE61 JUMPI DUP1 PUSH4 0x2495A599 EQ PUSH2 0xE1D JUMPI DUP1 PUSH4 0x2E1A7D4D EQ PUSH2 0xD15 JUMPI DUP1 PUSH4 0x313CE567 EQ PUSH2 0xC5B JUMPI DUP1 PUSH4 0x3644E515 EQ PUSH2 0xC20 JUMPI DUP1 PUSH4 0x51F4BAE9 EQ PUSH2 0xA1C JUMPI DUP1 PUSH4 0x70A08231 EQ PUSH2 0x9F6 JUMPI DUP1 PUSH4 0x7986B37D EQ PUSH2 0x827 JUMPI DUP1 PUSH4 0x93355F42 EQ PUSH2 0x7D7 JUMPI DUP1 PUSH4 0x940CF112 EQ PUSH2 0x780 JUMPI DUP1 PUSH4 0x95D89B41 EQ PUSH2 0x69A JUMPI DUP1 PUSH4 0xA9059CBB EQ PUSH2 0x658 JUMPI DUP1 PUSH4 0xD0E30DB0 EQ PUSH2 0x63C JUMPI DUP1 PUSH4 0xDD62ED3E EQ PUSH2 0x5D8 JUMPI DUP1 PUSH4 0xDE0E9A3E EQ PUSH2 0x4E7 JUMPI DUP1 PUSH4 0xE35AC9FB EQ PUSH2 0x470 JUMPI DUP1 PUSH4 0xEA598CB0 EQ PUSH2 0x376 JUMPI PUSH4 0xEB06F992 SUB PUSH2 0x11 JUMPI CALLVALUE PUSH2 0x372 JUMPI PUSH2 0x13F CALLDATASIZE PUSH2 0x1246 JUMP JUMPDEST PUSH2 0x147 PUSH2 0x1548 JUMP JUMPDEST PUSH1 0xA0 DUP2 ADD DUP1 MLOAD SWAP2 PUSH2 0x157 DUP4 PUSH2 0x1AA4 JUMP JUMPDEST POP PUSH1 0x80 DUP2 ADD DUP1 MLOAD TIMESTAMP GT PUSH2 0x362 JUMPI DUP2 MLOAD DUP6 DUP2 LT ISZERO PUSH2 0x2F7 JUMPI PUSH1 0x1 SUB PUSH2 0x352 JUMPI DUP2 MLOAD DUP6 DUP2 LT ISZERO PUSH2 0x2F7 JUMPI ISZERO PUSH2 0x338 JUMPI JUMPDEST DUP2 MLOAD DUP6 DUP2 LT ISZERO PUSH2 0x2F7 JUMPI PUSH1 0x3 EQ PUSH2 0x30C JUMPI JUMPDEST DUP2 MLOAD SWAP3 DUP6 DUP5 LT ISZERO PUSH2 0x2F7 JUMPI PUSH1 0x20 SWAP6 DUP7 DUP5 ADD SWAP2 DUP8 PUSH1 0x0 PUSH1 0x80 DUP12 PUSH1 0x1 DUP1 PUSH1 0xA0 SHL SUB SWAP10 DUP11 SWAP9 DUP10 DUP10 MLOAD AND SWAP1 PUSH1 0x60 DUP5 DUP14 ADD SWAP14 DUP15 MLOAD AND SWAP13 ADD SWAP12 DUP13 MLOAD SWAP2 MLOAD SWAP3 DUP6 MLOAD SWAP5 DUP10 DUP7 ADD SWAP7 PUSH1 0x0 DUP1 MLOAD PUSH1 0x20 PUSH2 0x1CC4 DUP4 CODECOPY DUP2 MLOAD SWAP2 MSTORE DUP9 MSTORE DUP7 ADD MSTORE PUSH1 0x60 DUP6 ADD MSTORE DUP6 DUP5 ADD MSTORE PUSH1 0xA0 DUP4 ADD MSTORE PUSH1 0xC0 DUP3 ADD MSTORE PUSH1 0xC0 DUP2 MSTORE PUSH2 0x20A DUP2 PUSH2 0x11D0 JUMP JUMPDEST MLOAD SWAP1 KECCAK256 DUP13 DUP9 DUP9 MLOAD AND SWAP6 MLOAD SWAP2 DUP2 MLOAD DUP7 DUP2 ADD SWAP2 PUSH2 0x1901 PUSH1 0xF0 SHL DUP4 MSTORE PUSH32 0x0 PUSH1 0x22 DUP4 ADD MSTORE PUSH1 0x42 DUP3 ADD MSTORE PUSH1 0x42 DUP2 MSTORE PUSH2 0x25B DUP2 PUSH2 0x11EC JUMP JUMPDEST MLOAD SWAP1 KECCAK256 SWAP2 PUSH1 0xFF DUP3 DUP3 ADD MLOAD AND SWAP2 DUP7 DUP3 MLOAD SWAP3 ADD MLOAD SWAP3 DUP2 MLOAD SWAP5 DUP6 MSTORE DUP8 DUP6 ADD MSTORE DUP4 ADD MSTORE PUSH1 0x60 DUP3 ADD MSTORE DUP3 DUP1 MSTORE PUSH1 0x1 GAS STATICCALL ISZERO PUSH2 0x2EC JUMPI DUP4 PUSH1 0x0 MLOAD AND SUB PUSH2 0x2DE JUMPI POP SWAP3 PUSH1 0x2 SWAP6 SWAP5 SWAP3 PUSH2 0x2BA DUP4 PUSH2 0x2B2 PUSH2 0x2C2 SWAP6 PUSH2 0x2C7 SWAP9 MLOAD AND PUSH2 0x13EA JUMP JUMPDEST SWAP4 MLOAD AND PUSH2 0x14CE JUMP JUMPDEST SWAP1 MLOAD SWAP2 PUSH2 0x1B0E JUMP JUMPDEST PUSH2 0x1AD9 JUMP JUMPDEST DUP5 MSTORE MSTORE DUP2 KECCAK256 PUSH1 0x1 PUSH1 0xFF NOT DUP3 SLOAD AND OR SWAP1 SSTORE PUSH1 0x1 DUP2 SSTORE DUP1 RETURN JUMPDEST DUP8 MLOAD PUSH4 0x3BFCDEB PUSH1 0xE2 SHL DUP2 MSTORE REVERT JUMPDEST DUP9 MLOAD RETURNDATASIZE PUSH1 0x0 DUP3 RETURNDATACOPY RETURNDATASIZE SWAP1 REVERT JUMPDEST PUSH1 0x21 DUP7 PUSH4 0x4E487B71 PUSH1 0xE0 SHL PUSH1 0x0 MSTORE MSTORE PUSH1 0x24 PUSH1 0x0 REVERT JUMPDEST PUSH1 0x60 DUP3 ADD MLOAD PUSH2 0x328 JUMPI DUP2 DUP7 ADD MLOAD PUSH1 0x1 PUSH1 0x1 PUSH1 0xA0 SHL SUB AND ISZERO PUSH2 0x197 JUMPI JUMPDEST DUP6 MLOAD PUSH4 0x291DED61 PUSH1 0xE0 SHL DUP2 MSTORE DUP6 SWAP1 REVERT JUMPDEST PUSH1 0x60 DUP3 ADD MLOAD ISZERO PUSH2 0x185 JUMPI DUP6 MLOAD PUSH4 0x291DED61 PUSH1 0xE0 SHL DUP2 MSTORE DUP6 SWAP1 REVERT JUMPDEST DUP6 MLOAD PUSH4 0x51055569 PUSH1 0xE0 SHL DUP2 MSTORE DUP6 SWAP1 REVERT JUMPDEST DUP6 MLOAD PUSH4 0xF87D9271 PUSH1 0xE0 SHL DUP2 MSTORE DUP6 SWAP1 REVERT JUMPDEST DUP3 DUP1 REVERT JUMPDEST POP CALLVALUE PUSH2 0x372 JUMPI PUSH1 0x20 CALLDATASIZE PUSH1 0x3 NOT ADD SLT PUSH2 0x372 JUMPI DUP1 CALLDATALOAD SWAP1 PUSH2 0x393 PUSH2 0x1548 JUMP JUMPDEST DUP2 ISZERO PUSH2 0x462 JUMPI DUP3 MLOAD PUSH4 0x23B872DD PUSH1 0xE0 SHL DUP2 MSTORE CALLER SWAP2 DUP2 ADD SWAP2 SWAP1 SWAP2 MSTORE ADDRESS PUSH1 0x24 DUP3 ADD MSTORE PUSH1 0x44 DUP2 ADD DUP3 SWAP1 MSTORE PUSH1 0x20 DUP2 PUSH1 0x64 DUP2 DUP8 PUSH32 0x0 PUSH1 0x1 PUSH1 0x1 PUSH1 0xA0 SHL SUB AND GAS CALL DUP1 ISZERO PUSH2 0x455 JUMPI PUSH2 0x41F SWAP4 POP PUSH2 0x426 JUMPI JUMPDEST POP PUSH2 0x419 PUSH2 0x40A CALLER PUSH2 0x13EA JUMP JUMPDEST SWAP2 PUSH2 0x414 DUP4 PUSH2 0x15A5 JUMP JUMPDEST PUSH2 0x13DD JUMP JUMPDEST SWAP1 PUSH2 0x1705 JUMP JUMPDEST PUSH1 0x1 DUP2 SSTORE DUP1 RETURN JUMPDEST PUSH2 0x447 SWAP1 PUSH1 0x20 RETURNDATASIZE PUSH1 0x20 GT PUSH2 0x44E JUMPI JUMPDEST PUSH2 0x43F DUP2 DUP4 PUSH2 0x1224 JUMP JUMPDEST DUP2 ADD SWAP1 PUSH2 0x13C5 JUMP JUMPDEST POP CODESIZE PUSH2 0x3FD JUMP JUMPDEST POP RETURNDATASIZE PUSH2 0x435 JUMP JUMPDEST POP POP POP MLOAD SWAP1 RETURNDATASIZE SWAP1 DUP3 RETURNDATACOPY RETURNDATASIZE SWAP1 REVERT JUMPDEST DUP3 MLOAD PUSH4 0x1F2A2005 PUSH1 0xE0 SHL DUP2 MSTORE REVERT JUMPDEST POP SWAP2 CALLVALUE PUSH2 0x4E4 JUMPI PUSH2 0x480 CALLDATASIZE PUSH2 0x1246 JUMP JUMPDEST SWAP1 PUSH2 0x48A DUP3 PUSH2 0x18E2 JUMP JUMPDEST ISZERO PUSH2 0x4D5 JUMPI PUSH1 0x20 SWAP4 POP DUP3 PUSH1 0x1 DUP1 PUSH1 0xA0 SHL SUB SWAP2 DUP3 PUSH2 0x4B9 DUP2 DUP5 PUSH2 0x4B0 DUP3 DUP12 DUP11 ADD MLOAD AND PUSH2 0x13EA JUMP JUMPDEST SWAP8 ADD MLOAD AND PUSH2 0x14CE JUMP JUMPDEST SWAP5 AND DUP2 MSTORE PUSH1 0x5 DUP7 MSTORE KECCAK256 SWAP2 AND PUSH1 0x0 MSTORE DUP3 MSTORE DUP1 PUSH1 0x0 KECCAK256 SLOAD SWAP1 MLOAD SWAP1 DUP2 MSTORE RETURN JUMPDEST POP POP MLOAD PUSH4 0x3BFCDEB PUSH1 0xE2 SHL DUP2 MSTORE REVERT JUMPDEST DUP1 REVERT JUMPDEST POP SWAP1 CALLVALUE PUSH2 0x372 JUMPI PUSH1 0x20 CALLDATASIZE PUSH1 0x3 NOT ADD SLT PUSH2 0x372 JUMPI DUP2 CALLDATALOAD PUSH2 0x504 PUSH2 0x1548 JUMP JUMPDEST DUP1 ISZERO PUSH2 0x5CA JUMPI PUSH2 0x513 CALLER PUSH2 0x13EA JUMP JUMPDEST PUSH2 0x51C DUP2 PUSH2 0x15A5 JUMP JUMPDEST DUP3 DUP2 LT PUSH2 0x5BA JUMPI SWAP1 PUSH2 0x419 DUP4 PUSH2 0x531 SWAP4 PUSH2 0x136C JUMP JUMPDEST DUP2 MLOAD PUSH4 0xA9059CBB PUSH1 0xE0 SHL DUP2 MSTORE CALLER SWAP4 DUP2 ADD SWAP4 SWAP1 SWAP4 MSTORE PUSH1 0x24 DUP4 ADD MSTORE PUSH1 0x20 DUP3 PUSH1 0x44 DUP2 DUP7 PUSH32 0x0 PUSH1 0x1 PUSH1 0x1 PUSH1 0xA0 SHL SUB AND GAS CALL SWAP1 DUP2 ISZERO PUSH2 0x5B1 JUMPI POP PUSH2 0x592 JUMPI JUMPDEST POP PUSH1 0x1 DUP2 SSTORE DUP1 RETURN JUMPDEST PUSH2 0x5AA SWAP1 PUSH1 0x20 RETURNDATASIZE PUSH1 0x20 GT PUSH2 0x44E JUMPI PUSH2 0x43F DUP2 DUP4 PUSH2 0x1224 JUMP JUMPDEST POP CODESIZE PUSH2 0x58A JUMP JUMPDEST MLOAD RETURNDATASIZE DUP5 DUP3 RETURNDATACOPY RETURNDATASIZE SWAP1 REVERT JUMPDEST POP POP POP MLOAD PUSH4 0x1E9ACF17 PUSH1 0xE3 SHL DUP2 MSTORE REVERT JUMPDEST POP MLOAD PUSH4 0x1F2A2005 PUSH1 0xE0 SHL DUP2 MSTORE REVERT JUMPDEST POP POP CALLVALUE PUSH2 0x638 JUMPI DUP1 PUSH1 0x3 NOT CALLDATASIZE ADD SLT PUSH2 0x638 JUMPI PUSH1 0x20 SWAP2 PUSH2 0x5F5 PUSH2 0x1159 JUMP JUMPDEST DUP3 PUSH2 0x610 PUSH2 0x60A PUSH2 0x604 PUSH2 0x1174 JUMP JUMPDEST SWAP4 PUSH2 0x14CE JUMP JUMPDEST SWAP3 PUSH2 0x14CE JUMP JUMPDEST PUSH1 0x1 PUSH1 0x1 PUSH1 0xA0 SHL SUB SWAP3 DUP4 AND DUP5 MSTORE PUSH1 0x5 DUP7 MSTORE SWAP3 KECCAK256 SWAP2 AND PUSH1 0x0 SWAP1 DUP2 MSTORE SWAP1 DUP4 MSTORE DUP2 SWAP1 KECCAK256 SLOAD SWAP1 MLOAD SWAP1 DUP2 MSTORE RETURN JUMPDEST POP DUP1 REVERT JUMPDEST DUP4 DUP1 PUSH1 0x3 NOT CALLDATASIZE ADD SLT PUSH2 0x4E4 JUMPI PUSH2 0x650 PUSH2 0x1548 JUMP JUMPDEST PUSH2 0x41F PUSH2 0x1BBE JUMP JUMPDEST POP POP CALLVALUE PUSH2 0x638 JUMPI DUP1 PUSH1 0x3 NOT CALLDATASIZE ADD SLT PUSH2 0x638 JUMPI PUSH1 0x20 SWAP1 PUSH2 0x693 PUSH2 0x678 PUSH2 0x1159 JUMP JUMPDEST PUSH2 0x681 CALLER PUSH2 0x13EA JUMP JUMPDEST PUSH2 0x68D PUSH1 0x24 CALLDATALOAD SWAP3 PUSH2 0x14CE JUMP JUMPDEST SWAP1 PUSH2 0x1B0E JUMP JUMPDEST MLOAD PUSH1 0x1 DUP2 MSTORE RETURN JUMPDEST POP SWAP1 CALLVALUE PUSH2 0x372 JUMPI DUP3 PUSH1 0x3 NOT CALLDATASIZE ADD SLT PUSH2 0x372 JUMPI DUP1 MLOAD PUSH4 0x95D89B41 PUSH1 0xE0 SHL DUP2 MSTORE SWAP2 DUP4 SWAP1 DUP4 SWAP1 DUP2 PUSH32 0x0 PUSH1 0x1 PUSH1 0x1 PUSH1 0xA0 SHL SUB AND GAS STATICCALL SWAP2 DUP3 ISZERO PUSH2 0x776 JUMPI DUP4 PUSH2 0x74D SWAP5 SWAP4 PUSH2 0x751 JUMPI JUMPDEST POP POP PUSH2 0x73B PUSH1 0x28 DUP3 MLOAD DUP5 PUSH2 0x71A DUP3 SWAP7 MLOAD DUP1 SWAP3 PUSH1 0x20 DUP1 DUP7 ADD SWAP2 ADD PUSH2 0x1111 JUMP JUMPDEST DUP2 ADD PUSH8 0x2E50726976616379 PUSH1 0xC0 SHL PUSH1 0x20 DUP3 ADD MSTORE SUB PUSH1 0x8 DUP2 ADD DUP6 MSTORE ADD DUP4 PUSH2 0x1224 JUMP JUMPDEST MLOAD SWAP2 DUP3 SWAP2 PUSH1 0x20 DUP4 MSTORE PUSH1 0x20 DUP4 ADD SWAP1 PUSH2 0x1134 JUMP JUMPDEST SUB SWAP1 RETURN JUMPDEST PUSH2 0x76E SWAP3 SWAP4 POP RETURNDATASIZE DUP1 SWAP2 DUP4 RETURNDATACOPY PUSH2 0x766 DUP2 DUP4 PUSH2 0x1224 JUMP JUMPDEST DUP2 ADD SWAP1 PUSH2 0x130A JUMP JUMPDEST SWAP1 CODESIZE DUP1 PUSH2 0x6FC JUMP JUMPDEST DUP2 MLOAD RETURNDATASIZE DUP6 DUP3 RETURNDATACOPY RETURNDATASIZE SWAP1 REVERT JUMPDEST POP SWAP2 CALLVALUE PUSH2 0x4E4 JUMPI POP PUSH2 0x791 CALLDATASIZE PUSH2 0x1246 JUMP JUMPDEST SWAP2 PUSH2 0x79B DUP4 PUSH2 0x18E2 JUMP JUMPDEST ISZERO PUSH2 0x7C9 JUMPI POP PUSH1 0x20 SWAP2 DUP3 ADD MLOAD PUSH2 0x7C2 SWAP1 PUSH2 0x7BD SWAP1 PUSH1 0x1 PUSH1 0x1 PUSH1 0xA0 SHL SUB AND PUSH2 0x13EA JUMP JUMPDEST PUSH2 0x15A5 JUMP JUMPDEST SWAP1 MLOAD SWAP1 DUP2 MSTORE RETURN JUMPDEST SWAP1 MLOAD PUSH4 0x3BFCDEB PUSH1 0xE2 SHL DUP2 MSTORE REVERT JUMPDEST POP CALLVALUE PUSH2 0x372 JUMPI PUSH1 0x60 CALLDATASIZE PUSH1 0x3 NOT ADD SLT PUSH2 0x372 JUMPI DUP2 PUSH1 0x20 SWAP4 PUSH2 0x815 PUSH1 0xFF SWAP4 DUP4 MLOAD SWAP1 PUSH2 0x7FF DUP3 PUSH2 0x11B4 JUMP JUMPDEST CALLDATALOAD DUP2 MSTORE PUSH1 0x24 CALLDATALOAD DUP8 DUP3 ADD MSTORE PUSH1 0x44 CALLDATALOAD DUP5 DUP3 ADD MSTORE PUSH2 0x1AD9 JUMP JUMPDEST DUP2 MSTORE PUSH1 0x2 DUP6 MSTORE KECCAK256 SLOAD AND SWAP1 MLOAD SWAP1 ISZERO ISZERO DUP2 MSTORE RETURN JUMPDEST POP CALLVALUE PUSH2 0x372 JUMPI PUSH2 0x836 CALLDATASIZE PUSH2 0x1246 JUMP JUMPDEST PUSH2 0x83E PUSH2 0x1548 JUMP JUMPDEST PUSH1 0xA0 DUP2 ADD DUP1 MLOAD SWAP2 PUSH2 0x84E DUP4 PUSH2 0x1AA4 JUMP JUMPDEST POP PUSH1 0x80 DUP2 ADD DUP1 MLOAD TIMESTAMP GT PUSH2 0x362 JUMPI DUP2 MLOAD DUP6 DUP2 LT ISZERO PUSH2 0x2F7 JUMPI PUSH1 0x2 SUB PUSH2 0x352 JUMPI DUP2 MLOAD DUP6 DUP2 LT ISZERO PUSH2 0x2F7 JUMPI ISZERO PUSH2 0x9DC JUMPI JUMPDEST DUP2 MLOAD DUP6 DUP2 LT ISZERO PUSH2 0x2F7 JUMPI PUSH1 0x3 EQ PUSH2 0x9B1 JUMPI JUMPDEST DUP2 MLOAD SWAP3 DUP6 DUP5 LT ISZERO PUSH2 0x2F7 JUMPI PUSH1 0x20 SWAP6 DUP7 DUP5 ADD SWAP2 DUP8 PUSH1 0x0 PUSH1 0x80 DUP12 PUSH1 0x1 DUP1 PUSH1 0xA0 SHL SUB SWAP10 DUP11 SWAP9 DUP10 DUP10 MLOAD AND SWAP1 PUSH1 0x60 DUP5 DUP14 ADD SWAP14 DUP15 MLOAD AND SWAP13 ADD SWAP12 DUP13 MLOAD SWAP2 MLOAD SWAP3 DUP6 MLOAD SWAP5 DUP10 DUP7 ADD SWAP7 PUSH1 0x0 DUP1 MLOAD PUSH1 0x20 PUSH2 0x1CC4 DUP4 CODECOPY DUP2 MLOAD SWAP2 MSTORE DUP9 MSTORE DUP7 ADD MSTORE PUSH1 0x60 DUP6 ADD MSTORE DUP6 DUP5 ADD MSTORE PUSH1 0xA0 DUP4 ADD MSTORE PUSH1 0xC0 DUP3 ADD MSTORE PUSH1 0xC0 DUP2 MSTORE PUSH2 0x901 DUP2 PUSH2 0x11D0 JUMP JUMPDEST MLOAD SWAP1 KECCAK256 DUP13 DUP9 DUP9 MLOAD AND SWAP6 MLOAD SWAP2 DUP2 MLOAD DUP7 DUP2 ADD SWAP2 PUSH2 0x1901 PUSH1 0xF0 SHL DUP4 MSTORE PUSH32 0x0 PUSH1 0x22 DUP4 ADD MSTORE PUSH1 0x42 DUP3 ADD MSTORE PUSH1 0x42 DUP2 MSTORE PUSH2 0x952 DUP2 PUSH2 0x11EC JUMP JUMPDEST MLOAD SWAP1 KECCAK256 SWAP2 PUSH1 0xFF DUP3 DUP3 ADD MLOAD AND SWAP2 DUP7 DUP3 MLOAD SWAP3 ADD MLOAD SWAP3 DUP2 MLOAD SWAP5 DUP6 MSTORE DUP8 DUP6 ADD MSTORE DUP4 ADD MSTORE PUSH1 0x60 DUP3 ADD MSTORE DUP3 DUP1 MSTORE PUSH1 0x1 GAS STATICCALL ISZERO PUSH2 0x2EC JUMPI DUP4 PUSH1 0x0 MLOAD AND SUB PUSH2 0x2DE JUMPI POP SWAP3 PUSH1 0x2 SWAP6 SWAP5 SWAP3 PUSH2 0x9A9 DUP4 PUSH2 0x2B2 PUSH2 0x2C2 SWAP6 PUSH2 0x2C7 SWAP9 MLOAD AND PUSH2 0x13EA JUMP JUMPDEST SWAP1 MLOAD SWAP2 PUSH2 0x14E0 JUMP JUMPDEST PUSH1 0x60 DUP3 ADD MLOAD PUSH2 0x328 JUMPI DUP2 DUP7 ADD MLOAD PUSH1 0x1 PUSH1 0x1 PUSH1 0xA0 SHL SUB AND ISZERO PUSH2 0x88E JUMPI DUP6 MLOAD PUSH4 0x291DED61 PUSH1 0xE0 SHL DUP2 MSTORE DUP6 SWAP1 REVERT JUMPDEST PUSH1 0x60 DUP3 ADD MLOAD ISZERO PUSH2 0x87C JUMPI DUP6 MLOAD PUSH4 0x291DED61 PUSH1 0xE0 SHL DUP2 MSTORE DUP6 SWAP1 REVERT JUMPDEST POP POP CALLVALUE PUSH2 0x638 JUMPI PUSH1 0x20 CALLDATASIZE PUSH1 0x3 NOT ADD SLT PUSH2 0x638 JUMPI PUSH1 0x20 SWAP1 PUSH2 0x7C2 PUSH2 0xA17 PUSH2 0x1159 JUMP JUMPDEST PUSH2 0x138F JUMP JUMPDEST POP SWAP2 CALLVALUE PUSH2 0x4E4 JUMPI POP PUSH2 0xA2D CALLDATASIZE PUSH2 0x1246 JUMP JUMPDEST SWAP2 PUSH1 0x80 DUP4 ADD SWAP1 DUP2 MLOAD TIMESTAMP GT PUSH2 0xC12 JUMPI DUP4 MLOAD DUP2 DUP2 LT ISZERO PUSH2 0xBD7 JUMPI PUSH1 0x3 SUB PUSH2 0xC04 JUMPI DUP4 MLOAD DUP2 DUP2 LT ISZERO PUSH2 0xBD7 JUMPI ISZERO PUSH2 0xBEC JUMPI JUMPDEST DUP4 MLOAD DUP2 DUP2 LT ISZERO PUSH2 0xBD7 JUMPI PUSH1 0x3 EQ PUSH2 0xBAD JUMPI JUMPDEST DUP4 MLOAD SWAP1 DUP1 DUP3 LT ISZERO PUSH2 0xB98 JUMPI PUSH1 0x20 SWAP5 DUP6 PUSH1 0x0 PUSH1 0x80 DUP8 DUP4 DUP6 ADD SWAP7 PUSH1 0x1 DUP1 PUSH1 0xA0 SHL SUB SWAP9 DUP10 DUP10 MLOAD AND SWAP1 DUP11 DUP5 DUP10 ADD MLOAD AND PUSH1 0x60 DUP10 ADD MLOAD SWAP2 MLOAD SWAP3 DUP6 MLOAD SWAP5 DUP10 DUP7 ADD SWAP7 PUSH1 0x0 DUP1 MLOAD PUSH1 0x20 PUSH2 0x1CC4 DUP4 CODECOPY DUP2 MLOAD SWAP2 MSTORE DUP9 MSTORE DUP7 ADD MSTORE PUSH1 0x60 DUP6 ADD MSTORE DUP6 DUP5 ADD MSTORE PUSH1 0xA0 DUP4 ADD MSTORE PUSH1 0xC0 DUP3 ADD MSTORE PUSH1 0xC0 DUP2 MSTORE PUSH2 0xADC DUP2 PUSH2 0x11D0 JUMP JUMPDEST MLOAD SWAP1 KECCAK256 PUSH1 0xA0 DUP9 DUP9 MLOAD AND SWAP6 ADD MLOAD SWAP1 DUP10 MLOAD DUP6 DUP2 ADD SWAP2 PUSH2 0x1901 PUSH1 0xF0 SHL DUP4 MSTORE PUSH32 0x0 PUSH1 0x22 DUP4 ADD MSTORE PUSH1 0x42 DUP3 ADD MSTORE PUSH1 0x42 DUP2 MSTORE PUSH2 0xB2F DUP2 PUSH2 0x11EC JUMP JUMPDEST MLOAD SWAP1 KECCAK256 SWAP1 PUSH1 0xFF DUP11 DUP3 ADD MLOAD AND SWAP1 DUP6 DUP2 MLOAD SWAP2 ADD MLOAD SWAP2 DUP12 MLOAD SWAP4 DUP5 MSTORE DUP7 DUP5 ADD MSTORE DUP11 DUP4 ADD MSTORE PUSH1 0x60 DUP3 ADD MSTORE DUP3 DUP1 MSTORE PUSH1 0x1 GAS STATICCALL ISZERO PUSH2 0xB8D JUMPI DUP4 PUSH1 0x0 MLOAD AND SUB PUSH2 0xB7F JUMPI POP DUP2 PUSH2 0xB77 SWAP2 MLOAD AND PUSH2 0x13EA JUMP JUMPDEST SWAP2 MLOAD SWAP2 AND DUP2 MSTORE RETURN JUMPDEST DUP4 MLOAD PUSH4 0x3BFCDEB PUSH1 0xE2 SHL DUP2 MSTORE REVERT JUMPDEST DUP5 MLOAD RETURNDATASIZE PUSH1 0x0 DUP3 RETURNDATACOPY RETURNDATASIZE SWAP1 REVERT JUMPDEST PUSH1 0x21 SWAP1 PUSH4 0x4E487B71 PUSH1 0xE0 SHL PUSH1 0x0 MSTORE MSTORE PUSH1 0x24 PUSH1 0x0 REVERT JUMPDEST PUSH1 0x60 DUP5 ADD MLOAD PUSH2 0xBC9 JUMPI DUP4 DUP4 ADD MLOAD PUSH1 0x1 PUSH1 0x1 PUSH1 0xA0 SHL SUB AND ISZERO PUSH2 0xA6E JUMPI JUMPDEST DUP3 MLOAD PUSH4 0x291DED61 PUSH1 0xE0 SHL DUP2 MSTORE REVERT JUMPDEST PUSH1 0x21 DUP3 PUSH4 0x4E487B71 PUSH1 0xE0 SHL PUSH1 0x0 MSTORE MSTORE PUSH1 0x24 PUSH1 0x0 REVERT JUMPDEST PUSH1 0x60 DUP5 ADD MLOAD ISZERO PUSH2 0xA5C JUMPI DUP3 MLOAD PUSH4 0x291DED61 PUSH1 0xE0 SHL DUP2 MSTORE REVERT JUMPDEST DUP3 MLOAD PUSH4 0x51055569 PUSH1 0xE0 SHL DUP2 MSTORE REVERT JUMPDEST DUP3 MLOAD PUSH4 0xF87D9271 PUSH1 0xE0 SHL DUP2 MSTORE REVERT JUMPDEST POP POP CALLVALUE PUSH2 0x638 JUMPI DUP2 PUSH1 0x3 NOT CALLDATASIZE ADD SLT PUSH2 0x638 JUMPI PUSH1 0x20 SWAP1 MLOAD PUSH32 0x0 DUP2 MSTORE RETURN JUMPDEST POP SWAP2 CALLVALUE PUSH2 0x4E4 JUMPI DUP1 PUSH1 0x3 NOT CALLDATASIZE ADD SLT PUSH2 0x4E4 JUMPI DUP2 MLOAD PUSH4 0x313CE567 PUSH1 0xE0 SHL DUP2 MSTORE SWAP3 PUSH1 0x20 SWAP1 DUP5 SWAP1 DUP2 PUSH32 0x0 PUSH1 0x1 PUSH1 0x1 PUSH1 0xA0 SHL SUB AND GAS STATICCALL SWAP3 DUP4 ISZERO PUSH2 0xD09 JUMPI DUP2 SWAP4 PUSH2 0xCC7 JUMPI JUMPDEST PUSH1 0x20 DUP5 PUSH1 0xFF DUP6 MLOAD SWAP2 AND DUP2 MSTORE RETURN JUMPDEST SWAP1 SWAP3 POP PUSH1 0x20 DUP2 RETURNDATASIZE PUSH1 0x20 GT PUSH2 0xD01 JUMPI JUMPDEST DUP2 PUSH2 0xCE3 PUSH1 0x20 SWAP4 DUP4 PUSH2 0x1224 JUMP JUMPDEST DUP2 ADD SUB SLT PUSH2 0x372 JUMPI MLOAD SWAP2 PUSH1 0xFF DUP4 AND DUP4 SUB PUSH2 0x4E4 JUMPI POP PUSH1 0xFF PUSH1 0x20 PUSH2 0xCBA JUMP JUMPDEST RETURNDATASIZE SWAP2 POP PUSH2 0xCD6 JUMP JUMPDEST POP SWAP1 MLOAD SWAP1 RETURNDATASIZE SWAP1 DUP3 RETURNDATACOPY RETURNDATASIZE SWAP1 REVERT JUMPDEST POP SWAP1 CALLVALUE PUSH2 0x372 JUMPI PUSH1 0x20 CALLDATASIZE PUSH1 0x3 NOT ADD SLT PUSH2 0x372 JUMPI DUP2 CALLDATALOAD PUSH2 0xD32 PUSH2 0x1548 JUMP JUMPDEST DUP1 ISZERO PUSH2 0x5CA JUMPI PUSH2 0xD41 CALLER PUSH2 0x13EA JUMP JUMPDEST SWAP3 PUSH2 0xD4B DUP5 PUSH2 0x15A5 JUMP JUMPDEST SWAP4 DUP3 DUP6 LT PUSH2 0xE0E JUMPI PUSH2 0xD6F SWAP1 PUSH2 0x419 DUP5 PUSH1 0xFF NOT SWAP8 PUSH1 0x1 DUP10 PUSH1 0x6 SLOAD AND OR PUSH1 0x6 SSTORE PUSH2 0x136C JUMP JUMPDEST PUSH32 0x0 PUSH1 0x1 PUSH1 0x1 PUSH1 0xA0 SHL SUB AND SWAP1 DUP6 SWAP1 DUP3 EXTCODESIZE ISZERO PUSH2 0x638 JUMPI PUSH1 0x24 DUP5 SWAP2 DUP4 DUP8 MLOAD SWAP6 DUP7 SWAP5 DUP6 SWAP4 PUSH4 0x2E1A7D4D PUSH1 0xE0 SHL DUP6 MSTORE DUP5 ADD MSTORE GAS CALL DUP1 ISZERO PUSH2 0xE04 JUMPI PUSH2 0xDF1 JUMPI JUMPDEST POP DUP4 DUP1 DUP1 DUP1 SWAP4 CALLER DUP3 CALL ISZERO PUSH2 0xDE6 JUMPI POP PUSH1 0x6 SLOAD AND PUSH1 0x6 SSTORE PUSH1 0x1 DUP2 SSTORE DUP1 RETURN JUMPDEST MLOAD SWAP2 RETURNDATASIZE SWAP2 POP DUP3 RETURNDATACOPY RETURNDATASIZE SWAP1 REVERT JUMPDEST PUSH2 0xDFD SWAP1 SWAP5 SWAP2 SWAP5 PUSH2 0x118A JUMP JUMPDEST SWAP3 CODESIZE PUSH2 0xDC9 JUMP JUMPDEST DUP4 MLOAD RETURNDATASIZE DUP8 DUP3 RETURNDATACOPY RETURNDATASIZE SWAP1 REVERT JUMPDEST POP DUP3 MLOAD PUSH4 0x1E9ACF17 PUSH1 0xE3 SHL DUP2 MSTORE REVERT JUMPDEST POP POP CALLVALUE PUSH2 0x638 JUMPI DUP2 PUSH1 0x3 NOT CALLDATASIZE ADD SLT PUSH2 0x638 JUMPI MLOAD PUSH32 0x0 PUSH1 0x1 PUSH1 0x1 PUSH1 0xA0 SHL SUB AND DUP2 MSTORE PUSH1 0x20 SWAP1 RETURN JUMPDEST POP CALLVALUE PUSH2 0x372 JUMPI PUSH1 0x60 CALLDATASIZE PUSH1 0x3 NOT ADD SLT PUSH2 0x372 JUMPI PUSH2 0xE7B PUSH2 0x1159 JUMP JUMPDEST SWAP3 PUSH2 0xE84 PUSH2 0x1174 JUMP JUMPDEST PUSH1 0x44 CALLDATALOAD SWAP3 DUP5 PUSH2 0xE9E PUSH2 0x604 PUSH2 0xE98 CALLER PUSH2 0x13EA JUMP JUMPDEST SWAP9 PUSH2 0x14CE JUMP JUMPDEST PUSH1 0x1 PUSH1 0x1 PUSH1 0xA0 SHL SUB DUP5 DUP2 AND DUP7 MSTORE PUSH1 0x5 PUSH1 0x20 SWAP1 DUP2 MSTORE DUP4 DUP8 KECCAK256 SWAP2 DUP11 AND DUP8 MSTORE MSTORE SWAP4 KECCAK256 SLOAD SWAP1 PUSH1 0x0 NOT DUP3 LT PUSH2 0xED7 JUMPI JUMPDEST PUSH1 0x20 DUP7 PUSH2 0x693 DUP8 DUP8 DUP8 PUSH2 0x1B0E JUMP JUMPDEST DUP5 DUP3 LT PUSH2 0xEFE JUMPI POP SWAP1 PUSH2 0xEF5 PUSH1 0x20 SWAP7 DUP6 PUSH2 0x693 SWAP7 SWAP6 SWAP5 SUB SWAP1 DUP4 PUSH2 0x14E0 JUMP JUMPDEST SWAP1 SWAP2 SWAP3 CODESIZE PUSH2 0xEC9 JUMP JUMPDEST DUP6 MLOAD PUSH4 0x7DC7A0D9 PUSH1 0xE1 SHL DUP2 MSTORE PUSH1 0x1 PUSH1 0x1 PUSH1 0xA0 SHL SUB DUP9 AND SWAP2 DUP2 ADD SWAP2 DUP3 MSTORE PUSH1 0x20 DUP3 ADD SWAP3 SWAP1 SWAP3 MSTORE PUSH1 0x40 DUP2 ADD DUP6 SWAP1 MSTORE DUP2 SWAP1 PUSH1 0x60 ADD SUB SWAP1 REVERT JUMPDEST POP SWAP1 CALLVALUE PUSH2 0x372 JUMPI DUP3 PUSH1 0x3 NOT CALLDATASIZE ADD SLT PUSH2 0x372 JUMPI DUP1 MLOAD PUSH4 0x70A08231 PUSH1 0xE0 SHL DUP2 MSTORE ADDRESS SWAP3 DUP2 ADD SWAP3 SWAP1 SWAP3 MSTORE PUSH1 0x20 DUP3 PUSH1 0x24 DUP2 PUSH32 0x0 PUSH1 0x1 PUSH1 0x1 PUSH1 0xA0 SHL SUB AND GAS STATICCALL SWAP2 DUP3 ISZERO PUSH2 0x776 JUMPI DUP4 SWAP3 PUSH2 0xFA2 JUMPI JUMPDEST PUSH1 0x20 DUP4 DUP4 MLOAD SWAP1 DUP2 MSTORE RETURN JUMPDEST SWAP1 SWAP2 POP PUSH1 0x20 DUP2 RETURNDATASIZE PUSH1 0x20 GT PUSH2 0xFD2 JUMPI JUMPDEST DUP2 PUSH2 0xFBE PUSH1 0x20 SWAP4 DUP4 PUSH2 0x1224 JUMP JUMPDEST DUP2 ADD SUB SLT PUSH2 0x372 JUMPI PUSH1 0x20 SWAP3 POP MLOAD SWAP1 CODESIZE PUSH2 0xF98 JUMP JUMPDEST RETURNDATASIZE SWAP2 POP PUSH2 0xFB1 JUMP JUMPDEST POP POP CALLVALUE PUSH2 0x638 JUMPI DUP1 PUSH1 0x3 NOT CALLDATASIZE ADD SLT PUSH2 0x638 JUMPI PUSH1 0x20 SWAP1 PUSH2 0x693 PUSH2 0xFFA PUSH2 0x1159 JUMP JUMPDEST PUSH2 0x1003 CALLER PUSH2 0x13EA JUMP JUMPDEST PUSH2 0x100F PUSH1 0x24 CALLDATALOAD SWAP3 PUSH2 0x14CE JUMP JUMPDEST SWAP1 PUSH2 0x14E0 JUMP JUMPDEST POP SWAP1 CALLVALUE PUSH2 0x372 JUMPI DUP3 PUSH1 0x3 NOT CALLDATASIZE ADD SLT PUSH2 0x372 JUMPI DUP1 MLOAD PUSH4 0x6FDDE03 PUSH1 0xE0 SHL DUP2 MSTORE SWAP2 DUP4 SWAP1 DUP4 SWAP1 DUP2 PUSH32 0x0 PUSH1 0x1 PUSH1 0x1 PUSH1 0xA0 SHL SUB AND GAS STATICCALL SWAP2 DUP3 ISZERO PUSH2 0x776 JUMPI DUP4 PUSH2 0x74D SWAP5 SWAP4 PUSH2 0x10CC JUMPI JUMPDEST POP POP PUSH2 0x73B PUSH1 0x34 DUP3 MLOAD DUP1 SWAP5 PUSH8 0x283934BB30B1BC9 PUSH1 0xC5 SHL PUSH1 0x20 DUP4 ADD MSTORE PUSH2 0x10A7 DUP2 MLOAD DUP1 SWAP3 PUSH1 0x20 PUSH1 0x28 DUP7 ADD SWAP2 ADD PUSH2 0x1111 JUMP JUMPDEST DUP2 ADD PUSH12 0x81DDA5D1A08155CD95C9259 PUSH1 0xA2 SHL PUSH1 0x28 DUP3 ADD MSTORE SUB PUSH1 0x14 DUP2 ADD DUP6 MSTORE ADD DUP4 PUSH2 0x1224 JUMP JUMPDEST PUSH2 0x10E1 SWAP3 SWAP4 POP RETURNDATASIZE DUP1 SWAP2 DUP4 RETURNDATACOPY PUSH2 0x766 DUP2 DUP4 PUSH2 0x1224 JUMP JUMPDEST SWAP1 CODESIZE DUP1 PUSH2 0x1077 JUMP JUMPDEST DUP5 SWAP1 CALLVALUE PUSH2 0x638 JUMPI DUP2 PUSH1 0x3 NOT CALLDATASIZE ADD SLT PUSH2 0x638 JUMPI DUP1 PUSH1 0x0 DUP1 MLOAD PUSH1 0x20 PUSH2 0x1CC4 DUP4 CODECOPY DUP2 MLOAD SWAP2 MSTORE PUSH1 0x20 SWAP3 MSTORE RETURN JUMPDEST PUSH1 0x0 JUMPDEST DUP4 DUP2 LT PUSH2 0x1124 JUMPI POP POP PUSH1 0x0 SWAP2 ADD MSTORE JUMP JUMPDEST DUP2 DUP2 ADD MLOAD DUP4 DUP3 ADD MSTORE PUSH1 0x20 ADD PUSH2 0x1114 JUMP JUMPDEST SWAP1 PUSH1 0x20 SWAP2 PUSH2 0x114D DUP2 MLOAD DUP1 SWAP3 DUP2 DUP6 MSTORE DUP6 DUP1 DUP7 ADD SWAP2 ADD PUSH2 0x1111 JUMP JUMPDEST PUSH1 0x1F ADD PUSH1 0x1F NOT AND ADD ADD SWAP1 JUMP JUMPDEST PUSH1 0x4 CALLDATALOAD SWAP1 PUSH1 0x1 PUSH1 0x1 PUSH1 0xA0 SHL SUB DUP3 AND DUP3 SUB PUSH2 0x116F JUMPI JUMP JUMPDEST PUSH1 0x0 DUP1 REVERT JUMPDEST PUSH1 0x24 CALLDATALOAD SWAP1 PUSH1 0x1 PUSH1 0x1 PUSH1 0xA0 SHL SUB DUP3 AND DUP3 SUB PUSH2 0x116F JUMPI JUMP JUMPDEST PUSH8 0xFFFFFFFFFFFFFFFF DUP2 GT PUSH2 0x119E JUMPI PUSH1 0x40 MSTORE JUMP JUMPDEST PUSH4 0x4E487B71 PUSH1 0xE0 SHL PUSH1 0x0 MSTORE PUSH1 0x41 PUSH1 0x4 MSTORE PUSH1 0x24 PUSH1 0x0 REVERT JUMPDEST PUSH1 0x60 DUP2 ADD SWAP1 DUP2 LT PUSH8 0xFFFFFFFFFFFFFFFF DUP3 GT OR PUSH2 0x119E JUMPI PUSH1 0x40 MSTORE JUMP JUMPDEST PUSH1 0xE0 DUP2 ADD SWAP1 DUP2 LT PUSH8 0xFFFFFFFFFFFFFFFF DUP3 GT OR PUSH2 0x119E JUMPI PUSH1 0x40 MSTORE JUMP JUMPDEST PUSH1 0x80 DUP2 ADD SWAP1 DUP2 LT PUSH8 0xFFFFFFFFFFFFFFFF DUP3 GT OR PUSH2 0x119E JUMPI PUSH1 0x40 MSTORE JUMP JUMPDEST PUSH1 0x20 DUP2 ADD SWAP1 DUP2 LT PUSH8 0xFFFFFFFFFFFFFFFF DUP3 GT OR PUSH2 0x119E JUMPI PUSH1 0x40 MSTORE JUMP JUMPDEST SWAP1 PUSH1 0x1F DUP1 NOT SWAP2 ADD AND DUP2 ADD SWAP1 DUP2 LT PUSH8 0xFFFFFFFFFFFFFFFF DUP3 GT OR PUSH2 0x119E JUMPI PUSH1 0x40 MSTORE JUMP JUMPDEST PUSH2 0x100 PUSH1 0x3 NOT DUP3 ADD SLT PUSH2 0x116F JUMPI PUSH1 0x40 MLOAD SWAP1 PUSH1 0xC0 DUP3 ADD DUP3 DUP2 LT PUSH8 0xFFFFFFFFFFFFFFFF DUP3 GT OR PUSH2 0x119E JUMPI PUSH1 0x40 MSTORE PUSH1 0x4 CALLDATALOAD PUSH1 0x4 DUP2 LT ISZERO PUSH2 0x116F JUMPI DUP3 MSTORE PUSH1 0x1 PUSH1 0x1 PUSH1 0xA0 SHL SUB SWAP1 PUSH1 0x24 CALLDATALOAD DUP3 DUP2 AND DUP2 SUB PUSH2 0x116F JUMPI PUSH1 0x20 DUP5 ADD MSTORE PUSH1 0x44 CALLDATALOAD SWAP2 DUP3 AND DUP3 SUB PUSH2 0x116F JUMPI PUSH1 0x60 SWAP2 PUSH1 0x40 DUP5 ADD MSTORE PUSH1 0x64 CALLDATALOAD DUP3 DUP5 ADD MSTORE PUSH1 0x84 CALLDATALOAD PUSH1 0x80 DUP5 ADD MSTORE PUSH1 0xA3 NOT ADD SLT PUSH2 0x116F JUMPI PUSH1 0x40 MLOAD PUSH2 0x12D1 DUP2 PUSH2 0x11B4 JUMP JUMPDEST PUSH1 0xA4 CALLDATALOAD DUP2 MSTORE PUSH1 0xC4 CALLDATALOAD PUSH1 0x20 DUP3 ADD MSTORE PUSH1 0xE4 CALLDATALOAD PUSH1 0x40 DUP3 ADD MSTORE PUSH1 0xA0 DUP3 ADD MSTORE SWAP1 JUMP JUMPDEST PUSH8 0xFFFFFFFFFFFFFFFF DUP2 GT PUSH2 0x119E JUMPI PUSH1 0x1F ADD PUSH1 0x1F NOT AND PUSH1 0x20 ADD SWAP1 JUMP JUMPDEST PUSH1 0x20 DUP2 DUP4 SUB SLT PUSH2 0x116F JUMPI DUP1 MLOAD SWAP1 PUSH8 0xFFFFFFFFFFFFFFFF DUP3 GT PUSH2 0x116F JUMPI ADD DUP2 PUSH1 0x1F DUP3 ADD SLT ISZERO PUSH2 0x116F JUMPI DUP1 MLOAD PUSH2 0x133D DUP2 PUSH2 0x12EE JUMP JUMPDEST SWAP3 PUSH2 0x134B PUSH1 0x40 MLOAD SWAP5 DUP6 PUSH2 0x1224 JUMP JUMPDEST DUP2 DUP5 MSTORE PUSH1 0x20 DUP3 DUP5 ADD ADD GT PUSH2 0x116F JUMPI PUSH2 0x1369 SWAP2 PUSH1 0x20 DUP1 DUP6 ADD SWAP2 ADD PUSH2 0x1111 JUMP JUMPDEST SWAP1 JUMP JUMPDEST SWAP2 SWAP1 DUP3 SUB SWAP2 DUP3 GT PUSH2 0x1379 JUMPI JUMP JUMPDEST PUSH4 0x4E487B71 PUSH1 0xE0 SHL PUSH1 0x0 MSTORE PUSH1 0x11 PUSH1 0x4 MSTORE PUSH1 0x24 PUSH1 0x0 REVERT JUMPDEST DUP1 EXTCODESIZE ISZERO DUP1 ISZERO SWAP1 PUSH2 0x13B3 JUMPI JUMPDEST PUSH2 0x13A7 JUMPI PUSH2 0x1369 SWAP1 PUSH2 0x15A5 JUMP JUMPDEST PUSH2 0x7BD PUSH2 0x1369 SWAP2 PUSH2 0x13EA JUMP JUMPDEST POP PUSH1 0x1 PUSH1 0x1 PUSH1 0xA0 SHL SUB DUP2 AND CALLER EQ PUSH2 0x139A JUMP JUMPDEST SWAP1 DUP2 PUSH1 0x20 SWAP2 SUB SLT PUSH2 0x116F JUMPI MLOAD DUP1 ISZERO ISZERO DUP2 SUB PUSH2 0x116F JUMPI SWAP1 JUMP JUMPDEST SWAP2 SWAP1 DUP3 ADD DUP1 SWAP3 GT PUSH2 0x1379 JUMPI JUMP JUMPDEST PUSH1 0x1 PUSH1 0x1 PUSH1 0xA0 SHL SUB SWAP1 DUP2 AND DUP1 ISZERO PUSH2 0x14BC JUMPI PUSH1 0x1 SLOAD DUP1 ISZERO PUSH2 0x14AA JUMPI PUSH1 0x0 SWAP2 DUP3 SWAP2 PUSH1 0x40 MLOAD SWAP1 PUSH1 0x20 DUP3 ADD SWAP3 DUP4 MSTORE PUSH1 0x40 DUP3 ADD MSTORE PUSH1 0x40 DUP2 MSTORE PUSH2 0x1426 DUP2 PUSH2 0x11B4 JUMP JUMPDEST MLOAD SWAP1 PUSH1 0x2 PUSH1 0x1 PUSH1 0x98 SHL ADD GAS STATICCALL PUSH2 0x143A PUSH2 0x1C61 JUMP JUMPDEST SWAP1 ISZERO PUSH2 0x1465 JUMPI PUSH1 0x20 DUP2 MLOAD SWAP2 ADD MLOAD SWAP1 PUSH1 0x20 DUP2 LT PUSH2 0x1455 JUMPI POP AND SWAP1 JUMP JUMPDEST PUSH1 0x0 NOT SWAP1 PUSH1 0x20 SUB PUSH1 0x3 SHL SHL AND AND SWAP1 JUMP JUMPDEST PUSH1 0x40 MLOAD PUSH3 0x461BCD PUSH1 0xE5 SHL DUP2 MSTORE PUSH1 0x20 PUSH1 0x4 DUP3 ADD MSTORE PUSH1 0x1A PUSH1 0x24 DUP3 ADD MSTORE PUSH32 0x64657269766553796D6D65747269634B65793A206661696C6564000000000000 PUSH1 0x44 DUP3 ADD MSTORE PUSH1 0x64 SWAP1 REVERT JUMPDEST PUSH1 0x40 MLOAD PUSH4 0x7145E311 PUSH1 0xE0 SHL DUP2 MSTORE PUSH1 0x4 SWAP1 REVERT JUMPDEST PUSH1 0x40 MLOAD PUSH4 0xD92E233D PUSH1 0xE0 SHL DUP2 MSTORE PUSH1 0x4 SWAP1 REVERT JUMPDEST DUP1 EXTCODESIZE PUSH2 0x14D7 JUMPI SWAP1 JUMP JUMPDEST PUSH2 0x1369 SWAP1 PUSH2 0x13EA JUMP JUMPDEST PUSH1 0x1 PUSH1 0x1 PUSH1 0xA0 SHL SUB SWAP1 DUP2 AND SWAP2 DUP3 ISZERO PUSH2 0x152F JUMPI AND SWAP1 DUP2 ISZERO PUSH2 0x1516 JUMPI PUSH1 0x0 MSTORE PUSH1 0x5 PUSH1 0x20 MSTORE PUSH1 0x40 PUSH1 0x0 KECCAK256 SWAP1 PUSH1 0x0 MSTORE PUSH1 0x20 MSTORE PUSH1 0x40 PUSH1 0x0 KECCAK256 SSTORE JUMP JUMPDEST PUSH1 0x40 MLOAD PUSH4 0x4A1406B1 PUSH1 0xE1 SHL DUP2 MSTORE PUSH1 0x0 PUSH1 0x4 DUP3 ADD MSTORE PUSH1 0x24 SWAP1 REVERT JUMPDEST PUSH1 0x40 MLOAD PUSH4 0xE602DF05 PUSH1 0xE0 SHL DUP2 MSTORE PUSH1 0x0 PUSH1 0x4 DUP3 ADD MSTORE PUSH1 0x24 SWAP1 REVERT JUMPDEST PUSH1 0x2 PUSH1 0x0 SLOAD EQ PUSH2 0x1559 JUMPI PUSH1 0x2 PUSH1 0x0 SSTORE JUMP JUMPDEST PUSH1 0x40 MLOAD PUSH4 0x3EE5AEB5 PUSH1 0xE0 SHL DUP2 MSTORE PUSH1 0x4 SWAP1 REVERT JUMPDEST SWAP1 PUSH1 0x1 DUP3 DUP2 SHR SWAP3 AND DUP1 ISZERO PUSH2 0x159B JUMPI JUMPDEST PUSH1 0x20 DUP4 LT EQ PUSH2 0x1585 JUMPI JUMP JUMPDEST PUSH4 0x4E487B71 PUSH1 0xE0 SHL PUSH1 0x0 MSTORE PUSH1 0x22 PUSH1 0x4 MSTORE PUSH1 0x24 PUSH1 0x0 REVERT JUMPDEST SWAP2 PUSH1 0x7F AND SWAP2 PUSH2 0x157A JUMP JUMPDEST PUSH1 0x0 SWAP1 PUSH1 0x1 DUP1 PUSH1 0xA0 SHL SUB AND DUP2 MSTORE PUSH1 0x20 SWAP1 PUSH1 0x4 DUP3 MSTORE PUSH1 0x40 DUP2 KECCAK256 PUSH1 0x40 MLOAD SWAP1 DUP2 DUP4 DUP3 SLOAD PUSH2 0x15CE DUP2 PUSH2 0x156B JUMP JUMPDEST SWAP4 DUP5 DUP5 MSTORE PUSH1 0x1 SWAP2 DUP9 PUSH1 0x1 DUP3 AND SWAP2 DUP3 PUSH1 0x0 EQ PUSH2 0x16E3 JUMPI POP POP PUSH1 0x1 EQ PUSH2 0x16A7 JUMPI JUMPDEST POP POP PUSH2 0x15FB SWAP3 POP SUB DUP3 PUSH2 0x1224 JUMP JUMPDEST DUP1 MLOAD ISZERO PUSH2 0x16A1 JUMPI DUP2 DUP1 SWAP2 PUSH1 0x3 SLOAD SWAP1 PUSH2 0x163D PUSH1 0x40 MLOAD SWAP2 PUSH2 0x1619 DUP4 PUSH2 0x1208 JUMP JUMPDEST DUP5 DUP4 MSTORE PUSH2 0x162F PUSH1 0x40 MLOAD SWAP4 DUP5 SWAP3 DUP11 DUP5 ADD SWAP7 DUP8 PUSH2 0x1C91 JUMP JUMPDEST SUB PUSH1 0x1F NOT DUP2 ADD DUP4 MSTORE DUP3 PUSH2 0x1224 JUMP JUMPDEST MLOAD SWAP1 PUSH1 0x4 PUSH1 0x1 PUSH1 0x98 SHL ADD GAS STATICCALL SWAP1 PUSH2 0x1652 PUSH2 0x1C61 JUMP JUMPDEST SWAP2 ISZERO PUSH2 0x166A JUMPI DUP3 DUP3 DUP1 MLOAD DUP2 ADD SUB SLT PUSH2 0x4E4 JUMPI POP ADD MLOAD SWAP1 JUMP JUMPDEST PUSH1 0x40 MLOAD PUSH3 0x461BCD PUSH1 0xE5 SHL DUP2 MSTORE PUSH1 0x4 DUP2 ADD DUP5 SWAP1 MSTORE PUSH1 0xF PUSH1 0x24 DUP3 ADD MSTORE PUSH15 0x191958DC9E5C1D0E8819985A5B1959 PUSH1 0x8A SHL PUSH1 0x44 DUP3 ADD MSTORE PUSH1 0x64 SWAP1 REVERT JUMPDEST POP SWAP1 POP SWAP1 JUMP JUMPDEST DUP8 SWAP3 POP DUP7 MSTORE DUP2 DUP7 KECCAK256 SWAP1 DUP7 SWAP2 JUMPDEST DUP6 DUP4 LT PUSH2 0x16CB JUMPI POP POP PUSH2 0x15FB SWAP4 POP DUP3 ADD ADD CODESIZE DUP1 PUSH2 0x15ED JUMP JUMPDEST DUP1 SLOAD DUP4 DUP9 ADD DUP6 ADD MSTORE DUP7 SWAP5 POP DUP9 SWAP4 SWAP1 SWAP3 ADD SWAP2 DUP2 ADD PUSH2 0x16B3 JUMP JUMPDEST SWAP3 POP SWAP4 POP POP PUSH2 0x15FB SWAP5 SWAP2 POP PUSH1 0xFF NOT AND DUP3 DUP5 ADD MSTORE ISZERO ISZERO PUSH1 0x5 SHL DUP3 ADD ADD CODESIZE DUP1 PUSH2 0x15ED JUMP JUMPDEST SWAP2 SWAP1 SWAP2 PUSH1 0x40 DUP1 MLOAD SWAP2 PUSH1 0x20 SWAP5 DUP6 DUP5 ADD MSTORE DUP5 DUP4 MSTORE DUP2 DUP4 ADD SWAP1 PUSH8 0xFFFFFFFFFFFFFFFF SWAP3 DUP5 DUP4 LT DUP5 DUP5 GT OR PUSH2 0x119E JUMPI DUP3 DUP2 MSTORE PUSH1 0x3 SLOAD SWAP5 PUSH2 0x1740 DUP5 PUSH2 0x1208 JUMP JUMPDEST PUSH1 0x0 DUP1 SWAP7 DUP2 SWAP3 DUP3 DUP8 MSTORE PUSH2 0x175B DUP6 MLOAD SWAP8 DUP9 SWAP3 DUP14 DUP5 ADD SWAP5 DUP6 PUSH2 0x1C91 JUMP JUMPDEST SUB SWAP6 PUSH2 0x176F PUSH1 0x1F NOT SWAP8 DUP9 DUP2 ADD DUP4 MSTORE DUP3 PUSH2 0x1224 JUMP JUMPDEST MLOAD SWAP1 PUSH1 0x3 PUSH1 0x1 PUSH1 0x98 SHL ADD GAS STATICCALL SWAP2 PUSH2 0x1784 PUSH2 0x1C61 JUMP JUMPDEST SWAP3 ISZERO PUSH2 0x18AC JUMPI PUSH1 0x1 PUSH1 0x1 PUSH1 0xA0 SHL SUB AND DUP6 MSTORE PUSH1 0x4 DUP8 MSTORE DUP5 KECCAK256 DUP2 MLOAD SWAP1 SWAP5 SWAP1 SWAP4 DUP5 GT PUSH2 0x1898 JUMPI PUSH2 0x17B1 DUP6 SLOAD PUSH2 0x156B JUMP JUMPDEST PUSH1 0x1F DUP2 GT PUSH2 0x1855 JUMPI JUMPDEST POP DUP7 SWAP3 PUSH1 0x1F DUP6 GT PUSH1 0x1 EQ PUSH2 0x17F5 JUMPI POP DUP4 SWAP5 SWAP6 SWAP7 POP SWAP3 PUSH2 0x17EA JUMPI JUMPDEST POP POP DUP2 PUSH1 0x1 SHL SWAP2 PUSH1 0x0 NOT SWAP1 PUSH1 0x3 SHL SHR NOT AND OR SWAP1 SSTORE JUMP JUMPDEST ADD MLOAD SWAP1 POP CODESIZE DUP1 PUSH2 0x17D4 JUMP JUMPDEST DUP5 SWAP4 SWAP3 SWAP2 SWAP4 AND SWAP7 DUP6 DUP5 MSTORE DUP1 DUP5 KECCAK256 SWAP4 SWAP1 JUMPDEST DUP9 DUP3 LT PUSH2 0x183D JUMPI POP POP DUP4 PUSH1 0x1 SWAP6 SWAP7 SWAP8 LT PUSH2 0x1824 JUMPI JUMPDEST POP POP POP DUP2 SHL ADD SWAP1 SSTORE JUMP JUMPDEST ADD MLOAD PUSH1 0x0 NOT PUSH1 0xF8 DUP5 PUSH1 0x3 SHL AND SHR NOT AND SWAP1 SSTORE CODESIZE DUP1 DUP1 PUSH2 0x181A JUMP JUMPDEST DUP1 PUSH1 0x1 DUP6 SWAP7 DUP3 SWAP5 SWAP7 DUP7 ADD MLOAD DUP2 SSTORE ADD SWAP6 ADD SWAP4 ADD SWAP1 PUSH2 0x1805 JUMP JUMPDEST DUP6 DUP3 MSTORE DUP8 DUP3 KECCAK256 PUSH1 0x1F DUP7 ADD PUSH1 0x5 SHR DUP2 ADD SWAP2 DUP10 DUP8 LT PUSH2 0x188E JUMPI JUMPDEST PUSH1 0x1F ADD PUSH1 0x5 SHR ADD SWAP1 JUMPDEST DUP2 DUP2 LT PUSH2 0x1883 JUMPI POP PUSH2 0x17BA JUMP JUMPDEST DUP3 DUP2 SSTORE PUSH1 0x1 ADD PUSH2 0x1876 JUMP JUMPDEST SWAP1 SWAP2 POP DUP2 SWAP1 PUSH2 0x186D JUMP JUMPDEST PUSH4 0x4E487B71 PUSH1 0xE0 SHL DUP2 MSTORE PUSH1 0x41 PUSH1 0x4 MSTORE PUSH1 0x24 SWAP1 REVERT JUMPDEST DUP2 MLOAD PUSH3 0x461BCD PUSH1 0xE5 SHL DUP2 MSTORE PUSH1 0x4 DUP2 ADD DUP10 SWAP1 MSTORE PUSH1 0xF PUSH1 0x24 DUP3 ADD MSTORE PUSH15 0x195B98DC9E5C1D0E8819985A5B1959 PUSH1 0x8A SHL PUSH1 0x44 DUP3 ADD MSTORE PUSH1 0x64 SWAP1 REVERT JUMPDEST PUSH1 0x80 DUP2 ADD DUP1 MLOAD TIMESTAMP GT PUSH2 0x1A92 JUMPI DUP2 MLOAD SWAP1 PUSH1 0x4 SWAP2 DUP3 DUP2 LT ISZERO PUSH2 0x1A53 JUMPI PUSH2 0x1A82 JUMPI DUP3 MLOAD DUP3 DUP2 LT ISZERO PUSH2 0x1A53 JUMPI ISZERO PUSH2 0x1A68 JUMPI JUMPDEST DUP3 MLOAD DUP3 DUP2 LT ISZERO PUSH2 0x1A53 JUMPI PUSH1 0x3 EQ PUSH2 0x1A26 JUMPI JUMPDEST DUP3 MLOAD SWAP2 DUP1 DUP4 LT ISZERO PUSH2 0xB98 JUMPI POP PUSH1 0x20 PUSH1 0x0 PUSH1 0x80 DUP3 DUP7 ADD PUSH1 0xA0 PUSH1 0x1 DUP1 DUP3 SHL SUB DUP1 SWAP8 DUP2 DUP5 MLOAD AND PUSH1 0x40 SWAP9 DUP4 DUP11 DUP14 ADD MLOAD AND SWAP1 PUSH1 0x60 DUP14 ADD MLOAD SWAP1 MLOAD SWAP2 DUP12 MLOAD SWAP4 DUP12 DUP6 ADD SWAP6 PUSH1 0x0 DUP1 MLOAD PUSH1 0x20 PUSH2 0x1CC4 DUP4 CODECOPY DUP2 MLOAD SWAP2 MSTORE DUP8 MSTORE DUP14 DUP7 ADD MSTORE PUSH1 0x60 DUP6 ADD MSTORE DUP9 DUP5 ADD MSTORE DUP6 DUP4 ADD MSTORE PUSH1 0xC0 DUP3 ADD MSTORE PUSH1 0xC0 DUP2 MSTORE PUSH2 0x1992 DUP2 PUSH2 0x11D0 JUMP JUMPDEST MLOAD SWAP1 KECCAK256 SWAP3 MLOAD AND SWAP8 ADD MLOAD SWAP1 DUP6 MLOAD DUP6 DUP2 ADD SWAP2 PUSH2 0x1901 PUSH1 0xF0 SHL DUP4 MSTORE PUSH32 0x0 PUSH1 0x22 DUP4 ADD MSTORE PUSH1 0x42 DUP3 ADD MSTORE PUSH1 0x42 DUP2 MSTORE PUSH2 0x19E2 DUP2 PUSH2 0x11EC JUMP JUMPDEST MLOAD SWAP1 KECCAK256 SWAP1 PUSH1 0xFF DUP7 DUP3 ADD MLOAD AND SWAP1 DUP6 DUP2 MLOAD SWAP2 ADD MLOAD SWAP2 DUP8 MLOAD SWAP4 DUP5 MSTORE DUP7 DUP5 ADD MSTORE DUP7 DUP4 ADD MSTORE PUSH1 0x60 DUP3 ADD MSTORE DUP3 DUP1 MSTORE PUSH1 0x1 GAS STATICCALL ISZERO PUSH2 0x1A1C JUMPI POP PUSH1 0x0 MLOAD AND EQ SWAP1 JUMP JUMPDEST MLOAD RETURNDATASIZE PUSH1 0x0 DUP3 RETURNDATACOPY RETURNDATASIZE SWAP1 REVERT JUMPDEST PUSH1 0x60 DUP4 ADD MLOAD PUSH2 0x1A43 JUMPI PUSH1 0x40 DUP4 ADD MLOAD PUSH1 0x1 PUSH1 0x1 PUSH1 0xA0 SHL SUB AND ISZERO PUSH2 0x1922 JUMPI JUMPDEST POP PUSH1 0x40 MLOAD PUSH4 0x291DED61 PUSH1 0xE0 SHL DUP2 MSTORE REVERT JUMPDEST PUSH1 0x21 DUP4 PUSH4 0x4E487B71 PUSH1 0xE0 SHL PUSH1 0x0 MSTORE MSTORE PUSH1 0x24 PUSH1 0x0 REVERT JUMPDEST PUSH1 0x60 DUP4 ADD MLOAD ISZERO PUSH2 0x1910 JUMPI POP PUSH1 0x40 MLOAD PUSH4 0x291DED61 PUSH1 0xE0 SHL DUP2 MSTORE REVERT JUMPDEST POP PUSH1 0x40 MLOAD PUSH4 0x51055569 PUSH1 0xE0 SHL DUP2 MSTORE REVERT JUMPDEST PUSH1 0x40 MLOAD PUSH4 0xF87D9271 PUSH1 0xE0 SHL DUP2 MSTORE PUSH1 0x4 SWAP1 REVERT JUMPDEST PUSH2 0x1AAD SWAP1 PUSH2 0x1AD9 JUMP JUMPDEST PUSH1 0x0 MSTORE PUSH1 0x2 PUSH1 0x20 MSTORE PUSH1 0xFF PUSH1 0x40 PUSH1 0x0 KECCAK256 SLOAD AND PUSH2 0x1AC7 JUMPI PUSH1 0x0 SWAP1 JUMP JUMPDEST PUSH1 0x40 MLOAD PUSH4 0x8BAA579F PUSH1 0xE0 SHL DUP2 MSTORE PUSH1 0x4 SWAP1 REVERT JUMPDEST DUP1 MLOAD SWAP1 PUSH1 0x40 PUSH1 0x20 DUP3 ADD MLOAD SWAP2 ADD MLOAD PUSH1 0x40 MLOAD SWAP2 PUSH1 0x20 DUP4 ADD SWAP4 DUP5 MSTORE PUSH1 0x40 DUP4 ADD MSTORE PUSH1 0x60 DUP3 ADD MSTORE PUSH1 0x60 DUP2 MSTORE PUSH2 0x1B08 DUP2 PUSH2 0x11EC JUMP JUMPDEST MLOAD SWAP1 KECCAK256 SWAP1 JUMP JUMPDEST SWAP3 SWAP2 PUSH1 0x1 PUSH1 0x1 PUSH1 0xA0 SHL SUB DUP1 DUP6 AND ISZERO PUSH2 0x1BA5 JUMPI DUP3 AND ISZERO PUSH2 0x1B8C JUMPI PUSH2 0x1B30 DUP5 PUSH2 0x15A5 JUMP JUMPDEST SWAP4 DUP2 DUP6 LT PUSH2 0x1B5A JUMPI SWAP1 PUSH2 0x1B58 SWAP4 SWAP5 PUSH2 0x414 PUSH2 0x419 SWAP4 PUSH2 0x419 DUP5 PUSH2 0x1B52 DUP9 PUSH2 0x15A5 JUMP JUMPDEST SWAP5 PUSH2 0x136C JUMP JUMPDEST JUMP JUMPDEST PUSH1 0x40 MLOAD PUSH4 0x391434E3 PUSH1 0xE2 SHL DUP2 MSTORE PUSH1 0x1 PUSH1 0x1 PUSH1 0xA0 SHL SUB SWAP2 SWAP1 SWAP2 AND PUSH1 0x4 DUP3 ADD MSTORE PUSH1 0x24 DUP2 ADD DUP6 SWAP1 MSTORE PUSH1 0x44 DUP2 ADD SWAP2 SWAP1 SWAP2 MSTORE PUSH1 0x64 SWAP1 REVERT JUMPDEST PUSH1 0x40 MLOAD PUSH4 0xEC442F05 PUSH1 0xE0 SHL DUP2 MSTORE PUSH1 0x0 PUSH1 0x4 DUP3 ADD MSTORE PUSH1 0x24 SWAP1 REVERT JUMPDEST PUSH1 0x40 MLOAD PUSH4 0x4B637E8F PUSH1 0xE1 SHL DUP2 MSTORE PUSH1 0x0 PUSH1 0x4 DUP3 ADD MSTORE PUSH1 0x24 SWAP1 REVERT JUMPDEST CALLVALUE ISZERO PUSH2 0x1C4F JUMPI PUSH32 0x0 PUSH1 0x1 PUSH1 0x1 PUSH1 0xA0 SHL SUB AND DUP1 EXTCODESIZE ISZERO PUSH2 0x116F JUMPI PUSH1 0x0 PUSH1 0x4 SWAP2 PUSH1 0x40 MLOAD SWAP3 DUP4 DUP1 SWAP3 PUSH4 0xD0E30DB PUSH1 0xE4 SHL DUP3 MSTORE CALLVALUE SWAP1 GAS CALL DUP1 ISZERO PUSH2 0x1C43 JUMPI PUSH2 0x1C34 JUMPI JUMPDEST POP PUSH2 0x1B58 PUSH2 0x1C27 CALLER PUSH2 0x13EA JUMP JUMPDEST PUSH2 0x419 CALLVALUE PUSH2 0x414 DUP4 PUSH2 0x15A5 JUMP JUMPDEST PUSH2 0x1C3D SWAP1 PUSH2 0x118A JUMP JUMPDEST CODESIZE PUSH2 0x1C1A JUMP JUMPDEST PUSH1 0x40 MLOAD RETURNDATASIZE PUSH1 0x0 DUP3 RETURNDATACOPY RETURNDATASIZE SWAP1 REVERT JUMPDEST PUSH1 0x40 MLOAD PUSH4 0x1F2A2005 PUSH1 0xE0 SHL DUP2 MSTORE PUSH1 0x4 SWAP1 REVERT JUMPDEST RETURNDATASIZE ISZERO PUSH2 0x1C8C JUMPI RETURNDATASIZE SWAP1 PUSH2 0x1C72 DUP3 PUSH2 0x12EE JUMP JUMPDEST SWAP2 PUSH2 0x1C80 PUSH1 0x40 MLOAD SWAP4 DUP5 PUSH2 0x1224 JUMP JUMPDEST DUP3 MSTORE RETURNDATASIZE PUSH1 0x0 PUSH1 0x20 DUP5 ADD RETURNDATACOPY JUMP JUMPDEST PUSH1 0x60 SWAP1 JUMP JUMPDEST SWAP2 PUSH2 0x1CB5 SWAP1 PUSH2 0x1369 SWAP5 SWAP3 PUSH1 0x0 DUP6 MSTORE PUSH1 0x20 DUP6 ADD MSTORE PUSH1 0x80 PUSH1 0x40 DUP6 ADD MSTORE PUSH1 0x80 DUP5 ADD SWAP1 PUSH2 0x1134 JUMP JUMPDEST SWAP2 PUSH1 0x60 DUP2 DUP5 SUB SWAP2 ADD MSTORE PUSH2 0x1134 JUMP INVALID 0xDF ADDRESS MSTORE SWAP12 MSIZE SWAP13 0xEF DUP6 BYTE 0x2B PUSH31 0x4FC96B13D343AEA28107D97873F3E0BC909D1E22C6A2646970667358221220 PUSH15 0x7AE67C5D6D405CDD4949BEB5914020 0xF7 0xC4 SHL PUSH18 0xC0486EC87DFE491E3D65F75964736F6C6343 STOP ADDMOD XOR STOP CALLER "
        },
        "methodIdentifiers": {
          "DOMAIN_SEPARATOR()": "3644e515",
          "EIP_PERMIT_TYPEHASH()": "036e0708",
          "allowance(address,address)": "dd62ed3e",
          "allowanceWithPermit((uint8,address,address,uint256,uint256,(bytes32,bytes32,uint256)))": "e35ac9fb",
          "approve(address,uint256)": "095ea7b3",
          "approveWithPermit((uint8,address,address,uint256,uint256,(bytes32,bytes32,uint256)))": "7986b37d",
          "balanceOf(address)": "70a08231",
          "balanceOfWithPermit((uint8,address,address,uint256,uint256,(bytes32,bytes32,uint256)))": "940cf112",
          "decimals()": "313ce567",
          "deposit()": "d0e30db0",
          "getMyVirtualAddress((uint8,address,address,uint256,uint256,(bytes32,bytes32,uint256)))": "51f4bae9",
          "isSignatureUsed((bytes32,bytes32,uint256))": "93355f42",
          "name()": "06fdde03",
          "symbol()": "95d89b41",
          "totalSupply()": "18160ddd",
          "transfer(address,uint256)": "a9059cbb",
          "transferFrom(address,address,uint256)": "23b872dd",
          "transferWithPermit((uint8,address,address,uint256,uint256,(bytes32,bytes32,uint256)))": "eb06f992",
          "underlyingToken()": "2495a599",
          "unwrap(uint256)": "de0e9a3e",
          "withdraw(uint256)": "2e1a7d4d",
          "wrap(uint256)": "ea598cb0"
        }
      },
      "storageLayout": {
        "storage": [
          {
            "astId": 1437,
            "contract": "contracts/PrivacyWROSE.sol:PrivacyWROSE",
            "label": "_status",
            "offset": 0,
            "slot": "0",
            "type": "t_uint256"
          },
          {
            "astId": 2262,
            "contract": "contracts/PrivacyWROSE.sol:PrivacyWROSE",
            "label": "_identitySalt",
            "offset": 0,
            "slot": "1",
            "type": "t_bytes32"
          },
          {
            "astId": 2402,
            "contract": "contracts/PrivacyWROSE.sol:PrivacyWROSE",
            "label": "_usedSignatures",
            "offset": 0,
            "slot": "2",
            "type": "t_mapping(t_bytes32,t_bool)"
          },
          {
            "astId": 2670,
            "contract": "contracts/PrivacyWROSE.sol:PrivacyWROSE",
            "label": "_globalNonce",
            "offset": 0,
            "slot": "3",
            "type": "t_bytes32"
          },
          {
            "astId": 2674,
            "contract": "contracts/PrivacyWROSE.sol:PrivacyWROSE",
            "label": "_encryptedBalances",
            "offset": 0,
            "slot": "4",
            "type": "t_mapping(t_address,t_bytes_storage)"
          },
          {
            "astId": 2680,
            "contract": "contracts/PrivacyWROSE.sol:PrivacyWROSE",
            "label": "_allowances",
            "offset": 0,
            "slot": "5",
            "type": "t_mapping(t_address,t_mapping(t_address,t_uint256))"
          },
          {
            "astId": 2100,
            "contract": "contracts/PrivacyWROSE.sol:PrivacyWROSE",
            "label": "_withdrawing",
            "offset": 0,
            "slot": "6",
            "type": "t_bool"
          }
        ],
        "types": {
          "t_address": {
            "encoding": "inplace",
            "label": "address",
            "numberOfBytes": "20"
          },
          "t_bool": {
            "encoding": "inplace",
            "label": "bool",
            "numberOfBytes": "1"
          },
          "t_bytes32": {
            "encoding": "inplace",
            "label": "bytes32",
            "numberOfBytes": "32"
          },
          "t_bytes_storage": {
            "encoding": "bytes",
            "label": "bytes",
            "numberOfBytes": "32"
          },
          "t_mapping(t_address,t_bytes_storage)": {
            "encoding": "mapping",
            "key": "t_address",
            "label": "mapping(address => bytes)",
            "numberOfBytes": "32",
            "value": "t_bytes_storage"
          },
          "t_mapping(t_address,t_mapping(t_address,t_uint256))": {
            "encoding": "mapping",
            "key": "t_address",
            "label": "mapping(address => mapping(address => uint256))",
            "numberOfBytes": "32",
            "value": "t_mapping(t_address,t_uint256)"
          },
          "t_mapping(t_address,t_uint256)": {
            "encoding": "mapping",
            "key": "t_address",
            "label": "mapping(address => uint256)",
            "numberOfBytes": "32",
            "value": "t_uint256"
          },
          "t_mapping(t_bytes32,t_bool)": {
            "encoding": "mapping",
            "key": "t_bytes32",
            "label": "mapping(bytes32 => bool)",
            "numberOfBytes": "32",
            "value": "t_bool"
          },
          "t_uint256": {
            "encoding": "inplace",
            "label": "uint256",
            "numberOfBytes": "32"
          }
        }
      }
    }
  }
}