{
  "contracts/modifier/ModifierV2.sol": {
    "ModifierV2": {
      "abi": [
        {
          "inputs": [
            {
              "internalType": "address",
              "name": "addrManager_",
              "type": "address"
            }
          ],
          "stateMutability": "nonpayable",
          "type": "constructor"
        },
        {
          "inputs": [],
          "name": "AmountIsZero",
          "type": "error"
        },
        {
          "inputs": [],
          "name": "ApprovalFailed",
          "type": "error"
        },
        {
          "inputs": [],
          "name": "AuctionOver",
          "type": "error"
        },
        {
          "inputs": [],
          "name": "AvailableBuyer",
          "type": "error"
        },
        {
          "inputs": [],
          "name": "BoxNotExists",
          "type": "error"
        },
        {
          "inputs": [],
          "name": "DeadlineIsOver",
          "type": "error"
        },
        {
          "inputs": [],
          "name": "DeadlineNotOver",
          "type": "error"
        },
        {
          "inputs": [],
          "name": "EmptyBoxInfoCID",
          "type": "error"
        },
        {
          "inputs": [],
          "name": "EmptyKey",
          "type": "error"
        },
        {
          "inputs": [],
          "name": "EmptyList",
          "type": "error"
        },
        {
          "inputs": [],
          "name": "EmptyPrice",
          "type": "error"
        },
        {
          "inputs": [],
          "name": "EmptyTokenCID",
          "type": "error"
        },
        {
          "inputs": [],
          "name": "EmptyUserId",
          "type": "error"
        },
        {
          "inputs": [],
          "name": "InBlacklist",
          "type": "error"
        },
        {
          "inputs": [],
          "name": "InvalidCaller",
          "type": "error"
        },
        {
          "inputs": [],
          "name": "InvalidContractAddress",
          "type": "error"
        },
        {
          "inputs": [],
          "name": "InvalidDeadline",
          "type": "error"
        },
        {
          "inputs": [],
          "name": "InvalidERC20Interface",
          "type": "error"
        },
        {
          "inputs": [],
          "name": "InvalidImplementation",
          "type": "error"
        },
        {
          "inputs": [],
          "name": "InvalidPeriod",
          "type": "error"
        },
        {
          "inputs": [],
          "name": "InvalidRate",
          "type": "error"
        },
        {
          "inputs": [],
          "name": "InvalidSeconds",
          "type": "error"
        },
        {
          "inputs": [],
          "name": "InvalidStatus",
          "type": "error"
        },
        {
          "inputs": [],
          "name": "NotAdmin",
          "type": "error"
        },
        {
          "inputs": [],
          "name": "NotAdminOrDAO",
          "type": "error"
        },
        {
          "inputs": [],
          "name": "NotBuyer",
          "type": "error"
        },
        {
          "inputs": [],
          "name": "NotDAO",
          "type": "error"
        },
        {
          "inputs": [],
          "name": "NotInBlacklist",
          "type": "error"
        },
        {
          "inputs": [],
          "name": "NotInSecrecy",
          "type": "error"
        },
        {
          "inputs": [],
          "name": "NotInWindowPeriod",
          "type": "error"
        },
        {
          "inputs": [],
          "name": "NotMinter",
          "type": "error"
        },
        {
          "inputs": [],
          "name": "NotProjectCaller",
          "type": "error"
        },
        {
          "inputs": [],
          "name": "PublicTimeNotEnd",
          "type": "error"
        },
        {
          "inputs": [],
          "name": "RefundPermitTrue",
          "type": "error"
        },
        {
          "inputs": [],
          "name": "TokenAlreadyExists",
          "type": "error"
        },
        {
          "inputs": [],
          "name": "TokenNotExists",
          "type": "error"
        },
        {
          "inputs": [],
          "name": "TokenNotSupported",
          "type": "error"
        },
        {
          "inputs": [],
          "name": "WithdrawError",
          "type": "error"
        },
        {
          "inputs": [],
          "name": "ZeroAddress",
          "type": "error"
        },
        {
          "inputs": [
            {
              "internalType": "address",
              "name": "addrManager_",
              "type": "address"
            }
          ],
          "name": "setAddressManager",
          "outputs": [],
          "stateMutability": "nonpayable",
          "type": "function"
        },
        {
          "inputs": [
            {
              "internalType": "address",
              "name": "admin_",
              "type": "address"
            }
          ],
          "name": "setAdmin",
          "outputs": [],
          "stateMutability": "nonpayable",
          "type": "function"
        }
      ],
      "evm": {
        "bytecode": {
          "linkReferences": {},
          "object": "60803461007c57601f6101b538819003918201601f19168301916001600160401b038311848410176100815780849260209460405283398101031261007c57516001600160a01b0381169081900361007c5760018060a01b0319908160005416176000553390600654161760065560405161011d90816100988239f35b600080fd5b634e487b7160e01b600052604160045260246000fdfe6080806040526004361015601257600080fd5b600090813560e01c9081630652b57a14608d575063704b6c0214603457600080fd5b34608a576020366003190112608a576004356001600160a01b038181169182900360865760065490811633036074576001600160a01b0319161760065580f35b604051637bfa4b9f60e01b8152600490fd5b8280fd5b80fd5b90503460e357602036600319011260e3576004356001600160a01b03818116929183900360df5760065416330360d0575081546001600160a01b03191617815580f35b637bfa4b9f60e01b8152600490fd5b8380fd5b5080fdfea264697066735822122050c8196d623a0608806ac1f7d8701d12c8005a21904b2adf3b2c42949f67f1c764736f6c63430008180033",
          "opcodes": "PUSH1 0x80 CALLVALUE PUSH2 0x7C JUMPI PUSH1 0x1F PUSH2 0x1B5 CODESIZE DUP2 SWAP1 SUB SWAP2 DUP3 ADD PUSH1 0x1F NOT AND DUP4 ADD SWAP2 PUSH1 0x1 PUSH1 0x1 PUSH1 0x40 SHL SUB DUP4 GT DUP5 DUP5 LT OR PUSH2 0x81 JUMPI DUP1 DUP5 SWAP3 PUSH1 0x20 SWAP5 PUSH1 0x40 MSTORE DUP4 CODECOPY DUP2 ADD SUB SLT PUSH2 0x7C JUMPI MLOAD PUSH1 0x1 PUSH1 0x1 PUSH1 0xA0 SHL SUB DUP2 AND SWAP1 DUP2 SWAP1 SUB PUSH2 0x7C JUMPI PUSH1 0x1 DUP1 PUSH1 0xA0 SHL SUB NOT SWAP1 DUP2 PUSH1 0x0 SLOAD AND OR PUSH1 0x0 SSTORE CALLER SWAP1 PUSH1 0x6 SLOAD AND OR PUSH1 0x6 SSTORE PUSH1 0x40 MLOAD PUSH2 0x11D SWAP1 DUP2 PUSH2 0x98 DUP3 CODECOPY RETURN JUMPDEST PUSH1 0x0 DUP1 REVERT JUMPDEST PUSH4 0x4E487B71 PUSH1 0xE0 SHL PUSH1 0x0 MSTORE PUSH1 0x41 PUSH1 0x4 MSTORE PUSH1 0x24 PUSH1 0x0 REVERT INVALID PUSH1 0x80 DUP1 PUSH1 0x40 MSTORE PUSH1 0x4 CALLDATASIZE LT ISZERO PUSH1 0x12 JUMPI PUSH1 0x0 DUP1 REVERT JUMPDEST PUSH1 0x0 SWAP1 DUP2 CALLDATALOAD PUSH1 0xE0 SHR SWAP1 DUP2 PUSH4 0x652B57A EQ PUSH1 0x8D JUMPI POP PUSH4 0x704B6C02 EQ PUSH1 0x34 JUMPI PUSH1 0x0 DUP1 REVERT JUMPDEST CALLVALUE PUSH1 0x8A JUMPI PUSH1 0x20 CALLDATASIZE PUSH1 0x3 NOT ADD SLT PUSH1 0x8A JUMPI PUSH1 0x4 CALLDATALOAD PUSH1 0x1 PUSH1 0x1 PUSH1 0xA0 SHL SUB DUP2 DUP2 AND SWAP2 DUP3 SWAP1 SUB PUSH1 0x86 JUMPI PUSH1 0x6 SLOAD SWAP1 DUP2 AND CALLER SUB PUSH1 0x74 JUMPI PUSH1 0x1 PUSH1 0x1 PUSH1 0xA0 SHL SUB NOT AND OR PUSH1 0x6 SSTORE DUP1 RETURN JUMPDEST PUSH1 0x40 MLOAD PUSH4 0x7BFA4B9F PUSH1 0xE0 SHL DUP2 MSTORE PUSH1 0x4 SWAP1 REVERT JUMPDEST DUP3 DUP1 REVERT JUMPDEST DUP1 REVERT JUMPDEST SWAP1 POP CALLVALUE PUSH1 0xE3 JUMPI PUSH1 0x20 CALLDATASIZE PUSH1 0x3 NOT ADD SLT PUSH1 0xE3 JUMPI PUSH1 0x4 CALLDATALOAD PUSH1 0x1 PUSH1 0x1 PUSH1 0xA0 SHL SUB DUP2 DUP2 AND SWAP3 SWAP2 DUP4 SWAP1 SUB PUSH1 0xDF JUMPI PUSH1 0x6 SLOAD AND CALLER SUB PUSH1 0xD0 JUMPI POP DUP2 SLOAD PUSH1 0x1 PUSH1 0x1 PUSH1 0xA0 SHL SUB NOT AND OR DUP2 SSTORE DUP1 RETURN JUMPDEST PUSH4 0x7BFA4B9F PUSH1 0xE0 SHL DUP2 MSTORE PUSH1 0x4 SWAP1 REVERT JUMPDEST DUP4 DUP1 REVERT JUMPDEST POP DUP1 REVERT INVALID LOG2 PUSH5 0x6970667358 0x22 SLT KECCAK256 POP 0xC8 NOT PUSH14 0x623A0608806AC1F7D8701D12C800 GAS 0x21 SWAP1 0x4B 0x2A 0xDF EXTCODESIZE 0x2C TIMESTAMP SWAP5 SWAP16 PUSH8 0xF1C764736F6C6343 STOP ADDMOD XOR STOP CALLER "
        },
        "methodIdentifiers": {
          "setAddressManager(address)": "0652b57a",
          "setAdmin(address)": "704b6c02"
        }
      },
      "storageLayout": {
        "storage": [
          {
            "astId": 4843,
            "contract": "contracts/modifier/ModifierV2.sol:ModifierV2",
            "label": "ADDR_MANAGER",
            "offset": 0,
            "slot": "0",
            "type": "t_contract(IAddressManager)271"
          },
          {
            "astId": 4845,
            "contract": "contracts/modifier/ModifierV2.sol:ModifierV2",
            "label": "SIWE_AUTH",
            "offset": 0,
            "slot": "1",
            "type": "t_address"
          },
          {
            "astId": 4848,
            "contract": "contracts/modifier/ModifierV2.sol:ModifierV2",
            "label": "USER_MANAGER",
            "offset": 0,
            "slot": "2",
            "type": "t_contract(IUserManager)920"
          },
          {
            "astId": 4851,
            "contract": "contracts/modifier/ModifierV2.sol:ModifierV2",
            "label": "EXCHANGE",
            "offset": 0,
            "slot": "3",
            "type": "t_contract(IExchange)486"
          },
          {
            "astId": 4854,
            "contract": "contracts/modifier/ModifierV2.sol:ModifierV2",
            "label": "FUND_MANAGER",
            "offset": 0,
            "slot": "4",
            "type": "t_contract(IFundManager)663"
          },
          {
            "astId": 4857,
            "contract": "contracts/modifier/ModifierV2.sol:ModifierV2",
            "label": "TRUTH_BOX",
            "offset": 0,
            "slot": "5",
            "type": "t_contract(ITruthBox)870"
          },
          {
            "astId": 5062,
            "contract": "contracts/modifier/ModifierV2.sol:ModifierV2",
            "label": "ADMIN",
            "offset": 0,
            "slot": "6",
            "type": "t_address"
          }
        ],
        "types": {
          "t_address": {
            "encoding": "inplace",
            "label": "address",
            "numberOfBytes": "20"
          },
          "t_contract(IAddressManager)271": {
            "encoding": "inplace",
            "label": "contract IAddressManager",
            "numberOfBytes": "20"
          },
          "t_contract(IExchange)486": {
            "encoding": "inplace",
            "label": "contract IExchange",
            "numberOfBytes": "20"
          },
          "t_contract(IFundManager)663": {
            "encoding": "inplace",
            "label": "contract IFundManager",
            "numberOfBytes": "20"
          },
          "t_contract(ITruthBox)870": {
            "encoding": "inplace",
            "label": "contract ITruthBox",
            "numberOfBytes": "20"
          },
          "t_contract(IUserManager)920": {
            "encoding": "inplace",
            "label": "contract IUserManager",
            "numberOfBytes": "20"
          }
        }
      }
    }
  }
}