{
  "contracts/base/Exchange02.sol": {
    "Exchange02": {
      "abi": [
        {
          "inputs": [
            {
              "internalType": "address",
              "name": "addrManager_",
              "type": "address"
            },
            {
              "internalType": "address",
              "name": "trustedForwarder_",
              "type": "address"
            }
          ],
          "stateMutability": "nonpayable",
          "type": "constructor"
        },
        {
          "inputs": [],
          "name": "AmountIsZero",
          "type": "error"
        },
        {
          "inputs": [],
          "name": "ApprovalFailed",
          "type": "error"
        },
        {
          "inputs": [],
          "name": "AuctionOver",
          "type": "error"
        },
        {
          "inputs": [],
          "name": "AvailableBuyer",
          "type": "error"
        },
        {
          "inputs": [],
          "name": "BoxNotExists",
          "type": "error"
        },
        {
          "inputs": [],
          "name": "DeadlineIsOver",
          "type": "error"
        },
        {
          "inputs": [],
          "name": "DeadlineNotOver",
          "type": "error"
        },
        {
          "inputs": [],
          "name": "EmptyBoxInfoCID",
          "type": "error"
        },
        {
          "inputs": [],
          "name": "EmptyKey",
          "type": "error"
        },
        {
          "inputs": [],
          "name": "EmptyList",
          "type": "error"
        },
        {
          "inputs": [],
          "name": "EmptyPrice",
          "type": "error"
        },
        {
          "inputs": [],
          "name": "EmptyTokenCID",
          "type": "error"
        },
        {
          "inputs": [],
          "name": "EmptyUserId",
          "type": "error"
        },
        {
          "inputs": [],
          "name": "InBlacklist",
          "type": "error"
        },
        {
          "inputs": [],
          "name": "InvalidCaller",
          "type": "error"
        },
        {
          "inputs": [],
          "name": "InvalidContractAddress",
          "type": "error"
        },
        {
          "inputs": [],
          "name": "InvalidDeadline",
          "type": "error"
        },
        {
          "inputs": [],
          "name": "InvalidERC20Interface",
          "type": "error"
        },
        {
          "inputs": [],
          "name": "InvalidImplementation",
          "type": "error"
        },
        {
          "inputs": [],
          "name": "InvalidPeriod",
          "type": "error"
        },
        {
          "inputs": [],
          "name": "InvalidRate",
          "type": "error"
        },
        {
          "inputs": [],
          "name": "InvalidSeconds",
          "type": "error"
        },
        {
          "inputs": [],
          "name": "InvalidStatus",
          "type": "error"
        },
        {
          "inputs": [],
          "name": "InvalidToken",
          "type": "error"
        },
        {
          "inputs": [],
          "name": "NotAdmin",
          "type": "error"
        },
        {
          "inputs": [],
          "name": "NotAdminOrDAO",
          "type": "error"
        },
        {
          "inputs": [],
          "name": "NotBuyer",
          "type": "error"
        },
        {
          "inputs": [],
          "name": "NotDAO",
          "type": "error"
        },
        {
          "inputs": [],
          "name": "NotInBlacklist",
          "type": "error"
        },
        {
          "inputs": [],
          "name": "NotInSecrecy",
          "type": "error"
        },
        {
          "inputs": [],
          "name": "NotInWindowPeriod",
          "type": "error"
        },
        {
          "inputs": [],
          "name": "NotMinter",
          "type": "error"
        },
        {
          "inputs": [],
          "name": "NotProjectCaller",
          "type": "error"
        },
        {
          "inputs": [],
          "name": "PublicTimeNotEnd",
          "type": "error"
        },
        {
          "inputs": [],
          "name": "RefundPermitTrue",
          "type": "error"
        },
        {
          "inputs": [],
          "name": "TokenAlreadyExists",
          "type": "error"
        },
        {
          "inputs": [],
          "name": "TokenNotExists",
          "type": "error"
        },
        {
          "inputs": [],
          "name": "TokenNotSupported",
          "type": "error"
        },
        {
          "inputs": [],
          "name": "WithdrawError",
          "type": "error"
        },
        {
          "inputs": [],
          "name": "ZeroAddress",
          "type": "error"
        },
        {
          "anonymous": false,
          "inputs": [
            {
              "indexed": true,
              "internalType": "uint256",
              "name": "boxId",
              "type": "uint256"
            },
            {
              "indexed": true,
              "internalType": "bytes32",
              "name": "userId",
              "type": "bytes32"
            }
          ],
          "name": "BidPlaced",
          "type": "event"
        },
        {
          "anonymous": false,
          "inputs": [
            {
              "indexed": true,
              "internalType": "uint256",
              "name": "boxId",
              "type": "uint256"
            },
            {
              "indexed": true,
              "internalType": "bytes32",
              "name": "userId",
              "type": "bytes32"
            },
            {
              "indexed": false,
              "internalType": "address",
              "name": "acceptedToken",
              "type": "address"
            }
          ],
          "name": "BoxListed",
          "type": "event"
        },
        {
          "anonymous": false,
          "inputs": [
            {
              "indexed": true,
              "internalType": "uint256",
              "name": "boxId",
              "type": "uint256"
            },
            {
              "indexed": true,
              "internalType": "bytes32",
              "name": "userId",
              "type": "bytes32"
            }
          ],
          "name": "BoxPurchased",
          "type": "event"
        },
        {
          "anonymous": false,
          "inputs": [
            {
              "indexed": true,
              "internalType": "uint256",
              "name": "boxId",
              "type": "uint256"
            },
            {
              "indexed": true,
              "internalType": "bytes32",
              "name": "userId",
              "type": "bytes32"
            }
          ],
          "name": "CompleterAssigned",
          "type": "event"
        },
        {
          "anonymous": false,
          "inputs": [
            {
              "indexed": true,
              "internalType": "uint256",
              "name": "boxId",
              "type": "uint256"
            },
            {
              "indexed": false,
              "internalType": "bool",
              "name": "permission",
              "type": "bool"
            }
          ],
          "name": "RefundPermitChanged",
          "type": "event"
        },
        {
          "anonymous": false,
          "inputs": [
            {
              "indexed": true,
              "internalType": "uint256",
              "name": "boxId",
              "type": "uint256"
            },
            {
              "indexed": false,
              "internalType": "uint256",
              "name": "deadline",
              "type": "uint256"
            }
          ],
          "name": "RequestDeadlineChanged",
          "type": "event"
        },
        {
          "anonymous": false,
          "inputs": [
            {
              "indexed": true,
              "internalType": "uint256",
              "name": "boxId",
              "type": "uint256"
            },
            {
              "indexed": false,
              "internalType": "uint256",
              "name": "deadline",
              "type": "uint256"
            }
          ],
          "name": "ReviewDeadlineChanged",
          "type": "event"
        },
        {
          "inputs": [],
          "name": "bidIncrementRate",
          "outputs": [
            {
              "internalType": "uint8",
              "name": "",
              "type": "uint8"
            }
          ],
          "stateMutability": "view",
          "type": "function"
        },
        {
          "inputs": [
            {
              "internalType": "address",
              "name": "forwarder",
              "type": "address"
            }
          ],
          "name": "isTrustedForwarder",
          "outputs": [
            {
              "internalType": "bool",
              "name": "",
              "type": "bool"
            }
          ],
          "stateMutability": "view",
          "type": "function"
        },
        {
          "inputs": [],
          "name": "refundRequestPeriod",
          "outputs": [
            {
              "internalType": "uint256",
              "name": "",
              "type": "uint256"
            }
          ],
          "stateMutability": "view",
          "type": "function"
        },
        {
          "inputs": [],
          "name": "refundReviewPeriod",
          "outputs": [
            {
              "internalType": "uint256",
              "name": "",
              "type": "uint256"
            }
          ],
          "stateMutability": "view",
          "type": "function"
        },
        {
          "inputs": [
            {
              "internalType": "address",
              "name": "addrManager_",
              "type": "address"
            }
          ],
          "name": "setAddressManager",
          "outputs": [],
          "stateMutability": "nonpayable",
          "type": "function"
        },
        {
          "inputs": [
            {
              "internalType": "address",
              "name": "admin_",
              "type": "address"
            }
          ],
          "name": "setAdmin",
          "outputs": [],
          "stateMutability": "nonpayable",
          "type": "function"
        },
        {
          "inputs": [
            {
              "internalType": "uint8",
              "name": "rate_",
              "type": "uint8"
            }
          ],
          "name": "setBidIncrementRate",
          "outputs": [],
          "stateMutability": "nonpayable",
          "type": "function"
        },
        {
          "inputs": [
            {
              "internalType": "uint256",
              "name": "period_",
              "type": "uint256"
            }
          ],
          "name": "setRefundRequestPeriod",
          "outputs": [],
          "stateMutability": "nonpayable",
          "type": "function"
        },
        {
          "inputs": [
            {
              "internalType": "uint256",
              "name": "period_",
              "type": "uint256"
            }
          ],
          "name": "setRefundReviewPeriod",
          "outputs": [],
          "stateMutability": "nonpayable",
          "type": "function"
        },
        {
          "inputs": [],
          "name": "trustedForwarder",
          "outputs": [
            {
              "internalType": "address",
              "name": "",
              "type": "address"
            }
          ],
          "stateMutability": "view",
          "type": "function"
        }
      ],
      "evm": {
        "bytecode": {
          "linkReferences": {},
          "object": "60a0346100bc57601f6105d438819003918201601f19168301916001600160401b038311848410176100c15780849260409485528339810103126100bc57610052602061004b836100d7565b92016100d7565b600080546001600160a01b03199081166001600160a01b039094169390931790556006805490921633179091556009805460ff1916606e17905562093a806007556213c6806008556080526040516104e890816100ec82396080518181816101d601526103290152f35b600080fd5b634e487b7160e01b600052604160045260246000fd5b51906001600160a01b03821682036100bc5756fe608060408181526004918236101561001657600080fd5b600092833560e01c9182630652b57a14610403575081634fb354b314610352578163572b6c05146102f75781635bcb595014610261578163704b6c02146102055781637da0a877146101c15781639ec123da146100f357508063d6e54ff5146100d5578063f0cc2b14146100b45763f74c8ea31461009357600080fd5b346100b057816003193601126100b0576020906008549051908152f35b5080fd5b50346100b057816003193601126100b05760209060ff600954169051908152f35b50346100b057816003193601126100b0576020906007549051908152f35b9050346101bd5760203660031901126101bd5782548251634162169f60e01b8152823593916001600160a01b03919060209082908690829086165afa9081156101b3578691610184575b50163303610177576213c6808310801561016b575b61015e57505060085580f35b516302e8f35960e31b8152fd5b50624f1a008311610152565b516327568d2f60e11b8152fd5b6101a6915060203d6020116101ac575b61019e8183610456565b81019061048e565b3861013d565b503d610194565b83513d88823e3d90fd5b8280fd5b5050346100b057816003193601126100b057517f00000000000000000000000000000000000000000000000000000000000000006001600160a01b03168152602090f35b919050346101bd5760203660031901126101bd576001600160a01b0382358181169391929084900361025d5760065492831633036102505750506001600160a01b0319161760065580f35b51637bfa4b9f60e01b8152fd5b8480fd5b9050346101bd5760203660031901126101bd5782548251634162169f60e01b8152823593916001600160a01b03919060209082908690829086165afa9081156101b35786916102d8575b501633036101775762093a80831080156102cc575b61015e57505060075580f35b506213c68083116102c0565b6102f1915060203d6020116101ac5761019e8183610456565b386102ab565b9050346101bd5760203660031901126101bd576001600160a01b03919035828116919082900361034e576020935051917f000000000000000000000000000000000000000000000000000000000000000016148152f35b8380fd5b9050346101bd5760203660031901126101bd5780359160ff831680930361034e5783548151634162169f60e01b81526001600160a01b039160209082908690829086165afa9081156101b35786916103e4575b5016330361017757606483118015906103da575b6103cd57505060ff19600954161760095580f35b51636a43f8d160e01b8152fd5b50609683116103b9565b6103fd915060203d6020116101ac5761019e8183610456565b386103a5565b8491346101bd5760203660031901126101bd5780356001600160a01b03818116939184900361025d5760065416330361044a57505081546001600160a01b03191617815580f35b637bfa4b9f60e01b8152fd5b90601f8019910116810190811067ffffffffffffffff82111761047857604052565b634e487b7160e01b600052604160045260246000fd5b908160209103126104ad57516001600160a01b03811681036104ad5790565b600080fdfea26469706673582212201a3fe10ec4520d22ec8f7f6b9f0958dd0587190ac8f3d93705ea35c94a2dbae964736f6c63430008180033",
          "opcodes": "PUSH1 0xA0 CALLVALUE PUSH2 0xBC JUMPI PUSH1 0x1F PUSH2 0x5D4 CODESIZE DUP2 SWAP1 SUB SWAP2 DUP3 ADD PUSH1 0x1F NOT AND DUP4 ADD SWAP2 PUSH1 0x1 PUSH1 0x1 PUSH1 0x40 SHL SUB DUP4 GT DUP5 DUP5 LT OR PUSH2 0xC1 JUMPI DUP1 DUP5 SWAP3 PUSH1 0x40 SWAP5 DUP6 MSTORE DUP4 CODECOPY DUP2 ADD SUB SLT PUSH2 0xBC JUMPI PUSH2 0x52 PUSH1 0x20 PUSH2 0x4B DUP4 PUSH2 0xD7 JUMP JUMPDEST SWAP3 ADD PUSH2 0xD7 JUMP JUMPDEST PUSH1 0x0 DUP1 SLOAD PUSH1 0x1 PUSH1 0x1 PUSH1 0xA0 SHL SUB NOT SWAP1 DUP2 AND PUSH1 0x1 PUSH1 0x1 PUSH1 0xA0 SHL SUB SWAP1 SWAP5 AND SWAP4 SWAP1 SWAP4 OR SWAP1 SSTORE PUSH1 0x6 DUP1 SLOAD SWAP1 SWAP3 AND CALLER OR SWAP1 SWAP2 SSTORE PUSH1 0x9 DUP1 SLOAD PUSH1 0xFF NOT AND PUSH1 0x6E OR SWAP1 SSTORE PUSH3 0x93A80 PUSH1 0x7 SSTORE PUSH3 0x13C680 PUSH1 0x8 SSTORE PUSH1 0x80 MSTORE PUSH1 0x40 MLOAD PUSH2 0x4E8 SWAP1 DUP2 PUSH2 0xEC DUP3 CODECOPY PUSH1 0x80 MLOAD DUP2 DUP2 DUP2 PUSH2 0x1D6 ADD MSTORE PUSH2 0x329 ADD MSTORE RETURN JUMPDEST PUSH1 0x0 DUP1 REVERT JUMPDEST PUSH4 0x4E487B71 PUSH1 0xE0 SHL PUSH1 0x0 MSTORE PUSH1 0x41 PUSH1 0x4 MSTORE PUSH1 0x24 PUSH1 0x0 REVERT JUMPDEST MLOAD SWAP1 PUSH1 0x1 PUSH1 0x1 PUSH1 0xA0 SHL SUB DUP3 AND DUP3 SUB PUSH2 0xBC JUMPI JUMP INVALID PUSH1 0x80 PUSH1 0x40 DUP2 DUP2 MSTORE PUSH1 0x4 SWAP2 DUP3 CALLDATASIZE LT ISZERO PUSH2 0x16 JUMPI PUSH1 0x0 DUP1 REVERT JUMPDEST PUSH1 0x0 SWAP3 DUP4 CALLDATALOAD PUSH1 0xE0 SHR SWAP2 DUP3 PUSH4 0x652B57A EQ PUSH2 0x403 JUMPI POP DUP2 PUSH4 0x4FB354B3 EQ PUSH2 0x352 JUMPI DUP2 PUSH4 0x572B6C05 EQ PUSH2 0x2F7 JUMPI DUP2 PUSH4 0x5BCB5950 EQ PUSH2 0x261 JUMPI DUP2 PUSH4 0x704B6C02 EQ PUSH2 0x205 JUMPI DUP2 PUSH4 0x7DA0A877 EQ PUSH2 0x1C1 JUMPI DUP2 PUSH4 0x9EC123DA EQ PUSH2 0xF3 JUMPI POP DUP1 PUSH4 0xD6E54FF5 EQ PUSH2 0xD5 JUMPI DUP1 PUSH4 0xF0CC2B14 EQ PUSH2 0xB4 JUMPI PUSH4 0xF74C8EA3 EQ PUSH2 0x93 JUMPI PUSH1 0x0 DUP1 REVERT JUMPDEST CALLVALUE PUSH2 0xB0 JUMPI DUP2 PUSH1 0x3 NOT CALLDATASIZE ADD SLT PUSH2 0xB0 JUMPI PUSH1 0x20 SWAP1 PUSH1 0x8 SLOAD SWAP1 MLOAD SWAP1 DUP2 MSTORE RETURN JUMPDEST POP DUP1 REVERT JUMPDEST POP CALLVALUE PUSH2 0xB0 JUMPI DUP2 PUSH1 0x3 NOT CALLDATASIZE ADD SLT PUSH2 0xB0 JUMPI PUSH1 0x20 SWAP1 PUSH1 0xFF PUSH1 0x9 SLOAD AND SWAP1 MLOAD SWAP1 DUP2 MSTORE RETURN JUMPDEST POP CALLVALUE PUSH2 0xB0 JUMPI DUP2 PUSH1 0x3 NOT CALLDATASIZE ADD SLT PUSH2 0xB0 JUMPI PUSH1 0x20 SWAP1 PUSH1 0x7 SLOAD SWAP1 MLOAD SWAP1 DUP2 MSTORE RETURN JUMPDEST SWAP1 POP CALLVALUE PUSH2 0x1BD JUMPI PUSH1 0x20 CALLDATASIZE PUSH1 0x3 NOT ADD SLT PUSH2 0x1BD JUMPI DUP3 SLOAD DUP3 MLOAD PUSH4 0x4162169F PUSH1 0xE0 SHL DUP2 MSTORE DUP3 CALLDATALOAD SWAP4 SWAP2 PUSH1 0x1 PUSH1 0x1 PUSH1 0xA0 SHL SUB SWAP2 SWAP1 PUSH1 0x20 SWAP1 DUP3 SWAP1 DUP7 SWAP1 DUP3 SWAP1 DUP7 AND GAS STATICCALL SWAP1 DUP2 ISZERO PUSH2 0x1B3 JUMPI DUP7 SWAP2 PUSH2 0x184 JUMPI JUMPDEST POP AND CALLER SUB PUSH2 0x177 JUMPI PUSH3 0x13C680 DUP4 LT DUP1 ISZERO PUSH2 0x16B JUMPI JUMPDEST PUSH2 0x15E JUMPI POP POP PUSH1 0x8 SSTORE DUP1 RETURN JUMPDEST MLOAD PUSH4 0x2E8F359 PUSH1 0xE3 SHL DUP2 MSTORE REVERT JUMPDEST POP PUSH3 0x4F1A00 DUP4 GT PUSH2 0x152 JUMP JUMPDEST MLOAD PUSH4 0x27568D2F PUSH1 0xE1 SHL DUP2 MSTORE REVERT JUMPDEST PUSH2 0x1A6 SWAP2 POP PUSH1 0x20 RETURNDATASIZE PUSH1 0x20 GT PUSH2 0x1AC JUMPI JUMPDEST PUSH2 0x19E DUP2 DUP4 PUSH2 0x456 JUMP JUMPDEST DUP2 ADD SWAP1 PUSH2 0x48E JUMP JUMPDEST CODESIZE PUSH2 0x13D JUMP JUMPDEST POP RETURNDATASIZE PUSH2 0x194 JUMP JUMPDEST DUP4 MLOAD RETURNDATASIZE DUP9 DUP3 RETURNDATACOPY RETURNDATASIZE SWAP1 REVERT JUMPDEST DUP3 DUP1 REVERT JUMPDEST POP POP CALLVALUE PUSH2 0xB0 JUMPI DUP2 PUSH1 0x3 NOT CALLDATASIZE ADD SLT PUSH2 0xB0 JUMPI MLOAD PUSH32 0x0 PUSH1 0x1 PUSH1 0x1 PUSH1 0xA0 SHL SUB AND DUP2 MSTORE PUSH1 0x20 SWAP1 RETURN JUMPDEST SWAP2 SWAP1 POP CALLVALUE PUSH2 0x1BD JUMPI PUSH1 0x20 CALLDATASIZE PUSH1 0x3 NOT ADD SLT PUSH2 0x1BD JUMPI PUSH1 0x1 PUSH1 0x1 PUSH1 0xA0 SHL SUB DUP3 CALLDATALOAD DUP2 DUP2 AND SWAP4 SWAP2 SWAP3 SWAP1 DUP5 SWAP1 SUB PUSH2 0x25D JUMPI PUSH1 0x6 SLOAD SWAP3 DUP4 AND CALLER SUB PUSH2 0x250 JUMPI POP POP PUSH1 0x1 PUSH1 0x1 PUSH1 0xA0 SHL SUB NOT AND OR PUSH1 0x6 SSTORE DUP1 RETURN JUMPDEST MLOAD PUSH4 0x7BFA4B9F PUSH1 0xE0 SHL DUP2 MSTORE REVERT JUMPDEST DUP5 DUP1 REVERT JUMPDEST SWAP1 POP CALLVALUE PUSH2 0x1BD JUMPI PUSH1 0x20 CALLDATASIZE PUSH1 0x3 NOT ADD SLT PUSH2 0x1BD JUMPI DUP3 SLOAD DUP3 MLOAD PUSH4 0x4162169F PUSH1 0xE0 SHL DUP2 MSTORE DUP3 CALLDATALOAD SWAP4 SWAP2 PUSH1 0x1 PUSH1 0x1 PUSH1 0xA0 SHL SUB SWAP2 SWAP1 PUSH1 0x20 SWAP1 DUP3 SWAP1 DUP7 SWAP1 DUP3 SWAP1 DUP7 AND GAS STATICCALL SWAP1 DUP2 ISZERO PUSH2 0x1B3 JUMPI DUP7 SWAP2 PUSH2 0x2D8 JUMPI JUMPDEST POP AND CALLER SUB PUSH2 0x177 JUMPI PUSH3 0x93A80 DUP4 LT DUP1 ISZERO PUSH2 0x2CC JUMPI JUMPDEST PUSH2 0x15E JUMPI POP POP PUSH1 0x7 SSTORE DUP1 RETURN JUMPDEST POP PUSH3 0x13C680 DUP4 GT PUSH2 0x2C0 JUMP JUMPDEST PUSH2 0x2F1 SWAP2 POP PUSH1 0x20 RETURNDATASIZE PUSH1 0x20 GT PUSH2 0x1AC JUMPI PUSH2 0x19E DUP2 DUP4 PUSH2 0x456 JUMP JUMPDEST CODESIZE PUSH2 0x2AB JUMP JUMPDEST SWAP1 POP CALLVALUE PUSH2 0x1BD JUMPI PUSH1 0x20 CALLDATASIZE PUSH1 0x3 NOT ADD SLT PUSH2 0x1BD JUMPI PUSH1 0x1 PUSH1 0x1 PUSH1 0xA0 SHL SUB SWAP2 SWAP1 CALLDATALOAD DUP3 DUP2 AND SWAP2 SWAP1 DUP3 SWAP1 SUB PUSH2 0x34E JUMPI PUSH1 0x20 SWAP4 POP MLOAD SWAP2 PUSH32 0x0 AND EQ DUP2 MSTORE RETURN JUMPDEST DUP4 DUP1 REVERT JUMPDEST SWAP1 POP CALLVALUE PUSH2 0x1BD JUMPI PUSH1 0x20 CALLDATASIZE PUSH1 0x3 NOT ADD SLT PUSH2 0x1BD JUMPI DUP1 CALLDATALOAD SWAP2 PUSH1 0xFF DUP4 AND DUP1 SWAP4 SUB PUSH2 0x34E JUMPI DUP4 SLOAD DUP2 MLOAD PUSH4 0x4162169F PUSH1 0xE0 SHL DUP2 MSTORE PUSH1 0x1 PUSH1 0x1 PUSH1 0xA0 SHL SUB SWAP2 PUSH1 0x20 SWAP1 DUP3 SWAP1 DUP7 SWAP1 DUP3 SWAP1 DUP7 AND GAS STATICCALL SWAP1 DUP2 ISZERO PUSH2 0x1B3 JUMPI DUP7 SWAP2 PUSH2 0x3E4 JUMPI JUMPDEST POP AND CALLER SUB PUSH2 0x177 JUMPI PUSH1 0x64 DUP4 GT DUP1 ISZERO SWAP1 PUSH2 0x3DA JUMPI JUMPDEST PUSH2 0x3CD JUMPI POP POP PUSH1 0xFF NOT PUSH1 0x9 SLOAD AND OR PUSH1 0x9 SSTORE DUP1 RETURN JUMPDEST MLOAD PUSH4 0x6A43F8D1 PUSH1 0xE0 SHL DUP2 MSTORE REVERT JUMPDEST POP PUSH1 0x96 DUP4 GT PUSH2 0x3B9 JUMP JUMPDEST PUSH2 0x3FD SWAP2 POP PUSH1 0x20 RETURNDATASIZE PUSH1 0x20 GT PUSH2 0x1AC JUMPI PUSH2 0x19E DUP2 DUP4 PUSH2 0x456 JUMP JUMPDEST CODESIZE PUSH2 0x3A5 JUMP JUMPDEST DUP5 SWAP2 CALLVALUE PUSH2 0x1BD JUMPI PUSH1 0x20 CALLDATASIZE PUSH1 0x3 NOT ADD SLT PUSH2 0x1BD JUMPI DUP1 CALLDATALOAD PUSH1 0x1 PUSH1 0x1 PUSH1 0xA0 SHL SUB DUP2 DUP2 AND SWAP4 SWAP2 DUP5 SWAP1 SUB PUSH2 0x25D JUMPI PUSH1 0x6 SLOAD AND CALLER SUB PUSH2 0x44A JUMPI POP POP DUP2 SLOAD PUSH1 0x1 PUSH1 0x1 PUSH1 0xA0 SHL SUB NOT AND OR DUP2 SSTORE DUP1 RETURN JUMPDEST PUSH4 0x7BFA4B9F PUSH1 0xE0 SHL DUP2 MSTORE REVERT JUMPDEST SWAP1 PUSH1 0x1F DUP1 NOT SWAP2 ADD AND DUP2 ADD SWAP1 DUP2 LT PUSH8 0xFFFFFFFFFFFFFFFF DUP3 GT OR PUSH2 0x478 JUMPI PUSH1 0x40 MSTORE JUMP JUMPDEST PUSH4 0x4E487B71 PUSH1 0xE0 SHL PUSH1 0x0 MSTORE PUSH1 0x41 PUSH1 0x4 MSTORE PUSH1 0x24 PUSH1 0x0 REVERT JUMPDEST SWAP1 DUP2 PUSH1 0x20 SWAP2 SUB SLT PUSH2 0x4AD JUMPI MLOAD PUSH1 0x1 PUSH1 0x1 PUSH1 0xA0 SHL SUB DUP2 AND DUP2 SUB PUSH2 0x4AD JUMPI SWAP1 JUMP JUMPDEST PUSH1 0x0 DUP1 REVERT INVALID LOG2 PUSH5 0x6970667358 0x22 SLT KECCAK256 BYTE EXTCODEHASH 0xE1 0xE 0xC4 MSTORE 0xD 0x22 0xEC DUP16 PUSH32 0x6B9F0958DD0587190AC8F3D93705EA35C94A2DBAE964736F6C63430008180033 "
        },
        "methodIdentifiers": {
          "bidIncrementRate()": "f0cc2b14",
          "isTrustedForwarder(address)": "572b6c05",
          "refundRequestPeriod()": "d6e54ff5",
          "refundReviewPeriod()": "f74c8ea3",
          "setAddressManager(address)": "0652b57a",
          "setAdmin(address)": "704b6c02",
          "setBidIncrementRate(uint8)": "4fb354b3",
          "setRefundRequestPeriod(uint256)": "5bcb5950",
          "setRefundReviewPeriod(uint256)": "9ec123da",
          "trustedForwarder()": "7da0a877"
        }
      },
      "storageLayout": {
        "storage": [
          {
            "astId": 4843,
            "contract": "contracts/base/Exchange02.sol:Exchange02",
            "label": "ADDR_MANAGER",
            "offset": 0,
            "slot": "0",
            "type": "t_contract(IAddressManager)271"
          },
          {
            "astId": 4845,
            "contract": "contracts/base/Exchange02.sol:Exchange02",
            "label": "SIWE_AUTH",
            "offset": 0,
            "slot": "1",
            "type": "t_address"
          },
          {
            "astId": 4848,
            "contract": "contracts/base/Exchange02.sol:Exchange02",
            "label": "USER_MANAGER",
            "offset": 0,
            "slot": "2",
            "type": "t_contract(IUserManager)920"
          },
          {
            "astId": 4851,
            "contract": "contracts/base/Exchange02.sol:Exchange02",
            "label": "EXCHANGE",
            "offset": 0,
            "slot": "3",
            "type": "t_contract(IExchange)486"
          },
          {
            "astId": 4854,
            "contract": "contracts/base/Exchange02.sol:Exchange02",
            "label": "FUND_MANAGER",
            "offset": 0,
            "slot": "4",
            "type": "t_contract(IFundManager)663"
          },
          {
            "astId": 4857,
            "contract": "contracts/base/Exchange02.sol:Exchange02",
            "label": "TRUTH_BOX",
            "offset": 0,
            "slot": "5",
            "type": "t_contract(ITruthBox)870"
          },
          {
            "astId": 5062,
            "contract": "contracts/base/Exchange02.sol:Exchange02",
            "label": "ADMIN",
            "offset": 0,
            "slot": "6",
            "type": "t_address"
          },
          {
            "astId": 3628,
            "contract": "contracts/base/Exchange02.sol:Exchange02",
            "label": "_refundRequestPeriod",
            "offset": 0,
            "slot": "7",
            "type": "t_uint256"
          },
          {
            "astId": 3630,
            "contract": "contracts/base/Exchange02.sol:Exchange02",
            "label": "_refundReviewPeriod",
            "offset": 0,
            "slot": "8",
            "type": "t_uint256"
          },
          {
            "astId": 3632,
            "contract": "contracts/base/Exchange02.sol:Exchange02",
            "label": "_bidIncrementRate",
            "offset": 0,
            "slot": "9",
            "type": "t_uint8"
          },
          {
            "astId": 3789,
            "contract": "contracts/base/Exchange02.sol:Exchange02",
            "label": "_boxExchengData",
            "offset": 0,
            "slot": "10",
            "type": "t_mapping(t_uint256,t_struct(BoxExchengData)3784_storage)"
          }
        ],
        "types": {
          "t_address": {
            "encoding": "inplace",
            "label": "address",
            "numberOfBytes": "20"
          },
          "t_bool": {
            "encoding": "inplace",
            "label": "bool",
            "numberOfBytes": "1"
          },
          "t_bytes32": {
            "encoding": "inplace",
            "label": "bytes32",
            "numberOfBytes": "32"
          },
          "t_contract(IAddressManager)271": {
            "encoding": "inplace",
            "label": "contract IAddressManager",
            "numberOfBytes": "20"
          },
          "t_contract(IExchange)486": {
            "encoding": "inplace",
            "label": "contract IExchange",
            "numberOfBytes": "20"
          },
          "t_contract(IFundManager)663": {
            "encoding": "inplace",
            "label": "contract IFundManager",
            "numberOfBytes": "20"
          },
          "t_contract(ITruthBox)870": {
            "encoding": "inplace",
            "label": "contract ITruthBox",
            "numberOfBytes": "20"
          },
          "t_contract(IUserManager)920": {
            "encoding": "inplace",
            "label": "contract IUserManager",
            "numberOfBytes": "20"
          },
          "t_mapping(t_uint256,t_struct(BoxExchengData)3784_storage)": {
            "encoding": "mapping",
            "key": "t_uint256",
            "label": "mapping(uint256 => struct Exchange02.BoxExchengData)",
            "numberOfBytes": "32",
            "value": "t_struct(BoxExchengData)3784_storage"
          },
          "t_struct(BoxExchengData)3784_storage": {
            "encoding": "inplace",
            "label": "struct Exchange02.BoxExchengData",
            "members": [
              {
                "astId": 3771,
                "contract": "contracts/base/Exchange02.sol:Exchange02",
                "label": "_acceptedToken",
                "offset": 0,
                "slot": "0",
                "type": "t_address"
              },
              {
                "astId": 3773,
                "contract": "contracts/base/Exchange02.sol:Exchange02",
                "label": "_sellerId",
                "offset": 0,
                "slot": "1",
                "type": "t_bytes32"
              },
              {
                "astId": 3775,
                "contract": "contracts/base/Exchange02.sol:Exchange02",
                "label": "_buyerId",
                "offset": 0,
                "slot": "2",
                "type": "t_bytes32"
              },
              {
                "astId": 3777,
                "contract": "contracts/base/Exchange02.sol:Exchange02",
                "label": "_completerId",
                "offset": 0,
                "slot": "3",
                "type": "t_bytes32"
              },
              {
                "astId": 3779,
                "contract": "contracts/base/Exchange02.sol:Exchange02",
                "label": "_refundRequestDeadline",
                "offset": 0,
                "slot": "4",
                "type": "t_uint256"
              },
              {
                "astId": 3781,
                "contract": "contracts/base/Exchange02.sol:Exchange02",
                "label": "_refundReviewDeadline",
                "offset": 0,
                "slot": "5",
                "type": "t_uint256"
              },
              {
                "astId": 3783,
                "contract": "contracts/base/Exchange02.sol:Exchange02",
                "label": "_refundPermit",
                "offset": 0,
                "slot": "6",
                "type": "t_bool"
              }
            ],
            "numberOfBytes": "224"
          },
          "t_uint256": {
            "encoding": "inplace",
            "label": "uint256",
            "numberOfBytes": "32"
          },
          "t_uint8": {
            "encoding": "inplace",
            "label": "uint8",
            "numberOfBytes": "1"
          }
        }
      }
    }
  }
}