{
  "contracts/AddressManager.sol": {
    "AddressManager": {
      "abi": [
        {
          "inputs": [],
          "stateMutability": "nonpayable",
          "type": "constructor"
        },
        {
          "inputs": [],
          "name": "AddressAlreadyExists",
          "type": "error"
        },
        {
          "inputs": [],
          "name": "AmountIsZero",
          "type": "error"
        },
        {
          "inputs": [],
          "name": "ApprovalFailed",
          "type": "error"
        },
        {
          "inputs": [],
          "name": "AuctionOver",
          "type": "error"
        },
        {
          "inputs": [],
          "name": "AvailableBuyer",
          "type": "error"
        },
        {
          "inputs": [],
          "name": "BoxNotExists",
          "type": "error"
        },
        {
          "inputs": [],
          "name": "DeadlineIsOver",
          "type": "error"
        },
        {
          "inputs": [],
          "name": "DeadlineNotOver",
          "type": "error"
        },
        {
          "inputs": [],
          "name": "EmptyBoxInfoCID",
          "type": "error"
        },
        {
          "inputs": [],
          "name": "EmptyKey",
          "type": "error"
        },
        {
          "inputs": [],
          "name": "EmptyList",
          "type": "error"
        },
        {
          "inputs": [],
          "name": "EmptyPrice",
          "type": "error"
        },
        {
          "inputs": [],
          "name": "EmptyTokenCID",
          "type": "error"
        },
        {
          "inputs": [],
          "name": "EmptyUserId",
          "type": "error"
        },
        {
          "inputs": [],
          "name": "InBlacklist",
          "type": "error"
        },
        {
          "inputs": [],
          "name": "InvalidAddress",
          "type": "error"
        },
        {
          "inputs": [],
          "name": "InvalidCaller",
          "type": "error"
        },
        {
          "inputs": [],
          "name": "InvalidContractAddress",
          "type": "error"
        },
        {
          "inputs": [],
          "name": "InvalidDeadline",
          "type": "error"
        },
        {
          "inputs": [],
          "name": "InvalidERC20Interface",
          "type": "error"
        },
        {
          "inputs": [],
          "name": "InvalidImplementation",
          "type": "error"
        },
        {
          "inputs": [],
          "name": "InvalidIndex",
          "type": "error"
        },
        {
          "inputs": [],
          "name": "InvalidPeriod",
          "type": "error"
        },
        {
          "inputs": [],
          "name": "InvalidRate",
          "type": "error"
        },
        {
          "inputs": [],
          "name": "InvalidSeconds",
          "type": "error"
        },
        {
          "inputs": [],
          "name": "InvalidStatus",
          "type": "error"
        },
        {
          "inputs": [],
          "name": "IsSettlementToken",
          "type": "error"
        },
        {
          "inputs": [],
          "name": "NotAdmin",
          "type": "error"
        },
        {
          "inputs": [],
          "name": "NotAdminOrDAO",
          "type": "error"
        },
        {
          "inputs": [],
          "name": "NotBuyer",
          "type": "error"
        },
        {
          "inputs": [],
          "name": "NotDAO",
          "type": "error"
        },
        {
          "inputs": [],
          "name": "NotInBlacklist",
          "type": "error"
        },
        {
          "inputs": [],
          "name": "NotInSecrecy",
          "type": "error"
        },
        {
          "inputs": [],
          "name": "NotInWindowPeriod",
          "type": "error"
        },
        {
          "inputs": [],
          "name": "NotMinter",
          "type": "error"
        },
        {
          "inputs": [],
          "name": "NotProjectCaller",
          "type": "error"
        },
        {
          "inputs": [],
          "name": "PublicTimeNotEnd",
          "type": "error"
        },
        {
          "inputs": [],
          "name": "RefundPermitTrue",
          "type": "error"
        },
        {
          "inputs": [],
          "name": "RemoveError",
          "type": "error"
        },
        {
          "inputs": [],
          "name": "TokenAlreadyExists",
          "type": "error"
        },
        {
          "inputs": [],
          "name": "TokenIsActive",
          "type": "error"
        },
        {
          "inputs": [],
          "name": "TokenIsNotActive",
          "type": "error"
        },
        {
          "inputs": [],
          "name": "TokenNotExists",
          "type": "error"
        },
        {
          "inputs": [],
          "name": "TokenNotSupported",
          "type": "error"
        },
        {
          "inputs": [],
          "name": "WithdrawError",
          "type": "error"
        },
        {
          "inputs": [],
          "name": "ZeroAddress",
          "type": "error"
        },
        {
          "inputs": [
            {
              "internalType": "address",
              "name": "reservedAddress_",
              "type": "address"
            }
          ],
          "name": "addReservedAddress",
          "outputs": [],
          "stateMutability": "nonpayable",
          "type": "function"
        },
        {
          "inputs": [
            {
              "internalType": "address",
              "name": "token_",
              "type": "address"
            }
          ],
          "name": "addToken",
          "outputs": [],
          "stateMutability": "nonpayable",
          "type": "function"
        },
        {
          "inputs": [],
          "name": "admin",
          "outputs": [
            {
              "internalType": "address",
              "name": "",
              "type": "address"
            }
          ],
          "stateMutability": "view",
          "type": "function"
        },
        {
          "inputs": [],
          "name": "dao",
          "outputs": [
            {
              "internalType": "address",
              "name": "",
              "type": "address"
            }
          ],
          "stateMutability": "view",
          "type": "function"
        },
        {
          "inputs": [],
          "name": "daoFundManager",
          "outputs": [
            {
              "internalType": "address",
              "name": "",
              "type": "address"
            }
          ],
          "stateMutability": "view",
          "type": "function"
        },
        {
          "inputs": [],
          "name": "exchange",
          "outputs": [
            {
              "internalType": "address",
              "name": "",
              "type": "address"
            }
          ],
          "stateMutability": "view",
          "type": "function"
        },
        {
          "inputs": [],
          "name": "forwarder",
          "outputs": [
            {
              "internalType": "address",
              "name": "",
              "type": "address"
            }
          ],
          "stateMutability": "view",
          "type": "function"
        },
        {
          "inputs": [],
          "name": "fundManager",
          "outputs": [
            {
              "internalType": "address",
              "name": "",
              "type": "address"
            }
          ],
          "stateMutability": "view",
          "type": "function"
        },
        {
          "inputs": [
            {
              "internalType": "uint256",
              "name": "index_",
              "type": "uint256"
            }
          ],
          "name": "getAddressFromIndex",
          "outputs": [
            {
              "internalType": "address",
              "name": "",
              "type": "address"
            }
          ],
          "stateMutability": "view",
          "type": "function"
        },
        {
          "inputs": [],
          "name": "getTokenList",
          "outputs": [
            {
              "internalType": "address[]",
              "name": "",
              "type": "address[]"
            }
          ],
          "stateMutability": "view",
          "type": "function"
        },
        {
          "inputs": [],
          "name": "governance",
          "outputs": [
            {
              "internalType": "address",
              "name": "",
              "type": "address"
            }
          ],
          "stateMutability": "view",
          "type": "function"
        },
        {
          "inputs": [
            {
              "internalType": "address",
              "name": "contract_",
              "type": "address"
            }
          ],
          "name": "isProjectContract",
          "outputs": [
            {
              "internalType": "bool",
              "name": "",
              "type": "bool"
            }
          ],
          "stateMutability": "view",
          "type": "function"
        },
        {
          "inputs": [
            {
              "internalType": "address",
              "name": "token_",
              "type": "address"
            }
          ],
          "name": "isTokenSupported",
          "outputs": [
            {
              "internalType": "bool",
              "name": "",
              "type": "bool"
            }
          ],
          "stateMutability": "view",
          "type": "function"
        },
        {
          "inputs": [
            {
              "internalType": "uint256",
              "name": "index_",
              "type": "uint256"
            }
          ],
          "name": "removeReservedAddress",
          "outputs": [],
          "stateMutability": "nonpayable",
          "type": "function"
        },
        {
          "inputs": [
            {
              "internalType": "address",
              "name": "token_",
              "type": "address"
            }
          ],
          "name": "removeToken",
          "outputs": [],
          "stateMutability": "nonpayable",
          "type": "function"
        },
        {
          "inputs": [],
          "name": "reservedList",
          "outputs": [
            {
              "internalType": "address[]",
              "name": "",
              "type": "address[]"
            }
          ],
          "stateMutability": "view",
          "type": "function"
        },
        {
          "inputs": [
            {
              "internalType": "address[]",
              "name": "list_",
              "type": "address[]"
            }
          ],
          "name": "setAddressList",
          "outputs": [],
          "stateMutability": "nonpayable",
          "type": "function"
        },
        {
          "inputs": [
            {
              "internalType": "address",
              "name": "newAdmin_",
              "type": "address"
            }
          ],
          "name": "setAdmin",
          "outputs": [],
          "stateMutability": "nonpayable",
          "type": "function"
        },
        {
          "inputs": [],
          "name": "setAllAddress",
          "outputs": [],
          "stateMutability": "nonpayable",
          "type": "function"
        },
        {
          "inputs": [
            {
              "internalType": "address",
              "name": "token_",
              "type": "address"
            }
          ],
          "name": "setSettlementToken",
          "outputs": [],
          "stateMutability": "nonpayable",
          "type": "function"
        },
        {
          "inputs": [
            {
              "internalType": "address[]",
              "name": "list_",
              "type": "address[]"
            }
          ],
          "name": "setSwapContracts",
          "outputs": [],
          "stateMutability": "nonpayable",
          "type": "function"
        },
        {
          "inputs": [],
          "name": "settlementToken",
          "outputs": [
            {
              "internalType": "address",
              "name": "",
              "type": "address"
            }
          ],
          "stateMutability": "view",
          "type": "function"
        },
        {
          "inputs": [],
          "name": "siweAuth",
          "outputs": [
            {
              "internalType": "address",
              "name": "",
              "type": "address"
            }
          ],
          "stateMutability": "view",
          "type": "function"
        },
        {
          "inputs": [],
          "name": "swapContracts",
          "outputs": [
            {
              "internalType": "address[]",
              "name": "",
              "type": "address[]"
            }
          ],
          "stateMutability": "view",
          "type": "function"
        },
        {
          "inputs": [],
          "name": "truthBox",
          "outputs": [
            {
              "internalType": "address",
              "name": "",
              "type": "address"
            }
          ],
          "stateMutability": "view",
          "type": "function"
        },
        {
          "inputs": [],
          "name": "userManager",
          "outputs": [
            {
              "internalType": "address",
              "name": "",
              "type": "address"
            }
          ],
          "stateMutability": "view",
          "type": "function"
        }
      ],
      "evm": {
        "bytecode": {
          "linkReferences": {},
          "object": "6080806040523461002857600080546001600160a01b03191633179055611398908161002e8239f35b600080fdfe608060408181526004918236101561001657600080fd5b600092833560e01c9182630a7263b014610f46575081631277b83314610dbd5781632070c94614610d7f57816320fe2ec914610cfc5781632651d4c814610c0e578163273cbaa014610b8b5781633ef476db14610ad95781634162169f14610ab057816350ec99a714610a875781635aa6e67514610a5e5781635be6b37e1461077e5781635c8a7687146107565781635e253fc61461072d5781635fa7b584146106725781636209ec2d146106495781636f9f44c514610620578163704b6c02146105b857816375151b631461055b57816377c23878146104c75781637b9e618d1461048857816397fd4955146103f4578163d2f7265a146103cb578163d48bfca7146102ba578163e0ea0dca1461019557508063f645d4f91461016d5763f851a4401461014357600080fd5b34610169578160031936011261016957905490516001600160a01b039091168152602090f35b5080fd5b503461016957816003193601126101695760095490516001600160a01b039091168152602090f35b83915034610169576101a636611042565b82546001600160a01b039491929190851633036102ad5750825b82518110156102a957846101d4828561121f565b51166101e3575b6001016101c0565b600a8054808310156102645750508061021c86610201600194611122565b9190548161020f868a61121f565b51169260031b1c166112f1565b610228575b90506101db565b61025f86610236838761121f565b511661024183611122565b90919060018060a01b038084549260031b9316831b921b1916179055565b610221565b8661026f848761121f565b511691600160401b821015610294579161024182600195948661025f95019055611122565b604185634e487b7160e01b6000525260246000fd5b8380f35b51637bfa4b9f60e01b8152fd5b9050346103c75760203660031901126103c7576102d5610f96565b83546001600160a01b0390811633036103b75781169182156103a957828552600d60205260ff848620541660038110156103885760011461039b57828552600d60205260ff848620541660038110156103885715610347575b50508252600d6020528120805460ff1916600117905580f35b600c5490600160401b82101561037357509061024182600161036c9401600c55611159565b388061032e565b604190634e487b7160e01b6000525260246000fd5b634e487b7160e01b865260218252602486fd5b83516336da557360e11b8152fd5b835163e6c4247b60e01b8152fd5b8351637bfa4b9f60e01b81528390fd5b8280fd5b50503461016957816003193601126101695760085490516001600160a01b039091168152602090f35b8284346104855780600319360112610485578151918291600e54808552602080950194600e83527fbb7b4a454dc3493923482f07822329ed19e8244eff582cc204f8554c3620c3fd92905b828210610465576104618686610457828b0383611020565b5191829182610fb1565b0390f35b83546001600160a01b03168752958601956001938401939091019061043f565b80fd5b82843461048557806003193601126104855750600b546001600160a01b03169081156104b8576020925051908152f35b5163e6c4247b60e01b81529050fd5b9050346103c75760203660031901126103c7576104e2610f96565b83546001600160a01b0390811633036103b75781169182156103a957828552600f60205260ff848620541661054d57600e5490600160401b8210156103735750906102418260016105369401600e556110d5565b8252600f6020528120805460ff1916600117905580f35b835163516c350f60e11b8152fd5b90508234610485576020366003190112610485576001600160a01b0361057f610f96565b168152600d60205260ff83822054169160038310156105a5576020836001865191148152f35b634e487b7160e01b825260219052602490fd5b9050346103c75760203660031901126103c7576105d3610f96565b835491906001600160a01b0390818416330361061057169283156106035750506001600160a01b03191617815580f35b5163e6c4247b60e01b8152fd5b8451637bfa4b9f60e01b81528390fd5b50503461016957816003193601126101695760065490516001600160a01b039091168152602090f35b50503461016957816003193601126101695760075490516001600160a01b039091168152602090f35b9050346103c75760203660031901126103c75761068d610f96565b83546001600160a01b0392908316330361071f5782821692838652600d60205260ff8587205416600381101561070c576001036106fd57600b541683146106ef57506106d890611233565b8252600d6020528120805460ff1916600217905580f35b83516356d9502d60e01b8152fd5b50835163b5cc46ad60e01b8152fd5b634e487b7160e01b875260218352602487fd5b8351637bfa4b9f60e01b8152fd5b50503461016957816003193601126101695760035490516001600160a01b039091168152602090f35b9050346103c757826003193601126103c7575490516001600160a01b03909116815260209150f35b9050346103c75761078e36611042565b83546001600160a01b039391929190841633036102ad5750826107b083611190565b5116610a23575b826107c18361119d565b51166109e8575b826107d2836111ad565b51166109ad575b826107e3836111bd565b5116610975575b50816107f5826111cd565b511661093a575b81610806826111dd565b51166108ff575b81610817826111ed565b51166108c4575b81610828826111fd565b5116610889575b816108398261120e565b5116610843578280f35b61085d8260095416836108558461120e565b5116906112f1565b610865578280f35b61086e9061120e565b51166001600160601b0360a01b600954161760095538808280f35b61089b826007541683610855846111fd565b1561082f57816108aa826111fd565b51166001600160601b0360a01b600754161760075561082f565b6108d6826008541683610855846111ed565b1561081e57816108e5826111ed565b51166001600160601b0360a01b600854161760085561081e565b610911826006541683610855846111dd565b1561080d5781610920826111dd565b51166001600160601b0360a01b600654161760065561080d565b61094c826005541683610855846111cd565b156107fc578161095b826111cd565b51166001600160601b0360a01b60055416176005556107fc565b6109868382541684610855856111bd565b156107ea5782610995836111bd565b5182546001600160a01b0319169116179055386107ea565b6109bf836003541684610855856111ad565b156107d957826109ce836111ad565b51166001600160601b0360a01b60035416176003556107d9565b6109fa8360025416846108558561119d565b156107c85782610a098361119d565b51166001600160601b0360a01b60025416176002556107c8565b610a3583600154168461085585611190565b156107b75782610a4483611190565b51166001600160601b0360a01b60015416176001556107b7565b50503461016957816003193601126101695760025490516001600160a01b039091168152602090f35b50503461016957816003193601126101695760055490516001600160a01b039091168152602090f35b50503461016957816003193601126101695760015490516001600160a01b039091168152602090f35b919050346103c75760203660031901126103c757610af5610f96565b83546001600160a01b039081163303610b7c5780600b54169082169384158015610b73575b6103a957509081610b3092610b5b575b50611233565b818352600d6020528220600160ff198254161790556001600160601b0360a01b600b541617600b5580f35b8552600d602052828520805460ff1916905538610b2a565b50818514610b1a565b505051637bfa4b9f60e01b8152fd5b8284346104855780600319360112610485578151918291600c54808552602080950194600c83527fdf6966c971051c3d54ec59162606531493a51404a002842f56009d7e5cf4a8c792905b828210610bee576104618686610457828b0383611020565b83546001600160a01b031687529586019560019384019390910190610bd6565b9050346103c75760203660031901126103c75782546001600160a01b03918035918316330361071f57600e5480831015610ced57610c4b836110d5565b9290549360001992838101908111610cda579061024187610c6e610c7c946110d5565b90549060031b1c16916110d5565b600e54908115610cc5575001610ca9610c94826110d5565b81549060018060a01b039060031b1b19169055565b600e5560031b1c168252600f6020528120805460ff1916905580f35b603190634e487b7160e01b6000525260246000fd5b634e487b7160e01b895260118352602489fd5b5083516363df817160e01b8152fd5b8284346104855780600319360112610485578151918291600a54808552602080950194600a83527fc65a7bb8d6351c1cf70c95a316cc6a92839c986682d98bc35f958f4883f9d2a892905b828210610d5f576104618686610457828b0383611020565b83546001600160a01b031687529586019560019384019390910190610d47565b5050346101695760203660031901126101695760209160ff9082906001600160a01b03610daa610f96565b168152600f855220541690519015158152f35b8391503461016957816003193601126101695781546001600160a01b039390841633036102ad578360085416803b15610f4257815194848685818363e656927560e01b968783525af18015610f3857610f24575b8495508060075416803b15610ef857858091868651809481938883525af18015610eee57908691610f10575b50508060065416803b15610ef857858091868651809481938883525af18015610eee57908691610efc575b505080845416803b15610ef857858091868651809481938883525af18015610eee57908691610eda575b505060095416803b15610ed657849384928451958693849283525af1908115610ecd5750610ebd5750f35b610ec690610ff6565b6104855780f35b513d84823e3d90fd5b8480fd5b610ee390610ff6565b610ed6578487610e92565b84513d88823e3d90fd5b8580fd5b610f0590610ff6565b610ed6578487610e68565b610f1990610ff6565b610ed6578487610e3d565b939094610f3090610ff6565b928490610e11565b83513d87823e3d90fd5b8380fd5b838286346104855760203660031901126104855750803592600e54841015610f8a57602083610f74866110d5565b905491519160018060a01b039160031b1c168152f35b6363df817160e01b8152fd5b600435906001600160a01b0382168203610fac57565b600080fd5b602090602060408183019282815285518094520193019160005b828110610fd9575050505090565b83516001600160a01b031685529381019392810192600101610fcb565b67ffffffffffffffff811161100a57604052565b634e487b7160e01b600052604160045260246000fd5b90601f8019910116810190811067ffffffffffffffff82111761100a57604052565b602080600319830112610fac5767ffffffffffffffff91600435838111610fac5781602382011215610fac57806004013593841161100a578360051b90604051946110906020840187611020565b855260246020860192820101928311610fac57602401905b8282106110b6575050505090565b81356001600160a01b0381168103610fac5781529083019083016110a8565b600e5481101561110c57600e6000527fbb7b4a454dc3493923482f07822329ed19e8244eff582cc204f8554c3620c3fd0190600090565b634e487b7160e01b600052603260045260246000fd5b600a5481101561110c57600a6000527fc65a7bb8d6351c1cf70c95a316cc6a92839c986682d98bc35f958f4883f9d2a80190600090565b600c5481101561110c57600c6000527fdf6966c971051c3d54ec59162606531493a51404a002842f56009d7e5cf4a8c70190600090565b80511561110c5760200190565b80516001101561110c5760400190565b80516002101561110c5760600190565b80516003101561110c5760800190565b80516004101561110c5760a00190565b80516005101561110c5760c00190565b80516006101561110c5760e00190565b80516007101561110c576101000190565b80516008101561110c576101200190565b805182101561110c5760209160051b010190565b6000905b600c918254808210156112eb5761124d82611159565b90546001600160a01b0392600392909190831b1c831685841614611278575050506001019150611237565b60001994509092918482019182116112d5576112a69361129a61024193611159565b9054911b1c1691611159565b815480156112bf5701906112bc610c9483611159565b55565b634e487b7160e01b600052603160045260246000fd5b634e487b7160e01b600052601160045260246000fd5b50505050565b6001600160a01b0390811691821561134157169081811461133a57600052600f60205260406000209060ff19918281541690556000526001604060002091825416179055600190565b5050600090565b90915016600052600f6020526040600020600160ff1982541617905560019056fea2646970667358221220bb0cc7019808eb292c5e4d8731da4e31c7bdaecf4084712ab68afe1f97c7881364736f6c63430008180033",
          "opcodes": "PUSH1 0x80 DUP1 PUSH1 0x40 MSTORE CALLVALUE PUSH2 0x28 JUMPI PUSH1 0x0 DUP1 SLOAD PUSH1 0x1 PUSH1 0x1 PUSH1 0xA0 SHL SUB NOT AND CALLER OR SWAP1 SSTORE PUSH2 0x1398 SWAP1 DUP2 PUSH2 0x2E DUP3 CODECOPY RETURN JUMPDEST PUSH1 0x0 DUP1 REVERT INVALID PUSH1 0x80 PUSH1 0x40 DUP2 DUP2 MSTORE PUSH1 0x4 SWAP2 DUP3 CALLDATASIZE LT ISZERO PUSH2 0x16 JUMPI PUSH1 0x0 DUP1 REVERT JUMPDEST PUSH1 0x0 SWAP3 DUP4 CALLDATALOAD PUSH1 0xE0 SHR SWAP2 DUP3 PUSH4 0xA7263B0 EQ PUSH2 0xF46 JUMPI POP DUP2 PUSH4 0x1277B833 EQ PUSH2 0xDBD JUMPI DUP2 PUSH4 0x2070C946 EQ PUSH2 0xD7F JUMPI DUP2 PUSH4 0x20FE2EC9 EQ PUSH2 0xCFC JUMPI DUP2 PUSH4 0x2651D4C8 EQ PUSH2 0xC0E JUMPI DUP2 PUSH4 0x273CBAA0 EQ PUSH2 0xB8B JUMPI DUP2 PUSH4 0x3EF476DB EQ PUSH2 0xAD9 JUMPI DUP2 PUSH4 0x4162169F EQ PUSH2 0xAB0 JUMPI DUP2 PUSH4 0x50EC99A7 EQ PUSH2 0xA87 JUMPI DUP2 PUSH4 0x5AA6E675 EQ PUSH2 0xA5E JUMPI DUP2 PUSH4 0x5BE6B37E EQ PUSH2 0x77E JUMPI DUP2 PUSH4 0x5C8A7687 EQ PUSH2 0x756 JUMPI DUP2 PUSH4 0x5E253FC6 EQ PUSH2 0x72D JUMPI DUP2 PUSH4 0x5FA7B584 EQ PUSH2 0x672 JUMPI DUP2 PUSH4 0x6209EC2D EQ PUSH2 0x649 JUMPI DUP2 PUSH4 0x6F9F44C5 EQ PUSH2 0x620 JUMPI DUP2 PUSH4 0x704B6C02 EQ PUSH2 0x5B8 JUMPI DUP2 PUSH4 0x75151B63 EQ PUSH2 0x55B JUMPI DUP2 PUSH4 0x77C23878 EQ PUSH2 0x4C7 JUMPI DUP2 PUSH4 0x7B9E618D EQ PUSH2 0x488 JUMPI DUP2 PUSH4 0x97FD4955 EQ PUSH2 0x3F4 JUMPI DUP2 PUSH4 0xD2F7265A EQ PUSH2 0x3CB JUMPI DUP2 PUSH4 0xD48BFCA7 EQ PUSH2 0x2BA JUMPI DUP2 PUSH4 0xE0EA0DCA EQ PUSH2 0x195 JUMPI POP DUP1 PUSH4 0xF645D4F9 EQ PUSH2 0x16D JUMPI PUSH4 0xF851A440 EQ PUSH2 0x143 JUMPI PUSH1 0x0 DUP1 REVERT JUMPDEST CALLVALUE PUSH2 0x169 JUMPI DUP2 PUSH1 0x3 NOT CALLDATASIZE ADD SLT PUSH2 0x169 JUMPI SWAP1 SLOAD SWAP1 MLOAD PUSH1 0x1 PUSH1 0x1 PUSH1 0xA0 SHL SUB SWAP1 SWAP2 AND DUP2 MSTORE PUSH1 0x20 SWAP1 RETURN JUMPDEST POP DUP1 REVERT JUMPDEST POP CALLVALUE PUSH2 0x169 JUMPI DUP2 PUSH1 0x3 NOT CALLDATASIZE ADD SLT PUSH2 0x169 JUMPI PUSH1 0x9 SLOAD SWAP1 MLOAD PUSH1 0x1 PUSH1 0x1 PUSH1 0xA0 SHL SUB SWAP1 SWAP2 AND DUP2 MSTORE PUSH1 0x20 SWAP1 RETURN JUMPDEST DUP4 SWAP2 POP CALLVALUE PUSH2 0x169 JUMPI PUSH2 0x1A6 CALLDATASIZE PUSH2 0x1042 JUMP JUMPDEST DUP3 SLOAD PUSH1 0x1 PUSH1 0x1 PUSH1 0xA0 SHL SUB SWAP5 SWAP2 SWAP3 SWAP2 SWAP1 DUP6 AND CALLER SUB PUSH2 0x2AD JUMPI POP DUP3 JUMPDEST DUP3 MLOAD DUP2 LT ISZERO PUSH2 0x2A9 JUMPI DUP5 PUSH2 0x1D4 DUP3 DUP6 PUSH2 0x121F JUMP JUMPDEST MLOAD AND PUSH2 0x1E3 JUMPI JUMPDEST PUSH1 0x1 ADD PUSH2 0x1C0 JUMP JUMPDEST PUSH1 0xA DUP1 SLOAD DUP1 DUP4 LT ISZERO PUSH2 0x264 JUMPI POP POP DUP1 PUSH2 0x21C DUP7 PUSH2 0x201 PUSH1 0x1 SWAP5 PUSH2 0x1122 JUMP JUMPDEST SWAP2 SWAP1 SLOAD DUP2 PUSH2 0x20F DUP7 DUP11 PUSH2 0x121F JUMP JUMPDEST MLOAD AND SWAP3 PUSH1 0x3 SHL SHR AND PUSH2 0x12F1 JUMP JUMPDEST PUSH2 0x228 JUMPI JUMPDEST SWAP1 POP PUSH2 0x1DB JUMP JUMPDEST PUSH2 0x25F DUP7 PUSH2 0x236 DUP4 DUP8 PUSH2 0x121F JUMP JUMPDEST MLOAD AND PUSH2 0x241 DUP4 PUSH2 0x1122 JUMP JUMPDEST SWAP1 SWAP2 SWAP1 PUSH1 0x1 DUP1 PUSH1 0xA0 SHL SUB DUP1 DUP5 SLOAD SWAP3 PUSH1 0x3 SHL SWAP4 AND DUP4 SHL SWAP3 SHL NOT AND OR SWAP1 SSTORE JUMP JUMPDEST PUSH2 0x221 JUMP JUMPDEST DUP7 PUSH2 0x26F DUP5 DUP8 PUSH2 0x121F JUMP JUMPDEST MLOAD AND SWAP2 PUSH1 0x1 PUSH1 0x40 SHL DUP3 LT ISZERO PUSH2 0x294 JUMPI SWAP2 PUSH2 0x241 DUP3 PUSH1 0x1 SWAP6 SWAP5 DUP7 PUSH2 0x25F SWAP6 ADD SWAP1 SSTORE PUSH2 0x1122 JUMP JUMPDEST PUSH1 0x41 DUP6 PUSH4 0x4E487B71 PUSH1 0xE0 SHL PUSH1 0x0 MSTORE MSTORE PUSH1 0x24 PUSH1 0x0 REVERT JUMPDEST DUP4 DUP1 RETURN JUMPDEST MLOAD PUSH4 0x7BFA4B9F PUSH1 0xE0 SHL DUP2 MSTORE REVERT JUMPDEST SWAP1 POP CALLVALUE PUSH2 0x3C7 JUMPI PUSH1 0x20 CALLDATASIZE PUSH1 0x3 NOT ADD SLT PUSH2 0x3C7 JUMPI PUSH2 0x2D5 PUSH2 0xF96 JUMP JUMPDEST DUP4 SLOAD PUSH1 0x1 PUSH1 0x1 PUSH1 0xA0 SHL SUB SWAP1 DUP2 AND CALLER SUB PUSH2 0x3B7 JUMPI DUP2 AND SWAP2 DUP3 ISZERO PUSH2 0x3A9 JUMPI DUP3 DUP6 MSTORE PUSH1 0xD PUSH1 0x20 MSTORE PUSH1 0xFF DUP5 DUP7 KECCAK256 SLOAD AND PUSH1 0x3 DUP2 LT ISZERO PUSH2 0x388 JUMPI PUSH1 0x1 EQ PUSH2 0x39B JUMPI DUP3 DUP6 MSTORE PUSH1 0xD PUSH1 0x20 MSTORE PUSH1 0xFF DUP5 DUP7 KECCAK256 SLOAD AND PUSH1 0x3 DUP2 LT ISZERO PUSH2 0x388 JUMPI ISZERO PUSH2 0x347 JUMPI JUMPDEST POP POP DUP3 MSTORE PUSH1 0xD PUSH1 0x20 MSTORE DUP2 KECCAK256 DUP1 SLOAD PUSH1 0xFF NOT AND PUSH1 0x1 OR SWAP1 SSTORE DUP1 RETURN JUMPDEST PUSH1 0xC SLOAD SWAP1 PUSH1 0x1 PUSH1 0x40 SHL DUP3 LT ISZERO PUSH2 0x373 JUMPI POP SWAP1 PUSH2 0x241 DUP3 PUSH1 0x1 PUSH2 0x36C SWAP5 ADD PUSH1 0xC SSTORE PUSH2 0x1159 JUMP JUMPDEST CODESIZE DUP1 PUSH2 0x32E JUMP JUMPDEST PUSH1 0x41 SWAP1 PUSH4 0x4E487B71 PUSH1 0xE0 SHL PUSH1 0x0 MSTORE MSTORE PUSH1 0x24 PUSH1 0x0 REVERT JUMPDEST PUSH4 0x4E487B71 PUSH1 0xE0 SHL DUP7 MSTORE PUSH1 0x21 DUP3 MSTORE PUSH1 0x24 DUP7 REVERT JUMPDEST DUP4 MLOAD PUSH4 0x36DA5573 PUSH1 0xE1 SHL DUP2 MSTORE REVERT JUMPDEST DUP4 MLOAD PUSH4 0xE6C4247B PUSH1 0xE0 SHL DUP2 MSTORE REVERT JUMPDEST DUP4 MLOAD PUSH4 0x7BFA4B9F PUSH1 0xE0 SHL DUP2 MSTORE DUP4 SWAP1 REVERT JUMPDEST DUP3 DUP1 REVERT JUMPDEST POP POP CALLVALUE PUSH2 0x169 JUMPI DUP2 PUSH1 0x3 NOT CALLDATASIZE ADD SLT PUSH2 0x169 JUMPI PUSH1 0x8 SLOAD SWAP1 MLOAD PUSH1 0x1 PUSH1 0x1 PUSH1 0xA0 SHL SUB SWAP1 SWAP2 AND DUP2 MSTORE PUSH1 0x20 SWAP1 RETURN JUMPDEST DUP3 DUP5 CALLVALUE PUSH2 0x485 JUMPI DUP1 PUSH1 0x3 NOT CALLDATASIZE ADD SLT PUSH2 0x485 JUMPI DUP2 MLOAD SWAP2 DUP3 SWAP2 PUSH1 0xE SLOAD DUP1 DUP6 MSTORE PUSH1 0x20 DUP1 SWAP6 ADD SWAP5 PUSH1 0xE DUP4 MSTORE PUSH32 0xBB7B4A454DC3493923482F07822329ED19E8244EFF582CC204F8554C3620C3FD SWAP3 SWAP1 JUMPDEST DUP3 DUP3 LT PUSH2 0x465 JUMPI PUSH2 0x461 DUP7 DUP7 PUSH2 0x457 DUP3 DUP12 SUB DUP4 PUSH2 0x1020 JUMP JUMPDEST MLOAD SWAP2 DUP3 SWAP2 DUP3 PUSH2 0xFB1 JUMP JUMPDEST SUB SWAP1 RETURN JUMPDEST DUP4 SLOAD PUSH1 0x1 PUSH1 0x1 PUSH1 0xA0 SHL SUB AND DUP8 MSTORE SWAP6 DUP7 ADD SWAP6 PUSH1 0x1 SWAP4 DUP5 ADD SWAP4 SWAP1 SWAP2 ADD SWAP1 PUSH2 0x43F JUMP JUMPDEST DUP1 REVERT JUMPDEST DUP3 DUP5 CALLVALUE PUSH2 0x485 JUMPI DUP1 PUSH1 0x3 NOT CALLDATASIZE ADD SLT PUSH2 0x485 JUMPI POP PUSH1 0xB SLOAD PUSH1 0x1 PUSH1 0x1 PUSH1 0xA0 SHL SUB AND SWAP1 DUP2 ISZERO PUSH2 0x4B8 JUMPI PUSH1 0x20 SWAP3 POP MLOAD SWAP1 DUP2 MSTORE RETURN JUMPDEST MLOAD PUSH4 0xE6C4247B PUSH1 0xE0 SHL DUP2 MSTORE SWAP1 POP REVERT JUMPDEST SWAP1 POP CALLVALUE PUSH2 0x3C7 JUMPI PUSH1 0x20 CALLDATASIZE PUSH1 0x3 NOT ADD SLT PUSH2 0x3C7 JUMPI PUSH2 0x4E2 PUSH2 0xF96 JUMP JUMPDEST DUP4 SLOAD PUSH1 0x1 PUSH1 0x1 PUSH1 0xA0 SHL SUB SWAP1 DUP2 AND CALLER SUB PUSH2 0x3B7 JUMPI DUP2 AND SWAP2 DUP3 ISZERO PUSH2 0x3A9 JUMPI DUP3 DUP6 MSTORE PUSH1 0xF PUSH1 0x20 MSTORE PUSH1 0xFF DUP5 DUP7 KECCAK256 SLOAD AND PUSH2 0x54D JUMPI PUSH1 0xE SLOAD SWAP1 PUSH1 0x1 PUSH1 0x40 SHL DUP3 LT ISZERO PUSH2 0x373 JUMPI POP SWAP1 PUSH2 0x241 DUP3 PUSH1 0x1 PUSH2 0x536 SWAP5 ADD PUSH1 0xE SSTORE PUSH2 0x10D5 JUMP JUMPDEST DUP3 MSTORE PUSH1 0xF PUSH1 0x20 MSTORE DUP2 KECCAK256 DUP1 SLOAD PUSH1 0xFF NOT AND PUSH1 0x1 OR SWAP1 SSTORE DUP1 RETURN JUMPDEST DUP4 MLOAD PUSH4 0x516C350F PUSH1 0xE1 SHL DUP2 MSTORE REVERT JUMPDEST SWAP1 POP DUP3 CALLVALUE PUSH2 0x485 JUMPI PUSH1 0x20 CALLDATASIZE PUSH1 0x3 NOT ADD SLT PUSH2 0x485 JUMPI PUSH1 0x1 PUSH1 0x1 PUSH1 0xA0 SHL SUB PUSH2 0x57F PUSH2 0xF96 JUMP JUMPDEST AND DUP2 MSTORE PUSH1 0xD PUSH1 0x20 MSTORE PUSH1 0xFF DUP4 DUP3 KECCAK256 SLOAD AND SWAP2 PUSH1 0x3 DUP4 LT ISZERO PUSH2 0x5A5 JUMPI PUSH1 0x20 DUP4 PUSH1 0x1 DUP7 MLOAD SWAP2 EQ DUP2 MSTORE RETURN JUMPDEST PUSH4 0x4E487B71 PUSH1 0xE0 SHL DUP3 MSTORE PUSH1 0x21 SWAP1 MSTORE PUSH1 0x24 SWAP1 REVERT JUMPDEST SWAP1 POP CALLVALUE PUSH2 0x3C7 JUMPI PUSH1 0x20 CALLDATASIZE PUSH1 0x3 NOT ADD SLT PUSH2 0x3C7 JUMPI PUSH2 0x5D3 PUSH2 0xF96 JUMP JUMPDEST DUP4 SLOAD SWAP2 SWAP1 PUSH1 0x1 PUSH1 0x1 PUSH1 0xA0 SHL SUB SWAP1 DUP2 DUP5 AND CALLER SUB PUSH2 0x610 JUMPI AND SWAP3 DUP4 ISZERO PUSH2 0x603 JUMPI POP POP PUSH1 0x1 PUSH1 0x1 PUSH1 0xA0 SHL SUB NOT AND OR DUP2 SSTORE DUP1 RETURN JUMPDEST MLOAD PUSH4 0xE6C4247B PUSH1 0xE0 SHL DUP2 MSTORE REVERT JUMPDEST DUP5 MLOAD PUSH4 0x7BFA4B9F PUSH1 0xE0 SHL DUP2 MSTORE DUP4 SWAP1 REVERT JUMPDEST POP POP CALLVALUE PUSH2 0x169 JUMPI DUP2 PUSH1 0x3 NOT CALLDATASIZE ADD SLT PUSH2 0x169 JUMPI PUSH1 0x6 SLOAD SWAP1 MLOAD PUSH1 0x1 PUSH1 0x1 PUSH1 0xA0 SHL SUB SWAP1 SWAP2 AND DUP2 MSTORE PUSH1 0x20 SWAP1 RETURN JUMPDEST POP POP CALLVALUE PUSH2 0x169 JUMPI DUP2 PUSH1 0x3 NOT CALLDATASIZE ADD SLT PUSH2 0x169 JUMPI PUSH1 0x7 SLOAD SWAP1 MLOAD PUSH1 0x1 PUSH1 0x1 PUSH1 0xA0 SHL SUB SWAP1 SWAP2 AND DUP2 MSTORE PUSH1 0x20 SWAP1 RETURN JUMPDEST SWAP1 POP CALLVALUE PUSH2 0x3C7 JUMPI PUSH1 0x20 CALLDATASIZE PUSH1 0x3 NOT ADD SLT PUSH2 0x3C7 JUMPI PUSH2 0x68D PUSH2 0xF96 JUMP JUMPDEST DUP4 SLOAD PUSH1 0x1 PUSH1 0x1 PUSH1 0xA0 SHL SUB SWAP3 SWAP1 DUP4 AND CALLER SUB PUSH2 0x71F JUMPI DUP3 DUP3 AND SWAP3 DUP4 DUP7 MSTORE PUSH1 0xD PUSH1 0x20 MSTORE PUSH1 0xFF DUP6 DUP8 KECCAK256 SLOAD AND PUSH1 0x3 DUP2 LT ISZERO PUSH2 0x70C JUMPI PUSH1 0x1 SUB PUSH2 0x6FD JUMPI PUSH1 0xB SLOAD AND DUP4 EQ PUSH2 0x6EF JUMPI POP PUSH2 0x6D8 SWAP1 PUSH2 0x1233 JUMP JUMPDEST DUP3 MSTORE PUSH1 0xD PUSH1 0x20 MSTORE DUP2 KECCAK256 DUP1 SLOAD PUSH1 0xFF NOT AND PUSH1 0x2 OR SWAP1 SSTORE DUP1 RETURN JUMPDEST DUP4 MLOAD PUSH4 0x56D9502D PUSH1 0xE0 SHL DUP2 MSTORE REVERT JUMPDEST POP DUP4 MLOAD PUSH4 0xB5CC46AD PUSH1 0xE0 SHL DUP2 MSTORE REVERT JUMPDEST PUSH4 0x4E487B71 PUSH1 0xE0 SHL DUP8 MSTORE PUSH1 0x21 DUP4 MSTORE PUSH1 0x24 DUP8 REVERT JUMPDEST DUP4 MLOAD PUSH4 0x7BFA4B9F PUSH1 0xE0 SHL DUP2 MSTORE REVERT JUMPDEST POP POP CALLVALUE PUSH2 0x169 JUMPI DUP2 PUSH1 0x3 NOT CALLDATASIZE ADD SLT PUSH2 0x169 JUMPI PUSH1 0x3 SLOAD SWAP1 MLOAD PUSH1 0x1 PUSH1 0x1 PUSH1 0xA0 SHL SUB SWAP1 SWAP2 AND DUP2 MSTORE PUSH1 0x20 SWAP1 RETURN JUMPDEST SWAP1 POP CALLVALUE PUSH2 0x3C7 JUMPI DUP3 PUSH1 0x3 NOT CALLDATASIZE ADD SLT PUSH2 0x3C7 JUMPI SLOAD SWAP1 MLOAD PUSH1 0x1 PUSH1 0x1 PUSH1 0xA0 SHL SUB SWAP1 SWAP2 AND DUP2 MSTORE PUSH1 0x20 SWAP2 POP RETURN JUMPDEST SWAP1 POP CALLVALUE PUSH2 0x3C7 JUMPI PUSH2 0x78E CALLDATASIZE PUSH2 0x1042 JUMP JUMPDEST DUP4 SLOAD PUSH1 0x1 PUSH1 0x1 PUSH1 0xA0 SHL SUB SWAP4 SWAP2 SWAP3 SWAP2 SWAP1 DUP5 AND CALLER SUB PUSH2 0x2AD JUMPI POP DUP3 PUSH2 0x7B0 DUP4 PUSH2 0x1190 JUMP JUMPDEST MLOAD AND PUSH2 0xA23 JUMPI JUMPDEST DUP3 PUSH2 0x7C1 DUP4 PUSH2 0x119D JUMP JUMPDEST MLOAD AND PUSH2 0x9E8 JUMPI JUMPDEST DUP3 PUSH2 0x7D2 DUP4 PUSH2 0x11AD JUMP JUMPDEST MLOAD AND PUSH2 0x9AD JUMPI JUMPDEST DUP3 PUSH2 0x7E3 DUP4 PUSH2 0x11BD JUMP JUMPDEST MLOAD AND PUSH2 0x975 JUMPI JUMPDEST POP DUP2 PUSH2 0x7F5 DUP3 PUSH2 0x11CD JUMP JUMPDEST MLOAD AND PUSH2 0x93A JUMPI JUMPDEST DUP2 PUSH2 0x806 DUP3 PUSH2 0x11DD JUMP JUMPDEST MLOAD AND PUSH2 0x8FF JUMPI JUMPDEST DUP2 PUSH2 0x817 DUP3 PUSH2 0x11ED JUMP JUMPDEST MLOAD AND PUSH2 0x8C4 JUMPI JUMPDEST DUP2 PUSH2 0x828 DUP3 PUSH2 0x11FD JUMP JUMPDEST MLOAD AND PUSH2 0x889 JUMPI JUMPDEST DUP2 PUSH2 0x839 DUP3 PUSH2 0x120E JUMP JUMPDEST MLOAD AND PUSH2 0x843 JUMPI DUP3 DUP1 RETURN JUMPDEST PUSH2 0x85D DUP3 PUSH1 0x9 SLOAD AND DUP4 PUSH2 0x855 DUP5 PUSH2 0x120E JUMP JUMPDEST MLOAD AND SWAP1 PUSH2 0x12F1 JUMP JUMPDEST PUSH2 0x865 JUMPI DUP3 DUP1 RETURN JUMPDEST PUSH2 0x86E SWAP1 PUSH2 0x120E JUMP JUMPDEST MLOAD AND PUSH1 0x1 PUSH1 0x1 PUSH1 0x60 SHL SUB PUSH1 0xA0 SHL PUSH1 0x9 SLOAD AND OR PUSH1 0x9 SSTORE CODESIZE DUP1 DUP3 DUP1 RETURN JUMPDEST PUSH2 0x89B DUP3 PUSH1 0x7 SLOAD AND DUP4 PUSH2 0x855 DUP5 PUSH2 0x11FD JUMP JUMPDEST ISZERO PUSH2 0x82F JUMPI DUP2 PUSH2 0x8AA DUP3 PUSH2 0x11FD JUMP JUMPDEST MLOAD AND PUSH1 0x1 PUSH1 0x1 PUSH1 0x60 SHL SUB PUSH1 0xA0 SHL PUSH1 0x7 SLOAD AND OR PUSH1 0x7 SSTORE PUSH2 0x82F JUMP JUMPDEST PUSH2 0x8D6 DUP3 PUSH1 0x8 SLOAD AND DUP4 PUSH2 0x855 DUP5 PUSH2 0x11ED JUMP JUMPDEST ISZERO PUSH2 0x81E JUMPI DUP2 PUSH2 0x8E5 DUP3 PUSH2 0x11ED JUMP JUMPDEST MLOAD AND PUSH1 0x1 PUSH1 0x1 PUSH1 0x60 SHL SUB PUSH1 0xA0 SHL PUSH1 0x8 SLOAD AND OR PUSH1 0x8 SSTORE PUSH2 0x81E JUMP JUMPDEST PUSH2 0x911 DUP3 PUSH1 0x6 SLOAD AND DUP4 PUSH2 0x855 DUP5 PUSH2 0x11DD JUMP JUMPDEST ISZERO PUSH2 0x80D JUMPI DUP2 PUSH2 0x920 DUP3 PUSH2 0x11DD JUMP JUMPDEST MLOAD AND PUSH1 0x1 PUSH1 0x1 PUSH1 0x60 SHL SUB PUSH1 0xA0 SHL PUSH1 0x6 SLOAD AND OR PUSH1 0x6 SSTORE PUSH2 0x80D JUMP JUMPDEST PUSH2 0x94C DUP3 PUSH1 0x5 SLOAD AND DUP4 PUSH2 0x855 DUP5 PUSH2 0x11CD JUMP JUMPDEST ISZERO PUSH2 0x7FC JUMPI DUP2 PUSH2 0x95B DUP3 PUSH2 0x11CD JUMP JUMPDEST MLOAD AND PUSH1 0x1 PUSH1 0x1 PUSH1 0x60 SHL SUB PUSH1 0xA0 SHL PUSH1 0x5 SLOAD AND OR PUSH1 0x5 SSTORE PUSH2 0x7FC JUMP JUMPDEST PUSH2 0x986 DUP4 DUP3 SLOAD AND DUP5 PUSH2 0x855 DUP6 PUSH2 0x11BD JUMP JUMPDEST ISZERO PUSH2 0x7EA JUMPI DUP3 PUSH2 0x995 DUP4 PUSH2 0x11BD JUMP JUMPDEST MLOAD DUP3 SLOAD PUSH1 0x1 PUSH1 0x1 PUSH1 0xA0 SHL SUB NOT AND SWAP2 AND OR SWAP1 SSTORE CODESIZE PUSH2 0x7EA JUMP JUMPDEST PUSH2 0x9BF DUP4 PUSH1 0x3 SLOAD AND DUP5 PUSH2 0x855 DUP6 PUSH2 0x11AD JUMP JUMPDEST ISZERO PUSH2 0x7D9 JUMPI DUP3 PUSH2 0x9CE DUP4 PUSH2 0x11AD JUMP JUMPDEST MLOAD AND PUSH1 0x1 PUSH1 0x1 PUSH1 0x60 SHL SUB PUSH1 0xA0 SHL PUSH1 0x3 SLOAD AND OR PUSH1 0x3 SSTORE PUSH2 0x7D9 JUMP JUMPDEST PUSH2 0x9FA DUP4 PUSH1 0x2 SLOAD AND DUP5 PUSH2 0x855 DUP6 PUSH2 0x119D JUMP JUMPDEST ISZERO PUSH2 0x7C8 JUMPI DUP3 PUSH2 0xA09 DUP4 PUSH2 0x119D JUMP JUMPDEST MLOAD AND PUSH1 0x1 PUSH1 0x1 PUSH1 0x60 SHL SUB PUSH1 0xA0 SHL PUSH1 0x2 SLOAD AND OR PUSH1 0x2 SSTORE PUSH2 0x7C8 JUMP JUMPDEST PUSH2 0xA35 DUP4 PUSH1 0x1 SLOAD AND DUP5 PUSH2 0x855 DUP6 PUSH2 0x1190 JUMP JUMPDEST ISZERO PUSH2 0x7B7 JUMPI DUP3 PUSH2 0xA44 DUP4 PUSH2 0x1190 JUMP JUMPDEST MLOAD AND PUSH1 0x1 PUSH1 0x1 PUSH1 0x60 SHL SUB PUSH1 0xA0 SHL PUSH1 0x1 SLOAD AND OR PUSH1 0x1 SSTORE PUSH2 0x7B7 JUMP JUMPDEST POP POP CALLVALUE PUSH2 0x169 JUMPI DUP2 PUSH1 0x3 NOT CALLDATASIZE ADD SLT PUSH2 0x169 JUMPI PUSH1 0x2 SLOAD SWAP1 MLOAD PUSH1 0x1 PUSH1 0x1 PUSH1 0xA0 SHL SUB SWAP1 SWAP2 AND DUP2 MSTORE PUSH1 0x20 SWAP1 RETURN JUMPDEST POP POP CALLVALUE PUSH2 0x169 JUMPI DUP2 PUSH1 0x3 NOT CALLDATASIZE ADD SLT PUSH2 0x169 JUMPI PUSH1 0x5 SLOAD SWAP1 MLOAD PUSH1 0x1 PUSH1 0x1 PUSH1 0xA0 SHL SUB SWAP1 SWAP2 AND DUP2 MSTORE PUSH1 0x20 SWAP1 RETURN JUMPDEST POP POP CALLVALUE PUSH2 0x169 JUMPI DUP2 PUSH1 0x3 NOT CALLDATASIZE ADD SLT PUSH2 0x169 JUMPI PUSH1 0x1 SLOAD SWAP1 MLOAD PUSH1 0x1 PUSH1 0x1 PUSH1 0xA0 SHL SUB SWAP1 SWAP2 AND DUP2 MSTORE PUSH1 0x20 SWAP1 RETURN JUMPDEST SWAP2 SWAP1 POP CALLVALUE PUSH2 0x3C7 JUMPI PUSH1 0x20 CALLDATASIZE PUSH1 0x3 NOT ADD SLT PUSH2 0x3C7 JUMPI PUSH2 0xAF5 PUSH2 0xF96 JUMP JUMPDEST DUP4 SLOAD PUSH1 0x1 PUSH1 0x1 PUSH1 0xA0 SHL SUB SWAP1 DUP2 AND CALLER SUB PUSH2 0xB7C JUMPI DUP1 PUSH1 0xB SLOAD AND SWAP1 DUP3 AND SWAP4 DUP5 ISZERO DUP1 ISZERO PUSH2 0xB73 JUMPI JUMPDEST PUSH2 0x3A9 JUMPI POP SWAP1 DUP2 PUSH2 0xB30 SWAP3 PUSH2 0xB5B JUMPI JUMPDEST POP PUSH2 0x1233 JUMP JUMPDEST DUP2 DUP4 MSTORE PUSH1 0xD PUSH1 0x20 MSTORE DUP3 KECCAK256 PUSH1 0x1 PUSH1 0xFF NOT DUP3 SLOAD AND OR SWAP1 SSTORE PUSH1 0x1 PUSH1 0x1 PUSH1 0x60 SHL SUB PUSH1 0xA0 SHL PUSH1 0xB SLOAD AND OR PUSH1 0xB SSTORE DUP1 RETURN JUMPDEST DUP6 MSTORE PUSH1 0xD PUSH1 0x20 MSTORE DUP3 DUP6 KECCAK256 DUP1 SLOAD PUSH1 0xFF NOT AND SWAP1 SSTORE CODESIZE PUSH2 0xB2A JUMP JUMPDEST POP DUP2 DUP6 EQ PUSH2 0xB1A JUMP JUMPDEST POP POP MLOAD PUSH4 0x7BFA4B9F PUSH1 0xE0 SHL DUP2 MSTORE REVERT JUMPDEST DUP3 DUP5 CALLVALUE PUSH2 0x485 JUMPI DUP1 PUSH1 0x3 NOT CALLDATASIZE ADD SLT PUSH2 0x485 JUMPI DUP2 MLOAD SWAP2 DUP3 SWAP2 PUSH1 0xC SLOAD DUP1 DUP6 MSTORE PUSH1 0x20 DUP1 SWAP6 ADD SWAP5 PUSH1 0xC DUP4 MSTORE PUSH32 0xDF6966C971051C3D54EC59162606531493A51404A002842F56009D7E5CF4A8C7 SWAP3 SWAP1 JUMPDEST DUP3 DUP3 LT PUSH2 0xBEE JUMPI PUSH2 0x461 DUP7 DUP7 PUSH2 0x457 DUP3 DUP12 SUB DUP4 PUSH2 0x1020 JUMP JUMPDEST DUP4 SLOAD PUSH1 0x1 PUSH1 0x1 PUSH1 0xA0 SHL SUB AND DUP8 MSTORE SWAP6 DUP7 ADD SWAP6 PUSH1 0x1 SWAP4 DUP5 ADD SWAP4 SWAP1 SWAP2 ADD SWAP1 PUSH2 0xBD6 JUMP JUMPDEST SWAP1 POP CALLVALUE PUSH2 0x3C7 JUMPI PUSH1 0x20 CALLDATASIZE PUSH1 0x3 NOT ADD SLT PUSH2 0x3C7 JUMPI DUP3 SLOAD PUSH1 0x1 PUSH1 0x1 PUSH1 0xA0 SHL SUB SWAP2 DUP1 CALLDATALOAD SWAP2 DUP4 AND CALLER SUB PUSH2 0x71F JUMPI PUSH1 0xE SLOAD DUP1 DUP4 LT ISZERO PUSH2 0xCED JUMPI PUSH2 0xC4B DUP4 PUSH2 0x10D5 JUMP JUMPDEST SWAP3 SWAP1 SLOAD SWAP4 PUSH1 0x0 NOT SWAP3 DUP4 DUP2 ADD SWAP1 DUP2 GT PUSH2 0xCDA JUMPI SWAP1 PUSH2 0x241 DUP8 PUSH2 0xC6E PUSH2 0xC7C SWAP5 PUSH2 0x10D5 JUMP JUMPDEST SWAP1 SLOAD SWAP1 PUSH1 0x3 SHL SHR AND SWAP2 PUSH2 0x10D5 JUMP JUMPDEST PUSH1 0xE SLOAD SWAP1 DUP2 ISZERO PUSH2 0xCC5 JUMPI POP ADD PUSH2 0xCA9 PUSH2 0xC94 DUP3 PUSH2 0x10D5 JUMP JUMPDEST DUP2 SLOAD SWAP1 PUSH1 0x1 DUP1 PUSH1 0xA0 SHL SUB SWAP1 PUSH1 0x3 SHL SHL NOT AND SWAP1 SSTORE JUMP JUMPDEST PUSH1 0xE SSTORE PUSH1 0x3 SHL SHR AND DUP3 MSTORE PUSH1 0xF PUSH1 0x20 MSTORE DUP2 KECCAK256 DUP1 SLOAD PUSH1 0xFF NOT AND SWAP1 SSTORE DUP1 RETURN JUMPDEST PUSH1 0x31 SWAP1 PUSH4 0x4E487B71 PUSH1 0xE0 SHL PUSH1 0x0 MSTORE MSTORE PUSH1 0x24 PUSH1 0x0 REVERT JUMPDEST PUSH4 0x4E487B71 PUSH1 0xE0 SHL DUP10 MSTORE PUSH1 0x11 DUP4 MSTORE PUSH1 0x24 DUP10 REVERT JUMPDEST POP DUP4 MLOAD PUSH4 0x63DF8171 PUSH1 0xE0 SHL DUP2 MSTORE REVERT JUMPDEST DUP3 DUP5 CALLVALUE PUSH2 0x485 JUMPI DUP1 PUSH1 0x3 NOT CALLDATASIZE ADD SLT PUSH2 0x485 JUMPI DUP2 MLOAD SWAP2 DUP3 SWAP2 PUSH1 0xA SLOAD DUP1 DUP6 MSTORE PUSH1 0x20 DUP1 SWAP6 ADD SWAP5 PUSH1 0xA DUP4 MSTORE PUSH32 0xC65A7BB8D6351C1CF70C95A316CC6A92839C986682D98BC35F958F4883F9D2A8 SWAP3 SWAP1 JUMPDEST DUP3 DUP3 LT PUSH2 0xD5F JUMPI PUSH2 0x461 DUP7 DUP7 PUSH2 0x457 DUP3 DUP12 SUB DUP4 PUSH2 0x1020 JUMP JUMPDEST DUP4 SLOAD PUSH1 0x1 PUSH1 0x1 PUSH1 0xA0 SHL SUB AND DUP8 MSTORE SWAP6 DUP7 ADD SWAP6 PUSH1 0x1 SWAP4 DUP5 ADD SWAP4 SWAP1 SWAP2 ADD SWAP1 PUSH2 0xD47 JUMP JUMPDEST POP POP CALLVALUE PUSH2 0x169 JUMPI PUSH1 0x20 CALLDATASIZE PUSH1 0x3 NOT ADD SLT PUSH2 0x169 JUMPI PUSH1 0x20 SWAP2 PUSH1 0xFF SWAP1 DUP3 SWAP1 PUSH1 0x1 PUSH1 0x1 PUSH1 0xA0 SHL SUB PUSH2 0xDAA PUSH2 0xF96 JUMP JUMPDEST AND DUP2 MSTORE PUSH1 0xF DUP6 MSTORE KECCAK256 SLOAD AND SWAP1 MLOAD SWAP1 ISZERO ISZERO DUP2 MSTORE RETURN JUMPDEST DUP4 SWAP2 POP CALLVALUE PUSH2 0x169 JUMPI DUP2 PUSH1 0x3 NOT CALLDATASIZE ADD SLT PUSH2 0x169 JUMPI DUP2 SLOAD PUSH1 0x1 PUSH1 0x1 PUSH1 0xA0 SHL SUB SWAP4 SWAP1 DUP5 AND CALLER SUB PUSH2 0x2AD JUMPI DUP4 PUSH1 0x8 SLOAD AND DUP1 EXTCODESIZE ISZERO PUSH2 0xF42 JUMPI DUP2 MLOAD SWAP5 DUP5 DUP7 DUP6 DUP2 DUP4 PUSH4 0xE6569275 PUSH1 0xE0 SHL SWAP7 DUP8 DUP4 MSTORE GAS CALL DUP1 ISZERO PUSH2 0xF38 JUMPI PUSH2 0xF24 JUMPI JUMPDEST DUP5 SWAP6 POP DUP1 PUSH1 0x7 SLOAD AND DUP1 EXTCODESIZE ISZERO PUSH2 0xEF8 JUMPI DUP6 DUP1 SWAP2 DUP7 DUP7 MLOAD DUP1 SWAP5 DUP2 SWAP4 DUP9 DUP4 MSTORE GAS CALL DUP1 ISZERO PUSH2 0xEEE JUMPI SWAP1 DUP7 SWAP2 PUSH2 0xF10 JUMPI JUMPDEST POP POP DUP1 PUSH1 0x6 SLOAD AND DUP1 EXTCODESIZE ISZERO PUSH2 0xEF8 JUMPI DUP6 DUP1 SWAP2 DUP7 DUP7 MLOAD DUP1 SWAP5 DUP2 SWAP4 DUP9 DUP4 MSTORE GAS CALL DUP1 ISZERO PUSH2 0xEEE JUMPI SWAP1 DUP7 SWAP2 PUSH2 0xEFC JUMPI JUMPDEST POP POP DUP1 DUP5 SLOAD AND DUP1 EXTCODESIZE ISZERO PUSH2 0xEF8 JUMPI DUP6 DUP1 SWAP2 DUP7 DUP7 MLOAD DUP1 SWAP5 DUP2 SWAP4 DUP9 DUP4 MSTORE GAS CALL DUP1 ISZERO PUSH2 0xEEE JUMPI SWAP1 DUP7 SWAP2 PUSH2 0xEDA JUMPI JUMPDEST POP POP PUSH1 0x9 SLOAD AND DUP1 EXTCODESIZE ISZERO PUSH2 0xED6 JUMPI DUP5 SWAP4 DUP5 SWAP3 DUP5 MLOAD SWAP6 DUP7 SWAP4 DUP5 SWAP3 DUP4 MSTORE GAS CALL SWAP1 DUP2 ISZERO PUSH2 0xECD JUMPI POP PUSH2 0xEBD JUMPI POP RETURN JUMPDEST PUSH2 0xEC6 SWAP1 PUSH2 0xFF6 JUMP JUMPDEST PUSH2 0x485 JUMPI DUP1 RETURN JUMPDEST MLOAD RETURNDATASIZE DUP5 DUP3 RETURNDATACOPY RETURNDATASIZE SWAP1 REVERT JUMPDEST DUP5 DUP1 REVERT JUMPDEST PUSH2 0xEE3 SWAP1 PUSH2 0xFF6 JUMP JUMPDEST PUSH2 0xED6 JUMPI DUP5 DUP8 PUSH2 0xE92 JUMP JUMPDEST DUP5 MLOAD RETURNDATASIZE DUP9 DUP3 RETURNDATACOPY RETURNDATASIZE SWAP1 REVERT JUMPDEST DUP6 DUP1 REVERT JUMPDEST PUSH2 0xF05 SWAP1 PUSH2 0xFF6 JUMP JUMPDEST PUSH2 0xED6 JUMPI DUP5 DUP8 PUSH2 0xE68 JUMP JUMPDEST PUSH2 0xF19 SWAP1 PUSH2 0xFF6 JUMP JUMPDEST PUSH2 0xED6 JUMPI DUP5 DUP8 PUSH2 0xE3D JUMP JUMPDEST SWAP4 SWAP1 SWAP5 PUSH2 0xF30 SWAP1 PUSH2 0xFF6 JUMP JUMPDEST SWAP3 DUP5 SWAP1 PUSH2 0xE11 JUMP JUMPDEST DUP4 MLOAD RETURNDATASIZE DUP8 DUP3 RETURNDATACOPY RETURNDATASIZE SWAP1 REVERT JUMPDEST DUP4 DUP1 REVERT JUMPDEST DUP4 DUP3 DUP7 CALLVALUE PUSH2 0x485 JUMPI PUSH1 0x20 CALLDATASIZE PUSH1 0x3 NOT ADD SLT PUSH2 0x485 JUMPI POP DUP1 CALLDATALOAD SWAP3 PUSH1 0xE SLOAD DUP5 LT ISZERO PUSH2 0xF8A JUMPI PUSH1 0x20 DUP4 PUSH2 0xF74 DUP7 PUSH2 0x10D5 JUMP JUMPDEST SWAP1 SLOAD SWAP2 MLOAD SWAP2 PUSH1 0x1 DUP1 PUSH1 0xA0 SHL SUB SWAP2 PUSH1 0x3 SHL SHR AND DUP2 MSTORE RETURN JUMPDEST PUSH4 0x63DF8171 PUSH1 0xE0 SHL DUP2 MSTORE REVERT JUMPDEST PUSH1 0x4 CALLDATALOAD SWAP1 PUSH1 0x1 PUSH1 0x1 PUSH1 0xA0 SHL SUB DUP3 AND DUP3 SUB PUSH2 0xFAC JUMPI JUMP JUMPDEST PUSH1 0x0 DUP1 REVERT JUMPDEST PUSH1 0x20 SWAP1 PUSH1 0x20 PUSH1 0x40 DUP2 DUP4 ADD SWAP3 DUP3 DUP2 MSTORE DUP6 MLOAD DUP1 SWAP5 MSTORE ADD SWAP4 ADD SWAP2 PUSH1 0x0 JUMPDEST DUP3 DUP2 LT PUSH2 0xFD9 JUMPI POP POP POP POP SWAP1 JUMP JUMPDEST DUP4 MLOAD PUSH1 0x1 PUSH1 0x1 PUSH1 0xA0 SHL SUB AND DUP6 MSTORE SWAP4 DUP2 ADD SWAP4 SWAP3 DUP2 ADD SWAP3 PUSH1 0x1 ADD PUSH2 0xFCB JUMP JUMPDEST PUSH8 0xFFFFFFFFFFFFFFFF DUP2 GT PUSH2 0x100A JUMPI PUSH1 0x40 MSTORE JUMP JUMPDEST PUSH4 0x4E487B71 PUSH1 0xE0 SHL PUSH1 0x0 MSTORE PUSH1 0x41 PUSH1 0x4 MSTORE PUSH1 0x24 PUSH1 0x0 REVERT JUMPDEST SWAP1 PUSH1 0x1F DUP1 NOT SWAP2 ADD AND DUP2 ADD SWAP1 DUP2 LT PUSH8 0xFFFFFFFFFFFFFFFF DUP3 GT OR PUSH2 0x100A JUMPI PUSH1 0x40 MSTORE JUMP JUMPDEST PUSH1 0x20 DUP1 PUSH1 0x3 NOT DUP4 ADD SLT PUSH2 0xFAC JUMPI PUSH8 0xFFFFFFFFFFFFFFFF SWAP2 PUSH1 0x4 CALLDATALOAD DUP4 DUP2 GT PUSH2 0xFAC JUMPI DUP2 PUSH1 0x23 DUP3 ADD SLT ISZERO PUSH2 0xFAC JUMPI DUP1 PUSH1 0x4 ADD CALLDATALOAD SWAP4 DUP5 GT PUSH2 0x100A JUMPI DUP4 PUSH1 0x5 SHL SWAP1 PUSH1 0x40 MLOAD SWAP5 PUSH2 0x1090 PUSH1 0x20 DUP5 ADD DUP8 PUSH2 0x1020 JUMP JUMPDEST DUP6 MSTORE PUSH1 0x24 PUSH1 0x20 DUP7 ADD SWAP3 DUP3 ADD ADD SWAP3 DUP4 GT PUSH2 0xFAC JUMPI PUSH1 0x24 ADD SWAP1 JUMPDEST DUP3 DUP3 LT PUSH2 0x10B6 JUMPI POP POP POP POP SWAP1 JUMP JUMPDEST DUP2 CALLDATALOAD PUSH1 0x1 PUSH1 0x1 PUSH1 0xA0 SHL SUB DUP2 AND DUP2 SUB PUSH2 0xFAC JUMPI DUP2 MSTORE SWAP1 DUP4 ADD SWAP1 DUP4 ADD PUSH2 0x10A8 JUMP JUMPDEST PUSH1 0xE SLOAD DUP2 LT ISZERO PUSH2 0x110C JUMPI PUSH1 0xE PUSH1 0x0 MSTORE PUSH32 0xBB7B4A454DC3493923482F07822329ED19E8244EFF582CC204F8554C3620C3FD ADD SWAP1 PUSH1 0x0 SWAP1 JUMP JUMPDEST PUSH4 0x4E487B71 PUSH1 0xE0 SHL PUSH1 0x0 MSTORE PUSH1 0x32 PUSH1 0x4 MSTORE PUSH1 0x24 PUSH1 0x0 REVERT JUMPDEST PUSH1 0xA SLOAD DUP2 LT ISZERO PUSH2 0x110C JUMPI PUSH1 0xA PUSH1 0x0 MSTORE PUSH32 0xC65A7BB8D6351C1CF70C95A316CC6A92839C986682D98BC35F958F4883F9D2A8 ADD SWAP1 PUSH1 0x0 SWAP1 JUMP JUMPDEST PUSH1 0xC SLOAD DUP2 LT ISZERO PUSH2 0x110C JUMPI PUSH1 0xC PUSH1 0x0 MSTORE PUSH32 0xDF6966C971051C3D54EC59162606531493A51404A002842F56009D7E5CF4A8C7 ADD SWAP1 PUSH1 0x0 SWAP1 JUMP JUMPDEST DUP1 MLOAD ISZERO PUSH2 0x110C JUMPI PUSH1 0x20 ADD SWAP1 JUMP JUMPDEST DUP1 MLOAD PUSH1 0x1 LT ISZERO PUSH2 0x110C JUMPI PUSH1 0x40 ADD SWAP1 JUMP JUMPDEST DUP1 MLOAD PUSH1 0x2 LT ISZERO PUSH2 0x110C JUMPI PUSH1 0x60 ADD SWAP1 JUMP JUMPDEST DUP1 MLOAD PUSH1 0x3 LT ISZERO PUSH2 0x110C JUMPI PUSH1 0x80 ADD SWAP1 JUMP JUMPDEST DUP1 MLOAD PUSH1 0x4 LT ISZERO PUSH2 0x110C JUMPI PUSH1 0xA0 ADD SWAP1 JUMP JUMPDEST DUP1 MLOAD PUSH1 0x5 LT ISZERO PUSH2 0x110C JUMPI PUSH1 0xC0 ADD SWAP1 JUMP JUMPDEST DUP1 MLOAD PUSH1 0x6 LT ISZERO PUSH2 0x110C JUMPI PUSH1 0xE0 ADD SWAP1 JUMP JUMPDEST DUP1 MLOAD PUSH1 0x7 LT ISZERO PUSH2 0x110C JUMPI PUSH2 0x100 ADD SWAP1 JUMP JUMPDEST DUP1 MLOAD PUSH1 0x8 LT ISZERO PUSH2 0x110C JUMPI PUSH2 0x120 ADD SWAP1 JUMP JUMPDEST DUP1 MLOAD DUP3 LT ISZERO PUSH2 0x110C JUMPI PUSH1 0x20 SWAP2 PUSH1 0x5 SHL ADD ADD SWAP1 JUMP JUMPDEST PUSH1 0x0 SWAP1 JUMPDEST PUSH1 0xC SWAP2 DUP3 SLOAD DUP1 DUP3 LT ISZERO PUSH2 0x12EB JUMPI PUSH2 0x124D DUP3 PUSH2 0x1159 JUMP JUMPDEST SWAP1 SLOAD PUSH1 0x1 PUSH1 0x1 PUSH1 0xA0 SHL SUB SWAP3 PUSH1 0x3 SWAP3 SWAP1 SWAP2 SWAP1 DUP4 SHL SHR DUP4 AND DUP6 DUP5 AND EQ PUSH2 0x1278 JUMPI POP POP POP PUSH1 0x1 ADD SWAP2 POP PUSH2 0x1237 JUMP JUMPDEST PUSH1 0x0 NOT SWAP5 POP SWAP1 SWAP3 SWAP2 DUP5 DUP3 ADD SWAP2 DUP3 GT PUSH2 0x12D5 JUMPI PUSH2 0x12A6 SWAP4 PUSH2 0x129A PUSH2 0x241 SWAP4 PUSH2 0x1159 JUMP JUMPDEST SWAP1 SLOAD SWAP2 SHL SHR AND SWAP2 PUSH2 0x1159 JUMP JUMPDEST DUP2 SLOAD DUP1 ISZERO PUSH2 0x12BF JUMPI ADD SWAP1 PUSH2 0x12BC PUSH2 0xC94 DUP4 PUSH2 0x1159 JUMP JUMPDEST SSTORE JUMP JUMPDEST PUSH4 0x4E487B71 PUSH1 0xE0 SHL PUSH1 0x0 MSTORE PUSH1 0x31 PUSH1 0x4 MSTORE PUSH1 0x24 PUSH1 0x0 REVERT JUMPDEST PUSH4 0x4E487B71 PUSH1 0xE0 SHL PUSH1 0x0 MSTORE PUSH1 0x11 PUSH1 0x4 MSTORE PUSH1 0x24 PUSH1 0x0 REVERT JUMPDEST POP POP POP POP JUMP JUMPDEST PUSH1 0x1 PUSH1 0x1 PUSH1 0xA0 SHL SUB SWAP1 DUP2 AND SWAP2 DUP3 ISZERO PUSH2 0x1341 JUMPI AND SWAP1 DUP2 DUP2 EQ PUSH2 0x133A JUMPI PUSH1 0x0 MSTORE PUSH1 0xF PUSH1 0x20 MSTORE PUSH1 0x40 PUSH1 0x0 KECCAK256 SWAP1 PUSH1 0xFF NOT SWAP2 DUP3 DUP2 SLOAD AND SWAP1 SSTORE PUSH1 0x0 MSTORE PUSH1 0x1 PUSH1 0x40 PUSH1 0x0 KECCAK256 SWAP2 DUP3 SLOAD AND OR SWAP1 SSTORE PUSH1 0x1 SWAP1 JUMP JUMPDEST POP POP PUSH1 0x0 SWAP1 JUMP JUMPDEST SWAP1 SWAP2 POP AND PUSH1 0x0 MSTORE PUSH1 0xF PUSH1 0x20 MSTORE PUSH1 0x40 PUSH1 0x0 KECCAK256 PUSH1 0x1 PUSH1 0xFF NOT DUP3 SLOAD AND OR SWAP1 SSTORE PUSH1 0x1 SWAP1 JUMP INVALID LOG2 PUSH5 0x6970667358 0x22 SLT KECCAK256 0xBB 0xC 0xC7 ADD SWAP9 ADDMOD 0xEB 0x29 0x2C MCOPY 0x4D DUP8 BALANCE 0xDA 0x4E BALANCE 0xC7 0xBD 0xAE 0xCF BLOCKHASH DUP5 PUSH18 0x2AB68AFE1F97C7881364736F6C6343000818 STOP CALLER "
        },
        "methodIdentifiers": {
          "addReservedAddress(address)": "77c23878",
          "addToken(address)": "d48bfca7",
          "admin()": "f851a440",
          "dao()": "4162169f",
          "daoFundManager()": "5e253fc6",
          "exchange()": "d2f7265a",
          "forwarder()": "f645d4f9",
          "fundManager()": "6209ec2d",
          "getAddressFromIndex(uint256)": "0a7263b0",
          "getTokenList()": "273cbaa0",
          "governance()": "5aa6e675",
          "isProjectContract(address)": "2070c946",
          "isTokenSupported(address)": "75151b63",
          "removeReservedAddress(uint256)": "2651d4c8",
          "removeToken(address)": "5fa7b584",
          "reservedList()": "97fd4955",
          "setAddressList(address[])": "5be6b37e",
          "setAdmin(address)": "704b6c02",
          "setAllAddress()": "1277b833",
          "setSettlementToken(address)": "3ef476db",
          "setSwapContracts(address[])": "e0ea0dca",
          "settlementToken()": "7b9e618d",
          "siweAuth()": "50ec99a7",
          "swapContracts()": "20fe2ec9",
          "truthBox()": "6f9f44c5",
          "userManager()": "5c8a7687"
        }
      },
      "storageLayout": {
        "storage": [
          {
            "astId": 2468,
            "contract": "contracts/AddressManager.sol:AddressManager",
            "label": "admin",
            "offset": 0,
            "slot": "0",
            "type": "t_address"
          },
          {
            "astId": 2470,
            "contract": "contracts/AddressManager.sol:AddressManager",
            "label": "dao",
            "offset": 0,
            "slot": "1",
            "type": "t_address"
          },
          {
            "astId": 2472,
            "contract": "contracts/AddressManager.sol:AddressManager",
            "label": "governance",
            "offset": 0,
            "slot": "2",
            "type": "t_address"
          },
          {
            "astId": 2474,
            "contract": "contracts/AddressManager.sol:AddressManager",
            "label": "daoFundManager",
            "offset": 0,
            "slot": "3",
            "type": "t_address"
          },
          {
            "astId": 2476,
            "contract": "contracts/AddressManager.sol:AddressManager",
            "label": "userManager",
            "offset": 0,
            "slot": "4",
            "type": "t_address"
          },
          {
            "astId": 2478,
            "contract": "contracts/AddressManager.sol:AddressManager",
            "label": "siweAuth",
            "offset": 0,
            "slot": "5",
            "type": "t_address"
          },
          {
            "astId": 2480,
            "contract": "contracts/AddressManager.sol:AddressManager",
            "label": "truthBox",
            "offset": 0,
            "slot": "6",
            "type": "t_address"
          },
          {
            "astId": 2482,
            "contract": "contracts/AddressManager.sol:AddressManager",
            "label": "fundManager",
            "offset": 0,
            "slot": "7",
            "type": "t_address"
          },
          {
            "astId": 2484,
            "contract": "contracts/AddressManager.sol:AddressManager",
            "label": "exchange",
            "offset": 0,
            "slot": "8",
            "type": "t_address"
          },
          {
            "astId": 2486,
            "contract": "contracts/AddressManager.sol:AddressManager",
            "label": "forwarder",
            "offset": 0,
            "slot": "9",
            "type": "t_address"
          },
          {
            "astId": 2489,
            "contract": "contracts/AddressManager.sol:AddressManager",
            "label": "_swapContracts",
            "offset": 0,
            "slot": "10",
            "type": "t_array(t_address)dyn_storage"
          },
          {
            "astId": 2492,
            "contract": "contracts/AddressManager.sol:AddressManager",
            "label": "_settlementToken",
            "offset": 0,
            "slot": "11",
            "type": "t_address"
          },
          {
            "astId": 2495,
            "contract": "contracts/AddressManager.sol:AddressManager",
            "label": "_tokenList",
            "offset": 0,
            "slot": "12",
            "type": "t_array(t_address)dyn_storage"
          },
          {
            "astId": 2505,
            "contract": "contracts/AddressManager.sol:AddressManager",
            "label": "_tokenStatus",
            "offset": 0,
            "slot": "13",
            "type": "t_mapping(t_address,t_enum(TokenEnum)2500)"
          },
          {
            "astId": 2508,
            "contract": "contracts/AddressManager.sol:AddressManager",
            "label": "_reservedList",
            "offset": 0,
            "slot": "14",
            "type": "t_array(t_address)dyn_storage"
          },
          {
            "astId": 2512,
            "contract": "contracts/AddressManager.sol:AddressManager",
            "label": "_isProjectContract",
            "offset": 0,
            "slot": "15",
            "type": "t_mapping(t_address,t_bool)"
          }
        ],
        "types": {
          "t_address": {
            "encoding": "inplace",
            "label": "address",
            "numberOfBytes": "20"
          },
          "t_array(t_address)dyn_storage": {
            "base": "t_address",
            "encoding": "dynamic_array",
            "label": "address[]",
            "numberOfBytes": "32"
          },
          "t_bool": {
            "encoding": "inplace",
            "label": "bool",
            "numberOfBytes": "1"
          },
          "t_enum(TokenEnum)2500": {
            "encoding": "inplace",
            "label": "enum AddressManager.TokenEnum",
            "numberOfBytes": "1"
          },
          "t_mapping(t_address,t_bool)": {
            "encoding": "mapping",
            "key": "t_address",
            "label": "mapping(address => bool)",
            "numberOfBytes": "32",
            "value": "t_bool"
          },
          "t_mapping(t_address,t_enum(TokenEnum)2500)": {
            "encoding": "mapping",
            "key": "t_address",
            "label": "mapping(address => enum AddressManager.TokenEnum)",
            "numberOfBytes": "32",
            "value": "t_enum(TokenEnum)2500"
          }
        }
      }
    }
  }
}