{
  "contracts/base/Exchange01.sol": {
    "Exchange01": {
      "abi": [
        {
          "inputs": [
            {
              "internalType": "address",
              "name": "addrManager_",
              "type": "address"
            }
          ],
          "stateMutability": "nonpayable",
          "type": "constructor"
        },
        {
          "inputs": [],
          "name": "AmountIsZero",
          "type": "error"
        },
        {
          "inputs": [],
          "name": "ApprovalFailed",
          "type": "error"
        },
        {
          "inputs": [],
          "name": "AuctionOver",
          "type": "error"
        },
        {
          "inputs": [],
          "name": "AvailableBuyer",
          "type": "error"
        },
        {
          "inputs": [],
          "name": "BoxNotExists",
          "type": "error"
        },
        {
          "inputs": [],
          "name": "DeadlineIsOver",
          "type": "error"
        },
        {
          "inputs": [],
          "name": "DeadlineNotOver",
          "type": "error"
        },
        {
          "inputs": [],
          "name": "EmptyBoxInfoCID",
          "type": "error"
        },
        {
          "inputs": [],
          "name": "EmptyKey",
          "type": "error"
        },
        {
          "inputs": [],
          "name": "EmptyList",
          "type": "error"
        },
        {
          "inputs": [],
          "name": "EmptyPrice",
          "type": "error"
        },
        {
          "inputs": [],
          "name": "EmptyTokenCID",
          "type": "error"
        },
        {
          "inputs": [],
          "name": "EmptyUserId",
          "type": "error"
        },
        {
          "inputs": [],
          "name": "InBlacklist",
          "type": "error"
        },
        {
          "inputs": [],
          "name": "InvalidCaller",
          "type": "error"
        },
        {
          "inputs": [],
          "name": "InvalidContractAddress",
          "type": "error"
        },
        {
          "inputs": [],
          "name": "InvalidDeadline",
          "type": "error"
        },
        {
          "inputs": [],
          "name": "InvalidERC20Interface",
          "type": "error"
        },
        {
          "inputs": [],
          "name": "InvalidImplementation",
          "type": "error"
        },
        {
          "inputs": [],
          "name": "InvalidPeriod",
          "type": "error"
        },
        {
          "inputs": [],
          "name": "InvalidRate",
          "type": "error"
        },
        {
          "inputs": [],
          "name": "InvalidSeconds",
          "type": "error"
        },
        {
          "inputs": [],
          "name": "InvalidStatus",
          "type": "error"
        },
        {
          "inputs": [],
          "name": "NotAdmin",
          "type": "error"
        },
        {
          "inputs": [],
          "name": "NotAdminOrDAO",
          "type": "error"
        },
        {
          "inputs": [],
          "name": "NotBuyer",
          "type": "error"
        },
        {
          "inputs": [],
          "name": "NotDAO",
          "type": "error"
        },
        {
          "inputs": [],
          "name": "NotInBlacklist",
          "type": "error"
        },
        {
          "inputs": [],
          "name": "NotInSecrecy",
          "type": "error"
        },
        {
          "inputs": [],
          "name": "NotInWindowPeriod",
          "type": "error"
        },
        {
          "inputs": [],
          "name": "NotMinter",
          "type": "error"
        },
        {
          "inputs": [],
          "name": "NotProjectCaller",
          "type": "error"
        },
        {
          "inputs": [],
          "name": "PublicTimeNotEnd",
          "type": "error"
        },
        {
          "inputs": [],
          "name": "RefundPermitTrue",
          "type": "error"
        },
        {
          "inputs": [],
          "name": "TokenAlreadyExists",
          "type": "error"
        },
        {
          "inputs": [],
          "name": "TokenNotExists",
          "type": "error"
        },
        {
          "inputs": [],
          "name": "TokenNotSupported",
          "type": "error"
        },
        {
          "inputs": [],
          "name": "WithdrawError",
          "type": "error"
        },
        {
          "inputs": [],
          "name": "ZeroAddress",
          "type": "error"
        },
        {
          "inputs": [],
          "name": "bidIncrementRate",
          "outputs": [
            {
              "internalType": "uint8",
              "name": "",
              "type": "uint8"
            }
          ],
          "stateMutability": "view",
          "type": "function"
        },
        {
          "inputs": [],
          "name": "refundRequestPeriod",
          "outputs": [
            {
              "internalType": "uint256",
              "name": "",
              "type": "uint256"
            }
          ],
          "stateMutability": "view",
          "type": "function"
        },
        {
          "inputs": [],
          "name": "refundReviewPeriod",
          "outputs": [
            {
              "internalType": "uint256",
              "name": "",
              "type": "uint256"
            }
          ],
          "stateMutability": "view",
          "type": "function"
        },
        {
          "inputs": [
            {
              "internalType": "address",
              "name": "addrManager_",
              "type": "address"
            }
          ],
          "name": "setAddressManager",
          "outputs": [],
          "stateMutability": "nonpayable",
          "type": "function"
        },
        {
          "inputs": [
            {
              "internalType": "address",
              "name": "admin_",
              "type": "address"
            }
          ],
          "name": "setAdmin",
          "outputs": [],
          "stateMutability": "nonpayable",
          "type": "function"
        },
        {
          "inputs": [
            {
              "internalType": "uint8",
              "name": "rate_",
              "type": "uint8"
            }
          ],
          "name": "setBidIncrementRate",
          "outputs": [],
          "stateMutability": "nonpayable",
          "type": "function"
        },
        {
          "inputs": [
            {
              "internalType": "uint256",
              "name": "period_",
              "type": "uint256"
            }
          ],
          "name": "setRefundRequestPeriod",
          "outputs": [],
          "stateMutability": "nonpayable",
          "type": "function"
        },
        {
          "inputs": [
            {
              "internalType": "uint256",
              "name": "period_",
              "type": "uint256"
            }
          ],
          "name": "setRefundReviewPeriod",
          "outputs": [],
          "stateMutability": "nonpayable",
          "type": "function"
        }
      ],
      "evm": {
        "bytecode": {
          "linkReferences": {},
          "object": "60803461009757601f6104ea38819003918201601f19168301916001600160401b0383118484101761009c5780849260209460405283398101031261009757516001600160a01b038116908190036100975760018060a01b03199081600054161760005533906006541617600655606e60ff19600954161760095562093a806007556213c68060085560405161043790816100b38239f35b600080fd5b634e487b7160e01b600052604160045260246000fdfe608060408181526004918236101561001657600080fd5b600092833560e01c9182630652b57a14610352575081634fb354b31461029d5781635bcb595014610207578163704b6c02146101ab5781639ec123da146100dd57508063d6e54ff5146100bf578063f0cc2b141461009e5763f74c8ea31461007d57600080fd5b3461009a578160031936011261009a576020906008549051908152f35b5080fd5b503461009a578160031936011261009a5760209060ff600954169051908152f35b503461009a578160031936011261009a576020906007549051908152f35b9050346101a75760203660031901126101a75782548251634162169f60e01b8152823593916001600160a01b03919060209082908690829086165afa90811561019d57869161016e575b50163303610161576213c68083108015610155575b61014857505060085580f35b516302e8f35960e31b8152fd5b50624f1a00831161013c565b516327568d2f60e11b8152fd5b610190915060203d602011610196575b61018881836103a5565b8101906103dd565b38610127565b503d61017e565b83513d88823e3d90fd5b8280fd5b919050346101a75760203660031901126101a7576001600160a01b038235818116939192908490036102035760065492831633036101f65750506001600160a01b0319161760065580f35b51637bfa4b9f60e01b8152fd5b8480fd5b9050346101a75760203660031901126101a75782548251634162169f60e01b8152823593916001600160a01b03919060209082908690829086165afa90811561019d57869161027e575b501633036101615762093a8083108015610272575b61014857505060075580f35b506213c6808311610266565b610297915060203d6020116101965761018881836103a5565b38610251565b9050346101a75760203660031901126101a75780359160ff831680930361034e5783548151634162169f60e01b81526001600160a01b039160209082908690829086165afa90811561019d57869161032f575b501633036101615760648311801590610325575b61031857505060ff19600954161760095580f35b51636a43f8d160e01b8152fd5b5060968311610304565b610348915060203d6020116101965761018881836103a5565b386102f0565b8380fd5b8491346101a75760203660031901126101a75780356001600160a01b0381811693918490036102035760065416330361039957505081546001600160a01b03191617815580f35b637bfa4b9f60e01b8152fd5b90601f8019910116810190811067ffffffffffffffff8211176103c757604052565b634e487b7160e01b600052604160045260246000fd5b908160209103126103fc57516001600160a01b03811681036103fc5790565b600080fdfea264697066735822122034b4761726a2f48def1dc4da2ed485e0ac01ad6756e9347d322fb8401cf6b46164736f6c63430008180033",
          "opcodes": "PUSH1 0x80 CALLVALUE PUSH2 0x97 JUMPI PUSH1 0x1F PUSH2 0x4EA CODESIZE DUP2 SWAP1 SUB SWAP2 DUP3 ADD PUSH1 0x1F NOT AND DUP4 ADD SWAP2 PUSH1 0x1 PUSH1 0x1 PUSH1 0x40 SHL SUB DUP4 GT DUP5 DUP5 LT OR PUSH2 0x9C JUMPI DUP1 DUP5 SWAP3 PUSH1 0x20 SWAP5 PUSH1 0x40 MSTORE DUP4 CODECOPY DUP2 ADD SUB SLT PUSH2 0x97 JUMPI MLOAD PUSH1 0x1 PUSH1 0x1 PUSH1 0xA0 SHL SUB DUP2 AND SWAP1 DUP2 SWAP1 SUB PUSH2 0x97 JUMPI PUSH1 0x1 DUP1 PUSH1 0xA0 SHL SUB NOT SWAP1 DUP2 PUSH1 0x0 SLOAD AND OR PUSH1 0x0 SSTORE CALLER SWAP1 PUSH1 0x6 SLOAD AND OR PUSH1 0x6 SSTORE PUSH1 0x6E PUSH1 0xFF NOT PUSH1 0x9 SLOAD AND OR PUSH1 0x9 SSTORE PUSH3 0x93A80 PUSH1 0x7 SSTORE PUSH3 0x13C680 PUSH1 0x8 SSTORE PUSH1 0x40 MLOAD PUSH2 0x437 SWAP1 DUP2 PUSH2 0xB3 DUP3 CODECOPY RETURN JUMPDEST PUSH1 0x0 DUP1 REVERT JUMPDEST PUSH4 0x4E487B71 PUSH1 0xE0 SHL PUSH1 0x0 MSTORE PUSH1 0x41 PUSH1 0x4 MSTORE PUSH1 0x24 PUSH1 0x0 REVERT INVALID PUSH1 0x80 PUSH1 0x40 DUP2 DUP2 MSTORE PUSH1 0x4 SWAP2 DUP3 CALLDATASIZE LT ISZERO PUSH2 0x16 JUMPI PUSH1 0x0 DUP1 REVERT JUMPDEST PUSH1 0x0 SWAP3 DUP4 CALLDATALOAD PUSH1 0xE0 SHR SWAP2 DUP3 PUSH4 0x652B57A EQ PUSH2 0x352 JUMPI POP DUP2 PUSH4 0x4FB354B3 EQ PUSH2 0x29D JUMPI DUP2 PUSH4 0x5BCB5950 EQ PUSH2 0x207 JUMPI DUP2 PUSH4 0x704B6C02 EQ PUSH2 0x1AB JUMPI DUP2 PUSH4 0x9EC123DA EQ PUSH2 0xDD JUMPI POP DUP1 PUSH4 0xD6E54FF5 EQ PUSH2 0xBF JUMPI DUP1 PUSH4 0xF0CC2B14 EQ PUSH2 0x9E JUMPI PUSH4 0xF74C8EA3 EQ PUSH2 0x7D JUMPI PUSH1 0x0 DUP1 REVERT JUMPDEST CALLVALUE PUSH2 0x9A JUMPI DUP2 PUSH1 0x3 NOT CALLDATASIZE ADD SLT PUSH2 0x9A JUMPI PUSH1 0x20 SWAP1 PUSH1 0x8 SLOAD SWAP1 MLOAD SWAP1 DUP2 MSTORE RETURN JUMPDEST POP DUP1 REVERT JUMPDEST POP CALLVALUE PUSH2 0x9A JUMPI DUP2 PUSH1 0x3 NOT CALLDATASIZE ADD SLT PUSH2 0x9A JUMPI PUSH1 0x20 SWAP1 PUSH1 0xFF PUSH1 0x9 SLOAD AND SWAP1 MLOAD SWAP1 DUP2 MSTORE RETURN JUMPDEST POP CALLVALUE PUSH2 0x9A JUMPI DUP2 PUSH1 0x3 NOT CALLDATASIZE ADD SLT PUSH2 0x9A JUMPI PUSH1 0x20 SWAP1 PUSH1 0x7 SLOAD SWAP1 MLOAD SWAP1 DUP2 MSTORE RETURN JUMPDEST SWAP1 POP CALLVALUE PUSH2 0x1A7 JUMPI PUSH1 0x20 CALLDATASIZE PUSH1 0x3 NOT ADD SLT PUSH2 0x1A7 JUMPI DUP3 SLOAD DUP3 MLOAD PUSH4 0x4162169F PUSH1 0xE0 SHL DUP2 MSTORE DUP3 CALLDATALOAD SWAP4 SWAP2 PUSH1 0x1 PUSH1 0x1 PUSH1 0xA0 SHL SUB SWAP2 SWAP1 PUSH1 0x20 SWAP1 DUP3 SWAP1 DUP7 SWAP1 DUP3 SWAP1 DUP7 AND GAS STATICCALL SWAP1 DUP2 ISZERO PUSH2 0x19D JUMPI DUP7 SWAP2 PUSH2 0x16E JUMPI JUMPDEST POP AND CALLER SUB PUSH2 0x161 JUMPI PUSH3 0x13C680 DUP4 LT DUP1 ISZERO PUSH2 0x155 JUMPI JUMPDEST PUSH2 0x148 JUMPI POP POP PUSH1 0x8 SSTORE DUP1 RETURN JUMPDEST MLOAD PUSH4 0x2E8F359 PUSH1 0xE3 SHL DUP2 MSTORE REVERT JUMPDEST POP PUSH3 0x4F1A00 DUP4 GT PUSH2 0x13C JUMP JUMPDEST MLOAD PUSH4 0x27568D2F PUSH1 0xE1 SHL DUP2 MSTORE REVERT JUMPDEST PUSH2 0x190 SWAP2 POP PUSH1 0x20 RETURNDATASIZE PUSH1 0x20 GT PUSH2 0x196 JUMPI JUMPDEST PUSH2 0x188 DUP2 DUP4 PUSH2 0x3A5 JUMP JUMPDEST DUP2 ADD SWAP1 PUSH2 0x3DD JUMP JUMPDEST CODESIZE PUSH2 0x127 JUMP JUMPDEST POP RETURNDATASIZE PUSH2 0x17E JUMP JUMPDEST DUP4 MLOAD RETURNDATASIZE DUP9 DUP3 RETURNDATACOPY RETURNDATASIZE SWAP1 REVERT JUMPDEST DUP3 DUP1 REVERT JUMPDEST SWAP2 SWAP1 POP CALLVALUE PUSH2 0x1A7 JUMPI PUSH1 0x20 CALLDATASIZE PUSH1 0x3 NOT ADD SLT PUSH2 0x1A7 JUMPI PUSH1 0x1 PUSH1 0x1 PUSH1 0xA0 SHL SUB DUP3 CALLDATALOAD DUP2 DUP2 AND SWAP4 SWAP2 SWAP3 SWAP1 DUP5 SWAP1 SUB PUSH2 0x203 JUMPI PUSH1 0x6 SLOAD SWAP3 DUP4 AND CALLER SUB PUSH2 0x1F6 JUMPI POP POP PUSH1 0x1 PUSH1 0x1 PUSH1 0xA0 SHL SUB NOT AND OR PUSH1 0x6 SSTORE DUP1 RETURN JUMPDEST MLOAD PUSH4 0x7BFA4B9F PUSH1 0xE0 SHL DUP2 MSTORE REVERT JUMPDEST DUP5 DUP1 REVERT JUMPDEST SWAP1 POP CALLVALUE PUSH2 0x1A7 JUMPI PUSH1 0x20 CALLDATASIZE PUSH1 0x3 NOT ADD SLT PUSH2 0x1A7 JUMPI DUP3 SLOAD DUP3 MLOAD PUSH4 0x4162169F PUSH1 0xE0 SHL DUP2 MSTORE DUP3 CALLDATALOAD SWAP4 SWAP2 PUSH1 0x1 PUSH1 0x1 PUSH1 0xA0 SHL SUB SWAP2 SWAP1 PUSH1 0x20 SWAP1 DUP3 SWAP1 DUP7 SWAP1 DUP3 SWAP1 DUP7 AND GAS STATICCALL SWAP1 DUP2 ISZERO PUSH2 0x19D JUMPI DUP7 SWAP2 PUSH2 0x27E JUMPI JUMPDEST POP AND CALLER SUB PUSH2 0x161 JUMPI PUSH3 0x93A80 DUP4 LT DUP1 ISZERO PUSH2 0x272 JUMPI JUMPDEST PUSH2 0x148 JUMPI POP POP PUSH1 0x7 SSTORE DUP1 RETURN JUMPDEST POP PUSH3 0x13C680 DUP4 GT PUSH2 0x266 JUMP JUMPDEST PUSH2 0x297 SWAP2 POP PUSH1 0x20 RETURNDATASIZE PUSH1 0x20 GT PUSH2 0x196 JUMPI PUSH2 0x188 DUP2 DUP4 PUSH2 0x3A5 JUMP JUMPDEST CODESIZE PUSH2 0x251 JUMP JUMPDEST SWAP1 POP CALLVALUE PUSH2 0x1A7 JUMPI PUSH1 0x20 CALLDATASIZE PUSH1 0x3 NOT ADD SLT PUSH2 0x1A7 JUMPI DUP1 CALLDATALOAD SWAP2 PUSH1 0xFF DUP4 AND DUP1 SWAP4 SUB PUSH2 0x34E JUMPI DUP4 SLOAD DUP2 MLOAD PUSH4 0x4162169F PUSH1 0xE0 SHL DUP2 MSTORE PUSH1 0x1 PUSH1 0x1 PUSH1 0xA0 SHL SUB SWAP2 PUSH1 0x20 SWAP1 DUP3 SWAP1 DUP7 SWAP1 DUP3 SWAP1 DUP7 AND GAS STATICCALL SWAP1 DUP2 ISZERO PUSH2 0x19D JUMPI DUP7 SWAP2 PUSH2 0x32F JUMPI JUMPDEST POP AND CALLER SUB PUSH2 0x161 JUMPI PUSH1 0x64 DUP4 GT DUP1 ISZERO SWAP1 PUSH2 0x325 JUMPI JUMPDEST PUSH2 0x318 JUMPI POP POP PUSH1 0xFF NOT PUSH1 0x9 SLOAD AND OR PUSH1 0x9 SSTORE DUP1 RETURN JUMPDEST MLOAD PUSH4 0x6A43F8D1 PUSH1 0xE0 SHL DUP2 MSTORE REVERT JUMPDEST POP PUSH1 0x96 DUP4 GT PUSH2 0x304 JUMP JUMPDEST PUSH2 0x348 SWAP2 POP PUSH1 0x20 RETURNDATASIZE PUSH1 0x20 GT PUSH2 0x196 JUMPI PUSH2 0x188 DUP2 DUP4 PUSH2 0x3A5 JUMP JUMPDEST CODESIZE PUSH2 0x2F0 JUMP JUMPDEST DUP4 DUP1 REVERT JUMPDEST DUP5 SWAP2 CALLVALUE PUSH2 0x1A7 JUMPI PUSH1 0x20 CALLDATASIZE PUSH1 0x3 NOT ADD SLT PUSH2 0x1A7 JUMPI DUP1 CALLDATALOAD PUSH1 0x1 PUSH1 0x1 PUSH1 0xA0 SHL SUB DUP2 DUP2 AND SWAP4 SWAP2 DUP5 SWAP1 SUB PUSH2 0x203 JUMPI PUSH1 0x6 SLOAD AND CALLER SUB PUSH2 0x399 JUMPI POP POP DUP2 SLOAD PUSH1 0x1 PUSH1 0x1 PUSH1 0xA0 SHL SUB NOT AND OR DUP2 SSTORE DUP1 RETURN JUMPDEST PUSH4 0x7BFA4B9F PUSH1 0xE0 SHL DUP2 MSTORE REVERT JUMPDEST SWAP1 PUSH1 0x1F DUP1 NOT SWAP2 ADD AND DUP2 ADD SWAP1 DUP2 LT PUSH8 0xFFFFFFFFFFFFFFFF DUP3 GT OR PUSH2 0x3C7 JUMPI PUSH1 0x40 MSTORE JUMP JUMPDEST PUSH4 0x4E487B71 PUSH1 0xE0 SHL PUSH1 0x0 MSTORE PUSH1 0x41 PUSH1 0x4 MSTORE PUSH1 0x24 PUSH1 0x0 REVERT JUMPDEST SWAP1 DUP2 PUSH1 0x20 SWAP2 SUB SLT PUSH2 0x3FC JUMPI MLOAD PUSH1 0x1 PUSH1 0x1 PUSH1 0xA0 SHL SUB DUP2 AND DUP2 SUB PUSH2 0x3FC JUMPI SWAP1 JUMP JUMPDEST PUSH1 0x0 DUP1 REVERT INVALID LOG2 PUSH5 0x6970667358 0x22 SLT KECCAK256 CALLVALUE 0xB4 PUSH23 0x1726A2F48DEF1DC4DA2ED485E0AC01AD6756E9347D322F 0xB8 BLOCKHASH SHR 0xF6 0xB4 PUSH2 0x6473 PUSH16 0x6C634300081800330000000000000000 "
        },
        "methodIdentifiers": {
          "bidIncrementRate()": "f0cc2b14",
          "refundRequestPeriod()": "d6e54ff5",
          "refundReviewPeriod()": "f74c8ea3",
          "setAddressManager(address)": "0652b57a",
          "setAdmin(address)": "704b6c02",
          "setBidIncrementRate(uint8)": "4fb354b3",
          "setRefundRequestPeriod(uint256)": "5bcb5950",
          "setRefundReviewPeriod(uint256)": "9ec123da"
        }
      },
      "storageLayout": {
        "storage": [
          {
            "astId": 4843,
            "contract": "contracts/base/Exchange01.sol:Exchange01",
            "label": "ADDR_MANAGER",
            "offset": 0,
            "slot": "0",
            "type": "t_contract(IAddressManager)271"
          },
          {
            "astId": 4845,
            "contract": "contracts/base/Exchange01.sol:Exchange01",
            "label": "SIWE_AUTH",
            "offset": 0,
            "slot": "1",
            "type": "t_address"
          },
          {
            "astId": 4848,
            "contract": "contracts/base/Exchange01.sol:Exchange01",
            "label": "USER_MANAGER",
            "offset": 0,
            "slot": "2",
            "type": "t_contract(IUserManager)920"
          },
          {
            "astId": 4851,
            "contract": "contracts/base/Exchange01.sol:Exchange01",
            "label": "EXCHANGE",
            "offset": 0,
            "slot": "3",
            "type": "t_contract(IExchange)486"
          },
          {
            "astId": 4854,
            "contract": "contracts/base/Exchange01.sol:Exchange01",
            "label": "FUND_MANAGER",
            "offset": 0,
            "slot": "4",
            "type": "t_contract(IFundManager)663"
          },
          {
            "astId": 4857,
            "contract": "contracts/base/Exchange01.sol:Exchange01",
            "label": "TRUTH_BOX",
            "offset": 0,
            "slot": "5",
            "type": "t_contract(ITruthBox)870"
          },
          {
            "astId": 5062,
            "contract": "contracts/base/Exchange01.sol:Exchange01",
            "label": "ADMIN",
            "offset": 0,
            "slot": "6",
            "type": "t_address"
          },
          {
            "astId": 3628,
            "contract": "contracts/base/Exchange01.sol:Exchange01",
            "label": "_refundRequestPeriod",
            "offset": 0,
            "slot": "7",
            "type": "t_uint256"
          },
          {
            "astId": 3630,
            "contract": "contracts/base/Exchange01.sol:Exchange01",
            "label": "_refundReviewPeriod",
            "offset": 0,
            "slot": "8",
            "type": "t_uint256"
          },
          {
            "astId": 3632,
            "contract": "contracts/base/Exchange01.sol:Exchange01",
            "label": "_bidIncrementRate",
            "offset": 0,
            "slot": "9",
            "type": "t_uint8"
          }
        ],
        "types": {
          "t_address": {
            "encoding": "inplace",
            "label": "address",
            "numberOfBytes": "20"
          },
          "t_contract(IAddressManager)271": {
            "encoding": "inplace",
            "label": "contract IAddressManager",
            "numberOfBytes": "20"
          },
          "t_contract(IExchange)486": {
            "encoding": "inplace",
            "label": "contract IExchange",
            "numberOfBytes": "20"
          },
          "t_contract(IFundManager)663": {
            "encoding": "inplace",
            "label": "contract IFundManager",
            "numberOfBytes": "20"
          },
          "t_contract(ITruthBox)870": {
            "encoding": "inplace",
            "label": "contract ITruthBox",
            "numberOfBytes": "20"
          },
          "t_contract(IUserManager)920": {
            "encoding": "inplace",
            "label": "contract IUserManager",
            "numberOfBytes": "20"
          },
          "t_uint256": {
            "encoding": "inplace",
            "label": "uint256",
            "numberOfBytes": "32"
          },
          "t_uint8": {
            "encoding": "inplace",
            "label": "uint8",
            "numberOfBytes": "1"
          }
        }
      }
    }
  }
}