{
  "contracts/Exchange.sol": {
    "Exchange": {
      "abi": [
        {
          "inputs": [
            {
              "internalType": "address",
              "name": "addrManager_",
              "type": "address"
            },
            {
              "internalType": "address",
              "name": "trustedForwarder_",
              "type": "address"
            }
          ],
          "stateMutability": "nonpayable",
          "type": "constructor"
        },
        {
          "inputs": [],
          "name": "AmountIsZero",
          "type": "error"
        },
        {
          "inputs": [],
          "name": "ApprovalFailed",
          "type": "error"
        },
        {
          "inputs": [],
          "name": "AuctionOver",
          "type": "error"
        },
        {
          "inputs": [],
          "name": "AvailableBuyer",
          "type": "error"
        },
        {
          "inputs": [],
          "name": "BoxNotExists",
          "type": "error"
        },
        {
          "inputs": [],
          "name": "DeadlineIsOver",
          "type": "error"
        },
        {
          "inputs": [],
          "name": "DeadlineNotOver",
          "type": "error"
        },
        {
          "inputs": [],
          "name": "EmptyBoxInfoCID",
          "type": "error"
        },
        {
          "inputs": [],
          "name": "EmptyKey",
          "type": "error"
        },
        {
          "inputs": [],
          "name": "EmptyList",
          "type": "error"
        },
        {
          "inputs": [],
          "name": "EmptyPrice",
          "type": "error"
        },
        {
          "inputs": [],
          "name": "EmptyTokenCID",
          "type": "error"
        },
        {
          "inputs": [],
          "name": "EmptyUserId",
          "type": "error"
        },
        {
          "inputs": [],
          "name": "InBlacklist",
          "type": "error"
        },
        {
          "inputs": [],
          "name": "InvalidCaller",
          "type": "error"
        },
        {
          "inputs": [],
          "name": "InvalidContractAddress",
          "type": "error"
        },
        {
          "inputs": [],
          "name": "InvalidDeadline",
          "type": "error"
        },
        {
          "inputs": [],
          "name": "InvalidERC20Interface",
          "type": "error"
        },
        {
          "inputs": [],
          "name": "InvalidImplementation",
          "type": "error"
        },
        {
          "inputs": [],
          "name": "InvalidPeriod",
          "type": "error"
        },
        {
          "inputs": [],
          "name": "InvalidRate",
          "type": "error"
        },
        {
          "inputs": [],
          "name": "InvalidSeconds",
          "type": "error"
        },
        {
          "inputs": [],
          "name": "InvalidStatus",
          "type": "error"
        },
        {
          "inputs": [],
          "name": "InvalidToken",
          "type": "error"
        },
        {
          "inputs": [],
          "name": "NotAdmin",
          "type": "error"
        },
        {
          "inputs": [],
          "name": "NotAdminOrDAO",
          "type": "error"
        },
        {
          "inputs": [],
          "name": "NotBuyer",
          "type": "error"
        },
        {
          "inputs": [],
          "name": "NotDAO",
          "type": "error"
        },
        {
          "inputs": [],
          "name": "NotInBlacklist",
          "type": "error"
        },
        {
          "inputs": [],
          "name": "NotInSecrecy",
          "type": "error"
        },
        {
          "inputs": [],
          "name": "NotInWindowPeriod",
          "type": "error"
        },
        {
          "inputs": [],
          "name": "NotMinter",
          "type": "error"
        },
        {
          "inputs": [],
          "name": "NotProjectCaller",
          "type": "error"
        },
        {
          "inputs": [],
          "name": "PublicTimeNotEnd",
          "type": "error"
        },
        {
          "inputs": [],
          "name": "RefundPermitTrue",
          "type": "error"
        },
        {
          "inputs": [],
          "name": "TokenAlreadyExists",
          "type": "error"
        },
        {
          "inputs": [],
          "name": "TokenNotExists",
          "type": "error"
        },
        {
          "inputs": [],
          "name": "TokenNotSupported",
          "type": "error"
        },
        {
          "inputs": [],
          "name": "WithdrawError",
          "type": "error"
        },
        {
          "inputs": [],
          "name": "ZeroAddress",
          "type": "error"
        },
        {
          "anonymous": false,
          "inputs": [
            {
              "indexed": true,
              "internalType": "uint256",
              "name": "boxId",
              "type": "uint256"
            },
            {
              "indexed": true,
              "internalType": "bytes32",
              "name": "userId",
              "type": "bytes32"
            }
          ],
          "name": "BidPlaced",
          "type": "event"
        },
        {
          "anonymous": false,
          "inputs": [
            {
              "indexed": true,
              "internalType": "uint256",
              "name": "boxId",
              "type": "uint256"
            },
            {
              "indexed": true,
              "internalType": "bytes32",
              "name": "userId",
              "type": "bytes32"
            },
            {
              "indexed": false,
              "internalType": "address",
              "name": "acceptedToken",
              "type": "address"
            }
          ],
          "name": "BoxListed",
          "type": "event"
        },
        {
          "anonymous": false,
          "inputs": [
            {
              "indexed": true,
              "internalType": "uint256",
              "name": "boxId",
              "type": "uint256"
            },
            {
              "indexed": true,
              "internalType": "bytes32",
              "name": "userId",
              "type": "bytes32"
            }
          ],
          "name": "BoxPurchased",
          "type": "event"
        },
        {
          "anonymous": false,
          "inputs": [
            {
              "indexed": true,
              "internalType": "uint256",
              "name": "boxId",
              "type": "uint256"
            },
            {
              "indexed": true,
              "internalType": "bytes32",
              "name": "userId",
              "type": "bytes32"
            }
          ],
          "name": "CompleterAssigned",
          "type": "event"
        },
        {
          "anonymous": false,
          "inputs": [
            {
              "indexed": true,
              "internalType": "uint256",
              "name": "boxId",
              "type": "uint256"
            },
            {
              "indexed": false,
              "internalType": "bool",
              "name": "permission",
              "type": "bool"
            }
          ],
          "name": "RefundPermitChanged",
          "type": "event"
        },
        {
          "anonymous": false,
          "inputs": [
            {
              "indexed": true,
              "internalType": "uint256",
              "name": "boxId",
              "type": "uint256"
            },
            {
              "indexed": false,
              "internalType": "uint256",
              "name": "deadline",
              "type": "uint256"
            }
          ],
          "name": "RequestDeadlineChanged",
          "type": "event"
        },
        {
          "anonymous": false,
          "inputs": [
            {
              "indexed": true,
              "internalType": "uint256",
              "name": "boxId",
              "type": "uint256"
            },
            {
              "indexed": false,
              "internalType": "uint256",
              "name": "deadline",
              "type": "uint256"
            }
          ],
          "name": "ReviewDeadlineChanged",
          "type": "event"
        },
        {
          "inputs": [
            {
              "internalType": "uint256",
              "name": "boxId_",
              "type": "uint256"
            }
          ],
          "name": "acceptedToken",
          "outputs": [
            {
              "internalType": "address",
              "name": "",
              "type": "address"
            }
          ],
          "stateMutability": "view",
          "type": "function"
        },
        {
          "inputs": [
            {
              "internalType": "uint256",
              "name": "boxId_",
              "type": "uint256"
            }
          ],
          "name": "agreeRefund",
          "outputs": [],
          "stateMutability": "nonpayable",
          "type": "function"
        },
        {
          "inputs": [
            {
              "internalType": "uint256",
              "name": "boxId_",
              "type": "uint256"
            },
            {
              "internalType": "address",
              "name": "acceptedToken_",
              "type": "address"
            },
            {
              "internalType": "uint256",
              "name": "price_",
              "type": "uint256"
            }
          ],
          "name": "auction",
          "outputs": [],
          "stateMutability": "nonpayable",
          "type": "function"
        },
        {
          "inputs": [
            {
              "internalType": "uint256",
              "name": "boxId_",
              "type": "uint256"
            }
          ],
          "name": "bid",
          "outputs": [],
          "stateMutability": "nonpayable",
          "type": "function"
        },
        {
          "inputs": [],
          "name": "bidIncrementRate",
          "outputs": [
            {
              "internalType": "uint8",
              "name": "",
              "type": "uint8"
            }
          ],
          "stateMutability": "view",
          "type": "function"
        },
        {
          "inputs": [
            {
              "internalType": "uint256",
              "name": "boxId_",
              "type": "uint256"
            }
          ],
          "name": "buy",
          "outputs": [],
          "stateMutability": "nonpayable",
          "type": "function"
        },
        {
          "inputs": [
            {
              "internalType": "uint256",
              "name": "boxId_",
              "type": "uint256"
            }
          ],
          "name": "buyerIdOf",
          "outputs": [
            {
              "internalType": "bytes32",
              "name": "",
              "type": "bytes32"
            }
          ],
          "stateMutability": "view",
          "type": "function"
        },
        {
          "inputs": [
            {
              "internalType": "uint256",
              "name": "boxId_",
              "type": "uint256"
            },
            {
              "internalType": "bytes",
              "name": "siweToken_",
              "type": "bytes"
            }
          ],
          "name": "calcPayMoney",
          "outputs": [
            {
              "internalType": "uint256",
              "name": "",
              "type": "uint256"
            }
          ],
          "stateMutability": "view",
          "type": "function"
        },
        {
          "inputs": [
            {
              "internalType": "uint256",
              "name": "boxId_",
              "type": "uint256"
            }
          ],
          "name": "cancelRefund",
          "outputs": [],
          "stateMutability": "nonpayable",
          "type": "function"
        },
        {
          "inputs": [
            {
              "internalType": "uint256",
              "name": "boxId_",
              "type": "uint256"
            }
          ],
          "name": "completeOrder",
          "outputs": [],
          "stateMutability": "nonpayable",
          "type": "function"
        },
        {
          "inputs": [
            {
              "internalType": "uint256",
              "name": "boxId_",
              "type": "uint256"
            }
          ],
          "name": "completerIdOf",
          "outputs": [
            {
              "internalType": "bytes32",
              "name": "",
              "type": "bytes32"
            }
          ],
          "stateMutability": "view",
          "type": "function"
        },
        {
          "inputs": [
            {
              "internalType": "uint256",
              "name": "boxId_",
              "type": "uint256"
            }
          ],
          "name": "isInRequestRefundDeadline",
          "outputs": [
            {
              "internalType": "bool",
              "name": "",
              "type": "bool"
            }
          ],
          "stateMutability": "view",
          "type": "function"
        },
        {
          "inputs": [
            {
              "internalType": "uint256",
              "name": "boxId_",
              "type": "uint256"
            }
          ],
          "name": "isInReviewDeadline",
          "outputs": [
            {
              "internalType": "bool",
              "name": "",
              "type": "bool"
            }
          ],
          "stateMutability": "view",
          "type": "function"
        },
        {
          "inputs": [
            {
              "internalType": "address",
              "name": "forwarder",
              "type": "address"
            }
          ],
          "name": "isTrustedForwarder",
          "outputs": [
            {
              "internalType": "bool",
              "name": "",
              "type": "bool"
            }
          ],
          "stateMutability": "view",
          "type": "function"
        },
        {
          "inputs": [
            {
              "internalType": "uint256",
              "name": "boxId_",
              "type": "uint256"
            }
          ],
          "name": "refundPermit",
          "outputs": [
            {
              "internalType": "bool",
              "name": "",
              "type": "bool"
            }
          ],
          "stateMutability": "view",
          "type": "function"
        },
        {
          "inputs": [
            {
              "internalType": "uint256",
              "name": "boxId_",
              "type": "uint256"
            }
          ],
          "name": "refundRequestDeadline",
          "outputs": [
            {
              "internalType": "uint256",
              "name": "",
              "type": "uint256"
            }
          ],
          "stateMutability": "view",
          "type": "function"
        },
        {
          "inputs": [],
          "name": "refundRequestPeriod",
          "outputs": [
            {
              "internalType": "uint256",
              "name": "",
              "type": "uint256"
            }
          ],
          "stateMutability": "view",
          "type": "function"
        },
        {
          "inputs": [
            {
              "internalType": "uint256",
              "name": "boxId_",
              "type": "uint256"
            }
          ],
          "name": "refundReviewDeadline",
          "outputs": [
            {
              "internalType": "uint256",
              "name": "",
              "type": "uint256"
            }
          ],
          "stateMutability": "view",
          "type": "function"
        },
        {
          "inputs": [],
          "name": "refundReviewPeriod",
          "outputs": [
            {
              "internalType": "uint256",
              "name": "",
              "type": "uint256"
            }
          ],
          "stateMutability": "view",
          "type": "function"
        },
        {
          "inputs": [
            {
              "internalType": "uint256",
              "name": "boxId_",
              "type": "uint256"
            }
          ],
          "name": "refuseRefund",
          "outputs": [],
          "stateMutability": "nonpayable",
          "type": "function"
        },
        {
          "inputs": [
            {
              "internalType": "uint256",
              "name": "boxId_",
              "type": "uint256"
            }
          ],
          "name": "requestRefund",
          "outputs": [],
          "stateMutability": "nonpayable",
          "type": "function"
        },
        {
          "inputs": [
            {
              "internalType": "uint256",
              "name": "boxId_",
              "type": "uint256"
            },
            {
              "internalType": "address",
              "name": "acceptedToken_",
              "type": "address"
            },
            {
              "internalType": "uint256",
              "name": "price_",
              "type": "uint256"
            }
          ],
          "name": "sell",
          "outputs": [],
          "stateMutability": "nonpayable",
          "type": "function"
        },
        {
          "inputs": [
            {
              "internalType": "uint256",
              "name": "boxId_",
              "type": "uint256"
            }
          ],
          "name": "sellerIdOf",
          "outputs": [
            {
              "internalType": "bytes32",
              "name": "",
              "type": "bytes32"
            }
          ],
          "stateMutability": "view",
          "type": "function"
        },
        {
          "inputs": [],
          "name": "setAddress",
          "outputs": [],
          "stateMutability": "nonpayable",
          "type": "function"
        },
        {
          "inputs": [
            {
              "internalType": "address",
              "name": "addrManager_",
              "type": "address"
            }
          ],
          "name": "setAddressManager",
          "outputs": [],
          "stateMutability": "nonpayable",
          "type": "function"
        },
        {
          "inputs": [
            {
              "internalType": "address",
              "name": "admin_",
              "type": "address"
            }
          ],
          "name": "setAdmin",
          "outputs": [],
          "stateMutability": "nonpayable",
          "type": "function"
        },
        {
          "inputs": [
            {
              "internalType": "uint8",
              "name": "rate_",
              "type": "uint8"
            }
          ],
          "name": "setBidIncrementRate",
          "outputs": [],
          "stateMutability": "nonpayable",
          "type": "function"
        },
        {
          "inputs": [
            {
              "internalType": "uint256",
              "name": "boxId_",
              "type": "uint256"
            },
            {
              "internalType": "bool",
              "name": "permission_",
              "type": "bool"
            }
          ],
          "name": "setRefundPermit",
          "outputs": [],
          "stateMutability": "nonpayable",
          "type": "function"
        },
        {
          "inputs": [
            {
              "internalType": "uint256",
              "name": "period_",
              "type": "uint256"
            }
          ],
          "name": "setRefundRequestPeriod",
          "outputs": [],
          "stateMutability": "nonpayable",
          "type": "function"
        },
        {
          "inputs": [
            {
              "internalType": "uint256",
              "name": "period_",
              "type": "uint256"
            }
          ],
          "name": "setRefundReviewPeriod",
          "outputs": [],
          "stateMutability": "nonpayable",
          "type": "function"
        },
        {
          "inputs": [],
          "name": "trustedForwarder",
          "outputs": [
            {
              "internalType": "address",
              "name": "",
              "type": "address"
            }
          ],
          "stateMutability": "view",
          "type": "function"
        }
      ],
      "evm": {
        "bytecode": {
          "linkReferences": {},
          "object": "60a034620000cc57601f62002bb138819003918201601f19168301916001600160401b03831184841017620000d1578084926040948552833981010312620000cc576200005a60206200005283620000e7565b9201620000e7565b600080546001600160a01b03199081166001600160a01b039094169390931790556006805490921633179091556009805460ff1916606e17905562093a806007556213c680600855608052604051612ab49081620000fd82396080518181816114f301528181611ee401526129e40152f35b600080fd5b634e487b7160e01b600052604160045260246000fd5b51906001600160a01b0382168203620000cc5756fe608060408181526004918236101561001657600080fd5b600092833560e01c9182630652b57a146126285750816312b65bb0146123d157816316efecef146123b15781631c2284ec1461232e5781631d934b6c14612305578163454a2ab314611fed5781634a7a281614611fbc5781634fb354b314611f0b578163572b6c0514611eb95781635bcb595014611e2357816366f240f814611c6257816367cdf6c914611935578163704b6c02146118df57816373ebfc62146115225781637da0a877146114de5781639ec123da1461142e578163a074f086146113ab578163a3b979c3146112de578163a4b2409e1461105a578163a8e1131a14610faf578163afa5e1ee14610f86578163b3e5219e14610f56578163b6adaaff14610cb2578163bb21a49314610a73578163c70b248b14610802578163cea04093146107d7578163d6e54ff5146107b8578163d96a094a14610508578163e6569275146101bc57508063f0cc2b141461019b5763f74c8ea31461017a57600080fd5b346101975781600319360112610197576020906008549051908152f35b5080fd5b503461019757816003193601126101975760209060ff600954169051908152f35b9190503461050457826003193601126105045782546001600160a01b039081169290919033841415806104f6575b6104e85781516350ec99a760e01b815260209081818481895afa9081156104de5787916104c1575b508351636f9f44c560e01b815290828285818a5afa9182156104b7578892610498575b50845163697b932d60e11b815292808486818b5afa93841561048e57899461046f575b508551636209ec2d60e01b81529781898781845afa988915610465578a99610440575b5090808692885193848092635c8a768760e01b82525afa968715610437575091879893918895938b986103fb575b505084929183809216801515806103ed575b6103d4575b5016801515806103c6575b806103be575b6103a5575b501680151580610397575b80610390575b610377575b50168015158061036a575b80610362575b61034c575b50501690811515908161033d575b5080610335575b61031f575080f35b6001600160601b0360a01b600254161760025580f35b506001610317565b90506002541681141538610310565b81546001600160a01b0319161790553880610302565b5060016102fd565b50838254168114156102f7565b6001600160601b0360a01b6003541617600355386102ec565b50876102e7565b5082600354168114156102e1565b6001600160601b0360a01b6005541617600555386102d6565b5060016102d1565b5082600554168114156102cb565b6001600160601b0360a01b6001541617600155386102c0565b5082600154168114156102bb565b869493918593995061042490828593903d10610430575b61041c81836126e7565b810190612721565b989250819394506102a9565b503d610412565b513d8b823e3d90fd5b829199509161045c8793823d84116104305761041c81836126e7565b9991925061027b565b87513d8c823e3d90fd5b816104879295503d86116104305761041c81836126e7565b9238610258565b86513d8b823e3d90fd5b6104b0919250833d85116104305761041c81836126e7565b9038610235565b85513d8a823e3d90fd5b6104d89150823d84116104305761041c81836126e7565b38610212565b84513d89823e3d90fd5b90516348f5c3ed60e01b8152fd5b5082600654163314156101ea565b8280fd5b91905034610504576020806003193601126107b45782359160018060a01b039384600554168251632e31150760e11b815285838201528481602481855afa9081156107aa57889161077d575b50600881101561076a5760010361075b579081879493923b1561074d578251633625b75960e21b815282810187905260036024820152858160448183865af1801561075157610739575b506024966105aa6129b9565b9185826002541686519a8b8092632b956ff760e01b8252868816898301525afa9889156106fa578799610704575b5085602491898952600a82528a6002888b2001556105f6428b612a12565b865192838092630e75722360e41b82528c898301525afa9586156106fa5787966106c2575b5050825416803b156106be57835163550ea89d60e11b81529283018781526001600160a01b0390921660208301526040820194909452606081018790529092849184919082908490829060800103925af19081156106b557506106a1575b50807f51f8c9b892f93cac3c044f50c1a190ff240d8951b71cf35d783428fcdab3384e91a380f35b6106aa906126bd565b610504578238610679565b513d84823e3d90fd5b8580fd5b819750809296503d83116106f3575b6106db81836126e7565b810103126106ee5787945193388061061b565b600080fd5b503d6106d1565b85513d89823e3d90fd5b8680929a508198503d8311610732575b61071e81836126e7565b810103126106ee57945196889590856105d8565b503d610714565b61074386916126bd565b61074d573861059e565b8480fd5b84513d88823e3d90fd5b5090516307a92f1960e51b8152fd5b634e487b7160e01b885260218352602488fd5b61079d9150853d87116107a3575b61079581836126e7565b810190612740565b38610554565b503d61078b565b84513d8a823e3d90fd5b8380fd5b5050346101975781600319360112610197576020906007549051908152f35b9050346105045760203660031901126105045781602093600592358152600a85522001549051908152f35b91905034610504576020806003193601126107b4576005548251632e31150760e11b81528435818601819052946001600160a01b039283169290918481602481875afa9081156109d7578891610a56575b50600881101561076a578203610a47579086929161087087612758565b6108fc575b50858352600a8452848320600601805460ff19166001179055813b156105045785604484928388519586948593633625b75960e21b8552840152600660248401525af180156108f2576108de575b5050600080516020612a5f833981519152915160018152a280f35b6108e7906126bd565b6107b45783386108c3565b84513d84823e3d90fd5b809192935060025416848260246109116129b9565b89519485938492632b956ff760e01b845216888301525afa9081156109d7578891610a1a575b50855163fe096dd760e01b8152838101889052908582602481885afa918215610a105789926109e1575b5014159081610987575b506109795790859138610875565b83516348f5c3ed60e01b8152fd5b9050818482895416875192838092634162169f60e01b82525afa9081156109d75788916109ba575b50163314153861096b565b6109d19150853d87116104305761041c81836126e7565b386109af565b86513d8a823e3d90fd5b9091508581813d8311610a09575b6109f981836126e7565b810103126106ee57519038610961565b503d6109ef565b87513d8b823e3d90fd5b90508481813d8311610a40575b610a3181836126e7565b810103126106ee575138610937565b503d610a27565b5083516307a92f1960e51b8152fd5b610a6d9150853d87116107a35761079581836126e7565b38610853565b905034610504578160031936011261050457803592602480359467ffffffffffffffff918287116107b457366023880112156107b45786850135928311610ca1578551602097601f199490610acf601f830187168b01846126e7565b81835236848383010111610c9d57818792858c9301838601378301015260018060a01b039088826001541633963315610bef575b50506002548951632b956ff760e01b81529684168988015290915085908490829085165afa938415610be557908892918695610bb2575b506005548851630e75722360e41b81529788018590528792918391165afa928315610ba75792610b76575b610b6f9350612936565b9051908152f35b91508483813d8311610ba0575b610b8d81836126e7565b810103126106ee57610b6f925191610b65565b503d610b83565b8551903d90823e3d90fd5b838193949296503d8311610bde575b610bcb81836126e7565b810103126106ee57519287919083610b3a565b503d610bc1565b87513d87823e3d90fd5b8a516319510d6760e01b81528a810184905284518782018190529098509293889390858b5b838110610c8557505050838092601f838d6044809686010152011681010301915afa938415610be5578594610c66575b5080841615610c565738888180610b03565b865163c1ab6dc160e01b81528690fd5b610c7e919450883d8a116104305761041c81836126e7565b9238610c44565b8281018201518c8201604401528b9650879101610c14565b8680fd5b634e487b7160e01b84526041855283fd5b839150346101975760209283600319360112610504576005548151632e31150760e11b815283358185018190526024949290916001600160a01b039182169088818881855afa9081156109d7578891610f39575b506008811015610f2757600303610f1757828752600a885260ff6006868920015416610f0757610d346129b9565b6002548651632b956ff760e01b815291841686830152899082908990829087165afa9081156109d7578891610eda575b50838852600a8952600286892001548103610e11575b50869750803b15610c9d578680916044875180948193633625b75960e21b8352888a84015260058c8401525af180156106fa57908791610dfd575b505082541693843b156106be57859283855196879485936320870cc360e21b85528401525af19081156106b55750610dea5750f35b610df3906126bd565b610dfa5780f35b80fd5b610e06906126bd565b6106be578588610db5565b610e1a84612819565b610eca578798865163fe096dd760e01b8152858782015281818a81875afa908115610ec0578a91610e8f575b508203610e54575b50610d7a565b600a90858a5252806003878a200155837ffaf3dcfa2576c4a3a6b997b4d49715be99abe24ce77e72f779c2d5574eb9bed88980a38880610e4e565b809a50828092503d8311610eb9575b610ea881836126e7565b810103126106ee578998518b610e46565b503d610e9e565b88513d8c823e3d90fd5b8551634e1fc47d60e11b81528590fd5b90508881813d8311610f00575b610ef181836126e7565b810103126106ee575189610d64565b503d610ee7565b84516304c1157360e21b81528490fd5b84516307a92f1960e51b81528490fd5b634e487b7160e01b8852602185528688fd5b610f509150893d8b116107a35761079581836126e7565b89610d06565b9050346105045760203660031901126105045760068260209460ff93358152600a86522001541690519015158152f35b905034610504576020366003190112610504578160209382358152600a85522001549051908152f35b828434610dfa5760209283600319360112610197578154835163103864a360e11b81523383820152908590829060249082906001600160a01b03165afa908115611050578391611023575b501561101557358152600a8352819020600101549051908152f35b82516306a7599f60e41b8152fd5b6110439150853d8711611049575b61103b81836126e7565b810190612709565b85610ffa565b503d611031565b84513d85823e3d90fd5b91905034610504576020806003193601126107b4576005548251632e31150760e11b8152843581860181905294916001600160a01b03908116916024919085818481875afa908115610a105789916112c1575b5060088110156112af5760030361129f5780600254168582846110ce6129b9565b8a519485938492632b956ff760e01b8452168a8301525afa908115610a10578991611272575b50878952600a86526002878a2001540361126257868852600a855260ff6006878a20015416611252579087929161112a88612819565b156111c8575061113c60085442612913565b93878452600a86528460058886200155823b156107b457604484928389519586948593633625b75960e21b85528d828601528401525af180156111be576111aa575b50507fc52de02f08bba719638e1bfcf9ce2622b315527f02946fd49c2f3b9c596d83479251908152a280f35b6111b3906126bd565b61074d57843861117e565b85513d84823e3d90fd5b9180919695509692963b15610c9d578680916044875180948193633625b75960e21b8352888a84015260058c8401525af180156106fa5790879161123e575b505082541693843b156106be57859283855196879485936320870cc360e21b85528401525af19081156106b55750610dea57505080f35b611247906126bd565b6106be578538611207565b85516304c1157360e21b81528490fd5b855163239700bf60e11b81528490fd5b90508581813d8311611298575b61128981836126e7565b810103126106ee5751386110f4565b503d61127f565b85516307a92f1960e51b81528490fd5b634e487b7160e01b8952602185528289fd5b6112d89150863d88116107a35761079581836126e7565b386110ad565b9050346105045781600319360112610504578035916024359182151580930361074d578454825163103864a360e11b8152338382015290602090829060249082906001600160a01b03165afa9081156113a1578691611382575b50156113745750600080516020612a5f83398151915291602091848652600a835260068187200160ff1981541660ff841617905551908152a280f35b90516306a7599f60e41b8152fd5b61139b915060203d6020116110495761103b81836126e7565b38611338565b83513d88823e3d90fd5b828434610dfa5760209283600319360112610197578154835163103864a360e11b81523383820152908590829060249082906001600160a01b03165afa908115611050578391611411575b501561101557358152600a8352819020600201549051908152f35b6114289150853d87116110495761103b81836126e7565b856113f6565b9050346105045760203660031901126105045782548251634162169f60e01b8152823593916001600160a01b03919060209082908690829086165afa9081156113a15786916114bf575b501633036114b2576213c680831080156114a6575b61149957505060085580f35b516302e8f35960e31b8152fd5b50624f1a00831161148d565b516327568d2f60e11b8152fd5b6114d8915060203d6020116104305761041c81836126e7565b38611478565b505034610197578160031936011261019757517f00000000000000000000000000000000000000000000000000000000000000006001600160a01b03168152602090f35b839150346101975761153336612693565b929060018060a01b03806005541696805197632e31150760e11b895285858a015260209460249986818c81865afa90811561174b576000916118c2575b5060088110156118ae576118a0576115866129b9565b9786858c81600254169b87519c8d938492632b956ff760e01b845216878301525afa98891561174b57600099611871575b508460005416958451637b9e618d60e01b8152888185818b5afa90811561180057600091611854575b5080978d8a8c895192839163fe096dd760e01b835289830152818a5afa90811561184957918f92918e8d93600092611814575b5014611756575050505050508251638286227560e01b8152878282015286818c81865afa90811561174b5760009161171e575b504211156117105786600052600a86528760018460002001556000915b6203f48042018042116116fc57813b156106ee57889385519c8d9586956305ee484760e51b8752860152840152604483016002905260648301525a9260006084928195f19788156116f1577f0a264bb34fdf1a1758c3fdc7f52fc198464870751ae58254643a0ed3b3d07013959697986116e2575b505191168152a380f35b6116eb906126bd565b886116d8565b50513d6000823e3d90fd5b8b601184634e487b7160e01b600052526000fd5b8251634e1fc47d60e11b8152fd5b90508681813d8311611744575b61173581836126e7565b810103126106ee57518b611646565b503d61172b565b84513d6000823e3d90fd5b8980869997991694168414158061180b575b611777575b5050505050611663565b909192939499508751928380926375151b6360e01b825286898301525afa908115611800576000916117e3575b50156117d35788600052600a885284600020906001600160601b0360a01b825416179055948b808c898261176d565b8451633dd1b30560e01b81528390fd5b6117fa9150893d8b116110495761103b81836126e7565b8d6117a4565b86513d6000823e3d90fd5b50831515611768565b93929450505081813d8311611842575b61182e81836126e7565b810103126106ee57518e918b918e38611613565b503d611824565b88513d6000823e3d90fd5b61186b9150893d8b116104305761041c81836126e7565b8d6115e0565b90988782813d8311611899575b61188881836126e7565b81010312610dfa575051978b6115b7565b503d61187e565b82516307a92f1960e51b8152fd5b8a602183634e487b7160e01b600052526000fd5b6118d99150873d89116107a35761079581836126e7565b8b611570565b91905034610504576020366003190112610504576118fb61267d565b600654926001600160a01b0392838516330361192857505016906001600160601b0360a01b161760065580f35b51637bfa4b9f60e01b8152fd5b839150346101975761194636612693565b929060018060a01b03806005541696805197632e31150760e11b895285858a015260209460249986818c81865afa90811561174b57600091611c45575b5060088110156118ae576118a0576119996129b9565b9786858c81600254169b87519c8d938492632b956ff760e01b845216878301525afa98891561174b57600099611c16575b508460005416958451637b9e618d60e01b8152888185818b5afa90811561180057600091611bf9575b5080978d8a8c895192839163fe096dd760e01b835289830152818a5afa90811561184957918f92918e8d93600092611bc4575b5014611b21575050505050508251638286227560e01b8152878282015286818c81865afa90811561174b57600091611af4575b504211156117105786600052600a86528760018460002001556000915b6213c68042018042116116fc57813b156106ee57889385519c8d9586956305ee484760e51b8752860152840152604483016001905260648301525a9260006084928195f19788156116f1577f0a264bb34fdf1a1758c3fdc7f52fc198464870751ae58254643a0ed3b3d07013959697986116e257505191168152a380f35b90508681813d8311611b1a575b611b0b81836126e7565b810103126106ee57518b611a59565b503d611b01565b89808699979916941684141580611bbb575b611b42575b5050505050611a76565b909192939499508751928380926375151b6360e01b825286898301525afa90811561180057600091611b9e575b50156117d35788600052600a885284600020906001600160601b0360a01b825416179055948b808c8982611b38565b611bb59150893d8b116110495761103b81836126e7565b8d611b6f565b50831515611b33565b93929450505081813d8311611bf2575b611bde81836126e7565b810103126106ee57518e918b918e38611a26565b503d611bd4565b611c109150893d8b116104305761041c81836126e7565b8d6119f3565b90988782813d8311611c3e575b611c2d81836126e7565b81010312610dfa575051978b6119ca565b503d611c23565b611c5c9150873d89116107a35761079581836126e7565b8b611983565b83915034610197576020928360031936011261050457600254823592906001600160a01b0390811686826024611c966129b9565b87519485938492632b956ff760e01b845216888301525afa908115610751578691611df6575b50848652600a87526002848720015403611de757838552600a865260ff6006848720015416611dd8578060055416958351632e31150760e11b8152858482015281816024818b5afa9182156106fa578792611dbb575b50506008811015611da857820361075b578585963b156106be578580916044865180948193633625b75960e21b83528a89840152600560248401525af1801561075157908691611d94575b505081541692833b1561074d576024859283855196879485936320870cc360e21b85528401525af19081156106b55750610dea5750f35b611d9d906126bd565b61074d578487611d5d565b634e487b7160e01b865260218352602486fd5b611dd19250803d106107a35761079581836126e7565b8780611d12565b5090516304c1157360e21b8152fd5b50905163239700bf60e11b8152fd5b90508681813d8311611e1c575b611e0d81836126e7565b810103126106ee575187611cbc565b503d611e03565b9050346105045760203660031901126105045782548251634162169f60e01b8152823593916001600160a01b03919060209082908690829086165afa9081156113a1578691611e9a575b501633036114b25762093a8083108015611e8e575b61149957505060075580f35b506213c6808311611e82565b611eb3915060203d6020116104305761041c81836126e7565b38611e6d565b50503461019757602036600319011261019757602090611ed761267d565b60018060a01b03915191807f0000000000000000000000000000000000000000000000000000000000000000169116148152f35b9050346105045760203660031901126105045780359160ff83168093036107b45783548151634162169f60e01b81526001600160a01b039160209082908690829086165afa9081156113a1578691611f9d575b501633036114b25760648311801590611f93575b611f8657505060ff19600954161760095580f35b51636a43f8d160e01b8152fd5b5060968311611f72565b611fb6915060203d6020116104305761041c81836126e7565b38611f5e565b828434610dfa576020366003190112610dfa5750611fdc602092356128a1565b90516001600160a01b039091168152f35b9190503461050457602090816003193601126107b4578235908261200f6129b9565b6002548351632b956ff760e01b81526001600160a01b03808416828a0152979096909291602491908890839082908c165afa9687156122fb5789976122cc575b50858952600a84526002858a20015487146122bc578760055416855191633ff76def60e21b835287858401526060838281855afa80156122b2578b908c948d91612260575b50421161225057600881101561223e5760020361222e576203f48042019081421161221d576120c3828a612a12565b60ff600954169283850293858504148515171561220b5790818d9796959493923b1561220757868860849281958e9560648f51998a9889976305ee484760e51b895288015204908501526002604485015260648401525af18015610be5579085916121f3575b5050612136908888612936565b97825416803b156107b457855163550ea89d60e11b81529283018781526001600160a01b0390921660208301526040820198909852606081018790529096829188919082908490829060800103925af19586156121e75785969594956121cc575b50849052600a90528420600201557f9e1bd0c0e1d393c40d5f2b9bcb5b6420a4cb761115927eef146be8abd73db3f98380a380f35b6121d991929394506126bd565b61074d579083918538612197565b508251903d90823e3d90fd5b6121fc906126bd565b6107b4578338612129565b8780fd5b50634e487b7160e01b8c52601186528bfd5b634e487b7160e01b8c52601186528bfd5b86516307a92f1960e51b81528590fd5b50634e487b7160e01b8b52602185528afd5b8751631508531560e31b81528690fd5b945050506060833d6060116122aa575b8161227d606093836126e7565b810103126122a65782519260088410156122a257878782015191015193909338612094565b8b80fd5b8a80fd5b3d9150612270565b87513d8d823e3d90fd5b845163239700bf60e11b81528390fd5b9096508381813d83116122f4575b6122e481836126e7565b810103126106ee5751953861204f565b503d6122da565b85513d8b823e3d90fd5b828434610dfa576020366003190112610dfa575061232560209235612819565b90519015158152f35b828434610dfa5760209283600319360112610197578154835163103864a360e11b81523383820152908590829060249082906001600160a01b03165afa908115611050578391612394575b501561101557358152600a8352819020600301549051908152f35b6123ab9150853d87116110495761103b81836126e7565b85612379565b828434610dfa576020366003190112610dfa575061232560209235612758565b839150346101975760209283600319360112610504576005548151632e31150760e11b815283358185018190526001600160a01b03928316969094929181816024818b5afa9081156106fa57879161260b575b5060088110156125f85783036125e857848652600a815260ff60068588200154166125d85761245285612758565b1561253d57828183885416865192838092634162169f60e01b82525afa9182156106fa57908392918892612520575b5050163303612511578585963b156106be578580916044865180948193633625b75960e21b83528a89840152600560248401525af18015610751579086916124fd575b505081541692833b1561074d576024859283855196879485936320870cc360e21b85528401525af19081156106b55750610dea57505080f35b612506906126bd565b61074d5784876124c4565b5090516327568d2f60e11b8152fd5b6125369250803d106104305761041c81836126e7565b8880612481565b93949591869150858252600a8552600684832001600160ff19825416179055823b1561019757604486918386519586948593633625b75960e21b8552840152600660248401525af180156125ce576125ab575b5090600080516020612a5f833981519152915160018152a280f35b936125c6600080516020612a5f8339815191529392956126bd565b939091612590565b82513d87823e3d90fd5b83516304c1157360e21b81528390fd5b83516307a92f1960e51b81528390fd5b634e487b7160e01b875260218452602487fd5b6126229150823d84116107a35761079581836126e7565b88612424565b8491346105045760203660031901126105045761264361267d565b6006546001600160a01b0393919291908416330361267157505082546001600160a01b031916911617815580f35b637bfa4b9f60e01b8152fd5b600435906001600160a01b03821682036106ee57565b60609060031901126106ee57600435906024356001600160a01b03811681036106ee579060443590565b67ffffffffffffffff81116126d157604052565b634e487b7160e01b600052604160045260246000fd5b90601f8019910116810190811067ffffffffffffffff8211176126d157604052565b908160209103126106ee575180151581036106ee5790565b908160209103126106ee57516001600160a01b03811681036106ee5790565b908160209103126106ee575160088110156106ee5790565b600554604051632e31150760e11b81526004810183905290602090829060249082906001600160a01b03165afa90811561280d576000916127ee575b5060088110156127d8576004036127c657600052600a60205260056040600020015442116127c157600190565b600090565b6040516307a92f1960e51b8152600490fd5b634e487b7160e01b600052602160045260246000fd5b612807915060203d6020116107a35761079581836126e7565b38612794565b6040513d6000823e3d90fd5b600554604051632e31150760e11b81526004810183905290602090829060249082906001600160a01b03165afa90811561280d57600091612882575b5060088110156127d8576003036127c657600052600a60205260046040600020015442116127c157600190565b61289b915060203d6020116107a35761079581836126e7565b38612855565b6000908152600a60205260409020546001600160a01b039081169081156128c6575090565b600054604051637b9e618d60e01b8152925060209183916004918391165afa90811561280d576000916128f7575090565b612910915060203d6020116104305761041c81836126e7565b90565b9190820180921161292057565b634e487b7160e01b600052601160045260246000fd5b6004805460405163019b54d560e21b8152918201929092526024810192909252602090829060449082906001600160a01b03165afa90811561280d57600091612987575b5081039081116129205790565b90506020813d6020116129b1575b816129a2602093836126e7565b810103126106ee57513861297a565b3d9150612995565b6014361015806129e0575b156129dc5760131936013681116106ee573560601c90565b3390565b50337f00000000000000000000000000000000000000000000000000000000000000006001600160a01b0316146129c4565b906020612a437faef7723520380eee6de3a60cdea8491aaddca20c0cdb2d1850ca7f93194783159260075490612913565b83600052600a825280600460406000200155604051908152a256fe3f4d41438448f2543938fc94b8d0ed6c05bf0afae44d27a75ae402c7d2f22368a26469706673582212202d55da7684bb4c7215382de51c2aac65c31aad0bdea7bcaf476837ffea8643ed64736f6c63430008180033",
          "opcodes": "PUSH1 0xA0 CALLVALUE PUSH3 0xCC JUMPI PUSH1 0x1F PUSH3 0x2BB1 CODESIZE DUP2 SWAP1 SUB SWAP2 DUP3 ADD PUSH1 0x1F NOT AND DUP4 ADD SWAP2 PUSH1 0x1 PUSH1 0x1 PUSH1 0x40 SHL SUB DUP4 GT DUP5 DUP5 LT OR PUSH3 0xD1 JUMPI DUP1 DUP5 SWAP3 PUSH1 0x40 SWAP5 DUP6 MSTORE DUP4 CODECOPY DUP2 ADD SUB SLT PUSH3 0xCC JUMPI PUSH3 0x5A PUSH1 0x20 PUSH3 0x52 DUP4 PUSH3 0xE7 JUMP JUMPDEST SWAP3 ADD PUSH3 0xE7 JUMP JUMPDEST PUSH1 0x0 DUP1 SLOAD PUSH1 0x1 PUSH1 0x1 PUSH1 0xA0 SHL SUB NOT SWAP1 DUP2 AND PUSH1 0x1 PUSH1 0x1 PUSH1 0xA0 SHL SUB SWAP1 SWAP5 AND SWAP4 SWAP1 SWAP4 OR SWAP1 SSTORE PUSH1 0x6 DUP1 SLOAD SWAP1 SWAP3 AND CALLER OR SWAP1 SWAP2 SSTORE PUSH1 0x9 DUP1 SLOAD PUSH1 0xFF NOT AND PUSH1 0x6E OR SWAP1 SSTORE PUSH3 0x93A80 PUSH1 0x7 SSTORE PUSH3 0x13C680 PUSH1 0x8 SSTORE PUSH1 0x80 MSTORE PUSH1 0x40 MLOAD PUSH2 0x2AB4 SWAP1 DUP2 PUSH3 0xFD DUP3 CODECOPY PUSH1 0x80 MLOAD DUP2 DUP2 DUP2 PUSH2 0x14F3 ADD MSTORE DUP2 DUP2 PUSH2 0x1EE4 ADD MSTORE PUSH2 0x29E4 ADD MSTORE RETURN JUMPDEST PUSH1 0x0 DUP1 REVERT JUMPDEST PUSH4 0x4E487B71 PUSH1 0xE0 SHL PUSH1 0x0 MSTORE PUSH1 0x41 PUSH1 0x4 MSTORE PUSH1 0x24 PUSH1 0x0 REVERT JUMPDEST MLOAD SWAP1 PUSH1 0x1 PUSH1 0x1 PUSH1 0xA0 SHL SUB DUP3 AND DUP3 SUB PUSH3 0xCC JUMPI JUMP INVALID PUSH1 0x80 PUSH1 0x40 DUP2 DUP2 MSTORE PUSH1 0x4 SWAP2 DUP3 CALLDATASIZE LT ISZERO PUSH2 0x16 JUMPI PUSH1 0x0 DUP1 REVERT JUMPDEST PUSH1 0x0 SWAP3 DUP4 CALLDATALOAD PUSH1 0xE0 SHR SWAP2 DUP3 PUSH4 0x652B57A EQ PUSH2 0x2628 JUMPI POP DUP2 PUSH4 0x12B65BB0 EQ PUSH2 0x23D1 JUMPI DUP2 PUSH4 0x16EFECEF EQ PUSH2 0x23B1 JUMPI DUP2 PUSH4 0x1C2284EC EQ PUSH2 0x232E JUMPI DUP2 PUSH4 0x1D934B6C EQ PUSH2 0x2305 JUMPI DUP2 PUSH4 0x454A2AB3 EQ PUSH2 0x1FED JUMPI DUP2 PUSH4 0x4A7A2816 EQ PUSH2 0x1FBC JUMPI DUP2 PUSH4 0x4FB354B3 EQ PUSH2 0x1F0B JUMPI DUP2 PUSH4 0x572B6C05 EQ PUSH2 0x1EB9 JUMPI DUP2 PUSH4 0x5BCB5950 EQ PUSH2 0x1E23 JUMPI DUP2 PUSH4 0x66F240F8 EQ PUSH2 0x1C62 JUMPI DUP2 PUSH4 0x67CDF6C9 EQ PUSH2 0x1935 JUMPI DUP2 PUSH4 0x704B6C02 EQ PUSH2 0x18DF JUMPI DUP2 PUSH4 0x73EBFC62 EQ PUSH2 0x1522 JUMPI DUP2 PUSH4 0x7DA0A877 EQ PUSH2 0x14DE JUMPI DUP2 PUSH4 0x9EC123DA EQ PUSH2 0x142E JUMPI DUP2 PUSH4 0xA074F086 EQ PUSH2 0x13AB JUMPI DUP2 PUSH4 0xA3B979C3 EQ PUSH2 0x12DE JUMPI DUP2 PUSH4 0xA4B2409E EQ PUSH2 0x105A JUMPI DUP2 PUSH4 0xA8E1131A EQ PUSH2 0xFAF JUMPI DUP2 PUSH4 0xAFA5E1EE EQ PUSH2 0xF86 JUMPI DUP2 PUSH4 0xB3E5219E EQ PUSH2 0xF56 JUMPI DUP2 PUSH4 0xB6ADAAFF EQ PUSH2 0xCB2 JUMPI DUP2 PUSH4 0xBB21A493 EQ PUSH2 0xA73 JUMPI DUP2 PUSH4 0xC70B248B EQ PUSH2 0x802 JUMPI DUP2 PUSH4 0xCEA04093 EQ PUSH2 0x7D7 JUMPI DUP2 PUSH4 0xD6E54FF5 EQ PUSH2 0x7B8 JUMPI DUP2 PUSH4 0xD96A094A EQ PUSH2 0x508 JUMPI DUP2 PUSH4 0xE6569275 EQ PUSH2 0x1BC JUMPI POP DUP1 PUSH4 0xF0CC2B14 EQ PUSH2 0x19B JUMPI PUSH4 0xF74C8EA3 EQ PUSH2 0x17A JUMPI PUSH1 0x0 DUP1 REVERT JUMPDEST CALLVALUE PUSH2 0x197 JUMPI DUP2 PUSH1 0x3 NOT CALLDATASIZE ADD SLT PUSH2 0x197 JUMPI PUSH1 0x20 SWAP1 PUSH1 0x8 SLOAD SWAP1 MLOAD SWAP1 DUP2 MSTORE RETURN JUMPDEST POP DUP1 REVERT JUMPDEST POP CALLVALUE PUSH2 0x197 JUMPI DUP2 PUSH1 0x3 NOT CALLDATASIZE ADD SLT PUSH2 0x197 JUMPI PUSH1 0x20 SWAP1 PUSH1 0xFF PUSH1 0x9 SLOAD AND SWAP1 MLOAD SWAP1 DUP2 MSTORE RETURN JUMPDEST SWAP2 SWAP1 POP CALLVALUE PUSH2 0x504 JUMPI DUP3 PUSH1 0x3 NOT CALLDATASIZE ADD SLT PUSH2 0x504 JUMPI DUP3 SLOAD PUSH1 0x1 PUSH1 0x1 PUSH1 0xA0 SHL SUB SWAP1 DUP2 AND SWAP3 SWAP1 SWAP2 SWAP1 CALLER DUP5 EQ ISZERO DUP1 PUSH2 0x4F6 JUMPI JUMPDEST PUSH2 0x4E8 JUMPI DUP2 MLOAD PUSH4 0x50EC99A7 PUSH1 0xE0 SHL DUP2 MSTORE PUSH1 0x20 SWAP1 DUP2 DUP2 DUP5 DUP2 DUP10 GAS STATICCALL SWAP1 DUP2 ISZERO PUSH2 0x4DE JUMPI DUP8 SWAP2 PUSH2 0x4C1 JUMPI JUMPDEST POP DUP4 MLOAD PUSH4 0x6F9F44C5 PUSH1 0xE0 SHL DUP2 MSTORE SWAP1 DUP3 DUP3 DUP6 DUP2 DUP11 GAS STATICCALL SWAP2 DUP3 ISZERO PUSH2 0x4B7 JUMPI DUP9 SWAP3 PUSH2 0x498 JUMPI JUMPDEST POP DUP5 MLOAD PUSH4 0x697B932D PUSH1 0xE1 SHL DUP2 MSTORE SWAP3 DUP1 DUP5 DUP7 DUP2 DUP12 GAS STATICCALL SWAP4 DUP5 ISZERO PUSH2 0x48E JUMPI DUP10 SWAP5 PUSH2 0x46F JUMPI JUMPDEST POP DUP6 MLOAD PUSH4 0x6209EC2D PUSH1 0xE0 SHL DUP2 MSTORE SWAP8 DUP2 DUP10 DUP8 DUP2 DUP5 GAS STATICCALL SWAP9 DUP10 ISZERO PUSH2 0x465 JUMPI DUP11 SWAP10 PUSH2 0x440 JUMPI JUMPDEST POP SWAP1 DUP1 DUP7 SWAP3 DUP9 MLOAD SWAP4 DUP5 DUP1 SWAP3 PUSH4 0x5C8A7687 PUSH1 0xE0 SHL DUP3 MSTORE GAS STATICCALL SWAP7 DUP8 ISZERO PUSH2 0x437 JUMPI POP SWAP2 DUP8 SWAP9 SWAP4 SWAP2 DUP9 SWAP6 SWAP4 DUP12 SWAP9 PUSH2 0x3FB JUMPI JUMPDEST POP POP DUP5 SWAP3 SWAP2 DUP4 DUP1 SWAP3 AND DUP1 ISZERO ISZERO DUP1 PUSH2 0x3ED JUMPI JUMPDEST PUSH2 0x3D4 JUMPI JUMPDEST POP AND DUP1 ISZERO ISZERO DUP1 PUSH2 0x3C6 JUMPI JUMPDEST DUP1 PUSH2 0x3BE JUMPI JUMPDEST PUSH2 0x3A5 JUMPI JUMPDEST POP AND DUP1 ISZERO ISZERO DUP1 PUSH2 0x397 JUMPI JUMPDEST DUP1 PUSH2 0x390 JUMPI JUMPDEST PUSH2 0x377 JUMPI JUMPDEST POP AND DUP1 ISZERO ISZERO DUP1 PUSH2 0x36A JUMPI JUMPDEST DUP1 PUSH2 0x362 JUMPI JUMPDEST PUSH2 0x34C JUMPI JUMPDEST POP POP AND SWAP1 DUP2 ISZERO ISZERO SWAP1 DUP2 PUSH2 0x33D JUMPI JUMPDEST POP DUP1 PUSH2 0x335 JUMPI JUMPDEST PUSH2 0x31F JUMPI POP DUP1 RETURN JUMPDEST PUSH1 0x1 PUSH1 0x1 PUSH1 0x60 SHL SUB PUSH1 0xA0 SHL PUSH1 0x2 SLOAD AND OR PUSH1 0x2 SSTORE DUP1 RETURN JUMPDEST POP PUSH1 0x1 PUSH2 0x317 JUMP JUMPDEST SWAP1 POP PUSH1 0x2 SLOAD AND DUP2 EQ ISZERO CODESIZE PUSH2 0x310 JUMP JUMPDEST DUP2 SLOAD PUSH1 0x1 PUSH1 0x1 PUSH1 0xA0 SHL SUB NOT AND OR SWAP1 SSTORE CODESIZE DUP1 PUSH2 0x302 JUMP JUMPDEST POP PUSH1 0x1 PUSH2 0x2FD JUMP JUMPDEST POP DUP4 DUP3 SLOAD AND DUP2 EQ ISZERO PUSH2 0x2F7 JUMP JUMPDEST PUSH1 0x1 PUSH1 0x1 PUSH1 0x60 SHL SUB PUSH1 0xA0 SHL PUSH1 0x3 SLOAD AND OR PUSH1 0x3 SSTORE CODESIZE PUSH2 0x2EC JUMP JUMPDEST POP DUP8 PUSH2 0x2E7 JUMP JUMPDEST POP DUP3 PUSH1 0x3 SLOAD AND DUP2 EQ ISZERO PUSH2 0x2E1 JUMP JUMPDEST PUSH1 0x1 PUSH1 0x1 PUSH1 0x60 SHL SUB PUSH1 0xA0 SHL PUSH1 0x5 SLOAD AND OR PUSH1 0x5 SSTORE CODESIZE PUSH2 0x2D6 JUMP JUMPDEST POP PUSH1 0x1 PUSH2 0x2D1 JUMP JUMPDEST POP DUP3 PUSH1 0x5 SLOAD AND DUP2 EQ ISZERO PUSH2 0x2CB JUMP JUMPDEST PUSH1 0x1 PUSH1 0x1 PUSH1 0x60 SHL SUB PUSH1 0xA0 SHL PUSH1 0x1 SLOAD AND OR PUSH1 0x1 SSTORE CODESIZE PUSH2 0x2C0 JUMP JUMPDEST POP DUP3 PUSH1 0x1 SLOAD AND DUP2 EQ ISZERO PUSH2 0x2BB JUMP JUMPDEST DUP7 SWAP5 SWAP4 SWAP2 DUP6 SWAP4 SWAP10 POP PUSH2 0x424 SWAP1 DUP3 DUP6 SWAP4 SWAP1 RETURNDATASIZE LT PUSH2 0x430 JUMPI JUMPDEST PUSH2 0x41C DUP2 DUP4 PUSH2 0x26E7 JUMP JUMPDEST DUP2 ADD SWAP1 PUSH2 0x2721 JUMP JUMPDEST SWAP9 SWAP3 POP DUP2 SWAP4 SWAP5 POP PUSH2 0x2A9 JUMP JUMPDEST POP RETURNDATASIZE PUSH2 0x412 JUMP JUMPDEST MLOAD RETURNDATASIZE DUP12 DUP3 RETURNDATACOPY RETURNDATASIZE SWAP1 REVERT JUMPDEST DUP3 SWAP2 SWAP10 POP SWAP2 PUSH2 0x45C DUP8 SWAP4 DUP3 RETURNDATASIZE DUP5 GT PUSH2 0x430 JUMPI PUSH2 0x41C DUP2 DUP4 PUSH2 0x26E7 JUMP JUMPDEST SWAP10 SWAP2 SWAP3 POP PUSH2 0x27B JUMP JUMPDEST DUP8 MLOAD RETURNDATASIZE DUP13 DUP3 RETURNDATACOPY RETURNDATASIZE SWAP1 REVERT JUMPDEST DUP2 PUSH2 0x487 SWAP3 SWAP6 POP RETURNDATASIZE DUP7 GT PUSH2 0x430 JUMPI PUSH2 0x41C DUP2 DUP4 PUSH2 0x26E7 JUMP JUMPDEST SWAP3 CODESIZE PUSH2 0x258 JUMP JUMPDEST DUP7 MLOAD RETURNDATASIZE DUP12 DUP3 RETURNDATACOPY RETURNDATASIZE SWAP1 REVERT JUMPDEST PUSH2 0x4B0 SWAP2 SWAP3 POP DUP4 RETURNDATASIZE DUP6 GT PUSH2 0x430 JUMPI PUSH2 0x41C DUP2 DUP4 PUSH2 0x26E7 JUMP JUMPDEST SWAP1 CODESIZE PUSH2 0x235 JUMP JUMPDEST DUP6 MLOAD RETURNDATASIZE DUP11 DUP3 RETURNDATACOPY RETURNDATASIZE SWAP1 REVERT JUMPDEST PUSH2 0x4D8 SWAP2 POP DUP3 RETURNDATASIZE DUP5 GT PUSH2 0x430 JUMPI PUSH2 0x41C DUP2 DUP4 PUSH2 0x26E7 JUMP JUMPDEST CODESIZE PUSH2 0x212 JUMP JUMPDEST DUP5 MLOAD RETURNDATASIZE DUP10 DUP3 RETURNDATACOPY RETURNDATASIZE SWAP1 REVERT JUMPDEST SWAP1 MLOAD PUSH4 0x48F5C3ED PUSH1 0xE0 SHL DUP2 MSTORE REVERT JUMPDEST POP DUP3 PUSH1 0x6 SLOAD AND CALLER EQ ISZERO PUSH2 0x1EA JUMP JUMPDEST DUP3 DUP1 REVERT JUMPDEST SWAP2 SWAP1 POP CALLVALUE PUSH2 0x504 JUMPI PUSH1 0x20 DUP1 PUSH1 0x3 NOT CALLDATASIZE ADD SLT PUSH2 0x7B4 JUMPI DUP3 CALLDATALOAD SWAP2 PUSH1 0x1 DUP1 PUSH1 0xA0 SHL SUB SWAP4 DUP5 PUSH1 0x5 SLOAD AND DUP3 MLOAD PUSH4 0x2E311507 PUSH1 0xE1 SHL DUP2 MSTORE DUP6 DUP4 DUP3 ADD MSTORE DUP5 DUP2 PUSH1 0x24 DUP2 DUP6 GAS STATICCALL SWAP1 DUP2 ISZERO PUSH2 0x7AA JUMPI DUP9 SWAP2 PUSH2 0x77D JUMPI JUMPDEST POP PUSH1 0x8 DUP2 LT ISZERO PUSH2 0x76A JUMPI PUSH1 0x1 SUB PUSH2 0x75B JUMPI SWAP1 DUP2 DUP8 SWAP5 SWAP4 SWAP3 EXTCODESIZE ISZERO PUSH2 0x74D JUMPI DUP3 MLOAD PUSH4 0x3625B759 PUSH1 0xE2 SHL DUP2 MSTORE DUP3 DUP2 ADD DUP8 SWAP1 MSTORE PUSH1 0x3 PUSH1 0x24 DUP3 ADD MSTORE DUP6 DUP2 PUSH1 0x44 DUP2 DUP4 DUP7 GAS CALL DUP1 ISZERO PUSH2 0x751 JUMPI PUSH2 0x739 JUMPI JUMPDEST POP PUSH1 0x24 SWAP7 PUSH2 0x5AA PUSH2 0x29B9 JUMP JUMPDEST SWAP2 DUP6 DUP3 PUSH1 0x2 SLOAD AND DUP7 MLOAD SWAP11 DUP12 DUP1 SWAP3 PUSH4 0x2B956FF7 PUSH1 0xE0 SHL DUP3 MSTORE DUP7 DUP9 AND DUP10 DUP4 ADD MSTORE GAS STATICCALL SWAP9 DUP10 ISZERO PUSH2 0x6FA JUMPI DUP8 SWAP10 PUSH2 0x704 JUMPI JUMPDEST POP DUP6 PUSH1 0x24 SWAP2 DUP10 DUP10 MSTORE PUSH1 0xA DUP3 MSTORE DUP11 PUSH1 0x2 DUP9 DUP12 KECCAK256 ADD SSTORE PUSH2 0x5F6 TIMESTAMP DUP12 PUSH2 0x2A12 JUMP JUMPDEST DUP7 MLOAD SWAP3 DUP4 DUP1 SWAP3 PUSH4 0xE757223 PUSH1 0xE4 SHL DUP3 MSTORE DUP13 DUP10 DUP4 ADD MSTORE GAS STATICCALL SWAP6 DUP7 ISZERO PUSH2 0x6FA JUMPI DUP8 SWAP7 PUSH2 0x6C2 JUMPI JUMPDEST POP POP DUP3 SLOAD AND DUP1 EXTCODESIZE ISZERO PUSH2 0x6BE JUMPI DUP4 MLOAD PUSH4 0x550EA89D PUSH1 0xE1 SHL DUP2 MSTORE SWAP3 DUP4 ADD DUP8 DUP2 MSTORE PUSH1 0x1 PUSH1 0x1 PUSH1 0xA0 SHL SUB SWAP1 SWAP3 AND PUSH1 0x20 DUP4 ADD MSTORE PUSH1 0x40 DUP3 ADD SWAP5 SWAP1 SWAP5 MSTORE PUSH1 0x60 DUP2 ADD DUP8 SWAP1 MSTORE SWAP1 SWAP3 DUP5 SWAP2 DUP5 SWAP2 SWAP1 DUP3 SWAP1 DUP5 SWAP1 DUP3 SWAP1 PUSH1 0x80 ADD SUB SWAP3 GAS CALL SWAP1 DUP2 ISZERO PUSH2 0x6B5 JUMPI POP PUSH2 0x6A1 JUMPI JUMPDEST POP DUP1 PUSH32 0x51F8C9B892F93CAC3C044F50C1A190FF240D8951B71CF35D783428FCDAB3384E SWAP2 LOG3 DUP1 RETURN JUMPDEST PUSH2 0x6AA SWAP1 PUSH2 0x26BD JUMP JUMPDEST PUSH2 0x504 JUMPI DUP3 CODESIZE PUSH2 0x679 JUMP JUMPDEST MLOAD RETURNDATASIZE DUP5 DUP3 RETURNDATACOPY RETURNDATASIZE SWAP1 REVERT JUMPDEST DUP6 DUP1 REVERT JUMPDEST DUP2 SWAP8 POP DUP1 SWAP3 SWAP7 POP RETURNDATASIZE DUP4 GT PUSH2 0x6F3 JUMPI JUMPDEST PUSH2 0x6DB DUP2 DUP4 PUSH2 0x26E7 JUMP JUMPDEST DUP2 ADD SUB SLT PUSH2 0x6EE JUMPI DUP8 SWAP5 MLOAD SWAP4 CODESIZE DUP1 PUSH2 0x61B JUMP JUMPDEST PUSH1 0x0 DUP1 REVERT JUMPDEST POP RETURNDATASIZE PUSH2 0x6D1 JUMP JUMPDEST DUP6 MLOAD RETURNDATASIZE DUP10 DUP3 RETURNDATACOPY RETURNDATASIZE SWAP1 REVERT JUMPDEST DUP7 DUP1 SWAP3 SWAP11 POP DUP2 SWAP9 POP RETURNDATASIZE DUP4 GT PUSH2 0x732 JUMPI JUMPDEST PUSH2 0x71E DUP2 DUP4 PUSH2 0x26E7 JUMP JUMPDEST DUP2 ADD SUB SLT PUSH2 0x6EE JUMPI SWAP5 MLOAD SWAP7 DUP9 SWAP6 SWAP1 DUP6 PUSH2 0x5D8 JUMP JUMPDEST POP RETURNDATASIZE PUSH2 0x714 JUMP JUMPDEST PUSH2 0x743 DUP7 SWAP2 PUSH2 0x26BD JUMP JUMPDEST PUSH2 0x74D JUMPI CODESIZE PUSH2 0x59E JUMP JUMPDEST DUP5 DUP1 REVERT JUMPDEST DUP5 MLOAD RETURNDATASIZE DUP9 DUP3 RETURNDATACOPY RETURNDATASIZE SWAP1 REVERT JUMPDEST POP SWAP1 MLOAD PUSH4 0x7A92F19 PUSH1 0xE5 SHL DUP2 MSTORE REVERT JUMPDEST PUSH4 0x4E487B71 PUSH1 0xE0 SHL DUP9 MSTORE PUSH1 0x21 DUP4 MSTORE PUSH1 0x24 DUP9 REVERT JUMPDEST PUSH2 0x79D SWAP2 POP DUP6 RETURNDATASIZE DUP8 GT PUSH2 0x7A3 JUMPI JUMPDEST PUSH2 0x795 DUP2 DUP4 PUSH2 0x26E7 JUMP JUMPDEST DUP2 ADD SWAP1 PUSH2 0x2740 JUMP JUMPDEST CODESIZE PUSH2 0x554 JUMP JUMPDEST POP RETURNDATASIZE PUSH2 0x78B JUMP JUMPDEST DUP5 MLOAD RETURNDATASIZE DUP11 DUP3 RETURNDATACOPY RETURNDATASIZE SWAP1 REVERT JUMPDEST DUP4 DUP1 REVERT JUMPDEST POP POP CALLVALUE PUSH2 0x197 JUMPI DUP2 PUSH1 0x3 NOT CALLDATASIZE ADD SLT PUSH2 0x197 JUMPI PUSH1 0x20 SWAP1 PUSH1 0x7 SLOAD SWAP1 MLOAD SWAP1 DUP2 MSTORE RETURN JUMPDEST SWAP1 POP CALLVALUE PUSH2 0x504 JUMPI PUSH1 0x20 CALLDATASIZE PUSH1 0x3 NOT ADD SLT PUSH2 0x504 JUMPI DUP2 PUSH1 0x20 SWAP4 PUSH1 0x5 SWAP3 CALLDATALOAD DUP2 MSTORE PUSH1 0xA DUP6 MSTORE KECCAK256 ADD SLOAD SWAP1 MLOAD SWAP1 DUP2 MSTORE RETURN JUMPDEST SWAP2 SWAP1 POP CALLVALUE PUSH2 0x504 JUMPI PUSH1 0x20 DUP1 PUSH1 0x3 NOT CALLDATASIZE ADD SLT PUSH2 0x7B4 JUMPI PUSH1 0x5 SLOAD DUP3 MLOAD PUSH4 0x2E311507 PUSH1 0xE1 SHL DUP2 MSTORE DUP5 CALLDATALOAD DUP2 DUP7 ADD DUP2 SWAP1 MSTORE SWAP5 PUSH1 0x1 PUSH1 0x1 PUSH1 0xA0 SHL SUB SWAP3 DUP4 AND SWAP3 SWAP1 SWAP2 DUP5 DUP2 PUSH1 0x24 DUP2 DUP8 GAS STATICCALL SWAP1 DUP2 ISZERO PUSH2 0x9D7 JUMPI DUP9 SWAP2 PUSH2 0xA56 JUMPI JUMPDEST POP PUSH1 0x8 DUP2 LT ISZERO PUSH2 0x76A JUMPI DUP3 SUB PUSH2 0xA47 JUMPI SWAP1 DUP7 SWAP3 SWAP2 PUSH2 0x870 DUP8 PUSH2 0x2758 JUMP JUMPDEST PUSH2 0x8FC JUMPI JUMPDEST POP DUP6 DUP4 MSTORE PUSH1 0xA DUP5 MSTORE DUP5 DUP4 KECCAK256 PUSH1 0x6 ADD DUP1 SLOAD PUSH1 0xFF NOT AND PUSH1 0x1 OR SWAP1 SSTORE DUP2 EXTCODESIZE ISZERO PUSH2 0x504 JUMPI DUP6 PUSH1 0x44 DUP5 SWAP3 DUP4 DUP9 MLOAD SWAP6 DUP7 SWAP5 DUP6 SWAP4 PUSH4 0x3625B759 PUSH1 0xE2 SHL DUP6 MSTORE DUP5 ADD MSTORE PUSH1 0x6 PUSH1 0x24 DUP5 ADD MSTORE GAS CALL DUP1 ISZERO PUSH2 0x8F2 JUMPI PUSH2 0x8DE JUMPI JUMPDEST POP POP PUSH1 0x0 DUP1 MLOAD PUSH1 0x20 PUSH2 0x2A5F DUP4 CODECOPY DUP2 MLOAD SWAP2 MSTORE SWAP2 MLOAD PUSH1 0x1 DUP2 MSTORE LOG2 DUP1 RETURN JUMPDEST PUSH2 0x8E7 SWAP1 PUSH2 0x26BD JUMP JUMPDEST PUSH2 0x7B4 JUMPI DUP4 CODESIZE PUSH2 0x8C3 JUMP JUMPDEST DUP5 MLOAD RETURNDATASIZE DUP5 DUP3 RETURNDATACOPY RETURNDATASIZE SWAP1 REVERT JUMPDEST DUP1 SWAP2 SWAP3 SWAP4 POP PUSH1 0x2 SLOAD AND DUP5 DUP3 PUSH1 0x24 PUSH2 0x911 PUSH2 0x29B9 JUMP JUMPDEST DUP10 MLOAD SWAP5 DUP6 SWAP4 DUP5 SWAP3 PUSH4 0x2B956FF7 PUSH1 0xE0 SHL DUP5 MSTORE AND DUP9 DUP4 ADD MSTORE GAS STATICCALL SWAP1 DUP2 ISZERO PUSH2 0x9D7 JUMPI DUP9 SWAP2 PUSH2 0xA1A JUMPI JUMPDEST POP DUP6 MLOAD PUSH4 0xFE096DD7 PUSH1 0xE0 SHL DUP2 MSTORE DUP4 DUP2 ADD DUP9 SWAP1 MSTORE SWAP1 DUP6 DUP3 PUSH1 0x24 DUP2 DUP9 GAS STATICCALL SWAP2 DUP3 ISZERO PUSH2 0xA10 JUMPI DUP10 SWAP3 PUSH2 0x9E1 JUMPI JUMPDEST POP EQ ISZERO SWAP1 DUP2 PUSH2 0x987 JUMPI JUMPDEST POP PUSH2 0x979 JUMPI SWAP1 DUP6 SWAP2 CODESIZE PUSH2 0x875 JUMP JUMPDEST DUP4 MLOAD PUSH4 0x48F5C3ED PUSH1 0xE0 SHL DUP2 MSTORE REVERT JUMPDEST SWAP1 POP DUP2 DUP5 DUP3 DUP10 SLOAD AND DUP8 MLOAD SWAP3 DUP4 DUP1 SWAP3 PUSH4 0x4162169F PUSH1 0xE0 SHL DUP3 MSTORE GAS STATICCALL SWAP1 DUP2 ISZERO PUSH2 0x9D7 JUMPI DUP9 SWAP2 PUSH2 0x9BA JUMPI JUMPDEST POP AND CALLER EQ ISZERO CODESIZE PUSH2 0x96B JUMP JUMPDEST PUSH2 0x9D1 SWAP2 POP DUP6 RETURNDATASIZE DUP8 GT PUSH2 0x430 JUMPI PUSH2 0x41C DUP2 DUP4 PUSH2 0x26E7 JUMP JUMPDEST CODESIZE PUSH2 0x9AF JUMP JUMPDEST DUP7 MLOAD RETURNDATASIZE DUP11 DUP3 RETURNDATACOPY RETURNDATASIZE SWAP1 REVERT JUMPDEST SWAP1 SWAP2 POP DUP6 DUP2 DUP2 RETURNDATASIZE DUP4 GT PUSH2 0xA09 JUMPI JUMPDEST PUSH2 0x9F9 DUP2 DUP4 PUSH2 0x26E7 JUMP JUMPDEST DUP2 ADD SUB SLT PUSH2 0x6EE JUMPI MLOAD SWAP1 CODESIZE PUSH2 0x961 JUMP JUMPDEST POP RETURNDATASIZE PUSH2 0x9EF JUMP JUMPDEST DUP8 MLOAD RETURNDATASIZE DUP12 DUP3 RETURNDATACOPY RETURNDATASIZE SWAP1 REVERT JUMPDEST SWAP1 POP DUP5 DUP2 DUP2 RETURNDATASIZE DUP4 GT PUSH2 0xA40 JUMPI JUMPDEST PUSH2 0xA31 DUP2 DUP4 PUSH2 0x26E7 JUMP JUMPDEST DUP2 ADD SUB SLT PUSH2 0x6EE JUMPI MLOAD CODESIZE PUSH2 0x937 JUMP JUMPDEST POP RETURNDATASIZE PUSH2 0xA27 JUMP JUMPDEST POP DUP4 MLOAD PUSH4 0x7A92F19 PUSH1 0xE5 SHL DUP2 MSTORE REVERT JUMPDEST PUSH2 0xA6D SWAP2 POP DUP6 RETURNDATASIZE DUP8 GT PUSH2 0x7A3 JUMPI PUSH2 0x795 DUP2 DUP4 PUSH2 0x26E7 JUMP JUMPDEST CODESIZE PUSH2 0x853 JUMP JUMPDEST SWAP1 POP CALLVALUE PUSH2 0x504 JUMPI DUP2 PUSH1 0x3 NOT CALLDATASIZE ADD SLT PUSH2 0x504 JUMPI DUP1 CALLDATALOAD SWAP3 PUSH1 0x24 DUP1 CALLDATALOAD SWAP5 PUSH8 0xFFFFFFFFFFFFFFFF SWAP2 DUP3 DUP8 GT PUSH2 0x7B4 JUMPI CALLDATASIZE PUSH1 0x23 DUP9 ADD SLT ISZERO PUSH2 0x7B4 JUMPI DUP7 DUP6 ADD CALLDATALOAD SWAP3 DUP4 GT PUSH2 0xCA1 JUMPI DUP6 MLOAD PUSH1 0x20 SWAP8 PUSH1 0x1F NOT SWAP5 SWAP1 PUSH2 0xACF PUSH1 0x1F DUP4 ADD DUP8 AND DUP12 ADD DUP5 PUSH2 0x26E7 JUMP JUMPDEST DUP2 DUP4 MSTORE CALLDATASIZE DUP5 DUP4 DUP4 ADD ADD GT PUSH2 0xC9D JUMPI DUP2 DUP8 SWAP3 DUP6 DUP13 SWAP4 ADD DUP4 DUP7 ADD CALLDATACOPY DUP4 ADD ADD MSTORE PUSH1 0x1 DUP1 PUSH1 0xA0 SHL SUB SWAP1 DUP9 DUP3 PUSH1 0x1 SLOAD AND CALLER SWAP7 CALLER ISZERO PUSH2 0xBEF JUMPI JUMPDEST POP POP PUSH1 0x2 SLOAD DUP10 MLOAD PUSH4 0x2B956FF7 PUSH1 0xE0 SHL DUP2 MSTORE SWAP7 DUP5 AND DUP10 DUP9 ADD MSTORE SWAP1 SWAP2 POP DUP6 SWAP1 DUP5 SWAP1 DUP3 SWAP1 DUP6 AND GAS STATICCALL SWAP4 DUP5 ISZERO PUSH2 0xBE5 JUMPI SWAP1 DUP9 SWAP3 SWAP2 DUP7 SWAP6 PUSH2 0xBB2 JUMPI JUMPDEST POP PUSH1 0x5 SLOAD DUP9 MLOAD PUSH4 0xE757223 PUSH1 0xE4 SHL DUP2 MSTORE SWAP8 DUP9 ADD DUP6 SWAP1 MSTORE DUP8 SWAP3 SWAP2 DUP4 SWAP2 AND GAS STATICCALL SWAP3 DUP4 ISZERO PUSH2 0xBA7 JUMPI SWAP3 PUSH2 0xB76 JUMPI JUMPDEST PUSH2 0xB6F SWAP4 POP PUSH2 0x2936 JUMP JUMPDEST SWAP1 MLOAD SWAP1 DUP2 MSTORE RETURN JUMPDEST SWAP2 POP DUP5 DUP4 DUP2 RETURNDATASIZE DUP4 GT PUSH2 0xBA0 JUMPI JUMPDEST PUSH2 0xB8D DUP2 DUP4 PUSH2 0x26E7 JUMP JUMPDEST DUP2 ADD SUB SLT PUSH2 0x6EE JUMPI PUSH2 0xB6F SWAP3 MLOAD SWAP2 PUSH2 0xB65 JUMP JUMPDEST POP RETURNDATASIZE PUSH2 0xB83 JUMP JUMPDEST DUP6 MLOAD SWAP1 RETURNDATASIZE SWAP1 DUP3 RETURNDATACOPY RETURNDATASIZE SWAP1 REVERT JUMPDEST DUP4 DUP2 SWAP4 SWAP5 SWAP3 SWAP7 POP RETURNDATASIZE DUP4 GT PUSH2 0xBDE JUMPI JUMPDEST PUSH2 0xBCB DUP2 DUP4 PUSH2 0x26E7 JUMP JUMPDEST DUP2 ADD SUB SLT PUSH2 0x6EE JUMPI MLOAD SWAP3 DUP8 SWAP2 SWAP1 DUP4 PUSH2 0xB3A JUMP JUMPDEST POP RETURNDATASIZE PUSH2 0xBC1 JUMP JUMPDEST DUP8 MLOAD RETURNDATASIZE DUP8 DUP3 RETURNDATACOPY RETURNDATASIZE SWAP1 REVERT JUMPDEST DUP11 MLOAD PUSH4 0x19510D67 PUSH1 0xE0 SHL DUP2 MSTORE DUP11 DUP2 ADD DUP5 SWAP1 MSTORE DUP5 MLOAD DUP8 DUP3 ADD DUP2 SWAP1 MSTORE SWAP1 SWAP9 POP SWAP3 SWAP4 DUP9 SWAP4 SWAP1 DUP6 DUP12 JUMPDEST DUP4 DUP2 LT PUSH2 0xC85 JUMPI POP POP POP DUP4 DUP1 SWAP3 PUSH1 0x1F DUP4 DUP14 PUSH1 0x44 DUP1 SWAP7 DUP7 ADD ADD MSTORE ADD AND DUP2 ADD SUB ADD SWAP2 GAS STATICCALL SWAP4 DUP5 ISZERO PUSH2 0xBE5 JUMPI DUP6 SWAP5 PUSH2 0xC66 JUMPI JUMPDEST POP DUP1 DUP5 AND ISZERO PUSH2 0xC56 JUMPI CODESIZE DUP9 DUP2 DUP1 PUSH2 0xB03 JUMP JUMPDEST DUP7 MLOAD PUSH4 0xC1AB6DC1 PUSH1 0xE0 SHL DUP2 MSTORE DUP7 SWAP1 REVERT JUMPDEST PUSH2 0xC7E SWAP2 SWAP5 POP DUP9 RETURNDATASIZE DUP11 GT PUSH2 0x430 JUMPI PUSH2 0x41C DUP2 DUP4 PUSH2 0x26E7 JUMP JUMPDEST SWAP3 CODESIZE PUSH2 0xC44 JUMP JUMPDEST DUP3 DUP2 ADD DUP3 ADD MLOAD DUP13 DUP3 ADD PUSH1 0x44 ADD MSTORE DUP12 SWAP7 POP DUP8 SWAP2 ADD PUSH2 0xC14 JUMP JUMPDEST DUP7 DUP1 REVERT JUMPDEST PUSH4 0x4E487B71 PUSH1 0xE0 SHL DUP5 MSTORE PUSH1 0x41 DUP6 MSTORE DUP4 REVERT JUMPDEST DUP4 SWAP2 POP CALLVALUE PUSH2 0x197 JUMPI PUSH1 0x20 SWAP3 DUP4 PUSH1 0x3 NOT CALLDATASIZE ADD SLT PUSH2 0x504 JUMPI PUSH1 0x5 SLOAD DUP2 MLOAD PUSH4 0x2E311507 PUSH1 0xE1 SHL DUP2 MSTORE DUP4 CALLDATALOAD DUP2 DUP6 ADD DUP2 SWAP1 MSTORE PUSH1 0x24 SWAP5 SWAP3 SWAP1 SWAP2 PUSH1 0x1 PUSH1 0x1 PUSH1 0xA0 SHL SUB SWAP2 DUP3 AND SWAP1 DUP9 DUP2 DUP9 DUP2 DUP6 GAS STATICCALL SWAP1 DUP2 ISZERO PUSH2 0x9D7 JUMPI DUP9 SWAP2 PUSH2 0xF39 JUMPI JUMPDEST POP PUSH1 0x8 DUP2 LT ISZERO PUSH2 0xF27 JUMPI PUSH1 0x3 SUB PUSH2 0xF17 JUMPI DUP3 DUP8 MSTORE PUSH1 0xA DUP9 MSTORE PUSH1 0xFF PUSH1 0x6 DUP7 DUP10 KECCAK256 ADD SLOAD AND PUSH2 0xF07 JUMPI PUSH2 0xD34 PUSH2 0x29B9 JUMP JUMPDEST PUSH1 0x2 SLOAD DUP7 MLOAD PUSH4 0x2B956FF7 PUSH1 0xE0 SHL DUP2 MSTORE SWAP2 DUP5 AND DUP7 DUP4 ADD MSTORE DUP10 SWAP1 DUP3 SWAP1 DUP10 SWAP1 DUP3 SWAP1 DUP8 AND GAS STATICCALL SWAP1 DUP2 ISZERO PUSH2 0x9D7 JUMPI DUP9 SWAP2 PUSH2 0xEDA JUMPI JUMPDEST POP DUP4 DUP9 MSTORE PUSH1 0xA DUP10 MSTORE PUSH1 0x2 DUP7 DUP10 KECCAK256 ADD SLOAD DUP2 SUB PUSH2 0xE11 JUMPI JUMPDEST POP DUP7 SWAP8 POP DUP1 EXTCODESIZE ISZERO PUSH2 0xC9D JUMPI DUP7 DUP1 SWAP2 PUSH1 0x44 DUP8 MLOAD DUP1 SWAP5 DUP2 SWAP4 PUSH4 0x3625B759 PUSH1 0xE2 SHL DUP4 MSTORE DUP9 DUP11 DUP5 ADD MSTORE PUSH1 0x5 DUP13 DUP5 ADD MSTORE GAS CALL DUP1 ISZERO PUSH2 0x6FA JUMPI SWAP1 DUP8 SWAP2 PUSH2 0xDFD JUMPI JUMPDEST POP POP DUP3 SLOAD AND SWAP4 DUP5 EXTCODESIZE ISZERO PUSH2 0x6BE JUMPI DUP6 SWAP3 DUP4 DUP6 MLOAD SWAP7 DUP8 SWAP5 DUP6 SWAP4 PUSH4 0x20870CC3 PUSH1 0xE2 SHL DUP6 MSTORE DUP5 ADD MSTORE GAS CALL SWAP1 DUP2 ISZERO PUSH2 0x6B5 JUMPI POP PUSH2 0xDEA JUMPI POP RETURN JUMPDEST PUSH2 0xDF3 SWAP1 PUSH2 0x26BD JUMP JUMPDEST PUSH2 0xDFA JUMPI DUP1 RETURN JUMPDEST DUP1 REVERT JUMPDEST PUSH2 0xE06 SWAP1 PUSH2 0x26BD JUMP JUMPDEST PUSH2 0x6BE JUMPI DUP6 DUP9 PUSH2 0xDB5 JUMP JUMPDEST PUSH2 0xE1A DUP5 PUSH2 0x2819 JUMP JUMPDEST PUSH2 0xECA JUMPI DUP8 SWAP9 DUP7 MLOAD PUSH4 0xFE096DD7 PUSH1 0xE0 SHL DUP2 MSTORE DUP6 DUP8 DUP3 ADD MSTORE DUP2 DUP2 DUP11 DUP2 DUP8 GAS STATICCALL SWAP1 DUP2 ISZERO PUSH2 0xEC0 JUMPI DUP11 SWAP2 PUSH2 0xE8F JUMPI JUMPDEST POP DUP3 SUB PUSH2 0xE54 JUMPI JUMPDEST POP PUSH2 0xD7A JUMP JUMPDEST PUSH1 0xA SWAP1 DUP6 DUP11 MSTORE MSTORE DUP1 PUSH1 0x3 DUP8 DUP11 KECCAK256 ADD SSTORE DUP4 PUSH32 0xFAF3DCFA2576C4A3A6B997B4D49715BE99ABE24CE77E72F779C2D5574EB9BED8 DUP10 DUP1 LOG3 DUP9 DUP1 PUSH2 0xE4E JUMP JUMPDEST DUP1 SWAP11 POP DUP3 DUP1 SWAP3 POP RETURNDATASIZE DUP4 GT PUSH2 0xEB9 JUMPI JUMPDEST PUSH2 0xEA8 DUP2 DUP4 PUSH2 0x26E7 JUMP JUMPDEST DUP2 ADD SUB SLT PUSH2 0x6EE JUMPI DUP10 SWAP9 MLOAD DUP12 PUSH2 0xE46 JUMP JUMPDEST POP RETURNDATASIZE PUSH2 0xE9E JUMP JUMPDEST DUP9 MLOAD RETURNDATASIZE DUP13 DUP3 RETURNDATACOPY RETURNDATASIZE SWAP1 REVERT JUMPDEST DUP6 MLOAD PUSH4 0x4E1FC47D PUSH1 0xE1 SHL DUP2 MSTORE DUP6 SWAP1 REVERT JUMPDEST SWAP1 POP DUP9 DUP2 DUP2 RETURNDATASIZE DUP4 GT PUSH2 0xF00 JUMPI JUMPDEST PUSH2 0xEF1 DUP2 DUP4 PUSH2 0x26E7 JUMP JUMPDEST DUP2 ADD SUB SLT PUSH2 0x6EE JUMPI MLOAD DUP10 PUSH2 0xD64 JUMP JUMPDEST POP RETURNDATASIZE PUSH2 0xEE7 JUMP JUMPDEST DUP5 MLOAD PUSH4 0x4C11573 PUSH1 0xE2 SHL DUP2 MSTORE DUP5 SWAP1 REVERT JUMPDEST DUP5 MLOAD PUSH4 0x7A92F19 PUSH1 0xE5 SHL DUP2 MSTORE DUP5 SWAP1 REVERT JUMPDEST PUSH4 0x4E487B71 PUSH1 0xE0 SHL DUP9 MSTORE PUSH1 0x21 DUP6 MSTORE DUP7 DUP9 REVERT JUMPDEST PUSH2 0xF50 SWAP2 POP DUP10 RETURNDATASIZE DUP12 GT PUSH2 0x7A3 JUMPI PUSH2 0x795 DUP2 DUP4 PUSH2 0x26E7 JUMP JUMPDEST DUP10 PUSH2 0xD06 JUMP JUMPDEST SWAP1 POP CALLVALUE PUSH2 0x504 JUMPI PUSH1 0x20 CALLDATASIZE PUSH1 0x3 NOT ADD SLT PUSH2 0x504 JUMPI PUSH1 0x6 DUP3 PUSH1 0x20 SWAP5 PUSH1 0xFF SWAP4 CALLDATALOAD DUP2 MSTORE PUSH1 0xA DUP7 MSTORE KECCAK256 ADD SLOAD AND SWAP1 MLOAD SWAP1 ISZERO ISZERO DUP2 MSTORE RETURN JUMPDEST SWAP1 POP CALLVALUE PUSH2 0x504 JUMPI PUSH1 0x20 CALLDATASIZE PUSH1 0x3 NOT ADD SLT PUSH2 0x504 JUMPI DUP2 PUSH1 0x20 SWAP4 DUP3 CALLDATALOAD DUP2 MSTORE PUSH1 0xA DUP6 MSTORE KECCAK256 ADD SLOAD SWAP1 MLOAD SWAP1 DUP2 MSTORE RETURN JUMPDEST DUP3 DUP5 CALLVALUE PUSH2 0xDFA JUMPI PUSH1 0x20 SWAP3 DUP4 PUSH1 0x3 NOT CALLDATASIZE ADD SLT PUSH2 0x197 JUMPI DUP2 SLOAD DUP4 MLOAD PUSH4 0x103864A3 PUSH1 0xE1 SHL DUP2 MSTORE CALLER DUP4 DUP3 ADD MSTORE SWAP1 DUP6 SWAP1 DUP3 SWAP1 PUSH1 0x24 SWAP1 DUP3 SWAP1 PUSH1 0x1 PUSH1 0x1 PUSH1 0xA0 SHL SUB AND GAS STATICCALL SWAP1 DUP2 ISZERO PUSH2 0x1050 JUMPI DUP4 SWAP2 PUSH2 0x1023 JUMPI JUMPDEST POP ISZERO PUSH2 0x1015 JUMPI CALLDATALOAD DUP2 MSTORE PUSH1 0xA DUP4 MSTORE DUP2 SWAP1 KECCAK256 PUSH1 0x1 ADD SLOAD SWAP1 MLOAD SWAP1 DUP2 MSTORE RETURN JUMPDEST DUP3 MLOAD PUSH4 0x6A7599F PUSH1 0xE4 SHL DUP2 MSTORE REVERT JUMPDEST PUSH2 0x1043 SWAP2 POP DUP6 RETURNDATASIZE DUP8 GT PUSH2 0x1049 JUMPI JUMPDEST PUSH2 0x103B DUP2 DUP4 PUSH2 0x26E7 JUMP JUMPDEST DUP2 ADD SWAP1 PUSH2 0x2709 JUMP JUMPDEST DUP6 PUSH2 0xFFA JUMP JUMPDEST POP RETURNDATASIZE PUSH2 0x1031 JUMP JUMPDEST DUP5 MLOAD RETURNDATASIZE DUP6 DUP3 RETURNDATACOPY RETURNDATASIZE SWAP1 REVERT JUMPDEST SWAP2 SWAP1 POP CALLVALUE PUSH2 0x504 JUMPI PUSH1 0x20 DUP1 PUSH1 0x3 NOT CALLDATASIZE ADD SLT PUSH2 0x7B4 JUMPI PUSH1 0x5 SLOAD DUP3 MLOAD PUSH4 0x2E311507 PUSH1 0xE1 SHL DUP2 MSTORE DUP5 CALLDATALOAD DUP2 DUP7 ADD DUP2 SWAP1 MSTORE SWAP5 SWAP2 PUSH1 0x1 PUSH1 0x1 PUSH1 0xA0 SHL SUB SWAP1 DUP2 AND SWAP2 PUSH1 0x24 SWAP2 SWAP1 DUP6 DUP2 DUP5 DUP2 DUP8 GAS STATICCALL SWAP1 DUP2 ISZERO PUSH2 0xA10 JUMPI DUP10 SWAP2 PUSH2 0x12C1 JUMPI JUMPDEST POP PUSH1 0x8 DUP2 LT ISZERO PUSH2 0x12AF JUMPI PUSH1 0x3 SUB PUSH2 0x129F JUMPI DUP1 PUSH1 0x2 SLOAD AND DUP6 DUP3 DUP5 PUSH2 0x10CE PUSH2 0x29B9 JUMP JUMPDEST DUP11 MLOAD SWAP5 DUP6 SWAP4 DUP5 SWAP3 PUSH4 0x2B956FF7 PUSH1 0xE0 SHL DUP5 MSTORE AND DUP11 DUP4 ADD MSTORE GAS STATICCALL SWAP1 DUP2 ISZERO PUSH2 0xA10 JUMPI DUP10 SWAP2 PUSH2 0x1272 JUMPI JUMPDEST POP DUP8 DUP10 MSTORE PUSH1 0xA DUP7 MSTORE PUSH1 0x2 DUP8 DUP11 KECCAK256 ADD SLOAD SUB PUSH2 0x1262 JUMPI DUP7 DUP9 MSTORE PUSH1 0xA DUP6 MSTORE PUSH1 0xFF PUSH1 0x6 DUP8 DUP11 KECCAK256 ADD SLOAD AND PUSH2 0x1252 JUMPI SWAP1 DUP8 SWAP3 SWAP2 PUSH2 0x112A DUP9 PUSH2 0x2819 JUMP JUMPDEST ISZERO PUSH2 0x11C8 JUMPI POP PUSH2 0x113C PUSH1 0x8 SLOAD TIMESTAMP PUSH2 0x2913 JUMP JUMPDEST SWAP4 DUP8 DUP5 MSTORE PUSH1 0xA DUP7 MSTORE DUP5 PUSH1 0x5 DUP9 DUP7 KECCAK256 ADD SSTORE DUP3 EXTCODESIZE ISZERO PUSH2 0x7B4 JUMPI PUSH1 0x44 DUP5 SWAP3 DUP4 DUP10 MLOAD SWAP6 DUP7 SWAP5 DUP6 SWAP4 PUSH4 0x3625B759 PUSH1 0xE2 SHL DUP6 MSTORE DUP14 DUP3 DUP7 ADD MSTORE DUP5 ADD MSTORE GAS CALL DUP1 ISZERO PUSH2 0x11BE JUMPI PUSH2 0x11AA JUMPI JUMPDEST POP POP PUSH32 0xC52DE02F08BBA719638E1BFCF9CE2622B315527F02946FD49C2F3B9C596D8347 SWAP3 MLOAD SWAP1 DUP2 MSTORE LOG2 DUP1 RETURN JUMPDEST PUSH2 0x11B3 SWAP1 PUSH2 0x26BD JUMP JUMPDEST PUSH2 0x74D JUMPI DUP5 CODESIZE PUSH2 0x117E JUMP JUMPDEST DUP6 MLOAD RETURNDATASIZE DUP5 DUP3 RETURNDATACOPY RETURNDATASIZE SWAP1 REVERT JUMPDEST SWAP2 DUP1 SWAP2 SWAP7 SWAP6 POP SWAP7 SWAP3 SWAP7 EXTCODESIZE ISZERO PUSH2 0xC9D JUMPI DUP7 DUP1 SWAP2 PUSH1 0x44 DUP8 MLOAD DUP1 SWAP5 DUP2 SWAP4 PUSH4 0x3625B759 PUSH1 0xE2 SHL DUP4 MSTORE DUP9 DUP11 DUP5 ADD MSTORE PUSH1 0x5 DUP13 DUP5 ADD MSTORE GAS CALL DUP1 ISZERO PUSH2 0x6FA JUMPI SWAP1 DUP8 SWAP2 PUSH2 0x123E JUMPI JUMPDEST POP POP DUP3 SLOAD AND SWAP4 DUP5 EXTCODESIZE ISZERO PUSH2 0x6BE JUMPI DUP6 SWAP3 DUP4 DUP6 MLOAD SWAP7 DUP8 SWAP5 DUP6 SWAP4 PUSH4 0x20870CC3 PUSH1 0xE2 SHL DUP6 MSTORE DUP5 ADD MSTORE GAS CALL SWAP1 DUP2 ISZERO PUSH2 0x6B5 JUMPI POP PUSH2 0xDEA JUMPI POP POP DUP1 RETURN JUMPDEST PUSH2 0x1247 SWAP1 PUSH2 0x26BD JUMP JUMPDEST PUSH2 0x6BE JUMPI DUP6 CODESIZE PUSH2 0x1207 JUMP JUMPDEST DUP6 MLOAD PUSH4 0x4C11573 PUSH1 0xE2 SHL DUP2 MSTORE DUP5 SWAP1 REVERT JUMPDEST DUP6 MLOAD PUSH4 0x239700BF PUSH1 0xE1 SHL DUP2 MSTORE DUP5 SWAP1 REVERT JUMPDEST SWAP1 POP DUP6 DUP2 DUP2 RETURNDATASIZE DUP4 GT PUSH2 0x1298 JUMPI JUMPDEST PUSH2 0x1289 DUP2 DUP4 PUSH2 0x26E7 JUMP JUMPDEST DUP2 ADD SUB SLT PUSH2 0x6EE JUMPI MLOAD CODESIZE PUSH2 0x10F4 JUMP JUMPDEST POP RETURNDATASIZE PUSH2 0x127F JUMP JUMPDEST DUP6 MLOAD PUSH4 0x7A92F19 PUSH1 0xE5 SHL DUP2 MSTORE DUP5 SWAP1 REVERT JUMPDEST PUSH4 0x4E487B71 PUSH1 0xE0 SHL DUP10 MSTORE PUSH1 0x21 DUP6 MSTORE DUP3 DUP10 REVERT JUMPDEST PUSH2 0x12D8 SWAP2 POP DUP7 RETURNDATASIZE DUP9 GT PUSH2 0x7A3 JUMPI PUSH2 0x795 DUP2 DUP4 PUSH2 0x26E7 JUMP JUMPDEST CODESIZE PUSH2 0x10AD JUMP JUMPDEST SWAP1 POP CALLVALUE PUSH2 0x504 JUMPI DUP2 PUSH1 0x3 NOT CALLDATASIZE ADD SLT PUSH2 0x504 JUMPI DUP1 CALLDATALOAD SWAP2 PUSH1 0x24 CALLDATALOAD SWAP2 DUP3 ISZERO ISZERO DUP1 SWAP4 SUB PUSH2 0x74D JUMPI DUP5 SLOAD DUP3 MLOAD PUSH4 0x103864A3 PUSH1 0xE1 SHL DUP2 MSTORE CALLER DUP4 DUP3 ADD MSTORE SWAP1 PUSH1 0x20 SWAP1 DUP3 SWAP1 PUSH1 0x24 SWAP1 DUP3 SWAP1 PUSH1 0x1 PUSH1 0x1 PUSH1 0xA0 SHL SUB AND GAS STATICCALL SWAP1 DUP2 ISZERO PUSH2 0x13A1 JUMPI DUP7 SWAP2 PUSH2 0x1382 JUMPI JUMPDEST POP ISZERO PUSH2 0x1374 JUMPI POP PUSH1 0x0 DUP1 MLOAD PUSH1 0x20 PUSH2 0x2A5F DUP4 CODECOPY DUP2 MLOAD SWAP2 MSTORE SWAP2 PUSH1 0x20 SWAP2 DUP5 DUP7 MSTORE PUSH1 0xA DUP4 MSTORE PUSH1 0x6 DUP2 DUP8 KECCAK256 ADD PUSH1 0xFF NOT DUP2 SLOAD AND PUSH1 0xFF DUP5 AND OR SWAP1 SSTORE MLOAD SWAP1 DUP2 MSTORE LOG2 DUP1 RETURN JUMPDEST SWAP1 MLOAD PUSH4 0x6A7599F PUSH1 0xE4 SHL DUP2 MSTORE REVERT JUMPDEST PUSH2 0x139B SWAP2 POP PUSH1 0x20 RETURNDATASIZE PUSH1 0x20 GT PUSH2 0x1049 JUMPI PUSH2 0x103B DUP2 DUP4 PUSH2 0x26E7 JUMP JUMPDEST CODESIZE PUSH2 0x1338 JUMP JUMPDEST DUP4 MLOAD RETURNDATASIZE DUP9 DUP3 RETURNDATACOPY RETURNDATASIZE SWAP1 REVERT JUMPDEST DUP3 DUP5 CALLVALUE PUSH2 0xDFA JUMPI PUSH1 0x20 SWAP3 DUP4 PUSH1 0x3 NOT CALLDATASIZE ADD SLT PUSH2 0x197 JUMPI DUP2 SLOAD DUP4 MLOAD PUSH4 0x103864A3 PUSH1 0xE1 SHL DUP2 MSTORE CALLER DUP4 DUP3 ADD MSTORE SWAP1 DUP6 SWAP1 DUP3 SWAP1 PUSH1 0x24 SWAP1 DUP3 SWAP1 PUSH1 0x1 PUSH1 0x1 PUSH1 0xA0 SHL SUB AND GAS STATICCALL SWAP1 DUP2 ISZERO PUSH2 0x1050 JUMPI DUP4 SWAP2 PUSH2 0x1411 JUMPI JUMPDEST POP ISZERO PUSH2 0x1015 JUMPI CALLDATALOAD DUP2 MSTORE PUSH1 0xA DUP4 MSTORE DUP2 SWAP1 KECCAK256 PUSH1 0x2 ADD SLOAD SWAP1 MLOAD SWAP1 DUP2 MSTORE RETURN JUMPDEST PUSH2 0x1428 SWAP2 POP DUP6 RETURNDATASIZE DUP8 GT PUSH2 0x1049 JUMPI PUSH2 0x103B DUP2 DUP4 PUSH2 0x26E7 JUMP JUMPDEST DUP6 PUSH2 0x13F6 JUMP JUMPDEST SWAP1 POP CALLVALUE PUSH2 0x504 JUMPI PUSH1 0x20 CALLDATASIZE PUSH1 0x3 NOT ADD SLT PUSH2 0x504 JUMPI DUP3 SLOAD DUP3 MLOAD PUSH4 0x4162169F PUSH1 0xE0 SHL DUP2 MSTORE DUP3 CALLDATALOAD SWAP4 SWAP2 PUSH1 0x1 PUSH1 0x1 PUSH1 0xA0 SHL SUB SWAP2 SWAP1 PUSH1 0x20 SWAP1 DUP3 SWAP1 DUP7 SWAP1 DUP3 SWAP1 DUP7 AND GAS STATICCALL SWAP1 DUP2 ISZERO PUSH2 0x13A1 JUMPI DUP7 SWAP2 PUSH2 0x14BF JUMPI JUMPDEST POP AND CALLER SUB PUSH2 0x14B2 JUMPI PUSH3 0x13C680 DUP4 LT DUP1 ISZERO PUSH2 0x14A6 JUMPI JUMPDEST PUSH2 0x1499 JUMPI POP POP PUSH1 0x8 SSTORE DUP1 RETURN JUMPDEST MLOAD PUSH4 0x2E8F359 PUSH1 0xE3 SHL DUP2 MSTORE REVERT JUMPDEST POP PUSH3 0x4F1A00 DUP4 GT PUSH2 0x148D JUMP JUMPDEST MLOAD PUSH4 0x27568D2F PUSH1 0xE1 SHL DUP2 MSTORE REVERT JUMPDEST PUSH2 0x14D8 SWAP2 POP PUSH1 0x20 RETURNDATASIZE PUSH1 0x20 GT PUSH2 0x430 JUMPI PUSH2 0x41C DUP2 DUP4 PUSH2 0x26E7 JUMP JUMPDEST CODESIZE PUSH2 0x1478 JUMP JUMPDEST POP POP CALLVALUE PUSH2 0x197 JUMPI DUP2 PUSH1 0x3 NOT CALLDATASIZE ADD SLT PUSH2 0x197 JUMPI MLOAD PUSH32 0x0 PUSH1 0x1 PUSH1 0x1 PUSH1 0xA0 SHL SUB AND DUP2 MSTORE PUSH1 0x20 SWAP1 RETURN JUMPDEST DUP4 SWAP2 POP CALLVALUE PUSH2 0x197 JUMPI PUSH2 0x1533 CALLDATASIZE PUSH2 0x2693 JUMP JUMPDEST SWAP3 SWAP1 PUSH1 0x1 DUP1 PUSH1 0xA0 SHL SUB DUP1 PUSH1 0x5 SLOAD AND SWAP7 DUP1 MLOAD SWAP8 PUSH4 0x2E311507 PUSH1 0xE1 SHL DUP10 MSTORE DUP6 DUP6 DUP11 ADD MSTORE PUSH1 0x20 SWAP5 PUSH1 0x24 SWAP10 DUP7 DUP2 DUP13 DUP2 DUP7 GAS STATICCALL SWAP1 DUP2 ISZERO PUSH2 0x174B JUMPI PUSH1 0x0 SWAP2 PUSH2 0x18C2 JUMPI JUMPDEST POP PUSH1 0x8 DUP2 LT ISZERO PUSH2 0x18AE JUMPI PUSH2 0x18A0 JUMPI PUSH2 0x1586 PUSH2 0x29B9 JUMP JUMPDEST SWAP8 DUP7 DUP6 DUP13 DUP2 PUSH1 0x2 SLOAD AND SWAP12 DUP8 MLOAD SWAP13 DUP14 SWAP4 DUP5 SWAP3 PUSH4 0x2B956FF7 PUSH1 0xE0 SHL DUP5 MSTORE AND DUP8 DUP4 ADD MSTORE GAS STATICCALL SWAP9 DUP10 ISZERO PUSH2 0x174B JUMPI PUSH1 0x0 SWAP10 PUSH2 0x1871 JUMPI JUMPDEST POP DUP5 PUSH1 0x0 SLOAD AND SWAP6 DUP5 MLOAD PUSH4 0x7B9E618D PUSH1 0xE0 SHL DUP2 MSTORE DUP9 DUP2 DUP6 DUP2 DUP12 GAS STATICCALL SWAP1 DUP2 ISZERO PUSH2 0x1800 JUMPI PUSH1 0x0 SWAP2 PUSH2 0x1854 JUMPI JUMPDEST POP DUP1 SWAP8 DUP14 DUP11 DUP13 DUP10 MLOAD SWAP3 DUP4 SWAP2 PUSH4 0xFE096DD7 PUSH1 0xE0 SHL DUP4 MSTORE DUP10 DUP4 ADD MSTORE DUP2 DUP11 GAS STATICCALL SWAP1 DUP2 ISZERO PUSH2 0x1849 JUMPI SWAP2 DUP16 SWAP3 SWAP2 DUP15 DUP14 SWAP4 PUSH1 0x0 SWAP3 PUSH2 0x1814 JUMPI JUMPDEST POP EQ PUSH2 0x1756 JUMPI POP POP POP POP POP POP DUP3 MLOAD PUSH4 0x82862275 PUSH1 0xE0 SHL DUP2 MSTORE DUP8 DUP3 DUP3 ADD MSTORE DUP7 DUP2 DUP13 DUP2 DUP7 GAS STATICCALL SWAP1 DUP2 ISZERO PUSH2 0x174B JUMPI PUSH1 0x0 SWAP2 PUSH2 0x171E JUMPI JUMPDEST POP TIMESTAMP GT ISZERO PUSH2 0x1710 JUMPI DUP7 PUSH1 0x0 MSTORE PUSH1 0xA DUP7 MSTORE DUP8 PUSH1 0x1 DUP5 PUSH1 0x0 KECCAK256 ADD SSTORE PUSH1 0x0 SWAP2 JUMPDEST PUSH3 0x3F480 TIMESTAMP ADD DUP1 TIMESTAMP GT PUSH2 0x16FC JUMPI DUP2 EXTCODESIZE ISZERO PUSH2 0x6EE JUMPI DUP9 SWAP4 DUP6 MLOAD SWAP13 DUP14 SWAP6 DUP7 SWAP6 PUSH4 0x5EE4847 PUSH1 0xE5 SHL DUP8 MSTORE DUP7 ADD MSTORE DUP5 ADD MSTORE PUSH1 0x44 DUP4 ADD PUSH1 0x2 SWAP1 MSTORE PUSH1 0x64 DUP4 ADD MSTORE GAS SWAP3 PUSH1 0x0 PUSH1 0x84 SWAP3 DUP2 SWAP6 CALL SWAP8 DUP9 ISZERO PUSH2 0x16F1 JUMPI PUSH32 0xA264BB34FDF1A1758C3FDC7F52FC198464870751AE58254643A0ED3B3D07013 SWAP6 SWAP7 SWAP8 SWAP9 PUSH2 0x16E2 JUMPI JUMPDEST POP MLOAD SWAP2 AND DUP2 MSTORE LOG3 DUP1 RETURN JUMPDEST PUSH2 0x16EB SWAP1 PUSH2 0x26BD JUMP JUMPDEST DUP9 PUSH2 0x16D8 JUMP JUMPDEST POP MLOAD RETURNDATASIZE PUSH1 0x0 DUP3 RETURNDATACOPY RETURNDATASIZE SWAP1 REVERT JUMPDEST DUP12 PUSH1 0x11 DUP5 PUSH4 0x4E487B71 PUSH1 0xE0 SHL PUSH1 0x0 MSTORE MSTORE PUSH1 0x0 REVERT JUMPDEST DUP3 MLOAD PUSH4 0x4E1FC47D PUSH1 0xE1 SHL DUP2 MSTORE REVERT JUMPDEST SWAP1 POP DUP7 DUP2 DUP2 RETURNDATASIZE DUP4 GT PUSH2 0x1744 JUMPI JUMPDEST PUSH2 0x1735 DUP2 DUP4 PUSH2 0x26E7 JUMP JUMPDEST DUP2 ADD SUB SLT PUSH2 0x6EE JUMPI MLOAD DUP12 PUSH2 0x1646 JUMP JUMPDEST POP RETURNDATASIZE PUSH2 0x172B JUMP JUMPDEST DUP5 MLOAD RETURNDATASIZE PUSH1 0x0 DUP3 RETURNDATACOPY RETURNDATASIZE SWAP1 REVERT JUMPDEST DUP10 DUP1 DUP7 SWAP10 SWAP8 SWAP10 AND SWAP5 AND DUP5 EQ ISZERO DUP1 PUSH2 0x180B JUMPI JUMPDEST PUSH2 0x1777 JUMPI JUMPDEST POP POP POP POP POP PUSH2 0x1663 JUMP JUMPDEST SWAP1 SWAP2 SWAP3 SWAP4 SWAP5 SWAP10 POP DUP8 MLOAD SWAP3 DUP4 DUP1 SWAP3 PUSH4 0x75151B63 PUSH1 0xE0 SHL DUP3 MSTORE DUP7 DUP10 DUP4 ADD MSTORE GAS STATICCALL SWAP1 DUP2 ISZERO PUSH2 0x1800 JUMPI PUSH1 0x0 SWAP2 PUSH2 0x17E3 JUMPI JUMPDEST POP ISZERO PUSH2 0x17D3 JUMPI DUP9 PUSH1 0x0 MSTORE PUSH1 0xA DUP9 MSTORE DUP5 PUSH1 0x0 KECCAK256 SWAP1 PUSH1 0x1 PUSH1 0x1 PUSH1 0x60 SHL SUB PUSH1 0xA0 SHL DUP3 SLOAD AND OR SWAP1 SSTORE SWAP5 DUP12 DUP1 DUP13 DUP10 DUP3 PUSH2 0x176D JUMP JUMPDEST DUP5 MLOAD PUSH4 0x3DD1B305 PUSH1 0xE0 SHL DUP2 MSTORE DUP4 SWAP1 REVERT JUMPDEST PUSH2 0x17FA SWAP2 POP DUP10 RETURNDATASIZE DUP12 GT PUSH2 0x1049 JUMPI PUSH2 0x103B DUP2 DUP4 PUSH2 0x26E7 JUMP JUMPDEST DUP14 PUSH2 0x17A4 JUMP JUMPDEST DUP7 MLOAD RETURNDATASIZE PUSH1 0x0 DUP3 RETURNDATACOPY RETURNDATASIZE SWAP1 REVERT JUMPDEST POP DUP4 ISZERO ISZERO PUSH2 0x1768 JUMP JUMPDEST SWAP4 SWAP3 SWAP5 POP POP POP DUP2 DUP2 RETURNDATASIZE DUP4 GT PUSH2 0x1842 JUMPI JUMPDEST PUSH2 0x182E DUP2 DUP4 PUSH2 0x26E7 JUMP JUMPDEST DUP2 ADD SUB SLT PUSH2 0x6EE JUMPI MLOAD DUP15 SWAP2 DUP12 SWAP2 DUP15 CODESIZE PUSH2 0x1613 JUMP JUMPDEST POP RETURNDATASIZE PUSH2 0x1824 JUMP JUMPDEST DUP9 MLOAD RETURNDATASIZE PUSH1 0x0 DUP3 RETURNDATACOPY RETURNDATASIZE SWAP1 REVERT JUMPDEST PUSH2 0x186B SWAP2 POP DUP10 RETURNDATASIZE DUP12 GT PUSH2 0x430 JUMPI PUSH2 0x41C DUP2 DUP4 PUSH2 0x26E7 JUMP JUMPDEST DUP14 PUSH2 0x15E0 JUMP JUMPDEST SWAP1 SWAP9 DUP8 DUP3 DUP2 RETURNDATASIZE DUP4 GT PUSH2 0x1899 JUMPI JUMPDEST PUSH2 0x1888 DUP2 DUP4 PUSH2 0x26E7 JUMP JUMPDEST DUP2 ADD SUB SLT PUSH2 0xDFA JUMPI POP MLOAD SWAP8 DUP12 PUSH2 0x15B7 JUMP JUMPDEST POP RETURNDATASIZE PUSH2 0x187E JUMP JUMPDEST DUP3 MLOAD PUSH4 0x7A92F19 PUSH1 0xE5 SHL DUP2 MSTORE REVERT JUMPDEST DUP11 PUSH1 0x21 DUP4 PUSH4 0x4E487B71 PUSH1 0xE0 SHL PUSH1 0x0 MSTORE MSTORE PUSH1 0x0 REVERT JUMPDEST PUSH2 0x18D9 SWAP2 POP DUP8 RETURNDATASIZE DUP10 GT PUSH2 0x7A3 JUMPI PUSH2 0x795 DUP2 DUP4 PUSH2 0x26E7 JUMP JUMPDEST DUP12 PUSH2 0x1570 JUMP JUMPDEST SWAP2 SWAP1 POP CALLVALUE PUSH2 0x504 JUMPI PUSH1 0x20 CALLDATASIZE PUSH1 0x3 NOT ADD SLT PUSH2 0x504 JUMPI PUSH2 0x18FB PUSH2 0x267D JUMP JUMPDEST PUSH1 0x6 SLOAD SWAP3 PUSH1 0x1 PUSH1 0x1 PUSH1 0xA0 SHL SUB SWAP3 DUP4 DUP6 AND CALLER SUB PUSH2 0x1928 JUMPI POP POP AND SWAP1 PUSH1 0x1 PUSH1 0x1 PUSH1 0x60 SHL SUB PUSH1 0xA0 SHL AND OR PUSH1 0x6 SSTORE DUP1 RETURN JUMPDEST MLOAD PUSH4 0x7BFA4B9F PUSH1 0xE0 SHL DUP2 MSTORE REVERT JUMPDEST DUP4 SWAP2 POP CALLVALUE PUSH2 0x197 JUMPI PUSH2 0x1946 CALLDATASIZE PUSH2 0x2693 JUMP JUMPDEST SWAP3 SWAP1 PUSH1 0x1 DUP1 PUSH1 0xA0 SHL SUB DUP1 PUSH1 0x5 SLOAD AND SWAP7 DUP1 MLOAD SWAP8 PUSH4 0x2E311507 PUSH1 0xE1 SHL DUP10 MSTORE DUP6 DUP6 DUP11 ADD MSTORE PUSH1 0x20 SWAP5 PUSH1 0x24 SWAP10 DUP7 DUP2 DUP13 DUP2 DUP7 GAS STATICCALL SWAP1 DUP2 ISZERO PUSH2 0x174B JUMPI PUSH1 0x0 SWAP2 PUSH2 0x1C45 JUMPI JUMPDEST POP PUSH1 0x8 DUP2 LT ISZERO PUSH2 0x18AE JUMPI PUSH2 0x18A0 JUMPI PUSH2 0x1999 PUSH2 0x29B9 JUMP JUMPDEST SWAP8 DUP7 DUP6 DUP13 DUP2 PUSH1 0x2 SLOAD AND SWAP12 DUP8 MLOAD SWAP13 DUP14 SWAP4 DUP5 SWAP3 PUSH4 0x2B956FF7 PUSH1 0xE0 SHL DUP5 MSTORE AND DUP8 DUP4 ADD MSTORE GAS STATICCALL SWAP9 DUP10 ISZERO PUSH2 0x174B JUMPI PUSH1 0x0 SWAP10 PUSH2 0x1C16 JUMPI JUMPDEST POP DUP5 PUSH1 0x0 SLOAD AND SWAP6 DUP5 MLOAD PUSH4 0x7B9E618D PUSH1 0xE0 SHL DUP2 MSTORE DUP9 DUP2 DUP6 DUP2 DUP12 GAS STATICCALL SWAP1 DUP2 ISZERO PUSH2 0x1800 JUMPI PUSH1 0x0 SWAP2 PUSH2 0x1BF9 JUMPI JUMPDEST POP DUP1 SWAP8 DUP14 DUP11 DUP13 DUP10 MLOAD SWAP3 DUP4 SWAP2 PUSH4 0xFE096DD7 PUSH1 0xE0 SHL DUP4 MSTORE DUP10 DUP4 ADD MSTORE DUP2 DUP11 GAS STATICCALL SWAP1 DUP2 ISZERO PUSH2 0x1849 JUMPI SWAP2 DUP16 SWAP3 SWAP2 DUP15 DUP14 SWAP4 PUSH1 0x0 SWAP3 PUSH2 0x1BC4 JUMPI JUMPDEST POP EQ PUSH2 0x1B21 JUMPI POP POP POP POP POP POP DUP3 MLOAD PUSH4 0x82862275 PUSH1 0xE0 SHL DUP2 MSTORE DUP8 DUP3 DUP3 ADD MSTORE DUP7 DUP2 DUP13 DUP2 DUP7 GAS STATICCALL SWAP1 DUP2 ISZERO PUSH2 0x174B JUMPI PUSH1 0x0 SWAP2 PUSH2 0x1AF4 JUMPI JUMPDEST POP TIMESTAMP GT ISZERO PUSH2 0x1710 JUMPI DUP7 PUSH1 0x0 MSTORE PUSH1 0xA DUP7 MSTORE DUP8 PUSH1 0x1 DUP5 PUSH1 0x0 KECCAK256 ADD SSTORE PUSH1 0x0 SWAP2 JUMPDEST PUSH3 0x13C680 TIMESTAMP ADD DUP1 TIMESTAMP GT PUSH2 0x16FC JUMPI DUP2 EXTCODESIZE ISZERO PUSH2 0x6EE JUMPI DUP9 SWAP4 DUP6 MLOAD SWAP13 DUP14 SWAP6 DUP7 SWAP6 PUSH4 0x5EE4847 PUSH1 0xE5 SHL DUP8 MSTORE DUP7 ADD MSTORE DUP5 ADD MSTORE PUSH1 0x44 DUP4 ADD PUSH1 0x1 SWAP1 MSTORE PUSH1 0x64 DUP4 ADD MSTORE GAS SWAP3 PUSH1 0x0 PUSH1 0x84 SWAP3 DUP2 SWAP6 CALL SWAP8 DUP9 ISZERO PUSH2 0x16F1 JUMPI PUSH32 0xA264BB34FDF1A1758C3FDC7F52FC198464870751AE58254643A0ED3B3D07013 SWAP6 SWAP7 SWAP8 SWAP9 PUSH2 0x16E2 JUMPI POP MLOAD SWAP2 AND DUP2 MSTORE LOG3 DUP1 RETURN JUMPDEST SWAP1 POP DUP7 DUP2 DUP2 RETURNDATASIZE DUP4 GT PUSH2 0x1B1A JUMPI JUMPDEST PUSH2 0x1B0B DUP2 DUP4 PUSH2 0x26E7 JUMP JUMPDEST DUP2 ADD SUB SLT PUSH2 0x6EE JUMPI MLOAD DUP12 PUSH2 0x1A59 JUMP JUMPDEST POP RETURNDATASIZE PUSH2 0x1B01 JUMP JUMPDEST DUP10 DUP1 DUP7 SWAP10 SWAP8 SWAP10 AND SWAP5 AND DUP5 EQ ISZERO DUP1 PUSH2 0x1BBB JUMPI JUMPDEST PUSH2 0x1B42 JUMPI JUMPDEST POP POP POP POP POP PUSH2 0x1A76 JUMP JUMPDEST SWAP1 SWAP2 SWAP3 SWAP4 SWAP5 SWAP10 POP DUP8 MLOAD SWAP3 DUP4 DUP1 SWAP3 PUSH4 0x75151B63 PUSH1 0xE0 SHL DUP3 MSTORE DUP7 DUP10 DUP4 ADD MSTORE GAS STATICCALL SWAP1 DUP2 ISZERO PUSH2 0x1800 JUMPI PUSH1 0x0 SWAP2 PUSH2 0x1B9E JUMPI JUMPDEST POP ISZERO PUSH2 0x17D3 JUMPI DUP9 PUSH1 0x0 MSTORE PUSH1 0xA DUP9 MSTORE DUP5 PUSH1 0x0 KECCAK256 SWAP1 PUSH1 0x1 PUSH1 0x1 PUSH1 0x60 SHL SUB PUSH1 0xA0 SHL DUP3 SLOAD AND OR SWAP1 SSTORE SWAP5 DUP12 DUP1 DUP13 DUP10 DUP3 PUSH2 0x1B38 JUMP JUMPDEST PUSH2 0x1BB5 SWAP2 POP DUP10 RETURNDATASIZE DUP12 GT PUSH2 0x1049 JUMPI PUSH2 0x103B DUP2 DUP4 PUSH2 0x26E7 JUMP JUMPDEST DUP14 PUSH2 0x1B6F JUMP JUMPDEST POP DUP4 ISZERO ISZERO PUSH2 0x1B33 JUMP JUMPDEST SWAP4 SWAP3 SWAP5 POP POP POP DUP2 DUP2 RETURNDATASIZE DUP4 GT PUSH2 0x1BF2 JUMPI JUMPDEST PUSH2 0x1BDE DUP2 DUP4 PUSH2 0x26E7 JUMP JUMPDEST DUP2 ADD SUB SLT PUSH2 0x6EE JUMPI MLOAD DUP15 SWAP2 DUP12 SWAP2 DUP15 CODESIZE PUSH2 0x1A26 JUMP JUMPDEST POP RETURNDATASIZE PUSH2 0x1BD4 JUMP JUMPDEST PUSH2 0x1C10 SWAP2 POP DUP10 RETURNDATASIZE DUP12 GT PUSH2 0x430 JUMPI PUSH2 0x41C DUP2 DUP4 PUSH2 0x26E7 JUMP JUMPDEST DUP14 PUSH2 0x19F3 JUMP JUMPDEST SWAP1 SWAP9 DUP8 DUP3 DUP2 RETURNDATASIZE DUP4 GT PUSH2 0x1C3E JUMPI JUMPDEST PUSH2 0x1C2D DUP2 DUP4 PUSH2 0x26E7 JUMP JUMPDEST DUP2 ADD SUB SLT PUSH2 0xDFA JUMPI POP MLOAD SWAP8 DUP12 PUSH2 0x19CA JUMP JUMPDEST POP RETURNDATASIZE PUSH2 0x1C23 JUMP JUMPDEST PUSH2 0x1C5C SWAP2 POP DUP8 RETURNDATASIZE DUP10 GT PUSH2 0x7A3 JUMPI PUSH2 0x795 DUP2 DUP4 PUSH2 0x26E7 JUMP JUMPDEST DUP12 PUSH2 0x1983 JUMP JUMPDEST DUP4 SWAP2 POP CALLVALUE PUSH2 0x197 JUMPI PUSH1 0x20 SWAP3 DUP4 PUSH1 0x3 NOT CALLDATASIZE ADD SLT PUSH2 0x504 JUMPI PUSH1 0x2 SLOAD DUP3 CALLDATALOAD SWAP3 SWAP1 PUSH1 0x1 PUSH1 0x1 PUSH1 0xA0 SHL SUB SWAP1 DUP2 AND DUP7 DUP3 PUSH1 0x24 PUSH2 0x1C96 PUSH2 0x29B9 JUMP JUMPDEST DUP8 MLOAD SWAP5 DUP6 SWAP4 DUP5 SWAP3 PUSH4 0x2B956FF7 PUSH1 0xE0 SHL DUP5 MSTORE AND DUP9 DUP4 ADD MSTORE GAS STATICCALL SWAP1 DUP2 ISZERO PUSH2 0x751 JUMPI DUP7 SWAP2 PUSH2 0x1DF6 JUMPI JUMPDEST POP DUP5 DUP7 MSTORE PUSH1 0xA DUP8 MSTORE PUSH1 0x2 DUP5 DUP8 KECCAK256 ADD SLOAD SUB PUSH2 0x1DE7 JUMPI DUP4 DUP6 MSTORE PUSH1 0xA DUP7 MSTORE PUSH1 0xFF PUSH1 0x6 DUP5 DUP8 KECCAK256 ADD SLOAD AND PUSH2 0x1DD8 JUMPI DUP1 PUSH1 0x5 SLOAD AND SWAP6 DUP4 MLOAD PUSH4 0x2E311507 PUSH1 0xE1 SHL DUP2 MSTORE DUP6 DUP5 DUP3 ADD MSTORE DUP2 DUP2 PUSH1 0x24 DUP2 DUP12 GAS STATICCALL SWAP2 DUP3 ISZERO PUSH2 0x6FA JUMPI DUP8 SWAP3 PUSH2 0x1DBB JUMPI JUMPDEST POP POP PUSH1 0x8 DUP2 LT ISZERO PUSH2 0x1DA8 JUMPI DUP3 SUB PUSH2 0x75B JUMPI DUP6 DUP6 SWAP7 EXTCODESIZE ISZERO PUSH2 0x6BE JUMPI DUP6 DUP1 SWAP2 PUSH1 0x44 DUP7 MLOAD DUP1 SWAP5 DUP2 SWAP4 PUSH4 0x3625B759 PUSH1 0xE2 SHL DUP4 MSTORE DUP11 DUP10 DUP5 ADD MSTORE PUSH1 0x5 PUSH1 0x24 DUP5 ADD MSTORE GAS CALL DUP1 ISZERO PUSH2 0x751 JUMPI SWAP1 DUP7 SWAP2 PUSH2 0x1D94 JUMPI JUMPDEST POP POP DUP2 SLOAD AND SWAP3 DUP4 EXTCODESIZE ISZERO PUSH2 0x74D JUMPI PUSH1 0x24 DUP6 SWAP3 DUP4 DUP6 MLOAD SWAP7 DUP8 SWAP5 DUP6 SWAP4 PUSH4 0x20870CC3 PUSH1 0xE2 SHL DUP6 MSTORE DUP5 ADD MSTORE GAS CALL SWAP1 DUP2 ISZERO PUSH2 0x6B5 JUMPI POP PUSH2 0xDEA JUMPI POP RETURN JUMPDEST PUSH2 0x1D9D SWAP1 PUSH2 0x26BD JUMP JUMPDEST PUSH2 0x74D JUMPI DUP5 DUP8 PUSH2 0x1D5D JUMP JUMPDEST PUSH4 0x4E487B71 PUSH1 0xE0 SHL DUP7 MSTORE PUSH1 0x21 DUP4 MSTORE PUSH1 0x24 DUP7 REVERT JUMPDEST PUSH2 0x1DD1 SWAP3 POP DUP1 RETURNDATASIZE LT PUSH2 0x7A3 JUMPI PUSH2 0x795 DUP2 DUP4 PUSH2 0x26E7 JUMP JUMPDEST DUP8 DUP1 PUSH2 0x1D12 JUMP JUMPDEST POP SWAP1 MLOAD PUSH4 0x4C11573 PUSH1 0xE2 SHL DUP2 MSTORE REVERT JUMPDEST POP SWAP1 MLOAD PUSH4 0x239700BF PUSH1 0xE1 SHL DUP2 MSTORE REVERT JUMPDEST SWAP1 POP DUP7 DUP2 DUP2 RETURNDATASIZE DUP4 GT PUSH2 0x1E1C JUMPI JUMPDEST PUSH2 0x1E0D DUP2 DUP4 PUSH2 0x26E7 JUMP JUMPDEST DUP2 ADD SUB SLT PUSH2 0x6EE JUMPI MLOAD DUP8 PUSH2 0x1CBC JUMP JUMPDEST POP RETURNDATASIZE PUSH2 0x1E03 JUMP JUMPDEST SWAP1 POP CALLVALUE PUSH2 0x504 JUMPI PUSH1 0x20 CALLDATASIZE PUSH1 0x3 NOT ADD SLT PUSH2 0x504 JUMPI DUP3 SLOAD DUP3 MLOAD PUSH4 0x4162169F PUSH1 0xE0 SHL DUP2 MSTORE DUP3 CALLDATALOAD SWAP4 SWAP2 PUSH1 0x1 PUSH1 0x1 PUSH1 0xA0 SHL SUB SWAP2 SWAP1 PUSH1 0x20 SWAP1 DUP3 SWAP1 DUP7 SWAP1 DUP3 SWAP1 DUP7 AND GAS STATICCALL SWAP1 DUP2 ISZERO PUSH2 0x13A1 JUMPI DUP7 SWAP2 PUSH2 0x1E9A JUMPI JUMPDEST POP AND CALLER SUB PUSH2 0x14B2 JUMPI PUSH3 0x93A80 DUP4 LT DUP1 ISZERO PUSH2 0x1E8E JUMPI JUMPDEST PUSH2 0x1499 JUMPI POP POP PUSH1 0x7 SSTORE DUP1 RETURN JUMPDEST POP PUSH3 0x13C680 DUP4 GT PUSH2 0x1E82 JUMP JUMPDEST PUSH2 0x1EB3 SWAP2 POP PUSH1 0x20 RETURNDATASIZE PUSH1 0x20 GT PUSH2 0x430 JUMPI PUSH2 0x41C DUP2 DUP4 PUSH2 0x26E7 JUMP JUMPDEST CODESIZE PUSH2 0x1E6D JUMP JUMPDEST POP POP CALLVALUE PUSH2 0x197 JUMPI PUSH1 0x20 CALLDATASIZE PUSH1 0x3 NOT ADD SLT PUSH2 0x197 JUMPI PUSH1 0x20 SWAP1 PUSH2 0x1ED7 PUSH2 0x267D JUMP JUMPDEST PUSH1 0x1 DUP1 PUSH1 0xA0 SHL SUB SWAP2 MLOAD SWAP2 DUP1 PUSH32 0x0 AND SWAP2 AND EQ DUP2 MSTORE RETURN JUMPDEST SWAP1 POP CALLVALUE PUSH2 0x504 JUMPI PUSH1 0x20 CALLDATASIZE PUSH1 0x3 NOT ADD SLT PUSH2 0x504 JUMPI DUP1 CALLDATALOAD SWAP2 PUSH1 0xFF DUP4 AND DUP1 SWAP4 SUB PUSH2 0x7B4 JUMPI DUP4 SLOAD DUP2 MLOAD PUSH4 0x4162169F PUSH1 0xE0 SHL DUP2 MSTORE PUSH1 0x1 PUSH1 0x1 PUSH1 0xA0 SHL SUB SWAP2 PUSH1 0x20 SWAP1 DUP3 SWAP1 DUP7 SWAP1 DUP3 SWAP1 DUP7 AND GAS STATICCALL SWAP1 DUP2 ISZERO PUSH2 0x13A1 JUMPI DUP7 SWAP2 PUSH2 0x1F9D JUMPI JUMPDEST POP AND CALLER SUB PUSH2 0x14B2 JUMPI PUSH1 0x64 DUP4 GT DUP1 ISZERO SWAP1 PUSH2 0x1F93 JUMPI JUMPDEST PUSH2 0x1F86 JUMPI POP POP PUSH1 0xFF NOT PUSH1 0x9 SLOAD AND OR PUSH1 0x9 SSTORE DUP1 RETURN JUMPDEST MLOAD PUSH4 0x6A43F8D1 PUSH1 0xE0 SHL DUP2 MSTORE REVERT JUMPDEST POP PUSH1 0x96 DUP4 GT PUSH2 0x1F72 JUMP JUMPDEST PUSH2 0x1FB6 SWAP2 POP PUSH1 0x20 RETURNDATASIZE PUSH1 0x20 GT PUSH2 0x430 JUMPI PUSH2 0x41C DUP2 DUP4 PUSH2 0x26E7 JUMP JUMPDEST CODESIZE PUSH2 0x1F5E JUMP JUMPDEST DUP3 DUP5 CALLVALUE PUSH2 0xDFA JUMPI PUSH1 0x20 CALLDATASIZE PUSH1 0x3 NOT ADD SLT PUSH2 0xDFA JUMPI POP PUSH2 0x1FDC PUSH1 0x20 SWAP3 CALLDATALOAD PUSH2 0x28A1 JUMP JUMPDEST SWAP1 MLOAD PUSH1 0x1 PUSH1 0x1 PUSH1 0xA0 SHL SUB SWAP1 SWAP2 AND DUP2 MSTORE RETURN JUMPDEST SWAP2 SWAP1 POP CALLVALUE PUSH2 0x504 JUMPI PUSH1 0x20 SWAP1 DUP2 PUSH1 0x3 NOT CALLDATASIZE ADD SLT PUSH2 0x7B4 JUMPI DUP3 CALLDATALOAD SWAP1 DUP3 PUSH2 0x200F PUSH2 0x29B9 JUMP JUMPDEST PUSH1 0x2 SLOAD DUP4 MLOAD PUSH4 0x2B956FF7 PUSH1 0xE0 SHL DUP2 MSTORE PUSH1 0x1 PUSH1 0x1 PUSH1 0xA0 SHL SUB DUP1 DUP5 AND DUP3 DUP11 ADD MSTORE SWAP8 SWAP1 SWAP7 SWAP1 SWAP3 SWAP2 PUSH1 0x24 SWAP2 SWAP1 DUP9 SWAP1 DUP4 SWAP1 DUP3 SWAP1 DUP13 AND GAS STATICCALL SWAP7 DUP8 ISZERO PUSH2 0x22FB JUMPI DUP10 SWAP8 PUSH2 0x22CC JUMPI JUMPDEST POP DUP6 DUP10 MSTORE PUSH1 0xA DUP5 MSTORE PUSH1 0x2 DUP6 DUP11 KECCAK256 ADD SLOAD DUP8 EQ PUSH2 0x22BC JUMPI DUP8 PUSH1 0x5 SLOAD AND DUP6 MLOAD SWAP2 PUSH4 0x3FF76DEF PUSH1 0xE2 SHL DUP4 MSTORE DUP8 DUP6 DUP5 ADD MSTORE PUSH1 0x60 DUP4 DUP3 DUP2 DUP6 GAS STATICCALL DUP1 ISZERO PUSH2 0x22B2 JUMPI DUP12 SWAP1 DUP13 SWAP5 DUP14 SWAP2 PUSH2 0x2260 JUMPI JUMPDEST POP TIMESTAMP GT PUSH2 0x2250 JUMPI PUSH1 0x8 DUP2 LT ISZERO PUSH2 0x223E JUMPI PUSH1 0x2 SUB PUSH2 0x222E JUMPI PUSH3 0x3F480 TIMESTAMP ADD SWAP1 DUP2 TIMESTAMP GT PUSH2 0x221D JUMPI PUSH2 0x20C3 DUP3 DUP11 PUSH2 0x2A12 JUMP JUMPDEST PUSH1 0xFF PUSH1 0x9 SLOAD AND SWAP3 DUP4 DUP6 MUL SWAP4 DUP6 DUP6 DIV EQ DUP6 ISZERO OR ISZERO PUSH2 0x220B JUMPI SWAP1 DUP2 DUP14 SWAP8 SWAP7 SWAP6 SWAP5 SWAP4 SWAP3 EXTCODESIZE ISZERO PUSH2 0x2207 JUMPI DUP7 DUP9 PUSH1 0x84 SWAP3 DUP2 SWAP6 DUP15 SWAP6 PUSH1 0x64 DUP16 MLOAD SWAP10 DUP11 SWAP9 DUP10 SWAP8 PUSH4 0x5EE4847 PUSH1 0xE5 SHL DUP10 MSTORE DUP9 ADD MSTORE DIV SWAP1 DUP6 ADD MSTORE PUSH1 0x2 PUSH1 0x44 DUP6 ADD MSTORE PUSH1 0x64 DUP5 ADD MSTORE GAS CALL DUP1 ISZERO PUSH2 0xBE5 JUMPI SWAP1 DUP6 SWAP2 PUSH2 0x21F3 JUMPI JUMPDEST POP POP PUSH2 0x2136 SWAP1 DUP9 DUP9 PUSH2 0x2936 JUMP JUMPDEST SWAP8 DUP3 SLOAD AND DUP1 EXTCODESIZE ISZERO PUSH2 0x7B4 JUMPI DUP6 MLOAD PUSH4 0x550EA89D PUSH1 0xE1 SHL DUP2 MSTORE SWAP3 DUP4 ADD DUP8 DUP2 MSTORE PUSH1 0x1 PUSH1 0x1 PUSH1 0xA0 SHL SUB SWAP1 SWAP3 AND PUSH1 0x20 DUP4 ADD MSTORE PUSH1 0x40 DUP3 ADD SWAP9 SWAP1 SWAP9 MSTORE PUSH1 0x60 DUP2 ADD DUP8 SWAP1 MSTORE SWAP1 SWAP7 DUP3 SWAP2 DUP9 SWAP2 SWAP1 DUP3 SWAP1 DUP5 SWAP1 DUP3 SWAP1 PUSH1 0x80 ADD SUB SWAP3 GAS CALL SWAP6 DUP7 ISZERO PUSH2 0x21E7 JUMPI DUP6 SWAP7 SWAP6 SWAP5 SWAP6 PUSH2 0x21CC JUMPI JUMPDEST POP DUP5 SWAP1 MSTORE PUSH1 0xA SWAP1 MSTORE DUP5 KECCAK256 PUSH1 0x2 ADD SSTORE PUSH32 0x9E1BD0C0E1D393C40D5F2B9BCB5B6420A4CB761115927EEF146BE8ABD73DB3F9 DUP4 DUP1 LOG3 DUP1 RETURN JUMPDEST PUSH2 0x21D9 SWAP2 SWAP3 SWAP4 SWAP5 POP PUSH2 0x26BD JUMP JUMPDEST PUSH2 0x74D JUMPI SWAP1 DUP4 SWAP2 DUP6 CODESIZE PUSH2 0x2197 JUMP JUMPDEST POP DUP3 MLOAD SWAP1 RETURNDATASIZE SWAP1 DUP3 RETURNDATACOPY RETURNDATASIZE SWAP1 REVERT JUMPDEST PUSH2 0x21FC SWAP1 PUSH2 0x26BD JUMP JUMPDEST PUSH2 0x7B4 JUMPI DUP4 CODESIZE PUSH2 0x2129 JUMP JUMPDEST DUP8 DUP1 REVERT JUMPDEST POP PUSH4 0x4E487B71 PUSH1 0xE0 SHL DUP13 MSTORE PUSH1 0x11 DUP7 MSTORE DUP12 REVERT JUMPDEST PUSH4 0x4E487B71 PUSH1 0xE0 SHL DUP13 MSTORE PUSH1 0x11 DUP7 MSTORE DUP12 REVERT JUMPDEST DUP7 MLOAD PUSH4 0x7A92F19 PUSH1 0xE5 SHL DUP2 MSTORE DUP6 SWAP1 REVERT JUMPDEST POP PUSH4 0x4E487B71 PUSH1 0xE0 SHL DUP12 MSTORE PUSH1 0x21 DUP6 MSTORE DUP11 REVERT JUMPDEST DUP8 MLOAD PUSH4 0x15085315 PUSH1 0xE3 SHL DUP2 MSTORE DUP7 SWAP1 REVERT JUMPDEST SWAP5 POP POP POP PUSH1 0x60 DUP4 RETURNDATASIZE PUSH1 0x60 GT PUSH2 0x22AA JUMPI JUMPDEST DUP2 PUSH2 0x227D PUSH1 0x60 SWAP4 DUP4 PUSH2 0x26E7 JUMP JUMPDEST DUP2 ADD SUB SLT PUSH2 0x22A6 JUMPI DUP3 MLOAD SWAP3 PUSH1 0x8 DUP5 LT ISZERO PUSH2 0x22A2 JUMPI DUP8 DUP8 DUP3 ADD MLOAD SWAP2 ADD MLOAD SWAP4 SWAP1 SWAP4 CODESIZE PUSH2 0x2094 JUMP JUMPDEST DUP12 DUP1 REVERT JUMPDEST DUP11 DUP1 REVERT JUMPDEST RETURNDATASIZE SWAP2 POP PUSH2 0x2270 JUMP JUMPDEST DUP8 MLOAD RETURNDATASIZE DUP14 DUP3 RETURNDATACOPY RETURNDATASIZE SWAP1 REVERT JUMPDEST DUP5 MLOAD PUSH4 0x239700BF PUSH1 0xE1 SHL DUP2 MSTORE DUP4 SWAP1 REVERT JUMPDEST SWAP1 SWAP7 POP DUP4 DUP2 DUP2 RETURNDATASIZE DUP4 GT PUSH2 0x22F4 JUMPI JUMPDEST PUSH2 0x22E4 DUP2 DUP4 PUSH2 0x26E7 JUMP JUMPDEST DUP2 ADD SUB SLT PUSH2 0x6EE JUMPI MLOAD SWAP6 CODESIZE PUSH2 0x204F JUMP JUMPDEST POP RETURNDATASIZE PUSH2 0x22DA JUMP JUMPDEST DUP6 MLOAD RETURNDATASIZE DUP12 DUP3 RETURNDATACOPY RETURNDATASIZE SWAP1 REVERT JUMPDEST DUP3 DUP5 CALLVALUE PUSH2 0xDFA JUMPI PUSH1 0x20 CALLDATASIZE PUSH1 0x3 NOT ADD SLT PUSH2 0xDFA JUMPI POP PUSH2 0x2325 PUSH1 0x20 SWAP3 CALLDATALOAD PUSH2 0x2819 JUMP JUMPDEST SWAP1 MLOAD SWAP1 ISZERO ISZERO DUP2 MSTORE RETURN JUMPDEST DUP3 DUP5 CALLVALUE PUSH2 0xDFA JUMPI PUSH1 0x20 SWAP3 DUP4 PUSH1 0x3 NOT CALLDATASIZE ADD SLT PUSH2 0x197 JUMPI DUP2 SLOAD DUP4 MLOAD PUSH4 0x103864A3 PUSH1 0xE1 SHL DUP2 MSTORE CALLER DUP4 DUP3 ADD MSTORE SWAP1 DUP6 SWAP1 DUP3 SWAP1 PUSH1 0x24 SWAP1 DUP3 SWAP1 PUSH1 0x1 PUSH1 0x1 PUSH1 0xA0 SHL SUB AND GAS STATICCALL SWAP1 DUP2 ISZERO PUSH2 0x1050 JUMPI DUP4 SWAP2 PUSH2 0x2394 JUMPI JUMPDEST POP ISZERO PUSH2 0x1015 JUMPI CALLDATALOAD DUP2 MSTORE PUSH1 0xA DUP4 MSTORE DUP2 SWAP1 KECCAK256 PUSH1 0x3 ADD SLOAD SWAP1 MLOAD SWAP1 DUP2 MSTORE RETURN JUMPDEST PUSH2 0x23AB SWAP2 POP DUP6 RETURNDATASIZE DUP8 GT PUSH2 0x1049 JUMPI PUSH2 0x103B DUP2 DUP4 PUSH2 0x26E7 JUMP JUMPDEST DUP6 PUSH2 0x2379 JUMP JUMPDEST DUP3 DUP5 CALLVALUE PUSH2 0xDFA JUMPI PUSH1 0x20 CALLDATASIZE PUSH1 0x3 NOT ADD SLT PUSH2 0xDFA JUMPI POP PUSH2 0x2325 PUSH1 0x20 SWAP3 CALLDATALOAD PUSH2 0x2758 JUMP JUMPDEST DUP4 SWAP2 POP CALLVALUE PUSH2 0x197 JUMPI PUSH1 0x20 SWAP3 DUP4 PUSH1 0x3 NOT CALLDATASIZE ADD SLT PUSH2 0x504 JUMPI PUSH1 0x5 SLOAD DUP2 MLOAD PUSH4 0x2E311507 PUSH1 0xE1 SHL DUP2 MSTORE DUP4 CALLDATALOAD DUP2 DUP6 ADD DUP2 SWAP1 MSTORE PUSH1 0x1 PUSH1 0x1 PUSH1 0xA0 SHL SUB SWAP3 DUP4 AND SWAP7 SWAP1 SWAP5 SWAP3 SWAP2 DUP2 DUP2 PUSH1 0x24 DUP2 DUP12 GAS STATICCALL SWAP1 DUP2 ISZERO PUSH2 0x6FA JUMPI DUP8 SWAP2 PUSH2 0x260B JUMPI JUMPDEST POP PUSH1 0x8 DUP2 LT ISZERO PUSH2 0x25F8 JUMPI DUP4 SUB PUSH2 0x25E8 JUMPI DUP5 DUP7 MSTORE PUSH1 0xA DUP2 MSTORE PUSH1 0xFF PUSH1 0x6 DUP6 DUP9 KECCAK256 ADD SLOAD AND PUSH2 0x25D8 JUMPI PUSH2 0x2452 DUP6 PUSH2 0x2758 JUMP JUMPDEST ISZERO PUSH2 0x253D JUMPI DUP3 DUP2 DUP4 DUP9 SLOAD AND DUP7 MLOAD SWAP3 DUP4 DUP1 SWAP3 PUSH4 0x4162169F PUSH1 0xE0 SHL DUP3 MSTORE GAS STATICCALL SWAP2 DUP3 ISZERO PUSH2 0x6FA JUMPI SWAP1 DUP4 SWAP3 SWAP2 DUP9 SWAP3 PUSH2 0x2520 JUMPI JUMPDEST POP POP AND CALLER SUB PUSH2 0x2511 JUMPI DUP6 DUP6 SWAP7 EXTCODESIZE ISZERO PUSH2 0x6BE JUMPI DUP6 DUP1 SWAP2 PUSH1 0x44 DUP7 MLOAD DUP1 SWAP5 DUP2 SWAP4 PUSH4 0x3625B759 PUSH1 0xE2 SHL DUP4 MSTORE DUP11 DUP10 DUP5 ADD MSTORE PUSH1 0x5 PUSH1 0x24 DUP5 ADD MSTORE GAS CALL DUP1 ISZERO PUSH2 0x751 JUMPI SWAP1 DUP7 SWAP2 PUSH2 0x24FD JUMPI JUMPDEST POP POP DUP2 SLOAD AND SWAP3 DUP4 EXTCODESIZE ISZERO PUSH2 0x74D JUMPI PUSH1 0x24 DUP6 SWAP3 DUP4 DUP6 MLOAD SWAP7 DUP8 SWAP5 DUP6 SWAP4 PUSH4 0x20870CC3 PUSH1 0xE2 SHL DUP6 MSTORE DUP5 ADD MSTORE GAS CALL SWAP1 DUP2 ISZERO PUSH2 0x6B5 JUMPI POP PUSH2 0xDEA JUMPI POP POP DUP1 RETURN JUMPDEST PUSH2 0x2506 SWAP1 PUSH2 0x26BD JUMP JUMPDEST PUSH2 0x74D JUMPI DUP5 DUP8 PUSH2 0x24C4 JUMP JUMPDEST POP SWAP1 MLOAD PUSH4 0x27568D2F PUSH1 0xE1 SHL DUP2 MSTORE REVERT JUMPDEST PUSH2 0x2536 SWAP3 POP DUP1 RETURNDATASIZE LT PUSH2 0x430 JUMPI PUSH2 0x41C DUP2 DUP4 PUSH2 0x26E7 JUMP JUMPDEST DUP9 DUP1 PUSH2 0x2481 JUMP JUMPDEST SWAP4 SWAP5 SWAP6 SWAP2 DUP7 SWAP2 POP DUP6 DUP3 MSTORE PUSH1 0xA DUP6 MSTORE PUSH1 0x6 DUP5 DUP4 KECCAK256 ADD PUSH1 0x1 PUSH1 0xFF NOT DUP3 SLOAD AND OR SWAP1 SSTORE DUP3 EXTCODESIZE ISZERO PUSH2 0x197 JUMPI PUSH1 0x44 DUP7 SWAP2 DUP4 DUP7 MLOAD SWAP6 DUP7 SWAP5 DUP6 SWAP4 PUSH4 0x3625B759 PUSH1 0xE2 SHL DUP6 MSTORE DUP5 ADD MSTORE PUSH1 0x6 PUSH1 0x24 DUP5 ADD MSTORE GAS CALL DUP1 ISZERO PUSH2 0x25CE JUMPI PUSH2 0x25AB JUMPI JUMPDEST POP SWAP1 PUSH1 0x0 DUP1 MLOAD PUSH1 0x20 PUSH2 0x2A5F DUP4 CODECOPY DUP2 MLOAD SWAP2 MSTORE SWAP2 MLOAD PUSH1 0x1 DUP2 MSTORE LOG2 DUP1 RETURN JUMPDEST SWAP4 PUSH2 0x25C6 PUSH1 0x0 DUP1 MLOAD PUSH1 0x20 PUSH2 0x2A5F DUP4 CODECOPY DUP2 MLOAD SWAP2 MSTORE SWAP4 SWAP3 SWAP6 PUSH2 0x26BD JUMP JUMPDEST SWAP4 SWAP1 SWAP2 PUSH2 0x2590 JUMP JUMPDEST DUP3 MLOAD RETURNDATASIZE DUP8 DUP3 RETURNDATACOPY RETURNDATASIZE SWAP1 REVERT JUMPDEST DUP4 MLOAD PUSH4 0x4C11573 PUSH1 0xE2 SHL DUP2 MSTORE DUP4 SWAP1 REVERT JUMPDEST DUP4 MLOAD PUSH4 0x7A92F19 PUSH1 0xE5 SHL DUP2 MSTORE DUP4 SWAP1 REVERT JUMPDEST PUSH4 0x4E487B71 PUSH1 0xE0 SHL DUP8 MSTORE PUSH1 0x21 DUP5 MSTORE PUSH1 0x24 DUP8 REVERT JUMPDEST PUSH2 0x2622 SWAP2 POP DUP3 RETURNDATASIZE DUP5 GT PUSH2 0x7A3 JUMPI PUSH2 0x795 DUP2 DUP4 PUSH2 0x26E7 JUMP JUMPDEST DUP9 PUSH2 0x2424 JUMP JUMPDEST DUP5 SWAP2 CALLVALUE PUSH2 0x504 JUMPI PUSH1 0x20 CALLDATASIZE PUSH1 0x3 NOT ADD SLT PUSH2 0x504 JUMPI PUSH2 0x2643 PUSH2 0x267D JUMP JUMPDEST PUSH1 0x6 SLOAD PUSH1 0x1 PUSH1 0x1 PUSH1 0xA0 SHL SUB SWAP4 SWAP2 SWAP3 SWAP2 SWAP1 DUP5 AND CALLER SUB PUSH2 0x2671 JUMPI POP POP DUP3 SLOAD PUSH1 0x1 PUSH1 0x1 PUSH1 0xA0 SHL SUB NOT AND SWAP2 AND OR DUP2 SSTORE DUP1 RETURN JUMPDEST PUSH4 0x7BFA4B9F PUSH1 0xE0 SHL DUP2 MSTORE REVERT JUMPDEST PUSH1 0x4 CALLDATALOAD SWAP1 PUSH1 0x1 PUSH1 0x1 PUSH1 0xA0 SHL SUB DUP3 AND DUP3 SUB PUSH2 0x6EE JUMPI JUMP JUMPDEST PUSH1 0x60 SWAP1 PUSH1 0x3 NOT ADD SLT PUSH2 0x6EE JUMPI PUSH1 0x4 CALLDATALOAD SWAP1 PUSH1 0x24 CALLDATALOAD PUSH1 0x1 PUSH1 0x1 PUSH1 0xA0 SHL SUB DUP2 AND DUP2 SUB PUSH2 0x6EE JUMPI SWAP1 PUSH1 0x44 CALLDATALOAD SWAP1 JUMP JUMPDEST PUSH8 0xFFFFFFFFFFFFFFFF DUP2 GT PUSH2 0x26D1 JUMPI PUSH1 0x40 MSTORE JUMP JUMPDEST PUSH4 0x4E487B71 PUSH1 0xE0 SHL PUSH1 0x0 MSTORE PUSH1 0x41 PUSH1 0x4 MSTORE PUSH1 0x24 PUSH1 0x0 REVERT JUMPDEST SWAP1 PUSH1 0x1F DUP1 NOT SWAP2 ADD AND DUP2 ADD SWAP1 DUP2 LT PUSH8 0xFFFFFFFFFFFFFFFF DUP3 GT OR PUSH2 0x26D1 JUMPI PUSH1 0x40 MSTORE JUMP JUMPDEST SWAP1 DUP2 PUSH1 0x20 SWAP2 SUB SLT PUSH2 0x6EE JUMPI MLOAD DUP1 ISZERO ISZERO DUP2 SUB PUSH2 0x6EE JUMPI SWAP1 JUMP JUMPDEST SWAP1 DUP2 PUSH1 0x20 SWAP2 SUB SLT PUSH2 0x6EE JUMPI MLOAD PUSH1 0x1 PUSH1 0x1 PUSH1 0xA0 SHL SUB DUP2 AND DUP2 SUB PUSH2 0x6EE JUMPI SWAP1 JUMP JUMPDEST SWAP1 DUP2 PUSH1 0x20 SWAP2 SUB SLT PUSH2 0x6EE JUMPI MLOAD PUSH1 0x8 DUP2 LT ISZERO PUSH2 0x6EE JUMPI SWAP1 JUMP JUMPDEST PUSH1 0x5 SLOAD PUSH1 0x40 MLOAD PUSH4 0x2E311507 PUSH1 0xE1 SHL DUP2 MSTORE PUSH1 0x4 DUP2 ADD DUP4 SWAP1 MSTORE SWAP1 PUSH1 0x20 SWAP1 DUP3 SWAP1 PUSH1 0x24 SWAP1 DUP3 SWAP1 PUSH1 0x1 PUSH1 0x1 PUSH1 0xA0 SHL SUB AND GAS STATICCALL SWAP1 DUP2 ISZERO PUSH2 0x280D JUMPI PUSH1 0x0 SWAP2 PUSH2 0x27EE JUMPI JUMPDEST POP PUSH1 0x8 DUP2 LT ISZERO PUSH2 0x27D8 JUMPI PUSH1 0x4 SUB PUSH2 0x27C6 JUMPI PUSH1 0x0 MSTORE PUSH1 0xA PUSH1 0x20 MSTORE PUSH1 0x5 PUSH1 0x40 PUSH1 0x0 KECCAK256 ADD SLOAD TIMESTAMP GT PUSH2 0x27C1 JUMPI PUSH1 0x1 SWAP1 JUMP JUMPDEST PUSH1 0x0 SWAP1 JUMP JUMPDEST PUSH1 0x40 MLOAD PUSH4 0x7A92F19 PUSH1 0xE5 SHL DUP2 MSTORE PUSH1 0x4 SWAP1 REVERT JUMPDEST PUSH4 0x4E487B71 PUSH1 0xE0 SHL PUSH1 0x0 MSTORE PUSH1 0x21 PUSH1 0x4 MSTORE PUSH1 0x24 PUSH1 0x0 REVERT JUMPDEST PUSH2 0x2807 SWAP2 POP PUSH1 0x20 RETURNDATASIZE PUSH1 0x20 GT PUSH2 0x7A3 JUMPI PUSH2 0x795 DUP2 DUP4 PUSH2 0x26E7 JUMP JUMPDEST CODESIZE PUSH2 0x2794 JUMP JUMPDEST PUSH1 0x40 MLOAD RETURNDATASIZE PUSH1 0x0 DUP3 RETURNDATACOPY RETURNDATASIZE SWAP1 REVERT JUMPDEST PUSH1 0x5 SLOAD PUSH1 0x40 MLOAD PUSH4 0x2E311507 PUSH1 0xE1 SHL DUP2 MSTORE PUSH1 0x4 DUP2 ADD DUP4 SWAP1 MSTORE SWAP1 PUSH1 0x20 SWAP1 DUP3 SWAP1 PUSH1 0x24 SWAP1 DUP3 SWAP1 PUSH1 0x1 PUSH1 0x1 PUSH1 0xA0 SHL SUB AND GAS STATICCALL SWAP1 DUP2 ISZERO PUSH2 0x280D JUMPI PUSH1 0x0 SWAP2 PUSH2 0x2882 JUMPI JUMPDEST POP PUSH1 0x8 DUP2 LT ISZERO PUSH2 0x27D8 JUMPI PUSH1 0x3 SUB PUSH2 0x27C6 JUMPI PUSH1 0x0 MSTORE PUSH1 0xA PUSH1 0x20 MSTORE PUSH1 0x4 PUSH1 0x40 PUSH1 0x0 KECCAK256 ADD SLOAD TIMESTAMP GT PUSH2 0x27C1 JUMPI PUSH1 0x1 SWAP1 JUMP JUMPDEST PUSH2 0x289B SWAP2 POP PUSH1 0x20 RETURNDATASIZE PUSH1 0x20 GT PUSH2 0x7A3 JUMPI PUSH2 0x795 DUP2 DUP4 PUSH2 0x26E7 JUMP JUMPDEST CODESIZE PUSH2 0x2855 JUMP JUMPDEST PUSH1 0x0 SWAP1 DUP2 MSTORE PUSH1 0xA PUSH1 0x20 MSTORE PUSH1 0x40 SWAP1 KECCAK256 SLOAD PUSH1 0x1 PUSH1 0x1 PUSH1 0xA0 SHL SUB SWAP1 DUP2 AND SWAP1 DUP2 ISZERO PUSH2 0x28C6 JUMPI POP SWAP1 JUMP JUMPDEST PUSH1 0x0 SLOAD PUSH1 0x40 MLOAD PUSH4 0x7B9E618D PUSH1 0xE0 SHL DUP2 MSTORE SWAP3 POP PUSH1 0x20 SWAP2 DUP4 SWAP2 PUSH1 0x4 SWAP2 DUP4 SWAP2 AND GAS STATICCALL SWAP1 DUP2 ISZERO PUSH2 0x280D JUMPI PUSH1 0x0 SWAP2 PUSH2 0x28F7 JUMPI POP SWAP1 JUMP JUMPDEST PUSH2 0x2910 SWAP2 POP PUSH1 0x20 RETURNDATASIZE PUSH1 0x20 GT PUSH2 0x430 JUMPI PUSH2 0x41C DUP2 DUP4 PUSH2 0x26E7 JUMP JUMPDEST SWAP1 JUMP JUMPDEST SWAP2 SWAP1 DUP3 ADD DUP1 SWAP3 GT PUSH2 0x2920 JUMPI JUMP JUMPDEST PUSH4 0x4E487B71 PUSH1 0xE0 SHL PUSH1 0x0 MSTORE PUSH1 0x11 PUSH1 0x4 MSTORE PUSH1 0x24 PUSH1 0x0 REVERT JUMPDEST PUSH1 0x4 DUP1 SLOAD PUSH1 0x40 MLOAD PUSH4 0x19B54D5 PUSH1 0xE2 SHL DUP2 MSTORE SWAP2 DUP3 ADD SWAP3 SWAP1 SWAP3 MSTORE PUSH1 0x24 DUP2 ADD SWAP3 SWAP1 SWAP3 MSTORE PUSH1 0x20 SWAP1 DUP3 SWAP1 PUSH1 0x44 SWAP1 DUP3 SWAP1 PUSH1 0x1 PUSH1 0x1 PUSH1 0xA0 SHL SUB AND GAS STATICCALL SWAP1 DUP2 ISZERO PUSH2 0x280D JUMPI PUSH1 0x0 SWAP2 PUSH2 0x2987 JUMPI JUMPDEST POP DUP2 SUB SWAP1 DUP2 GT PUSH2 0x2920 JUMPI SWAP1 JUMP JUMPDEST SWAP1 POP PUSH1 0x20 DUP2 RETURNDATASIZE PUSH1 0x20 GT PUSH2 0x29B1 JUMPI JUMPDEST DUP2 PUSH2 0x29A2 PUSH1 0x20 SWAP4 DUP4 PUSH2 0x26E7 JUMP JUMPDEST DUP2 ADD SUB SLT PUSH2 0x6EE JUMPI MLOAD CODESIZE PUSH2 0x297A JUMP JUMPDEST RETURNDATASIZE SWAP2 POP PUSH2 0x2995 JUMP JUMPDEST PUSH1 0x14 CALLDATASIZE LT ISZERO DUP1 PUSH2 0x29E0 JUMPI JUMPDEST ISZERO PUSH2 0x29DC JUMPI PUSH1 0x13 NOT CALLDATASIZE ADD CALLDATASIZE DUP2 GT PUSH2 0x6EE JUMPI CALLDATALOAD PUSH1 0x60 SHR SWAP1 JUMP JUMPDEST CALLER SWAP1 JUMP JUMPDEST POP CALLER PUSH32 0x0 PUSH1 0x1 PUSH1 0x1 PUSH1 0xA0 SHL SUB AND EQ PUSH2 0x29C4 JUMP JUMPDEST SWAP1 PUSH1 0x20 PUSH2 0x2A43 PUSH32 0xAEF7723520380EEE6DE3A60CDEA8491AADDCA20C0CDB2D1850CA7F9319478315 SWAP3 PUSH1 0x7 SLOAD SWAP1 PUSH2 0x2913 JUMP JUMPDEST DUP4 PUSH1 0x0 MSTORE PUSH1 0xA DUP3 MSTORE DUP1 PUSH1 0x4 PUSH1 0x40 PUSH1 0x0 KECCAK256 ADD SSTORE PUSH1 0x40 MLOAD SWAP1 DUP2 MSTORE LOG2 JUMP INVALID EXTCODEHASH 0x4D COINBASE NUMBER DUP5 BASEFEE CALLCODE SLOAD CODECOPY CODESIZE 0xFC SWAP5 0xB8 0xD0 0xED PUSH13 0x5BF0AFAE44D27A75AE402C7D2 CALLCODE 0x23 PUSH9 0xA26469706673582212 KECCAK256 0x2D SSTORE 0xDA PUSH23 0x84BB4C7215382DE51C2AAC65C31AAD0BDEA7BCAF476837 SELFDESTRUCT 0xEA DUP7 NUMBER 0xED PUSH5 0x736F6C6343 STOP ADDMOD XOR STOP CALLER "
        },
        "methodIdentifiers": {
          "acceptedToken(uint256)": "4a7a2816",
          "agreeRefund(uint256)": "c70b248b",
          "auction(uint256,address,uint256)": "73ebfc62",
          "bid(uint256)": "454a2ab3",
          "bidIncrementRate()": "f0cc2b14",
          "buy(uint256)": "d96a094a",
          "buyerIdOf(uint256)": "a074f086",
          "calcPayMoney(uint256,bytes)": "bb21a493",
          "cancelRefund(uint256)": "66f240f8",
          "completeOrder(uint256)": "b6adaaff",
          "completerIdOf(uint256)": "1c2284ec",
          "isInRequestRefundDeadline(uint256)": "1d934b6c",
          "isInReviewDeadline(uint256)": "16efecef",
          "isTrustedForwarder(address)": "572b6c05",
          "refundPermit(uint256)": "b3e5219e",
          "refundRequestDeadline(uint256)": "afa5e1ee",
          "refundRequestPeriod()": "d6e54ff5",
          "refundReviewDeadline(uint256)": "cea04093",
          "refundReviewPeriod()": "f74c8ea3",
          "refuseRefund(uint256)": "12b65bb0",
          "requestRefund(uint256)": "a4b2409e",
          "sell(uint256,address,uint256)": "67cdf6c9",
          "sellerIdOf(uint256)": "a8e1131a",
          "setAddress()": "e6569275",
          "setAddressManager(address)": "0652b57a",
          "setAdmin(address)": "704b6c02",
          "setBidIncrementRate(uint8)": "4fb354b3",
          "setRefundPermit(uint256,bool)": "a3b979c3",
          "setRefundRequestPeriod(uint256)": "5bcb5950",
          "setRefundReviewPeriod(uint256)": "9ec123da",
          "trustedForwarder()": "7da0a877"
        }
      },
      "storageLayout": {
        "storage": [
          {
            "astId": 4843,
            "contract": "contracts/Exchange.sol:Exchange",
            "label": "ADDR_MANAGER",
            "offset": 0,
            "slot": "0",
            "type": "t_contract(IAddressManager)271"
          },
          {
            "astId": 4845,
            "contract": "contracts/Exchange.sol:Exchange",
            "label": "SIWE_AUTH",
            "offset": 0,
            "slot": "1",
            "type": "t_address"
          },
          {
            "astId": 4848,
            "contract": "contracts/Exchange.sol:Exchange",
            "label": "USER_MANAGER",
            "offset": 0,
            "slot": "2",
            "type": "t_contract(IUserManager)920"
          },
          {
            "astId": 4851,
            "contract": "contracts/Exchange.sol:Exchange",
            "label": "EXCHANGE",
            "offset": 0,
            "slot": "3",
            "type": "t_contract(IExchange)486"
          },
          {
            "astId": 4854,
            "contract": "contracts/Exchange.sol:Exchange",
            "label": "FUND_MANAGER",
            "offset": 0,
            "slot": "4",
            "type": "t_contract(IFundManager)663"
          },
          {
            "astId": 4857,
            "contract": "contracts/Exchange.sol:Exchange",
            "label": "TRUTH_BOX",
            "offset": 0,
            "slot": "5",
            "type": "t_contract(ITruthBox)870"
          },
          {
            "astId": 5062,
            "contract": "contracts/Exchange.sol:Exchange",
            "label": "ADMIN",
            "offset": 0,
            "slot": "6",
            "type": "t_address"
          },
          {
            "astId": 3628,
            "contract": "contracts/Exchange.sol:Exchange",
            "label": "_refundRequestPeriod",
            "offset": 0,
            "slot": "7",
            "type": "t_uint256"
          },
          {
            "astId": 3630,
            "contract": "contracts/Exchange.sol:Exchange",
            "label": "_refundReviewPeriod",
            "offset": 0,
            "slot": "8",
            "type": "t_uint256"
          },
          {
            "astId": 3632,
            "contract": "contracts/Exchange.sol:Exchange",
            "label": "_bidIncrementRate",
            "offset": 0,
            "slot": "9",
            "type": "t_uint8"
          },
          {
            "astId": 3789,
            "contract": "contracts/Exchange.sol:Exchange",
            "label": "_boxExchengData",
            "offset": 0,
            "slot": "10",
            "type": "t_mapping(t_uint256,t_struct(BoxExchengData)3784_storage)"
          }
        ],
        "types": {
          "t_address": {
            "encoding": "inplace",
            "label": "address",
            "numberOfBytes": "20"
          },
          "t_bool": {
            "encoding": "inplace",
            "label": "bool",
            "numberOfBytes": "1"
          },
          "t_bytes32": {
            "encoding": "inplace",
            "label": "bytes32",
            "numberOfBytes": "32"
          },
          "t_contract(IAddressManager)271": {
            "encoding": "inplace",
            "label": "contract IAddressManager",
            "numberOfBytes": "20"
          },
          "t_contract(IExchange)486": {
            "encoding": "inplace",
            "label": "contract IExchange",
            "numberOfBytes": "20"
          },
          "t_contract(IFundManager)663": {
            "encoding": "inplace",
            "label": "contract IFundManager",
            "numberOfBytes": "20"
          },
          "t_contract(ITruthBox)870": {
            "encoding": "inplace",
            "label": "contract ITruthBox",
            "numberOfBytes": "20"
          },
          "t_contract(IUserManager)920": {
            "encoding": "inplace",
            "label": "contract IUserManager",
            "numberOfBytes": "20"
          },
          "t_mapping(t_uint256,t_struct(BoxExchengData)3784_storage)": {
            "encoding": "mapping",
            "key": "t_uint256",
            "label": "mapping(uint256 => struct Exchange02.BoxExchengData)",
            "numberOfBytes": "32",
            "value": "t_struct(BoxExchengData)3784_storage"
          },
          "t_struct(BoxExchengData)3784_storage": {
            "encoding": "inplace",
            "label": "struct Exchange02.BoxExchengData",
            "members": [
              {
                "astId": 3771,
                "contract": "contracts/Exchange.sol:Exchange",
                "label": "_acceptedToken",
                "offset": 0,
                "slot": "0",
                "type": "t_address"
              },
              {
                "astId": 3773,
                "contract": "contracts/Exchange.sol:Exchange",
                "label": "_sellerId",
                "offset": 0,
                "slot": "1",
                "type": "t_bytes32"
              },
              {
                "astId": 3775,
                "contract": "contracts/Exchange.sol:Exchange",
                "label": "_buyerId",
                "offset": 0,
                "slot": "2",
                "type": "t_bytes32"
              },
              {
                "astId": 3777,
                "contract": "contracts/Exchange.sol:Exchange",
                "label": "_completerId",
                "offset": 0,
                "slot": "3",
                "type": "t_bytes32"
              },
              {
                "astId": 3779,
                "contract": "contracts/Exchange.sol:Exchange",
                "label": "_refundRequestDeadline",
                "offset": 0,
                "slot": "4",
                "type": "t_uint256"
              },
              {
                "astId": 3781,
                "contract": "contracts/Exchange.sol:Exchange",
                "label": "_refundReviewDeadline",
                "offset": 0,
                "slot": "5",
                "type": "t_uint256"
              },
              {
                "astId": 3783,
                "contract": "contracts/Exchange.sol:Exchange",
                "label": "_refundPermit",
                "offset": 0,
                "slot": "6",
                "type": "t_bool"
              }
            ],
            "numberOfBytes": "224"
          },
          "t_uint256": {
            "encoding": "inplace",
            "label": "uint256",
            "numberOfBytes": "32"
          },
          "t_uint8": {
            "encoding": "inplace",
            "label": "uint8",
            "numberOfBytes": "1"
          }
        }
      }
    }
  }
}